:020000040800F2
:10000000300C002075030008991600089B160008A4
:100010009F160008A3160008A7160008000000009D
:10002000000000000000000000000000AB16000807
:10003000AD16000800000000AF160008CB1600083F
:100040008F0300088F0300088F0300088F03000848
:100050008F0300088F0300088F0300087513000842
:100060008F030008971300088F0300088F03000810
:100070008F0300088F0300088F0300088F03000818
:100080008F0300088F0300088F0300088F03000808
:100090008F0300088F0300088F030008B5130008C2
:1000A0008F0300088F0300088F0300088F030008E8
:1000B0008F030008BD0500083D0500088F030008F8
:1000C0008F0300088F0300088F0300088F030008C8
:1000D0008F030008210F00088F0300088F0300081A
:1000E0008F0300088F0300088F03000800F002F858
:1000F00000F042F80AA090E8000C82448344AAF180
:100100000107DA4501D100F037F8AFF2090EBAE87D
:100110000F0013F0010F18BFFB1A43F0010318473B
:10012000704E0000904E0000103A24BF78C878C18D
:10013000FAD8520724BF30C830C144BF04680C60ED
:10014000704700000023002400250026103A28BF35
:1001500078C1FBD8520728BF30C148BF0B60704739
:10016000642903F0CD86782903F0048700207047C6
:100170001FB51FBD10B510BD03F0B4FF1146FFF74A
:10018000F7FF01F0E3F903F0D2FF03B4FFF7F2FF4A
:1001900003BC00F0E7FD00000CB5002001900090CA
:1001A0006B48006840F480306949086000BF6848C7
:1001B000006800F4003000900198401C0190009805
:1001C00018B90198B0F5A06FF1D16148006800F44A
:1001D000003010B10120009001E000200090009854
:1001E000012841D15B48006840F01000594908607F
:1001F0000846006820F0030008600846006840F0E8
:10020000010008605248406851494860084640680B
:1002100048600846406848600846406820F47C1002
:1002200048600846406840F4F81048600846006896
:1002300040F08070086000BF4548006800F0007022
:100240000028F9D04248406820F003004049486047
:100250000846406840F00200486000BF3C484068E3
:1002600000F00C000828F9D10CBD10B5FFF794FF81
:1002700010BD10B53648006840F0010034490860F0
:1002800008464068344908403149486008460068DB
:10029000324908402E4908600846006820F4802052
:1002A00008600846406820F4FE0048604FF41F00D4
:1002B0008860FFF7DAFF4FF000602949086010BD41
:1002C00010B5002100200022214B5B6803F00C01D7
:1002D00021B1042906D0082928D107E0214B224C5E
:1002E000236027E01F4B204C236023E0184B5B6802
:1002F00003F47010164B5B6803F48032022303EBA7
:10030000904022B9194B4343174C23600DE0104B2A
:100310005B6803F4003323B1144B4343124C236056
:1003200003E0104B4343104C236003E00D4B0E4C95
:10033000236000BF00BF064B5B68C3F303130C4C84
:10034000E15C094B1B68CB40074C236010BD0000EB
:1003500000100240002002400000FFF8FFFFF6FE00
:1003600008ED00E000127A000000002000093D00C6
:10037000040000200948804709480047FEE7FEE7DF
:10038000FEE7FEE7FEE7FEE7FEE7FEE7FEE7FEE745
:1003900004480549054A064B7047000073020008EF
:1003A000ED00000830060020300C0020300800204E
:1003B0003008002070B5044601F08DF9054600BFF5
:1003C00001F089F9401B04EB4401C1EBC411B0EB0F
:1003D000C10FF5D370BD70B5044601F07CF9054638
:1003E00000BF01F078F9401BA042FAD370BD0000B5
:1003F00070B505460C46062D40D2DFE805F03F03F8
:10040000101C2834012C04D12103464801F05DFC66
:1004100004E04FF48051434801F059FC2EE0012CD8
:1004200004D11021404801F050FC03E010213E4867
:1004300001F04DFC22E0012C04D120213A4801F0CA
:1004400044FC03E02021384801F041FC16E0012C77
:1004500004D14021344801F038FC03E04021324807
:1004600001F035FC0AE024B180212F4801F02DFC79
:1004700003E080212C4801F02AFC00BF00BF70BDC2
:1004800010B52A48806940F0040028498861084670
:10049000806940F0080088610846806940F00100EA
:1004A00088612048001D006820F470201D49091D46
:1004B00008600846006840F44030086019480C3075
:1004C000006840F4805017490C31086016480068F5
:1004D00080B215490860084600681549084312496A
:1004E000086011480C30006840F0F0000E490C31F3
:1004F00008601048406840F000700E4948600120D4
:100500000D49087009E000210B480078FFF770FFE3
:1005100009480078401C08490870074800780528F9
:10052000F1DD10BD00080140000C01400010024048
:1005300000003333000001401400002010B50121F9
:100540006E4802F02EFD002837D06D480088401C10
:1005500080B26B490880642804D100200880012003
:100560006849088068480088401C80B26649088055
:10057000142804D1002008800120644908806448C0
:100580000088401C80B2624908800C2804D10020F9
:10059000088001205F4908805F480088401C80B2C5
:1005A0005D4908800A2804D10020088001205B49A9
:1005B00008800121514802F005FD10BD10B5012150
:1005C000574802F0EEFC00281FD05648016856A09C
:1005D00003F056FC5748016857A003F051FC5A48F5
:1005E00001685AA003F04CFC5C4801685CA003F071
:1005F00047FC5E4801795EA003F042FC62A003F074
:100600003FFC0121464802F0DDFC10BD3EB5054629
:100610000C460121042001F074FD384801F0C8FDAA
:10062000A0B2ADF80400681E80B2ADF80000002052
:10063000ADF80600ADF802006946304801F08CFEC6
:1006400001212E4802F0AAFC012211462B4802F09B
:10065000FAF90121294802F0DBF94FA003F010FC60
:100660003EBD3EB505460C460121022001F049FD84
:100670002B4801F09DFDA0B2ADF8040048F69F4064
:10068000ADF800000020ADF80600ADF802006946A4
:10069000234801F061FE0121214802F07FFC012284
:1006A00011461F4802F0CFF901211D4802F0B0F9B0
:1006B00040A003F0E5FB3EBD08B54FF4A06001F09B
:1006C00089F91D208DF8000002208DF8010000201E
:1006D0008DF8020001208DF80300684601F07FF9D3
:1006E0001E208DF8000001208DF801008DF8020019
:1006F0008DF80300684601F072F908BD000800405B
:10070000160000201E0000201800002020000020FD
:100710001A000020220000201C00002024000020DD
:100720000004004058000020746872202D2D3E25E2
:10073000640D0A00600000207069746368202D2D2C
:100740003E25640D0A0000005C000020726F6C6C96
:10075000202D2D3E25640D0A0000000064000020BD
:10076000796177202D2D3E25640D0A00260000209A
:1007700072656D6F74652061646472202D2D3E304A
:100780007825780D0A0000002D2D2D2D2D2D2D2DD5
:100790002D2D2D2D2D0D0A0054696D6572203420EC
:1007A000696E697420737563636573732E2E2E0DE5
:1007B0000A00000054696D6572203320696E697407
:1007C00020737563636573732E2E2E0D0A0000006F
:1007D00070B505460C461021AD4801F078FA284660
:1007E00000F088FE0646204600F084FE1021A8484E
:1007F00001F06BFA304670BD70B504461021A44874
:1008000001F065FA204600F075FE002000F072FE4F
:10081000054610219E4801F058FA284670BD2DE982
:10082000F04107460D4616461021994801F04FFA4F
:10083000384600F05FFE8046002404E0285D00F0AA
:1008400059FE601CC4B2B442F8DB1021904801F09C
:100850003CFA4046BDE8F0812DE9F04107460D46DF
:10086000164610218A4801F032FA384600F042FE5E
:100870008046002405E0002000F03CFE2855601C66
:10088000C4B2B442F7DB1021814801F01EFA4046A1
:10089000BDE8F08170B504460D464FF400417C4838
:1008A00001F015FA2A462146A020FFF7B8FF4FF4C1
:1008B0000041774801F009FA70BD10B500F00BFF58
:1008C0000446214673A003F0DBFA76490C7101F06F
:1008D0006BF810BD1FB574A103C9CDE90201002456
:1008E0007048007908B9FFF7E8FF052202A9302017
:1008F000FFF795FF052269461020FFF7ADFF0024A2
:1009000006E01DF80400C22800D003E0601CC4B259
:10091000052CF6DB00BF052C05D165A003F0B0FA6D
:10092000012004B010BD67A003F0AAFA0020F8E788
:1009300010B500F07DFDFFF7CDFF10BD10B54FF4F1
:100940000041534801F0C3F9FF21E220FFF740FFC7
:10095000052262492A20FFF762FF01212120FFF7CB
:1009600037FF01212220FFF733FF28212520FFF741
:100970002FFF20213120FFF72BFF0F212620FFF72B
:1009800027FF0F212020FFF723FF4FF400414048AD
:1009900001F09BF952A003F073FA10BD10B54FF4AB
:1009A00000413B4801F093F9FF21E120FFF710FFE0
:1009B00005223C493020FFF732FF052247492A2013
:1009C000FFF72DFF01212120FFF702FF0121222047
:1009D000FFF7FEFE1A212420FFF7FAFE282125202A
:1009E000FFF7F6FE0F212620FFF7F2FE0E21202052
:1009F000FFF7EEFE4FF40041254801F066F910BD07
:100A000070B505464FF40041214801F060F92022FD
:100A10002946A020FFF703FF4FF400411C4801F0D6
:100A200054F900BF364800680028FBD10720FFF7C3
:100A3000E3FE044621462720FFF7CAFE04F010001B
:100A400028B1FF21E120FFF7C3FE102070BD04F0A4
:100A5000200008B12020F9E7FF20F7E770B5044631
:100A60000720FFF7C9FE054629462720FFF7B0FEFD
:100A700005F0400050B1202221466120FFF7CFFE53
:100A8000FF21E220FFF7A4FE002070BD0120FCE75B
:100A90000008014074696D652069732030782578FD
:100AA0000D0A000026000020C2C2C2C2C20000001F
:100AB0004E524632344C303120666F756E642E2EA5
:100AC0002E0D0A004E524632344C3031206E6F7477
:100AD00020666F756E642E2E2E0D0A002B000020EE
:100AE0004E524632344C30312073657420746F207E
:100AF0005258206D6F64652E2E2E0D0A00000000E6
:100B00002C01214210B58B488B4948608B484860C6
:100B10008BA003F0B5F910BD8748006940F0800054
:100B20008549086170478448C16801F0010008B137
:100B30000120704701F0040008B10220F9E701F03C
:100B4000100008B10320F4E70020F2E770B5044676
:100B500000BFFFF7E8FF0546012D00D006E00120A9
:100B6000FFF739FC601E84B2002CF2D100BF04B93B
:100B7000FF25284670BD70B50546002445F6FF7078
:100B8000FFF7E4FF0446C4B96B48006940F0020077
:100B90006949086108464561006940F04000086104
:100BA00045F6FF70FFF7D2FF0446012C05D06248DE
:100BB000006920F0020060490861204670BD70B5F0
:100BC00005460E46FF20FFF7C1FF044694B95A4878
:100BD000006940F00100584908612E80FF20FFF7AE
:100BE000B5FF0446012C05D05348006920F00100F0
:100BF00051490861204670BD0146088870472DE9BB
:100C0000F04105460E461746002407E036F814105A
:100C10002846FFF7D4FFAD1C601C84B2BC42F5DB54
:100C2000BDE8F08130B503460C461546002207E0CA
:100C30001846FFF7E1FF24F812009B1C501C82B2FB
:100C4000AA42F5DB30BD2DE9F05F80468A461746A3
:100C5000B8F1006F02D34148804501D3BDE8F09F51
:100C6000FFF750FFA8F1006B4FEA9B25CBF3480933
:100C7000C9F50074A74200DC3C464DE04FF000612E
:100C800001EB85208A143649FFF7CCFF00260BE0E4
:100C900009EB0600324931F810004FF6FF71884227
:100CA00000D003E0701C86B2A642F1DB00BFA64272
:100CB0001BDA4FF0006101EB8520FFF75CFF002697
:100CC00008E03AF8160006EB0901254A22F811005F
:100CD000701C86B2A642F4DB4FF0006101EB852068
:100CE0008A141F49FFF78BFF04E022465146404615
:100CF000FFF785FFA74200D10FE06D1C4FF0000900
:100D00000AEB440AA044381B87B2B7F5007F02DD26
:100D10004FF4007400E03C46B0E700BFFFF7FCFE74
:100D200000BF9BE713B50446012201A92046FFF747
:100D30008AFF1CBD2301674500200240AB89EFCD2F
:100D4000466C61736820756E6C6F636B207375639E
:100D5000636573732E2E2E0D0A000000000001083B
:100D600084000020014600BF704700BF844A1288FB
:100D700002F04002002AF9D0C2B2814B1B1D1A803A
:100D8000704708B525208DF8000002208DF801007D
:100D900000208DF8020001208DF80300684600F065
:100DA0001EFE08BD2DE9F05F05460E46300103F03A
:100DB0007BFF8146734905FB01F003F075FF824616
:100DC000494603F073FE0746384603F04DFF84B2F0
:100DD000204603F069FF8346394604F045F8824611
:100DE0004FF0834103F074FF814603F03DFF8046DE
:100DF0004FF6FF7000EA041404EB080084B2624866
:100E0000806940F00400604988610846806940F4C8
:100E1000804088615D48006820F47F605B4908601D
:100E20000846006840F40B6008605748C06840F40A
:100E300080405549C8600846C06820F48040C860BA
:100E40004F4808300480001D008842F20C0108431E
:100E50004B490C3108800846008840F480700880B7
:100E60000846008840F020000880FFF78AFF002035
:100E70004749088048807F20888046488860002055
:100E80004549088048807F208880444888602946FA
:100E900043A002F0F5FF314649A002F0F1FFBDE8A2
:100EA000F09F028883881A40836899540288521CF4
:100EB0000280704710B5044621463548FFF7F1FF20
:100EC000012240F227712E4802F05BF910BD014665
:100ED0004A888B881A408B68985C4A88521C4A80E2
:100EE0007047014608884A88801A8A8810407047EF
:100EF00001884180704770B504460D46002606E023
:100F000021782348FFF7CDFF641C701CC6B2AE42A7
:100F1000F6DB012240F22771194802F032F970BD68
:100F200010B540F22771164802F010FA90B1184837
:100F3000FFF7CDFF04462146114802F083F914481B
:100F4000FFF7CFFFD8B9002240F227710C4802F01A
:100F500018F914E040F22551094802F0F7F970B190
:100F600040F22551064802F01BFA054802F06EF9DE
:100F70001A490870084601780748FFF792FF10BD2C
:100F80000038014040420F000010024004080140B8
:100F9000840400201C050020900400209C040020F4
:100FA0004D435520636C6F636B2066726571756588
:100FB0006E63793A25644D487A200D0A00000000DE
:100FC000554152542031206261756420667265710A
:100FD00075656E63793A2564200D0A00340000209F
:100FE0008F48806940F004008D4988610846806917
:100FF00040F0080088618B4800686FF30B00894956
:1010000008608948006820F00F008749086084481C
:10101000806940F40070824988610846C06840F4E5
:101020000070C8600846C06820F40070C8600846B8
:10103000406820F4404048600846406840F4004062
:1010400048607A4800687A4908407849086008464C
:10105000006808600846006820F480700860081D79
:10106000006820F00200091D08600846006820F4AE
:10107000602008600846006840F460200860084668
:10108000006840F4801008600846006820F40060A2
:1010900008600846006840F4000008606348283093
:1010A000006820F470006149283108600846006833
:1010B000002008605D480C30006820F038005B4973
:1010C0000C3108600846006840F038000860081FCE
:1010D000006820F4E010091F08600846006840F42A
:1010E000E0100860081F006840F00100091F086058
:1010F0000846006840F00800086000BF4B48001D2B
:10110000006800F008000028F8D14848001D006879
:1011100040F004004549091D086000BF4348001D18
:10112000006800F004000028F8D1704701463F48ED
:101130003030006820F01F003C4A3032106010460A
:101140000068084310603948001D006840F48000C2
:10115000364A121D106000BF3448001F006800F0BE
:1011600002000028F8D031484830006880B270474B
:1011700070B506460B460024002505E03046FFF713
:10118000D5FF0444681CC5B29D42F7DBB4FBF3F005
:1011900080B270BD2DE9FE4F0024A14608E010206A
:1011A000FFF7C4FF204484B209F1010000F0FF09F9
:1011B000B9F1140FF3DB142094FBF0F084B2204655
:1011C00003F072FD824603F0E3FB07464FF0663200
:1011D000184B03F0E9F9054602F0B4FF02900298BB
:1011E00003F0D6FB0546144A144B03F0DBFA07461E
:1011F000134A144B03F080F80022134BCDE9000191
:1012000002F0D2FF824602F09DFF02900F49029841
:1012100003F05EFD0290029803F00AFDBDE8FE8F28
:101220000010024000080140000C0140042401406D
:10123000FFFFF00066664A3FE17A14AE47E1F63FF1
:1012400022FDF675E09C713F00003940000020410E
:101250001FB501210D2000F047FF07208DF8080081
:1012600004208DF8090000208DF80A0001208DF877
:101270000B0002A800F0B3FB09208DF80800052040
:101280008DF8090000208DF80A0001208DF80B0070
:1012900002A800F0A4FB17208DF8080006208DF8A6
:1012A000090000208DF80A0001208DF80B0002A82B
:1012B00000F095FB0220ADF80C0048208DF80F00DF
:1012C00003208DF80E0003A9454800F051FC0820CA
:1012D000ADF80C0048208DF80F0003208DF80E00AB
:1012E00003A93F4800F044FC4FF48070ADF80C00B7
:1012F00048208DF80F0003208DF80E0003A939480F
:1013000000F036FC0121084600F048FD0220009064
:1013100000208DF804000C208DF8050001208DF8C8
:101320000600684602F0EAF90321012000F036FDCC
:101330000820009000208DF804000C208DF8050096
:1013400001208DF80600684602F0D8F90821002037
:1013500000F024FD4FF48070009000208DF8040010
:101360000C208DF8050001208DF80600684602F07B
:10137000C5F91FBD10B5022002F026FA50B15A205F
:101380001949087019A002F07BFDFFF796FA0220B8
:1013900002F02BFA10BD10B5082002F015FA40B18A
:1013A00001201749087017A002F06AFD082002F01A
:1013B0001CFA10BD10B54FF4807002F005FA70B140
:1013C0001548007808B9012000E000201249087093
:1013D00012A002F055FD4FF4807002F006FA10BD25
:1013E000000C014000080140720000206B6579206C
:1013F0006D6F64652070726573732E2E2E0D0A005A
:10140000700000206B6579206164642070726573E0
:10141000732E2E2E0D0A0000710000206B657920BE
:101420007375622070726573732E2E2E0D0A000084
:1014300000B587B00121042000F056FE01210820EC
:1014400000F052FE0121080300F04EFEE020ADF84E
:10145000040001208DF8060018208DF8070001A96E
:10146000314800F085FB4FF40040ADF80400012046
:101470008DF8060010208DF8070001A92A4800F019
:1014800077FB1020ADF8040001208DF80600102035
:101490008DF8070001A9244800F06AFB10212248BA
:1014A00000F013FC0020ADF808004FF48270ADF896
:1014B0000A000020ADF80C00ADF80E00ADF81000E9
:1014C0004FF40070ADF812001020ADF814000020A9
:1014D000ADF816000720ADF8180002A9134801F076
:1014E0009FFF0121114802F040F811A002F0C8FC52
:1014F00007B000BD10B5044600BF02210B4802F042
:10150000B8F80028F9D02146084802F05FF800BF7B
:101510000121064802F0ADF80028F9D0034802F096
:1015200057F8C0B210BD0000000801400030014073
:101530005350492062757320696E69742073756316
:10154000636573732E2E2E0D0A000000092000F033
:1015500026F900F0ADF8474800684FF47A72B0FB06
:10156000F2F1B1F1807F00D31DE021F07F40401EF9
:101570004FF0E022506150170F22002807DA1307BE
:101580001D0E3D4B00F00F04241F1D5503E01307F3
:101590001C0E3A4B1C5400BF00204FF0E02290611B
:1015A0000720106100BF4FF4E13135480078FFF7A4
:1015B000F9FB00F0C7F8FFF7A5FA00F0E2F9FEF733
:1015C0005FFFFFF70DFDFFF743FEFFF7B1F9FFF7F0
:1015D000E5F902F0CDF94FF4FA6129480078FFF7F8
:1015E00040F84FF47A7126480078FFF70FF8012190
:1015F0000220FEF7FDFE01210320FEF7F9FE02F0B6
:10160000FDF800201F49087000210220FEF7F0FEBF
:1016100000210320FEF7ECFE2BE01B480088012888
:1016200015D10020184908801848007808B9012011
:1016300000E0002015490870084601780120FEF7F7
:10164000D7FE02F084FA02F01DFB02F02BFB1048DB
:101650000088012804D102F0D1F800200C4908804C
:101660000C48008828B100200A490880072002F0B1
:1016700075FBD2E70000002018ED00E000E400E078
:1016800040000020700000201E00002035000020D7
:101690002000002022000020704700BFFEE700BFAE
:1016A000FEE700BFFEE700BFFEE7704770477047E8
:1016B00000B585B0684600F0AAFC1F490098B0FB51
:1016C000F1F01E49086005B000BD1D480068401CCF
:1016D0001B490860704700BF194801684FF0E020BF
:1016E0008269174800688142F6D11448006800EB0F
:1016F0004003C3EBC010C2EBC000104B1B68B0FB33
:10170000F3F001EB4103C3EBC11300EBC3007047DF
:1017100030B50446FFF7DFFF054600BFFFF7DBFFEC
:10172000401B04EB4401C1EBC411B0EBC10FF5D376
:1017300030BD03480068704740420F003800002069
:101740003C00002010B5FEF7B7FFFFF71AFB10BDF5
:10175000002054490861C860142048610020886155
:10176000C8610846006840F001000860084640680B
:101770004D4908404B494860084600684B490840BD
:10178000484908600846006820F480200860084640
:10179000406820F4FE0048600020886070470146E1
:1017A0004048006840F001003E4A10601046006862
:1017B00010601046006840F48020106000BF394877
:1017C000006800F002000028F9D036484268881E00
:1017D00042EA8040334A50601046406850601046EC
:1017E000006840F08070106000BF2E48006800F074
:1017F00000700028F9D02B48406840F00200294AC8
:1018000050608806000E2A4A107010460078704713
:1018100000B502460023FFF79BFF2248006840F412
:1018200080302049086000BF1E480068400C002836
:10183000FAD04FF480601B494860901EC2B208463F
:10184000406840EA824048600846406840F4803082
:1018500048601848006840F0320016490860114896
:10186000006840F080700F49086000BF0D480068B4
:10187000400E0028FAD00B48406840F002000949A9
:10188000486005E007484068C0F3870303F003039E
:10189000022BF7D1901CC006000E054908700846BF
:1018A000007800BD001002400000FFF8FFFFF6FEC8
:1018B000400000200020024010B502223D493E4871
:1018C000FFF7B0F93B480088012800D110BD002087
:1018D000FCE710B5022237493748FFF7B4F910BDCD
:1018E00010B50724620033493348FFF79BF910BD58
:1018F00010B5072462002F492F48FFF7A4F910BD47
:101900002C4840882D4908802A4880882C49088026
:101910002848C0882B490880264800892A49088021
:101920002448807A40B2294908702248007B28491F
:101930000871704701201F490880204800884880AE
:101940001F48008888801F480088C8801E4800887B
:1019500008811E4890F9000048811D48007988815F
:1019600070470020154908801549088015490880EE
:10197000154908805A20154908700020144908713B
:10198000704710B5FFF798FF20B1FFF7A9FFFFF7E9
:10199000B7FF08E0FFF7E5FFFFF7CCFF012005499F
:1019A0000880FFF7A5FF10BD10B5FFF7C3FFFFF7D5
:1019B0009FFF10BD9C05002000F00008680000207B
:1019C0006A0000206C0000206E00002072000020E1
:1019D0002600002031490143314A1160704770B53B
:1019E000002100230F22C47804B32D4C246804F492
:1019F000E064C4F5E064210AC1F10403CA404478FC
:101A000004FA03F18478144021430901254C067837
:101A1000A155047804F01F050124AC4005786D1130
:101A2000AD0005F1E025C5F8004109E0047804F0B7
:101A30001F050124AC401C4D0678761145F8264060
:101A400070BD1A4A0A400243154B1B1F1A607047AB
:101A500039B1134A121D12680243114B1B1D1A6043
:101A600006E00F4A121D126882430D4B1B1D1A60BF
:101A70007047042808D14FF0E021096941F00401C2
:101A80004FF0E022116107E04FF0E021096921F0F9
:101A900004014FF0E0221161704700000000FA05D8
:101AA0000CED00E000E400E080E100E080FFFF1FBB
:101AB00010B50446CC48844208D10121042000F02E
:101AC0002DFB0021042000F029FB46E0C74884429A
:101AD00008D10121082000F021FB0021082000F09E
:101AE0001DFB3AE0C248844208D10121102000F0D9
:101AF00015FB0021102000F011FB2EE0BD488442B0
:101B000008D10121202000F009FB0021202000F055
:101B100005FB22E0B848844208D10121402000F0B2
:101B2000FDFA0021402000F0F9FA16E0B3488442A3
:101B300008D10121802000F0F1FA0021802000F07E
:101B4000EDFA0AE0AE48844207D10121801500F089
:101B5000E5FA0021A01500F0E1FA10BD10B5012151
:101B6000084600F0DBFA0021012000F0D7FA10BD92
:101B70002DE9F04102460025002600200023002424
:101B8000002791F803C00CF00F0591F803C00CF08A
:101B9000100CBCF1000F03D091F802C04CEA05050F
:101BA00091F800C0BCF1000F31D0146800202BE088
:101BB0004FF0010C0CFA00F3B1F800C00CEA030678
:101BC0009E4220D183004FF00F0C0CFA03F7BC4368
:101BD00005FA03FC4CEA040491F803C0BCF1280F99
:101BE00006D14FF0010C0CFA00FCC2F814C00AE058
:101BF00091F803C0BCF1480F05D14FF0010C0CFA6D
:101C000000FCC2F810C0401C0828D1D31460B1F801
:101C100000C0BCF1FF0F34DD546800202EE000F15D
:101C2000080C4FF0010808FA0CF3B1F800C00CEAF8
:101C300003069E4221D183004FF00F0C0CFA03F7EC
:101C4000BC4305FA03FC4CEA040491F803C0BCF160
:101C5000280F05D100F1080C08FA0CF8C2F814801E
:101C600091F803C0BCF1480F07D100F1080C4FF008
:101C7000010808FA0CF8C2F81080401C0828CED3DE
:101C80005460BDE8F0814FF6FF7101800221817040
:101C90000421C17070470246002093680B400BB1CD
:101CA000012000E0002070470146886880B270473C
:101CB00002460020D3680B400BB1012000E0002059
:101CC00070470146C86880B2704701617047416142
:101CD00070470AB1016100E041617047C16070471F
:101CE0004FF480320A438261816182618269826934
:101CF000704702460020434B18684FF68073184027
:101D000040EA021008433F4B186070473E49C861E3
:101D10007047F0B50A46002300240021002500F09A
:101D20000046B6F1004F02D1364EF16901E0354E62
:101D30007168C0F3034583B200F44016B6F5401F46
:101D400008D121F070612F4E766826F070662D4F15
:101D50007E6012E000F48016B6F5801F06D10326DF
:101D600006FA05F4A14341F0706106E0460D360124
:101D700003FA06F6B14341F0706122B1460D360117
:101D800003FA06F6314300F00046B6F1004F02D1E7
:101D90001C4EF16101E01B4E7160F0BD30B50022B8
:101DA0008B071C0F0F2303FA04F2164B08338C1019
:101DB00053F824309343134C08348D1044F82530E5
:101DC00023468C1053F824308C07240F00FA04F4B7
:101DD00023430C4C08348D1044F8253030BD0A499B
:101DE000DC3108607047000000080140000C014031
:101DF000001001400014014000180140001C014087
:101E0000002001400000014000002042DF4800683F
:101E100040F00100DD49086008464068DC490840A0
:101E2000DA49486008460068DA490840D74908603E
:101E30000846006820F4802008600846406820F4C6
:101E4000FE0048604FF41F0088607047CF49096862
:101E500021F48031CD4A11601146096821F48021B6
:101E60001160B0F5803F03D0B0F5802F0ED106E0B1
:101E7000C649096841F48031C44A116007E0C3498A
:101E8000096841F4A021C14A116000E000BF00BF11
:101E9000704710B501460022002300204A11012A94
:101EA00002D1BA4C236806E0022A02D1B74C236A59
:101EB00001E0B64C636A01F01F02012494401C400B
:101EC0000CB1012000E0002010BD38B500200090CA
:101ED0000024002500BF3120FFF7DBFF05460098F6
:101EE000401C00900098B0F5A06F01D0002DF2D0FA
:101EF0003120FFF7CEFF08B1012400E00024204686
:101F000038BD01460020A14A106820F0F80040EAE0
:101F1000C10010607047A049086070470246002069
:101F20009A4B586820F47C1042EA01031843974BFF
:101F30005860704798490866704701460020934AE8
:101F4000506820F003000843506070478F48406895
:101F500000F00C007047014600208C4A506820F0C9
:101F6000F00008435060704701460020874A5068DF
:101F700020F4E06008435060704701460020834A27
:101F8000506820F4605040EAC1005060704729B1A9
:101F90007E4A527A02437D4B5A7204E07B4A527A5F
:101FA00082437A4B5A7270477B49D8310860704738
:101FB00001460020754A506820F4404008435060B4
:101FC00070470021714A20321170704A82F8201047
:101FD000012802D004280AD104E001216B4A2032F2
:101FE000117005E00521694A2032117000E000BF40
:101FF00000BF70476949086070476449096A014336
:10200000624A11627047654944390860704730B5CB
:1020100000210022002400235C4D6D6805F00C01B6
:1020200021B1042905D0082923D105E05C4D0560C4
:1020300022E05B4D05601FE0544D6D6805F47012A1
:10204000524D6D6805F48034022505EB92421CB9AF
:10205000544D554305600BE04C4D6D6805F400355B
:102060001DB1504D5543056002E04D4D554305608F
:1020700002E04B4D056000BF00BF444D6D6805F0A8
:10208000F0010909484D6B5C0568DD4045603F4D36
:102090006D6805F4E061090A434D6B5C4568DD40FD
:1020A00085603A4D6D6805F46051C90A3E4D6B5C20
:1020B0004568DD40C560354D6D6805F44041890BCC
:1020C0003A4D6B5CC568B5FBF3F5056130BD29B1D0
:1020D0002E4A526902432D4B5A6104E02B4A526941
:1020E00082432A4B5A61704729B1284A92690243B8
:1020F000264B9A6104E0254A92698243234B9A61F8
:10210000704729B1214AD2690243204BDA6104E0C9
:102110001E4AD26982431D4BDA61704729B11B4ABE
:10212000D2680243194BDA6004E0184AD26882434D
:10213000164BDA60704729B1144A12690243134BF7
:102140001A6104E0114A12698243104B1A61704708
:1021500012494039086070470F49C86470470B49FD
:10216000C87170470948406A40F08070074948626A
:10217000704701460020054A92680A400AB10120D2
:1021800000E000207047014988727047001002404B
:102190000000FFF8FFFFF6FE0000424280044242CA
:1021A00000127A0000093D0041000020510000208B
:1021B00010B50446FE48844208D10121C014FFF73F
:1021C000ADFF0021E014FFF7A9FFC4E0B4F1804F98
:1021D00008D101210846FFF7AEFF00210120FFF7DB
:1021E000AAFFB8E0F348844208D101210220FFF79A
:1021F000A2FF00210220FFF79EFFACE0EE488442E0
:1022000008D101210420FFF796FF00210420FFF7E9
:1022100092FFA0E0E948844208D101210820FFF79D
:102220008AFF00210820FFF786FF94E0E4488442FB
:1022300008D101211020FFF77EFF00211020FFF7B9
:102240007AFF88E0DF48844208D101212020FFF78F
:1022500072FF00212020FFF76EFF7CE0DA48844205
:1022600008D101214014FFF759FF00216014FFF746
:1022700055FF70E0D548844209D10121C804FFF719
:102280004DFF00214FF40020FFF748FF63E0D048E6
:10229000844209D101210805FFF740FF00214FF4D6
:1022A0008010FFF73BFF56E0CA48844209D1012164
:1022B0004805FFF733FF00214FF40010FFF72EFF12
:1022C00049E0C548844208D101214020FFF733FF8F
:1022D00000214020FFF72FFF3DE0C048844208D195
:1022E00001218020FFF727FF00218020FFF723FF37
:1022F00031E0BB48844208D101218015FFF71BFF64
:102300000021A015FFF717FF25E0B648844209D148
:1023100001210804FFF702FF00214FF48030FFF78E
:10232000FDFE18E0B048844209D101214804FFF7BE
:10233000F5FE00214FF40030FFF7F0FE0BE0AB4854
:10234000844208D101218804FFF7E8FE00214FF400
:102350008020FFF7E3FE10BD00220288944B9842D4
:102360000ED0994B98420BD0B0F1804F08D0914BD2
:10237000984205D0904B984202D0904B984204D19D
:102380004FF68F731A404B881A438D4B984207D0F3
:102390008C4B984204D04FF6FF431A40CB881A4327
:1023A00002808B8883850B880385814B98420BD0F4
:1023B000854B984208D08B4B984205D08A4B984267
:1023C00002D08A4B984201D10B7A03860123838283
:1023D000704770B5002400220023058C4FF6FE766E
:1023E00035400584028C8388048B4FF68F752C4012
:1023F000B51E2C400D882C43751E2A400D892A439A
:102400004D882A436A4DA8420BD06F4DA84208D090
:10241000744DA84205D0744DA84202D0734DA84215
:1024200013D14FF6F7752A404D892A434FF6FB75B5
:102430002A408D882A434FF6FF652B404FF6FF5503
:102440002B408D892B43CD892B4383800483CD88FA
:102450008586028470BD70B5002400220023058C9F
:102460004FF6EF7635400584028C8388048B48F65E
:10247000FF752C404FF6FF452C400D884FF6FF7638
:1024800006EA05252C434FF6DF752A400D8906EA3A
:1024900005152A434D8806EA05152A43444DA842EE
:1024A00002D0494DA8421DD14FF67F752A404D8973
:1024B0004FF6FF7606EA05152A434FF6BF752A4008
:1024C0008D8806EA05152A434FF6FF352B404FF25B
:1024D000FF752B408D8906EA85052B43CD8906EAD9
:1024E00085052B4383800483CD880587028470BDD6
:1024F00070B5002400220023058C4FF6FF6635409E
:102500000584028C8388848B4FF68F752C404FF6A0
:10251000FC752C400D882C434FF6FF552A400D8941
:102520004FF6FF7606EA05252A434D8806EA05257B
:102530002A431F4DA84202D0234DA8421DD14FF27D
:10254000FF752A404D894FF6FF7606EA05252A4396
:102550004FF6FF352A408D8806EA05252A434EF6B8
:10256000FF752B404DF6FF752B408D8906EA05154A
:102570002B43CD8906EA05152B4383808483CD88C0
:102580008587028470BD70B5002200230024058C6D
:102590004EF6FF7635400584038C8488828B48F69E
:1025A000FF752A404FF6FF452A400D8820E00000C5
:1025B000002C01400004004000080040000C0040D6
:1025C000001000400014004000340140004C014065
:1025D000005001400054014000180040001C004021
:1025E00000200040004001400044014000480140FC
:1025F0004FF6FF7606EA05252A434DF6FF752B4078
:102600000D8906EA05352B434D8806EA05352B432F
:10261000FA4DA84202D0FA4DA84208D14BF6FF75F8
:102620002C408D894FF6FF7606EA85152C43848071
:102630008283CD88A0F84050038470BD828B4FF216
:10264000FF331A408283828B4FF6FF7303EA012324
:102650001A4382837047F0B50C46154600220021CC
:102660000026078C4EF6FF7C07EA0C070784828B56
:10267000018C4FF6FF7707EA043640F6FF473A40F1
:102680004FF6FF7707EA05273A434FF6FF7707EA49
:1026900003373A43D94FB8420ED0D94FB8420BD086
:1026A000B0F1804F08D0D74FB84205D0D64FB842CE
:1026B00002D0D64FB84206D14DF6FF77394046F4E6
:1026C0008057394305E047F6FF57394044F48057B7
:1026D000394382830184F0BD828B4FF6F3731A4035
:1026E0008283828B0A4382837047F0B50C4615467D
:1026F000002200210026078C4FF6FF6C07EA0C072A
:102700000784828B018C4FF6FF7707EA04264FF689
:102710000C773A404FF6FF7707EA03172F433A4307
:10272000B64FB8420ED0B64FB8420BD0B0F1804F82
:1027300008D0B44FB84205D0B34FB84202D0B34F1F
:10274000B84206D14FF6FF57394046F480773943F7
:1027500005E04FF2FF57394044F4807739438283D4
:102760000184F0BD028B4FF2FF331A400283028BCB
:102770004FF6FF7303EA01231A4302837047F0B553
:102780000C461546002200210026078C4FF6EF7CF0
:1027900007EA0C070784028B018C4FF6FF7707EAE4
:1027A000041640F6FF473A404FF6FF7707EA033733
:1027B0003A434FF6FF7707EA05273A438F4FB8426F
:1027C0000ED08F4FB8420BD0B0F1804F08D08D4F54
:1027D000B84205D08C4FB84202D08C4FB84206D1D7
:1027E0004FF6DF77394046F01007394305E04FF6E2
:1027F0005F77394044F01007394302830184F0BD0C
:10280000028B4FF6F3731A400283028B0A43028352
:102810007047F0B50C46154600220021068C4FF695
:10282000FE773E400684028B018C4FF60C763240D8
:102830007E1C06EA03162E433243704EB0420ED081
:102840006F4EB0420BD0B0F1804F08D06D4EB04209
:1028500005D06D4EB04202D06C4EB04206D14FF65C
:10286000FD76314044F00106314305E04FF6F57640
:10287000314044F00106314302830184F0BD70B55C
:1028800005460C465D4885420ED05D4885420BD01A
:10289000B5F1804F08D05B48854205D05A48854243
:1028A00002D05A48854200D100E000BF208850B9CC
:1028B0002389A28861882846FFF7ABFFE188284674
:1028C000FFF79EFF25E0208804280AD12389A288EB
:1028D00061882846FFF753FFE1882846FFF742FF4B
:1028E00017E0208808280AD12389A2886188284611
:1028F000FFF7FBFEE1882846FFF7EEFE09E023899B
:10290000A28861882846FFF7A6FEE1882846FFF7DF
:1029100095FE70BD2DE9F04105460C4600260127C5
:10292000608808B9022600E00026A088012801D1AD
:10293000022700E001272088A0B92389A2886188A6
:102940002846FFF766FFE1882846FFF759FF2389ED
:102950003A4631462846FFF712FFE1882846FFF73E
:1029600001FF13E02389A28861882846FFF707FF4B
:10297000E1882846FFF7F6FE23893A463146284685
:10298000FFF747FFE1882846FFF73AFFBDE8F081EF
:102990000A884B881A438B881A43CB881A430B89C1
:1029A0001A434B891A438B891A43A0F84420704775
:1029B0004FF6FF71818000210180C180418001724A
:1029C00070470021018041808180C1800181418167
:1029D0008181C18170470021018041800121818076
:1029E0000021C180018170470021018041808180E8
:1029F000C18001814181818170470000002C01402C
:102A0000003401400004004000080040000C004079
:102A100021B1028842F00102028004E002884FF6F0
:102A2000FE731A400280704731B1B0F8442042F47E
:102A30000042A0F8442005E0B0F84420C2F30E02A2
:102A4000A0F8442070471AB183890B43838102E0C8
:102A500083898B43838170478182704741EA0203F7
:102A6000A0F8483070471AB183890B43838102E094
:102A700083898B438381704701894FF6F872114037
:102A8000018170470A46002101894FF68F73194072
:102A900011430181704730B504460D462946204652
:102AA000FFF7F0FF208940F00700208130BD2DE9BD
:102AB000F04104460D4616461F46602D06D13B46A2
:102AC000012231462046FFF75AFE05E03B4601222F
:102AD00031462046FFF79DFE29462046FFF7D2FFEC
:102AE000208940F007002081BDE8F08130B50C4618
:102AF00000210189C9B24FF6FF7505EA0325154388
:102B000025432943018130BD2DE9F04105460E469C
:102B100017469846002443463A4631462846FFF772
:102B2000E5FF2C894FF6F870044044F007044FF697
:102B30008F70044044F070042C81BDE8F081F0B542
:102B400004460D4616461F463B4632462946204659
:102B5000FFF7CCFF208940F480402081F0BD018543
:102B6000828270470A46002101884FF68F73194010
:102B7000114301807047F0B50C4615461E460021F2
:102B8000002200230189028B038C4FF6F87739402D
:102B900021434FF6FC473A4040F201173A434FF6C3
:102BA000DD773B404FF6FF7707EA06172F433B439D
:102BB000018102830384F0BD0A460021018B4FF698
:102BC0008F7319401143018370470A460021018B1E
:102BD00048F6FF7319404FF6FF7303EA02231943C7
:102BE000018370470A460021818B4FF68F7319408D
:102BF0001143818370470A460021818B48F6FF7399
:102C000019404FF6FF7303EA02231943818370478B
:102C100021B1028842F08002028004E002884FF66F
:102C20007F731A400280704721B1828842F004020B
:102C3000828004E082884FF6FB731A4082807047DE
:102C400021B1828842F00802828004E082884FF637
:102C5000F7731A408280704721B1828842F00102E6
:102C6000828004E082884FF6FE731A4082807047AB
:102C70000A460021018B4FF6F77319401143018377
:102C800070470A460021018B4FF2FF7319404FF63F
:102C9000FF7303EA02231943018370470A460021A8
:102CA000818B4FF6F77319401143818370470A46B1
:102CB0000021818B4FF2FF7319404FF6FF7303EA37
:102CC00002231943818370470A460021018B4FF686
:102CD000FB7319401143018370470A460021018BA1
:102CE0004FF6FF3319404FF6FF7303EA02231943EF
:102CF000018370470A460021818B4FF6FB73194010
:102D00001143818370470A460021818B4FF6FF33C0
:102D100019404FF6FF7303EA02231943818370477A
:102D20000A460021018B4FF67F731940114301833E
:102D300070470A460021018BC1F30E014FF6FF7365
:102D400003EA02231943018370470A460021818B5D
:102D50004FF67F7319401143818370470A46002163
:102D6000818BC1F30E014FF6FF7303EA022319436F
:102D7000818370470A460021018C4FF6FD7319408C
:102D80001143018470470A460021018C4FF6F77306
:102D900019401143018470470A460021018C4FF607
:102DA000DF7319404FF6FF7303EA021319430184DE
:102DB00070470A460021018C4FF67F7319404FF689
:102DC000FF7303EA02131943018470470A46002186
:102DD000018C4FF6FF5319404FF6FF7303EA0223AD
:102DE0001943018470470A460021018C4FF2FF739A
:102DF00019404FF6FF7303EA022319430184704719
:102E00000A460021018C4DF6FF7319404FF6FF73FF
:102E100003EA023319430184704730B500230124CB
:102E20008C40A3B2048C9C430484048C02FA01F508
:102E3000ADB22C43048430BD30B5002304248C4053
:102E4000A3B2048C9C430484048C02FA01F5ADB255
:102E50002C43048430BD70B503460020002418467E
:102E6000183001258D40ACB21D8CA5431D8409B1DD
:102E7000082909D100EB6100056825F0700505609F
:102E80000568154305600EE00D1FC5F34E05284487
:102E9000056825F4E045056005684FF6FF7606EA0B
:102EA00002263543056070BD21B1028842F002025E
:102EB000028004E002884FF6FD731A4002807047DA
:102EC00021B1028842F00402028004E002884FF639
:102ED000FB731A400280704721B1828842F0800261
:102EE000828004E082884FF67F731A4082807047A8
:102EF00002884FF6F7731A40028002880A43028064
:102F0000704782884FF68F731A40828082880A4306
:102F10008280704702894FF6F8731A400281028955
:102F20000A430281704702894FF67F731A4002817B
:102F300002890A4302817047818470478185704706
:102F4000818670470187704781877047A0F84010DD
:102F5000704702884FF6FF431A40028002880A43F6
:102F6000028070470146888E70470146088F70477F
:102F70000146888F70470146B1F84000704701460E
:102F8000888C70470146088D704702460020138ADE
:102F90000B400BB1012000E000207047CA430282C1
:102FA000704730B50246002000230024158A05EA48
:102FB0000103958905EA010413B10CB1012000E079
:102FC000002030BDCA4302827047000010B504469D
:102FD000FB48844209D101218803FFF79FF80021B3
:102FE0004FF48040FFF79AF832E0F648844209D166
:102FF00001214804FFF79FF800214FF40030FFF74C
:103000009AF825E0F048844209D101218804FFF7AD
:1030100092F800214FF48020FFF78DF818E0EB487C
:10302000844209D10121C804FFF785F800214FF43B
:103030000020FFF780F80BE0E548844208D1012129
:103040000805FFF778F800214FF48010FFF773F8B8
:1030500010BD2DE9F04786B005460E460024A24675
:1030600000BFA1460027B08900B100BF2F462C8ABF
:103070004CF6FF700440F08804432C82AC894EF675
:10308000F3100440B0883189084371890843044330
:10309000AC81AC8A4FF6FF400440B0890443AC8257
:1030A00001A8FEF7B4FFC648874202D1DDF810A0A0
:1030B00001E0DDF80CA0A88900F4004040B10AEB63
:1030C000CA0000EB0A1031684900B0FBF1F807E0D4
:1030D0000AEBCA0000EB0A1031688900B0FBF1F876
:1030E0006420B8FBF0F004012009642101FB108981
:1030F000A88900F4004040B1322000EBC900B0FBC9
:10310000F1F000F00700044308E0322000EB091062
:103110006421B0FBF1F000F00F0004432C8106B0F5
:10312000BDE8F0874FF41651016000218180C18015
:1031300001810C21418100218181704710B5024637
:103140000020108A4FF2FF0318400B884C8823435D
:103150008C882343CC8823431843108210BD002160
:10316000018041808180C180704721B1828942F411
:103170000052828104E082894DF6FF731A408281F9
:103180007047F0B50346002400260025002040F6D5
:103190006A17B94200D100BF1846C1F3421401F0CA
:1031A0001F06012707FA06F5012C01D10C3004E0B7
:1031B000022C01D1103000E014301AB107682F43FF
:1031C000076002E00768AF430760F0BD1AB1838A69
:1031D0000B43838202E0838A8B4383827047028A97
:1031E0004FF6F0731A400282028A0A430282704745
:1031F00082894FF2FF731A40828182890A43828159
:10320000704721B1828942F00202828104E0828902
:103210004FF6FD731A4082817047028A4FF6DF73C2
:103220001A400282028A0A430282704721B1028A4E
:1032300042F48042028204E0028A4BF6FF731A4095
:1032400002827047C1F30802828070470146888875
:10325000C0F308007047818941F001018181704706
:10326000028BD2B20283028B42EA012202837047B0
:10327000028B02F47F420283028B0A43028370476F
:1032800021B1828A42F02002828204E0828A4FF6D3
:10329000DF731A408282704721B1828A42F01002A5
:1032A000828204E0828A4FF6EF731A40828270476E
:1032B00021B1828A42F00802828204E0828A4FF6BB
:1032C000F7731A408282704721B1828942F400422A
:1032D000828103E08289C2F30E028281704721B1AC
:1032E000828A42F40062828204E0828A4FF2FF7393
:1032F0001A4082827047828A4FF6FB731A4082829C
:10330000828A0A438282704721B1828A42F0020295
:10331000828204E0828A4FF6FD731A4082827047EF
:1033200002460020B1F5007F00D100BF13880B409A
:103330000BB1012000E00020704701F40072B2F5EB
:10334000007F00D100BFCA430280704770B50246BB
:10335000002400230025002040F66A16B14200D167
:1033600000BFC1F3421501F01F03012606FA03F363
:10337000012D02D19689334006E0022D02D1168A32
:10338000334001E0968A33400C12012606FA04F419
:103390001688344013B10CB1012000E0002070BD4C
:1033A00010B50022002340F66A14A14200D100BFEC
:1033B0000A1201249440A3B2DC43048010BD000033
:1033C000003801400044004000480040004C0040EC
:1033D0000050004010B50446BE48844208D1012187
:1033E0008014FEF79BFE0021A014FEF797FE16E066
:1033F000B948844208D101210014FEF79CFE002147
:103400002014FEF798FE0AE0B448844207D1012157
:10341000C013FEF790FE0021E013FEF78CFE10BDF6
:1034200010B50022028802F441520B884C882343D5
:103430008C882343CC8823430C8923434C89234322
:103440008C892343CC8923431A430280838B4FF218
:10345000FF74234083830B8A038210BD2DE9F04F54
:1034600085B005460C464FF0000902274FF00008D2
:103470004FF0010B0026B246A88B4FF240010840E6
:10348000A88302202884B5F81C90A068022801D1E6
:1034900000BF38E0A08810B94FF0010B01E04FF0F9
:1034A000020B8D48854200D100E000BF6846FEF760
:1034B000AEFDDDF800A0E088B0F5007F0AD14FEA4C
:1034C0001A2000EB80004000A168B0FBF1F0401D25
:1034D00086B20BE04FEA4B10BAFBF0F000EB800035
:1034E0004000A168B0FBF1F0401D86B20A20B6FB97
:1034F000F0F606F00108A6EB0800C0F34F074FF600
:10350000FF7000EA0828022F01DBFF2F02DD0227EF
:103510004FF00008E08840EA080038432884A0887B
:10352000A1890843618808432188084340F400606A
:1035300040EA0909A5F81C9005B0BDE8F08F00210C
:10354000018041808180C180018141818181C1816F
:103550000721018270470021018041808180C18064
:103560000221816000218181704721B1028842F0EF
:103570004002028004E002884FF6BF731A400280C6
:10358000704721B1828B42F48062828304E0828B97
:103590004FF6FF331A408283704730B50024002372
:1035A0000C110125A540ABB21AB185881D43858059
:1035B00002E085889D43858030BD1AB183880B4326
:1035C000838002E083888B438380704781817047CA
:1035D0000146888970474FF6FF62914204D0028805
:1035E00042F48072028004E002884FF6FF631A40C2
:1035F0000280704721B1828842F00402828004E098
:1036000082884FF6FB731A408280704702884FF21F
:10361000FF731A40028002880A43028070470188C3
:1036200041F480510180704721B1028842F4005278
:10363000028004E002884DF6FF731A400280704752
:1036400002460020012901D0108B00E0908A7047CB
:103650000146088A7047B1F5804F04D1028842F4D0
:103660008042028004E002884BF6FF731A40028019
:1036700070470246002013890B400BB1012000E087
:1036800000207047CA4302817047F0B5024600200F
:1036900000240023002501F00F070126BE40B4B22C
:1036A0000B1101269E40B3B2968806EA03051689DF
:1036B000264016B10DB1012000E00020F0BD10B58C
:1036C000002201F00F040123A3409AB2D3430381E7
:1036D00010BD00000030014000380040003C0040B8
:1036E000002044490860091D0860091D0860091D83
:1036F000086041483F4914310860704700213D4946
:103700008279002A3AD00A46126803689A430B4627
:103710001A600A1D126803689A430B1D1A60027929
:1037200011440A6803681A430A60324A0832126870
:1037300003689A432F4B08331A601A1D12680368F6
:103740009A432C4B0C331A604279102A0ED11A1F5F
:10375000126803681A43274B08331A601A1D12684F
:1037600003681A43234B0C331A600DE02149427958
:1037700011440A6803681A430A6005E0027911449B
:103780000A6803689A430A6070470021016001716A
:103790000C2141710021817170471649103109686F
:1037A0000143144A10321160704701460020114A4B
:1037B000143212680A400AB1012000E0002070476C
:1037C0000C49143108607047014600200022094B63
:1037D0001B6803EA0102074B14331B680B4013B14B
:1037E0000AB1012000E0002070470249143108604E
:1037F0007047000000040140FFFF0F0010B50F21CB
:103800000320FDF7B5FC4FF47A7100FB01F4E017DB
:1038100004EB10500013C0F5FA60FC490988081A3F
:1038200040F2DC51081AFA49086008460068B0F511
:103830007A7F02DC4FF47A7001E0F5480068F449C1
:10384000086008460068B0F5FA6F02DB4FF4FA60D2
:1038500001E0EF480068EE4908600F210120FDF704
:1038600087FC4FF47A7100FB01F4E01704EB105071
:10387000001300F57A70E7490988081A40F2DC5114
:10388000081AE549086008460068B0F57A7F02DC4E
:103890004FF47A7001E0E0480068DF4908600846AC
:1038A0000068B0F5FA6F02DB4FF4FA6001E0DA4825
:1038B0000068D94908600F210020FDF759FC4FF43A
:1038C0007A7100FB01F4E01704EB1050001300F5CF
:1038D0007A70D2490988081A40F2DC51081AD04996
:1038E000086008460068B0F57A7F02DC4FF47A7011
:1038F00001E0CB480068CA49086008460068B0F596
:10390000FA6F02DB4FF4FA6001E0C5480068C44971
:1039100008600F210220FDF72BFC4FF47A7100FBA9
:1039200001F4E01704EB1050001300F57A70BD4964
:103930000988081A40F2DC51081ABB490860084699
:103940000068B0F57A7F02DC4FF47A7001E0B64887
:103950000068B549086008460068B0F5FA6F02DBF8
:103960004FF4FA6001E0B0480068AF49086010BD4C
:103970001CB5002000900190AC4800785A287DD1F9
:103980000020AB4908706DE00F210320FDF7F0FB2C
:103990004FF47A7100FB01F4E01704EB10500013B0
:1039A000C0F5FA60BDF80010084480B2ADF8000020
:1039B0000F210120FDF7DCFB4FF47A7100FB01F4CD
:1039C000E01704EB1050001300F57A70BDF80210F8
:1039D000084480B2ADF802000F210020FDF7C8FBBB
:1039E0004FF47A7100FB01F4E01704EB1050001360
:1039F00000F57A70BDF80410084480B2ADF80400F8
:103A00000F210220FDF7B4FB4FF47A7100FB01F4A3
:103A1000E01704EB1050001300F57A70BDF80610A3
:103A2000084480B2ADF806006420FCF7C3FC81486E
:103A30000078401C40B27F490870072801D102205D
:103A400008707C490978491EC8B20021FCF7D0FCF7
:103A5000784908780121FCF7CBFC75480078401CB8
:103A60007349087072480078734991F900108842D0
:103A70008ADBBDF800006E49097800E066E090FB43
:103A8000F1F062490880BDF802006949097890FBAD
:103A9000F1F060490880BDF804006549097890FBA1
:103AA000F1F05E490880BDF806006149097890FB95
:103AB000F1F05C490880FFF7A1FE5548006840F22C
:103AC000E651884229DA5248006840F2D2518842D1
:103AD00023DB5148006840F2E65188421DDA4E4827
:103AE000006840F2D251884217DD4D48006840F22C
:103AF000E651884211DA4A48006840F2D2518842C1
:103B00000BDD4948006840F2E651884205DA464834
:103B1000006840F2D251884203DC5A2043490870C1
:103B200002E0A52041490870FDF73EFF0021022078
:103B3000FCF75EFC00210320FCF75AFC0021042066
:103B4000FCF756FC00210520FCF752FC1CBD10B50B
:103B50003A480078401CC0B23849087008B90320C0
:103B600008703748007800283BD001284BD13348F3
:103B7000007803280ADA3148017832A000F080F991
:103B800000202E4908702E4908703CE000202B4987
:103B9000087032480078A5280FD1002404E00520E1
:103BA00000F0DCF8601CC4B2052CF8DB5A202B496D
:103BB000087000202249087012E0284800785A282E
:103BC0000ED1002404E0062000F0C8F8601CC4B246
:103BD000052CF8DBA5202149087000201849087041
:103BE00011E01E4800785A2804D101210520FCF775
:103BF000FFFB07E019480078A52803D10021052024
:103C0000FCF7F6FB00BF00BF10BD000068000020FD
:103C1000580000206A000020600000206C00002096
:103C20005C0000206E000020640000207200002074
:103C3000750000207600002077000020740000202E
:103C400070000020696E76616C6964206B65792074
:103C500070726573733A25640A00000073000020D7
:103C600010B504E0FFF7CAFD062000F077F82948F8
:103C7000006840F21A418842F4DC27480068884214
:103C8000F0DC10BD10B5254801780420FCF7B0FB2E
:103C90002248007828B1CD2000F060F800201F49AC
:103CA000087010BD10B51E4800785A2831D1194847
:103CB000006840F2E65188422BDC1648006840F26A
:103CC000D251884225DD1748006840F2E65188420B
:103CD0001FDC1448006840F2D251884219DB0E48BC
:103CE000006840F2E651884213DC0B48006840F25D
:103CF000D25188420DDB0C48006840F2E651884200
:103D000007DC0948006840F2D251884201DBFFF726
:103D10002FFE10BD580000205C0000207100002024
:103D20007200002060000020640000204C490A78E6
:103D30000978491C4A4B19704A4988544A490978FC
:103D40004140494A1170704710B50446E0B2FFF790
:103D5000EDFFC4F30720FFF7E9FF10BD10B50446DF
:103D600000203F4908702420FFF7E0FF4D20FFF7B7
:103D7000DDFF3C20FFF7DAFF00203B4908700A2CEA
:103D80003BD008DC052C2AD0062C2FD0072C0BD0DA
:103D9000092C5CD14DE00B2C36D00C2C3BD00D2CDB
:103DA00040D0CD2C53D14BE00820FFF7BFFF204679
:103DB000FFF7BCFF2D48008800B2FFF7C5FF2C4875
:103DC000008800B2FFF7C0FF2A48008800B2FFF762
:103DD000BBFF2948008800B2FFF7B6FF37E000209C
:103DE000FFF7A4FF2046FFF7A1FF30E00020FFF718
:103DF0009DFF2046FFF79AFF29E00020FFF796FF7E
:103E00002046FFF793FF22E00020FFF78FFF2046B8
:103E1000FFF78CFF1BE00020FFF788FF2046FFF72D
:103E200085FF14E00020FFF781FF2046FFF77EFFAB
:103E30000DE00020FFF77AFF2046FFF777FF06E04E
:103E40000020FFF773FF2046FFF770FF00BF00BFA1
:103E500005480078FFF76AFF0248FCF7D1FD10BD66
:103E600078000020AA0500207900002058000020DA
:103E700064000020600000205C000020704700000B
:103E80000FB4044910B503AA029800F0FDF810BC65
:103E90005DF814FB300000202DE9F0410E46044689
:103EA000002020622046E168884730B3252805D0ED
:103EB000D4E901219047206A401CF2E7E1682046DE
:103EC00000278847050018D0A5F14100192802D81D
:103ED00020354FF400673246294620462760FCF71C
:103EE0003FF940B1012804D0F61D26F00706083638
:103EF000D8E7361DD6E72846DAE7206ABDE8F08124
:103F00002DE9F0410646002410687529314615A5B3
:103F100010D0AFF30080002802DA404212A507E07B
:103F200031688A0701D511A502E0490704D510A51B
:103F3000012401E0AFF3008000210A2306F12407E9
:103F400007E0B0FBF3F203FB120030307854104668
:103F5000491C0028F5D123462A463046BDE8F041E9
:103F600000F038B8000000002D0000002B00000019
:103F70002000000070B504460D4621461068AFF3DE
:103F800000802188090502D50F4A7A4402E00E4AD2
:103F90007A440E32002104F1240305E000F00F06FC
:103FA0000009965D5E54491C0028F7D12078002353
:103FB000000704D5702D02D009B10223113220462A
:103FC000BDE8704000F006B8D80F00007047704799
:103FD000704770472DE9F0470D46994692460446D2
:103FE00000F124080168880604D5E06921F0100179
:103FF000216000E00120A84201DD471B00E000270E
:10400000A1697A1902EB0900081AA0612078C0069C
:1040100002D42046AFF30080002608E0D4E9012155
:104020001AF806009047206A401C761C20624E4514
:10403000F4DB2078C0060AD52046AFF3008006E006
:10404000D4E9012130209047206A401C2062381EAC
:10405000A7F10107F4DC07E0D4E9012118F8050015
:104060009047206A401C2062281EA5F10105F3DC60
:104070002046AFF300802078000602D50220BDE87C
:10408000F0870120FBE70000074B70B50D467B442D
:1040900000F011F80446284600F020F810B14FF067
:1040A000FF3070BD204670BDD9CCFFFF01694A1CAE
:1040B00002610878704700B58FB0CDE90131002169
:1040C000059105497944CDE9031011466846FFF78B
:1040D000E3FE0FB000BD0000E5FFFFFF007B00F036
:1040E00080007047754600F029F8AE460500694625
:1040F000534620F00700854618B020B5FCF748F974
:10410000BDE820404FF000064FF000074FF00008D8
:104110004FF0000B21F00701AC46ACE8C009ACE859
:10412000C009ACE8C009ACE8C0098D467047044638
:10413000AFF300802046FCF728F8000000487047E5
:10414000CC05002021F00042A2F16052B2F5801FA0
:1041500001F0004328BFD2F17F6C0BD95FEA001C4D
:1041600043EAC20242EB507018BF704728BF20F0EC
:1041700001007047B2F5801FBCBF184670474FEA78
:10418000410C1CF5001F02D2084600F068BE70B555
:1041900000F0B4FA00000089FFF7F6BF4FF00040CE
:1041A000A0F580007047000010B591EA030F48BFEA
:1041B00083F0004300F10A83841A71EB030C05D2EB
:1041C000121943EB0C03001B61EB0C01DFF824E137
:1041D0004FEA1154A4EB135C1EEA430F18BF9EEA8A
:1041E000445F73D023EA0E03DCF1200E21EA045170
:1041F00043F4801332D322FA0CFE10EB0E0023FAA4
:104200000CFE41EB0E01CCF1200E03FA0EFE10EB7A
:104210000E0051F10001B1F5801FCCF1200E32D219
:1042200001EB045112FA0EF2BDE8104058BF70477E
:10423000401C38BF5FEA420218BF7047002814BF15
:1042400020F0010041F100014FEA410313F5001F86
:1042500038BF7047A1F1C04100F09EBA012A43EB7C
:104260000302ACF1200CDCF11F0E32BF4FF0000E48
:1042700023FA0CF310EB030041EB0451B4EB115F94
:10428000D0D0A1EB045101F5801149085FEA30005C
:1042900001EB04510ED350F1000038BF12FA0EFEAC
:1042A00008D1BDE81040C9E7401C38BF5FEA4202B0
:1042B000CAD1C3E7BDE810404FEA410313F5001F20
:1042C00038BF7047A1F1C04100F066BA9EEA445F72
:1042D00008D011EA5E0FBDE8104004BF01F00041B4
:1042E00000207047BDE8104070B500F007FA00BF2D
:1042F00064FBBE3E0000E0FF2DE9C04130B4DFF8B2
:10430000A0C23CEA111418BF3CEA131400F0EC8080
:1043100081EA03051CEA111444EAD57418BF1CEAAB
:10432000131500F0C780A4EB05044FF0004545EAE3
:10433000C12145EAC32341EA505143EA525304F1F3
:104340007F74994204F500344FEAC0204FEAC2223C
:1043500008BF904200F09C804FEA13650FF24016B0
:10436000765D4FEA134506FB05F7C7F1807706FB3C
:1043700007F74FEAD737A7FB03687642C8F58038BE
:10438000A7FB06CE38BFA8F1010807FB08E64FF0EF
:10439000000EA6FB028CE6FB03CEDCF1000CCEF196
:1043A000004E38BFAEF1010EA6FB0C584FF00007CF
:1043B0004FF00005E6FB0E87A1FB08C6A0FB07CE69
:1043C00016EB0E0645F10005E1FB076515F1E04E21
:1043D0007EBFA4F580345FEA46066D4116F1800782
:1043E00045F100054FEA17274FEA066647EA0567D9
:1043F000A6F1DE46B6F1805F4FEA15251FD9384693
:1044000024F0010C05EBC471BCF1FE6F01EB0C1143
:1044100002D8F0BCBDE8008124425CBF01F5801EDB
:104420009EEAC47F02D4F0BCBDE80081244238D4A7
:10443000F0BCA1F1C041BDE8004100F0ADB94FEAC8
:10444000D22242EA43524FEAD323A7FB02864FEA25
:10445000D02040EA415007FB03661EEA0E0F4FEAE8
:10446000D12105FB026658BFA6EB0056B6EB0056FD
:104470004FEA520E4EEAC37E18EB0E0E56EB530E69
:10448000BDD518EB02085E417F1C55F10005B6E76B
:104490004FF480154FF000074FF000064FF0000872
:1044A000ADE7F0BC4FF0000001F1C04101F0004168
:1044B000BDE8008111EA0C1F0CEA131500D00CE0D6
:1044C00013EA0C1F00F025804FF00000F0BC81EAD9
:1044D000030101F00041BDE80081F0BC81EA030165
:1044E000BDE8004100F058B9F0BCBDE8004170B52E
:1044F00000F004F9097EFC3E00F007B881EA0301F0
:104500004FF0000001F00041704781EA030100F024
:1045100043B9F0BC4FF000002249BDE800417047AC
:10452000FFFDFBF9F7F5F4F2F0EEEDEBE9E8E6E478
:10453000E3E1E0DEDDDBDAD8D7D5D4D3D1D0CFCDFF
:10454000CCCBCAC8C7C6C5C4C2C1C0BFBEBDBCBB38
:10455000BAB9B8B7B6B5B4B3B2B1B0AFAEADACAB33
:10456000AAA9A8A8A7A6A5A4A3A3A2A1A09F9F9E0D
:104570009D9C9C9B9A9999989797969595949393BF
:10458000929191908F8F8E8E8D8C8C8B8B8A898956
:1045900088888787868585848483838282818180D9
:1045A0000000FF070000F87FDFF848C170B51CEA83
:1045B000111E1EBF1CEA13159EEA0C0F95EA0C0F84
:1045C00000F06F8081EA030423EA4C134EEAD47EA4
:1045D00021EA4C1141F4801143F48013AE44A1FB55
:1045E000024CA0FB0365AEF17F7E361955EB0C053E
:1045F000A1FB034C4CF10003A0FB021C16EB0C06C4
:10460000654153F10003094218BF46F0010613F457
:10461000007F0BD14FEA03314FEA0530340341EA02
:10462000155140EA16506FF003020AE04FEAC32129
:104630004FEAC520F40241EA555140EA56506FF066
:10464000020202EB2E4201EB025585EACE710AD03E
:104650005FEA440C18BF24F0004450F1000041F11F
:10466000000120EAD47040F2FE7C624500D270BDA9
:10467000A84214BF4FF080444FF04044002E08BFC2
:104680000024BEF1806FA8BFA1F1C041BDE8704019
:1046900080F282804FF0000001F1C04101F0004142
:1046A00070479EEA0C0F0CEA131518BF95EA0C0F21
:1046B00006D04FF0000081EA030E0EF0004170BDFD
:1046C00000F01CF88900013E00F007B800F009B8BE
:1046D0004FEA430C5FEA5C5C08D081EA030100F01A
:1046E0005BB84FEA410C5FEA5C5CF6D14FF000002A
:1046F000014970470000FF070000F87F0EF1020E2D
:104700002EF0030E5EF8046B364205D4012A43EB0B
:10471000030515F5001F12D8012841EB010C1CF50B
:10472000001F0CD80ED14FEAD17C15F5001F0CEB01
:104730004C0C0CF1020C08BF4CEBD37C04E04FF0A6
:10474000080C01E04FEAD37C0CEB4C0526FA05F689
:1047500006F00706B6F1040C06D20EEB860CBDE897
:1047600070404CF0010C6047DFE80CF0090B0202CE
:104770004FF000414FF00000A1F5002170BD194637
:104780001046012851EB010418BFD4F5001484BF72
:10479000002001F0004170BD0808A0F500114FEAAB
:1047A0003101704791EA030F10B581F000413FF5E8
:1047B00003AD83F0004300F009B8000010B591EAA2
:1047C000030F48BF83F000433FF5F6AC841A71EB4A
:1047D000030C07D212198CF0004C43EB0C03001BA6
:1047E00061EB0C01DFF8A4E14FEA1154A4EB135C78
:1047F0001EEA430F18BF9EEA445F00F0B08023EA30
:104800006E03524221EA0451C3EB6E0338BF5B1EB4
:10481000DCF1200E25D322FA0CFE10EB0E0043FA39
:104820000CFE41EB0E01CCF1200E03FA0EFE10EB54
:104830000E0051F10001CCF1200E29D412FA0EF233
:1048400001EB0451BDE8104058BF7047401C1CBF2D
:10485000B2F1004F704700280CBF491C20F0010046
:10486000704712EB020E43EB030218BF4FF0010E2C
:104870004EEA4202ACF1200CDCF11E0E54D943FA90
:104880000CFE10EB0E0051F1FF31CCF11E0ED5D510
:104890000EF1010E12FA0EFE404141EB010101EB57
:1048A000445C5FEA5C5C10D910EBDE7001EB0451F4
:1048B00038BFBEF1004FBDE8104018BF7047002858
:1048C0000CBF491C20F00100704730D24FEAD42CB5
:1048D00011F5001124F400641BD0B1FA81F20B3AF7
:1048E000A41AA41ED2F12003914030FA03F3194315
:1048F000904001EBCC71002C01EB0451BDE810405D
:10490000A8BF704701F1C0414FF0000001F0004125
:104910007047B0FA80F310FA03F100D110BDE41A29
:10492000173C4805C90AE4E701EB045110BD4910E2
:1049300001EB0451BDE810404FEA300002E04FF0B7
:10494000000170474A0008BF0042F8D0B2F5001FCE
:1049500028BF704701F000414FF0000070479EEA09
:10496000445F07D011EA5E0FBDE8104004BF00218C
:1049700000207047BDE8104070B5FFF7BFFE00BFD4
:1049800040DFF63E83F00041104670470000E0FF34
:1049900043004FEAD30C4FEA3C0C43401FBF400793
:1049A0000CF1605113F0FE4F70471CF0006F03D103
:1049B00000200CF0004170470CF0004343EA5070B7
:1049C00010B540EACC0000F004FA00BF00000092ED
:1049D0004FEA0001FFF7E0BE4FF000414FF000004A
:1049E000A1F500217047000090EA010F48BF81F057
:1049F000004100F14A82421A3CBF801A89184FEAEE
:104A0000D0524FF07F4C1CEA410FA2EBD15318BF9C
:104A10009CEA026F00F03B804FF0004C4CEA002013
:104A20004CEA012121FA03FC10EB0C0C1ED202F11E
:104A3000FF325FEA1C2040EBC25038BF70471CF0C9
:104A40007F0F4FEA400C18BFBCF17F4F38BF704753
:104A5000C3F12003994008BF20F00100BCF17F4F53
:104A600038BF7047A0F1C04000F0F9B94FEA3C00F0
:104A7000000A40EBC25028BF1CF0FF0F4FEA400C69
:104A8000E6D018BFBCF17F4F38BF7047EAE79CEA19
:104A9000026F05D010EA5C0F08BF00F000407047BD
:104AA00010B500F096F900BF64FBBE3E4FF47F0CDA
:104AB0001CEAD0121EBF1CEAD11392EA0C0F93EA33
:104AC0000C0F00F0858090EA010F48BF42F480721D
:104AD00040F4000C41F400002CF07F4120F07F40B6
:104AE00000B58142A2EB03020FF2081CACEB504E62
:104AF000C0F100009EF800E04FEA4E0E00FB0EFCF5
:104B000038BF49004FEA2C1C02F5FA020CFB0EF3E9
:104B10004FEACE1E4FEA112C4FEAC1210EEB635E25
:104B200042EB22420EFB0CFC4FEA1C5300FB03112C
:104B30004FEA112C4FEA01310EFB0CFC4FEADC4C22
:104B400000FB0C11C14228BF09184CEB03335DF880
:104B500004EB10EB410143EBC250B2F57C0F38BFC0
:104B6000704729D512F0F00F1CBF00F1C04000F0D3
:104B700000407047008182838485868788898B8C7A
:104B80008D8E8F919293959697999A9C9D9FA0A2B6
:104B9000A3A5A7A8AAACAEB0B2B3B5B7B9BCBEC006
:104BA000C2C5C7C9CCCED1D4D7D9DCDFE2E6E9ECA7
:104BB000F0F3F7FAFE0000004FEA400C0CF1807CA5
:104BC000BCF17E4F28BF7047B0F1C04000F047B93C
:104BD00090EA010F0CEAD11348BF42F4807262459B
:104BE00038BF634507D213F47F0F16D080EA010067
:104BF00000F00040704710B500F0EBF8097EFC3E75
:104C000000F005B880EA010000F00040704780EA3B
:104C1000010000F0004000F022B912F47F0F04BF41
:104C20000248704780EA010000F019B90000C07F17
:104C300041000B0ED3F19E0208D950F400034FEA55
:104C4000032323FA02F048BF4042704710B500F03A
:104C5000C0F800BF49922480002070476FF00042E6
:104C600082EA200070470000C10DD1F19E0206DBF0
:104C70004FEA002343F0004323FA02F0704700425A
:104C800007D54FEA4001B1F1FE4F02D24FF00000CC
:104C9000704710B500F09DF84992248000207047BD
:104CA0006FEA200070470000B0FA80F310FA03F2B8
:104CB000C3F19D030AD0D90501EB1220530638BF7A
:104CC000704700F1010008BF20F0010070470000AC
:104CD0004FF47F0C1CEAD0121EBF1CEAD11392EADB
:104CE0000C0F93EA0C0F00F0478090EA010F48BFC9
:104CF00042F480724FF0004C4CEA00204CEA012153
:104D000002EB0302A0FB0113A2F50002002918BF69
:104D100043F001035B0028BF4FEA330342EB22421A
:104D20005FEA132C4CEBC2502EBFBCEB436FB2F5C5
:104D30007C0F70474FEA036CBCF1004F08BF20F0B6
:104D40000100B2F57C0F38BF70470BD582F0FF022F
:104D500012F5803FC8BF704700F1C040D8BF00F0D7
:104D60000040704700F5000C5FEA4C0C48BF7047EC
:104D7000B0F1C04000F073B890EA010F0CEAD11313
:104D800048BF42F48072624538BF634504D280EA6E
:104D9000010000F00040704710B500F01AF800BFA5
:104DA0008900013E00F007B800F009B85FEA410C45
:104DB0005FEA1C6C08D080EA010000F050B85FEA9E
:104DC000400C5FEA1C6CF6D14FF00040A0F580006B
:104DD00070470EF1020E2EF0030E5EF8044B2442D3
:104DE00004D44FEA4102B2F17F4F11D84FEA400399
:104DF000B3F17F4F0CD80ED14FEAD07CB2F17F4F88
:104E00000CEB4C0C0CF1020C08BF4CEBD17C04E019
:104E10004FF0080C01E04FEAD17C0CEB4C0324FA74
:104E200003F404F00704B4F1040C06D20EEB840C76
:104E3000BDE810404CF0010C6047DFE80CF00708BB
:104E400002024FF00040A0F5800010BD084642006D
:104E500018BFD2F1807288BF00F0004010BDFF2162
:104E600041EAD050C005704780F0004090EA010F41
:104E70007FF5C1AD81F0004100F007B890EA010F65
:104E800048BF81F000413FF5B6AD421A04D882F028
:104E90000042A0EB020011444FEAD0524FF07F4C89
:104EA0001CEA410FA2EBD15318BF9CEA026F4AD013
:104EB0004FF0004C4CEA00204CEA012121FA03FC9F
:104EC000B0EB0C0C0FD412F0FE0F36D05FEA4C00A2
:104ED0001DD5001240EBC25038BF70471CF03F0F89
:104EE00018BF70470BE0A2F101025FEA1C2040EB03
:104EF000C25038BF70471CF07F0F18BF7047C3F116
:104F00002003994014BF401E20F001007047800824
:104F10004FEA122308BF7047B0FA80FCA2EB0C02E4
:104F2000CCF1280C60FA0CF093EA122F04BF00EBCE
:104F3000C25070474FEAC3707047130A5FEADC1033
:104F400008BF7047F6E79CEA026F04D010EA5C0FD6
:104F500008BF0020704710B5FFF73BFF40DFF63E6B
:104F600081F00040704730313233343536373839CC
:104F700041424344454640305800303132333435A5
:104F80003637383961626364656640307800000006
:104F9000B04F000800000020840000002801000835
:104FA0003450000884000020AC0B000044010008CD
:104FB000005125020000000000000000010203046F
:104FC00006070809000000000000000000000000C3
:104FD00000000000000034C310100034C310101192
:104FE00000000000000000000000000000000000C1
:104FF0000000000000010203040102030406070888
:105000000902040608000000000000000000000083
:105010000000000000000000000000000000000090
:10502000000000A5030001140000DC05DC05DC0520
:04503000DC0500009B
:040000050800037577
:00000001FF
