:020000040800F2
:10000000280C002061030008A9150008AB150008A2
:10001000AF150008B3150008B71500080000000070
:10002000000000000000000000000000BB150008F8
:10003000BD15000800000000BF150008DB15000812
:100040007B0300087B0300087B0300087B03000898
:100050007B0300087B0300087B0300082D120008C7
:100060007B030008451200087B0300087B0300089F
:100070007B0300087B0300087B0300087B03000868
:100080007B0300087B0300087B0300087B03000858
:100090007B0300087B0300087B0300085D12000857
:1000A0007B0300087B0300087B0300087B03000838
:1000B0007B030008A9050008290500087B03000848
:1000C0007B0300087B0300087B0300087B03000818
:1000D0007B030008E10D00087B0300087B03000898
:1000E0007B0300087B0300087B03000800F002F894
:1000F00000F044F80AA090E8000C82448344AAF17E
:100100000107DA4501D100F039F8AFF2090EBAE87B
:100110000F0013F0010F18BFFB1A43F0010318473B
:10012000C84C0000E84C0000103A24BF78C878C1E1
:10013000FAD8520724BF30C830C144BF04680C60ED
:10014000704700000023002400250026103A28BF35
:1001500078C1FBD8520728BF30C148BF0B60704739
:10016000642903F0E785782903F020860020704792
:100170001FB504F098FD1FBD10B510BD03F0D2FEF1
:100180001146FFF7F5FF01F013F903F0F0FE03B499
:10019000FFF7F2FF03BC00F049FD00000021002042
:1001A000664A126842F48032644B1A6000BF634AA8
:1001B000126802F40030491C10B9B1F5A06FF6D1F5
:1001C0005E4A126812F4003F01D0012000E00020D6
:1001D000012840D15A4A126842F01002584B1A6066
:1001E0001A46126822F003021A601A46126842F098
:1001F00001021A60514A5268504B5A601A465268BE
:100200005A601A4652685A601A46526822F47C12A2
:100210005A601A46526842F4F8125A601A46126836
:1002200042F080721A6000BF444A126812F0007FE8
:10023000FAD0424A526822F00302404B5A601A46F2
:10024000526842F002025A6000BF3C4A526802F013
:100250000C02082AF9D1704710B5FFF79FFF10BDB7
:1002600010B53648006840F001003449086008467F
:1002700040683449084031494860084600683249BE
:1002800008402E4908600846006820F48020086075
:100290000846406820F4FE0048604FF41F00886064
:1002A000FFF7DAFF4FF000602849086010BD10B575
:1002B000002100200022214B5B6803F00C0121B1DA
:1002C000042906D0082928D107E0214B214C2360BE
:1002D00027E01F4B1F4C236023E0184B5B6803F49F
:1002E0007010164B5B6803F48032022303EB9040DE
:1002F00022B9194B4343174C23600DE00F4B5B6849
:1003000013F4003F04D0144B4343124C236003E02A
:100310000F4B43430F4C236003E00D4B0D4C236008
:1003200000BF00BF054B5B68C3F303130B4CE15CDC
:10033000084B1B68CB40074C236010BD00100240E7
:10034000002002400000FFF8FFFFF6FE08ED00E08D
:1003500000127A000000002000093D000400002087
:100360000948804709480047FEE7FEE7FEE7FEE749
:10037000FEE7FEE7FEE7FEE7FEE7FEE70448054985
:10038000054A064B7047000061020008ED000008B6
:1003900028060020280C002028080020280800201B
:1003A00070B5044601F01FF9054600BF01F01BF9C6
:1003B000401B04EB4401C1EBC411B0EBC10FF5D3FA
:1003C00070BD70B5044601F00EF9054600BF01F09E
:1003D0000AF9401BA042FAD370BD000070B5054673
:1003E0000C46062D40D2DFE805F03F03101C2834F0
:1003F000012C04D12103464801F0DDFB04E04FF459
:100400008051434801F0D9FB2EE0012C04D110218A
:10041000404801F0D0FB03E010213E4801F0CDFB45
:1004200022E0012C04D120213A4801F0C4FB03E072
:100430002021384801F0C1FB16E0012C04D14021F5
:10044000344801F0B8FB03E04021324801F0B5FB2D
:100450000AE024B180212F4801F0ADFB03E08021A8
:100460002C4801F0AAFB00BF00BF70BD10B52A48A0
:10047000806940F00400284988610846806940F09E
:10048000080088610846806940F0010088612048C2
:10049000001D006820F470201D49091D08600846F1
:1004A000006840F44030086019480C30006840F49F
:1004B000805017490C3108601648006880B2154911
:1004C0000860084600681549084312490860114849
:1004D0000C30006840F0F0000E490C310860104804
:1004E000406840F000700E49486001200D490870D6
:1004F00009E000210B480078FFF770FF09480078F9
:10050000401C08490870074800780528F1DD10BD37
:1005100000080140000C014000100240000033338D
:10052000000001401400002010B501215D4802F0D8
:1005300076FC002837D05C480088401C80B25A49BD
:100540000880642804D100200880012057490880D1
:1005500057480088401C80B255490880142804D1AF
:100560000020088001205349088053480088401C1F
:1005700080B2514908800C2804D100200880012055
:100580004E4908804E480088401C80B24C49088083
:100590000A2804D10020088001204A49088001214E
:1005A000404802F04DFC10BD10B50121464802F054
:1005B00036FC18B10121444802F042FC10BD3EB5A2
:1005C00005460C460121042001F00BFD354801F0E1
:1005D00063FDA0B2ADF80400681E80B2ADF8000063
:1005E0000020ADF80600ADF8020069462D4801F084
:1005F00027FE01212B4802F00FFC01221146294859
:1006000002F073F90121274802F04AF93EBD3EB5D8
:1006100005460C460121022001F0E3FC2A4801F0C6
:100620003BFDA0B2ADF80400681E80B2ADF800003A
:100630000020ADF80600ADF802006946224801F03E
:10064000FFFD0121204802F0E7FB012211461E4870
:1006500002F04BF901211C4802F022F93EBD08B519
:100660004FF4A06001F02EF91D208DF8000002204B
:100670008DF8010000208DF8020001208DF80300A4
:10068000684601F024F91E208DF8000001208DF845
:1006900001008DF802008DF80300684601F017F99B
:1006A00008BD000000080040160000201E000020C9
:1006B00018000020200000201A0000202200002046
:1006C0001C000020240000200004004070B50546F6
:1006D0000C461021A54801F070FA284600F03EFEB5
:1006E0000646204600F03AFE1021A04801F063FAC9
:1006F000304670BD70B5044610219C4801F05DFA8B
:10070000204600F02BFE002000F028FE05461021B8
:10071000964801F050FA284670BD2DE9F041074691
:100720000D4616461021914801F047FA384600F070
:1007300015FE8046002404E0285D00F00FFE601CDA
:10074000C4B2B442F8DB1021884801F034FA4046C4
:10075000BDE8F0812DE9F04107460D46164610210F
:10076000824801F02AFA384600F0F8FD804600245D
:1007700005E0002000F0F2FD2855601CC4B2B44230
:10078000F7DB1021794801F016FA4046BDE8F08108
:1007900070B504460D464FF40041744801F00DFA5F
:1007A0002A462146A020FFF7B8FF4FF400416F48CA
:1007B00001F001FA70BD1FB56DA103C9CDE90201B9
:1007C0000024052202A93020FFF7A7FF0522694671
:1007D0001020FFF7BFFF00BF06E01DF80400C2288D
:1007E00000D003E0601CC4B2052CF6DB00BF052C72
:1007F00005D161A003F05CFA012004B010BD64A033
:1008000003F056FA0020F8E710B500F045FDFFF7B9
:10081000D2FF10BD10B54FF40041544801F0CDF99E
:10082000FF21E220FFF752FF05225F492A20FFF750
:1008300074FF01212120FFF749FF01212220FFF74A
:1008400045FF28212520FFF741FF20213120FFF718
:100850003DFF0F212620FFF739FF0F212020FFF752
:1008600035FF4FF40041414801F0A5F94FA003F0D6
:100870001FFA10BD10B54FF400413C4801F09DF93E
:10088000FF21E120FFF722FF05224F493020FFF72B
:1008900044FF052244492A20FFF73FFF0121212080
:1008A000FFF714FF01212220FFF710FF1A21242057
:1008B000FFF70CFF28212520FFF708FF0F21262036
:1008C000FFF704FF0E212020FFF700FF4FF4004147
:1008D000264801F070F910BD70B505464FF400418F
:1008E000224801F06AF920222946A020FFF715FFCF
:1008F0004FF400411D4801F05EF900BF3348006825
:100900000028FBD14FF00700FFF7F4FE0446214614
:100910002720FFF7DBFE14F0100F05D0FF21E120A8
:10092000FFF7D4FE102070BD14F0200F01D020205E
:10093000F9E7FF20F7E770B504460720FFF7DAFE76
:10094000054629462720FFF7C1FE15F0400F0AD0C3
:10095000202221466120FFF7E0FEFF21E220FFF781
:10096000B5FE002070BD0120FCE70000000801403A
:10097000C2C2C2C2C2000000B3F5CABCBBAF4E5275
:100980004632344C3031B3C9B9A62E2E2E0D0A0092
:10099000B3F5CABCBBAF4E524632344C3031B3F61D
:1009A000B4ED2E2E2E0D0A002B0000204E524632A2
:1009B000344C3031C9E8CEAABDD3CAD5C4A3CABD10
:1009C0002E2E2E0D0A000000260000202C012142B0
:1009D00010B58B488B4948608B4848608BA003F06A
:1009E00067F910BD8748006940F0800085490861BB
:1009F00070478448C16811F0010F01D00120704791
:100A000011F0040F01D00220F9E711F0100F01D00E
:100A10000320F4E70020F2E770B5044600BFFFF7BB
:100A2000E8FF0546012D00D006E00120FFF7C9FCD4
:100A3000601E84B2002CF2D100BF04B9FF25284605
:100A400070BD70B50546002445F6FF70FFF7E4FF62
:100A50000446C4B96B48006940F002006949086166
:100A600008464561006940F04000086145F6FF70A6
:100A7000FFF7D2FF0446012C05D06248006920F040
:100A8000020060490861204670BD70B505460E46FB
:100A9000FF20FFF7C1FF044694B95A48006940F0AF
:100AA0000100584908612E80FF20FFF7B5FF04467A
:100AB000012C05D05348006920F00100514908611C
:100AC000204670BD0146088870472DE9F041054673
:100AD0000E461746002407E036F814102846FFF7A4
:100AE000D4FFAD1C601C84B2BC42F5DBBDE8F081D4
:100AF00030B503460C461546002207E01846FFF7BE
:100B0000E1FF24F812009B1C501C82B2AA42F5DBC4
:100B100030BD2DE9F05F80468A461746B8F1006F78
:100B200002D34048804501D3BDE8F09FFFF750FF56
:100B3000A8F1006B4FEA9B25CBF34809C9F5007477
:100B4000A74200DC3C464DE04FF0006101EB852000
:100B50008A143549FFF7CCFF00260BE009EB0600AD
:100B6000314931F81000A0F57F41FF3900D003E092
:100B7000701C86B2A642F1DB00BFA6421BDA4FF022
:100B8000006101EB8520FFF75CFF002608E03AF8E2
:100B9000160006EB0901244A22F81100701C86B2E7
:100BA000A642F4DB4FF0006101EB85208A141E4958
:100BB000FFF78BFF04E0224651464046FFF785FFD2
:100BC000A74200D10FE06D1C4FF000090AEB440A68
:100BD000A044381B87B2B7F5007F02DD4FF40074E4
:100BE00000E03C46B0E700BFFFF7FCFE00BF9BE71C
:100BF00013B50446012201A92046FFF78AFF1CBD58
:100C00002301674500200240AB89EFCDC4DAB2BFB3
:100C1000464C415348BDE2CBF8CDEAB3C92E2E2E47
:100C20000D0A00000000010884000020014600BFFA
:100C3000704700BF824A128812F0400FFAD0C2B249
:100C40007F4B1B1D1A80704708B525208DF80000CA
:100C500002208DF8010000208DF8020001208DF89F
:100C60000300684600F033FE08BD2DE9F05F05463D
:100C70000E46300103F03CFF8146724905FB01F04E
:100C800003F036FF8246494603F034FE07463846F5
:100C900003F00EFF84B2204603F02AFF8346394654
:100CA00004F00DF882464FF0834103F035FF814692
:100CB00003F0FEFE8046240104EB080084B2624883
:100CC000806940F00400604988610846806940F40A
:100CD000804088615D48006820F47F605B4908605F
:100CE0000846006840F40B6008605748C06840F44C
:100CF00080405549C8600846C06820F48040C860FC
:100D00004F4808300480001D008842F20C0108435F
:100D10004B490C3108800846008840F480700880F8
:100D20000846008840F020000880FFF78DFF002073
:100D30004749088048807F20888046488860002096
:100D40004549088048807F2088804448886029463B
:100D500043A002F0ADFF314647A002F0A9FFBDE875
:100D6000F09F028883881A40836899540288521C35
:100D70000280704710B5044621463548FFF7F1FF61
:100D8000012240F227712E4802F039F910BD0146C8
:100D90004A888B881A408B68985C4A88521C4A8023
:100DA0007047014608884A88801A8A881040704730
:100DB00001884180704770B504460D46002606E064
:100DC00021782348FFF7CDFF641C701CC6B2AE42E9
:100DD000F6DB012240F22771194802F010F970BDCC
:100DE00010B540F22771164802F0F1F990B1184899
:100DF000FFF7CDFF04462146114802F064F914487C
:100E0000FFF7CFFFD8B9002240F227710C4802F05B
:100E1000F6F814E040F22551094802F0D8F970B113
:100E200040F22551064802F0FCF9054802F04FF95E
:100E300018490870084601780748FFF792FF10BD6F
:100E40000038014040420F000010024004080140F9
:100E5000840400201C050020900400209C04002035
:100E6000CFB5CDB3CAB1D6D3C6B5C2CAA3BA25646D
:100E70004D487A200D0A0000B4AEBFDA31B3F5CA8E
:100E8000BCBBAFB2A8CCD8C2CAA3BA2564200D0A95
:100E900000000000340000208F48806940F004000A
:100EA0008D4988610846806940F0080088618B4858
:100EB00000686FF30B00894908608948006820F0DA
:100EC0000F00874908608448806940F400708249B7
:100ED00088610846C06840F40070C8600846C06871
:100EE00020F40070C8600846406820F44040486024
:100EF0000846406840F4004048607A4800687A49F3
:100F0000084078490860084600680860084600689C
:100F100020F480700860081D006820F00200091DA0
:100F200008600846006820F46020086008460068F1
:100F300040F4602008600846006840F480100860B3
:100F40000846006820F4006008600846006840F425
:100F50000000086063482830006820F47000614990
:100F60002831086008460068002008605D480C30A1
:100F7000006820F038005B490C31086008460068C2
:100F800040F038000860081F006820F4E010091FD6
:100F900008600846006840F4E0100860081F006818
:100FA00040F00100091F08600846006840F0080092
:100FB000086000BF4B48001D006810F0080FF9D111
:100FC0004848001D006840F004004649091D0860BB
:100FD00000BF4448001D006810F0040FF9D17047AD
:100FE000014640483030006820F01F003D4A303252
:100FF000106010460068084310603A48001D006801
:1010000040F48000374A121D106000BF3548001FB1
:10101000006810F0020FF9D032484830006880B202
:10102000704770B506460B460024002505E03046A3
:10103000FFF7D6FF0444681CC5B29D42F7DBB4FB42
:10104000F3F080B270BD2DE9FE4F4FF00008C146AD
:1010500009E01020FFF7C4FF40441FFA80F809F1AF
:10106000010000F0FF09B9F1140FF2DB142098FB26
:10107000F0F01FFA80F8404603F03AFD824603F094
:10108000ABFB06464FF06632184B03F0B1F904464D
:1010900002F07CFF0290029803F09EFB0446144A83
:1010A000144B03F0A3FA0646134A144B03F048F816
:1010B0000022134BCDE9000102F09AFF824602F0B4
:1010C00065FF02900F49029803F026FD02900298F6
:1010D00003F0D2FCBDE8FE8F001002400008014082
:1010E000000C014004240140FFFFF00066664A3F07
:1010F000E17A14AE47E1F63F22FDF675E09C713FC0
:1011000000003940000020411FB501210D2000F0F2
:101110005BFF07208DF8080004208DF809000020EF
:101120008DF80A0001208DF80B0002A800F0CFFB1B
:1011300009208DF8080005208DF8090000208DF8A1
:101140000A0001208DF80B0002A800F0C0FB172058
:101150008DF8080006208DF8090000208DF80A009F
:1011600001208DF80B0002A800F0B1FB0220ADF8C1
:101170000C0048208DF80F0003208DF80E0003A905
:10118000404800F06DFC0820ADF80C0048208DF8B8
:101190000F0003208DF80E0003A93A4800F060FC10
:1011A0004FF48070ADF80C0048208DF80F0003203C
:1011B0008DF80E0003A9344800F052FC01210846C6
:1011C00000F062FD0220009000208DF804000C2049
:1011D0008DF8050001208DF80600684602F0D0F970
:1011E0000321012000F050FD0820009000208DF820
:1011F00004000C208DF8050001208DF806006846DB
:1012000002F0BEF90821002000F03EFD4FF480708E
:10121000009000208DF804000C208DF805000120BE
:101220008DF80600684602F0ABF91FBD10B502202C
:1012300002F00CFA28B15A2014490870022002F07A
:1012400016FA10BD10B5082002F000FA28B10120EE
:101250000F490870082002F00AFA10BD10B54FF4CB
:10126000807002F0F3F958B10A48007808B90120FB
:1012700000E00020074908704FF4807002F0F7F991
:1012800010BD0000000C0140000801407800002063
:10129000600000206100002000B587B0012104201B
:1012A00000F092FE0121082000F08EFE01210803CB
:1012B00000F08AFEE020ADF8040001208DF8060061
:1012C00018208DF8070001A9314800F0C9FB4FF440
:1012D0000040ADF8040001208DF8060010208DF8C4
:1012E000070001A92A4800F0BBFB1020ADF804005C
:1012F00001208DF8060010208DF8070001A9244870
:1013000000F0AEFB1021224800F055FC0020ADF8A3
:1013100008004FF48270ADF80A000020ADF80C0010
:10132000ADF80E00ADF810004FF40070ADF81200EB
:101330001020ADF814000020ADF816000720ADF81D
:10134000180002A9134801F0ABFF0121114802F077
:101350004AF811A002F0ACFC07B000BD10B504467D
:1013600000BF02210B4802F0C7F80028F9D021463F
:10137000084802F06EF800BF0121064802F0BCF8F0
:101380000028F9D0034802F066F8C0B210BD000092
:101390000008014000300140535049D7DCCFDFB393
:1013A000F5CABCBBAFCDEAB3C92E2E2E0D0A000084
:1013B000102057490871092000F079F900F000F970
:1013C000544800684FF47A72B0FBF2F1B1F1807FBB
:1013D00000D31DE021F07F40401E4FF0E02250611D
:1013E00050170F22002807DA13071D0E4A4B00F092
:1013F0000F04241F1D5503E013071C0E474B1C54FC
:1014000000BF00204FF0E02290610720106100BF74
:101410004FF4E13142480078FFF727FC00F01AF959
:10142000FFF7D6FA00F027FAFFF720F8FFF734FDB0
:10143000FFF76AFEFFF7E8F9FFF71CFA02F0DAF9A6
:101440004FF47A7136480078FFF7B9F8012102208D
:10145000FEF7C4FF01210320FEF7C0FF02F010F9E0
:1014600002F0F9FA01202F49087000210220FEF74E
:10147000B5FF00210320FEF7B1FF47E02A480088AE
:10148000012831D10020284908802848007808B96F
:10149000012000E00020254908700846017801205D
:1014A000FEF79CFF02F095FA02F004FB02F012FB3B
:1014B0001F4801681FA002F0FBFB2148016821A022
:1014C00002F0F6FB2348016823A002F0F1FB264856
:1014D000016826A002F0ECFB0D48017926A002F07D
:1014E000E7FB2BA002F0E4FB2D480088012804D183
:1014F00002F0C6F800202A4908802A48008828B14E
:10150000002028490880072002F040FBB6E70000D1
:10151000260000200000002018ED00E000E400E0BC
:1015200040000020600000201E0000203500002048
:1015300068000020746872202D2D3E25640D0A007D
:10154000700000207069746368202D2D3E25640DA5
:101550000A0000006C000020726F6C6C202D2D3E84
:1015600025640D0A000000007400002079617720D6
:101570002D2D3E25640D0A0072656D6F7465206126
:10158000646472202D2D3E307825780D0A0000000D
:101590002D2D2D2D2D2D2D2D2D2D2D2D2D0D0A00EB
:1015A0002000002022000020704700BFFEE700BF9F
:1015B000FEE700BFFEE700BFFEE7704770477047D9
:1015C00000B585B0684600F092FC1F490098B0FB5A
:1015D000F1F01E49086005B000BD1D480068401CC0
:1015E0001B490860704700BF194801684FF0E020B0
:1015F0008269174800688142F6D11448006800EB00
:101600004003C3EBC010C2EBC000104B1B68B0FB23
:10161000F3F001EB4103C3EBC11300EBC3007047D0
:1016200030B50446FFF7DFFF054600BFFFF7DBFFDD
:10163000401B04EB4401C1EBC411B0EBC10FF5D367
:1016400030BD03480068704740420F00380000205A
:101650003C00002010B5FFF702F8FFF7F5FA10BDC7
:10166000002052490861C860142048610020886148
:10167000C8610846006840F00100086008464068FC
:101680004B490840494948600846006849490840B4
:10169000464908600846006820F480200860084633
:1016A000406820F4FE0048600020886070470146D2
:1016B0003E48006840F001003C4A10601046006857
:1016C00010601046006840F48020106000BF37486A
:1016D000006810F0020FFAD034484268881E42EACF
:1016E0008040324A506010464068506010460068A2
:1016F00040F08070106000BF2C48006810F0007F40
:10170000FAD02A48406840F00200284A5060880613
:10171000000E294A107010460078704700B5024646
:101720000023FFF79DFF2148006840F480301F49E7
:10173000086000BF1D480068400CFBD04FF480607B
:101740001A494860901EC2B20846406840EA82408A
:1017500048600846406840F4803048601748006898
:1017600040F03200154908601048006840F0807071
:101770000E49086000BF0D480068400EFBD00B48C2
:10178000406840F002000949486005E007484068A9
:10179000C0F3870303F00303022BF7D1901CC006AC
:1017A000000E054908700846007800BD0010024090
:1017B0000000FFF8FFFFF6FE40000020002002407E
:1017C00010B5022238493948FFF792F936480088A7
:1017D000012800D110BD0020FCE710B502223249DB
:1017E0003248FFF796F910BD10B5062462002E4965
:1017F0002E48FFF77DF910BD10B5062462002A4976
:101800002A48FFF786F910BD2748408828490880F4
:1018100025488088274908802348C08826490880B1
:1018200021480089254908801F48408940B2244941
:101830000870704701201C4908801D4800884880B6
:101840001C48008888801C480088C8801B48008885
:1018500008811B4890F90000488170470020144916
:1018600008801449088014490880144908805A20C7
:1018700013490870704710B5FFF7A2FF20B1FFF7BA
:10188000B3FFFFF7C1FF08E0FFF7E8FFFFF7D2FF64
:10189000012005490880FFF7AFFF10BD10B5FFF725
:1018A000C9FFFFF7A9FF10BD9C05002000F000084C
:1018B000580000205A0000205C0000205E0000203C
:1018C0007800002031490143314A1160704770B5FA
:1018D000002100230F22C4780CB32D4C246804F49B
:1018E000E064C4F5E064210AC1F10403CA4044780D
:1018F00004FA03F18478144021430901254C067849
:10190000A155047804F01F050124AC4005786D1141
:101910004FF0E02606EB8505C5F8004109E00478A4
:1019200004F01F050124AC401B4D0678761145F8E4
:10193000264070BD194A0A400243154B1B1F1A600E
:10194000704739B1124A121D12680243104B1B1D19
:101950001A6006E00E4A121D126882430C4B1B1DD2
:101960001A607047042808D14FF0E021096941F05E
:1019700004014FF0E022116107E04FF0E021096916
:1019800021F004014FF0E022116170470000FA05D8
:101990000CED00E000E400E080E100E080FFFF1FCC
:1019A00010B50446CA48844208D10121042000F041
:1019B00025FB0021042000F021FB46E0C5488442BD
:1019C00008D10121082000F019FB0021082000F0B7
:1019D00015FB3AE0C048844208D10121102000F0F4
:1019E0000DFB0021102000F009FB2EE0BB488442D3
:1019F00008D10121202000F001FB0021202000F06F
:101A0000FDFA22E0B648844208D10121402000F0CE
:101A1000F5FA0021402000F0F1FA16E0B1488442C6
:101A200008D10121802000F0E9FA0021802000F097
:101A3000E5FA0AE0AC48844207D10121801500F0A4
:101A4000DDFA0021A01500F0D9FA10BD10B5012172
:101A5000084600F0D3FA0021012000F0CFFA10BDB3
:101A60002DE9F04102460025002600200023002435
:101A7000002791F803C00CF00F0591F803C01CF08B
:101A8000100F03D091F802C04CEA0505B1F800C070
:101A90001CF0FF0F31D0146800202BE04FF0010C38
:101AA0000CFA00F3B1F800C00CEA03069E4220D104
:101AB00083004FF00F0C0CFA03F7BC4305FA03FC4C
:101AC0004CEA040491F803C0BCF1280F06D14FF092
:101AD000010C0CFA00FCC2F814C00AE091F803C033
:101AE000BCF1480F05D14FF0010C0CFA00FCC2F814
:101AF00010C0401C0828D1D31460B1F800C0BCF15C
:101B0000FF0F34DD546800202EE000F1080C4FF088
:101B1000010808FA0CF3B1F800C00CEA03069E4273
:101B200021D183004FF00F0C0CFA03F7BC4305FAE8
:101B300003FC4CEA040491F803C0BCF1280F05D162
:101B400000F1080C08FA0CF8C2F8148091F803C0F0
:101B5000BCF1480F07D100F1080C4FF0010808FA5A
:101B60000CF8C2F81080401C0828CED35460BDE8A1
:101B7000F0814FF6FF710180022181700421C17054
:101B800070470246002093680B4201D0012000E01C
:101B9000002070470146886880B2704702460020E6
:101BA000D3680B4201D0012000E0002070470146BD
:101BB000C86880B2704701617047416170470AB1DF
:101BC000016100E041617047C16070474FF48032AD
:101BD0000A4382618161826182698269704702463B
:101BE0000020424B18684FF68073184040EA0210FC
:101BF00008433E4B186070473D49C8617047F0B5D7
:101C00000A46002300240021002500F00046B6F11A
:101C1000004F02D1354EF16901E0344E7168C0F3D6
:101C2000034583B200F44016B6F5401F08D121F0F9
:101C300070612E4E766826F070662C4F7E6012E042
:101C400000F48016B6F5801F06D1032606FA05F4C7
:101C5000A14341F0706106E0460D360103FA06F635
:101C6000B14341F0706122B1460D360103FA06F628
:101C7000314300F00046B6F1004F02D11B4EF16136
:101C800001E01A4E7160F0BD30B500228B071C0FC9
:101C90000F2303FA04F2154B08338C1053F8243049
:101CA0009343124C08348D1044F8253023468C1091
:101CB00053F824308C07240F00FA04F423430B4C10
:101CC00008348D1044F8253030BD0A49086070474B
:101CD00000080140000C01400010014000140140C8
:101CE00000180140001C014000200140000001409C
:101CF00000002042DC002042DC48006840F0010087
:101D0000DA49086008464068D9490840D749486020
:101D100008460068D7490840D4490860084600686A
:101D200020F4802008600846406820F4FE004860E7
:101D30004FF41F0088607047CC49096821F4803156
:101D4000CA4A11601146096821F480211160B0F57A
:101D5000803F03D0B0F5802F0ED106E0C34909685B
:101D600041F48031C14A116007E0C049096841F47B
:101D7000A021BE4A116000E000BF00BF704710B54F
:101D800001460022002300204A11012A02D1B74C4B
:101D9000236806E0022A02D1B44C236A01E0B34C66
:101DA000636A01F01F02012494401C4201D001200B
:101DB00000E0002010BD70B500240025002600BF03
:101DC0003120FFF7DCFF0646641CB4F5A06F01D09C
:101DD000002EF5D03120FFF7D2FF08B1012500E039
:101DE0000025284670BD01460020A04A106820F05A
:101DF000F80040EAC100106070479F4908607047D2
:101E000002460020994B586820F47C1042EA0103F6
:101E10001843964B586070479749086670470146CB
:101E20000020924A506820F0030008435060704739
:101E30008E48406800F00C007047014600208B4A35
:101E4000506820F0F00008435060704701460020C1
:101E5000864A506820F4E0600843506070470146AD
:101E60000020824A506820F4605040EAC10050606F
:101E7000704729B17D4A527A02437C4B5A7206E080
:101E80007A4A527AC343DBB21A40784B5A7270478F
:101E90007A490860704701460020744A506820F46F
:101EA00040400843506070470021754A11706F4AE6
:101EB00082F82010012802D0042808D103E0012173
:101EC0006F4A117004E005216D4A117000E000BFF7
:101ED00000BF70476B49086070476449096A014355
:101EE000624A11627047674944390860704730B5EB
:101EF00000210022002400235C4D6D6805F00C01D8
:101F000021B1042905D0082923D105E05E4D0560E3
:101F100022E05D4D05601FE0544D6D6805F47012C0
:101F2000524D6D6805F48034022505EB92421CB9D0
:101F3000564D554305600BE04C4D6D6815F4003F60
:101F400003D0524D5543056002E04F4D55430560A7
:101F500002E04D4D056000BF00BF444D6D6805F0C7
:101F6000F00109094A4D6B5C0568DD4045603F4D55
:101F70006D6805F4E061090A454D6B5C4568DD401C
:101F800085603A4D6D6805F46051C90A404D6B5C3F
:101F90004568DD40C560354D6D6805F44041890BED
:101FA0003C4D6B5CC568B5FBF3F5056130BD29B1EF
:101FB0002E4A526902432D4B5A6104E02B4A526962
:101FC00082432A4B5A61704729B1284A92690243D9
:101FD000264B9A6104E0254A92698243234B9A6119
:101FE000704729B1214AD2690243204BDA6104E0EB
:101FF0001E4AD26982431D4BDA61704729B11B4AE0
:10200000D2680243194BDA6004E0184AD26882436E
:10201000164BDA60704729B1144A12690243134B18
:102020001A6104E0114A12698243104B1A61704729
:1020300014494039086070470F49C86470470B491C
:10204000C87170470948406A40F08070074948628B
:10205000704701460020054A92680A4201D00120DB
:1020600000E000207047014988727047001002406C
:102070000000FFF8FFFFF6FE00004242D800424297
:10208000201002408004424200127A0000093D0004
:10209000410000205100002010B50446FE48844253
:1020A00008D10121C014FFF7A9FF0021E014FFF7B8
:1020B000A5FFC4E0B4F1804F08D101210846FFF725
:1020C000AAFF00210120FFF7A6FFB8E0F3488442F1
:1020D00008D101210220FFF79EFF00210220FFF717
:1020E0009AFFACE0EE48844208D101210420FFF7BA
:1020F00092FF00210420FFF78EFFA0E0E948844210
:1021000008D101210820FFF786FF00210820FFF7F2
:1021100082FF94E0E448844208D101211020FFF7B7
:102120007AFF00211020FFF776FF88E0DF48844225
:1021300008D101212020FFF76EFF00212020FFF7AA
:102140006AFF7CE0DA48844208D101214014FFF79D
:1021500055FF00216014FFF751FF70E0D54884421D
:1021600009D10121C804FFF749FF00214FF40020E5
:10217000FFF744FF63E0D048844209D101210805FC
:10218000FFF73CFF00214FF48010FFF737FF56E0C8
:10219000CA48844209D101214805FFF72FFF0021D9
:1021A0004FF40010FFF72AFF49E0C548844208D1E8
:1021B00001214020FFF72FFF00214020FFF72BFFD8
:1021C0003DE0C048844208D101218020FFF723FF71
:1021D00000218020FFF71FFF31E0BB48844208D177
:1021E00001218015FFF717FF0021A015FFF713FF4E
:1021F00025E0B648844209D101210804FFF7FEFE1C
:1022000000214FF48030FFF7F9FE18E0B048844217
:1022100009D101214804FFF7F1FE00214FF40030FD
:10222000FFF7ECFE0BE0AB48844208D101218804A3
:10223000FFF7E4FE00214FF48020FFF7DFFE10BD22
:1022400000220288944B98420ED0994B98420BD0B2
:10225000B0F1804F08D0914B984205D0904B9842F6
:1022600002D0904B984204D14FF68F731A404B889E
:102270001A438D4B984207D08C4B984204D04FF6AE
:10228000FF431A40CB881A4302808B8883850B88D2
:102290000385814B98420BD0854B984208D08B4BDD
:1022A000984205D08A4B984202D08A4B984201D17D
:1022B0000B7A038601238382704770B500240022C5
:1022C0000023058C4FF6FE7635400584028C83880A
:1022D000048B4FF68F752C40B51E2C400D882C4377
:1022E000751E2A400D892A434D882A436A4DA8420B
:1022F0000BD06F4DA84208D0744DA84205D0744D44
:10230000A84202D0734DA84213D14FF6F7752A4068
:102310004D892A434FF6FB752A408D882A434FF694
:10232000FF652B404FF6FF552B408D892B43CD8900
:102330002B4383800483CD888586028470BD70B56D
:10234000002400220023058C4FF6EF7635400584EB
:10235000028C8388048B48F6FF752C404FF6FF45AE
:102360002C400D882D0644EA15444FF6DF752A40AF
:102370000D892D0542EA15424D882D0542EA154288
:10238000454DA84202D04A4DA8421BD14FF67F7559
:102390002A404D892D0542EA15424FF6BF752A4065
:1023A0008D882D0542EA15424FF6FF352B404FF23E
:1023B000FF752B408D89AD0443EA1543CD89AD04EB
:1023C00043EA154383800483CD880587028470BD6A
:1023D00070B5002400220023058C4FF6FF663540BF
:1023E0000584028C8388848B4FF68F752C404FF6C2
:1023F000FC752C400D882C434FF6FF552A400D8963
:102400002D0642EA15424D882D0642EA1542224D1C
:10241000A84202D0264DA8421BD14FF2FF752A4098
:102420004D892D0642EA15424FF6FF352A408D8828
:102430002D0642EA15424EF6FF752B404DF6FF750C
:102440002B408D892D0543EA1543CD892D0543EA9F
:10245000154383808483CD888587028470BD70B5E1
:10246000002200230024058C4EF6FF7635400584BB
:10247000038C8488828B48F6FF752A404FF6FF450F
:102480002A400D882D0642EA15424DF6FF752B4075
:102490000D892D0720E00000002C014000040040C1
:1024A00000080040000C00400010004000140040F4
:1024B00000340140004C01400050014000540140F4
:1024C00000180040001C0040002000400040014077
:1024D000004401400048014043EA15434D882D0760
:1024E00043EA1543F84DA84202D0F84DA84206D160
:1024F0004BF6FF752C408D89AD0544EA1544848068
:102500008283CD88A0F84050038470BD828B4FF247
:10251000FF331A408283828B0B0642EA1342828386
:102520007047F0B50C461546002200210026078CA6
:102530004EF6FF7C07EA0C070784828B018C270785
:102540003E0C40F6FF473A402F0642EA17421F076B
:1025500042EA1742DC4FB8420ED0DC4FB8420BD0F3
:10256000B0F1804F08D0DA4FB84205D0D94FB84209
:1025700002D0D94FB84206D14DF6FF77394046F424
:102580008057394305E047F6FF57394044F48057F8
:10259000394382830184F0BD828B4FF6F3731A4076
:1025A0008283828B0A4382837047F0B50C461546BE
:1025B000002200210026078C4FF6FF6C07EA0C076B
:1025C0000784828B018C27063E0C4FF60C773A402D
:1025D0001F0545EA17473A43BB4FB8420ED0BB4FE1
:1025E000B8420BD0B0F1804F08D0B94FB84205D0F7
:1025F000B84FB84202D0B84FB84206D14FF6FF5795
:10260000394046F48077394305E04FF2FF573940AF
:1026100044F48077394382830184F0BD028B4FF20A
:10262000FF331A400283028B0B0642EA13420283F5
:102630007047F0B50C461546002200210026078C95
:102640004FF6EF7C07EA0C070784028B018C270505
:102650003E0C40F6FF473A401F0742EA17422F065A
:1026600042EA1742984FB8420ED0984FB8420BD06A
:10267000B0F1804F08D0964FB84205D0954FB84280
:1026800002D0954FB84206D14FF6DF77394046F079
:102690001007394305E04FF65F77394044F01007E3
:1026A000394302830184F0BD028B4FF6F3731A4065
:1026B0000283028B0A4302837047F0B50C4615462D
:1026C00000220021068C4FF6FE773E400684028BE6
:1026D000018C4FF60C7632401E0545EA1646324311
:1026E000794EB0420ED0794EB0420BD0B0F1804F4F
:1026F00008D0774EB04205D0764EB04202D0764E2A
:10270000B04206D14FF6FD76314044F00106314328
:1027100005E04FF6F576314044F00106314302837F
:102720000184F0BD70B505460C46674885420ED061
:10273000664885420BD0B5F1804F08D06448854289
:1027400005D06448854202D06348854200D100E04C
:1027500000BF208850B92389A28861882846FFF7E6
:10276000ACFFE1882846FFF79FFF25E0208804287A
:102770000AD12389A28861882846FFF75AFFE18899
:102780002846FFF74BFF17E0208808280AD1238945
:10279000A28861882846FFF708FFE1882846FFF7EE
:1027A000FBFE09E02389A28861882846FFF7B9FE6D
:1027B000E1882846FFF7AAFE70BD2DE9F0410546E5
:1027C0000C4600260127608808B9022600E0002692
:1027D000A088012801D1022700E001272088A0B9A4
:1027E0002389A28861882846FFF767FFE188284689
:1027F000FFF75AFF23893A4631462846FFF719FF6B
:10280000E1882846FFF70AFF13E02389A288618840
:102810002846FFF70EFFE1882846FFF7FFFE2389D1
:102820003A4631462846FFF748FFE1882846FFF739
:102830003BFFBDE8F0810A884B881A438B881A4316
:10284000CB881A430B891A434B891A438B891A4345
:10285000A0F8442070474FF6FF718180002101806D
:10286000C1804180017270470021018041808180D8
:10287000C180018141818181C18170470021018036
:102880004180012181800021C180018170470021A8
:10289000018041808180C1800181418181817047B7
:1028A00021B1028842F00102028004E002884FF662
:1028B000FE731A400280704781B1B0F8442042F4A0
:1028C0000042A0F844200FE0002C014000340140F9
:1028D0000004004000080040000C0040B0F8442014
:1028E000C2F30E02A0F84420704710B51AB18389D4
:1028F0000B43838104E08389CC43A4B223408381CA
:1029000010BD8182704741EA0203A0F84830704749
:1029100010B51AB183890B43838104E08389CC43CA
:10292000A4B22340838110BD01894FF6F872114093
:10293000018170470A46002101894FF68F731940C3
:1029400011430181704730B504460D4629462046A3
:10295000FFF7F0FF208940F00700208130BD2DE90E
:10296000F04104460D4616461F46602D06D13B46F3
:10297000012231462046FFF75CFE05E03B4601227E
:1029800031462046FFF799FE29462046FFF7D2FF41
:10299000208940F007002081BDE8F08130B50C4669
:1029A00000210189C9B21D0642EA15452543294384
:1029B000018130BD2DE9F04105460E461746984687
:1029C000002443463A4631462846FFF7E7FF2C8964
:1029D0004FF6F870044044F007044FF68F7004403F
:1029E00044F070042C81BDE8F081F0B504460D463A
:1029F00016461F463B46324629462046FFF7CEFF85
:102A0000208940F480402081F0BD0185828270479A
:102A10000A46002101884FF68F7319401143018047
:102A20007047F0B50C4615461E46002100220023D3
:102A30000189028B038C4FF6F877394021434FF61A
:102A4000FC473A4040F201173A434FF6DD773B40EE
:102A5000370545EA17473B43018102830384F0BDF4
:102A60000A460021018B4FF68F73194011430183F1
:102A700070470A460021018B48F6FF731940130680
:102A800041EA1341018370470A460021818B4FF6CA
:102A90008F7319401143818370470A460021818B4F
:102AA00048F6FF731940130641EA134181837047CA
:102AB00021B1028842F08002028004E002884FF6D1
:102AC0007F731A400280704721B1828842F004026D
:102AD000828004E082884FF6FB731A408280704740
:102AE00021B1828842F00802828004E082884FF699
:102AF000F7731A408280704721B1828842F0010248
:102B0000828004E082884FF6FE731A40828070470C
:102B10000A460021018B4FF6F773194011430183D8
:102B200070470A460021018B4FF2FF7319401306CC
:102B300041EA1341018370470A460021818B4FF619
:102B4000F77319401143818370470A460021818B36
:102B50004FF2FF731940130641EA13418183704716
:102B60000A460021018B4FF6FB7319401143018384
:102B700070470A460021018B4FF6FF3319401306B8
:102B800041EA1341018370470A460021818B4FF6C9
:102B9000FB7319401143818370470A460021818BE2
:102BA0004FF6FF331940130641EA13418183704702
:102BB0000A460021018B4FF67F73194011430183B0
:102BC00070470A460021018BC1F30E01130641EA4A
:102BD0001341018370470A460021818B4FF67F73B2
:102BE00019401143818370470A460021818BC1F34C
:102BF0000E01130641EA1341818370470A46002102
:102C0000018C4FF6FD7319401143018470470A4649
:102C10000021018C4FF6F77319401143018470476E
:102C20000A460021018C4FF6DF731940130541EA73
:102C30001341018470470A460021018C4FF67F73CF
:102C40001940130541EA1341018470470A460021E7
:102C5000018C4FF6FF531940130641EA13410184DA
:102C600070470A460021018C4FF2FF73194013068A
:102C700041EA1341018470470A460021018C4DF658
:102C8000FF731940130741EA13410184704730B5BF
:102C9000002301248C40A3B2048CDD43ADB22C4050
:102CA0000484048C02FA01F5ADB22C43048430BDD7
:102CB00030B5002304248C40A3B2048CDD43ADB2B4
:102CC0002C400484048C02FA01F5ADB22C43048438
:102CD00030BD70B503460020002418461830012589
:102CE0008D40ACB21D8CE643B6B235401D8409B1AF
:102CF000082909D100EB6100056825F07005056021
:102D00000568154305600CE00D1FADB200EB6500D2
:102D1000056825F4E04505600568160645EA164590
:102D2000056070BD21B1028842F00202028004E019
:102D300002884FF6FD731A400280704721B1028865
:102D400042F00402028004E002884FF6FB731A404E
:102D50000280704721B1828842F08002828004E0C4
:102D600082884FF67F731A408280704702884FF640
:102D7000F7731A40028002880A43028070478288F3
:102D80004FF68F731A40828082880A438280704790
:102D900002894FF6F8731A40028102890A430281C0
:102DA000704702894FF67F731A40028102890A43F5
:102DB00002817047818470478185704781867047A2
:102DC0000187704781877047A0F8401070470288DC
:102DD0004FF6FF431A40028002880A430280704780
:102DE0000146888E70470146088F70470146888FDC
:102DF00070470146B1F8400070470146888C704723
:102E00000146088D704702460020138A0B4201D00C
:102E1000012000E000207047CA430282704730B5AD
:102E20000246002000230024158A05EA0103958943
:102E300005EA010413B10CB1012000E0002030BD0F
:102E4000CA4302827047000010B50446FC48844221
:102E500009D101218803FFF7D1F800214FF4804008
:102E6000FFF7CCF832E0F748844209D10121480449
:102E7000FFF7D1F800214FF40030FFF7CCF825E040
:102E8000F148844209D101218804FFF7C4F80021E8
:102E90004FF48020FFF7BFF818E0EC48844209D1D6
:102EA0000121C804FFF7B7F800214FF40020FFF715
:102EB000B2F80BE0E648844208D101210805FFF78B
:102EC000AAF800214FF48010FFF7A5F810BD2DE9F6
:102ED000F04786B005460E460024A24600BFA14634
:102EE0000027B08900B100BF2F462C8A4CF6FF7036
:102EF0000440F08804432C82AC894EF6F310044061
:102F0000B08831890843718908430443AC81AC8A95
:102F10004FF6FF400440B0890443AC8201A8FEF79D
:102F2000E6FFC748874202D1DDF810A001E0DDF8D6
:102F30000CA0A88910F4004F08D00AEBCA0000EBDF
:102F40000A1031684900B0FBF1F807E00AEBCA004B
:102F500000EB0A1031688900B0FBF1F86420B8FB7F
:102F6000F0F004012009642101FB1089A88910F404
:102F7000004F08D0322000EBC900B0FBF1F000F0A8
:102F80000700044308E0322000EB09106421B0FB85
:102F9000F1F000F00F0004432C8106B0BDE8F0878B
:102FA0004FF41651016000218180C18001810C2104
:102FB000418100218181704710B502460020108AAE
:102FC0004FF2FF0318400B884C8823438C8823431F
:102FD000CC8823431843108210BD0021018041801A
:102FE0008180C180704721B1828942F40052828180
:102FF00004E082894DF6FF731A4082817047F0B574
:1030000003460024002600250020A1F510676A3F32
:1030100000D100BF1846C1F3421401F01F0601277A
:1030200007FA06F5012C01D10C3004E0022C01D185
:10303000103000E014301AB107682F43076002E037
:103040000768AF430760F0BD10B51AB1838A0B4320
:10305000838204E0838ACC43A4B22340838210BDE0
:10306000028A4FF6F0731A400282028A0A430282F1
:10307000704782894FF2FF731A40828182890A4326
:103080008281704721B1828942F00202828104E08C
:1030900082894FF6FD731A4082817047028A4FF68B
:1030A000DF731A400282028A0A430282704721B10A
:1030B000028A42F48042028204E0028A4BF6FF73E5
:1030C0001A4002827047C1F30802828070470146AD
:1030D0008888C0F308007047818941F0010181812F
:1030E0007047028BD2B20283028B42EA0122028332
:1030F0007047028B02F47F420283028B0A430283F1
:10310000704721B1828A42F02002828204E0828AE2
:103110004FF6DF731A408282704721B1828A42F0F3
:103120001002828204E0828A4FF6EF731A40828294
:10313000704721B1828A42F00802828204E0828ACA
:103140004FF6F7731A408282704721B1828942F4A8
:103150000042828103E08289C2F30E0282817047BD
:1031600021B1828A42F40062828204E0828A4FF2B4
:10317000FF731A4082827047828A4FF6FB731A40AF
:103180008282828A0A438282704721B1828A42F017
:103190000202828204E0828A4FF6FD731A40828224
:1031A000704702460020B1F5007F00D100BF1388B0
:1031B0000B4201D0012000E00020704701F40072B2
:1031C000B2F5007F00D100BFCA430280704770B5DE
:1031D00002460024002300250020A1F510666A3E67
:1031E00000D100BFC1F3421501F01F03012606FA0A
:1031F00003F3012D02D19689334006E0022D02D15E
:10320000168A334001E0968A33400C12012606FAF2
:1032100004F41688344013B10CB1012000E0002002
:1032200070BD10B500220023A1F510646A3C00D1E6
:1032300000BF0A1201249440A3B2DC43048010BDF5
:10324000003801400044004000480040004C00406D
:103250000050004010B50446BF48844208D1012107
:103260008014FEF7CBFE0021A014FEF7C7FE16E087
:10327000BA48844208D101210014FEF7CCFE002197
:103280002014FEF7C8FE0AE0B548844207D10121A8
:10329000C013FEF7C0FE0021E013FEF7BCFE10BD18
:1032A00010B50022028802F441520B884C88234357
:1032B0008C882343CC8823430C8923434C892343A4
:1032C0008C892343CC8923431A430280838B4FF29A
:1032D000FF74234083830B8A038210BD2DE9F04FD6
:1032E00085B005460C464FF0000902274FF0000854
:1032F0004FF0010B0026B246A88B4FF24001084068
:10330000A88302202884B5F81C90A068022801D167
:1033100000BF36E0A08810B94FF0010B01E04FF07C
:10332000020B8E48854200D100E000BF6846FEF7E0
:10333000DEFDDDF800A0E088B0F5007F0AD14FEA9D
:103340001A2000EB80004000A168B0FBF1F0401DA6
:1033500086B20BE04FEA4B10BAFBF0F000EB8000B6
:103360004000A168B0FBF1F0401D86B20A20B6FB18
:10337000F0F606F00108A6EB0800C0F34F074FEA8D
:103380000828022F01DBFF2F02DD02274FF0000883
:10339000E08840EA080038432884A088A1890843CF
:1033A000618808432188084340F4006040EA090925
:1033B000A5F81C9005B0BDE8F08F00210180418088
:1033C0008180C180018141818181C1810721018288
:1033D00070470021018041808180C180022181608D
:1033E00000218181704721B1028842F040020280B1
:1033F00004E002884FF6BF731A400280704721B183
:10340000828B42F48062828304E0828B4FF6FF332A
:103410001A408283704770B5002400230C110125E7
:10342000A540ABB21AB185881D43858004E085882C
:10343000DE43B6B23540858070BD10B51AB18388C1
:103440000B43838004E08388CC43A4B22340838071
:1034500010BD81817047014688897047A1F57E4281
:10346000FF3A04D0028842F48072028004E00288AD
:103470004FF6FF631A400280704721B1828842F004
:103480000402828004E082884FF6FB731A40828037
:10349000704702884FF2FF731A40028002880A4385
:1034A00002807047018841F480510180704721B14A
:1034B000028842F40052028004E002884DF6FF7355
:1034C0001A400280704702460020012901D0108B6B
:1034D00000E0908A70470146088A7047B1F5804F36
:1034E00004D1028842F48042028004E002884BF654
:1034F000FF731A40028070470246002013890B4276
:1035000001D0012000E000207047CA4302817047CB
:10351000F0B50246002000240023002501F00F072B
:103520000126BE40B4B20B1101269E40B3B296886C
:1035300006EA03051689264202D00DB1012000E0FB
:103540000020F0BD10B5002201F00F040123A340BC
:103550009AB2D343038110BD0030014000380040CF
:10356000003C0040002044490860091D0860091D16
:103570000860091D086041483F49143108607047E0
:1035800000213D498279002A3AD00A461268036830
:103590009A430B461A600A1D126803689A430B1D72
:1035A0001A60027911440A6803681A430A60324AB1
:1035B0000832126803689A432F4B08331A601A1DA9
:1035C000126803689A432C4B0C331A604279102A14
:1035D0000ED11A1F126803681A43274B08331A606A
:1035E0001A1D126803681A43234B0C331A600DE04E
:1035F0002149427911440A6803681A430A6005E0C8
:10360000027911440A6803689A430A6070470021EE
:10361000016001710C2141710021817170471649CF
:10362000103109680143144A103211607047014695
:103630000020114A143212680A4201D0012000E031
:10364000002070470C491431086070470146002083
:103650000022094B1B6803EA0102074B14331B6865
:103660000B4202D00AB1012000E00020704702495D
:10367000143108607047000000040140FFFF0F0094
:1036800010B50F210320FDF7CCFC4FF47A7100FB3D
:1036900001F4E01704EB10500013C0F5FA60F7498D
:1036A0000988081A40F2DC51081AF54908600846F2
:1036B0000068B0F57A7F02DC4FF47A7001E0F048E0
:1036C0000068EF49086008460068B0F5FA6F02DB51
:1036D0004FF4FA6001E0EA480068E94908600F2108
:1036E0000120FDF79EFC4FF47A7100FB01F4E01716
:1036F00004EB1050001300F57A70E2490988081AAB
:1037000040F2DC51081AE049086008460068B0F54C
:103710007A7F02DC4FF47A7001E0DB480068DA4916
:10372000086008460068B0F5FA6F02DB4FF4FA60F3
:1037300001E0D5480068D44908600F210020FDF75A
:1037400070FC4FF47A7100FB01F4E01704EB1050A9
:10375000001300F57A70CD490988081A40F2DC514F
:10376000081ACB49086008460068B0F57A7F02DC89
:103770004FF47A7001E0C6480068C5490860084601
:103780000068B0F5FA6F02DB4FF4FA6001E0C04860
:103790000068BF4908600F210220FDF742FC4FF48A
:1037A0007A7100FB01F4E01704EB1050001300F5F0
:1037B0007A70B8490988081A40F2DC51081AB649EB
:1037C000086008460068B0F57A7F02DC4FF47A7032
:1037D00001E0B1480068B049086008460068B0F5EB
:1037E000FA6F02DB4FF4FA6001E0AB480068AA49C7
:1037F000086010BD1CB5002000900190A74800781B
:103800005A287DD10020A64908706DE00F210320C1
:10381000FDF707FC4FF47A7100FB01F4E01704EBAD
:1038200010500013C0F5FA60BDF80010084480B2D3
:10383000ADF800000F210120FDF7F3FB4FF47A7182
:1038400000FB01F4E01704EB1050001300F57A7050
:10385000BDF80210084480B2ADF802000F2100202C
:10386000FDF7DFFB4FF47A7100FB01F4E01704EB86
:103870001050001300F57A70BDF80410084480B2AF
:10388000ADF804000F210220FDF7CBFB4FF47A7155
:1038900000FB01F4E01704EB1050001300F57A7000
:1038A000BDF80610084480B2ADF806006420FCF7AD
:1038B00077FD7C480078401C40B27A4908700728A0
:1038C00001D10220087077490978491EC8B2002149
:1038D000FCF784FD012173480078FCF77FFD7048F8
:1038E0000078401C6E4908706D4800786E4991F967
:1038F000001088428ADBBDF800006949097800E0C1
:1039000066E090FBF1F05D490880BDF80200644973
:10391000097890FBF1F05B490880BDF8040060492C
:10392000097890FBF1F059490880BDF806005C4920
:10393000097890FBF1F057490880FFF7A1FE504845
:10394000006840F2E651884229DA4D48006840F2AA
:10395000D251884223DB4C48006840F2E65188424D
:103960001DDA4948006840F2D251884217DD4848C4
:10397000006840F2E651884211DA4548006840F29A
:10398000D25188420BDD4448006840F2E65188423B
:1039900005DA4148006840F2D251884203DC5A20DF
:1039A0003E49087002E0A5203C490870FDF776FF0B
:1039B00000210220FCF712FD00210320FCF70EFD80
:1039C00000210420FCF70AFD00210520FCF706FD7C
:1039D0001CBD10B53548007848B3012839D13448AA
:1039E0000078A5280FD1002404E0052000F0CEF8CF
:1039F000601CC4B2052CF8DB5A202D490870002049
:103A00002A49087012E02A4800785A280ED100246A
:103A100004E0062000F0BAF8601CC4B2052CF8DB04
:103A2000A5202349087000202049087011E0204893
:103A300000785A2804D101210520FCF7CFFC07E0CB
:103A40001B480078A52803D100210520FCF7C6FCFF
:103A500000BF00BF10BD10B504E0FFF711FE062047
:103A600000F094F80648006840F21A418842F4DCFD
:103A7000074800688842F0DC10BD000058000020B4
:103A8000680000205A000020700000205C00002028
:103A90006C0000205E0000207400002078000020F0
:103AA000630000206400002065000020600000200A
:103AB0006200002010B5234801780420FCF78EFC3A
:103AC0002048007828B1CD2000F060F800201D4982
:103AD000087010BD10B51C4800785A2831D11B4819
:103AE000006840F2E65188422BDC1848006840F23A
:103AF000D251884225DD1648006840F2E6518842DE
:103B00001FDC1348006840F2D251884219DB11488B
:103B1000006840F2E651884213DC0E48006840F22B
:103B2000D25188420DDB0C48006840F2E6518842D1
:103B300007DC0948006840F2D251884201DBFFF7F8
:103B400059FE10BD610000207800002068000020B0
:103B5000700000206C000020740000204C490A789E
:103B60000978491C4A4B19704A4988544A490978CE
:103B70004140494A1170704710B50446E0B2FFF762
:103B8000EDFFC4F30720FFF7E9FF10BD10B50446B1
:103B900000203F4908702420FFF7E0FF4D20FFF789
:103BA000DDFF3C20FFF7DAFF00203B4908700A2CBC
:103BB0003BD008DC052C2AD0062C2FD0072C0BD0AC
:103BC000092C5CD14DE00B2C36D00C2C3BD00D2CAD
:103BD00040D0CD2C53D14BE00820FFF7BFFF20464B
:103BE000FFF7BCFF2D48006800B2FFF7C5FF2C4867
:103BF000006800B2FFF7C0FF2A48006800B2FFF774
:103C0000BBFF2948006800B2FFF7B6FF37E000208D
:103C1000FFF7A4FF2046FFF7A1FF30E00020FFF7E9
:103C20009DFF2046FFF79AFF29E00020FFF796FF4F
:103C30002046FFF793FF22E00020FFF78FFF20468A
:103C4000FFF78CFF1BE00020FFF788FF2046FFF7FF
:103C500085FF14E00020FFF781FF2046FFF77EFF7D
:103C60000DE00020FFF77AFF2046FFF777FF06E020
:103C70000020FFF773FF2046FFF770FF00BF00BF73
:103C800005480078FFF76AFF0248FCF725FE10BDE3
:103C90007A000020A80500207B000020680000209A
:103CA00074000020700000206C00002070470000AD
:103CB0000FB4044910B503AA029800F005F910BC2E
:103CC0005DF814FB300000202DE9F04104460E465B
:103CD00000200AE0E1682046884738B3252806D04E
:103CE000D4E901219047206A401C2062F2E7E16894
:103CF000204600278847050018D0A5F14100192863
:103D000002D820354FF40067324629462046276006
:103D1000FCF726FA40B1012804D0F61D26F007066C
:103D20000836D7E7361DD5E72846D9E7206ABDE82B
:103D3000F08100002DE9F041074600251068752943
:103D4000394616A411D0AFF30080002803DAC0F181
:103D5000000013A407E039688A0701D511A402E026
:103D6000490704D510A4012501E0AFF3008000212C
:103D70000A2307F1240607E0B0FBF3F203FB12006D
:103D8000303070541046491C0028F5D12B4622468D
:103D90003846BDE8F04100F03BB8000000000000EC
:103DA0002D0000002B0000002000000070B504462C
:103DB0000D4621461068AFF300802168090502D541
:103DC000104A7A4402E00F4A7A440E32002104F18C
:103DD000240307E000F00F064FEA1010965D5E54D2
:103DE00001F101010028F5D103462068000704D540
:103DF000702D02D009B1113202232046BDE8704077
:103E000000F006B8F80F0000704770477047704721
:103E10002DE9F0470D4604469246994600F12408E4
:103E20000168880604D5E06921F01001216000E0F6
:103E30000120A84202DDA0EB050700E00027A169F0
:103E400007EB050202EB0900A1EB0000A06120686E
:103E5000C00602D42046AFF30080002608E0D4E973
:103E600001211AF806009047206A401C761C206247
:103E70004E45F4DB2068C0060AD52046AFF300802B
:103E800006E0D4E9012130209047206A401C2062DE
:103E9000381EA7F10107F4DC07E0D4E9012118F886
:103EA00005009047206A401C2062281EA5F10105EC
:103EB000F3DC2046AFF300802068000602D5022024
:103EC000BDE8F0870120FBE7074B70B50C467B444B
:103ED00000F011F80546204600F020F810B14FF030
:103EE000FF3070BD284670BD61CDFFFF01694A1CDF
:103EF00002610878704700B58FB0CDE9013100212B
:103F0000059105497944CDE9031011466846FFF74C
:103F1000DBFE0FB000BD0000E5FFFFFFC06800F052
:103F200080007047754600F029F8AE4605006946E6
:103F3000534620F00700854618B020B5FCF71EFA5E
:103F4000BDE820404FF000064FF000074FF000089A
:103F50004FF0000B21F00701AC46ACE8C009ACE81B
:103F6000C009ACE8C009ACE8C0098D4670470446FA
:103F7000AFF300802046FCF70AF9000000487047C4
:103F8000C805002000487047CC05002021F0004201
:103F9000A2F16052B2F5801F01F0004328BFD2F1B8
:103FA0007F6C0BD95FEA001C43EAC20242EB5070FF
:103FB00018BF704728BF20F001007047B2F5801F7E
:103FC000BCBF184670474FEA410C1CF5001F02D2D7
:103FD000084600F06FBE70B500F0B4FA000000892A
:103FE000FFF7F6BF4FF00040A0F5800070470000DB
:103FF00010B591EA030F48BF83F0004300F10A8334
:10400000841A71EB030C05D2121943EB0C03001B4D
:1040100061EB0C01DFF824E14FEA1154A4EB135CCF
:104020001EEA430F18BF9EEA445F73D023EA0E03D3
:10403000DCF1200E21EA045143F4801332D322FA3A
:104040000CFE10EB0E0023FA0CFE41EB0E01CCF13E
:10405000200E03FA0EFE10EB0E0051F10001B1F537
:10406000801FCCF1200E32D201EB045112FA0EF275
:10407000BDE8104058BF7047401C38BF5FEA42029D
:1040800018BF7047002814BF20F0010041F1000163
:104090004FEA410313F5001F38BF7047A1F1C0413B
:1040A00000F09EBA012A43EB0302ACF1200CDCF1D4
:1040B0001F0E32BF4FF0000E23FA0CF310EB03007B
:1040C00041EB0451B4EB115FD0D0A1EB045101F5E9
:1040D000801149085FEA300001EB04510ED350F122
:1040E000000038BF12FA0EFE08D1BDE81040C9E743
:1040F000401C38BF5FEA4202CAD1C3E7BDE81040A6
:104100004FEA410313F5001F38BF7047A1F1C041CA
:1041100000F066BA9EEA445F08D011EA5E0FBDE87F
:10412000104004BF01F0004100207047BDE810407E
:1041300070B500F007FA00BF64FBBE3E0000E0FF70
:104140002DE9C04130B4DFF8A0C23CEA111418BF19
:104150003CEA131400F0EC8081EA03051CEA111418
:1041600044EAD57418BF1CEA131500F0C780A4EB0D
:1041700005044FF0004545EAC12145EAC32341EA61
:10418000505143EA525304F17F74994204F50034CC
:104190004FEAC0204FEAC22208BF904200F09C8044
:1041A0004FEA13650FF24016765D4FEA134506FBA2
:1041B00005F7C7F1807706FB07F74FEAD737A7FB6C
:1041C00003687642C8F58038A7FB06CE38BFA8F151
:1041D000010807FB08E64FF0000EA6FB028CE6FB89
:1041E00003CEDCF1000CCEF1004E38BFAEF1010E73
:1041F000A6FB0C584FF000074FF00005E6FB0E87BA
:10420000A1FB08C6A0FB07CE16EB0E0645F1000584
:10421000E1FB076515F1E04E7EBFA4F580345FEA4F
:1042200046066D4116F1800745F100054FEA172754
:104230004FEA066647EA0567A6F1DE46B6F1805FFB
:104240004FEA15251FD9384624F0010C05EBC4713F
:10425000BCF1FE6F01EB0C1102D8F0BCBDE800818F
:1042600024425CBF01F5801E9EEAC47F02D4F0BCEC
:10427000BDE80081244238D4F0BCA1F1C041BDE8C2
:10428000004100F0ADB94FEAD22242EA43524FEA70
:10429000D323A7FB02864FEAD02040EA415007FB18
:1042A00003661EEA0E0F4FEAD12105FB026658BFD6
:1042B000A6EB0056B6EB00564FEA520E4EEAC37E0E
:1042C00018EB0E0E56EB530EBDD518EB02085E41EF
:1042D0007F1C55F10005B6E74FF480154FF000073D
:1042E0004FF000064FF00008ADE7F0BC4FF00000C3
:1042F00001F1C04101F00041BDE8008111EA0C1F4D
:104300000CEA131500D00CE013EA0C1F00F0258016
:104310004FF00000F0BC81EA030101F00041BDE86C
:104320000081F0BCBDE8004181EA030100F058B90A
:10433000F0BCBDE8004170B500F004F9097EFC3E18
:1043400000F007B881EA03014FF0000001F00041DE
:10435000704781EA030100F043B9F0BCBDE80041B9
:104360004FF0000021497047FFFDFBF9F7F5F4F22B
:10437000F0EEEDEBE9E8E6E4E3E1E0DEDDDBDAD800
:10438000D7D5D4D3D1D0CFCDCCCBCAC8C7C6C5C45E
:10439000C2C1C0BFBEBDBCBBBAB9B8B7B6B5B4B375
:1043A000B2B1B0AFAEADACABAAA9A8A8A7A6A5A460
:1043B000A3A3A2A1A09F9F9E9D9C9C9B9A99999824
:1043C0009797969595949393929191908F8F8E8EC7
:1043D0008D8C8C8B8B8A8989888887878685858454
:1043E00084838382828181800000FF070000F87F40
:1043F000DFF848C170B51CEA111E1EBF1CEA131578
:104400009EEA0C0F95EA0C0F00F06F8081EA03041E
:1044100023EA4C134EEAD47E21EA4C1141F4801178
:1044200043F48013AE44A1FB024CA0FB0365AEF144
:104430007F7E361955EB0C05A1FB034C4CF10003B4
:10444000A0FB021C16EB0C06654153F10003094268
:1044500018BF46F0010613F4007F0BD14FEA033179
:104460004FEA0530340341EA155140EA16506FF027
:1044700003020AE04FEAC3214FEAC520F40241EAF1
:10448000555140EA56506FF0020202EB2E4201EB0A
:10449000025585EACE710AD05FEA440C18BF24F0B9
:1044A000004450F1000041F1000120EAD47040F2D4
:1044B000FE7C624500D270BDA84214BF4FF080441C
:1044C0004FF04044002E08BF0024BEF1806FA8BF0B
:1044D000A1F1C041BDE8704080F282804FF0000041
:1044E00001F1C04101F0004170479EEA0C0F0CEA57
:1044F000131518BF95EA0C0F06D04FF0000081EAA3
:10450000030E0EF0004170BD00F01CF88900013E62
:1045100000F007B800F009B84FEA430C5FEA5C5CB2
:1045200008D081EA030100F05BB84FEA410C5FEA72
:104530005C5CF6D14FF00000014970470000FF07B6
:104540000000F87F0EF1020E2EF0030E5EF8046BF1
:10455000364205D4012A43EB030515F5001F12D896
:10456000012841EB010C1CF5001F0CD80ED14FEABD
:10457000D17C15F5001F0CEB4C0C0CF1020C08BFA4
:104580004CEBD37C04E04FF0080C01E04FEAD37C05
:104590000CEB4C0526FA05F606F00706B6F1040CFE
:1045A00006D20EEB860CBDE870404CF0010C604763
:1045B000DFE80CF0090B02024FF000414FF0000061
:1045C000A1F5002170BD19461046012851EB0104E8
:1045D00018BFD4F5001484BF002001F0004170BD65
:1045E0000808A0F500114FEA3101704791EA030F66
:1045F00010B581F000413FF503AD83F0004300F0BA
:1046000009B8000010B591EA030F48BF83F00043DA
:104610003FF5F6AC841A71EB030C07D212198CF03B
:10462000004C43EB0C03001B61EB0C01DFF8A4E131
:104630004FEA1154A4EB135C1EEA430F18BF9EEA25
:10464000445F00F0B08023EA6E03524221EA045135
:10465000C3EB6E0338BF5B1EDCF1200E25D322FABC
:104660000CFE10EB0E0043FA0CFE41EB0E01CCF1F8
:10467000200E03FA0EFE10EB0E0051F10001CCF1FA
:10468000200E29D412FA0EF201EB0451BDE81040BD
:1046900058BF7047401C1CBFB2F1004F7047002844
:1046A0000CBF491C20F00100704712EB020E43EBD7
:1046B000030218BF4FF0010E4EEA4202ACF1200C8B
:1046C000DCF11E0E54D943FA0CFE10EB0E0051F132
:1046D000FF31CCF11E0ED5D50EF1010E12FA0EFEF1
:1046E000404141EB010101EB445C5FEA5C5C10D9A5
:1046F00010EBDE7001EB045138BFBEF1004FBDE896
:10470000104018BF704700280CBF491C20F0010062
:10471000704730D24FEAD42C11F5001124F4006414
:104720001BD0B1FA81F20B3AA41AA41ED2F12003D5
:10473000914030FA03F31943904001EBCC71002C07
:1047400001EB0451BDE81040A8BF704701F1C04122
:104750004FF0000001F000417047B0FA80F310FA0A
:1047600003F100D110BDE41A173C4805C90AE4E77B
:1047700001EB045110BD491001EB0451BDE810409C
:104780004FEA300002E04FF0000170474A0008BFD6
:104790000042F8D0B2F5001F28BF704701F0004179
:1047A0004FF0000070479EEA445F07D011EA5E0FA9
:1047B000BDE8104004BF002100207047BDE8104054
:1047C00070B5FFF7BFFE00BF40DFF63E83F000414B
:1047D000104670470000E0FF43004FEAD30C4FEA59
:1047E0003C0C43401FBF40070CF1605113F0FE4FDB
:1047F00070471CF0006F03D100200CF0004170479F
:104800000CF0004343EA507010B540EACC0000F0D1
:1048100004FA00BF000000924FEA0001FFF7E0BE7B
:104820004FF000414FF00000A1F50021704700005B
:1048300090EA010F48BF81F0004100F15282421A14
:104840003CBF801A89184FEAD0524FF07F4C1CEAC7
:10485000410FA2EBD15318BF9CEA026F00F03B80DE
:104860004FF0004C4CEA00204CEA012121FA03FCF5
:1048700010EB0C0C1ED202F1FF325FEA1C2040EB61
:10488000C25038BF70471CF07F0F4FEA400C18BF72
:10489000BCF17F4F38BF7047C3F12003994008BF78
:1048A00020F00100BCF17F4F38BF7047A0F1C0403D
:1048B00000F000BA4FEA3C00000A40EBC25028BFAB
:1048C0001CF0FF0F4FEA400CE6D018BFBCF17F4F41
:1048D00038BF7047EAE79CEA026F05D010EA5C0F28
:1048E00008BF00F00040704710B500F096F900BF17
:1048F00064FBBE3E4FF47F0C1CEAD0121EBF1CEAC4
:10490000D11392EA0C0F93EA0C0F00F0858090EA25
:10491000010F48BF42F4807240F4000C41F40000E3
:104920002CF07F4120F07F4000B58142A2EB0302D2
:104930000FF2081CACEB504EC0F100009EF800E0F6
:104940004FEA4E0E00FB0EFC38BF49004FEA2C1C0C
:1049500002F5FA020CFB0EF34FEACE1E4FEA112CC1
:104960004FEAC1210EEB635E42EB22420EFB0CFCD0
:104970004FEA1C5300FB03114FEA112C4FEA01319F
:104980000EFB0CFC4FEADC4C00FB0C11C14228BFB3
:1049900009184CEB03335DF804EB10EB410143EBDA
:1049A000C250B2F57C0F38BF704729D512F0F00F16
:1049B0001CBF00F1C04000F00040704700818283BE
:1049C0008485868788898B8C8D8E8F91929395961E
:1049D00097999A9C9D9FA0A2A3A5A7A8AAACAEB0A8
:1049E000B2B3B5B7B9BCBEC0C2C5C7C9CCCED1D4AD
:1049F000D7D9DCDFE2E6E9ECF0F3F7FAFE000000DD
:104A00004FEA400C0CF1807CBCF17E4F28BF704710
:104A1000B0F1C04000F04EB990EA010F0CEAD1139A
:104A200048BF42F48072624538BF634507D213F431
:104A30007F0F16D080EA010000F00040704710B5EB
:104A400000F0EBF8097EFC3E00F005B880EA0100BA
:104A500000F00040704780EA010000F0004000F0E4
:104A600029B912F47F0F04BF0248704780EA0100A1
:104A700000F020B90000C07F41000B0ED3F19E0270
:104A800008D950F400034FEA032323FA02F048BF89
:104A90004042704710B500F0C0F800BF4992248032
:104AA000002070476FF0004282EA2000704700004B
:104AB000C10DD1F19E0206DB4FEA002343F0004313
:104AC00023FA02F07047004207D54FEA4001B1F1E6
:104AD000FE4F02D24FF00000704710B500F09DF875
:104AE00049922480002070476FEA20007047000040
:104AF000B0FA80F310FA03F2C3F19D030AD0D9058E
:104B000001EB1220530638BF704700F1010008BFC7
:104B100020F00100704700004FF47F0C1CEAD01217
:104B20001EBF1CEAD11392EA0C0F93EA0C0F00F09F
:104B3000478090EA010F48BF42F480724FF0004C6A
:104B40004CEA00204CEA012102EB0302A0FB011316
:104B5000A2F50002002918BF43F001035B0028BF43
:104B60004FEA330342EB22425FEA132C4CEBC25074
:104B70002EBFBCEB436FB2F57C0F70474FEA036C5E
:104B8000BCF1004F08BF20F00100B2F57C0F38BF28
:104B900070470BD582F0FF0212F5803FC8BF704707
:104BA00000F1C040D8BF00F00040704700F5000C95
:104BB0005FEA4C0C48BF7047B0F1C04000F07AB8D3
:104BC00090EA010F0CEAD11348BF42F480726245AB
:104BD00038BF634504D280EA010000F0004070470E
:104BE00010B500F01AF800BF8900013E00F007B8C8
:104BF00000F009B85FEA410C5FEA1C6C08D080EA5B
:104C0000010000F057B85FEA400C5FEA1C6CF6D177
:104C10004FF00040A0F5800070470EF1020E2EF01C
:104C2000030E5EF8044B244204D44FEA4102B2F171
:104C30007F4F11D84FEA4003B3F17F4F0CD80ED10C
:104C40004FEAD07CB2F17F4F0CEB4C0C0CF1020C14
:104C500008BF4CEBD17C04E04FF0080C01E04FEAB8
:104C6000D17C0CEB4C0324FA03F404F00704B4F1F8
:104C7000040C06D20EEB840CBDE810404CF0010C85
:104C80006047DFE80CF0070802024FF00040A0F593
:104C9000800010BD0846420018BFD2F1807288BF64
:104CA00000F0004010BD10B5FFF76CF94FF00001A7
:104CB000016010BDFF2141EAD050C005704780F06F
:104CC000004090EA010F7FF5BAAD81F0004100F09D
:104CD00008B8000090EA010F48BF81F000413FF59D
:104CE000AEAD421A04D882F00042A0EB020011449B
:104CF0004FEAD0524FF07F4C1CEA410FA2EBD15348
:104D000018BF9CEA026F4AD04FF0004C4CEA0020DA
:104D10004CEA012121FA03FCB0EB0C0C0FD412F089
:104D2000FE0F36D05FEA4C001DD5001240EBC2509A
:104D300038BF70471CF03F0F18BF70470BE0A2F15F
:104D400001025FEA1C2040EBC25038BF70471CF0E4
:104D50007F0F18BF7047C3F12003994014BF401E56
:104D600020F00100704780084FEA122308BF704707
:104D7000B0FA80FCA2EB0C02CCF1280C60FA0CF02B
:104D800093EA122F04BF00EBC25070474FEAC37082
:104D90007047130A5FEADC1008BF7047F6E79CEA29
:104DA000026F04D010EA5C0F08BF0020704710B5F6
:104DB000FFF733FF40DFF63E81F0004070473031AF
:104DC0003233343536373839414243444546403032
:104DD00058003031323334353637383961626364E4
:104DE0006566403078000000084E00080000002092
:104DF00084000000280100088C4E00088400002078
:104E0000A40B00004401000800512502000000002E
:104E1000000000000102030406070809000000006A
:104E2000000000000000000000000000000034C38B
:104E300010100034C310101100000000000000002A
:104E4000000000000000000000000000000102035C
:104E50000401020304060708090204060800000012
:104E600000000000000000000000A5000114000088
:104E70000000000000000000000000000000000032
:0C4E800000000000DC05DC05DC05DC05A2
:04000005080003618B
:00000001FF
