:020000040800F2
:10000000C80B0020590300086103000863030008BF
:10001000650300086703000869030008000000008A
:100020000000000000000000000000006B0300085A
:100030006D030008000000006F0300087103000852
:1000400073030008730300087303000873030008B8
:1000500073030008730300087303000873030008A8
:100060007303000873030008730300087303000898
:100070007303000873030008730300087303000888
:100080007303000873030008730300087303000878
:100090007303000873030008730300087303000868
:1000A0007303000873030008730300087303000858
:1000B00073030008EF0F0008610F000873030008C6
:1000C0007303000873030008730300087303000838
:1000D00073030008951300087303000873030008F6
:1000E00073030008730300087303000800F002F8AC
:1000F00000F03FF80AA090E8000C82448344AAF183
:100100000107DA4501D100F034F8AFF2090EBAE880
:100110000F0013F0010F18BFFB1A43F0010318473B
:100120008C400000AC400000103A24BF78C878C171
:10013000FAD8520724BF30C830C144BF04680C60ED
:10014000704700000023002400250026103A28BF35
:1001500078C1FBD8520728BF30C148BF0B60704739
:10016000642903F01380002070471FB51FBD10B530
:1001700010BD03F0D5F81146FFF7F7FF01F07AF94B
:1001800003F0F3F803B4FFF7F2FF03BC01F030F81B
:1001900000210020674A126842F48032654B1A60E1
:1001A00000BF644A126802F40030491C10B9B1F56E
:1001B000A06FF6D15F4A126812F4003F01D001200F
:1001C00000E00020012842D15B4A126842F0100290
:1001D000594B1A601A46126822F003021A601A4636
:1001E000126842F002021A60524A5268514B5A6039
:1001F0001A4652685A601A46526842F480625A603F
:100200001A46526822F47C125A601A46526842F426
:10021000E8125A601A46126842F080721A6000BFF3
:10022000444A126812F0007FFAD0424A526822F023
:100230000302404B5A601A46526842F002025A606A
:1002400000BF3C4A526802F00C02082AF9D17047FC
:1002500010B5FFF79DFF10BD10B53648006840F09F
:100260000100344908600846406834490840314973
:10027000486008460068324908402E490860084630
:10028000006820F4802008600846406820F4FE00E2
:1002900048604FF41F008860FFF7DAFF4FF00060FE
:1002A0002849086010BD10B5002100200022214B14
:1002B0005B6803F00C0121B1042906D0082928D17C
:1002C00007E0214B214C236027E01F4B1F4C23608C
:1002D00023E0184B5B6803F47010164B5B6803F463
:1002E0008032022303EB904022B9194B4343174C51
:1002F00023600DE00F4B5B6813F4003F04D0144BF8
:100300004343124C236003E00F4B43430F4C2360E5
:1003100003E00D4B0D4C236000BF00BF054B5B6835
:10032000C3F303130B4CE15C084B1B68CB40074C39
:10033000236010BD00100240002002400000FFF8C2
:10034000FFFFF6FE08ED00E000127A00000000203A
:1003500000093D0004000020094880470948004783
:10036000FEE7FEE7FEE7FEE7FEE7FEE7FEE7FEE765
:10037000FEE7FEE704480549054A064B70470000C2
:1003800059020008ED000008C8050020C80B002035
:10039000C8070020C80700208E48806940F004008C
:1003A0008C4988610846806940F0080088618A4865
:1003B00000686FF30B00884908608848006820F0E7
:1003C0000F00864908608348806940F400708149C5
:1003D00088610846C06840F40070C8600846C0687C
:1003E00020F40070C8600846406820F4404048602F
:1003F0000846406840F40040486079480068794900
:1004000008407749086008460068086008460068A8
:1004100020F480700860081D006820F00200091DAB
:1004200008600846006820F46020086008460068FC
:1004300040F4602008600846006840F480100860BE
:100440000846006820F4006008600846006840F430
:100450000000086062482830006820F4700060499D
:100460002831086008460068002008605C480C30AD
:10047000006820F038005A490C31086008460068CE
:1004800040F038000860081F006820F4E010091FE1
:1004900008600846006840F4E0100860081F006823
:1004A00040F00100091F08600846006840F008009D
:1004B000086000BF4A48001D006810F0080FF9D11D
:1004C0004748001D006840F004004549091D0860C8
:1004D00000BF4348001D006810F0040FF9D17047B9
:1004E00001463F483030006820F01F003C4A30325F
:1004F000106010460068084310603948001D00680D
:1005000040F48000364A121D106000BF3448001FBE
:10051000006810F0020FF9D031484830006880B20E
:10052000704770B506460B460024002505E03046AE
:10053000FFF7D6FF0444681CC5B29D42F7DBB4FB4D
:10054000F3F080B270BD2DE9FE4F0024A14608E013
:100550001020FFF7C5FF204484B209F1010000F02C
:10056000FF09B9F1140FF3DB142094FBF0F084B20F
:10057000204603F0B7FC824603F028FB07464FF005
:100580006632194B03F02EF9054602F0F9FE02908F
:10059000029803F01BFB0546144A154B03F020FAA2
:1005A0000746144A144B02F0C5FF0022134BCDE955
:1005B000000102F017FF824602F0E2FE02901049AD
:1005C000029803F0A3FC0290029803F04FFCBDE8F0
:1005D000FE8F00000010024000080140000C0140A6
:1005E00004240140FFFFF00066664A3FE17A14AE42
:1005F00047E1F63F22FDF675E09C713F000039406F
:100600000000204170B504465A2C70D0A52C6FD143
:100610000F210320FFF785FF642100FB01F5E81798
:1006200005EB10500113994800686330401A98494F
:10063000086008460068002801DC002001E09448BA
:1006400000689349086008460068632801DB63205E
:1006500001E08F4800688E4908600F210120FFF7F4
:1006600060FF642100FB01F5E81705EB1050894994
:100670000968894A1268114401EB203087490860F3
:1006800008460068002801DC002001E0834800687B
:100690008249086008460068632801DB632001E0A6
:1006A0007E4800687D4908600F210020FFF739FF70
:1006B000642100FB01F5E81705EB105001137848A1
:1006C0000068784A12681044084477490860084670
:1006D0000068002801DC002001E0734800687249CE
:1006E000086008460068632803DB632003E02CE011
:1006F000C9E06D4800686C4908600F210220FFF7CF
:1007000010FF642100FB01F5E81705EB1050674965
:100710000968674A1268114401EB20306549086096
:1007200008460068002801DC002001E061480068FC
:100730006049086008460068632801DB632001E027
:100740005C4800685B4908609DE00F210120FFF7CD
:10075000E8FE642100FB01F5E81705EB10504D4958
:1007600009684A4A1268114401EB20304849086080
:1007700008460068002801DC002001E044480068C9
:100780004349086008460068632801DB632001E0F4
:100790003F4800683E4908600F210320FFF7C1FE73
:1007A000642100FB01F5E81705EB105001133948EF
:1007B0000068394A126810446330401A37490860AB
:1007C00008460068002801DC002001E0334800688A
:1007D0003249086008460068632801DB632001E0B5
:1007E0002E4800682D4908600F210020FFF799FE70
:1007F000642100FB01F5E81705EB105001132848B0
:100800000068284A126810440844274908600846CE
:100810000068002801DC002001E02348006822492C
:10082000086008460068632801DB632001E01E4879
:1008300000681D4908600F210220FFF772FE642145
:1008400000FB01F5E81705EB105018490968184A34
:100850001268114401EB2030164908600846006810
:10086000002801DC002001E01248006811490860FE
:1008700008460068632801DB632001E00D4800683A
:100880000C49086000BF00BF70BD000014000020CC
:100890003000002024000020180000203800002034
:1008A000280000201C000020340000202C00002024
:1008B000200000203C0000202448806940F008000F
:1008C00022498861224800684FF2F001884320499C
:1008D00008600846006848F2800108431C49086027
:1008E0001B480C30006840F00E0019490C310860BC
:1008F0001648806940F00400144988611448001DBE
:10090000006820F00F001249091D086008460068C1
:1009100040F0080008600E480C30006840F4807019
:100920000B490C31086070470A48006808B912206A
:1009300070470948006808B91320F9E707480068BC
:1009400008B91420F4E71520F2E700000010024077
:10095000000C0140048121420C81214220012142EE
:100960001E48806940F004001C498861084680697F
:1009700040F0080088610846806940F00100886105
:100980001748006820F47020154908600846006880
:1009900040F44030086012480830006840F480504D
:1009A0000F49083108600F48006880B20D4908609F
:1009B000084600680C4908430A49086009480C3099
:1009C000006840F0F00007490C31086007484068B3
:1009D00040F0007005494860704700000010024078
:1009E00004080140000C01400000333300000140C6
:1009F0002DE9F04107460D4616460020BC49086027
:100A0000384600F08BFF8046002405E0FF2000F010
:100A100085FF2855601CC4B2B442F7DB0120B449FD
:100A200008604046BDE8F0812DE9F04107460C46DC
:100A300015460020AE490860384600F06FFF80463A
:100A4000002605E014F8010B00F068FF701CC6B228
:100A5000AE42F7DB0120A64908604046BDE8F081C0
:100A60001CB5A4A103C9CDE90001032000F0C8FF13
:100A7000052269463020FFF7D7FF0522694610207E
:100A8000FFF7B6FF002406E01DF80400222800D07E
:100A900003E0601CC4B2052CF6DB00BF052C01D0BE
:100AA00001201CBD0020FCE710B59448806940F08F
:100AB0000400924988619248006820F0F020904933
:100AC0000860084600688F4908438D490860081F80
:100AD000006820F47020091F08600846006840F490
:100AE000403008600120884908608849C1F89001B9
:100AF00000F035FF8648008820F0400084490880D7
:100B00000846008820F0020008800846008820F08F
:100B1000010008800846008840F04000088000205E
:100B2000794908604FF001007849C1F89001FFF75A
:100B300097FF10BD70B505460C4600206C49086053
:100B4000284600F0EBFE0646204600F0E7FE0120B6
:100B50006E49C1F89001304670BD70B50446002062
:100B600063490860204600F0D9FEFF2000F0D6FE61
:100B7000054601206549C1F89001284670BD70B551
:100B80000546022000F03CFF00205F4908604FF05E
:100B9000200229464FF0A000FFF746FF01205B49E5
:100BA000C1F8BC0100BF5B4800680028FBD14FF0D2
:100BB0000700FFF7D2FF044621462720FFF7BAFFC0
:100BC00014F0100F05D0FF21E120FFF7B3FF102034
:100BD00070BD14F0200F01D02020F9E7FF20F7E7C7
:100BE00070B50446022000F00BFF0720FFF7B5FFA9
:100BF000054629462720FFF79DFF15F0400F0AD034
:100C0000202221466120FFF7F3FEFF21E220FFF7BB
:100C100091FF002070BD0120FCE710B500203A498B
:100C200008604FF0FF014FF0E200FFF783FF05225D
:100C300039492A20FFF7F8FE01212120FFF77AFF2A
:100C400001212220FFF776FF28212520FFF772FFE0
:100C500020213120FFF76EFF0F212620FFF76AFFCA
:100C60000F212020FFF766FF01202849C1F8BC01B1
:100C700010BD10B50020244908604FF0FF014FF06F
:100C8000E100FFF757FF052224493020FFF7CCFE93
:100C9000052221492A20FFF7C7FE01212120FFF765
:100CA00049FF01212220FFF745FF1E212420FFF7E5
:100CB00041FF28212520FFF73DFF0F212620FFF7C8
:100CC00039FF0E212020FFF735FF01200F49C1F821
:100CD000BC0110BD0146124B4A1C985C4FF6FF72D6
:100CE00002EA00201A46525C024490B270470000AB
:100CF0009001214222222222220000000010024004
:100D00000408014000800030BC0121420000214263
:100D1000003001402C012142A7410008A2410008F7
:100D20008C00002089488A4948608A48486070479A
:100D30008748006940F08000854908617047844811
:100D4000C16811F0010F01D00120704711F0040FAC
:100D500001D00220F9E711F0100F01D00320F4E7D1
:100D60000020F2E770B5044600BFFFF7E8FF054634
:100D7000012D00D006E0012000F032FC601E84B29C
:100D8000002CF2D100BF04B9FF25284670BD70B514
:100D90000546002445F6FF70FFF7E4FF0446C4B99A
:100DA0006B48006940F002006949086108464561E6
:100DB000006940F04000086145F6FF70FFF7D2FF80
:100DC0000446012C05D06248006920F00200604909
:100DD0000861204670BD70B505460E46FF20FFF73E
:100DE000C1FF044694B95A48006940F001005849CF
:100DF00008612E80FF20FFF7B5FF0446012C05D0C7
:100E00005348006920F0010051490861204670BD37
:100E10000146088870472DE9F04105460E46174601
:100E2000002407E036F814102846FFF7D4FFAD1C65
:100E3000601C84B2BC42F5DBBDE8F08130B50346EE
:100E40000C461546002207E01846FFF7E1FF24F89C
:100E500012009B1C501C82B2AA42F5DB30BD2DE96A
:100E6000F05F80468A461746B8F1006F02D33A48D1
:100E7000804501D3BDE8F09FFFF754FFA8F1006B58
:100E80004FEA9B25CBF34809C9F50074A74200DC63
:100E90003C464DE04FF0006101EB85208A142F495C
:100EA000FFF7CCFF00260BE009EB06002B4931F8D9
:100EB0001000A0F57F41FF3900D003E0701C86B21E
:100EC000A642F1DB00BFA6421BDA4FF0006101EB46
:100ED0008520FFF75CFF002608E03AF8160006EBD5
:100EE00009011E4A22F81100701C86B2A642F4DBEA
:100EF0004FF0006101EB85208A141849FFF78BFF42
:100F000004E0224651464046FFF785FFA74200D144
:100F10000FE06D1C4FF000090AEB440AA044381B97
:100F200087B2B7F5007F02DD4FF4007400E03C4665
:100F3000B0E700BFFFF7FCFE00BF9BE713B5044618
:100F4000012201A92046FFF78AFF1CBD2301674546
:100F500000200240AB89EFCD00000108AC0000206A
:100F600010B50121734801F0B4FE00283ED072484C
:100F70000068401C70490860084600683B2802D1A0
:100F800001206E4908606C4800683C2804D10020AC
:100F90006A490860684908606948007800EB800089
:100FA0004FEA40604FEA1060664908706448008864
:100FB00000EB8000C0F3D710487063480078887059
:100FC00062480078C8706248007808715C48006820
:100FD000052801DC002000E0A5205A49C877084612
:100FE000FFF7CDFD0121534801F084FE10BD10B57F
:100FF0000121584801F06DFE002828D056480068AD
:10100000401C5549086008460068C8281BD10020CC
:10101000086052A002F078F85AA002F075F848482B
:1010200001685FA002F070F84748016861A002F013
:101030006BF84648016864A002F066F8444801680D
:1010400066A002F061F80121424801F053FE10BD94
:101050003EB505460C460121042000F0E6FE354869
:1010600000F03EFFA0B2ADF80400681E80B2ADF8FB
:1010700000000020ADF80600ADF8020069462D48DA
:1010800001F002F801212B4801F020FE0122114657
:10109000284801F070FB0121264801F051FB3EBDBC
:1010A0003EB505460C460121022000F0BEFE29484F
:1010B00000F016FFA0B2ADF80400681E80B2ADF8D3
:1010C00000000020ADF80600ADF802006946214896
:1010D00000F0DAFF01211F4801F0F8FD012211465E
:1010E0001C4801F048FB01211A4801F029FB3EBDD4
:1010F00008B54FF4A06000F0B7FC1D208DF800008B
:1011000002208DF8010000208DF8020001208DF8EA
:101110000300684600F0ADFC1E208DF800000120A1
:101120008DF801008DF802008DF80300684600F08C
:10113000A0FC08BD0008004044000020B00121428E
:10114000300000206C000020380000203400002017
:101150003C00002000040040480000202043726151
:101160007A65706F6E792D4949B1A8B8E6A3BACFF8
:10117000B5CDB3D5FDD4DAD4CBD0D02E2E2E0D0ADA
:10118000000000000D0A2D2D2D3ED2A3BFD8CAB5F8
:10119000CAB1B8CBC1BF3C2D2D2D0D0A00000000F7
:1011A000D3CDC3C5B5B1C7B0D6B52D2D2D3E2025A5
:1011B000640D0A00B8A9D1F6B5B1C7B0D6B52D2DCA
:1011C0002D3E2025640D0A00BAE1B9F6B5B1C7B0CD
:1011D000D6B52D2D2D3E2025640D0A00C6ABBABD17
:1011E000B5B1C7B0D6B52D2D2D3E2025640D0A0012
:1011F000014600BF704700BF884A128812F0400FB6
:10120000FAD0C2B2854B1B1D1A80704708B5252045
:101210008DF8000000208DF801008DF802000120FB
:101220008DF80300684600F024FC08BD2DE9F05F4E
:1012300005460E46300102F055FE8146784905FB11
:1012400001F002F04FFE8246494602F04DFD07468E
:10125000384602F027FE84B2204602F043FE834661
:10126000394602F01FFF82464FF0834102F04EFEE6
:10127000814602F017FE80464FF6FF7000EA041424
:1012800004EB080084B26748806940F004006549B7
:1012900088610846806940F480408861624800683F
:1012A00020F47F60604908600846006840F40B60E5
:1012B00008605C48C06840F480405A49C8600846ED
:1012C000C06820F48040C860544808300480001D85
:1012D000008842F20C01084350490C31088008464E
:1012E000008840F4807008800846008840F02000A4
:1012F0000880FFF78BFF00204C49088048801F20A2
:1013000088804B48886000204A49088048807F20B8
:10131000888049488860294648A001F0F5FE31469A
:101320004CA001F0F1FEBDE8F09F028883881A40CE
:10133000836899540288521C0280704710B5044695
:1013400021463A48FFF7F1FF012240F22771334866
:1013500001F0AFFD10BD10B5044621463348FFF73C
:10136000E4FF012240F227712C4801F0A2FD204643
:1013700010BD01464A888B881A408B68985C4A8861
:10138000521C4A807047014608884A88801A8A8819
:101390001040704710B540F22771204801F06EFEF2
:1013A00090B12248FFF7E5FF044621461B4801F0B3
:1013B000E1FD1E48FFF7E7FF70BB002240F22771F6
:1013C000164801F076FD27E040F22551134801F060
:1013D00055FE08B3114801F0D1FD254908700846B3
:1013E00001781448FFF7A1FF1248FFF7CCFF18B9A6
:1013F00045210A4801F0BEFD0E48FFF7C4FF0D4924
:101400008988884203D14621044801F0B3FD40F2A7
:101410002551024801F05CFE10BD0000003801407B
:1014200040420F000010024004080140AC040020BC
:1014300044050020B8040020C4040020CFB5CDB37B
:10144000CAB1D6D3C6B5C2CAA3BA25644D487A205C
:101450000D0A0000B4AEBFDA31B3F5CABCBBAFB2FF
:10146000A8CCD8C2CAA3BA2564200D0A0000000087
:1014700050000020092000F0C2F900F0BAF94FF442
:10148000E13133480078FFF7D1FEFFF74BFCFFF75F
:1014900067FAFEF781FFFFF707FBFFF7EAFB4FF460
:1014A0007A712B480078FFF7D3FD41F28831284844
:1014B0000078FFF7F5FDFFF7FFF9A52025498877AC
:1014C000FFF7A0F802E0A520FFF79CF8224800688B
:1014D0000528F8DC214800680528F4DC00201D49B7
:1014E0000877A520C876C87700201D4908601D49E7
:1014F000C1F890011C49086001F10401086001F184
:101500000401086023E0A520FFF77CF8FFF70CFA40
:10151000122803D101201549086002E00020134978
:101520000860FFF701FA132803D101200E49086073
:1015300002E000200C490860FFF7F6F9142803D1F7
:1015400001200B49086002E0002009490860DAE741
:10155000560000206C0000203000002034000020E5
:10156000B001214200802142948121429081214298
:10157000988121424FF0E021096921F004014FF0E8
:10158000E0221161C21700EB5272D210254B1A7083
:101590001946097801EB4102C2EBC1114FF6FF7207
:1015A00002EAC101204A1180704701461E4A128892
:1015B0004A434FF0E0235A6100229A6101221A61E6
:1015C00000BF4FF0E022106910F0010F02D010F4BC
:1015D000803FF6D000224FF0E0231A619A617047F5
:1015E0000146104A12784A434FF0E0235A61002224
:1015F0009A6101221A6100BF4FF0E022106910F0D9
:10160000010F02D010F4803FF6D000224FF0E0230B
:101610001A619A617047002100E0491C8142FCD3A5
:10162000704700005200002054000020AF4A0A40DA
:101630000243AF4B1A6070470146072323EA0102B9
:101640001202AB4B1B1D18684FF6FF031840A94B45
:1016500018431043A64B1B1D186070472DE9F0433B
:1016600006460F4614461D462046E11704EB9171CD
:101670008910A4EB810101F0FF09042000EBC900EF
:1016800000F0FF092846FFF7D7FFC5F1040006FA6E
:1016900000F80F202841384040EA080808F00F08F9
:1016A000202C0CDA944800684FF0010101FA04F193
:1016B00040EA01004FF0E021C1F800010DE08F4841
:1016C0000068A4F120014FF0010202FA01F240EAA1
:1016D00002004FF0E021C1F80401BDE8F08370B5CD
:1016E00004460B46CE1701EB9676B010CE1701EBF1
:1016F0009676B610A1EB8606B606350E804B9B6932
:1017000043F001037E4EB3614FEAB63353F8203005
:101710000F26AE40B3437B4E46F82030334653F895
:10172000203004FA05F63343764E46F82030764BE7
:101730001E6801238B401E43734B1E6012F0010F85
:1017400008D0714B0C331B6801268E4033436E4E1C
:101750000C36336012F0020F08D06B4B08331B6855
:1017600001268E403343684E0836336070BD00203A
:1017700063490861C8601420486100208861C8611D
:101780000846006840F001000860084640685F496C
:1017900008405B494860084600685D490840584970
:1017A00008600846006820F4802008600846406809
:1017B00020F4FE0048600020886070474D48001DFE
:1017C0004B49091D08607047014649064C4A926919
:1017D00042F001024A4B9A614A4A083A526822F0A2
:1017E000E062484B083B5A601A4652680A435A6006
:1017F000704710B5FFF77CFCFFF708FD10BD0146F0
:101800003F48006840F001003D4A106000BF3C487E
:10181000006810F0020FFAD039484268881E42EA88
:101820008040374A5060104640685060104600685B
:1018300040F08070106000BF3148006810F0007FF9
:10184000FAD02F48406840F002002D4A50608806C8
:10185000000E304A107010460078704700B50246FE
:101860000023FFF784FF2648006840F480302449B5
:10187000086000BF22480068400CFBD04FF4806035
:101880001F494860901EC2B20846406840EA824044
:1018900048600846406840F4803048601E48006850
:1018A00040F032001C4908601548006840F0807024
:1018B0001349086000BF12480068400EFBD0104872
:1018C000406840F002000E49486005E00C4840685E
:1018D000C0F3870303F00303022BF7D1901CC0066B
:1018E000000E0C4908700846007800BD80FFFF1FFD
:1018F00008ED00E00000FA0500E100E004E100E08E
:101900000010024008000140000401400000FFF800
:10191000FFFFF6FE56000020002002400246002194
:1019200005E0481CC1B2C82901DD002070474A48C3
:10193000008910F0020FF4D047488281002105E0B1
:10194000481CC1B2C82901DD0020EFE742480089E8
:1019500010F0010FF4D040488089C0B2E6E700B52E
:101960003E48806940F004003C498861084680692F
:1019700040F4805088613A480068C0F31300384949
:10198000086008460068374908433549086034480C
:101990000C30006840F0E00031490C3108602E48FE
:1019A00000882D4908800846008840F400700880AF
:1019B0000846008840F4807008800846008840F09F
:1019C000040008800846008808800846008840F027
:1019D000020008800846008840F0010008800846A0
:1019E000008840F0180008800846008808800846F3
:1019F000008840F040000880FF20FFF78FFF00BD07
:101A0000154909884FF6C7721140134A118018B959
:101A100011460988118017E0022806D10E4909886D
:101A200041F010010C4A11800EE0032806D10A494A
:101A3000098841F01801084A118005E00649098823
:101A400041F03801044A11800349098841F04001FE
:101A5000014A118070470000003001400010024030
:101A6000000801400000B0BB31490143314A116018
:101A7000704770B5002100230F22C4780CB32D4CA1
:101A8000246804F4E064C4F5E064210AC1F10403AD
:101A9000CA40447804FA03F18478144021430901D0
:101AA000254C0678A155047804F01F050124AC40AC
:101AB00005786D114FF0E02606EB8505C5F800416D
:101AC00009E0047804F01F050124AC401B4D0678A2
:101AD000761145F8264070BD194A0A400243154B5D
:101AE0001B1F1A60704739B1124A121D1268024357
:101AF000104B1B1D1A6006E00E4A121D126882432D
:101B00000C4B1B1D1A607047042808D14FF0E021D0
:101B1000096941F004014FF0E022116107E04FF044
:101B2000E021096921F004014FF0E02211617047C2
:101B30000000FA050CED00E000E400E080E100E0C8
:101B400080FFFF1FDB48006840F00100D9490860B2
:101B500008464068D8490840D649486008460068A9
:101B6000D6490840D34908600846006820F4802020
:101B700008600846406820F4FE0048604FF41F00EB
:101B800088607047CB49096821F48031C94A1160E7
:101B90001146096821F480211160B0F5803F03D01F
:101BA000B0F5802F0ED106E0C249096841F48031BA
:101BB000C04A116007E0BF49096841F4A021BD4A4D
:101BC000116000E000BF00BF704710B50146002261
:101BD000002300204A11012A02D1B64C236806E0F6
:101BE000022A02D1B34C236A01E0B24C636A01F0CD
:101BF0001F02012494401C4201D0012000E000207B
:101C000010BD70B500240025002600BF3120FFF76D
:101C1000DCFF0646641CB4F5A06F01D0002EF5D0A1
:101C20003120FFF7D2FF08B1012500E0002528464A
:101C300070BD014600209F4A106820F0F80040EA7D
:101C4000C100106070479E4908607047024600203E
:101C5000984B586820F47C1042EA01031843954BD6
:101C60005860704796490866704701460020914ABF
:101C7000506820F003000843506070478D4840686A
:101C800000F00C007047014600208A4A506820F09E
:101C9000F00008435060704701460020854A5068B4
:101CA00020F4E06008435060704701460020814AFC
:101CB000506820F4605040EAC1005060704729B17C
:101CC0007C4A527A02437B4B5A7204E0794A527A38
:101CD0008243784B5A7270477A49086070470146D0
:101CE0000020744A506820F4404008435060704718
:101CF0000021754A11706F4A82F82010012802D025
:101D0000042808D103E001216F4A117004E0052185
:101D10006D4A117000E000BF00BF70476B4908605A
:101D200070476449096A0143624A11627047674912
:101D300044390860704730B5002100220024002398
:101D40005C4D6D6805F00C0121B1042905D008290E
:101D500023D105E05E4D056022E05D4D05601FE08A
:101D6000544D6D6805F47012524D6D6805F4803461
:101D7000022505EB92421CB9564D554305600BE018
:101D80004C4D6D6815F4003F03D0524D554305602E
:101D900002E04F4D5543056002E04D4D056000BF28
:101DA00000BF444D6D6805F0F00109094A4D6B5CB8
:101DB0000568DD4045603F4D6D6805F4E061090A46
:101DC000454D6B5C4568DD4085603A4D6D6805F4B6
:101DD0006051C90A404D6B5C4568DD40C560354DBA
:101DE0006D6805F44041890B3C4D6B5CC568B5FBE3
:101DF000F3F5056130BD29B12E4A526902432D4BDE
:101E00005A6104E02B4A526982432A4B5A61704757
:101E100029B1284A92690243264B9A6104E0254A77
:101E200092698243234B9A61704729B1214AD26952
:101E30000243204BDA6104E01E4AD26982431D4B03
:101E4000DA61704729B11B4AD2680243194BDA6044
:101E500004E0184AD2688243164BDA60704729B111
:101E6000144A12690243134B1A6104E0114A1269C1
:101E70008243104B1A61704714494039086070471B
:101E80000F49C86470470B49C87170470948406AD8
:101E900040F0807007494862704701460020054ABB
:101EA00092680A4201D0012000E0002070470149F9
:101EB00088727047001002400000FFF8FFFFF6FE36
:101EC00000004242D80042422010024080044242B8
:101ED00000127A0000093D00570000206700002032
:101EE00010B50446FE48844208D10121C014FFF712
:101EF000A9FF0021E014FFF7A5FFC4E0B4F1804F73
:101F000008D101210846FFF7AAFF00210120FFF7B1
:101F1000A6FFB8E0F348844208D101210220FFF770
:101F20009EFF00210220FFF79AFFACE0EE488442BA
:101F300008D101210420FFF792FF00210420FFF7C0
:101F40008EFFA0E0E948844208D101210820FFF774
:101F500086FF00210820FFF782FF94E0E4488442D6
:101F600008D101211020FFF77AFF00211020FFF790
:101F700076FF88E0DF48844208D101212020FFF766
:101F80006EFF00212020FFF76AFF7CE0DA488442E0
:101F900008D101214014FFF755FF00216014FFF71D
:101FA00051FF70E0D548844209D10121C804FFF7F0
:101FB00049FF00214FF40020FFF744FF63E0D048C1
:101FC000844209D101210805FFF73CFF00214FF4AD
:101FD0008010FFF737FF56E0CA48844209D101213B
:101FE0004805FFF72FFF00214FF40010FFF72AFFED
:101FF00049E0C548844208D101214020FFF72FFF66
:1020000000214020FFF72BFF3DE0C048844208D16B
:1020100001218020FFF723FF00218020FFF71FFF11
:1020200031E0BB48844208D101218015FFF717FF3A
:102030000021A015FFF713FF25E0B648844209D11F
:1020400001210804FFF7FEFE00214FF48030FFF766
:10205000F9FE18E0B048844209D101214804FFF795
:10206000F1FE00214FF40030FFF7ECFE0BE0AB482F
:10207000844208D101218804FFF7E4FE00214FF4D7
:102080008020FFF7DFFE10BD00220288944B9842AB
:102090000ED0994B98420BD0B0F1804F08D0914BA5
:1020A000984205D0904B984202D0904B984204D170
:1020B0004FF68F731A404B881A438D4B984207D0C6
:1020C0008C4B984204D04FF6FF431A40CB881A43FA
:1020D00002808B8883850B880385814B98420BD0C7
:1020E000854B984208D08B4B984205D08A4B98423A
:1020F00002D08A4B984201D10B7A03860123838256
:10210000704770B5002400220023058C4FF6FE7640
:1021100035400584028C8388048B4FF68F752C40E4
:10212000B51E2C400D882C43751E2A400D892A436C
:102130004D882A436A4DA8420BD06F4DA84208D063
:10214000744DA84205D0744DA84202D0734DA842E8
:1021500013D14FF6F7752A404D892A434FF6FB7588
:102160002A408D882A434FF6FF652B404FF6FF55D6
:102170002B408D892B43CD892B4383800483CD88CD
:102180008586028470BD70B5002400220023058C72
:102190004FF6EF7635400584028C8388048B48F631
:1021A000FF752C404FF6FF452C400D884FF6FF760B
:1021B00006EA05252C434FF6DF752A400D8906EA0D
:1021C00005152A434D8806EA05152A43444DA842C1
:1021D00002D0494DA8421DD14FF67F752A404D8946
:1021E0004FF6FF7606EA05152A434FF6BF752A40DB
:1021F0008D8806EA05152A434FF6FF352B404FF22E
:10220000FF752B408D8906EA85052B43CD8906EAAB
:1022100085052B4383800483CD880587028470BDA8
:1022200070B5002400220023058C4FF6FF66354070
:102230000584028C8388848B4FF68F752C404FF673
:10224000FC752C400D882C434FF6FF552A400D8914
:102250004FF6FF7606EA05252A434D8806EA05254E
:102260002A431F4DA84202D0234DA8421DD14FF250
:10227000FF752A404D894FF6FF7606EA05252A4369
:102280004FF6FF352A408D8806EA05252A434EF68B
:10229000FF752B404DF6FF752B408D8906EA05151D
:1022A0002B43CD8906EA05152B4383808483CD8893
:1022B0008587028470BD70B5002200230024058C40
:1022C0004EF6FF7635400584038C8488828B48F671
:1022D000FF752A404FF6FF452A400D8820E0000098
:1022E000002C01400004004000080040000C0040A9
:1022F000001000400014004000340140004C014038
:10230000005001400054014000180040001C0040F3
:1023100000200040004001400044014000480140CE
:102320004FF6FF7606EA05252A434DF6FF752B404A
:102330000D8906EA05352B434D8806EA05352B4302
:10234000FA4DA84202D0FA4DA84208D14BF6FF75CB
:102350002C408D894FF6FF7606EA85152C43848044
:102360008283CD88A0F84050038470BD828B4FF2E9
:10237000FF331A408283828B4FF6FF7303EA0123F7
:102380001A4382837047F0B50C461546002200219F
:102390000026078C4EF6FF7C07EA0C070784828B29
:1023A000018C4FF6FF7707EA043640F6FF473A40C4
:1023B0004FF6FF7707EA05273A434FF6FF7707EA1C
:1023C00003373A43D94FB8420ED0D94FB8420BD059
:1023D000B0F1804F08D0D74FB84205D0D64FB842A1
:1023E00002D0D64FB84206D14DF6FF77394046F4B9
:1023F0008057394305E047F6FF57394044F480578A
:10240000394382830184F0BD828B4FF6F3731A4007
:102410008283828B0A4382837047F0B50C4615464F
:10242000002200210026078C4FF6FF6C07EA0C07FC
:102430000784828B018C4FF6FF7707EA04264FF65C
:102440000C773A404FF6FF7707EA03172F433A43DA
:10245000B64FB8420ED0B64FB8420BD0B0F1804F55
:1024600008D0B44FB84205D0B34FB84202D0B34FF2
:10247000B84206D14FF6FF57394046F480773943CA
:1024800005E04FF2FF57394044F4807739438283A7
:102490000184F0BD028B4FF2FF331A400283028B9E
:1024A0004FF6FF7303EA01231A4302837047F0B526
:1024B0000C461546002200210026078C4FF6EF7CC3
:1024C00007EA0C070784028B018C4FF6FF7707EAB7
:1024D000041640F6FF473A404FF6FF7707EA033706
:1024E0003A434FF6FF7707EA05273A438F4FB84242
:1024F0000ED08F4FB8420BD0B0F1804F08D08D4F27
:10250000B84205D08C4FB84202D08C4FB84206D1A9
:102510004FF6DF77394046F01007394305E04FF6B4
:102520005F77394044F01007394302830184F0BDDE
:10253000028B4FF6F3731A400283028B0A43028325
:102540007047F0B50C46154600220021068C4FF668
:10255000FE773E400684028B018C4FF60C763240AB
:102560007E1C06EA03162E433243704EB0420ED054
:102570006F4EB0420BD0B0F1804F08D06D4EB042DC
:1025800005D06D4EB04202D06C4EB04206D14FF62F
:10259000FD76314044F00106314305E04FF6F57613
:1025A000314044F00106314302830184F0BD70B52F
:1025B00005460C465D4885420ED05D4885420BD0ED
:1025C000B5F1804F08D05B48854205D05A48854216
:1025D00002D05A48854200D100E000BF208850B99F
:1025E0002389A28861882846FFF7ABFFE188284647
:1025F000FFF79EFF25E0208804280AD12389A288BE
:1026000061882846FFF753FFE1882846FFF742FF1D
:1026100017E0208808280AD12389A28861882846E3
:10262000FFF7FBFEE1882846FFF7EEFE09E023896D
:10263000A28861882846FFF7A6FEE1882846FFF7B2
:1026400095FE70BD2DE9F04105460C460026012798
:10265000608808B9022600E00026A088012801D180
:10266000022700E001272088A0B92389A288618879
:102670002846FFF766FFE1882846FFF759FF2389C0
:102680003A4631462846FFF712FFE1882846FFF711
:1026900001FF13E02389A28861882846FFF707FF1E
:1026A000E1882846FFF7F6FE23893A463146284658
:1026B000FFF747FFE1882846FFF73AFFBDE8F081C2
:1026C0000A884B881A438B881A43CB881A430B8994
:1026D0001A434B891A438B891A43A0F84420704748
:1026E0004FF6FF71818000210180C180418001721D
:1026F00070470021018041808180C180018141813A
:102700008181C18170470021018041800121818048
:102710000021C180018170470021018041808180BA
:10272000C18001814181818170470000002C0140FE
:10273000003401400004004000080040000C00404C
:1027400021B1028842F00102028004E002884FF6C3
:10275000FE731A400280704731B1B0F8442042F451
:102760000042A0F8442005E0B0F84420C2F30E0275
:10277000A0F8442070471AB183890B43838102E09B
:1027800083898B43838170478182704741EA0203CA
:10279000A0F8483070471AB183890B43838102E067
:1027A00083898B438381704701894FF6F87211400A
:1027B000018170470A46002101894FF68F73194045
:1027C00011430181704730B504460D462946204625
:1027D000FFF7F0FF208940F00700208130BD2DE990
:1027E000F04104460D4616461F46602D06D13B4675
:1027F000012231462046FFF75AFE05E03B46012202
:1028000031462046FFF79DFE29462046FFF7D2FFBE
:10281000208940F007002081BDE8F08130B50C46EA
:1028200000210189C9B24FF6FF7505EA032515435A
:1028300025432943018130BD2DE9F04105460E466F
:1028400017469846002443463A4631462846FFF745
:10285000E5FF2C894FF6F870044044F007044FF66A
:102860008F70044044F070042C81BDE8F081F0B515
:1028700004460D4616461F463B463246294620462C
:10288000FFF7CCFF208940F480402081F0BD018516
:10289000828270470A46002101884FF68F731940E3
:1028A000114301807047F0B50C4615461E460021C5
:1028B000002200230189028B038C4FF6F877394000
:1028C00021434FF6FC473A4040F201173A434FF696
:1028D000DD773B404FF6FF7707EA06172F433B4370
:1028E000018102830384F0BD0A460021018B4FF66B
:1028F0008F7319401143018370470A460021018BF1
:1029000048F6FF7319404FF6FF7303EA0223194399
:10291000018370470A460021818B4FF68F7319405F
:102920001143818370470A460021818B48F6FF736B
:1029300019404FF6FF7303EA02231943818370475E
:1029400021B1028842F08002028004E002884FF642
:102950007F731A400280704721B1828842F00402DE
:10296000828004E082884FF6FB731A4082807047B1
:1029700021B1828842F00802828004E082884FF60A
:10298000F7731A408280704721B1828842F00102B9
:10299000828004E082884FF6FE731A40828070477E
:1029A0000A460021018B4FF6F7731940114301834A
:1029B00070470A460021018B4FF2FF7319404FF612
:1029C000FF7303EA02231943018370470A4600217B
:1029D000818B4FF6F77319401143818370470A4684
:1029E0000021818B4FF2FF7319404FF6FF7303EA0A
:1029F00002231943818370470A460021018B4FF659
:102A0000FB7319401143018370470A460021018B73
:102A10004FF6FF3319404FF6FF7303EA02231943C1
:102A2000018370470A460021818B4FF6FB731940E2
:102A30001143818370470A460021818B4FF6FF3393
:102A400019404FF6FF7303EA02231943818370474D
:102A50000A460021018B4FF67F7319401143018311
:102A600070470A460021018BC1F30E014FF6FF7338
:102A700003EA02231943018370470A460021818B30
:102A80004FF67F7319401143818370470A46002136
:102A9000818BC1F30E014FF6FF7303EA0223194342
:102AA000818370470A460021018C4FF6FD7319405F
:102AB0001143018470470A460021018C4FF6F773D9
:102AC00019401143018470470A460021018C4FF6DA
:102AD000DF7319404FF6FF7303EA021319430184B1
:102AE00070470A460021018C4FF67F7319404FF65C
:102AF000FF7303EA02131943018470470A46002159
:102B0000018C4FF6FF5319404FF6FF7303EA02237F
:102B10001943018470470A460021018C4FF2FF736C
:102B200019404FF6FF7303EA0223194301847047EB
:102B30000A460021018C4DF6FF7319404FF6FF73D2
:102B400003EA023319430184704730B5002301249E
:102B50008C40A3B2048C9C430484048C02FA01F5DB
:102B6000ADB22C43048430BD30B5002304248C4026
:102B7000A3B2048C9C430484048C02FA01F5ADB228
:102B80002C43048430BD70B5034600200024184651
:102B9000183001258D40ACB21D8CA5431D8409B1B0
:102BA000082909D100EB6100056825F07005056072
:102BB0000568154305600EE00D1FC5F34E0528445A
:102BC000056825F4E045056005684FF6FF7606EADE
:102BD00002263543056070BD21B1028842F0020231
:102BE000028004E002884FF6FD731A4002807047AD
:102BF00021B1028842F00402028004E002884FF60C
:102C0000FB731A400280704721B1828842F0800233
:102C1000828004E082884FF67F731A40828070477A
:102C200002884FF6F7731A40028002880A43028036
:102C3000704782884FF68F731A40828082880A43D9
:102C40008280704702894FF6F8731A400281028928
:102C50000A430281704702894FF67F731A4002814E
:102C600002890A43028170478184704781857047D9
:102C7000818670470187704781877047A0F84010B0
:102C8000704702884FF6FF431A40028002880A43C9
:102C9000028070470146888E70470146088F704752
:102CA0000146888F70470146B1F8400070470146E1
:102CB000888C70470146088D704702460020138AB1
:102CC0000B4201D0012000E000207047CA4302827D
:102CD000704730B50246002000230024158A05EA1B
:102CE0000103958905EA010413B10CB1012000E04C
:102CF000002030BDCA4302827047000010B5044670
:102D0000FB48844209D101218803FFF79BF8002189
:102D10004FF48040FFF796F832E0F648844209D13C
:102D200001214804FFF79BF800214FF40030FFF722
:102D300096F825E0F048844209D101218804FFF784
:102D40008EF800214FF48020FFF789F818E0EB4857
:102D5000844209D10121C804FFF781F800214FF412
:102D60000020FFF77CF80BE0E548844208D1012100
:102D70000805FFF774F800214FF48010FFF76FF893
:102D800010BD2DE9F04786B005460E460024A24648
:102D900000BFA1460027B08900B100BF2F462C8A92
:102DA0004CF6FF700440F08804432C82AC894EF648
:102DB000F3100440B0883189084371890843044303
:102DC000AC81AC8A4FF6FF400440B0890443AC822A
:102DD00001A8FEF7B0FFC648874202D1DDF810A077
:102DE00001E0DDF80CA0A88910F4004F08D00AEB30
:102DF000CA0000EB0A1031684900B0FBF1F807E0A7
:102E00000AEBCA0000EB0A1031688900B0FBF1F848
:102E10006420B8FBF0F004012009642101FB108953
:102E2000A88910F4004F08D0322000EBC900B0FB95
:102E3000F1F000F00700044308E0322000EB091035
:102E40006421B0FBF1F000F00F0004432C8106B0C8
:102E5000BDE8F0874FF41651016000218180C180E8
:102E600001810C21418100218181704710B502460A
:102E70000020108A4FF2FF0318400B884C88234330
:102E80008C882343CC8823431843108210BD002133
:102E9000018041808180C180704721B1828942F4E4
:102EA0000052828104E082894DF6FF731A408281CC
:102EB0007047F0B503460024002600250020A1F548
:102EC00010676A3F00D100BF1846C1F3421401F0F9
:102ED0001F06012707FA06F5012C01D10C3004E08A
:102EE000022C01D1103000E014301AB107682F43D2
:102EF000076002E00768AF430760F0BD1AB1838A3C
:102F00000B43838202E0838A8B4383827047028A69
:102F10004FF6F0731A400282028A0A430282704717
:102F200082894FF2FF731A40828182890A4382812B
:102F3000704721B1828942F00202828104E08289D5
:102F40004FF6FD731A4082817047028A4FF6DF7395
:102F50001A400282028A0A430282704721B1028A21
:102F600042F48042028204E0028A4BF6FF731A4068
:102F700002827047C1F30802828070470146888848
:102F8000C0F308007047818941F0010181817047D9
:102F9000028BD2B20283028B42EA01220283704783
:102FA000028B02F47F420283028B0A430283704742
:102FB00021B1828A42F02002828204E0828A4FF6A6
:102FC000DF731A408282704721B1828A42F0100278
:102FD000828204E0828A4FF6EF731A408282704741
:102FE00021B1828A42F00802828204E0828A4FF68E
:102FF000F7731A408282704721B1828942F40042FD
:10300000828103E08289C2F30E028281704721B17E
:10301000828A42F40062828204E0828A4FF2FF7365
:103020001A4082827047828A4FF6FB731A4082826E
:10303000828A0A438282704721B1828A42F0020268
:10304000828204E0828A4FF6FD731A4082827047C2
:1030500002460020B1F5007F00D100BF13880B426B
:1030600001D0012000E00020704701F40072B2F5A9
:10307000007F00D100BFCA430280704770B502468E
:103080000024002300250020A1F510666A3E00D12F
:1030900000BFC1F3421501F01F03012606FA03F336
:1030A000012D02D19689334006E0022D02D1168A05
:1030B000334001E0968A33400C12012606FA04F4EC
:1030C0001688344013B10CB1012000E0002070BD1F
:1030D00010B500220023A1F510646A3C00D100BFA6
:1030E0000A1201249440A3B2DC43048010BD000006
:1030F000003801400044004000480040004C0040BF
:1031000000500040704700000FB4044910B503AAF6
:10311000029800F0D7F810BC5DF814FB4C000020BA
:103120002DE9F04104460E46002020622046E16869
:10313000884738B3252806D0D4E901219047206A72
:10314000401C2062F2E7E16820460027884705001E
:1031500018D0A5F14100192802D820354FF4006796
:103160003246294620462760FCF7FAFF40B1012885
:1031700004D0F61D26F007060836D7E7361DD5E73A
:103180002846D9E7206ABDE8F08100002DE9F0412A
:103190000646002410687529314616A511D0AFF3F4
:1031A0000080002803DAC0F1000013A507E03168B1
:1031B0008A0701D511A502E0490704D510A501240D
:1031C00001E0AFF3008000210A2306F1240707E0A5
:1031D000B0FBF3F203FB1200303078541046491C68
:1031E0000028F5D123462A463046BDE8F04100F0DC
:1031F0000DB80000000000002D0000002B000000B2
:103200002000000070477047704770472DE9F04775
:103210000D4699469246044600F124080168880646
:1032200004D5E06921F01001216000E00120A842EE
:1032300002DDA0EB050700E00027A16907EB05020E
:1032400002EB0900A1EB0000A0612078C00602D4C7
:103250002046AFF30080002608E0D4E901211AF8E7
:1032600006009047206A401C761C20624E45F4DB25
:103270002078C0060AD52046AFF3008006E0D4E9E6
:10328000012130209047206A401C2062381EA7F19F
:103290000107F4DC07E0D4E9012118F805009047A4
:1032A000206A401C2062281EA5F10105F3DC20469F
:1032B000AFF300802078000602D50220BDE8F08739
:1032C0000120FBE7074B70B50D467B4400F011F879
:1032D0000446284600F020F810B14FF0FF3070BDD2
:1032E000204670BD29DFFFFF01694A1C0261087892
:1032F000704700B58FB0CDE9013100210591054936
:103300007944CDE9031011466846FFF709FF0FB075
:1033100000BD0000E5FFFFFF007B00F0800070476C
:10332000754600F029F8AE4605006946534620F080
:103330000700854618B020B5FDF71CF8BDE8204011
:103340004FF000064FF000074FF000084FF0000B61
:1033500021F00701AC46ACE8C009ACE8C009ACE814
:10336000C009ACE8C0098D4670470446AFF3008041
:103370002046FCF707FF0000004870476405002066
:1033800021F00042A2F16052B2F5801F01F000432B
:1033900028BFD2F17F6C0BD95FEA001C43EAC2025E
:1033A00042EB507018BF704728BF20F001007047F3
:1033B000B2F5801FBCBF184670474FEA410C1CF5A0
:1033C000001F02D2084600F068BE70B500F0B4FAE3
:1033D00000000089FFF7F6BF4FF00040A0F5800025
:1033E0007047000010B591EA030F48BF83F0004317
:1033F00000F10A83841A71EB030C05D2121943EB16
:103400000C03001B61EB0C01DFF824E14FEA1154BF
:10341000A4EB135C1EEA430F18BF9EEA445F73D00F
:1034200023EA0E03DCF1200E21EA045143F4801359
:1034300032D322FA0CFE10EB0E0023FA0CFE41EB05
:103440000E01CCF1200E03FA0EFE10EB0E0051F12E
:103450000001B1F5801FCCF1200E32D201EB0451F6
:1034600012FA0EF2BDE8104058BF7047401C38BF3A
:103470005FEA420218BF7047002814BF20F0010025
:1034800041F100014FEA410313F5001F38BF7047B7
:10349000A1F1C04100F09EBA012A43EB0302ACF156
:1034A000200CDCF11F0E32BF4FF0000E23FA0CF39C
:1034B00010EB030041EB0451B4EB115FD0D0A1EB52
:1034C000045101F5801149085FEA300001EB045115
:1034D0000ED350F1000038BF12FA0EFE08D1BDE83D
:1034E0001040C9E7401C38BF5FEA4202CAD1C3E7B7
:1034F000BDE810404FEA410313F5001F38BF704785
:10350000A1F1C04100F066BA9EEA445F08D011EA1A
:103510005E0FBDE8104004BF01F00041002070477D
:10352000BDE8104070B500F007FA00BF64FBBE3E76
:103530000000E0FF2DE9C04130B4DFF8A0C23CEA52
:10354000111418BF3CEA131400F0EC8081EA030563
:103550001CEA111444EAD57418BF1CEA131500F0D4
:10356000C780A4EB05044FF0004545EAC12145EAB8
:10357000C32341EA505143EA525304F17F74994204
:1035800004F500344FEAC0204FEAC22208BF90423F
:1035900000F09C804FEA13650FF24016765D4FEA0B
:1035A000134506FB05F7C7F1807706FB07F74FEADF
:1035B000D737A7FB03687642C8F58038A7FB06CE4D
:1035C00038BFA8F1010807FB08E64FF0000EA6FB84
:1035D000028CE6FB03CEDCF1000CCEF1004E38BFCE
:1035E000AEF1010EA6FB0C584FF000074FF000059E
:1035F000E6FB0E87A1FB08C6A0FB07CE16EB0E0666
:1036000045F10005E1FB076515F1E04E7EBFA4F52D
:1036100080345FEA46066D4116F1800745F10005EA
:103620004FEA17274FEA066647EA0567A6F1DE4626
:10363000B6F1805F4FEA15251FD9384624F0010CFA
:1036400005EBC471BCF1FE6F01EB0C1102D8F0BCAC
:10365000BDE8008124425CBF01F5801E9EEAC47F64
:1036600002D4F0BCBDE80081244238D4F0BCA1F102
:10367000C041BDE8004100F0ADB94FEAD22242EAB4
:1036800043524FEAD323A7FB02864FEAD02040EAF9
:10369000415007FB03661EEA0E0F4FEAD12105FBDE
:1036A000026658BFA6EB0056B6EB00564FEA520E24
:1036B0004EEAC37E18EB0E0E56EB530EBDD518EB3B
:1036C00002085E417F1C55F10005B6E74FF48015F6
:1036D0004FF000074FF000064FF00008ADE7F0BCD8
:1036E0004FF0000001F1C04101F00041BDE8008150
:1036F00011EA0C1F0CEA131500D00CE013EA0C1FA2
:1037000000F025804FF00000F0BC81EA030101F0D9
:103710000041BDE80081F0BCBDE8004181EA030141
:1037200000F058B9F0BCBDE8004170B500F004F9F4
:10373000097EFC3E00F007B881EA03014FF000006B
:1037400001F00041704781EA030100F043B9F0BC89
:10375000BDE800414FF0000021497047FFFDFBF933
:10376000F7F5F4F2F0EEEDEBE9E8E6E4E3E1E0DEB4
:10377000DDDBDAD8D7D5D4D3D1D0CFCDCCCBCAC826
:10378000C7C6C5C4C2C1C0BFBEBDBCBBBAB9B8B74D
:10379000B6B5B4B3B2B1B0AFAEADACABAAA9A8A840
:1037A000A7A6A5A4A3A3A2A1A09F9F9E9D9C9C9B0E
:1037B0009A999998979796959594939392919190B9
:1037C0008F8F8E8E8D8C8C8B8B8A8989888887874A
:1037D0008685858484838382828181800000FF07BF
:1037E0000000F87FDFF848C170B51CEA111E1EBF4B
:1037F0001CEA13159EEA0C0F95EA0C0F00F06F807F
:1038000081EA030423EA4C134EEAD47E21EA4C11E8
:1038100041F4801143F48013AE44A1FB024CA0FBA1
:103820000365AEF17F7E361955EB0C05A1FB034C09
:103830004CF10003A0FB021C16EB0C06654153F192
:103840000003094218BF46F0010613F4007F0BD1B4
:103850004FEA03314FEA0530340341EA155140EA9B
:1038600016506FF003020AE04FEAC3214FEAC52069
:10387000F40241EA555140EA56506FF0020202EB61
:103880002E4201EB025585EACE710AD05FEA440C64
:1038900018BF24F0004450F1000041F1000120EA7B
:1038A000D47040F2FE7C624500D270BDA84214BFC5
:1038B0004FF080444FF04044002E08BF0024BEF17A
:1038C000806FA8BFA1F1C041BDE8704080F2828046
:1038D0004FF0000001F1C04101F0004170479EEA45
:1038E0000C0F0CEA131518BF95EA0C0F06D04FF019
:1038F000000081EA030E0EF0004170BD00F01CF8DC
:103900008900013E00F007B800F009B84FEA430C07
:103910005FEA5C5C08D081EA030100F05BB84FEA23
:10392000410C5FEA5C5CF6D14FF000000149704742
:103930000000FF070000F87F0EF1020E2EF0030ECC
:103940005EF8046B364205D4012A43EB030515F5F6
:10395000001F12D8012841EB010C1CF5001F0CD8E8
:103960000ED14FEAD17C15F5001F0CEB4C0C0CF17D
:10397000020C08BF4CEBD37C04E04FF0080C01E0D4
:103980004FEAD37C0CEB4C0526FA05F606F0070649
:10399000B6F1040C06D20EEB860CBDE870404CF07C
:1039A000010C6047DFE80CF0090B02024FF0004108
:1039B0004FF00000A1F5002170BD19461046012806
:1039C00051EB010418BFD4F5001484BF002001F0AE
:1039D000004170BD0808A0F500114FEA31017047A1
:1039E00091EA030F10B581F000413FF503AD83F07C
:1039F000004300F009B8000010B591EA030F48BF7A
:103A000083F000433FF5F6AC841A71EB030C07D248
:103A100012198CF0004C43EB0C03001B61EB0C0102
:103A2000DFF8A4E14FEA1154A4EB135C1EEA430F44
:103A300018BF9EEA445F00F0B08023EA6E03524252
:103A400021EA0451C3EB6E0338BF5B1EDCF1200E8C
:103A500025D322FA0CFE10EB0E0043FA0CFE41EBCC
:103A60000E01CCF1200E03FA0EFE10EB0E0051F108
:103A70000001CCF1200E29D412FA0EF201EB045110
:103A8000BDE8104058BF7047401C1CBFB2F1004F4A
:103A9000704700280CBF491C20F00100704712EB52
:103AA000020E43EB030218BF4FF0010E4EEA420232
:103AB000ACF1200CDCF11E0E54D943FA0CFE10EBD5
:103AC0000E0051F1FF31CCF11E0ED5D50EF1010ED5
:103AD00012FA0EFE404141EB010101EB445C5FEA4A
:103AE0005C5C10D910EBDE7001EB045138BFBEF105
:103AF000004FBDE8104018BF704700280CBF491C9C
:103B000020F00100704730D24FEAD42C11F500119B
:103B100024F400641BD0B1FA81F20B3AA41AA41E5B
:103B2000D2F12003914030FA03F31943904001EBA6
:103B3000CC71002C01EB0451BDE81040A8BF7047C8
:103B400001F1C0414FF0000001F000417047B0FAB0
:103B500080F310FA03F100D110BDE41A173C4805B8
:103B6000C90AE4E701EB045110BD491001EB04510F
:103B7000BDE810404FEA300002E04FF0000170470E
:103B80004A0008BF0042F8D0B2F5001F28BF7047B6
:103B900001F000414FF0000070479EEA445F07D0FB
:103BA00011EA5E0FBDE8104004BF002100207047FD
:103BB000BDE8104070B5FFF7BFFE00BF40DFF63E26
:103BC00083F00041104670470000E0FF43004FEAD9
:103BD000D30C4FEA3C0C43401FBF40070CF160512F
:103BE00013F0FE4F70471CF0006F03D100200CF063
:103BF000004170470CF0004343EA507010B540EAB2
:103C0000CC0000F004FA00BF000000924FEA00016F
:103C1000FFF7E0BE4FF000414FF00000A1F500219A
:103C20007047000090EA010F48BF81F0004100F1A9
:103C30004A82421A3CBF801A89184FEAD0524FF08C
:103C40007F4C1CEA410FA2EBD15318BF9CEA026FD4
:103C500000F03B804FF0004C4CEA00204CEA012180
:103C600021FA03FC10EB0C0C1ED202F1FF325FEACA
:103C70001C2040EBC25038BF70471CF07F0F4FEA4A
:103C8000400C18BFBCF17F4F38BF7047C3F1200311
:103C9000994008BF20F00100BCF17F4F38BF70474A
:103CA000A0F1C04000F0F9B94FEA3C00000A40EB37
:103CB000C25028BF1CF0FF0F4FEA400CE6D018BFDF
:103CC000BCF17F4F38BF7047EAE79CEA026F05D02E
:103CD00010EA5C0F08BF00F00040704710B500F01C
:103CE00096F900BF64FBBE3E4FF47F0C1CEAD01275
:103CF0001EBF1CEAD11392EA0C0F93EA0C0F00F0DE
:103D0000858090EA010F48BF42F4807240F4000CB5
:103D100041F400002CF07F4120F07F4000B581424B
:103D2000A2EB03020FF2081CACEB504EC0F10000F6
:103D30009EF800E04FEA4E0E00FB0EFC38BF490033
:103D40004FEA2C1C02F5FA020CFB0EF34FEACE1ED2
:103D50004FEA112C4FEAC1210EEB635E42EB224287
:103D60000EFB0CFC4FEA1C5300FB03114FEA112C15
:103D70004FEA01310EFB0CFC4FEADC4C00FB0C114E
:103D8000C14228BF09184CEB03335DF804EB10EB7C
:103D9000410143EBC250B2F57C0F38BF704729D5C3
:103DA00012F0F00F1CBF00F1C04000F0004070475F
:103DB000008182838485868788898B8C8D8E8F9104
:103DC0009293959697999A9C9D9FA0A2A3A5A7A828
:103DD000AAACAEB0B2B3B5B7B9BCBEC0C2C5C7C954
:103DE000CCCED1D4D7D9DCDFE2E6E9ECF0F3F7FAB8
:103DF000FE0000004FEA400C0CF1807CBCF17E4FCD
:103E000028BF7047B0F1C04000F047B990EA010FF9
:103E10000CEAD11348BF42F48072624538BF634553
:103E200007D213F47F0F16D080EA010000F00040A3
:103E3000704710B500F0EBF8097EFC3E00F005B8C5
:103E400080EA010000F00040704780EA010000F0C5
:103E5000004000F022B912F47F0F04BF02487047FF
:103E600080EA010000F019B90000C07F41000B0E8C
:103E7000D3F19E0208D950F400034FEA032323FA3A
:103E800002F048BF4042704710B500F0C0F800BFD4
:103E900049922480002070476FF0004282EA20009F
:103EA00070470000C10DD1F19E0206DB4FEA0023EE
:103EB00043F0004323FA02F07047004207D54FEA6F
:103EC0004001B1F1FE4F02D24FF00000704710B533
:103ED00000F09DF849922480002070476FEA20008E
:103EE00070470000B0FA80F310FA03F2C3F19D03AB
:103EF0000AD0D90501EB1220530638BF704700F1F4
:103F0000010008BF20F00100704700004FF47F0C53
:103F10001CEAD0121EBF1CEAD11392EA0C0F93EADE
:103F20000C0F00F0478090EA010F48BF42F4807206
:103F30004FF0004C4CEA00204CEA012102EB030256
:103F4000A0FB0113A2F50002002918BF43F00103F2
:103F50005B0028BF4FEA330342EB22425FEA132C97
:103F60004CEBC2502EBFBCEB436FB2F57C0F7047D9
:103F70004FEA036CBCF1004F08BF20F00100B2F51E
:103F80007C0F38BF70470BD582F0FF0212F5803FDF
:103F9000C8BF704700F1C040D8BF00F00040704774
:103FA00000F5000C5FEA4C0C48BF7047B0F1C04010
:103FB00000F073B890EA010F0CEAD11348BF42F445
:103FC0008072624538BF634504D280EA010000F088
:103FD0000040704710B500F01AF800BF8900013E9C
:103FE00000F007B800F009B85FEA410C5FEA1C6C0A
:103FF00008D080EA010000F050B85FEA400C5FEAA8
:104000001C6CF6D14FF00040A0F5800070470EF117
:10401000020E2EF0030E5EF8044B244204D44FEA45
:104020004102B2F17F4F11D84FEA4003B3F17F4F05
:104030000CD80ED14FEAD07CB2F17F4F0CEB4C0C78
:104040000CF1020C08BF4CEBD17C04E04FF0080CE3
:1040500001E04FEAD17C0CEB4C0324FA03F404F0AA
:104060000704B4F1040C06D20EEB840CBDE810403A
:104070004CF0010C6047DFE80CF0070802024FF03B
:104080000040A0F5800010BD0846420018BFD2F1E4
:10409000807288BF00F0004010BDFF2141EAD0507F
:1040A000C005704780F0004090EA010F7FF5C1AD78
:1040B00081F0004100F007B890EA010F48BF81F09D
:1040C00000413FF5B6AD421A04D882F00042A0EBA1
:1040D000020011444FEAD0524FF07F4C1CEA410FCE
:1040E000A2EBD15318BF9CEA026F4AD04FF0004CAC
:1040F0004CEA00204CEA012121FA03FCB0EB0C0C45
:104100000FD412F0FE0F36D05FEA4C001DD500121E
:1041100040EBC25038BF70471CF03F0F18BF7047CC
:104120000BE0A2F101025FEA1C2040EBC25038BF55
:1041300070471CF07F0F18BF7047C3F120039940F0
:1041400014BF401E20F00100704780084FEA122380
:1041500008BF7047B0FA80FCA2EB0C02CCF1280C2F
:1041600060FA0CF093EA122F04BF00EBC2507047C4
:104170004FEAC3707047130A5FEADC1008BF70474C
:10418000F6E79CEA026F04D010EA5C0F08BF00203B
:10419000704710B5FFF73BFF40DFF63E81F000406F
:1041A000704734C310101134C3101011CC410008F3
:1041B000000000206C0000002801000838420008C0
:1041C0006C0000205C0B00004401000800A24A04BF
:1041D00000000000000000000102030406070809B7
:1041E00000000000CFFFFFFFCFFFFFFFD0FFFFFF6A
:1041F0003200000032000000320000000000000029
:1042000000000000000000000000000000000000AE
:10421000000000000000000000000000000000009E
:104220000000000000000001020304010203040674
:0842300007080902040608005A
:040000050800035993
:00000001FF
