:020000040800F2
:10000000F01500209D0300080D2E00080F2E00089B
:10001000132E0008172E00081B2E000800000000F9
:100020000000000000000000000000001F2E00087B
:10003000212E000800000000232E00083F2E00089B
:10004000B7030008B7030008B7030008B7030008A8
:10005000B7030008B7030008B7030008B703000898
:10006000B7030008B7030008B7030008B703000888
:10007000B7030008B7030008B7030008B703000878
:10008000B7030008B7030008B7030008B703000868
:10009000B7030008B7030008B7030008B703000858
:1000A000B7030008B7030008B7030008B703000848
:1000B000B7030008B91200080D120008B7030008C2
:1000C000B7030008B7030008B7030008B703000828
:1000D000B7030008771D0008B7030008B70300083E
:1000E000B7030008B7030008B703000800F002F8E0
:1000F00000F061F80AA090E8000C82448344AAF161
:100100000107DA4501D100F056F8AFF2090EBAE85E
:100110000F0013F0010F18BFFB1A43F0010318473B
:10012000B0D30000D0D300000A444FF0000C10F808
:10013000013B13F0070408BF10F8014B1D1108BF65
:1001400010F8015B641E05D010F8016B641E01F805
:10015000016BF9D113F0080F1EBF10F8014BAD1C55
:100160000C1B09D16D1E58BF01F801CBFAD505E073
:1001700014F8016B01F8016B6D1EF9D59142D6D3CD
:10018000704700000023002400250026103A28BFF5
:1001900078C1FBD8520728BF30C148BF0B607047F9
:1001A000642909F05D87002070471FB50CF08FFEB1
:1001B0001FBD10B510BD0AF0F9F81146FFF7F5FFA5
:1001C00002F0E4FC0AF017F903B4FFF7F2FF03BCF6
:1001D00001F0EAFC00210020674A126842F48032F4
:1001E000654B1A6000BF644A126802F40030491C73
:1001F00010B9B1F5A06FF6D15F4A126812F4003F52
:1002000001D0012000E00020012842D15B4A1268A1
:1002100042F01002594B1A601A46126822F003028B
:100220001A601A46126842F002021A60524A526874
:10023000514B5A601A4652685A601A46526842F444
:1002400080625A601A46526822F47C125A601A463A
:10025000526842F4E8125A601A46126842F08072FC
:100260001A6000BF444A126812F0007FFAD0424A76
:10027000526822F00302404B5A601A46526842F01C
:1002800002025A6000BF3C4A526802F00C02082A7F
:10029000F9D1704710B5FFF79DFF10BD10B5364876
:1002A000006840F00100344908600846406834495D
:1002B00008403149486008460068324908402E49E4
:1002C00008600846006820F48020086008464068FE
:1002D00020F4FE0048604FF41F008860FFF7DAFF4B
:1002E0004FF000602849086010BD10B500210020C3
:1002F0000022214B5B6803F00C0121B1042906D0D8
:10030000082928D107E0214B214C236027E01F4B0F
:100310001F4C236023E0184B5B6803F47010164BEE
:100320005B6803F48032022303EB904022B9194B3F
:100330004343174C23600DE00F4B5B6813F4003F01
:1003400004D0144B4343124C236003E00F4B434350
:100350000F4C236003E00D4B0D4C236000BF00BF2A
:10036000054B5B68C3F303130B4CE15C084B1B6844
:10037000CB40074C236010BD00100240002002401B
:100380000000FFF8FFFFF6FE08ED00E000127A0023
:100390000000002000093D000400002009488047BB
:1003A00009480047FEE7FEE7FEE7FEE7FEE7FEE757
:1003B000FEE7FEE7FEE7FEE704480549054A064B6F
:1003C000704700009D020008ED000008F00F0020BB
:1003D000F0150020F0110020F011002010B50446A7
:1003E0004FF0E020006920F004004FF0E0210861A8
:1003F000E11704EB5171C910174A117010460078CB
:100400004FF47A7148431549088015A009F0E6FDBC
:1004100010BD70B5044602F018FD054600BF02F09D
:1004200014FD401B04EB4401C1EBC411B0EBC10F40
:10043000F5D370BD70B5044602F007FD054600BF58
:1004400002F003FD401BA042FAD370BD002100E082
:10045000491C8142FCD37047140000201600002084
:10046000D1D3CAB1BAAFCAFDB3F5CABCBBAFCDEAEE
:10047000B3C92E2E2E0D0A0010B57F48806940F0BA
:1004800004007D4988610846806940F00800886161
:100490000846806940F001008861784800684FF2A2
:1004A000F0018843754908600846006843F230014E
:1004B00008437249086071480C30006840F00A0037
:1004C0006E490C3108606E4800684FF20F01884396
:1004D0006B4908600846006843F203010843684915
:1004E000086067480830006840F009006449083136
:1004F00008606448406840F0007062494860C91470
:100500005F48001F07F0A3F84FF480715C48001F9C
:1005100007F09DF80221594807F099F8082157483B
:1005200007F095F810BD10B557480078C0F30000EB
:1005300030B14FF400615248001F07F086F805E023
:100540004FF400614E48001F07F081F84E480078D4
:10055000C0F3400030B14FF480714948001F07F0EC
:1005600074F805E04FF480714548001F07F06FF8FC
:1005700045480078C0F3800020B102213F4807F0D1
:1005800064F803E002213D4807F061F83E48007836
:10059000C0F3C00020B10821384807F056F803E046
:1005A0000821364807F053F810BD10B537480078D9
:1005B00006285DD2DFE800F003181C3147583348A5
:1005C0004088401C80B231494880032801DB00206C
:1005D00048802E48408818B903202B49087002E053
:1005E00000202949087043E00320274908703FE0B4
:1005F00026484088401C80B224494880032801DBFB
:10060000002048802148408818B90F201E490870F2
:1006100002E000201C4908702AE01C484088401C69
:1006200080B21A494880042801DB0020488017481E
:100630004088022803DA0C201349087002E00320E6
:100640001149087014E011484088401C80B20F49DD
:100650004880042801DB002048800C4841880120A4
:1006600088400949087003E00F200749087000BF5F
:1006700000BFFFF758FF10BD00100240000C014002
:1006800004080140000001401C0000201800002068
:1006900010B52021F94806F0BEFF012800D110BD99
:1006A0000020FCE738B50446032302226B21D0204A
:1006B000009400F03FFD38BD10B5012307226B21E7
:1006C000D02000F06CFD10BD38B504460223042292
:1006D0001B21D020009400F02DFD38BD38B5044614
:1006E000022304221C21D020009400F023FD38BDF9
:1006F00010B50446234606226B21D02000F04FFDA2
:1007000010BD10B5DE4B01227521D02000F0A6FCF3
:10071000DB48007810BD10B5FFF7F3FF682801D162
:10072000012010BD0020FCE710B504462346052239
:100730006A21D02000F033FD10BD10B504462346D9
:1007400001223721D02000F02AFD10BD10B5FFF79F
:10075000E2FF10B1012808D103E0CAA009F03EFC75
:1007600003E0CEA009F03AFC00BF00BF10BD10B5F9
:1007700080226B21D02000F0D3FC3220FFF749FE0D
:1007800000221921D02000F0CBFC03226B21D020C5
:1007900000F0C6FC02223721D02000F0C1FC032269
:1007A0001A21D02000F0BCFC0320FFF78DFF10229F
:1007B0001C21D02000F0B4FC10BD1CB504466B46D3
:1007C00006223B21D02000F049FC9DF801009DF855
:1007D000001040EA012000B220809DF803009DF83F
:1007E000021040EA012000B260809DF805009DF8EB
:1007F000041040EA012000B2A0801CBD1CB50446D4
:100800006B4606224321D02000F028FC9DF8010011
:100810009DF8001040EA012000B220809DF80300FE
:100820009DF8021040EA012000B260809DF80500AA
:100830009DF8041040EA012000B2A0801CBD38B52C
:100840000546002400BF14E035F81400000A8DF8B6
:10085000000035F81400C0B28DF80100062000EB4E
:100860004400C1B26B460222D02000F02BFC601C79
:10087000C4B2032CE8DB38BD38B50546002400BF00
:1008800014E035F81400000A8DF8000035F8140063
:10089000C0B28DF80100132000EB4400C1B26B46DA
:1008A0000222D02000F00EFC601CC4B2032CE8DB56
:1008B00038BD70B504460D46164604F01F040EB14F
:1008C00044F020040DB144F0400422466D21D020B4
:1008D00000F026FC70BD10B5044622466E21D020E3
:1008E00000F01EFC10BD10B5654B01226F21D02019
:1008F00000F0B4FB6248007810BD10B5604B0222D6
:100900001321D02000F0AAFB5D4840785C490978AB
:1009100040EA012000B210BD10B5594B022215214A
:10092000D02000F09BFB564840785549097840EAB2
:10093000012000B210BD10B5514B02221721D0206A
:1009400000F08CFB4E4840784D49097840EA012080
:1009500000B210BD2DE9F05F83460F4691461C465C
:10096000002211464846FFF7A4FF2046FFF7B3FFD9
:10097000002649E010257019B84201DDB81BC5B248
:10098000C4F58070A84201DA6042C5B20BEB060ADA
:1009900053462A466F21D02000F094FB0A9800B3FA
:1009A000002211464846FFF784FF2046FFF793FFD9
:1009B000404B2A466F21D02000F050FB4FF000083A
:1009C0000DE01AF808003B4911F80810884202D0DF
:1009D0000020BDE8F09F08F1010000F0FF08A845E5
:1009E000EFDB701986B26019C4B2BE420CDA1CB9D2
:1009F00009F1010000F0FF09002211464846FFF707
:100A000058FF2046FFF767FFBE42B3DB0120E0E757
:100A10002DE9FE4F05460F46002454E02046611C98
:100A20008CB215F800A02046611C8CB215F800B0FD
:100A30002046611C8CB22E5C002E0FDD05EB0408F5
:100A4000002001215B465246CDE900103146404668
:100A5000FFF780FF0290A01984B22FE02046611CAE
:100A60008CB215F80090B9F1010F25D1322238214E
:100A7000D02000F055FB012002901FE0000C014047
:100A8000A4030020CEB4BCECB2E2B5BD4D50553647
:100A90003035302E2E2E0D0A00000000D2D1BCECD5
:100AA000B2E2B5BD4D5055363035302E2E2E0D0AE2
:100AB000000000003604002000200290029810B9C7
:100AC0000020BDE8FE8FBC42A8DB0120F9E72DE93C
:100AD000FC4104460D4616461F46DDF820800020E6
:100AE0003B4632462946CDE900802046FFF732FFDB
:100AF000BDE8FC8170B504460D460022294620461B
:100B0000FFF786FF70BD10B5044622463821D0207D
:100B100000F006FB10BD10B5044622461921D02076
:100B200000F0FEFA10BD38B50446032302221A2154
:100B3000D020009400F0FEFA38BD38B504460323F7
:100B400005221A21D020009400F0F4FA38BD10B527
:100B5000044622467021D02000F0E2FA10BD10B504
:100B6000044622467121D02000F0DAFA10BD10B5FB
:100B70000446234600221146D02000F010FB10BD91
:100B800010B50446200A8F4908704C700B460222AB
:100B90001321D02000F096FA10BD10B50446200AAB
:100BA000884908704C700B4602221521D02000F0B5
:100BB00089FA10BD10B50446200A824908704C70AD
:100BC0000B4602221721D02000F07CFA10BD10B590
:100BD000012302226A21D02000F0E1FA10BD10B5F5
:100BE000784B02227221D02000F038FA7548407804
:100BF0007449097840EA012010BD10B50446224628
:100C00001F21D02000F08CFA10BD10B504462246FA
:100C10002121D02000F084FA10BD10B504462246F0
:100C20002021D02000F07CFA10BD10B504462246E9
:100C30002221D02000F074FA10BD2DE9F047814642
:100C40000E4690461C46002211464046FFF731FEF4
:100C50002046FFF740FE002525E01027E819B042A6
:100C600001DD701BC7B2C4F58070B84201DA604282
:100C7000C7B209EB05033A466F21D02000F022FAF3
:100C8000E81985B2E019C4B2B5420CDA1CB908F112
:100C9000010000F0FF08002211464046FFF709FE60
:100CA0002046FFF718FEB542D7DBBDE8F08770B5E8
:100CB00004460D4623462A467421D02000F0CEF982
:100CC00070BD10B53A21D02000F0A5F910BD10B5C7
:100CD0000446234607226A21D02000F060FA10BDA6
:100CE00010B50021D02000F096F9044604F0010070
:100CF00010BD10B50021D02000F08DF9044604F09D
:100D00003F04204610BD38B50446E0B206231A461B
:100D100000210090D02000F00DFA38BD10B501215F
:100D2000D02000F078F9044604F03F04204610BDBE
:100D300038B50446E0B206231A4601210090D020BF
:100D400000F0F8F938BD10B50221D02000F063F9A9
:100D5000044604F03F04204610BD38B50446E0B216
:100D600006231A4602210090D02000F0E3F938BD96
:100D700070B504460D46032C00DD70BD04EB440045
:100D80002530C1B22A46D02000F0CAF900BFF4E7EE
:100D900010B501231A466A21D02000F000FA10BDD8
:100DA00010B50446234606226A21D02000F0F7F948
:100DB00010BD10B5012303226A21D02000F0EFF905
:100DC00010BD0000A403002008B50121082006F092
:100DD00045FEC020ADF8000010208DF80300032070
:100DE0008DF802006946FE4806F084FBFDA009F07C
:100DF000F5F808BD10B5FA48006820F07040F849D1
:100E000008600846006840F0405008600120FB4937
:100E10000860FB49C1F898014FF00400FFF70AFB96
:100E20000020F64908604FF00400FFF703FB0020A4
:100E3000F349C1F8980110BD10B5E948006820F0E9
:100E40007040E74908600846006840F0405008607C
:100E50000020EC490860EA49C1F89C014FF0040009
:100E6000FFF7E8FA0120E7490860E549C1F89C016D
:100E70004FF00400FFF7DEFA10BD10B50024D8488B
:100E8000006820F07040D64908600846006840F0CD
:100E9000004008600120D9490860FFF7CBFA012023
:100EA000D749C1F89801FFF7C5FA0AE0601CC4B23F
:100EB000322C03DDFFF7C0FF012010BD0120FFF73A
:100EC000B9FAD14800680028F0D1CE49086000BFC7
:100ED000F3E710B50020CB490860C148006820F056
:100EE0007040BF4908600846006840F04050086004
:100EF0004FF00000C249C1F89C014FF00100FFF71C
:100F000099FA0120BF490860FFF794FA0020BC4914
:100F1000C1F8980110BD10B50020BA490860B0486A
:100F2000006820F07040AE4908600846006840F054
:100F3000405008604FF00100B149C1F89C01FFF733
:100F400079FA0120AF490860FFF774FA0020AC4934
:100F5000C1F8980110BD70B50446A148006820F0A2
:100F600070409F4908600846006840F040500860A3
:100F70000020A4490860054619E0E0099F4908607F
:100F80004FEA44604FEA10644FF00100FFF752FA55
:100F900001209B49C1F89801FFF74CFA00209949BC
:100FA00008604FF00100FFF745FA681CC5B2082D34
:100FB000E3DB70BD70B5054600248948006820F069
:100FC0007040874908600846006840F000400860AB
:100FD000002616E000208B4908604FF00100FFF763
:100FE00029FA01208649C1F898016006040E864856
:100FF000006808B1601CC4B20120FFF71BFA701C26
:10100000C6B2082EE6DB15B1FFF763FF01E0FFF77C
:1010100082FF204670BD70B505460E460024FFF7DE
:10102000E9FE2846FFF797FF641CFFF726FF3046CE
:10103000FFF791FF641CFFF720FFFFF7DBFE681C42
:10104000C0B2FFF788FF641CFFF717FF0020FFF70F
:10105000B1FF0446FFF7F0FE204670BD2DE9F047D2
:1010600007460E46154698460024FFF7C3FE38464D
:10107000FFF771FFFFF701FF3046FFF76CFFFFF747
:10108000FCFEFFF7B7FE781CC0B2FFF764FFFFF766
:10109000F4FE00BF0FE0681EA04204D00120FFF75D
:1010A00089FF814603E00020FFF784FF814608F8AE
:1010B0000490601CC4B2AC42EDDBFFF7BDFE2046DD
:1010C000BDE8F0872DE9F04180460D4616461F46E3
:1010D0000024FFF78FFE4046FFF73DFFFFF7CDFEF0
:1010E0002846FFF738FFFFF7C8FE00BF06E0385D6F
:1010F000FFF731FFFFF7C1FE601CC4B2B442F6DB5C
:10110000FFF79AFE0120BDE8F08170B505460E4656
:10111000144631462846FFF77EFF2070012070BD3F
:1011200037B504460D4602AB012229462046FFF79B
:10113000C9FF3EBD2DE9F8430746884614461D46C3
:10114000089E6A4641463846FFF7DFFF28B3601C19
:10115000FF2101FA00F0C4F108012944491EFF22D1
:101160000A41104300F0FF09C5F1080006FA00F03B
:10117000C6B2C4F1070006419DF8000000EA09006C
:1011800000909DF80000304300909DF800204146FB
:101190003846FFF7C5FFBDE8F8830020FBE7F8B548
:1011A00006460F4614461D466A4639463046FFF746
:1011B000ACFF2DB10120A0409DF80010084305E0D0
:1011C0000120A0409DF8001021EA0000C0B200906C
:1011D0009DF8002039463046FFF7A2FFF8BD000019
:1011E000000C0140494943D7DCCFDFB3F5CABCBB93
:1011F000AFCDEAB3C92E2E2E0D0A00009C812142EC
:1012000000802142988121421C81214210B5012198
:10121000804807F04EFB00284DD07F480088401CD6
:101220007D4908807D480088401C7C4908807C48B6
:101230000088401C7A4908807A480088401C80B2A7
:101240007849088000EBC00101EB00104FF47A717F
:10125000B1EB400F05DC0020724908800120724983
:10126000087072480088401C80B27049088000EB0A
:1012700080004FF47A71B1EB800F05DC00206B49E0
:10128000088001206A4908706A480088401C80B2C2
:101290006849088000EB80004FF47A71B1EB400F91
:1012A00005DC0020634908800120634908700121A2
:1012B000584807F00FFB10BD2DE9FF5F01215F4883
:1012C00007F0F7FA60B300F0E5FE5D490860C86812
:1012D0000BF0D4FA82468B46594908680AF057FF4A
:1012E00080460022574B0AF0CBFD04460D46544978
:1012F00048690BF0C3FA064622462B460AF0AEFFB9
:1013000052465B46CDE900010AF0A8FFCDE9020193
:101310000AF0C8FC4A4948600121484807F0DAFA57
:10132000BDE8FF9F3EB505460C460121042006F0AE
:10133000A2FB384806F0FAFBA0B2ADF80400681E24
:1013400080B2ADF800000020ADF80600ADF8020054
:101350006946304806F0BEFC01212E4807F0A6FA87
:10136000012211462B4807F00AF80121294806F00E
:10137000E1FF35A008F032FE3EBD3EB505460C4605
:101380000121022006F077FB2C4806F0CFFBA0B22B
:10139000ADF80400681E80B2ADF800000020ADF882
:1013A0000600ADF802006946244806F093FC0121CE
:1013B000224807F07BFA01221146204806F0DFFFA1
:1013C00001211E4806F0B6FF25A008F007FE3EBD2D
:1013D00008B54FF4A06005F0BFFF1D208DF8000098
:1013E00002208DF8010000208DF8020001208DF808
:1013F0000300684605F0B5FF1E208DF800000120AF
:101400008DF801008DF802008DF80300684605F0A4
:10141000A8FF08BD00080040260000203A00002078
:10142000400000203C00002032000020420000204C
:10143000350000202A000020360000200004004073
:10144000B00900200000B040B6A8CAB1C6F734B356
:10145000F5CABCBBAFCDEAB3C92E2E2E0D0A0000D3
:10146000B6A8CAB1C6F733B3F5CABCBBAFCDEAB3B1
:10147000C92E2E2E0D0A000030B540F2E734A042EE
:1014800000DB204640F2E734A14200DB214640F277
:10149000E734A24200DB224640F2E734A34200DBFD
:1014A0002346002800DC0020002900DC0021002A5F
:1014B00000DC0022002B00DC00234FF08045A886D2
:1014C0002987AA87384D2B8030BD10B588B00024FD
:1014D0000121042006F0C2FA0121084606F0CBFAE9
:1014E0000F20ADF81C0018208DF81F0002208DF889
:1014F0001E0007A92D4805F0FDFF4FF0804006F0C3
:1015000015FB2B4800682B49B0FBF1F0401E84B25C
:1015100040F2E730ADF81400ADF810400020ADF80F
:101520001600ADF8120004A94FF0804006F0D2FB7F
:10153000684606F0E3FE6020ADF800000120ADF83B
:1015400002000020ADF80600ADF8080069464FF033
:10155000804006F0FCFB69464FF0804006F039FC05
:1015600069464FF0804006F07DFC69464FF08040B0
:1015700006F0BFFC0821C80607F014F80821C806C9
:1015800007F019F80821C80607F020F80821C80656
:1015900007F025F80121880706F0CCFE06A008F028
:1015A0001DFD08B010BD00004000004000080140D3
:1015B0000000002000366E01B5E7BBFAB3F5CABCE7
:1015C000BBAFCDEAB3C92E2E2E0D0A0070B505466D
:1015D0000C4610217F4806F03AF8284600F08CF9B6
:1015E0000646204600F088F910217A4806F02DF8CA
:1015F000304670BD70B504461021764806F027F8D5
:10160000204600F079F9002000F076F90546102117
:10161000704806F01AF8284670BD2DE9F0410746DB
:101620000D46164610216B4806F011F8384600F0BA
:1016300063F98046002404E0285D00F05DF9601C39
:10164000C4B2B442F8DB1021624805F0FEFF404608
:10165000BDE8F0812DE9F04107460D461646102100
:101660005C4805F0F4FF384600F046F98046002457
:1016700005E0002000F040F92855601CC4B2B442D7
:10168000F7DB1021534805F0E0FF4046BDE8F0814C
:1016900070B504460D464FF480514E4805F0D7FF13
:1016A0002A462146A020FFF7B8FF4FF48051494851
:1016B00005F0CBFF70BD1FB547A103C9CDE90201FD
:1016C0000024052202A93020FFF7A7FF0522694662
:1016D0001020FFF7BFFF00BF06E01DF80400C2287E
:1016E00000D003E0601CC4B2052CF6DB00BF052C63
:1016F00005D13BA008F072FC012004B010BD3EA053
:1017000008F06CFC0020F8E710B500F093F8FFF744
:10171000D2FF10BD10B54FF480512E4805F097FF51
:10172000FF21E220FFF752FF052239492A20FFF767
:1017300074FF01212120FFF749FF01212220FFF73B
:1017400045FF28212520FFF741FF20213120FFF709
:101750003DFF0F212620FFF739FF0F212020FFF743
:1017600035FF4FF480511B4805F06FFF29A008F0AA
:1017700035FC10BD10B50720FFF73CFF044614F000
:10178000400F0BD020222A496120FFF763FF08F0A9
:1017900017FB21462720FFF719FF002410BD70B565
:1017A00004460720FFF726FF054629462720FFF7B6
:1017B0000DFF15F0400F0AD0202221466120FFF7CF
:1017C00049FFFF21E220FFF701FF002070BD01204B
:1017D000FCE7000000080140C2C2C2C2C200000013
:1017E000B3F5CABCBBAF4E524632344C3031B3C9EC
:1017F000B9A62E2E2E0D0A00B3F5CABCBBAF4E52B1
:101800004632344C3031B3F6B4ED2E2E2E0D0A0094
:10181000480000204E524632344C3031C9E8CEAA3E
:10182000BDD3CAD5C4A3CABD2E2E2E0D0A000000FA
:101830005604002000B587B00121042006F00EF9FF
:101840000121082006F00AF90121080306F006F933
:10185000E020ADF8040001208DF8060018208DF876
:10186000070001A9314805F045FE4FF48050ADF85E
:10187000040001208DF8060010208DF8070001A952
:101880002A4805F037FE1020ADF8040001208DF83D
:10189000060010208DF8070001A9244805F02AFE53
:1018A0001021224805F0D1FE0020ADF808004FF4C9
:1018B0008270ADF80A000020ADF80C00ADF80E0003
:1018C000ADF810004FF40070ADF812001020ADF824
:1018D00014000020ADF816000720ADF8180002A98A
:1018E000134807F027FA0121114807F0C6FA11A0A2
:1018F00008F074FB07B000BD10B5044600BF02211C
:101900000B4807F043FB0028F9D02146084807F0B0
:10191000EAFA00BF0121064807F038FB0028F9D099
:10192000034807F0E2FAC0B210BD00000008014011
:1019300000300140535049D7DCCFDFB3F5CABCBB00
:10194000AFCDEAB3C92E2E2E0D0A000010B58B487C
:101950008B4948608B4848608BA008F03FFB10BD66
:101960008748006940F080008549086170478448D5
:10197000C16811F0010F01D00120704711F0040F70
:1019800001D00220F9E711F0100F01D00320F4E795
:101990000020F2E770B5044600BFFFF7E8FF0546F8
:1019A000012D00D006E00120FEF744FD601E84B248
:1019B000002CF2D100BF04B9FF25284670BD70B5D8
:1019C0000546002445F6FF70FFF7E4FF0446C4B95E
:1019D0006B48006940F002006949086108464561AA
:1019E000006940F04000086145F6FF70FFF7D2FF44
:1019F0000446012C05D06248006920F002006049CD
:101A00000861204670BD70B505460E46FF20FFF701
:101A1000C1FF044694B95A48006940F00100584992
:101A200008612E80FF20FFF7B5FF0446012C05D08A
:101A30005348006920F0010051490861204670BDFB
:101A40000146088870472DE9F04105460E461746C5
:101A5000002407E036F814102846FFF7D4FFAD1C29
:101A6000601C84B2BC42F5DBBDE8F08130B50346B2
:101A70000C461546002207E01846FFF7E1FF24F860
:101A800012009B1C501C82B2AA42F5DB30BD2DE92E
:101A9000F05F80468A461746B8F1006F02D340488F
:101AA000804501D3BDE8F09FFFF750FFA8F1006B20
:101AB0004FEA9B25CBF34809C9F50074A74200DC27
:101AC0003C464DE04FF0006101EB85208A1435491A
:101AD000FFF7CCFF00260BE009EB0600314931F897
:101AE0001000A0F57F41FF3900D003E0701C86B2E2
:101AF000A642F1DB00BFA6421BDA4FF0006101EB0A
:101B00008520FFF75CFF002608E03AF8160006EB98
:101B10000901244A22F81100701C86B2A642F4DBA7
:101B20004FF0006101EB85208A141E49FFF78BFFFF
:101B300004E0224651464046FFF785FFA74200D108
:101B40000FE06D1C4FF000090AEB440AA044381B5B
:101B500087B2B7F5007F02DD4FF4007400E03C4629
:101B6000B0E700BFFFF7FCFE00BF9BE713B50446DC
:101B7000012201A92046FFF78AFF1CBD230167450A
:101B800000200240AB89EFCDC4DAB2BF464C4153CE
:101B900048BDE2CBF8CDEAB3C92E2E2E0D0A0000C7
:101BA0000000010896040020014600BF704700BFF6
:101BB0008D4A128812F0400FFAD0C2B28A4B1B1D18
:101BC0001A80704708B525208DF8000000208DF898
:101BD00001008DF8020001208DF80300684605F031
:101BE000C0FB08BD2DE9F05F05460E4630010BF045
:101BF0005FF881467D4905FB01F00BF059F88246FC
:101C000049460AF0DBFE074638460AF0E9FF84B28F
:101C100020460BF04DF8834639460BF0C5F9824655
:101C20004FF083410BF08CF881460AF0D9FF8046D3
:101C3000240104EB080084B26D48806940F0040080
:101C40006B4988610846806940F480408861694832
:101C5000006820F47F60674908600846006840F427
:101C60000B6008606248C06840F480406049C8600A
:101C70000846C06820F48040C8605B480830048093
:101C8000001D008842F20C01084357490C310880BE
:101C90000846008840F4807008800846008840F0BC
:101CA00020000880FFF78EFF0020534908804880FD
:101CB0007F208880514888600020514908804880F2
:101CC0007F2088804F48886029464FA008F086F919
:101CD000314653A008F082F9BDE8F09F028883885E
:101CE0001A40836899540288521C0280704710B5CC
:101CF000044621464048FFF7F1FF012240F22771D8
:101D0000394806F0C6FE10BD10B5044621463A48D3
:101D1000FFF7E4FF012240F22771334806F0B9FED5
:101D2000204610BD01464A888B881A408B68985C13
:101D30004A88521C4A807047014608884A88801A9F
:101D40008A881040704701884180704770B504460A
:101D50000D46002606E021782748FFF7BFFF641CE8
:101D6000701CC6B2AE42F6DB012240F227711E485B
:101D700006F08FFE70BD10B540F227711A4806F0CC
:101D800070FF90B11C48FFF7CDFF0446214616486E
:101D900006F0E3FE1848FFF7CFFF18BB002240F221
:101DA0002771114806F075FE1CE040F225510E48DF
:101DB00006F057FFB0B140F225510B4806F07BFF0B
:101DC000094806F0CEFE1D490870084601780C4807
:101DD000FFF784FF1948007801F0E9FA1748007806
:101DE00001F0AAFC10BD00000038014040420F0085
:101DF000001002400408014098080020300900202B
:101E0000A4080020B0080020CFB5CDB3CAB1D6D306
:101E1000C6B5C2CAA3BA25644D487A200D0A00008F
:101E2000B4AEBFDA31B3F5CABCBBAFB2A8CCD8C22E
:101E3000CAA3BA2564200D0A000000005400002047
:101E400010B5BE48806940F00800BC498861BC48B4
:101E5000006820F00F00BA490860B848806940F473
:101E60000070B64988610846C06840F40070C860D8
:101E70000846C06820F40070C8600846406820F436
:101E8000404048600846406840F400404860AD4823
:101E90000068AD490840AB49086008460068086022
:101EA0000846006820F480700860081D006820F073
:101EB0000200091D08600846006820F460200860E0
:101EC0000846006840F4602008600846006840F456
:101ED000801008600846006820F40060086008462A
:101EE000006840F40000086096482830006820F43C
:101EF0007000944928310860084600680020086096
:101F000090480C30006820F038008E490C31086091
:101F10000846006840F038000860081F006820F498
:101F2000E010091F08600846006840F4E0100860EF
:101F3000081F006840F00100091F0860084600689B
:101F400040F00800086000BF7E48001D006810F0E7
:101F5000080FF9D17B48001D006840F00400794962
:101F6000091D086000BF7748001D006810F0040FCD
:101F7000F9D1764876498860764808617648C86025
:101F80000A46116990680AF019FD714948614FF4D9
:101F9000FA60886171A008F021F810BD0146694817
:101FA0003030006820F01F00664A30321060104662
:101FB0000068084310606348001D006840F480001A
:101FC000604A121D106000BF5E48001F006810F0DC
:101FD000020FF9D05B484830006880B2704770B596
:101FE00006460B460024002505E03046FFF7D6FFE5
:101FF0000444681CC5B29D42F7DBB4FBF3F080B229
:1020000070BD2DE9FE4F4FF00008C14609E01020D9
:10201000FFF7C4FF40441FFA80F809F1010000F007
:10202000FF09B9F1140FF2DB142098FBF0F01FFA4E
:1020300080F840460AF03CFE82460AF01FFC064645
:102040004FF066324B4B0AF009F9044609F02AFEBC
:10205000029002980AF012FC0446474A474B0AF0E5
:1020600031FA0646464A474B09F00AFF0022464B22
:10207000CDE9000109F048FE824609F013FE029006
:10208000424902980AF05CFE029002980AF08CFD28
:10209000BDE8FE8F00B505210820FFF7A0FF00BDB9
:1020A0002DE9FF5FFFF7F6FF29490860C8680AF0CD
:1020B000E5FB82468B46264908680AF068F88046A8
:1020C0000022334B09F0DCFE04460D4620494869E6
:1020D0000AF0D4FB064622462B460AF0BFF85246C9
:1020E0005B46CDE900010AF0B9F8CDE9020109F03B
:1020F000D9FD174948602748007860B10846006854
:102100008969884203DC01201149087714E0002026
:102110000F49087710E00E4948680AF0AFFB044603
:102120001D4A1E4B0AF05EF803D2012008490877C9
:1021300002E0002006490877BDE8FF9F001002403A
:10214000000C014004240140FFFFF000CDCC7C4096
:10215000B0090020A470FD3FD7A35040B5E7D1B926
:10216000BCE0B2E24144B3F5CABCCDEAB3C92E2EFD
:102170002E0D0A0066664A3FE17A14AE47E1F63F4B
:1021800022FDF675E09C713F0000394000002041BF
:102190000000B040900300209A99999999990D40B8
:1021A00010B5B448806940F00800B2498861B2486F
:1021B000006820F47060B04908600846006840F488
:1021C00040700860AC480C30006840F00400AA4938
:1021D0000C3108600421A84805F037FAA7A007F0E1
:1021E000FDFE10BD70B50546002404E00020AA499C
:1021F0000855601CC4B2142CF8DB4FF40061A748EA
:1022000005F023FA6420FEF704F94FF40061A348B7
:1022100005F01DFA002404E0285DFFF768FD601C4E
:10222000C4B2284607F058FFA042F5D86420FEF754
:10223000F0F8002407E09A48FFF774FD2146621C7D
:10224000D4B2954A50549648FFF776FD0028F2D153
:1022500070BD70B50546002407E08F48005D295D1C
:10226000884200D006E0601CC4B2284607F034FF64
:10227000A042F2D800BF284607F02EFFA04201D0AE
:10228000002070BD0120FCE710B504217A4805F05C
:10229000DCF97AA007F0A2FE4FF4FA70FEF7B9F865
:1022A000002411E07F4850F824107F480078FFF7A1
:1022B00099FC7E48FFF796FF7D48FFF7CAFF01288B
:1022C00000D103E0601CC4B2082CEBDB00BF7548F2
:1022D00050F8240010BD10B5FFF7D6FF754908600F
:1022E00008460068B0F5E13F03D1734873490860C0
:1022F00002E07348714908607149704800680AF04B
:102300001FFC7DD14FF40061644805F0A0F94FF443
:102310008071624805F09BF90221574805F097F952
:102320000821554805F093F9624801685E48007835
:10233000FFF758FC5D48FFF755FF5D48FFF789FF41
:1023400001287DD15F48FFF74DFF5F48FFF781FF10
:10235000A0B95E48FFF746FF4FF400614F4805F013
:1023600076F94FF480714D4805F06FF9022142482B
:1023700005F06DF90821404805F067F95448FFF76A
:1023800031FF5448FFF765FFA0B95348FFF72AFF14
:102390004FF40061414805F058F94FF480713F480F
:1023A00005F055F90221344805F04FF9082132486B
:1023B00005F04DF94948FFF715FF4948FFF749FF78
:1023C000002846D14748FFF70DFF4FF4006133481E
:1023D00005F03DF94FF48071304805F036F90221DF
:1023E000254805F034F90821234805F02EF9324834
:1023F0003249086003F079FE4FF40061274800E09D
:1024000031E005F022F94FF48071244805F01DF900
:102410000221194805F019F90821174805F015F9A6
:102420004FF47A70FDF7F5FF4FF400611B4805F09B
:102430000EF94FF48071194805F009F9022100E006
:102440000BE00D4805F003F908210B4805F0FFF8F3
:1024500009E01B481949086005E019481749086058
:1024600021A007F0BBFD4FF4E1310F480078FFF7E2
:10247000B9FB10BD00100240000C0140C0B6D1C035
:10248000B5E7D4B4B3F5CABCBFAAC6F4CDEAB3C9A4
:102490002E2E2E0D0A000000980A00200008014090
:1024A000A408002058000020F4000020F2D2000808
:1024B000F5D2000878000020000025437C000020B1
:1024C0000000B442F8D2000801D3000813D300087A
:1024D00024D300082CD3000838D3000843D30008C5
:1024E0004CD300085BD300080D0AD3EBC0B6D1C0B3
:1024F000CDA8D0C5CAA7B0DC0D0A0000FD49FE4A30
:10250000127841F82200FC490978491C0A2291FB03
:10251000F2F302FB1311F84A11707047F749F84AB9
:10252000127841F82200F6490978491C0A2291FBE9
:10253000F2F302FB1311F24A1170704710B5014615
:10254000012008E0EF4A52F82030421EED4C44F8DA
:102550002230421C10B20A28F4DBEA4A516210BD54
:102560002DE9F04106460C460027002506E056F806
:10257000251038460AF0AEF907466D1CA542F6DB79
:1025800020460AF04DFB8046414638460AF016FACE
:10259000BDE8F08170B5002430E0FEF72BFCEE20A2
:1025A000FEF7D9FCFEF769FCA22101EB4401C8B299
:1025B000FEF7D1FCFEF761FCFEF73EFC0520FDF7BF
:1025C00039FFFEF717FCEF20FEF7C5FC0120FDF7F1
:1025D00031FFFEF752FC0120FEF7ECFC054601201E
:1025E000FDF728FF0020FEF7E5FC0646FEF724FC79
:1025F00046EA0520C44921F81400641C062CCCDBF3
:1026000070BD10B5FEF7F6FBEE20FEF7A4FCFEF75A
:1026100034FC1E20FEF79FFCFEF72FFCFEF70CFC9F
:1026200010BD10B50446FEF7E5FBEE20FEF793FC67
:10263000FEF723FC2046FEF78EFCFEF71EFCFEF79D
:10264000FBFB10BD38B50024FEF7D4FBEE20FEF7EF
:1026500082FCFEF712FC0020FEF77DFCFEF70DFC6D
:10266000FEF7EAFBFEF7C6FBEF20FEF774FCFEF771
:1026700004FC0120FEF79EFC8DF800000120FEF70F
:1026800099FC8DF801000020FEF794FC8DF8020003
:10269000FEF7D2FB9DF8000001049DF8010001EB5C
:1026A00000209DF802104418204638BD10B5FFF7F1
:1026B000A8FF6420FDF7ADFEFFF76CFF10BD10B55D
:1026C000FFF7C0FF9149086010BD2DE9F04F85B0BC
:1026D0000020049000218E4800680AF031FA30D1C1
:1026E0008C480088322813DD8A48008809F066FD8E
:1026F000064632460B46884903C909F0C1FB044629
:1027000009F0D0FA824908600120844908700BE082
:10271000834800680AF0B2F804467F480CC8204697
:1027200009F0F2FA7C4A03C27A480088401C7949D1
:10273000088000207B4908600846006805B0BDE8B5
:10274000F08F73480168764800680AF037F9019005
:102750000AF094F88046744A744B08F0EFFB0022AC
:10276000734BCDE9020109F0ADFE06460022714B24
:1027700009F074FD04464FF080426F4B09F06EFD86
:10278000824609F08FFA674908606C48016865481D
:1027900000680AF09FF86349086008460068CDE7C2
:1027A0002DE9F04FA1B0FFF74DFF05905648008985
:1027B00056490968A1EB0020C717064652484089D0
:1027C0000021A0FB064301FB063100FB07114FF47B
:1027D00000020023204607F0DCFB4FF4FA6310EB05
:1027E000030841F100094848408800211022CDE942
:1027F000161007F0A8FB04460D464348C0884FF06A
:102800000002A0FB061302FB063200FB07204FF07C
:102810000702CDE914010846149907F0A7FB201818
:102820004D41CDE90E053848008800210F22CDE941
:10283000121007F088FB04460D46334880884FF09D
:102840000002A0FB061302FB063200FB07204FF03C
:102850000802CDE910010846109907F087FB2018FF
:102860004D41CDE90C054FF4FA61B8EB010179F166
:10287000000076DAA6FB060107FB061106FB07112E
:102880001F22CDE91C1007F071FBCDE90A014FF4BE
:10289000FA62B8EB020169F10000A1FB01A200FBA2
:1028A000012201FB002B05210022AAFB01030BFBE7
:1028B00001310AFB02110122CDE91A1007F056FB83
:1028C000CDE9080105210022AAFB01030BFB013120
:1028D0000AFB02110222CDE9181007F047FBCDE9EF
:1028E0000601DDE90A01B8EB000869EB0109DDE941
:1028F0000E4226E0B80A0020C0000020E00A0020B6
:10290000C1000020080B0020AC0A0020D4000020E9
:102910008C00002098000020900000209A000020E9
:10292000DC000020C4000020EBE2361AC05BC83F88
:102930000000F03F1AE95041E17A843F880000200E
:102940000FE0DDE90801201A62EB0102CDE90E0279
:10295000DDE90C32DDE90601181A62EB0102CDE96E
:102960000C020598C417DDE90C21A0FB023504FB1D
:10297000025200FB01201522CDE91E0318461E99C4
:1029800007F0F4FADDE90E23801A61EB03014FF43E
:1029900000420023CDE9000107F0FBFACDE9020176
:1029A0000AF059F96E490860404649460AF053F961
:1029B00005466C490AF0C4F90446FFF79FFD0A2159
:1029C0006948FFF7CDFD69490860FFF77EFE684959
:1029D000086021B0BDE8F08F10B566480078012886
:1029E00006D0022813D0032820D004283FD12CE0A1
:1029F0005820FFF716FE6048006A6049086000F042
:102A000024FA5F49086002205A49087033E000F058
:102A10001CFA5B490968401A58490968884204D978
:102A2000FFF74DFE03205349087024E04820FFF7CC
:102A3000F8FD5148006A5149086000F006FA504913
:102A4000086004204B49087015E000F0FEF94C497D
:102A50000968401A49490968884207D9FFF7A0FE6A
:102A6000FF204849087001204249087003E0012016
:102A70004049087000BF00BF10BD10B53D48007848
:102A8000012804D0022811D0042846D128E058207B
:102A9000FFF7C7FD3848006A3849086000F0D5F9EB
:102AA000374908600220334908703AE000F0CDF958
:102AB00033490968401A3149096888420FD9FFF73C
:102AC000FEFD4820FFF7ADFD2B48006A2B4908604A
:102AD00000F0BBF92A49086004202649087020E06C
:102AE00000F0B3F926490968401A24490968884268
:102AF00012D9FFF755FEFF20224908705820FFF732
:102B000090FD1D48006A1D49086000F09EF91C49AF
:102B1000086002201749087003E002201549087078
:102B200000BF00BF10BD70B50024002500F08DF976
:102B300004460FE0FFF7A1FF00F087F90546281BC8
:102B40004FF47A71B0FBF1F040F6C411884201D322
:102B5000002070BD0C4800780028EBD00120F8E779
:102B6000DC0000200AD7233CB80A0020D80000204F
:102B7000E0000020800000209C0000208400002055
:102B8000D00000209B0000209A000020092000F0C7
:102B9000F7F900F047F98A4800684FF47A72B0FB01
:102BA000F2F1B1F1807F00D31DE021F07F40401EA3
:102BB0004FF0E022506150170F22002807DA130768
:102BC0001D0E804B00F00F04241F1D5503E013075A
:102BD0001C0E7D4B1C5400BF00204FF0E022906182
:102BE0000720106100BF4FF4E13178480078FEF70C
:102BF000F9FF00F061F9FEF7A9FE03F062FAFDF7B4
:102C00003BFCFFF7CDFAFEF760FCFFF719F9FEF782
:102C1000DBF8FDF7ACFDFEF777FDFEF77BFD07F077
:102C20001AF900F0F5F9FFF756FBFFF739FAFFF74D
:102C30003DFD01F01BFC4FF47A7164480078FEF70B
:102C400071FB0A231A4619461846FEF715FC0120A7
:102C50005F490870FFF767FFB0E05E48008805280D
:102C60002FDB00205B49088000F0EFF85A494968E3
:102C7000401A5A49486000F0E8F85749486004F0A3
:102C800020F8012056490870FFF7F7FE55480078F4
:102C900050B101F07BFD38B100205249087001208D
:102CA000514908705149087006F017FC06F081FF81
:102CB00007F016F800F0C9F847494968401A4C492E
:102CC0004860FEF757FD4B48007850B30020494953
:102CD000087000F0BAF84049C968401A3F49C86016
:102CE00000F0B3F83C49C86000F040FA04F0E0FAA4
:102CF00037480078022801D104F0AFFA02F0ACF9AD
:102D000006F09FFC06F00DFB3B480078012801D03F
:102D100001F02FFB00F099F82F49C968401A344997
:102D2000C86036480078002840D000203349087039
:102D300000F08BF828498968401A2849886000F01B
:102D400084F8254988602E480088401C80B22C49B0
:102D5000088000EBC00101EB001041F28831B1EBBB
:102D6000800F04DC002026490880FFF799F92548E8
:102D7000007820B100F061FC0020224908701A4858
:102D8000007820B100201849087003F0AEF904F073
:102D900008FA04F0E1F904F036FAFDF706FC00F059
:102DA00054F80D498968401A11498860164800781E
:102DB00020B100201449087000F0F6FE4DE7000035
:102DC0000000002018ED00E000E400E0F400002026
:102DD000880300203A000020300B0020580B002010
:102DE00024000020A201002090020020AC0B002053
:102DF000440B002032000020FC00002036000020A0
:102E0000E8000020F900002010010020704700BFFA
:102E1000FEE700BFFEE700BFFEE700BFFEE770472A
:102E20007047704700B585B0684604F0AAFD1F4999
:102E30000098B0FBF1F01E49086005B000BD1D48C8
:102E40000068401C1B490860704700BF19480168B2
:102E50004FF0E0208269174800688142F6D114489B
:102E6000006800EB4003C3EBC010C2EBC000104B86
:102E70001B68B0FBF3F001EB4103C3EBC11300EBA4
:102E8000C300704730B50446FFF7DFFF054600BFBB
:102E9000FFF7DBFF401B04EB4401C1EBC411B0EBB7
:102EA000C10FF5D330BD03480068704740420F00A2
:102EB000EC000020F000002010B5FEF789FAFEF7C4
:102EC00081FE10BD00209A490861C8601420486145
:102ED00000208861C8610846006840F00100086071
:102EE0000846406893490840914948600846006890
:102EF000914908408E4908600846006820F4802007
:102F000008600846406820F4FE00486000208860A1
:102F1000704701468648006840F00100844A10600E
:102F20001046006810601046006840F48020106071
:102F300000BF7F48006810F0020FFAD07C4842685A
:102F4000881E42EA80407A4A5060104640685060CD
:102F50001046006840F08070106000BF7448006840
:102F600010F0007FFAD07248406840F00200704ACA
:102F700050608806000E714A107010460078704745
:102F800000B502460023FFF79DFF6948006840F442
:102F900080306749086000BF65480068400CFBD07E
:102FA0004FF4806062494860901EC2B20846406893
:102FB00040EA824048600846406840F480304860FB
:102FC0005F48006840F032005D490860584800687A
:102FD00040F080705649086000BF55480068400EB8
:102FE000FBD05348406840F002005149486005E07A
:102FF0004F484068C0F3870303F00303022BF7D167
:10300000901CC006000E4D4908700846007800BDAF
:1030100010B5002455E04FF400614A4804F015FB58
:103020004FF48071474804F012FB0221464804F037
:103030000EFB0821444804F00AFB4448FDF706FA59
:103040004FF400613F4804F002FB4FF480713D48AB
:1030500004F0FBFA02213C4804F0F9FA08213A484E
:1030600004F0F5FA3948FDF7F1F94FF400613548FD
:1030700004F0EDFA4FF48071324804F0E8FA0221CE
:10308000314804F0E2FA08212F4804F0E0FA2F4812
:10309000FDF7DCF94FF400612A4804F0D8FA4FF448
:1030A0008071284804F0D3FA0221274804F0CFFAAF
:1030B0000821254804F0C9FA2448FDF7C7F9601C27
:1030C000C4B2042CA7DB00242BE04FF400611D48A0
:1030D00004F0BBFA4FF480711A4804F0B6FA0221EA
:1030E000194804F0B2FA0821174804F0AEFA17485C
:1030F000FDF7ACF94FF40061124804F0A8FA4FF460
:103100008071104804F0A3FA02210F4804F09FFADE
:1031100008210D4804F09BFA0C48FDF797F9601C54
:10312000C4B2032CD1DB0AA006F058FF10BD00008A
:10313000001002400000FFF8FFFFF6FEF400002040
:103140000020024000080140000C0140A0BB0D001F
:10315000BDE2CBF8B3C9B9A62CBDF8C8EBB7C9D04E
:10316000D0C4A3CABD2E2E2E0D0A00002DE9F047B3
:10317000FE48C088B0F57A7F03DA4FF47A70FB49D5
:10318000C880FA48C088B0F5FA6F03DD4FF4FA60E2
:10319000F649C880F5488088B0F57A7F03DA4FF4A5
:1031A0007A70F2498880F1488088B0F5FA6F03DDC3
:1031B0004FF4FA60ED498880EC484088B0F57A7F9A
:1031C00003DA4FF47A70E9494880E8484088B0F55E
:1031D000FA6F03DD4FF4FA60E4494880E348008861
:1031E000B0F57A7F03DA4FF47A70E0490880DF485F
:1031F0000088B0F5FA6F03DD4FF4FA60DB49088010
:10320000DA49C988A1F57A7009F00AFDD8498860C1
:10321000D6498988A1F2DC5009F002FD8146D54AE1
:10322000D54906F0DEF9804609F028FB0446D34A6A
:10323000D34B09F013F8064608F034FDCC49C860BA
:10324000CA494988A1F2DC5009F0EAFC8146CD4A1E
:10325000C94906F0C6F9804609F010FB064600226F
:10326000C94B08F0FBFF044608F01CFDC04948604C
:10327000BE490988A1F2DC5009F0D2FC8146C14A5E
:10328000BD4906F0AEF9804609F0F8FA044600227E
:10329000BD4B08F0E3FF064608F004FDB4490860A2
:1032A000BA480078012802D0032827D112E001F0A3
:1032B0007FFB48B1B648007F30B90220B34908709F
:1032C000A520B449087004E00020B2490870AF4955
:1032D000087014E00020AF4908700120AE49087062
:1032E000AE4908700020AE490860AE48AE4908609B
:1032F0000020AE490870A549087000E000BF00BF7B
:10330000BDE8F08710B5AA4800790C2841D008DC48
:1033100005282ED0062830D0072809D0092844D106
:103320003FE00D2839D010282BD0CD283DD12CE0FE
:103330009F4840799E49897940EA01208B49C8809D
:103340009B48C0799A49097A40EA012087498880D8
:103350009748407A9649897A40EA01208349488013
:103360009348C07A9249097B40EA01207F4908804E
:103370001BE001208549087017E00320834908708D
:1033800013E001208B4908700FE001208A49087082
:103390000BE0012005F0B6FF07E0002005F0B2FFCA
:1033A00003E002207C49087000BF00BF10BD10B5CB
:1033B00004467F48814909784454804800780328AE
:1033C00034DA7E48007820B101280ED002282CD1B2
:1033D0001BE0774879490978405C242804D1774874
:1033E0000078401C754908701FE0714873490978DE
:1033F000405C4D2805D171480078401C6F49087029
:1034000002E000206D4908700FE069486B490978B7
:10341000405C3C2805D169480078401C6749087029
:1034200002E000206549087000BF38E0634800787A
:10343000032808D10020624908705D485F49097877
:10344000405C604908705D480078401C5B4908702A
:10345000084601785B480078801D814215DB57489B
:103460000078401E5249085C55490978884208D1C5
:10347000FFF748FF012054490870FFF714FD534936
:10348000086000204D49087009E04C480078401E53
:103490004749085C4A49097848404949087010BDC5
:1034A00010B5044621464A48FEF718FC4448007807
:1034B00060404349087010BD10B5044645490C7082
:1034C000084601784248FEF709FC3D48007841492A
:1034D000097848403A490870200A3E490870084671
:1034E00001783B48FEF7FAFB3548007839490978FE
:1034F000484033490870200C364908700846017866
:103500003348FEF7EBFB2E480078324909784840F3
:103510002B490870200E2F490870084601782C4866
:10352000FEF7DCFB264800782A4909784840244900
:10353000087010BD10B5044627490C700846017884
:103540002348FEF7CBFB1E48007823490978484002
:103550001B490870200A20490870084601781C4859
:10356000FEF7BCFB164800781B4937E0000100203D
:103570007C0F002000008C420000FA43AA9F962294
:10358000DCA54C400000484200004440FB00002005
:10359000B009002090030020880300204803002089
:1035A00050030020AE4721BF4C0300200C03002035
:1035B0006C0B0020F9000020A2010020FD0000207B
:1035C00008010020FE000020FC0000200C0100206B
:1035D00098080020090100200A01002009784840CD
:1035E0004D49087010BD2DE9F04107460C461546BF
:1035F0002420FFF755FF4D20FFF752FF3E20FFF735
:103600004FFF0020444908702046FFF749FF384625
:10361000FFF746FF002605E015F8010BFFF740FF16
:10362000701CC6B2A642F7DB3B480078FFF738FFB4
:10363000002039490870BDE8F08170B52420FFF7FB
:103640002FFF4D20FFF72CFF3E20FFF729FF002022
:10365000314908700E20FFF723FF1020FFF720FFED
:103660002E49D1F8A8002E4909F06AFB054609F059
:103670009BFA04B22046FFF75DFF2849D1F8AC0061
:10368000274909F05DFB054609F08EFA04B2204691
:10369000FFF750FF2149D1F8B000214909F050FB54
:1036A000054609F081FA04B22046FFF743FF1D48A2
:1036B000806880F000461C49304609F041FB054611
:1036C00009F072FA0446FFF7F7FE184948681649F0
:1036D00009F036FB054609F067FA04B22046FFF709
:1036E00029FF1048406980F000461149304609F032
:1036F00027FB054609F058FA04B22046FFF71AFFE7
:1037000005480078FFF7CCFE012240F227710948F6
:1037100005F0BFF970BD000008010020AC0B0020CF
:10372000000020419C0C00200000C842B00900208D
:1037300000007A4400380140F749097807295AD235
:10374000DFE801F0040D171D592C49000021F34A50
:103750001170AA2802D10121EF4A11704BE0AF2865
:1037600003D10221EC4A117002E00021EA4A1170F3
:1037700041E0EB4908700321E74A11703BE0E94959
:1037800008700521E44A1170E649097801F25911DF
:10379000E34A12781144E14A11702CE0E2490978B9
:1037A000E04A127891420CDADF490A780978491C1C
:1037B000DD4B1970DD498854D84909780144D74A4E
:1037C0001170D9490978D74A1278914202D106215D
:1037D000D14A11700FE0D1490978814207D1012106
:1037E000D34A11700021D04A1170D24A11700021C1
:1037F000C94A117000BF00BF704710B5002400BF58
:1038000005E0CD49085DFFF797FF601CC4B2062CA8
:10381000F7DB10BDC9490A780978491CC74B1970F4
:10382000C7498854C74909780144C64A117070478E
:1038300010B50446C4F30720FFF7ECFFE0B2FFF732
:10384000E9FF10BD70B505460E46002404E0285D72
:10385000FFF7E0FF601CC4B2B442F8DB70BD10B5E6
:10386000B6480178B648FEF771FA0020B3490870EF
:10387000B449087010BD70B504460020B149087005
:10388000AA20FFF7C7FFAA20FFF7C4FF2046FFF7D3
:10389000C1FF102C06D0112C50D0122C7ED0142C2D
:1038A0004BD1E5E00C20FFF7B5FFA7490868A74911
:1038B00009F046FA064609F077F905B22846FFF7FF
:1038C000B7FFA1494868A14909F03AFA064609F04C
:1038D0006BF905B22846FFF7ABFF9B4988689B4907
:1038E00009F02EFA064609F05FF905B22846FFF7FF
:1038F0009FFF97490868954909F022FA064609F0A2
:1039000053F905B22846FFF793FF914948688F495C
:1039100009F016FA064609F047F905B22846FFF7FE
:1039200087FF8B498868894909F00AFA064609F039
:103930003BF905B22846FFF77BFFE5E00C20FFF7D7
:1039400069FF84490868814909F0FAF9064609F0D7
:103950002BF905B22846FFF76BFF7E4948687B4983
:1039600009F0EEF9064609F01FF905B22846FFF7FF
:103970005FFF78498868754909F0E2F9064609F061
:1039800013F905B22846FFF753FF734908686F49DA
:1039900009F0D6F9064609F007F900E01CE005B287
:1039A0002846FFF745FF6C494868684909F0C8F99F
:1039B000064609F0F9F805B22846FFF739FF6649CF
:1039C0008868624909F0BCF9064609F0EDF805B2CD
:1039D0002846FFF72DFF97E00C20FFF71BFF5F49FC
:1039E00008685A4909F0ACF9064609F0DDF805B255
:1039F0002846FFF71DFF59494868544909F0A0F9C6
:103A0000064609F0D1F805B22846FFF711FF5349E1
:103A100088684E4909F094F9064609F0C5F805B2E0
:103A20002846FFF705FF4E490868484909F088F91C
:103A3000064609F0B9F805B22846FFF7F9FE4849ED
:103A40004868424909F07CF9064609F0ADF805B22C
:103A50002846FFF7EDFE424988683C4909F070F9B5
:103A6000064609F0A1F805B22846FFF7E1FE4BE053
:103A70000C20FFF7CFFE3B490868344909F060F994
:103A8000064609F091F805B22846FFF7D1FE354900
:103A900048682E4909F054F9064609F085F805B240
:103AA0002846FFF7C5FE2F498868284909F048F9DC
:103AB000064609F079F805B22846FFF7B9FE2A490B
:103AC0000868224909F03CF9064609F06DF805B28C
:103AD0002846FFF7ADFE244948681C4909F030F933
:103AE000064609F061F805B22846FFF7A1FE1E4917
:103AF0008868164909F024F9064609F055F805B218
:103B00002846FFF795FE00BF00BF0E480078FFF77C
:103B100081FEFFF7A4FE70BD9E0100209C010020E5
:103B20009A0100209B0100209D0100208C0B0020A9
:103B300010010020FC0000209301002099010020CA
:103B400053010020A0010020B80D00200000C84251
:103B5000880D0020180E0020E80D0020780E0020AF
:103B6000480E0020D80E0020A80E002010B50446F4
:103B70000020FE490870FE490870AA20FFF74AFE9F
:103B8000AA20FFF747FE2046FFF744FE0C20FFF770
:103B900041FE0C21F748FFF755FEF4480078FFF787
:103BA00039FEFFF75CFE10BD10B5F348007812280F
:103BB0007ED006DC022809D0102818D0112815D193
:103BC00078E0132875D01428F9D136E1E948007857
:103BD00001280BD11020FFF74EFE1120FFF74BFEFE
:103BE0001220FFF748FE1420FFF745FE86E1E14969
:103BF0004978E04A127841EA022108B209F010F847
:103C00000446DE4909F09CF8DD490860D949C978C5
:103C1000D84A927841EA022108B209F001F8044634
:103C2000D64909F08DF8D6494860D2494979D14A38
:103C3000127941EA022108B208F0F2FF0446CF49A6
:103C400009F07EF8CE498860CA49C979C94A927993
:103C500041EA022108B208F0E3FF0446C74909F02F
:103C60006FF8C8490860C349497AC24A127A41EAE2
:103C7000022108B208F0D4FF0446C04909F060F8F8
:103C8000C0494860BB49C97ABA4A927A41EA0221DE
:103C900008B208F0C5FF0446B84909F051F8B9491F
:103CA00088601020FFF762FF0120B749087025E106
:103CB00061E0C1E0AF494978AE4A127841EA022199
:103CC00008B208F0ADFF0446AC4909F039F8AF4935
:103CD0000860A849C978A74A927841EA022108B247
:103CE00008F09EFF0446A54909F02AF8A749486054
:103CF000A04949799F4A127941EA022108B208F0A5
:103D00008FFF04469D4909F01BF8A0498860994936
:103D1000C979984A927941EA022108B208F080FFF5
:103D20000446964909F00CF8994908609149497A86
:103D3000904A127A41EA022108B208F071FF044663
:103D40008E4908F0FDFF924948608A49C97A894A3C
:103D5000927A41EA022108B208F062FF04468749DC
:103D600008F0EEFF8A4988601120FFF7FFFE01206E
:103D700085490870C2E07F4949787E4A127841EA55
:103D8000022108B208F04CFF04467C4908F0D8FF35
:103D9000804908607749C978764A927841EA0221D9
:103DA00008B208F03DFF0446744908F0C9FF79499C
:103DB0004860704949796F4A127941EA022108B294
:103DC00008F02EFF04466D4908F0BAFF714988607B
:103DD0006849C979674A927941EA022108B208F034
:103DE0001FFF0446654908F0ABFF6B490860614955
:103DF000497A604A127A41EA022108B208F010FFBB
:103E000004465E4908F09CFF634948605949C97AF5
:103E1000584A927A41EA022108B208F001FF0446AA
:103E2000564908F08DFF5C4988601220FFF79EFE1E
:103E300001205549087061E060E04E4949784D4ADB
:103E4000127841EA022108B208F0EAFE04464B4922
:103E500008F076FF514908604649C978454A92788A
:103E600041EA022108B208F0DBFE0446434908F0AB
:103E700067FF4A4948603F4949793E4A127941EA19
:103E8000022108B208F0CCFE04463C4908F058FF75
:103E9000424988603749C979364A927941EA022114
:103EA00008B208F0BDFE0446344908F049FF3C4919
:103EB00008603049497A2F4A127A41EA022108B251
:103EC00008F0AEFE04462D4908F03AFF3449486038
:103ED0002849C97A274A927A41EA022108B208F0B1
:103EE0009FFE0446254908F02BFF2D4988601420C9
:103EF000FFF73CFE01202449087000BF00BF10BD41
:103F00001CB50246002004E0135C0DF80030431C91
:103F1000D8B28842F8DB002006E01DF800404B1EB6
:103F20001B1AD454431CD8B28842F6DB1CBD70B5B2
:103F300000241C49D1F8A8001B4908F001FF0546E0
:103F400008F032FE00B2194988801649D1F8AC0059
:103F5000154908F0F5FE054608F026FE00B21349A3
:103F6000C8801049D1F8B0000F4921E0A00100201D
:103F7000990100208C0B00209A0100200AD7233CD5
:103F8000B80D0020880D002090020020180E00209F
:103F9000E80D0020780E0020480E0020D80E0020EA
:103FA000A80E0020AC0B00200000C8421401002025
:103FB00008F0C6FE054608F0F7FD00B2F749088193
:103FC000F7498868F74908F0BBFE054608F0ECFDA4
:103FD000F249C860F349F448006808F0B1FE0546AC
:103FE00008F0E2FD00B2ED490882F048006808F0F0
:103FF000DBFDEA494861EA494869EA4908F0A0FE60
:10400000054608F0D1FD00B2E44908830221E348E7
:10401000001DFFF775FF0221E048801DFFF770FFCC
:104020000221DE480830FFF76BFF0421DB480C302B
:10403000FFF766FF0221D9481030FFF761FF042126
:10404000D6481430FFF75CFF0221D4481830FFF740
:1040500057FF70BD2DE9F05F0020D5490870AA20F8
:10406000FFF7D8FBAA20FFF7D5FB0220FFF7D2FB12
:104070001E20FFF7CFFBCF49086DCF4908F060FE47
:10408000054608F091FD04B22046FFF7D1FBC9496F
:10409000486DC94908F054FE054608F085FD04B294
:1040A0002046FFF7C5FBC349886DC34908F048FEA9
:1040B000054608F079FD04B22046FFF7B9FBBD497B
:1040C000886EBE4908F03CFE834608F0D7FB0646E2
:1040D000BB4ABC4B07F0D4FE80460022BA4B08F026
:1040E000BDF8044608F024F80FFA80FA5046FFF7AE
:1040F0009FFBB049C86EB14908F022FE834608F024
:10410000BDFB8046AE4AAF4B07F0BAFE0446002224
:10411000AD4B08F0A3F8064608F00AF80FFA80FA4B
:104120005046FFF785FBA349086FA44908F008FE35
:10413000834608F0A3FB0646A14AA24B07F0A0FE67
:1041400004460022A04B08F089F8804607F0F0FFF3
:104150000FFA80FA5046FFF76BFB0020FFF768FB71
:104160000020FFF765FB0020FFF762FB91494869DB
:10417000914908F0E5FD054608F016FD04B2204619
:10418000FFF756FB8B4988698B4908F0D9FD054636
:1041900008F00AFD04B22046FFF74AFB8549C869CA
:1041A000854908F0CDFD054608F0FEFC04B2204626
:1041B000FFF73EFB7F49086A804908F0C1FD83464E
:1041C00008F05CFB80467E4A7E4B07F059FE0446B1
:1041D00000227D4B08F042F8064607F0A9FF0FFACF
:1041E00080FA5046FFF724FB7249486A734908F089
:1041F000A7FD834608F042FB8046714A714B07F0E9
:104200003FFE06460022704B08F028F8044607F0EF
:104210008FFF0FFA80FA5046FFF70AFB6549886A5C
:10422000664908F08DFD834608F028FB8046644A05
:10423000644B07F025FE04460022634B08F00EF89D
:10424000064607F075FF0FFA80FA5046FFF7F0FABE
:1042500057480078FFF7DEFAFFF701FBBDE8F09F53
:1042600070B50820594988700C20C870002008716A
:104270000021564841718171C1715548406880F0F4
:1042800000464849304608F05BFD054608F08CFCC6
:10429000010A4E4801724E48406880F0004641498C
:1042A000304608F04DFD054608F07EFCC1B2474897
:1042B000417241494748006808F042FD054608F050
:1042C00073FC010A414881723B494248006808F08A
:1042D00037FD054608F068FCC1B23C48C17235495B
:1042E000486E354908F02CFD054608F05DFC010AD2
:1042F000364801732F49486E2F4908F021FD0546C5
:1043000008F052FCC1B23148417300218173C1737E
:1043100000202E4981F8220000240AE02B4890F862
:1043200022002A49095D0844284981F82200601CBE
:10433000C4B2042CF2DB00240AE0244890F82210D6
:10434000001D005D0844214981F82200601CC4B2B0
:104350001E48C078A042F0DC1C48C078001DC1B2E5
:104360001A48FDF7F3FC012118482230FDF7EEFC56
:1043700070BD10B5002418480078401C164908701C
:1043800008460078022801DD0020087012480078F5
:10439000002856D1FFF7CBFD002425E014010020B2
:1043A0009C0C00200000C842D8000020DC00002047
:1043B000A0010020AC0B002000007A440000344330
:1043C0004AD8124DFB21094000005940300100201D
:1043D0007C0F0020E00000209F0100202048005DAD
:1043E00020490855601CC4B20A2CF7DB0A2406E0F9
:1043F0001B48801C005D1B490855601CC4B2102C72
:10440000F6DB102406E01648001D005D154908552E
:10441000601CC4B2172CF6DB0020124988750024FA
:1044200008E01048807D0F49095D08440D498875F2
:10443000601CC4B2162CF4DB17210A48FDF786FC79
:104440000CE009480078012802D1FFF703FE05E0DF
:1044500005480078022801D1FFF702FF10BD0000D7
:1044600014010020530100209F01002010B50020FE
:10447000FE49487001200870FD49FE4800F00EFF1B
:10448000FB49FC4800F0E8FFF949FA4801F0C2F89E
:10449000F749F84801F0C9F9F549F64801F0A3FADF
:1044A000F349F44801F0AFFB10BD2DE9F04F8FB098
:1044B00004460D4616461F46284608F0DFF9EE4A28
:1044C000EE4BCDE9000107F0C9FE0022EC4BCDE92F
:1044D000020107F0D5FCCDE9040107F0E3FB0690EB
:1044E00006F06CFC0D90284608F0C8F9E24AE34B50
:1044F000CDE9000107F0B2FE0022E14BCDE9020157
:1045000007F0BEFCCDE9040107F0CCFB069007F0F4
:104510000BFA0C90304608F0B1F9D74AD74BCDE9E9
:10452000000107F09BFE0022D54BCDE9020107F008
:10453000A7FCCDE9040107F0B5FB069006F03EFCB0
:104540008046304608F09AF9CB4ACC4BCDE90001C1
:1045500007F084FE0022CA4BCDE9020107F090FC6F
:10456000CDE9040107F09EFB069007F0DDF98146D6
:10457000384608F083F9C04AC04BCDE9000107F086
:104580006DFE0022BE4BCDE9020107F079FCCDE9BA
:10459000040107F087FB069006F010FC82463846BF
:1045A00008F06CF9B44AB54BCDE9000107F056FEAE
:1045B0000022B34BCDE9020107F062FCCDE9040112
:1045C00007F070FB069007F0AFF9834650460D994F
:1045D00008F0B6FB0B904146504608F0B1FB0A903C
:1045E00058460D9908F0ACFB099051460C9808F01C
:1045F000A7FB089059460C9808F0A2FB07900A9870
:1046000020605946404608F09BFB606089F00040FE
:10461000A0604946089808F093FB0690099880F03E
:1046200000400590069908F055F9E0604946079862
:1046300008F086FB06900B9908F04CF92061414682
:104640000C9808F07DFB606149460B9808F078FBF8
:104650000690079908F03EF9A0614946099808F0CC
:104660006FFB0690089880F000400590069908F0CE
:1046700031F9E06140460D9908F062FB20620FB00D
:10468000BDE8F08F10B57F48808B784948807D4821
:10469000018C764881807B48818C7448C180794840
:1046A000008A724908817748818A7048418175483B
:1046B000018B6E4881817348406C6C494861714838
:1046C000816C6A4881616F48C16C6848C1616D48FE
:1046D000806B664908626B48C16B644841626948F7
:1046E000016C624881620246916B506908F0EEFCF1
:1046F000044600F060FE5D4908650A46D16B90698A
:1047000008F0E4FC044600F034FF584948650A46C6
:10471000116CD06908F0DAFC044601F035F8534911
:1047200088650A46516C106A08F0D0FC044601F016
:1047300009F94E4988660A46916C506A08F0C6FC31
:10474000044601F00FFA4949C8660A46D16C906ADE
:1047500008F0BCFC044601F0E3FA444908674A4803
:104760004068C1F8AC0048480068C1F8A800464855
:104770008068C1F8B0000846D0F8B030D0F8AC205E
:10478000D0F8A8107430FFF790FE10BD2DE9F04767
:104790000026002400270025A046FEF784FB85B2F2
:1047A0003A480088281A87B23948007898B9012019
:1047B0003749087000BF0CE00020364941F824005A
:1047C000354941F824003549088028494870601C63
:1047D000C4B2032CF0DB0A2F74DB30480088B0F53C
:1047E000967F25DA002419E0204A143252F824106A
:1047F000284A52F8240008F06DF8264941F82400B0
:104800001A4A203252F82410234A52F8240008F0A1
:1048100061F8214941F82400601CC4B2032CE3DB99
:104820001E480088401C1D4908801848058049E042
:1048300000243AE01948008808F03AFA8146154900
:1048400051F82400494608F0B9F80849383141F8D0
:1048500024001248008808F02BFA81460E4951F8CE
:104860002400494608F0AAF8004919E0AC0B0020E2
:104870000000F0410000C8424AD8124DFB21094017
:1048800000806640EC090020D0090020A60100202D
:10489000AA0100206C0C0020780C0020A40100204C
:1048A000443141F82400601CC4B2032CC2DBFE4931
:1048B000086CFE4908F00AFCFB4908640020FC492A
:1048C000087001263046BDE8F0872DE9F84FF6481C
:1048D000801CFBF772FFF4480830FBF78FFF4FF0A6
:1048E000000A33E0F049891C31F91A0008F098F900
:1048F00005464FF0665108F023FA0446EB4908F0EC
:104900001FFAE949143141F82A000C3931F91A002B
:1049100008F086F9E749009008F012FA834607F09C
:10492000ADFF0646E44AE54B07F098FC044600223A
:10493000E34B07F0A5FA804607F0B4F9DA492031D5
:1049400041F82A000AF1010000F0FF0ABAF1030F52
:10495000C8DBD54A916B506908F0B8FB044600F0FB
:104960002AFDD14908650A46D16B906908F0AEFB73
:10497000044600F0FEFDCC4948650A46116CD0693A
:1049800008F0A4FB044600F0FFFEC7498865086AEA
:1049900000F0D8FFC4498866486A01F0E3F8C249CC
:1049A000C866886A01F0BCF9BF490867BDE8F88F9E
:1049B0002DE9F0470026B046002709E0BA48801CE0
:1049C000FBF7FBFEB848B0F906000644781CC7B2F6
:1049D000052FF3DB304608F06BF98146B94907F043
:1049E000EDFF05464FF0665108F0AAF90446AF49BD
:1049F00008F0A6F9AC49C8610A46116CD06908F004
:104A000065FB8046404607F039FF0446AE4AAF4B8F
:104A100007F022FD0CD2404607F030FF0446AC4AB6
:104A2000AC4B07F0DFFB03D201209F49087002E086
:104A300000209D4908709C480078BDE8F0872DE96A
:104A4000FF5F04460D46D5F800906E68AF68D5F854
:104A50000C803146304608F073F9039039463846E9
:104A600008F06EF983464146404608F069F9029025
:104A70005846029907F02EFF4FF08041019008F050
:104A80005FF982464FF07E5108F08EFA2060414671
:104A9000484608F055F939460190304608F050F97B
:104AA0000090019907F016FF82464FF0804108F010
:104AB00047F9E0603946484608F042F9414601901E
:104AC000304608F03DF90090019908F0FFFA82465F
:104AD0004FF0804108F034F9A0614146484608F0A3
:104AE0002FF939460190304608F02AF900900199D3
:104AF00008F0ECFA82464FF0804108F021F960603E
:104B0000DDE9021007F0E6FE4FF08041019008F069
:104B100017F982464FF07E5108F046FA206131467F
:104B2000484608F00DF941460190384608F008F96A
:104B30000090019907F0CEFE82464FF0804108F0C8
:104B4000FFF8E0613946484608F0FAF8414601901E
:104B5000304608F0F5F80090019907F0BBFE824658
:104B60004FF0804108F0ECF8A0603146484608F06C
:104B7000E7F841460190384608F0E2F800900199C4
:104B800008F0A4FA82464FF0804108F0D9F860613D
:104B90005946039807F09EFE4FF08041019008F0BF
:104BA000CFF882464FF07E5108F0FEF92062BDE852
:104BB000FF9F2DE9F04F85B004460D4616461F466F
:104BC000304606F0FBF88246304606F0ADFE8046E1
:104BD000284606F0A9FE0490284606F0EFF8039058
:104BE000384606F0A1FE0290384606F0E7F801903C
:104BF0005046019908F0A4F82060DDE9021008F0A1
:104C00009FF883464146049808F09AF8009001996D
:104C100008F096F88146594608F058FA6060029903
:104C2000049808F08DF883464146039808F088F808
:104C30000090019908F084F88146594607F04AFE31
:104C4000A0605046029908F07BF8E0600199039853
:104C500008F076F883464146049808F071F8009011
:104C6000029908F06DF88146594607F033FE20613D
:104C70000199049808F064F883464146039808F0C7
:104C80005FF80090029908F05BF88146594608F0F9
:104C90001DFA606188F00040A0615146049808F058
:104CA0004FF8E061514617E0AC0B00200AE81C41C8
:104CB000AA01002000007A3D4AD8124DFB2109408C
:104CC000008066400000A040666666A667832340B9
:104CD0009A9999D99AB62340039808F031F820623E
:104CE00005B0BDE8F08F2DE9F04705460C464FF0C2
:104CF0007E50216807F0EEFD8146216907F0EAFD4C
:104D00008046216A07F0E6FD074606F0F9FE0646F2
:104D10004FF07C5108F014F828604FF07E50216865
:104D200007F0D8FD8146216908F0D0F98046216A54
:104D300008F0CCF9074606F0E3FE06464FF07C513A
:104D400007F0FEFF68604FF07E50216808F0BEF962
:104D50008146216907F0BEFD8046216A08F0B6F958
:104D6000074606F0CDFE06464FF07C5107F0E8FFFF
:104D7000A8604FF07E50216808F0A8F981462169AB
:104D800008F0A4F98046216A07F0A4FD074606F062
:104D9000B7FE06464FF07C5107F0D2FFE860BDE851
:104DA000F08730B502460B46002013E000210DE0ED
:104DB00001EB410403EB840454F8204000EB400570
:104DC00002EB850545F821404C1CE1B20329EFDBDD
:104DD000441CE0B20328E9DB30BD2DE9F04705466D
:104DE0000F46904600241BE0002045F824000026D2
:104DF00012E004EB440207EB820252F8260058F856
:104E0000261007F09DFF814655F8241007F062FD3B
:104E100045F82400701CC6B2032EEADB601CC4B245
:104E2000032CE1DBBDE8F0872DE9F0478AB081462D
:104E30000F469046002435E000252FE0002004EBCB
:104E4000440101AA02EB810141F82500002621E07E
:104E500006EB460208EB820252F8251004EB4402EE
:104E600007EB820252F8260007F06AFF824604EB45
:104E7000440001AA02EB800050F82510504607F0CC
:104E800029FD04EB440101AA02EB810141F8250050
:104E9000701CC6B2032EDBDB681CC5B2032DCDDB54
:104EA000601CC4B2032CC7DB242201A9484605F0CC
:104EB00032F90AB0BDE8F0872DE9F04105460E460B
:104EC000002700240CE056F8241055F8240007F0C1
:104ED00037FF8046394607F0FDFC0746601CC4B228
:104EE000032CF0DB3846BDE8F0812DE9FE43064691
:104EF0000C4615466968A06807F022FF0746A968B6
:104F0000606807F01DFF8046394608F0DFF8009022
:104F1000A968206807F014FF07462968A06807F011
:104F20000FFF8046394608F0D1F801902968606883
:104F300007F006FF07466968206807F001FF804612
:104F4000394608F0C3F802909DE8070086E807009C
:104F5000BDE8FE832DE9F04705460C462846A168CA
:104F600007F0EEFE8246294607F0EAFE80464FF043
:104F7000804107F023FD07462846616807F0E0FE00
:104F80008146394607F0A6FC0646216807F0A2FCD8
:104F900020602846A16807F0D3FE0646616807F046
:104FA00099FC6060BDE8F0872DE9FF4F87B090461F
:104FB0009946DDF850A05146079807F0C1FE044617
:104FC000089907F0BDFE069058F82900069907F0E9
:104FD00081FC48F82900B9F1000F2CD15046069900
:104FE00007F0AEFE0446D8F8041007F073FCC8F8CA
:104FF00004005146504607F0A3FE0190069907F0C1
:105000009FFE834607F03AFC06460022914B06F0CD
:1050100037FFCDE90401D8F8080007F02FFCCDE9EF
:105020000201DDE9042306F06FFE044606F03AFEB5
:10503000C8F808000DE0B9F1010F0AD150460699F1
:1050400007F07EFE0446D8F8081007F043FCC8F8C5
:1050500008000BB0BDE8F08F2DE9FF47002001905C
:1050600002900390FDF7F1FE06467B48006848B1C8
:1050700079490968701A07F01BFE8046774907F0E6
:105080009DFC00E0002007467348066074480078E5
:1050900008B9BDE8FF877348407800B9F9E772485E
:1050A000007878B171480168002008F00FF8804658
:1050B0006F480168404608F009F86E490860002012
:1050C000694908706C480078002854D06B4A116810
:1050D000644A106D07F0FAFF62490865674A516833
:1050E000604A506D07F0F2FF5E494865634A916877
:1050F0005C4A906D07F0EAFF5A498865002423E076
:1051000000205F4941F82400002519E005EB450324
:10511000544A743202EB830252F82400514A50324E
:1051200052F8251007F00CFE8046554850F8241020
:10513000404607F0CFFB524941F82400681CC5B235
:10514000032DE3DB601CC4B2032CD9DB4C48806820
:1051500080F000404A49886088684A4907F0BAFBF5
:10516000804643488168404607F0B0FF4649886062
:10517000002041490870454801683E48006807F032
:10518000DFFD814641480168484607F0D9FD804669
:10519000039907F009FF039000242EE04FF0000868
:1051A000002513E004EB44032E4A743202EB830221
:1051B00052F8250001AA52F8251007F0C1FD8146DA
:1051C000414607F087FB8046681CC5B2032DE9DB2A
:1051D0002F480168404607F0B3FD8246394607F084
:1051E000AFFD8146254850F82410484607F072FB71
:1051F000224941F82400601CC4B2032CCEDB1F48B6
:10520000806880F000401D49886019493846FFF7E2
:10521000A1FE1E4800680023154A39460090154833
:105220000068FFF7C1FE1B48006817490090022381
:105230000F4A88683946FFF7B7FE0D4800681649DF
:1052400088600B484068486109488068086200BF70
:105250001FE7000000000840C80100200024744936
:105260009A000020AC0B00209B000020E0000020F2
:10527000C00C0020C401002024000020900C00205D
:10528000B80100200AE81C41840C0020AC01002079
:10529000B4010020B00100209C0C00202DE9FE4F3D
:1052A0008246884600200290814601904146504641
:1052B00007F084FB0290029807F0E0FA06463246B7
:1052C0000B46FE48FE4906F0DBFD044606F0EAFC0C
:1052D000834606F02BFC81464946484607F030FDE0
:1052E0000746F84805F06AFD83464FF0804107F015
:1052F00027FD0646494607F023FD05464FF07E513F
:1053000007F0E8FA0446394607F0E4FA0190EE485F
:10531000C0F800800021006807F0E5FD49D2494649
:10532000484607F00DFD0446019907F047FBE749A1
:105330000860084601684FF0804007F001FDE4492D
:105340000860E2480068E34908604946484607F0BB
:10535000F7FC06464FF07E5107F0B8FE05464FF0C9
:10536000804107F0EDFC0446019907F027FBDA497C
:1053700008604946484607F0E3FC0090D14805F034
:105380001DFD83464FF0804107F0DAFC0746494691
:1053900007F0D6FC06464FF07E5107F005FE0546A5
:1053A000009907F097FA0446019907F007FBCB49EB
:1053B0000860BDE8FE8F2DE9F04704460025002671
:1053C0000021C148006807F087FC02D82046BDE8EC
:1053D000F087C2480168C248006807F0B1FC804607
:1053E000BD480168BF48006807F0AAFC8146214615
:1053F00007F0DAFD0746414607F068FE05462846F5
:1054000005F035F818B9284605F027F800B125460B
:10541000B0480168B248006807F092FC8046AC488A
:105420000168B048006807F08BFC8146A748016816
:10543000284607F085FC8246494607F04BFA0746A6
:10544000414607F047FA0646A6480068A4490860A6
:10545000A44805603046BAE72DE9FE4F82468846EB
:1054600000200290814601904146504607F0A6FA7E
:105470000290029807F002FA064632460B468F4821
:105480008F4906F0FDFC044606F00CFC834606F04E
:105490004DFB81464946484607F052FC074689487D
:1054A00005F08CFC83464FF0804107F049FC06462E
:1054B000494607F045FC05464FF07E5107F00AFAD1
:1054C0000446394607F006FA01908748C0F8008084
:1054D0000021006807F007FD49D24946484607F019
:1054E0002FFC0446019907F069FA804908600846D4
:1054F00001684FF0804007F023FC7D4908607B483D
:1055000000687C4908604946484607F019FC064691
:105510004FF07E5107F0DAFD05464FF0804107F06D
:105520000FFC0446019907F049FA7349086049469F
:10553000484607F005FC0090624805F03FFC8346B2
:105540004FF0804107F0FCFB0746494607F0F8FBA7
:1055500006464FF07E5107F027FD0546009907F0FB
:10556000B9F90446019907F029FA64490860BDE8D1
:10557000FE8F2DE9F04704460025002600215A48F9
:10558000006807F0A9FB02D82046BDE8F0875B4819
:1055900001685B48006807F0D3FB80465648016805
:1055A0005848006807F0CCFB8146214607F0FCFC18
:1055B0000746414607F08AFD0546284604F057FF96
:1055C00018B9284604F049FF00B12546494801684A
:1055D0004B48006807F0B4FB8046454801684948DD
:1055E000006807F0ADFB814640480168284607F097
:1055F000A7FB8246494607F06DF90746414607F08A
:1056000069F906463F4800683D4908603D48056025
:105610003046BAE72DE9FE4F8246884600200290C8
:10562000814601904146504607F0C8F90290029821
:1056300007F024F9064632460B462048204906F07A
:105640001FFC044606F02EFB834606F06FFA8146E7
:105650004946484607F074FB07461A4805F0AEFB7A
:1056600083464FF0804107F06BFB0646494607F042
:1056700067FB05464FF07E5107F02CF9044639468A
:1056800007F028F901902048C0F800800021006848
:1056900007F029FC76D24946484607F051FB0446FC
:1056A000019907F08BF919490860084601684FF025
:1056B000804007F045FB164908602BE04AD8124DA0
:1056C000FB210940DA0F493FD0010020DC01002016
:1056D000E0010020E4010020D4010020D8010020D6
:1056E000EC010020E8010020F0010020FC01002076
:1056F0000002002004020020F4010020F801002034
:105700000C02002008020020100200201C020020D1
:1057100020020020FA480068FA49086049464846D5
:1057200007F00EFB06464FF07E5107F0CFFC054612
:105730004FF0804107F004FB0446019907F03EF961
:10574000F14908604946484607F0FAFA0090EF48E8
:1057500005F034FB83464FF0804107F0F1FA07462D
:10576000494607F0EDFA06464FF07E5107F01CFC63
:105770000546009907F0AEF80446019907F01EF9B6
:10578000E3490860BDE8FE8F2DE9F0470446002597
:1057900000260021DF48006807F09EFA02D8204664
:1057A000BDE8F087DA480168DB48006807F0C8FA0E
:1057B0008046D5480168D948006807F0C1FA81469B
:1057C000214607F0F1FB0746414607F07FFC0546FE
:1057D000284604F04CFE18B9284604F03EFE00B1FD
:1057E0002546C8480168CC48006807F0A9FA8046F9
:1057F000CB480168C948006807F0A2FA8146C04852
:105800000168284607F09CFA8246494607F062F88C
:105810000746414607F05EF80646C0480068BE49A4
:105820000860BE4805603046BAE72DE9FE4F824663
:10583000884600200290814601904146504607F07C
:10584000BDF80290029807F019F8064632460B465A
:10585000B448B54906F014FB044606F023FA834623
:1058600006F064F981464946484607F069FA07465A
:10587000A64805F0A3FA83464FF0804107F060FA8E
:105880000646494607F05CFA05464FF07E5107F0A0
:1058900021F80446394607F01DF80190A348C0F8E6
:1058A00000800021006807F01EFB49D249464846A7
:1058B00007F046FA0446019907F080F89C49086011
:1058C000084601684FF0804007F03AFA99490860AD
:1058D00097480068984908604946484607F030FAFA
:1058E00006464FF07E5107F0F1FB05464FF0804130
:1058F00007F026FA0446019907F060F88F4908601E
:105900004946484607F01CFA0090804805F056FAD0
:1059100083464FF0804107F013FA0746494607F0E7
:105920000FFA06464FF07E5107F03EFB0546009900
:1059300006F0D0FF0446019907F040F8804908605E
:10594000BDE8FE8F2DE9F047044600250026002122
:105950007648006807F0C0F902D82046BDE8F08715
:10596000774801687748006807F0EAF9804673488D
:1059700001687548006807F0E3F98146214607F0A1
:1059800013FB0746414607F0A1FB0546284604F0F5
:105990006EFD18B9284604F060FD00B12546664842
:1059A00001686848006807F0CBF9804661480168E3
:1059B0006548006807F0C4F981465D4801682846DB
:1059C00007F0BEF98246494606F084FF0746414685
:1059D00006F080FF06465C4800685A4908605A484D
:1059E00005603046BAE72DE9FE4F82468846002022
:1059F0000290814601904146504606F0DFFF02903A
:105A0000029806F03BFF064632460B46454846499B
:105A100006F036FA044606F045F9834606F086F8A5
:105A200081464946484607F08BF90746374805F056
:105A3000C5F983464FF0804107F082F90646494692
:105A400007F07EF905464FF07E5106F043FF04460D
:105A5000394606F03FFF01903C48C0F80080002125
:105A6000006807F040FA49D24946484607F068F90D
:105A70000446019906F0A2FF35490860084601680E
:105A80004FF0804007F05CF9324908603048006808
:105A9000314908604946484607F052F906464FF03A
:105AA0007E5107F013FB05464FF0804107F048F99F
:105AB0000446019906F082FF284908604946484695
:105AC00007F03EF90090114805F078F983464FF051
:105AD000804107F035F90746494607F031F9064697
:105AE0004FF07E5107F060FA0546009906F0F2FE8D
:105AF0000446019906F062FF19490860BDE8FE8F6F
:105B00001C0200202402002014020020DA0F493F6A
:105B100018020020100200202C0200202802002081
:105B2000200200204AD8124DFB21094030020020FB
:105B30003C020020400200204402002034020020E9
:105B4000380200204C0200204802002050020020B1
:105B50005C02002060020020640200205402002049
:105B6000580200202DE9F0470446002500260021B8
:105B70009448006807F0B0F802D82046BDE8F087E6
:105B8000914801689148006807F0DAF8804690482B
:105B900001689048006807F0D3F88146214607F075
:105BA00003FA0746414607F091FA0546284604F0F5
:105BB0005EFC18B9284604F050FC00B12546864822
:105BC00001688248006807F0BBF880468348016896
:105BD0008048006807F0B4F881468148016828468B
:105BE00007F0AEF88246494606F074FE0746414685
:105BF00006F070FE064677480068744908607548EC
:105C000005603046BAE72DE9FE4F824688460020FF
:105C10000290814601904146504606F0CFFE029028
:105C2000029806F02BFE064632460B466D486E493A
:105C300006F026F9044606F035F8834605F076FFAF
:105C400081464946484607F07BF80746674805F015
:105C5000B5F883464FF0804107F072F80646494692
:105C600007F06EF805464FF07E5106F033FE04460D
:105C7000394606F02FFE01905D48C0F800800021F3
:105C8000006807F030F949D24946484607F058F80D
:105C90000446019906F092FE5649086008460168DC
:105CA0004FF0804007F04CF85349086051480068B5
:105CB000524908604946484607F042F806464FF008
:105CC0007E5107F003FA05464FF0804107F038F89F
:105CD0000446019906F072FE494908604946484663
:105CE00007F02EF80090414805F068F883464FF021
:105CF000804107F025F80746494607F021F8064697
:105D00004FF07E5107F050F90546009906F0E2FD8C
:105D10000446019906F052FE3A490860BDE8FE8F3C
:105D20002DE9F04704460025002600213048006890
:105D300006F0D2FF02D82046BDE8F087314801685E
:105D40003148006806F0FCFF80462D4801682F4866
:105D5000006806F0F5FF8146214607F025F9074661
:105D6000414607F0B3F90546284604F080FB18B910
:105D7000284604F072FB00B12546204801682248FD
:105D8000006806F0DDFF80461B4801681F48006878
:105D900006F0D6FF814617480168284606F0D0FF76
:105DA0008246494606F096FD0746414606F092FDBA
:105DB00006461648006814490860144805603046D5
:105DC000BAE7000050020020580200206C020020B8
:105DD00054020020680200206402002060020020BB
:105DE0005C0200204AD8124DFB210940DA0F493FDE
:105DF000700200207C02002080020020840200202B
:105E000074020020780200208C020020880200200A
:105E100010B50222B849B948FBF728FEB649086810
:105E200006F0C2FE00B2012800D110BD0020FCE740
:105E300010B50222B049B148FBF729FE10BD10B5DC
:105E400029246200AC49AD48FBF710FE10BD10B527
:105E500029246200A849A948FBF719FE10BD10B516
:105E6000002400BF48E0A448001D50F82400A449C5
:105E700041F82400A0481C3050F82400A14941F802
:105E800024009D48343050F824009F4941F82400F4
:105E90009948103050F824009C4941F82400964855
:105EA000283050F824009A4941F8240092484030A4
:105EB00050F82400974941F824008F484C3050F89E
:105EC0002400954941F824008B48583050F82400AC
:105ED000924941F824008848643050F824109048D2
:105EE00040F824108448703050F824108C480C304E
:105EF00040F82410601CC4B2032CB4DB002409E079
:105F00007D49883151F8240006F06AFE854908551C
:105F1000601CC4B2052CF3DB7748D0F89C008249A2
:105F200008607549D1F8A00006F05AFE7F49087054
:105F300010BD70B5002400BF51E0714850F8241026
:105F40006D48001D40F824106E4850F8245050F859
:105F5000241069481C3040F824106A4850F8241076
:105F600065481C3040F82410674850F824106248F7
:105F7000343040F82410654850F824105E48103042
:105F800040F82410624850F824105B48283040F84C
:105F90002410604850F824105748403040F824102E
:105FA0005D4850F8241054484C3040F824105B48A9
:105FB00050F824105048583040F82410584850F8F1
:105FC00024104D48643040F8241055480C3050F8E7
:105FD00024104948703040F82410601CC4B2032CCF
:105FE000ABDB002409E04F49085D06F061FE424941
:105FF000883141F82400601CC4B2052CF3DB4A4808
:1060000000683D49C1F89C004848007806F050FE01
:106010003949C1F8A00070BD4548394908600020E1
:1060200048608860434848624348384908604FF0F8
:106030007C504860414888603E4848623C4831494D
:1060400008600020486088603A4848623A48304911
:1060500008604FF07C504860384888603548486296
:106060004FF07E502849086035484860002088601D
:106070003448284908600020486088604FF07E500E
:10608000254908600020486088602F48234908603F
:106090002E484860002088602D482149383988639F
:1060A0002C491F483838C1632B4901642B481C49CF
:1060B000383948642A491A48383881640021C16453
:1060C000704710B5FFF7A4FE20B1FFF7B8FEFFF749
:1060D000C6FE09E0FFF7A0FFFFF72BFF4FF07E5051
:1060E00005490860FFF7B3FE10BD10B5FFF721FFAB
:1060F000FFF7ADFE10BD0000CC0C002000FC000836
:10610000880D0020E80D0020480E0020B80D00206A
:10611000180E0020780E0020A80E0020D80E0020B7
:10612000E40B0020480000207C00002091030020A8
:1061300000006040000096433333333F8FC2F53C8C
:10614000CDCC4C3E0000A041CDCCCC3D0AD7A33CE9
:10615000D4F025BECB00983D0139463F82C179BDC0
:1061600042D91ABD2DE9F05F04464FF07F574FF03A
:106170007C51204606F0E4FD824625462E46FE4828
:10618000A0EB660635462946504606F0D9FD834603
:10619000294606F0D5FD8146394606F005FF8046C2
:1061A000294606F0CDFD05462846BDE8F09F2DE9BD
:1061B000FF4F8DB00F461646984686F0004B584666
:1061C00006F05CFB87F0004BCDE90001584606F075
:1061D00055FB0446DDE9002304F006FCCDE902018D
:1061E00005F060FD0C9086F0004B584606F046FB2B
:1061F000CDE902010D9806F041FBCDE90001DDE992
:10620000022304F0F1FB044605F04CFD0B900C98C2
:1062100004F0D4FD81460C9805F086FB82460B986D
:1062200004F0CCFD0A900B9805F07EFB09904946DE
:106230001B9806F085FD8346099906F081FD04460A
:1062400051461A9806F07CFD0290099906F078FDF7
:10625000834640460A9906F073FD5946039006F0BE
:1062600039FB0546214606F035FB089051461B9840
:1062700006F066FD044649461A9806F061FD05469B
:10628000214606F023FF0790079880F0004420463F
:10629000089904F069FC06904FF07C510C9806F0C8
:1062A0004FFD044604F08AFD81464FF07C510C9866
:1062B00006F046FD044605F037FB82464FF07C5160
:1062C0000B9806F03DFD044604F078FD0A904FF06F
:1062D0007C510B9806F034FD044605F025FB09902F
:1062E0004FF07C51069806F02BFD044604F066FD45
:1062F00005904FF07C51069806F022FD044605F00B
:1063000013FB04905046099906F01AFD8346049940
:1063100006F016FD044648460A9906F011FD83462C
:10632000059906F00DFD0546214606F0D3FA93497E
:1063300008604846099906F003FD8346049906F073
:10634000FFFC044650460A9906F0FAFC834605997C
:1063500006F0F6FC0546214606F0B8FE88490860BE
:1063600050460A9906F0ECFC8346049906F0E8FCD6
:1063700004464846099906F0E3FC8346059906F071
:10638000DFFC0546214606F0A5FA7E490860504626
:10639000099906F0D5FC8346059906F0D1FC044620
:1063A00048460A9906F0CCFC8346049906F0C8FCDE
:1063B0000546214606F08AFE734908606F48016869
:1063C000006806F0BDFC714908606D4801686B48C3
:1063D000006806F0B5FC6E4908606A4801686748C5
:1063E000006806F0ADFC6B490860674801686348C7
:1063F000006806F0A5FC684908606148016800680B
:1064000006F09EFC654908605E4801685C480068CB
:1064100006F096FC624908605B48016858480068CD
:1064200006F08EFC5F49086056480168006806F077
:1064300087FC5D490860544801685248006806F0CE
:106440007FFC5A49086050480168006806F078FCF3
:106450005749086011B0BDE8F08F0FB595B0002026
:106460001290119010905348007858B9DDE91D0141
:10647000CDE900011AA90EC91898FFF798FE01206E
:106480004C49087000211C9806F05AFB09D10021E4
:106490001D9806F055FB04D100211E9806F050FB14
:1064A00068D01E99084606F04BFC06901D990846D8
:1064B00006F046FC04901C99084606F041FC039047
:1064C000049906F007FA0590069906F003FA07907A
:1064D000FFF748FE139013991C9806F031FC1C90AE
:1064E00013991D9806F02CFC1D9013991E9806F028
:1064F00027FC1E90274801682A48006806F0EAF940
:1065000004901E9906F01CFC06902348016824485C
:10651000006806F0DBFD02901D9906F011FC049066
:10652000214801684FF07C5006F0D0FD01902048D2
:106530000168019806F0CAFD02901C9906F000FC63
:106540000390049906F0C6F90590069906F0C2F981
:106550004FF08041079006F0F3FB0F900C48016864
:106560001248006806F0B2FD04901E9906F0E8FBA0
:10657000069021E036E10000865A375F9402002041
:10658000980200209C020020A0020020C4020020EB
:10659000C8020020CC020020D0020020D40200203B
:1065A000D8020020DC020020E0020020E4020020EB
:1065B000E8020020B4020020FE4801684FF07C5041
:1065C00006F084FD0190FC480168019806F07EFD0C
:1065D00002901D9906F0B4FB0490F8480168F84851
:1065E000006806F077F902901C9906F0A9FB039069
:1065F000049906F06FF90590069906F06BF94FF0D3
:106600008041079006F09CFB0E90EA4801684FF02D
:106610007C5006F05BFD0390EA480168039806F0A1
:1066200055FD05904FF080401E9906F089FB0490BF
:10663000059906F085FB0790E3480168E348006888
:1066400006F048F903904FF080401D9906F078FB62
:106650000290039906F074FB0590DD480168DD485F
:10666000006806F033FD03904FF080401C9906F05F
:1066700067FB0290039906F063FB0490059906F00E
:1066800029F90690079906F025F90D900E9908460C
:1066900006F056FB02900F99084606F051FB019058
:1066A000029906F017F9039006F0E8F8CDE9040125
:1066B00005F000FACDE9060105F0F4FA0C900D980A
:1066C0000B90C3480168C348006806F0FFFC0590C2
:1066D0000B9906F035FB0790BA4801684FF07C50E3
:1066E00006F0F4FC0490B4480168049806F0EEFC4F
:1066F00005900C9906F024FB0690079906F0EAF83D
:106700000A90B2480168B048006806F0E3F80590C6
:106710000B9906F015FB0790A8480168A848006887
:1067200006F0D4FC05900C9906F00AFB0690079938
:1067300006F0D0F809909F4801684FF07C5006F0B1
:10674000C5FC04909F480168049806F0BFFC0590C2
:106750000B9906F0F5FA07909E4801689C4800687E
:1067600006F0B8F805900C9906F0EAFA0690079939
:1067700006F0B0F8089009991E9806F0E1FA069024
:1067800008991D9806F0DCFA0590069906F09EFC23
:106790000790129906F09EF8129008991C9806F03E
:1067A000CFFA06900A991E9806F0CAFA0590069943
:1067B00006F08CFC0790119906F08CF811900A995C
:1067C0001D9806F0BDFA069009991C9806F0B8FAD3
:1067D0000590069906F07AFC0790109906F07AF871
:1067E000109000BF0021189806F0AAF909D10021E5
:1067F0001A9806F0A5F904D100211B9806F0A0F91B
:106800007CD000200C901B99084606F099FA0A905B
:106810001A99084606F094FA08901899084606F066
:106820008FFA0790089906F055F809900A9906F032
:1068300051F80B90FFF796FC13901399189806F0F7
:106840007FFA189013991A9806F07AFA1A90139909
:106850001B9806F075FA1B905D4801685D4800685A
:1068600006F034FC0F90594801685748006806F05C
:1068700031F80E904FF07C515748006806F026FC26
:106880000B904D4801680B9806F024F80D900E9976
:106890001B9806F055FA0A900D991A9806F050FACE
:1068A00009900A9906F012FC0B90129906F012F862
:1068B00012900D99189806F043FA0A900F991B98B8
:1068C00006F03EFA09900A9906F000FC0B90119927
:1068D00006F000F811900F991A9806F031FA0A9014
:1068E0000E99189806F02CFA09900A9906F0EEFB1A
:1068F0000B90109905F0EEFF109000BF0021129848
:1069000006F01EF96CD00021119806F019F9F9D0A3
:106910000021109806F014F9F4D00021209806F018
:10692000E2FA66D21299209806F00AFA0E9021999E
:1069300006F006FA0F902948006801460E900F985D
:1069400005F0C8FF254908601199209806F0F8F96C
:106950000E90219906F0F4F90F9020484068014606
:106960000E900F9805F0B6FF1C49486010992098CA
:1069700006F0E6F90E90219906F0E2F90F9017481B
:10698000806801460E900F9805F0A4FF13498860B7
:106990000846006801460F90159805F09BFF15907A
:1069A0000E48406801460F90169805F093FF169028
:1069B0000A4816E0D4020020E8020020D00200209D
:1069C000D8020020E0020020C8020020E4020020DB
:1069D000CC020020DC020020C4020020700D002048
:1069E00027E0806801460F90179805F073FF179015
:1069F00004E00020FC4908604860886012991F98F4
:106A000006F09EF90F90159905F064FF1590119905
:106A10001F9806F095F90F90169905F05BFF1690F8
:106A200010991F9806F08CF90F90179905F052FFF6
:106A30001790EE481799006806F082F90E90EC481E
:106A40001699006806F07CF90C90EA48006880F01E
:106A500000400A90159906F073F90B900C9906F016
:106A600035FB0D900E9906F031FB4FF07C510F90E5
:106A700006F066F9E0490860DC481699006806F0FF
:106A80005FF90E90DA481799006806F059F90C90F2
:106A9000DA480168159806F053F90B900C9905F047
:106AA00019FF0D900E9906F011FB4FF07C510F90DD
:106AB00006F046F9D2490860CC480168159806F0FE
:106AC0003FF90E90CB481799006806F039F90C9001
:106AD000CA481699006806F033F90B900C9906F035
:106AE000F5FA0D900E9905F0F5FE4FF07C510F90E0
:106AF00006F026F9C3490860BD480168159806F0FC
:106B00001FF90E90BB481699006806F019F90C9011
:106B1000BA481799006806F013F90B900C9905F024
:106B2000D9FE0D900E9906F0D1FA4FF07C510F90DE
:106B300006F006F9B4490860AF480168219806F0EC
:106B4000FFF80F90AD4801680F9805F0C3FEAB4900
:106B50000860AB480168219806F0F2F80F90A5484C
:106B600001680F9805F0B6FEA2490860A5480168C3
:106B7000219806F0E5F80F909D4801680F9805F000
:106B8000A9FE9B490860A0480168219806F0D8F842
:106B90000F90964801680F9805F09CFE9349086095
:106BA00008460168006806F0CBF80E90904801682E
:106BB000006806F0C5F80C908E480168006806F081
:106BC000BFF80A908D480168006806F0B9F809908E
:106BD0000A9905F07FFE0B900C9905F07BFE0D9055
:106BE0000E9905F077FE0F90FFF7BCFA13908348DB
:106BF0001399006806F0A4F8804908607D4813994D
:106C0000006806F09DF87B49086079481399006890
:106C100006F096F87649086074481399006806F003
:106C20008FF87249086075480168006806F088F8B6
:106C3000764908606F4801687048006806F080F87F
:106C4000734908606A4801686C48006806F078F883
:106C500070490860654801686848006806F070F887
:106C60006D49086063480168006806F069F86B497F
:106C700008605F4801685F48006806F061F868498D
:106C800008605A4801685B48006806F059F8654991
:106C9000086057480168006806F052F862490860C9
:106CA000524801685248006806F04AF85F49086097
:106CB0004E480168006806F043F85D49086019B065
:106CC00000BD2DE9F04F9DB0DFF868A100201A90BB
:106CD0001B901C902422584911A803F01CFA002094
:106CE0000E900F9010900B900C900D9008900990C2
:106CF0000A90FCF7AAF881465048006850B14F4905
:106D00000968A9EB010005F0D3FF04464C4905F0E2
:106D100055FE00E0002082464848C0F80090FDF78C
:106D2000D4FD4848407800285CD14748006810B935
:106D30004548C0F80090434A116A444A106805F07B
:106D4000C9FD424908603F4A516A404A506805F00F
:106D5000C1FD3E4948603B4A916A3C4A906805F053
:106D6000B9FD3A4988603A480088401C3849088093
:106D70003548006837490844814530D9344800888F
:106D800005F096FF044631490868214605F016FED5
:106D90002C4948642E48008805F08AFF04462B4998
:106DA0004868214605F00AFE26498864284800887C
:106DB00005F07EFF044625498868214605F0FEFD62
:106DC0002049C864002022490880204908604860A2
:106DD000886001201B49487000201B4908601DB0D5
:106DE000BDE8F08F38E00000700D0020A002002008
:106DF0009C02002098020020A4020020940200209F
:106E0000A8020020AC020020B0020020C402002032
:106E1000C8020020CC020020D0020020D4020020B2
:106E2000D8020020DC020020E0020020E402002062
:106E3000E80200200AD7233C64D30008B8020020EF
:106E400000247449AC0B0020BC0200207C0D002003
:106E5000C0020020C0C62D00B24A516C906E06F0F0
:106E600035F90B90AF4A916CD06E06F02FF90C906B
:106E7000AC4AD16C106F06F029F90D90A948006D4D
:106E800080F000400E90A748406D80F000400F90C9
:106E9000A448806D80F000401090109880F000446D
:106EA0000F9880F000450E9880F000469E494FF004
:106EB0007E520A98CDE9061ACDE90402DDE90810F0
:106EC000CDE90054CDE9021033460BA807C8FFF7FF
:106ED000C4FA964801689648006805F0FBFC054630
:106EE00094480168284606F0F1F804469248016883
:106EF000204606F0EBF81190904801689048006831
:106F000005F01EFF05468F4801688F48006805F0B0
:106F100017FF0646294605F0DDFC04464FF0804188
:106F200005F00EFF1290874801688548006805F05B
:106F300007FF0546814801688348006805F000FFA7
:106F40000646294606F0C2F804464FF0804105F097
:106F5000F7FE1390794801687948006805F0F0FE63
:106F60000546784801687848006805F0E9FE06465D
:106F7000294606F0ABF804464FF0804105F0E0FEEC
:106F800014906A4801686A48006806F09FF8054650
:106F900068480168284605F09DFC0446664801687B
:106FA000204606F093F81590674801686448006829
:106FB00005F0C6FE0546614801686248006805F0B4
:106FC000BFFE0646294605F085FC04464FF0804189
:106FD00005F0B6FE16905B4801685948006805F058
:106FE000AFFE0546554801685748006805F0A8FE01
:106FF0000646294605F06EFC04464FF0804105F038
:107000009FFE1790504801684D48006805F098FEB3
:1070100005464A4801684B48006805F091FE06465F
:10702000294606F053F804464FF0804105F088FEEB
:1070300018903E4801683E48006806F047F805464B
:107040003C480168284606F041F804463A48016881
:10705000204605F03FFC19901999169803F084FD1D
:107060001A90139803F01AFB80F000401B90DDE9A2
:10707000111003F079FD1C904FF000080AE011A8F0
:1070800050F828102748743040F8281008F1010003
:1070900000F0FF08B8F1090FF1DB22491A98C1F896
:1070A000B4001B98C1F8B8001C98C1F8BC0027496F
:1070B0001A9805F045FE834605F0E0FB0646244A93
:1070C000244B04F0DDFE044604F0ECFD1549C1F844
:1070D000A8001E491B9805F033FE834605F0CEFB41
:1070E00006461B4A1B4B04F0CBFE044604F0DAFDB7
:1070F0000C49C1F8AC0015491C9805F021FE8346E7
:1071000005F0BCFB0646124A124B04F0B9FE0446D9
:1071100004F0C8FD0349C1F8B00000BF1DB0BDE8D0
:10712000F08F0000AC0B0020CDCC4C3DD4020020F1
:10713000C4020020E0020020E8020020A00200209B
:10714000940200209C02002098020020000034439A
:107150004AD8124DFB21094070B56A49D1F8AC00FC
:1071600005F08CFB21F0004104460022664B05F03F
:1071700073F90CD36349D1F8A80005F07FFB21F027
:10718000004104460022604B05F066F908D2002356
:107190001A4619461846FAF76FF900205B4908703D
:1071A00070BD10B50024FBF77EFE59490860084603
:1071B000006858490968884205D95548006855490A
:1071C0000968401A06E053480068C0F5803050490D
:1071D0000968084484B2B4F57A7F10DD4E4800781F
:1071E00048B102204D49087040F2DC504C490880FB
:1071F00048808880C88001204A49087002E0002049
:107200004849087010BD0020474908703D48407843
:1072100008B9012008704348007810B104204249A1
:1072200008703848007810B903203F4908703F487B
:10723000007F10B102203C4908703D48007810B131
:107240000120394908703B48007828B12F48007860
:1072500010B9052034490870704710B500242E4835
:107260000078E0B13448006818B9FBF71CFE3249D9
:107270000860FBF718FE30490968441AB4F57A6FC4
:1072800015D901202549087000202049087022499D
:1072900008702949086001202649087007E001208C
:1072A0001E4908700020194908702249087010BD55
:1072B00010B51648007820B320498868204905F0A9
:1072C00012FE17D815480078D8B101201D49087062
:1072D00000201D4908601149087001200E490870FE
:1072E0001A48806880F0004019490860012002F0C7
:1072F00009F806E009480078012802D115480F492D
:10730000886010BDAC0B00200000544090030020AA
:10731000EC0200200C0100200C0300208803002058
:1073200000010020F002002018000020B009002019
:10733000A2010020F1020020F40200207C0F0020B6
:107340000000164448030020500300209C0C00203D
:107350008C0300200000484331490143314A116049
:10736000704770B5002100230F22C4780CB32D4C58
:10737000246804F4E064C4F5E064210AC1F1040364
:10738000CA40447804FA03F1847814402143090187
:10739000254C0678A155047804F01F050124AC4063
:1073A00005786D114FF0E02606EB8505C5F8004124
:1073B00009E0047804F01F050124AC401B4D067859
:1073C000761145F8264070BD194A0A400243154B14
:1073D0001B1F1A60704739B1124A121D126802430E
:1073E000104B1B1D1A6006E00E4A121D12688243E4
:1073F0000C4B1B1D1A607047042808D14FF0E02188
:10740000096941F004014FF0E022116107E04FF0FB
:10741000E021096921F004014FF0E0221161704779
:107420000000FA050CED00E000E400E080E100E07F
:1074300080FFFF1F10B50446CA48844208D10121CD
:10744000042000F025FB0021042000F021FB46E091
:10745000C548844208D10121082000F019FB002111
:10746000082000F015FB3AE0C048844208D1012111
:10747000102000F00DFB0021102000F009FB2EE091
:10748000BB48844208D10121202000F001FB0021EB
:10749000202000F0FDFA22E0B648844208D1012104
:1074A000402000F0F5FA0021402000F0F1FA16E04B
:1074B000B148844208D10121802000F0E9FA00217E
:1074C000802000F0E5FA0AE0AC48844207D10121AF
:1074D000801500F0DDFA0021A01500F0D9FA10BDEA
:1074E00010B50121084600F0D3FA0021012000F078
:1074F000CFFA10BD2DE9F0410246002500260020FC
:1075000000230024002791F803C00CF00F0591F828
:1075100003C01CF0100F03D091F802C04CEA05051F
:10752000B1F800C01CF0FF0F31D0146800202BE030
:107530004FF0010C0CFA00F3B1F800C00CEA03069E
:107540009E4220D183004FF00F0C0CFA03F7BC438E
:1075500005FA03FC4CEA040491F803C0BCF1280FBF
:1075600006D14FF0010C0CFA00FCC2F814C00AE07E
:1075700091F803C0BCF1480F05D14FF0010C0CFA93
:1075800000FCC2F810C0401C0828D1D31460B1F828
:1075900000C0BCF1FF0F34DD546800202EE000F184
:1075A000080C4FF0010808FA0CF3B1F800C00CEA1F
:1075B00003069E4221D183004FF00F0C0CFA03F713
:1075C000BC4305FA03FC4CEA040491F803C0BCF187
:1075D000280F05D100F1080C08FA0CF8C2F8148045
:1075E00091F803C0BCF1480F07D100F1080C4FF02F
:1075F000010808FA0CF8C2F81080401C0828CED305
:107600005460BDE8F0814FF6FF7101800221817066
:107610000421C17070470246002093680B4201D0DC
:10762000012000E0002070470146886880B2704762
:1076300002460020D3680B4201D0012000E0002068
:1076400070470146C86880B2704701617047416168
:1076500070470AB1016100E041617047C160704745
:107660004FF480320A43826181618261826982695A
:10767000704702460020424B18684FF6807318404E
:1076800040EA021008433E4B186070473D49C8610C
:107690007047F0B50A46002300240021002500F0C1
:1076A0000046B6F1004F02D1354EF16901E0344E8B
:1076B0007168C0F3034583B200F44016B6F5401F6D
:1076C00008D121F070612E4E766826F070662C4F3E
:1076D0007E6012E000F48016B6F5801F06D1032606
:1076E00006FA05F4A14341F0706106E0460D36014B
:1076F00003FA06F6B14341F0706122B1460D36013E
:1077000003FA06F6314300F00046B6F1004F02D10D
:107710001B4EF16101E01A4E7160F0BD30B50022E0
:107720008B071C0F0F2303FA04F2154B08338C1040
:1077300053F824309343124C08348D1044F825300C
:1077400023468C1053F824308C07240F00FA04F4DD
:1077500023430B4C08348D1044F8253030BD0A49C2
:107760000860704700080140000C01400010014013
:107770000014014000180140001C0140002001409D
:107780000000014000002042DC002042DC4800688C
:1077900040F00100DA49086008464068D9490840CD
:1077A000D749486008460068D7490840D44908606E
:1077B0000846006820F4802008600846406820F4ED
:1077C000FE0048604FF41F0088607047CC4909688C
:1077D00021F48031CA4A11601146096821F48021E0
:1077E0001160B0F5803F03D0B0F5802F0ED106E0D8
:1077F000C349096841F48031C14A116007E0C049BA
:10780000096841F4A021BE4A116000E000BF00BF3A
:10781000704710B501460022002300204A11012ABA
:1078200002D1B74C236806E0022A02D1B44C236A85
:1078300001E0B34C636A01F01F02012494401C4232
:1078400001D0012000E0002010BD70B5002400250B
:10785000002600BF3120FFF7DCFF0646641CB4F5AC
:10786000A06F01D0002EF5D03120FFF7D2FF08B174
:10787000012500E00025284670BD01460020A04AF1
:10788000106820F0F80040EAC100106070479F497E
:107890000860704702460020994B586820F47C101D
:1078A00042EA01031843964B5860704797490866AF
:1078B000704701460020924A506820F003000843B8
:1078C000506070478E48406800F00C0070470146D9
:1078D00000208B4A506820F0F00008435060704749
:1078E00001460020864A506820F4E060084350605A
:1078F000704701460020824A506820F4605040EAF8
:10790000C1005060704729B17D4A527A02437C4BD6
:107910005A7206E07A4A527AC343DBB21A40784B75
:107920005A7270477A490860704701460020744ACD
:10793000506820F440400843506070470021754A69
:1079400011706F4A82F82010012802D0042808D153
:1079500003E001216F4A117004E005216D4A1170A6
:1079600000E000BF00BF70476B4908607047644982
:10797000096A0143624A11627047674944390860E5
:10798000704730B500210022002400235C4D6D6853
:1079900005F00C0121B1042905D0082923D105E007
:1079A0005E4D056022E05D4D05601FE0544D6D6841
:1079B00005F47012524D6D6805F48034022505EB14
:1079C00092421CB9564D554305600BE04C4D6D6815
:1079D00015F4003F03D0524D5543056002E04F4D72
:1079E0005543056002E04D4D056000BF00BF444DAA
:1079F0006D6805F0F00109094A4D6B5C0568DD40D2
:107A000045603F4D6D6805F4E061090A454D6B5CCA
:107A10004568DD4085603A4D6D6805F46051C90ADE
:107A2000404D6B5C4568DD40C560354D6D6805F4C3
:107A30004041890B3C4D6B5CC568B5FBF3F50561B6
:107A400030BD29B12E4A526902432D4B5A6104E0E0
:107A50002B4A526982432A4B5A61704729B1284AFE
:107A600092690243264B9A6104E0254A9269824357
:107A7000234B9A61704729B1214AD2690243204BB6
:107A8000DA6104E01E4AD26982431D4BDA61704715
:107A900029B11B4AD2680243194BDA6004E0184A44
:107AA000D2688243164BDA60704729B1144A1269D2
:107AB0000243134B1A6104E0114A12698243104BCE
:107AC0001A61704714494039086070470F49C8640B
:107AD00070470B49C87170470948406A40F0807090
:107AE00007494862704701460020054A92680A42E9
:107AF00001D0012000E000207047014988727047E2
:107B0000001002400000FFF8FFFFF6FE00004242B6
:107B1000D8004242201002408004424200127A0003
:107B200000093D00F80200200803002010B50446BB
:107B3000FE48844208D10121C014FFF7A9FF0021AB
:107B4000E014FFF7A5FFC4E0B4F1804F08D1012194
:107B50000846FFF7AAFF00210120FFF7A6FFB8E0C3
:107B6000F348844208D101210220FFF79EFF002143
:107B70000220FFF79AFFACE0EE48844208D10121D1
:107B80000420FFF792FF00210420FFF78EFFA0E002
:107B9000E948844208D101210820FFF786FF00212F
:107BA0000820FFF782FF94E0E448844208D10121D5
:107BB0001020FFF77AFF00211020FFF776FF88E002
:107BC000DF48844208D101212020FFF76EFF002109
:107BD0002020FFF76AFF7CE0DA48844208D10121C7
:107BE0004014FFF755FF00216014FFF751FF70E0CC
:107BF000D548844209D10121C804FFF749FF00217B
:107C00004FF40020FFF744FF63E0D048844209D1DD
:107C100001210805FFF73CFF00214FF48010FFF71A
:107C200037FF56E0CA48844209D101214805FFF7D1
:107C30002FFF00214FF40010FFF72AFF49E0C5484D
:107C4000844208D101214020FFF72FFF002140206E
:107C5000FFF72BFF3DE0C048844208D1012180207E
:107C6000FFF723FF00218020FFF71FFF31E0BB4813
:107C7000844208D101218015FFF717FF0021A015CC
:107C8000FFF713FF25E0B648844209D1012108041B
:107C9000FFF7FEFE00214FF48030FFF7F9FE18E0F9
:107CA000B048844209D101214804FFF7F1FE0021C8
:107CB0004FF40030FFF7ECFE0BE0AB48844208D1F4
:107CC00001218804FFF7E4FE00214FF48020FFF734
:107CD000DFFE10BD00220288944B98420ED0994BD3
:107CE00098420BD0B0F1804F08D0914B984205D00C
:107CF000904B984202D0904B984204D14FF68F732C
:107D00001A404B881A438D4B984207D08C4B9842AF
:107D100004D04FF6FF431A40CB881A4302808B8869
:107D200083850B880385814B98420BD0854B984205
:107D300008D08B4B984205D08A4B984202D08A4B90
:107D4000984201D10B7A038601238382704770B574
:107D5000002400220023058C4FF6FE763540058472
:107D6000028C8388048B4FF68F752C40B51E2C40F7
:107D70000D882C43751E2A400D892A434D882A43BD
:107D80006A4DA8420BD06F4DA84208D0744DA8424E
:107D900005D0744DA84202D0734DA84213D14FF6BE
:107DA000F7752A404D892A434FF6FB752A408D8886
:107DB0002A434FF6FF652B404FF6FF552B408D8928
:107DC0002B43CD892B4383800483CD888586028411
:107DD00070BD70B5002400220023058C4FF6EF76AD
:107DE00035400584028C8388048B48F6FF752C404F
:107DF0004FF6FF452C400D882D0644EA15444FF6FA
:107E0000DF752A400D892D0542EA15424D882D0562
:107E100042EA1542454DA84202D04A4DA8421BD124
:107E20004FF67F752A404D892D0542EA15424FF6DF
:107E3000BF752A408D882D0542EA15424FF6FF3561
:107E40002B404FF2FF752B408D89AD0443EA15435B
:107E5000CD89AD0443EA154383800483CD8805872B
:107E6000028470BD70B5002400220023058C4FF6FB
:107E7000FF6635400584028C8388848B4FF68F75AE
:107E80002C404FF6FC752C400D882C434FF6FF55C7
:107E90002A400D892D0642EA15424D882D0642EAF8
:107EA0001542224DA84202D0264DA8421BD14FF2C6
:107EB000FF752A404D892D0642EA15424FF6FF35DF
:107EC0002A408D882D0642EA15424EF6FF752B405A
:107ED0004DF6FF752B408D892D0543EA1543CD895D
:107EE0002D0543EA154383808483CD8885870284EA
:107EF00070BD70B5002200230024058C4EF6FF767D
:107F000035400584038C8488828B48F6FF752A40AF
:107F10004FF6FF452A400D882D0642EA15424DF6E0
:107F2000FF752B400D892D0720E00000002C01403B
:107F30000004004000080040000C00400010004019
:107F40000014004000340140004C0140005001404A
:107F50000054014000180040001C00400020004078
:107F600000400140004401400048014043EA1543FD
:107F70004D882D0743EA1543F84DA84202D0F84D2D
:107F8000A84206D14BF6FF752C408D89AD0544EA19
:107F9000154484808283CD88A0F84050038470BD4E
:107FA000828B4FF2FF331A408283828B0B0642EAA8
:107FB000134282837047F0B50C461546002200211B
:107FC0000026078C4EF6FF7C07EA0C070784828B9D
:107FD000018C27073E0C40F6FF473A402F0642EA45
:107FE00017421F0742EA1742DC4FB8420ED0DC4F5F
:107FF000B8420BD0B0F1804F08D0DA4FB84205D06C
:10800000D94FB84202D0D94FB84206D14DF6FF77CA
:10801000394046F48057394305E047F6FF57394069
:1080200044F48057394382830184F0BD828B4FF63C
:10803000F3731A408283828B0A4382837047F0B5C0
:108040000C461546002200210026078C4FF6FF6CD7
:1080500007EA0C070784828B018C27063E0C4FF63B
:108060000C773A401F0545EA17473A43BB4FB842E1
:108070000ED0BB4FB8420BD0B0F1804F08D0B94FF3
:10808000B84205D0B84FB84202D0B84FB84206D176
:108090004FF6FF57394046F48077394305E04FF2F9
:1080A000FF57394044F48077394382830184F0BD1F
:1080B000028B4FF2FF331A400283028B0B0642EA17
:1080C000134202837047F0B50C461546002200218A
:1080D0000026078C4FF6EF7C07EA0C070784028B1B
:1080E000018C27053E0C40F6FF473A401F0742EA45
:1080F00017422F0642EA1742984FB8420ED0984FC7
:10810000B8420BD0B0F1804F08D0964FB84205D09E
:10811000954FB84202D0954FB84206D14FF6DF775F
:10812000394046F01007394305E04FF65F77394094
:1081300044F01007394302830184F0BD028B4FF6EF
:10814000F3731A400283028B0A4302837047F0B52F
:108150000C46154600220021068C4FF6FE773E4065
:108160000684028B018C4FF60C7632401E0545EAE0
:1081700016463243794EB0420ED0794EB0420BD003
:10818000B0F1804F08D0774EB04205D0764EB04265
:1081900002D0764EB04206D14FF6FD76314044F023
:1081A0000106314305E04FF6F576314044F0010613
:1081B000314302830184F0BD70B505460C46674823
:1081C00085420ED0664885420BD0B5F1804F08D06D
:1081D0006448854205D06448854202D063488542A0
:1081E00000D100E000BF208850B92389A2886188AF
:1081F0002846FFF7ACFFE1882846FFF79FFF25E000
:10820000208804280AD12389A28861882846FFF79C
:108210005AFFE1882846FFF74BFF17E0208808281F
:108220000AD12389A28861882846FFF708FFE188E0
:108230002846FFF7FBFE09E02389A28861882846CB
:10824000FFF7B9FEE1882846FFF7AAFE70BD2DE9C9
:10825000F04105460C4600260127608808B9022631
:1082600000E00026A088012801D1022700E00127B4
:108270002088A0B92389A28861882846FFF767FF74
:10828000E1882846FFF75AFF23893A4631462846B7
:10829000FFF719FFE1882846FFF70AFF13E023895B
:1082A000A28861882846FFF70EFFE1882846FFF77D
:1082B000FFFE23893A4631462846FFF748FFE1880A
:1082C0002846FFF73BFFBDE8F0810A884B881A4338
:1082D0008B881A43CB881A430B891A434B891A435C
:1082E0008B891A43A0F8442070474FF6FF718180B4
:1082F00000210180C180418001727047002101800E
:1083000041808180C180018141818181C18170472B
:10831000002101804180012181800021C1800181F3
:1083200070470021018041808180C18001814181AD
:108330008181704721B1028842F00102028004E08D
:1083400002884FF6FE731A400280704781B1B0F880
:10835000442042F40042A0F844200FE0002C0140E9
:10836000003401400004004000080040000C0040C0
:10837000B0F84420C2F30E02A0F84420704710B5B4
:108380001AB183890B43838104E08389CC43A4B26F
:108390002340838110BD8182704741EA0203A0F827
:1083A0004830704710B51AB183890B43838104E0CC
:1083B0008389CC43A4B22340838110BD01894FF649
:1083C000F8721140018170470A46002101894FF679
:1083D0008F73194011430181704730B504460D4633
:1083E00029462046FFF7F0FF208940F00700208152
:1083F00030BD2DE9F04104460D4616461F46602D5E
:1084000006D13B46012231462046FFF75CFE05E0DF
:108410003B46012231462046FFF799FE2946204679
:10842000FFF7D2FF208940F007002081BDE8F081EE
:1084300030B50C4600210189C9B21D0642EA154536
:1084400025432943018130BD2DE9F04105460E4603
:1084500017469846002443463A4631462846FFF7D9
:10846000E7FF2C894FF6F870044044F007044FF6FC
:108470008F70044044F070042C81BDE8F081F0B5A9
:1084800004460D4616461F463B46324629462046C0
:10849000FFF7CEFF208940F480402081F0BD0185A8
:1084A000828270470A46002101884FF68F73194077
:1084B000114301807047F0B50C4615461E46002159
:1084C000002200230189028B038C4FF6F877394094
:1084D00021434FF6FC473A4040F201173A434FF62A
:1084E000DD773B40370545EA17473B43018102836F
:1084F0000384F0BD0A460021018B4FF68F731940AB
:108500001143018370470A460021018B48F6FF732F
:108510001940130641EA1341018370470A460021BE
:10852000818B4FF68F7319401143818370470A4640
:108530000021818B48F6FF731940130641EA13416D
:108540008183704721B1028842F08002028004E0FA
:1085500002884FF67F731A400280704721B18288EB
:1085600042F00402828004E082884FF6FB731A40D6
:108570008280704721B1828842F00802828004E044
:1085800082884FF6F7731A408280704721B1828843
:1085900042F00102828004E082884FF6FE731A40A6
:1085A000828070470A460021018B4FF6F77319400D
:1085B0001143018370470A460021018B4FF2FF737C
:1085C0001940130641EA1341018370470A4600210E
:1085D000818B4FF6F77319401143818370470A4628
:1085E0000021818B4FF2FF731940130641EA1341BA
:1085F000818370470A460021018B4FF6FB731940B7
:108600001143018370470A460021018B4FF6FF3367
:108610001940130641EA1341018370470A460021BD
:10862000818B4FF6FB7319401143818370470A46D3
:108630000021818B4FF6FF331940130641EA1341A5
:10864000818370470A460021018B4FF67F731940E2
:108650001143018370470A460021018BC1F30E01CB
:10866000130641EA1341018370470A460021818BBA
:108670004FF67F7319401143818370470A460021EA
:10868000818BC1F30E01130641EA134181837047C8
:108690000A460021018C4FF6FD73194011430184F5
:1086A00070470A460021018C4FF6F77319401143B9
:1086B000018470470A460021018C4FF6DF73194090
:1086C000130541EA1341018470470A460021018CD9
:1086D0004FF67F731940130541EA13410184704737
:1086E0000A460021018C4FF6FF531940130641EA58
:1086F0001341018470470A460021018C4FF2FF7339
:108700001940130641EA1341018470470A460021CB
:10871000018C4DF6FF731940130741EA13410184A0
:10872000704730B5002301248C40A3B2048CDD4394
:10873000ADB22C400484048C02FA01F5ADB22C4396
:10874000048430BD30B5002304248C40A3B2048CD3
:10875000DD43ADB22C400484048C02FA01F5ADB2C5
:108760002C43048430BD70B5034600200024184615
:10877000183001258D40ACB21D8CE643B6B23540B1
:108780001D8409B1082909D100EB6100056825F0B5
:10879000700505600568154305600CE00D1FADB25E
:1087A00000EB6500056825F4E045056005681606E0
:1087B00045EA1645056070BD21B1028842F002020B
:1087C000028004E002884FF6FD731A400280704771
:1087D00021B1028842F00402028004E002884FF6D0
:1087E000FB731A400280704721B1828842F08002F8
:1087F000828004E082884FF67F731A40828070473F
:1088000002884FF6F7731A40028002880A430280FA
:10881000704782884FF68F731A40828082880A439D
:108820008280704702894FF6F8731A4002810289EC
:108830000A430281704702894FF67F731A40028112
:1088400002890A430281704781847047818570479D
:10885000818670470187704781877047A0F8401074
:10886000704702884FF6FF431A40028002880A438D
:10887000028070470146888E70470146088F704716
:108880000146888F70470146B1F8400070470146A5
:10889000888C70470146088D704702460020138A75
:1088A0000B4201D0012000E000207047CA43028241
:1088B000704730B50246002000230024158A05EADF
:1088C0000103958905EA010413B10CB1012000E010
:1088D000002030BDCA4302827047000010B5044634
:1088E000FC48844209D101218803FFF7D1F8002117
:1088F0004FF48040FFF7CCF832E0F748844209D1CA
:1089000001214804FFF7D1F800214FF40030FFF7B0
:10891000CCF825E0F148844209D101218804FFF711
:10892000C4F800214FF48020FFF7BFF818E0EC48AE
:10893000844209D10121C804FFF7B7F800214FF4A0
:108940000020FFF7B2F80BE0E648844208D101218D
:108950000805FFF7AAF800214FF48010FFF7A5F8EB
:1089600010BD2DE9F04786B005460E460024A2460C
:1089700000BFA1460027B08900B100BF2F462C8A56
:108980004CF6FF700440F08804432C82AC894EF60C
:10899000F3100440B08831890843718908430443C7
:1089A000AC81AC8A4FF6FF400440B0890443AC82EE
:1089B00001A8FEF7E6FFC748874202D1DDF810A004
:1089C00001E0DDF80CA0A88910F4004F08D00AEBF4
:1089D000CA0000EB0A1031684900B0FBF1F807E06B
:1089E0000AEBCA0000EB0A1031688900B0FBF1F80D
:1089F0006420B8FBF0F004012009642101FB108918
:108A0000A88910F4004F08D0322000EBC900B0FB59
:108A1000F1F000F00700044308E0322000EB0910F9
:108A20006421B0FBF1F000F00F0004432C8106B08C
:108A3000BDE8F0874FF41651016000218180C180AC
:108A400001810C21418100218181704710B50246CE
:108A50000020108A4FF2FF0318400B884C882343F4
:108A60008C882343CC8823431843108210BD0021F7
:108A7000018041808180C180704721B1828942F4A8
:108A80000052828104E082894DF6FF731A40828190
:108A90007047F0B503460024002600250020A1F50C
:108AA00010676A3F00D100BF1846C1F3421401F0BD
:108AB0001F06012707FA06F5012C01D10C3004E04E
:108AC000022C01D1103000E014301AB107682F4396
:108AD000076002E00768AF430760F0BD10B51AB148
:108AE000838A0B43838204E0838ACC43A4B223406D
:108AF000838210BD028A4FF6F0731A400282028A06
:108B00000A430282704782894FF2FF731A408281C2
:108B100082890A438281704721B1828942F0020230
:108B2000828104E082894FF6FD731A40828170478A
:108B3000028A4FF6DF731A400282028A0A430282D7
:108B4000704721B1028A42F48042028204E0028A24
:108B50004BF6FF731A4002827047C1F3080282800D
:108B6000704701468888C0F308007047818941F04A
:108B7000010181817047028BD2B20283028B42EAEB
:108B8000012202837047028B02F47F420283028B30
:108B90000A430283704721B1828A42F02002828216
:108BA00004E0828A4FF6DF731A408282704721B157
:108BB000828A42F01002828204E0828A4FF6EF73CA
:108BC0001A408282704721B1828A42F00802828272
:108BD00004E0828A4FF6F7731A408282704721B10F
:108BE000828942F40042828103E08289C2F30E024C
:108BF0008281704721B1828A42F40062828204E05D
:108C0000828A4FF2FF731A4082827047828A4FF63F
:108C1000FB731A408282828A0A438282704721B1A2
:108C2000828A42F00202828204E0828A4FF6FD7359
:108C30001A408282704702460020B1F5007F00D1C1
:108C400000BF13880B4201D0012000E000207047D4
:108C500001F40072B2F5007F00D100BFCA43028068
:108C6000704770B502460024002300250020A1F5BE
:108C700010666A3E00D100BFC1F3421501F01F0328
:108C8000012606FA03F3012D02D19689334006E04E
:108C9000022D02D1168A334001E0968A33400C122D
:108CA000012606FA04F41688344013B10CB10120F1
:108CB00000E0002070BD10B500220023A1F5106473
:108CC0006A3C00D100BF0A1201249440A3B2DC43E5
:108CD000048010BD003801400044004000480040BE
:108CE000004C00400050004010B50446BF4884428C
:108CF00008D101218014FEF7CBFE0021A014FEF75D
:108D0000C7FE16E0BA48844208D101210014FEF7DC
:108D1000CCFE00212014FEF7C8FE0AE0B5488442CC
:108D200007D10121C013FEF7C0FE0021E013FEF7BA
:108D3000BCFE10BD10B50022028802F441520B881F
:108D40004C8823438C882343CC8823430C892343BA
:108D50004C8923438C892343CC8923431A430280C3
:108D6000838B4FF2FF74234083830B8A038210BDF1
:108D70002DE9F04F85B005460C464FF0000902275B
:108D80004FF000084FF0010B0026B246A88B4FF2BF
:108D900040010840A88302202884B5F81C90A068F0
:108DA000022801D100BF36E0A08810B94FF0010BB6
:108DB00001E04FF0020B8E48854200D100E000BF79
:108DC0006846FEF7DEFDDDF800A0E088B0F5007F24
:108DD0000AD14FEA1A2000EB80004000A168B0FBE6
:108DE000F1F0401D86B20BE04FEA4B10BAFBF0F0F9
:108DF00000EB80004000A168B0FBF1F0401D86B29E
:108E00000A20B6FBF0F606F00108A6EB0800C0F356
:108E10004F074FEA0828022F01DBFF2F02DD022750
:108E20004FF00008E08840EA080038432884A08812
:108E3000A1890843618808432188084340F4006001
:108E400040EA0909A5F81C9005B0BDE8F08F0021A3
:108E5000018041808180C180018141818181C18106
:108E60000721018270470021018041808180C180FB
:108E70000221816000218181704721B1028842F086
:108E80004002028004E002884FF6BF731A4002805D
:108E9000704721B1828B42F48062828304E0828B2E
:108EA0004FF6FF331A408283704770B500240023C9
:108EB0000C110125A540ABB21AB185881D438580F0
:108EC00004E08588DE43B6B23540858070BD10B5BC
:108ED0001AB183880B43838004E08388CC43A4B217
:108EE0002340838010BD8181704701468889704787
:108EF000A1F57E42FF3A04D0028842F480720280DB
:108F000004E002884FF6FF631A400280704721B1E7
:108F1000828842F00402828004E082884FF6FB736C
:108F20001A408280704702884FF2FF731A40028015
:108F300002880A4302807047018841F48051018011
:108F4000704721B1028842F40052028004E0028896
:108F50004DF6FF731A400280704702460020012937
:108F600001D0108B00E0908A70470146088A704754
:108F7000B1F5804F04D1028842F48042028004E0BF
:108F800002884BF6FF731A400280704702460020A9
:108F900013890B4201D0012000E000207047CA4332
:108FA00002817047F0B5024600200024002300250E
:108FB00001F00F070126BE40B4B20B1101269E40FE
:108FC000B3B2968806EA03051689264202D00DB18F
:108FD000012000E00020F0BD10B5002201F00F04D8
:108FE0000123A3409AB2D343038110BD0030014056
:108FF00000380040003C00402DE9FC5F06468846F2
:1090000091469A460027504603F0C1F80022FD4BD6
:10901000CDE9000102F034FF044602F043FE83462E
:109020004946404604F052F83061D6E9040104F0A4
:109030004DF80446594603F0C1FCB062B16AB0680D
:1090400003F07EFE0190316A706803F079FE0546F8
:109050003169306803F074FE2946009003F03AFC51
:109060000446019903F036FCF06230697061E6480D
:10907000007800283AD0E5480078B0B3E4480068AA
:1090800003F0FCFB04460D46F06A03F0F7FB21F009
:10909000004122462B46CDE9000103F0A3F827D278
:1090A0005946306903F04CFE0446316A03F012FC65
:1090B0000746706A80F000443946204603F00CFEF3
:1090C00016D23846716A03F007FE11D2706A80F03A
:1090D00000442046F16A03F0FFFD09D2716AF06A8C
:1090E00003F0FAFD04D2376202E0FFE700203062AD
:1090F000BDE8FC9F70B5C7480068C7490860C5480F
:1091000040684860C348C0688860C44A1168C24A61
:10911000106803F0DBFFC249086008460068086079
:10912000BE4A5168BC4A506803F0D0FFBC49486051
:10913000084640684860BB49C86CBB4903F0C6FF9D
:10914000BA498860B5484268B34800234168B848C6
:10915000FFF752FFB6480023C16AB6480268B64816
:10916000FFF74AFFAD480268AB4800230168B348E7
:10917000FFF742FFB1480023C16AB1480268B14815
:10918000FFF73AFFA5488268A34800238168AE48EC
:10919000FFF732FFA349B1F9180003F041FD04467F
:1091A0009D4881684FF0404003F0CAFD054600230A
:1091B00022462946A548FFF71FFF96488068944934
:1091C00008609A488168A24803F0BAFD04469048B6
:1091D0000168204603F0E8FE8D4908609648C06AA1
:1091E0009C4908609748C06A9B4908609748C06AD4
:1091F0009A490860974801688548006803F066FF4F
:10920000064695480168304603F060FF05469348DE
:109210000168284603F05AFF044603F0C5FC00B27B
:109220008F4988808B4801687948006803F052FBB9
:10923000064689480168304603F04CFB05468748DE
:109240000168284603F042FF044603F0ADFC00B27B
:10925000834908807F4801686D48006803F036FF45
:1092600006467D480168304603F034FB05467B48DE
:109270000168284603F02EFB044603F095FC00B27B
:109280007749C880734801686148006803F022FB91
:10929000064671480168304603F018FF05466F48DE
:1092A0000168284603F016FB044603F07DFC00B27B
:1092B0006B49488054480078A5280BD10C46B4F976
:1092C0000630B4F90420B4F90210B4F90000F8F73C
:1092D000D3F805E000231A4619461846F8F7CCF8EB
:1092E00070BD10B55F480078401C5E4908700846A4
:1092F0000078052805DB00200870F8F73BFAFFF737
:10930000F9FE10BD012808D15749D1F8B010574ACD
:1093100011600121564A117002E00021544A117077
:1093200070472DE9F04F89B0002008900590069015
:10933000079083468246F9F788FD044603F0B8FC9F
:1093400082464C48006840B14A48006803F0B0FCCF
:109350000446514603F028FE00E0002083465046B4
:1093600003F03EFC4349086043480078012806D1D9
:1093700028480068059027484068069005E03F4867
:10938000006805903E48006806903948007800283B
:1093900037D03549D1F8B0003449096803F096FE5A
:1093A00080F00040009003F069FA8046354A364B61
:1093B00002F054FF06460022344B02F061FD0446E1
:1093C00002F070FC0490049801F0F8FC03900498FB
:1093D00002F0AAFA02900299059803F0B1FC044643
:1093E0000399069803F0ACFC0546214603F072FA97
:1093F00001900299069803F0A3FC0446039905988E
:1094000046E04FE080842E41900300200C030020B2
:10941000200300207C0F0020140F0020D009002022
:10942000200F0020EC0900200AE81C41080F002052
:10943000880D002034030020B80D0020E80D002026
:1094400030030020180E0020480E0020780E002067
:109450000000A04228030020240300202C03002049
:109460000E03002067030020AC0B00204003002007
:109470003C0300206C030020880300201803002018
:109480001C0300204AD8124DFB2109400080664091
:1094900003F056FC0546214603F018FE059001989E
:1094A000069000BF584603F07FFB0446FE48D0F804
:1094B000AC202346FD480699FFF79EFD584603F071
:1094C00073FB0446F848D0F8A8202346F8480599CD
:1094D000FFF792FD09B0BDE8F08F2DE9FC5F4FF07A
:1094E0000009CA46C846F9F7B0FC044603F0E0FBA1
:1094F0008046F048006840B1EE48006803F0D8FBB1
:109500000446414603F050FD00E0002082464046FC
:1095100003F066FBE7490860E748C06880F000494F
:10952000504603F041FBE0490190C86EE34903F067
:1095300007FC009003F0A2F90646E14AE14B02F075
:109540009FFC044602F0AEFB8346D848C16A5A46E7
:10955000DD48019BFFF750FD504603F025FBD24943
:109560000190886ED54903F0EBFB009003F086F97B
:109570000646D34AD34B02F083FC044602F092FB2A
:109580008346CB48C16A5A46D048019BFFF734FD59
:10959000504603F009FBC4490190086FC74903F026
:1095A000CFFB009003F06AF90646C54AC54B02F0AE
:1095B00067FC044602F076FB83465A464946C44897
:1095C000019BFFF719FDC048C06AC2490860BF4847
:1095D000C06AC1490860BE48C06AC0490860BDE8A9
:1095E000FC9F2DE9F04105460E46144621462846CB
:1095F00003F079FC0ED22146304603F067FD0746A2
:109600002146284603F062FD8046394603F0D6F92C
:10961000BDE8F08184F000472946384603F063FC3A
:109620000DD22146304603F051FD0746214628461B
:1096300003F050F98046394603F0C0F9E8E700200E
:10964000E6E72DE9F04F8FB000200D9000250024B3
:1096500000260C9000270A908046099008900790F9
:1096600081468246834600219D48006803F068FADF
:1096700009D1F9F7EAFB069003F01AFB9849086054
:109680000FB0BDE8F08FF9F7E0FB069003F010FB98
:10969000804693480168404603F018FD91490690C2
:1096A00003F08CF90A908E48C0F800808E4800784C
:1096B000012802D08D48007800B9E1E78C48806825
:1096C00080F000457C4988688A4903F077F90D905D
:1096D0004FF07C510D9803F0F9FC874A4FF07C5114
:1096E0000690FFF77EFF80F00040844908604FF04D
:1096F00081418248006803F023FB804908607C4870
:10970000806880F000467D480A99006803F018FBE5
:109710003146069003F048FC0646794801684FF050
:10972000814003F04BF94FF08041069003F008FBB5
:1097300007462946304603F0C9FC0B9039460B9882
:1097400003F0D1FB05D23946284603F0C3F806469C
:109750000BE087F0004006900B9903F0C4FB04D2A5
:109760003946284603F0B2FC064666480078A0B1A8
:1097700065480168304603F0A9FC4FF0804106902F
:1097800003F0B1FB09D24FF080415F48006803F05D
:10979000A1F806460020594908602946304603F0E2
:1097A00095FC80F0004009904FF07C5153480068D0
:1097B00003F0C6FA069052480168099803F0C0FA0F
:1097C0000590069903F086F80C9047480078022827
:1097D00001D14E480C904E48007828B14D484E4972
:1097E000086000204A4908704148446921460C98A5
:1097F00003F06CFC089049480168204603F066FCC1
:1098000004900A9903F0DAF8214606903B48006874
:1098100003F05CFC04903A480168049803F090FA65
:109820000590069903F052FC07903C4804603C48C0
:109830008168079803F084FA059039480168089810
:1098400003F07EFA0490059903F044F8069032483C
:109850000168069803F03EF8324908602248007813
:1098600002280DD00846006880F000404FF07C517F
:10987000069003F031FA03D24FF03F4029490860C7
:10988000002029490870294908700B49086802F02E
:10989000F5FF0B4A0B4BCDE9000102F0DFFC002283
:1098A000234BCDE9020145E0AC0B0020880D0020E0
:1098B000E80D0020700300207C0F002000003443DE
:1098C0004AD8124DFB210940B80D0020180E002087
:1098D000780E002028030020240300202C03002001
:1098E00074030020002474498803002090030020A2
:1098F0009C0C002000007A44CDCCCC3D8403002099
:10990000A80E0020660300208C0300209A99993F3E
:1099100048030020AE4721BF4C03002078030020FD
:10992000D80E0020500300206503002064030020AF
:109930000080664002F0A4FACDE9040102F0B2F919
:10994000069001F0F1FFFB490860FB49486802F00E
:1099500095FFFA4AFA4BCDE9000102F07FFC0022A4
:10996000F84BCDE9020102F08BFACDE9040102F0D7
:1099700099F9069001F0D8FFEE4948600A4651680F
:10998000506803F0DDF9EB4A05901168106803F0A8
:10999000D7F90490059902F09DFF069002F0B0F807
:1099A0008146E949484603F09EFA3AD2E74802F078
:1099B000BDF80690E648006880F0004005900699E2
:1099C00003F0BEF983465946484603F08CFA28D284
:1099D0004946584602F0F2FF0690D6494868069973
:1099E00003F0AEF9D34948600868069903F0A8F976
:1099F000D04908600120D7490870CE4A51685068A4
:109A000003F09EF9CB4A04901168106803F098F9AE
:109A10000390049902F05EFF059002F071F8814610
:109A200000BFCB480168006803F08AF949460590F9
:109A3000484603F085F90490059902F04BFF069023
:109A400002F05EF882464FF07E51504603F04BFA2A
:109A500062D20021BE48006803F03EF93CD2BC4807
:109A6000006880F000404FF07E51069003F03BFA12
:109A70000CD20020AF4908604860B748B44908607C
:109A80000120B4490870B549087045E000200690EF
:109A9000AF480168006803F053F94FF07E5104901D
:109AA00003F082FA059002F02BF8834649465846A7
:109AB00002F084FF06909F494868069903F040F938
:109AC0009C4948600868069903F03AF9994908608A
:109AD0000120A04908701FE051464FF07E5002F06F
:109AE0006DFF06909A480699006803F029F9984995
:109AF000086090494868069903F022F98D4948604A
:109B00000868069903F01CF98A4908600120914908
:109B100008709249087000BF8649086800F0BEFDD1
:109B20008F49009003F00CF9019002F0A7FE834AE0
:109B3000834BCDE9020102F0A3F9CDE9040102F063
:109B4000B1F8884908607B49486800F0A7FD84495E
:109B5000009003F0F5F8019002F090FE774A784B00
:109B6000CDE9020102F08CF9CDE9040102F09AF886
:109B70007D49086079480078C8B97C4841680898F0
:109B800003F0DEF805900A9903F0DAF806907848B9
:109B90000168069802F09EFE75490860002174482D
:109BA000006803F0A0F902D200207149086000BFEC
:109BB00066E52DE9F0416F49886D6F4902F0FEFEC0
:109BC00004466E480078012815D16A49886D6A49B3
:109BD00003F07CFA6A4988605748806869490860E0
:109BE0006448D0F8944021466648006802F0E6FEDA
:109BF0006449086012E05648006880F000456249F8
:109C0000284603F09DF85F4908605F495D48006899
:109C100003F069F902D25C485A4908605B48016860
:109C20005848006803F052FA074659480168384618
:109C300003F04CFA064657480168304603F046FAEE
:109C4000054602F0B1FF00B2534988804F480168D1
:109C50004C48006802F03EFE07464D480168384611
:109C600002F038FE06464B480168304603F02EFAF3
:109C7000054602F099FF00B2474908804348016851
:109C80004048006803F022FA074641480168384618
:109C900002F020FE06463F480168304602F01AFEF8
:109CA000054602F081FF00B23B49C8803748016891
:109CB0003448006802F00EFE074635480168384611
:109CC00003F004FA064633480168304602F002FE0B
:109CD000054602F069FF00B22F494880BDE8F081D7
:109CE00010B52E48007858B12B4CB4F90630B4F9B1
:109CF0000420B4F90210B4F90000F7F7BDFB05E049
:109D000000231A4619461846F7F7B6FB10BD10B5E2
:109D1000032223492348F7F7BAFE002010BD10B5EF
:109D200003221F4914311F48F7F7A0FE1EA000F0C0
:109D300055F910BD540300207C0F00204AD8124D65
:109D4000FB210940008066400AD7233CC2B8323F5D
:109D50005003002065030020000080BF6403002042
:109D600000003443180300201C030020D80E0020FC
:109D70004C030020AC0B00200AE81C4188030020A3
:109D8000080F00202003002000007A442803002050
:109D9000240300202C0300200E0300209003002049
:109DA000540F002020FC0008B4D3464C415348D641
:109DB000D0B6C1C8A1B2CECAFD2E2E2E0D0A00000B
:109DC00010B553480078242840D1514840784D2898
:109DD0003CD14F4880783C2838D14D48007905283F
:109DE00027D0062829D0072802D0CD282DD128E059
:109DF000474840794649897900EB01204549C880A8
:109E00004348C0794249097A00EB012041498880E2
:109E10003F48407A3E49897A00EB01203D4948801D
:109E20003B48C07A3A49097B00EB01203949088058
:109E30000BE001203849087007E00320364908701C
:109E400003E001203549087000BF00BFF9F72BF887
:109E50003349086010BD10B502213248FDF7F5FB0B
:109E6000F8F7F3FF3049086000BF00202F49087061
:109E7000F8F7EBFF2C490968401A2D49086008469D
:109E800000682C490968884207D32B49D1F898000B
:109E900002F0A6FE294908711FE028480079401CFD
:109EA0002649087108460079FF2801D10020087171
:109EB000F7F730FC0720F7F79DFB214908700846AB
:109EC000007810F00E0F02D10120184908701C48CC
:109ED000007800F00E000E28C7D000BFF7F71AFC7C
:109EE0001248007801280DD11449087902F0E0FEEB
:109EF00004461148D0F89810204602F021FE01D007
:109F0000FCF7F3F802210748FDF7A1FB10BD0000A4
:109F10005604002000010020FB000020A2010020C8
:109F20000C010020000C014094030020910300204C
:109F3000980300209C030020CC0C00204800002047
:109F4000A00300207047B2F120030AD5C2F120031C
:109F500001FA02F120FA03F300FA02F041EA0301E8
:109F6000704700FA03F14FF000007047B2F1200390
:109F70000AD5C2F1200320FA02F001FA03F341FAF4
:109F800002F140EA0300704741FA03F04FEAE17141
:109F9000704710B54C1084EA530404D54042C1F117
:109FA000000138BF491E1B4204D55242C3F10003D1
:109FB00038BF5B1E00F0E5F814F0804F04D040423B
:109FC000C1F1000138BF491E14F0004F04D05242C5
:109FD000C3F1000338BF5B1E10BD00000FB404497D
:109FE00010B503AA029800F0ABF910BC5DF814FBA1
:109FF000500000202DE9F04104460E4600200AE002
:10A00000E1682046884738B3252806D0D4E90121E5
:10A010009047206A401C2062F2E7E1682046002752
:10A020008847050018D0A5F14100192802D820352D
:10A030004FF400673246294620462760F6F7B0F80D
:10A0400040B1012804D0F61D26F007060836D7E7F0
:10A05000361DD5E72846D9E7206ABDE8F081000023
:10A060002DE9F0410746002510687529394616A4E8
:10A0700011D0AFF30080002803DAC0F1000013A470
:10A0800007E039688A0701D511A402E0490704D521
:10A0900010A4012501E0AFF3008000210A2307F19D
:10A0A000240607E0B0FBF3F203FB120030307054DB
:10A0B0001046491C0028F5D12B4622463846BDE8FB
:10A0C000F04100F0E0B80000000000002D000000AA
:10A0D0002B0000002000000010B5431C02E010F827
:10A0E000011B71B18107FAD14FF0013202C88C1AFD
:10A0F0008C4314EAC211F9D0C01A0A0603D0C01E5C
:10A1000010BDC01A10BD0A0401D0801E10BD090286
:10A11000FCD0401E10BD10B5203AC0F00B80B1E855
:10A120001850203AA0E81850B1E81850A0E818508C
:10A13000BFF4F5AF5FEA027C24BFB1E81850A0E895
:10A14000185044BF18C918C0BDE810405FEA827CAF
:10A1500024BF51F8043B40F8043B08BF7047D207C6
:10A1600028BF31F8023B48BF11F8012B28BF20F867
:10A17000023B48BF00F8012B70477047704770479B
:10A18000704753EA020C00F069802DE9F04B4FF064
:10A190000006002B1FBFB3FA83F503FA05F424FA77
:10A1A00005F65E4012BF1643B2FA82F502FA05F4D4
:10A1B000C5F120051EBF22FA05FC44EA0C04203537
:10A1C00056EA044C4FEA144418BF641C4FF00008D0
:10A1D0004FF00009904271EB030C39D3002919BFED
:10A1E000B1FA81F701FA07F6B0FA80F700FA07F63C
:10A1F000C7F120071EBF20FA07FC46EA0C062037ED
:10A20000B6FBF4FCA7EB0507103F07F01F0BCBF1E3
:10A2100020060CFA0BFB2CFA06F644BFB3460026C8
:10A22000202FA4BF5E464FF0000B5BEA060C08BF70
:10A230004FF0010B19EB0B09ABFB027C48EB060856
:10A24000C01B06FB02CC0BFB03CC71EB0C01C1E77E
:10A250000B46024641464846BDE8F08B13B54FF029
:10A2600000004FF00001AFF30080BDE81C407047D4
:10A2700010B500F077F8006810BD10B5044600F086
:10A2800071F8046010BD2DE9F0470D460446924672
:10A29000994600F124080168880604D5E06921F098
:10A2A0001001216000E00120A84202DDA0EB0507BB
:10A2B00000E00027A16907EB050202EB0900A1EB12
:10A2C0000000A0612068C00602D42046AFF30080E1
:10A2D000002608E0D4E901211AF806009047206A18
:10A2E000401C761C20624E45F4DB2068C0060AD56F
:10A2F0002046AFF3008006E0D4E9012130209047EA
:10A30000206A401C2062381EA7F10107F4DC07E038
:10A31000D4E9012118F805009047206A401C20620A
:10A32000281EA5F10105F3DC2046AFF3008020686C
:10A33000000602D50220BDE8F0870120FBE70000FF
:10A34000074B70B50C467B4400F015F805462046D7
:10A3500000F024F810B14FF0FF3070BD284670BDFA
:10A360006578FFFF004870478C0F002001694A1C88
:10A3700002610878704700B58FB0CDE90131002146
:10A38000059105497944CDE9031011466846FFF768
:10A3900031FE0FB000BD0000E5FFFFFFC06800F018
:10A3A00080007047004870478C0F00207546FFF70B
:10A3B000F9FFAE4605006946534620F00700854682
:10A3C00018B020B5F5F7F8FFBDE820404FF00006C3
:10A3D0004FF000074FF000084FF0000B21F007018D
:10A3E000AC46ACE8C009ACE8C009ACE8C009ACE8D0
:10A3F000C0098D4670470446AFF300802046F5F74C
:10A40000E3FE000000487047900F0020490050EA2A
:10A41000C12018BF04204A0D18BF40F0010040F2CF
:10A42000FF72B2EB515F08BF40F00200012808BF85
:10A43000052070474100080218BF04200A0E18BF0B
:10A4400040F001004FF07F4232EA010108BF40F0C6
:10A450000200012808BF0520704701464FF07F40E9
:10A46000B0EB410F01D1012070470020FCE701460D
:10A4700021F00040C0F1FF40C00F70472DE9F041CE
:10A480004F1E00EBC7010446D1E9000115461E46E8
:10A4900037F006020DD02A46334601F0DFFE7F1E5C
:10A4A00004EBC703D3E9002301F02EFC37F00602CA
:10A4B000F1D1022F25D0042F13D0062F18BFBDE8ED
:10A4C000F0812A46334601F0C9FED4E90A2301F09F
:10A4D0001BFC2A46334601F0C1FED4E9082301F0F3
:10A4E00013FC2A46334601F0B9FED4E9062301F0F5
:10A4F0000BFC2A46334601F0B1FED4E9042301F0F7
:10A5000003FC2A46334601F0A9FED4E9022301F0F8
:10A51000FBFB2A46334601F0A1FED4E90023BDE847
:10A52000F04101F0F1BB0000024A0020110702F0E7
:10A5300074BE000001FDFFFF6FF05E01080702F02E
:10A540009ABE00002DE9F04D034614464FF07F40BF
:10A550000E46B0EB440F04D8001608601846BDE85C
:10A56000F08D4FF0004040EA0421C4F3C750783822
:10A57000431100F01F00DFF814C1C0F12002FC44B9
:10A580005CF823500CEB83038540D3F804C02CFA0D
:10A5900002F72F439D680CFA00FC25FA02F8DB68ED
:10A5A00005FA00F023FA02F240EA02054CEA080C30
:10A5B000A7FB0123ACFB01C0A5FB015101EB0C057E
:10A5C000A94294BF4FF0000C4FF0010C8118614478
:10A5D000BCF1000F02D0814202D903E0814201D2D6
:10A5E000012000E00020184400F120024FEA9218F8
:10A5F0008006CA0C40EA42304F03C6F8008002F0E1
:10A600000FFB8246384602F053FB6FF0120102F056
:10A6100032FE0746284602F04BFB6FF0250102F0A0
:10A620002AFE83463946504602F054F9594602F054
:10A6300051F900F500656FF30B055146284602F00D
:10A6400045FD394602F042FD594602F0ADFC104985
:10A6500002F076FB07460F49284602F071FB3946A7
:10A6600002F038F907460C49284602F069FB3946E2
:10A6700002F030F914F0004F08BFBDE8F08DC8F1CA
:10A68000805180F000403160BDE8F08D2E2F000039
:10A69000DB0FC92F22AAFD290000C92F2DE9F041A7
:10A6A00004464FF00E4000EB4400B0F1506F2046DE
:10A6B00020D94FF0E441B1EB440F08D9FFF7BAFEBF
:10A6C000042808BFFFF738FF2046BDE8F0814FF0AF
:10A6D0007F41B1EB440F04D2BDE8F041012102F00B
:10A6E000CABD0120FFF7C9FDBDE8F04100210846C1
:10A6F00002F064B94FF0FC41B1EB440F1CD224F0DE
:10A7000000404FF07E5102F04FFC4FF0FF3102F05D
:10A71000B2FD054601F0F4F914F0004F1DBF204EC4
:10A72000204F80F00040204E08BF204F4FF04041A6
:10A7300002F006FB044605E000263746014602F01B
:10A74000FFFA05461A49284602F0FAFA194902F0BA
:10A75000C1F8294602F0F4FA174902F0BBF829467D
:10A7600002F0EEFA154902F0B5F8294602F0E8FACF
:10A77000134902F0AFF880462946204602F0E0FA7D
:10A78000414602F0DDFA05463946204602F0A2F8BD
:10A79000294602F09FF83146BDE8F04102F09AB830
:10A7A0000000C9BF22AAFDB90000C93F22AAFD3995
:10A7B00024FE1C3DC78AD83C1E67383D1B93993D3B
:10A7C000AFAA2A3E2DE9F84F04460D4621F000407D
:10A7D00000917449884213DB7349884201DC08D137
:10A7E0003CB120462946BDE8F84F4FF0010202F087
:10A7F00014BD6E48002DCCBF6D496E49BDE8F88F81
:10A800006D49884211DA6D498842A8BF4FF0FF3682
:10A810006DDA20462946FFF7F9FD042808BFFFF747
:10A8200083FE20462946BDE8F88F6549DFF894A1EC
:10A8300025F00045884232DA6349884219DA002659
:10A8400032464FF080432046294601F05DFA074624
:10A85000884601222046294602F0DFFC00225346AA
:10A8600001F022FF3A46434601F00AFB04460D463A
:10A870003DE00126002253462046294601F044FAD5
:10A8800007468846002253462046294601F00CFF21
:10A8900043463A4601F0F4FA04460D4627E04B4998
:10A8A00088421BDADFF82881022600224346204630
:10A8B000294601F0D3FC0022534601F025FA8246D6
:10A8C0000F46002243462046294601F0EDFE52463F
:10A8D0003B4601F0D5FA04460D4608E00326224621
:10A8E0002B4600203B4901F0CBFA04460D46224698
:10A8F0002B461046194601F0B1FC8B4682460246B3
:10A900000B4601F0ABFC07460246334888460B462F
:10A9100006217844FFF7B2FD52465B4601F09EFCEB
:10A9200082462E488B463A46434605217844FFF737
:10A93000A5FD3A46434601F091FC02460B46002E27
:10A94000504659460CDA01F0DFF922462B4601F059
:10A9500085FC01B022462B46BDE8F04F01F0B2BDA8
:10A9600001F0D2F922462B4601F078FC1C4A7A44C9
:10A9700002EBC603D3E9002301F096FE22462B46E4
:10A9800001F092FE174A7A4402EBC603D3E9002392
:10A9900001F098FD009A002AB8BF81F00041BDE89F
:10A9A000F88F0000000010440000F07F182D445480
:10A9B000FB21F93FFB21F9BF0000DC3F0000203EF6
:10A9C0000000F33F0000F03F0000E63F008003403E
:10A9D0000000F83F0000F0BF622B0000202B0000B9
:10A9E000BE2A0000862A00002DE9F04D9446CCF1E5
:10A9F000000423F000464CEA0404524F46EAD474A3
:10AA000098468A4621F00042BC4206D8454240EAB8
:10AA1000050442EAD474BC4204D9BDE8F04D624654
:10AA200001F072B9A8F14055A5F17F6555EA0C0413
:10AA30000BD0022404EAA874434DDFF810E144EA85
:10AA4000DA7452EA000B04D00CE0BDE8F04DFFF7D9
:10AA5000B9BE002C14BF012CBDE8F08D022C30D003
:10AA6000032C32D056EA0C0B0AD0BE4220D1BA4297
:10AA700009D126F0804622F080423346114617E085
:10AA800000291ADB25E0DFF8C8B0FB44002C04BF26
:10AA9000DBE90001BDE8F08D012C02BFDBE900011C
:10AAA00081F00041BDE8F08D022C0AD0032C0CD0BF
:10AAB000BA4212D1BAF1000F0BDA23482549BDE89A
:10AAC000F08D28462449BDE8F08D28467146BDE842
:10AAD000F08D1D482149BDE8F08D921B12153C2ACE
:10AAE000C4BF19481D490EDCB8F1000FBEBF12F1FA
:10AAF0003C0F0020014606DB624601F0C1F921F05F
:10AB00000041FFF75FFE002C08BFBDE8F08D012C6F
:10AB100004BF81F00041BDE8F08D114A114B022CB9
:10AB200007D001F0C1FD2A46BDE8F04D0A4B01F007
:10AB3000BBBD01F0B9FD2A46BDE8F04D064B01F062
:10AB4000C1BC00000000F07F182D4454FB2109C057
:10AB50001A2A0000FB21F9BFFB210940FB21F93F24
:10AB6000075C143326A6A13C2DE9F0474FF068425C
:10AB700002EB400305460C46B3F1654F3CBF02EBC8
:10AB80004102B2F1654F3FD34FF07F42B2EB400F2D
:10AB900028BFB2EB410F03D2BDE8F04701F09ABEE7
:10ABA00040EA01035B0008BF44F0FF410AD0B2EB6A
:10ABB000400F08BFB2EB410F06D125F0804024F0D2
:10ABC000804105460C461FE0B2EB400F12BF5FEA22
:10ABD000410245F0FF4004F0004115D04FEA410228
:10ABE00092EA400310D4002AACBF4FF09F464FF0CA
:10ABF0003E56314602F0A4F805463146204602F0A2
:10AC00009FF8044628462146C0F3C752C1F3C753F4
:10AC1000D21A1B2A06DD10F0004F14BF54485548C5
:10AC2000BDE8F08712F11A0F17DA11F0004F06D0C5
:10AC300010F0004F14BF50485048BDE8F08721463F
:10AC4000284601F0BBFE0446FFF7F4FB042808BFCA
:10AC5000FFF772FC2046BDE8F0874200B2EB410FDF
:10AC600025D910F0004F19BF454F464E464F474E6D
:10AC7000224685F0004415460A4680F00041104601
:10AC80000A1A5200B2F1807F3ED248404049DFF8B4
:10AC900004A110F0004F18D04FF03F48384602F0A2
:10ACA00015FA07465146304602F010FA17E011F047
:10ACB000004F04BF00263746E2D010F0004F19BF06
:10ACC000354F364E364F374EDAE74FF07C58384620
:10ACD00001F000FE07465146304601F0FBFD0646F6
:10ACE0004146284602F02CF8214601F0F3FD824649
:10ACF0002146404602F024F8294602F055F9514613
:10AD000001F05CFE044604E02146284601F056FEB0
:10AD10000446014602F014F88046234902F010F878
:10AD2000224901F0D7FD414602F00AF8204901F01E
:10AD3000D1FD414602F004F81E4901F0CBFD414629
:10AD400001F0FEFF1C4901F0C5FD054641462046C5
:10AD500001F0F6FF294601F0F3FF314601F0BAFD9C
:10AD6000214601F0B7FD3946BDE8F04701F0B2BD1C
:10AD7000DB0FC9BFDB0FC93FDB0F49C0DB0F494009
:10AD80000000C9BF22AAFDB90000C93F22AAFD39AF
:10AD90000060ED3EC30ACE37000049C022AA7DBA4A
:10ADA0000000494022AA7D3A2DAD65BD8FB8D53D42
:10ADB0000FB511BE61C84C3EA8AAAABE2DE9F84342
:10ADC0000446024650486946B0EB420F09D94FF09D
:10ADD000E640B0EB420F8CBF4FF0FF3000200090F8
:10ADE00034E04A4B22F0004083422BD948492046A8
:10ADF00001F0A6FF02F0A8F8054601F0D5FE00F02C
:10AE0000030000904349284601F09AFF0646424954
:10AE1000284601F095FF07464049284601F090FF7B
:10AE200080463F49284601F08BFF214602F0BCF8DE
:10AE3000414602F04BF9394602F048F9314602F03A
:10AE400045F902E01046FFF77DFB0446009D002D0A
:10AE500018DA6000B0F17F4F3CBF4FF07E50BDE884
:10AE6000F88309D14FF00100FFF707FABDE8F84376
:10AE70000021084601F0A2BD2046BDE8F8430121AB
:10AE800002F0F9B9214615F0010F08461DD001F076
:10AE900057FF0646234901F053FF234902F084F887
:10AEA000314601F04DFF214901F014FD314601F01A
:10AEB00047FF214601F044FF214601F00BFD15F04C
:10AEC000020F18BFBDE8F8831AE001F039FF04460D
:10AED000174901F035FF174901F0FCFC214601F04C
:10AEE0002FFF154901F0F6FC214601F029FF4FF034
:10AEF0007E5101F0EFFC15F0020F08BFBDE8F883AA
:10AF000080F00040BDE8F883B61F927E490E4946A6
:10AF100083F9223F1A61342C0020A23300A0FD39AE
:10AF20000000C93F336D4C39DA82083CA0AA2ABE22
:10AF3000B93AB2BACA9F2A3DDDFFFFBE2DE9F04DF6
:10AF400016460F460546020096B01C4621F0004109
:10AF500023F0004014BF4FF0010C4FF0000C0CEB3D
:10AF6000470CFE4B0CEB03084FEA630CC4452DD88D
:10AF70005FEA060818BF4FF0010808EB4408984440
:10AF8000F74B434522D8F74B50EA060C02D09F42BC
:10AF900005D14AB916B000201946BDE8F08D002A47
:10AFA00008BF4FF0000C01D04FF0010C0CEB470331
:10AFB00013F5001F0AD8002E14BF4FF0010C4FF0FC
:10AFC000000C0CEB440313F5001F08D916B03246F1
:10AFD000234628463946BDE8F04D00F095BEDFF81F
:10AFE00088B34FF0000A002FB8BF584523DADF4B73
:10AFF0009842A8BF4FF0020A1DDADA4B98421ADBDA
:10B00000DB4B03EB2053142B08DDC3F1340C26FA81
:10B010000CF303FA0CFCB4450DD108E05EB9C3F1A2
:10B02000140C20FA0CF303FA0CFC844503D103F052
:10B030000103C3F1020A51EA020321D1002C1FDAF5
:10B04000002F18BFBAF1020F02D0BAF1010F0BD0D6
:10B050000220FFF712F916B00022BDE8F04D1346AA
:10B060001046C04900F00CBF0220FFF706F916B0E9
:10B070002A463B46BDE8F04D0020BA4900F000BF2B
:10B08000330076D1584525D107F1804010F5801066
:10B0900001BF002A0020B34916B008BFBDE8F08DFB
:10B0A000B048814207DB002CA1BF1846214616B0EC
:10B0B000BDE8F08D07E0201E05DA80F0004116B0F3
:10B0C0001846BDE8F08DAB497944D1E9000116B0CE
:10B0D000BDE8F08DDFF88CC260452FD1002C28DA56
:10B0E00039B159451CD1002A04BF002002460CD0BA
:10B0F0001FE06AB10220FFF7C0F840F201320020E1
:10B100004FF0E04102F089F80A46394600F0DEBA15
:10B11000954A394616B0002062F31E01BDE8F08D55
:10B1200007DA16B03B46BDE8F04D0020614600F05E
:10B13000A7BE16B010463946BDE8F08D8B4518DD28
:10B14000B4F1804F0DD0A4F10053B3F1FF5310D1EF
:10B150003B1E0EDB16B01046BDE8F04D194600F060
:10B16000A9BC3B4616B01046BDE8F04D194601F0AB
:10B1700075B827F00043A2BBE1B1594538D1002F83
:10B1800006DD002CA1BF0020594616B0BDE8F08DA9
:10B19000002F01DD002C1FDB002F16DA002C14DB42
:10B1A000BAF1010F4FF000000CBF73496E4916B0A1
:10B1B000BDE8F08DBAF1020F18BF002F0CD0BAF124
:10B1C000010F09D1002F07DA0CE0002FB8BF002CC7
:10B1D0000EDABAF1010F05D0002016B00146BDE825
:10B1E000F08D05E016B000204FF00041BDE8F08D75
:10B1F0004FF0010C0CEBE7720F9252EA0A020BD0EF
:10B200005E4A90427DDD5E4B5E4A984216DD914279
:10B210000EDC002C1CDB2CE00120FFF72EF816B012
:10B220000022BDE8F04D13461046114600F028BE3E
:10B230004C48884202DC002C0ADC1AE08A4202DD1B
:10B24000002C05DB15E0474B99421EDD002C10DD7C
:10B250000220FFF712F840F2013200204FF0E041E7
:10B2600001F0DBFF404A16B061F31E021146BDE853
:10B27000F08D0220FFF701F8FFF756F9394A16B0B2
:10B2800061F31E021146BDE8F08D002228463946C2
:10B2900001F00AFA05460F466FF0010201F0BDFF0A
:10B2A0004FF05532384B01F00DF92A463B4600F07D
:10B2B000D5FF0022354B01F005F98B4680462A4622
:10B2C0003B461046194600F0C9FF42465B4600F077
:10B2D000C5FF80460B914FF0C0422D4B28463946A2
:10B2E00000F0BCFF834605912A4A294B40460B9942
:10B2F00000F0B4FF88460290274A284B284639467A
:10B3000000E01BE000F0AAFF4346029A01F0CCF9EE
:10B31000054602460B460B915846059900F0F4FC91
:10B32000002788465A463846059B01F0BDF92A4653
:10B330000B9B01F0C7F8024600F073B90020B1F58D
:10B34000801F07DA35222846194601F066FF0546B8
:10B350006FF0340000EB215022E00000FFFF1F00DF
:10B36000FFFF0F000000F03F0000F07F00004043AF
:10B3700001FCFFFFDC2300000000F0FF0000E041C3
:10B380000000F043FFFFEF3F5555D53F0000E03F81
:10B390004715F73FFE822B6544DF5DF80BAE543E48
:10B3A000A0F2FF300190C1F3130040F07F6141F043
:10B3B00040510291FE498842D8BF4FF0000B0EDD8C
:10B3C000FC498142C8BF4FF0010B08DC01984FF0E7
:10B3D000000B401C01900298A0F580100290F648E6
:10B3E0000299784400EBCB0009910790D0E9002343
:10B3F000284601F059F9059100900798D0E90023FB
:10B400002846099900F080FC02460B460020EB49D3
:10B4100000F036FD0B910B46024606900599009808
:10B4200000F01CFF0A90E648884600277844006830
:10B430000C9002994FF0005040EA610000EB8B4005
:10B4400000F5002102910798D0E900230C9801F043
:10B450002BF92A46099B01F035F83A46434600F09D
:10B46000FDFE0791054638464146029B0C9A00F0C6
:10B47000F5FE059B009A01F025F82A46079B01F08E
:10B4800013F90B9B069A00F0E9FE0A9A06910890C0
:10B4900043461046194600F0E1FE05460246C948FB
:10B4A0000B46079106217844FEF7E8FF0290079BC0
:10B4B0002A4605911046194600F0D0FE059B029AD7
:10B4C00000F0CCFE059105464346384619460A9AD7
:10B4D00000F01AFC069B089A00F0C0FE2A46059B65
:10B4E00000F012FC3A464346059112901046194668
:10B4F00000F0B4FE0022B44B0791009000F004FC71
:10B50000059B129A00F000FC0D463A46AE4B3846B9
:10B5100001F0CAF8079B009A01F0C6F8059B129A41
:10B5200000F0D0FF3A46079112902B461046414654
:10B5300000F094FE0591009043460A9A07991298EC
:10B5400000F08CFE804607912B463A4606990898F3
:10B5500000F084FE4246079B00F0D6FB884606902A
:10B56000059B009A00F0D0FB00200F460546059B86
:10B57000009A01F099F84346069A00F0A3FF80462E
:10B580000D914FF06042914B2846394600F066FE1F
:10B59000059100908E4A8D4B40460D9900F05EFE5D
:10B5A000804604918B4A8C4B2846394600F056FE63
:10B5B0004246049B00F0A8FB884A7A4402EBCB0386
:10B5C000D3E9002300F0A0FB02900491019800F061
:10B5D000DEFD0791DDE904310546029A009800F08E
:10B5E00093FB7F4A7A4402EBCB0BDBE9002300F0AC
:10B5F0008BFB2A46079B00F087FB002788462A46DC
:10B600003846079B01F050F8DBE9002301F04CF8C5
:10B61000059B009A01F048F8049B029A00F052FF43
:10B62000024600200A900F98644DAAF101031843C6
:10B6300001D16C4D0A9000200B4602903046214605
:10B6400000F00CFE82468B46234630461946029A8D
:10B6500001F02AF83A46434600F000FE52465B46A7
:10B6600000F052FB06468A463A4643462146029877
:10B6700000F0F4FD04460F463246534600F044FB0A
:10B68000594A8B46914226DBABEB020353EA000298
:10B6900010D122463B4601F007F880460391534AF9
:10B6A000534B3046514600F02FFB4246039B00F0BF
:10B6B000D3FE2CD20220FEF7E0FD40F20132002042
:10B6C0004FF0E04101F0A9FD0A46294616B062F3A9
:10B6D0001E01BDE8F08D474B2BF000429A4216D375
:10B6E000454A0BEB020353EA000208D122463B46CF
:10B6F00000F0DAFF3246534600F0AEFE07D80220D3
:10B70000FEF7BBFDFEF710FF0A462946DEE72BF0E9
:10B7100000403A493A4A01EB20514FF0000890426C
:10B7200023DD481C4FF4801121FA00F05844C0F387
:10B730000A51344AA1F2FF317A44334B1268CB40AC
:10B7400020EA0303C0F3130040F4801CC1F114008D
:10B750002CFA00F8BBF1000FB8BFC8F10008204672
:10B76000394600F0A1FF04460F4622463B463046CC
:10B77000514600F0C9FA4FF0000B5A46234B584689
:10B78000079100F06BFD05910090214A214B58462E
:10B79000079900F063FDCDE9020122463B46584679
:10B7A000079900F081FF3246534600F08BFE33E0EC
:10B7B0008E9803007AB60B00A21F00000000F03F35
:10B7C000782000000E1F00000000084009C7EE3F6F
:10B7D000FD033ADCF5015B14E02F3EBEEA1D0000DC
:10B7E000B01D00000000F0BF00009040FE822B65FD
:10B7F0004715973C00CC904000346F3F01FCFFFFA1
:10B800000000E03F6C1D0000FFFF0F00432EE63FED
:10B81000396CA80C615C20BE3F4A404B00F01EFD15
:10B82000DDE9022300F070FA07468A46059B009A7C
:10B8300000F06AFA04460E46059B009A00F034FFB9
:10B840003A46534600F03EFE0746224633460B91E9
:10B850001046194600F002FD8346024630488A46EB
:10B860000B4605217844FEF709FE5A46534600F080
:10B87000F5FC2246334600F025FE82468B463A46CA
:10B88000204631460B9B00F0E9FC3A460B9B00F04A
:10B890003BFA00910C9000224FF0804350465946ED
:10B8A00000F002FF0746039152465B4620463146B0
:10B8B00000F0D4FC3A46039B00F0E2FA009B0C9A9D
:10B8C00000F0F2FE2246334600F0EEFE0022154B59
:10B8D00000F0F8FD0E46044601EB0851081500285B
:10B8E00010DC42462046314601F097FCFEF78EFD03
:10B8F000042808BFFEF718FE42462046314601F0F4
:10B900008CFC04460A980B4616B022462946BDE830
:10B91000F04D00F0A3BC0000EF39FAFE422EE63FE6
:10B92000801B00000000F03F2DE9F8430446544816
:10B9300022466946B0EB420F09D94FF0E640B0EB22
:10B94000440F8CBF4FF0FF300020009034E04D4B8F
:10B9500022F0004083422BD94B49104601F0F0F908
:10B9600001F0F2FA064601F01FF900F00300009022
:10B970004649304601F0E4F905464549304601F0B4
:10B98000DFF907464349304601F0DAF9804642497B
:10B99000304601F0D5F9214601F006FB414601F0A1
:10B9A00095FB394601F092FB294601F08FFB02E03E
:10B9B0001046FEF7C7FD0446009D002D1DDA60000D
:10B9C000B0F17F4F09D22046FEF734FD042808BFAE
:10B9D000FEF7B2FD2046BDE8F88308D10120FEF74E
:10B9E0004CFCBDE8F8430021084600F0E7BF2046C4
:10B9F000BDE8F843012101F03EBC214615F0010FDE
:10BA000008461FD001F09CF90446244901F098F93A
:10BA1000234900F05FFF214601F092F9214900F02F
:10BA200059FF214601F08CF94FF07E5100F052FF92
:10BA300015F0020F08BFBDE8F88300BF80F000409A
:10BA4000BDE8F88301F07CF90646174901F078F962
:10BA5000164901F0A9FA314601F072F9144900F0D3
:10BA600039FF314601F06CF9214601F069F92146B0
:10BA700000F030FF15F0020FE0D1BDE8F8830000C0
:10BA8000B61F927E490E494683F9223F1A61342C33
:10BA90000020A23300A0FD390000C93FB93AB2BA74
:10BAA000CA9F2A3DDDFFFFBE336D4C39DA82083C68
:10BAB000A0AA2ABE2DE9F04106460F4600F00EFD71
:10BAC0000D46040018BF0120284320F00040C0F1BB
:10BAD0007F6010F1E0400FD5002E14BF0120002040
:10BAE000384320F00040C0F17F6000F1E0400028C2
:10BAF000A4BF0120FEF7C1FB20462946BDE8F08126
:10BB000070B5054601F05AFA044620F00040C0F135
:10BB1000FF40C00F08D025F00040C0F1FF40C00F2B
:10BB200004BF0120FEF7A9FB204670BD2DE9F843B4
:10BB300004464E4822466946B0EB420F09D94FF001
:10BB4000E640B0EB440F8CBF4FF0FF300020009078
:10BB500034E0474B22F0004083422BD94549104640
:10BB600001F0EEF801F0F0F9074601F01DF800F0E1
:10BB7000030000904049384601F0E2F805463F498D
:10BB8000384601F0DDF806463D49384601F0D8F860
:10BB900080463C49384601F0D3F8214601F004FACA
:10BBA000414601F093FA314601F090FA294601F03E
:10BBB0008DFA02E01046FEF7C5FC0446009D002DFC
:10BBC0001DDA6000B0F17F4F09D22046FEF732FC4B
:10BBD000042808BFFEF7B0FC2046BDE8F88308D172
:10BBE0000120FEF74AFBBDE8F8430021084600F0BB
:10BBF000E5BE2046BDE8F843012101F03CBB2146EB
:10BC0000084601F09DF806461F4901F099F81F49C2
:10BC100000F060FE314601F093F81D4900F05AFE35
:10BC2000314601F08DF81B4900F054FE314601F019
:10BC300087F8194900F04EFE314601F081F81749A6
:10BC400000F048FE314601F07BF8214601F078F81B
:10BC5000214600F03FFE15F0010F08BFBDE8F88354
:10BC60000146BDE8F8430E4800F0A8BEB61F927E1C
:10BC7000490E494683F9223F1A61342C0020A23331
:10BC800000A0FD390000C93FBBE9223C0C6D063B1A
:10BC90008A76CE3CACB5593D35A1083E29AAAA3ECC
:10BCA000000080BF21F00042A2F16052B2F5801F77
:10BCB00001F0004328BFD2F17F6C0BD95FEA001C72
:10BCC00043EAC20242EB507018BF704728BF20F011
:10BCD00001007047B2F5801FBCBF184670474FEA9D
:10BCE000410C1CF5001F02D2084601F0F7B870B5F0
:10BCF00000F05EFB00000089FFF7F6BF4FF0004048
:10BD0000A0F580007047000010B591EA030F48BF0E
:10BD100083F0004300F1D084841A71EB030C05D248
:10BD2000121943EB0C03001B61EB0C01DFF824E15B
:10BD30004FEA1154A4EB135C1EEA430F18BF9EEAAE
:10BD4000445F73D023EA0E03DCF1200E21EA045194
:10BD500043F4801332D322FA0CFE10EB0E0023FAC8
:10BD60000CFE41EB0E01CCF1200E03FA0EFE10EB9F
:10BD70000E0051F10001B1F5801FCCF1200E32D23E
:10BD800001EB045112FA0EF2BDE8104058BF7047A3
:10BD9000401C38BF5FEA420218BF7047002814BF3A
:10BDA00020F0010041F100014FEA410313F5001FAB
:10BDB00038BF7047A1F1C04100F048BB012A43EBF6
:10BDC0000302ACF1200CDCF11F0E32BF4FF0000E6D
:10BDD00023FA0CF310EB030041EB0451B4EB115FB9
:10BDE000D0D0A1EB045101F5801149085FEA300081
:10BDF00001EB04510ED350F1000038BF12FA0EFED1
:10BE000008D1BDE81040C9E7401C38BF5FEA4202D4
:10BE1000CAD1C3E7BDE810404FEA410313F5001F44
:10BE200038BF7047A1F1C04100F010BB9EEA445FEB
:10BE300008D011EA5E0FBDE8104004BF01F00041D8
:10BE400000207047BDE8104070B500F0B1FA00BFA7
:10BE500064FBBE3E0000E0FF02494FF0000001F02D
:10BE6000AAB900BF0000F87F491058BFC1F1404196
:10BE70005B1058BFC3F140438B42EFF30080704723
:10BE80002DE9C04130B4DFF8A0C23CEA111418BF5C
:10BE90003CEA131400F0EC8081EA03051CEA11145B
:10BEA00044EAD57418BF1CEA131500F0C780A4EB50
:10BEB00005044FF0004545EAC12145EAC32341EAA4
:10BEC000505143EA525304F17F74994204F500340F
:10BED0004FEAC0204FEAC22208BF904200F09C8087
:10BEE0004FEA13650FF24016765D4FEA134506FBE5
:10BEF00005F7C7F1807706FB07F74FEAD737A7FBAF
:10BF000003687642C8F58038A7FB06CE38BFA8F193
:10BF1000010807FB08E64FF0000EA6FB028CE6FBCB
:10BF200003CEDCF1000CCEF1004E38BFAEF1010EB5
:10BF3000A6FB0C584FF000074FF00005E6FB0E87FC
:10BF4000A1FB08C6A0FB07CE16EB0E0645F10005C7
:10BF5000E1FB076515F1E04E7EBFA4F580345FEA92
:10BF600046066D4116F1800745F100054FEA172797
:10BF70004FEA066647EA0567A6F1DE46B6F1805F3E
:10BF80004FEA15251FD9384624F0010C05EBC47182
:10BF9000BCF1FE6F01EB0C1102D8F0BCBDE80081D2
:10BFA00024425CBF01F5801E9EEAC47F02D4F0BC2F
:10BFB000BDE80081244238D4F0BCA1F1C041BDE805
:10BFC000004100F043BA4FEAD22242EA43524FEA1C
:10BFD000D323A7FB02864FEAD02040EA415007FB5B
:10BFE00003661EEA0E0F4FEAD12105FB026658BF19
:10BFF000A6EB0056B6EB00564FEA520E4EEAC37E51
:10C0000018EB0E0E56EB530EBDD518EB02085E4131
:10C010007F1C55F10005B6E74FF480154FF000077F
:10C020004FF000064FF00008ADE7F0BC4FF0000005
:10C0300001F1C04101F00041BDE8008111EA0C1F8F
:10C040000CEA131500D00CE013EA0C1F00F0258059
:10C050004FF00000F0BC81EA030101F00041BDE8AF
:10C060000081F0BCBDE8004181EA030100F0EEB9B7
:10C07000F0BCBDE8004170B500F09AF9097EFC3EC5
:10C0800000F007B881EA03014FF0000001F0004121
:10C09000704781EA030100F0D9B9F0BCBDE8004166
:10C0A0004FF0000021497047FFFDFBF9F7F5F4F26E
:10C0B000F0EEEDEBE9E8E6E4E3E1E0DEDDDBDAD843
:10C0C000D7D5D4D3D1D0CFCDCCCBCAC8C7C6C5C4A1
:10C0D000C2C1C0BFBEBDBCBBBAB9B8B7B6B5B4B3B8
:10C0E000B2B1B0AFAEADACABAAA9A8A8A7A6A5A4A3
:10C0F000A3A3A2A1A09F9F9E9D9C9C9B9A99999867
:10C100009797969595949393929191908F8F8E8E09
:10C110008D8C8C8B8B8A8989888887878685858496
:10C1200084838382828181800000FF070000F87F82
:10C130004FEA41034FEA5353A3F58063D3F11E0343
:10C14000C8BFD3F1210C0CDD4FF0004242EAC122FE
:10C1500042EA505232FA03FC8CEAE17CACEBE1702B
:10C160007047102BC4BF0020704703F5787CBCF1EA
:10C17000FF3F04D06FF0004282EA2100704770B5A3
:10C1800000F016F94992248000207047F2E710F081
:10C19000004248BF4042B0FA80F310FA03F10AD0DF
:10C1A000C3F11D0303F580634FEA415002EB0352D4
:10C1B00002EBD12170474FF000007047B0FA80F3D6
:10C1C00010FA03F10AD0C3F11D0303F580634FEAAF
:10C1D00041504FEA035202EBD12170474FF000006B
:10C1E0007047000051EA030C17D41CF5801F58BF9C
:10C1F000BCF5801F00F10680994218BF704708BF48
:10C200009042704707D711F5801F58BF13F5801F64
:10C2100019D499427047894270471CF5801F08D590
:10C22000BCF5801FF7D58B4218BF704708BF82420C
:10C2300070474FF4001C1CEB410F38BF1CEB430F41
:10C2400001D28B42704770B500F0B2F892244900D9
:10C250004FF000514FF08053FFF706BEDFF848C1A2
:10C2600070B51CEA111E1EBF1CEA13159EEA0C0FC6
:10C2700095EA0C0F00F06F8081EA030423EA4C1367
:10C280004EEAD47E21EA4C1141F4801143F480132C
:10C29000AE44A1FB024CA0FB0365AEF17F7E3619D4
:10C2A00055EB0C05A1FB034C4CF10003A0FB021C59
:10C2B00016EB0C06654153F10003094218BF46F026
:10C2C000010613F4007F0BD14FEA03314FEA05302A
:10C2D000340341EA155140EA16506FF003020AE0B8
:10C2E0004FEAC3214FEAC520F40241EA555140EA22
:10C2F00056506FF0020202EB2E4201EB025585EA26
:10C30000CE710AD05FEA440C18BF24F0004450F10B
:10C31000000041F1000120EAD47040F2FE7C624549
:10C3200000D270BDA84214BF4FF080444FF040448B
:10C33000002E08BF0024BEF1806FA8BFA1F1C0414C
:10C34000BDE8704080F282804FF0000001F1C041F2
:10C3500001F0004170479EEA0C0F0CEA131518BF5C
:10C3600095EA0C0F06D04FF0000081EA030E0EF0A4
:10C37000004170BD00F01CF88900013E00F007B8D4
:10C3800000F009B84FEA430C5FEA5C5C08D081EA30
:10C39000030100F05BB84FEA410C5FEA5C5CF6D148
:10C3A0004FF00000014970470000FF070000F87FD0
:10C3B0000EF1020E2EF0030E5EF8046B364205D429
:10C3C000012A43EB030515F5001F12D8012841EBA4
:10C3D000010C1CF5001F0CD80ED14FEAD17C15F5CD
:10C3E000001F0CEB4C0C0CF1020C08BF4CEBD37C87
:10C3F00004E04FF0080C01E04FEAD37C0CEB4C0555
:10C4000026FA05F606F00706B6F1040C06D20EEB86
:10C41000860CBDE870404CF0010C6047DFE80CF082
:10C42000090B02024FF000414FF00000A1F500217E
:10C4300070BD19461046012851EB010418BFD4F510
:10C44000001484BF002001F0004170BD0808A0F571
:10C4500000114FEA3101704753EA010C17D41CF563
:10C46000801F58BFBCF5801F00F106808B4218BFAB
:10C47000704708BF8242704707D713F5801F58BF27
:10C4800011F5801F19D48B4270479B4270471CF5F1
:10C49000801F08D5BCF5801FF7D5994218BF70479B
:10C4A00008BF904270474FF4001C1CEB430F38BF8D
:10C4B0001CEB410F01D2994270470FB40CBC03BC76
:10C4C000FFF7C1BE91EA030F10B581F000413FF5BF
:10C4D00023AC83F0004300F0EFB800002DE9F041F9
:10C4E00001F5801CBCF5001FC0F2C3804FEA115C4F
:10C4F00021EA0C510CF1FD0C41F480115FEA5C0C57
:10C500000CF5C07C01D3400049413DA4890241EAB9
:10C51000905187028E0E0A0CA45D04FB04F602FB08
:10C5200006F6C6F14046A4FB0662F60D46EA422630
:10C5300006FB06F4A4FB01235242C3F1404338BF7B
:10C540005B1EA6FB02420024E6FB0324D20B42EA58
:10C550004446A6FB0623A1FB02E2A3FB07E4A418C2
:10C560004FF0000252F10002E3FB01426442C2F1CB
:10C57000404E38BFAEF1010EA6FB04234FF000027F
:10C58000E6FB0E32A2FB03464FF00004B61954F14D
:10C590000004E2FB0264A1FB06E6A4FB07E816EB3D
:10C5A00008064FF0000858F10008E4FB01687642E5
:10C5B000C8F1405838BFA8F10108A2FB06E4A3FB6C
:10C5C00008E52D194FF0000454F10004E2FB085473
:10C5D000A1FB05E6A7FB04E818EB06084FF00006F0
:10C5E00056F10006E1FB048618F1200556F100061D
:10C5F000A809A8F11B08B10908F03F08B8F10A0F13
:10C6000040EA86601CD901EB0C51BDE8F08100BF07
:10C61000FCF5EEE8E2DDD8D3CFCBC7C3C0BDB9B6D9
:10C62000B4B1AEACA9A7A5A3A19F9D9B9A989695DE
:10C630009392908F8D8C8B89888786858483828165
:10C64000A0FB006800FB01F208EB4208B8EB87286A
:10C6500007D5341858EB0104D5D5401C51F1000121
:10C66000D1E7341A78EB0104CDD4401E71F10001FA
:10C67000C9E75FEA4C0C5FEA9C5C0DD105D34FF033
:10C68000000001F00041BDE8F081BDE8F04170B567
:10C69000FFF78EFE6DDBFFBEBDE8F0414FF00000FE
:10C6A000004970470000F87F10B591EA030F48BFBA
:10C6B00083F000433FF530AB841A71EB030C07D2D3
:10C6C00012198CF0004C43EB0C03001B61EB0C01C6
:10C6D000DFF8A4E14FEA1154A4EB135C1EEA430F08
:10C6E00018BF9EEA445F00F0B08023EA6E03524216
:10C6F00021EA0451C3EB6E0338BF5B1EDCF1200E50
:10C7000025D322FA0CFE10EB0E0043FA0CFE41EB8F
:10C710000E01CCF1200E03FA0EFE10EB0E0051F1CB
:10C720000001CCF1200E29D412FA0EF201EB0451D3
:10C73000BDE8104058BF7047401C1CBFB2F1004F0D
:10C74000704700280CBF491C20F00100704712EB15
:10C75000020E43EB030218BF4FF0010E4EEA4202F5
:10C76000ACF1200CDCF11E0E54D943FA0CFE10EB98
:10C770000E0051F1FF31CCF11E0ED5D50EF1010E98
:10C7800012FA0EFE404141EB010101EB445C5FEA0D
:10C790005C5C10D910EBDE7001EB045138BFBEF1C8
:10C7A000004FBDE8104018BF704700280CBF491C5F
:10C7B00020F00100704730D24FEAD42C11F500115F
:10C7C00024F400641BD0B1FA81F20B3AA41AA41E1F
:10C7D000D2F12003914030FA03F31943904001EB6A
:10C7E000CC71002C01EB0451BDE81040A8BF70478C
:10C7F00001F1C0414FF0000001F000417047B0FA74
:10C8000080F310FA03F100D110BDE41A173C48057B
:10C81000C90AE4E701EB045110BD491001EB0451D2
:10C82000BDE810404FEA300002E04FF000017047D1
:10C830004A0008BF0042F8D0B2F5001F28BF704779
:10C8400001F000414FF0000070479EEA445F07D0BE
:10C8500011EA5E0FBDE8104004BF002100207047C0
:10C86000BDE8104070B5FFF7A3FD00BF40DFF63E06
:10C8700083F00041104670470000E0FF43004FEA9C
:10C88000D30C4FEA3C0C43401FBF40070CF16051F2
:10C8900013F0FE4F70471CF0006F03D100200CF026
:10C8A000004170470CF0004343EA507010B540EA75
:10C8B000CC0000F0C6FA00BF000000924FEA000171
:10C8C000FFF7C4BD4FF000414FF00000A1F500217B
:10C8D0007047000090EA010F48BF81F0004100F16D
:10C8E000FC83421A3CBF801A89184FEAD0524FF09D
:10C8F0007F4C1CEA410FA2EBD15318BF9CEA026F98
:10C9000000F03B804FF0004C4CEA00204CEA012143
:10C9100021FA03FC10EB0C0C1ED202F1FF325FEA8D
:10C920001C2040EBC25038BF70471CF07F0F4FEA0D
:10C93000400C18BFBCF17F4F38BF7047C3F12003D4
:10C94000994008BF20F00100BCF17F4F38BF70470D
:10C95000A0F1C04000F0C2BA4FEA3C00000A40EB30
:10C96000C25028BF1CF0FF0F4FEA400CE6D018BFA2
:10C97000BCF17F4F38BF7047EAE79CEA026F05D0F1
:10C9800010EA5C0F08BF00F00040704710B500F0DF
:10C9900058FA00BF64FBBE3E014800F00CBC00BF6B
:10C9A0000000C07F401058BFC0F14040491058BF40
:10C9B000C1F140418142EFF3008070474FF47F0C9A
:10C9C0001CEAD0121EBF1CEAD11392EA0C0F93EAA4
:10C9D0000C0F00F0858090EA010F48BF42F480728E
:10C9E00040F4000C41F400002CF07F4120F07F4027
:10C9F00000B58142A2EB03020FF2081CACEB504ED3
:10CA0000C0F100009EF800E04FEA4E0E00FB0EFC65
:10CA100038BF49004FEA2C1C02F5FA020CFB0EF35A
:10CA20004FEACE1E4FEA112C4FEAC1210EEB635E96
:10CA300042EB22420EFB0CFC4FEA1C5300FB03119D
:10CA40004FEA112C4FEA01310EFB0CFC4FEADC4C93
:10CA500000FB0C11C14228BF09184CEB03335DF8F1
:10CA600004EB10EB410143EBC250B2F57C0F38BF31
:10CA7000704729D512F0F00F1CBF00F1C04000F044
:10CA800000407047008182838485868788898B8CEB
:10CA90008D8E8F919293959697999A9C9D9FA0A227
:10CAA000A3A5A7A8AAACAEB0B2B3B5B7B9BCBEC077
:10CAB000C2C5C7C9CCCED1D4D7D9DCDFE2E6E9EC18
:10CAC000F0F3F7FAFE0000004FEA400C0CF1807C16
:10CAD000BCF17E4F28BF7047B0F1C04000F0FEB9F6
:10CAE00090EA010F0CEAD11348BF42F4807262450C
:10CAF00038BF634507D213F47F0F16D080EA0100D8
:10CB000000F00040704710B500F09BF9097EFC3E34
:10CB100000F005B880EA010000F00040704780EAAC
:10CB2000010000F0004000F0D9B912F47F0F04BFFB
:10CB30000248704780EA010000F0D0B90000C07FD1
:10CB400050EA010C00F113801CF5000F58BFBCF532
:10CB5000000F01D48842704707D710F5000F58BF67
:10CB600011F5000F15D488427047894270471CF5B3
:10CB7000000F04D5BCF5000FF7D5814270474FF088
:10CB8000807C1CEB400F38BF1CEB410F01D281426F
:10CB9000704710B500F055F9922449004FF000504D
:10CBA0004FF08051FFF7FEBE41000B0ED3F19E0205
:10CBB00008D950F400034FEA032323FA02F048BFD8
:10CBC0004042704710B500F03CF900BF4992248004
:10CBD000002070476FF0004282EA2000704700009A
:10CBE000C10DD1F19E0206DB4FEA002343F0004362
:10CBF00023FA02F07047004207D54FEA4001B1F135
:10CC0000FE4F02D24FF00000704710B500F019F946
:10CC100049922480002070476FEA2000704700008E
:10CC200010F0004148BF4042B0FA80F310FA03F21E
:10CC3000C3F19D030BD051EAC35101EB12205306FF
:10CC400038BF704700F1010008BF20F001007047B5
:10CC50004FF07E5209E011F0004204D54042C1F18C
:10CC6000000138BF491E42F07E520B0002F1706293
:10CC700012BF20235FEA00017047B1FA81FCA3EBE9
:10CC80000C0301FA0CF120FA03FC02EBC352C3F1CE
:10CC9000200341EA0C0110FA03FC5CEA416C42EB10
:10CCA000112018BF5FF0806C28BF20F00100704792
:10CCB000B0FA80F310FA03F2C3F19D030AD0D9054C
:10CCC00001EB1220530638BF704700F1010008BF86
:10CCD00020F001007047000050EA010C00F11380C1
:10CCE0001CF5000F58BFBCF5000F01D488427047F7
:10CCF00007D710F5000F58BF11F5000F15D4884263
:10CD00007047894270471CF5000F04D5BCF5000F31
:10CD1000F7D5814270474FF0807C1CEB400F38BF45
:10CD20001CEB410F01D28142704710B500F089F829
:10CD3000922449004FF000504FF08051FFF732BE6F
:10CD40004FF47F0C1CEAD0121EBF1CEAD11392EAEA
:10CD50000C0F93EA0C0F00F0478090EA010F48BFD8
:10CD600042F480724FF0004C4CEA00204CEA012162
:10CD700002EB0302A0FB0113A2F50002002918BF79
:10CD800043F001035B0028BF4FEA330342EB22422A
:10CD90005FEA132C4CEBC2502EBFBCEB436FB2F5D5
:10CDA0007C0F70474FEA036CBCF1004F08BF20F0C6
:10CDB0000100B2F57C0F38BF70470BD582F0FF023F
:10CDC00012F5803FC8BF704700F1C040D8BF00F0E7
:10CDD0000040704700F5000C5FEA4C0C48BF7047FC
:10CDE000B0F1C04000F07AB890EA010F0CEAD1131C
:10CDF00048BF42F48072624538BF634504D280EA7E
:10CE0000010000F00040704710B500F01AF800BFB4
:10CE10008900013E00F007B800F009B85FEA410C54
:10CE20005FEA1C6C08D080EA010000F057B85FEAA6
:10CE3000400C5FEA1C6CF6D14FF00040A0F580007A
:10CE400070470EF1020E2EF0030E5EF8044B2442E2
:10CE500004D44FEA4102B2F17F4F11D84FEA4003A8
:10CE6000B3F17F4F0CD80ED14FEAD07CB2F17F4F97
:10CE70000CEB4C0C0CF1020C08BF4CEBD17C04E029
:10CE80004FF0080C01E04FEAD17C0CEB4C0324FA84
:10CE900003F404F00704B4F1040C06D20EEB840C86
:10CEA000BDE810404CF0010C6047DFE80CF00708CB
:10CEB00002024FF00040A0F5800010BD084642007D
:10CEC00018BFD2F1807288BF00F0004010BD10B5CD
:10CED000FDF798FA4FF00001016010BDFF2141EA13
:10CEE000D050C005704751EA000C00F113801CF5CA
:10CEF000000F58BFBCF5000F01D48142704707D71F
:10CF000011F5000F58BF10F5000F15D4814270477E
:10CF1000894270471CF5000F04D5BCF5000FF7D50A
:10CF2000884270474FF0807C1CEB410F38BF1CEBF0
:10CF3000400F01D28842704780EA010081EA000177
:10CF400080EA0100FFF7F1BE5FEA400C5FEA1C6C6B
:10CF5000BCF17F0314D4D3F1170240F31C804FF0CF
:10CF6000010C0CFA02FCACF101030340B3EB5C02D0
:10CF700020EA030008BF10EA0C0F88BF6044704726
:10CF8000B3F1FF3F28BF5FEA002C00F0004088BFEC
:10CF900040F07E507047BCF1FF0FB8BF704710B52E
:10CFA000FFF74FFF40DBB6BE80F0004090EA010F74
:10CFB0007FF597AC81F0004100F08FB84FEAD05177
:10CFC000002988BFD1F1FF0240F2758001F17D0197
:10CFD0004FEA002070B5490840F0004038BF4008D3
:10CFE0000EA2430E040CD25C02FB02F304FB03F31B
:10CFF000C3F14043A3FB0254ED0D45EA442202FB7A
:10D0000002F3A0FB03546D42C4F1404438BF641ED8
:10D01000A2FB05350023E2FB0453EA0B42EA43423C
:10D02000A0FB023212F14004A2F12103E40903F053
:10D030007F031F2B32D904EBC15070BDFEFAF7F30A
:10D04000F0ECE9E6E4E1DEDCD9D7D4D2D0CECCCA2C
:10D05000C8C6C4C2C1BFBDBCBAB9B7B6B4B3B2B01A
:10D06000AFAEACABAAA9A8A7A6A4A3A2A1A09F9E5D
:10D070009E9D9C9B9A99989797969594939392913D
:10D0800090908F8E8E8D8C8C8B8A8A8989888787E9
:10D0900086868584848383828281818004FB04F672
:10D0A000B6EB004603D5E64248BF641CC3E7A64280
:10D0B00058BF641CBFE711F0FF0F02D100F0004021
:10D0C000704710B5FFF7BDFE7FDBFFBE90EA010F92
:10D0D00048BF81F000413FF504AC421A04D882F009
:10D0E0000042A0EB020011444FEAD0524FF07F4CB7
:10D0F0001CEA410FA2EBD15318BF9CEA026F4AD041
:10D100004FF0004C4CEA00204CEA012121FA03FCCC
:10D11000B0EB0C0C0FD412F0FE0F36D05FEA4C00CF
:10D120001DD5001240EBC25038BF70471CF03F0FB6
:10D1300018BF70470BE0A2F101025FEA1C2040EB30
:10D14000C25038BF70471CF07F0F18BF7047C3F143
:10D150002003994014BF401E20F001007047800852
:10D160004FEA122308BF7047B0FA80FCA2EB0C0212
:10D17000CCF1280C60FA0CF093EA122F04BF00EBFC
:10D18000C25070474FEAC3707047130A5FEADC1061
:10D1900008BF7047F6E79CEA026F04D010EA5C0F04
:10D1A00008BF0020704710B5FFF74BFE40DFF63E8A
:10D1B00081F0004070470CF00F03092B08BF0820D6
:10D1C00000F07F800A2B0BD0082B18BF704708BFD8
:10D1D0001CF0400F0AD04FF000004FF000017047E4
:10D1E0001CF0400F18BF4FF0004070471CF0100FAC
:10D1F00008D020F0704300F07F4242EAD3014FEAAA
:10D200004370704700F0604021F07F4242EA000224
:10D2100001F07F4040EA727070474FF0FF0C4CF411
:10D22000E06C1CEA11531CBF9CEA030C9445C2BF7E
:10D23000DA4201EB02517047002B0DD0BCF1000F18
:10D240000FD0002A01F00041A4BF41F0E04141F0BD
:10D250007F614FF00000704701F000414FF0000087
:10D26000704750EA01334FF09B0C18BF4CF0806CB4
:10D270007EF4F2AD70474FF0FF0212EAD0521CBFAD
:10D2800092F0FF038B42C2BFD14200EBC150704706
:10D29000002A0AD0002B0BD0002900F00040A4BFC8
:10D2A00040F0FE4040F40000704700F0004070473E
:10D2B00043024FF00B0C18BF4CF0806C7FF46CAB4A
:10D2C00070471CF4801F11D01CF4E02F03D06FEACC
:10D2D000CC31490070474FF04050EFF3008222F00C
:10D2E000704242EA000282F3008870474FF000006B
:10D2F00070474154004F4B0041542B4E414D453F28
:10D30000004F4B2B4E414D453A4372617A65706F29
:10D310006E790041542B4E414D454372617A6570E0
:10D320006F6E790041542B50494E3F004F4B2B50AC
:10D33000494E3A313233340041542B50494E313248
:10D3400033340041542B424155443F004F4B2B4254
:10D350004155443A3131353230300041542B42414D
:10D36000554438000000803F00000000000000002D
:10D37000000000000000803F0000000000000000EE
:10D38000000000000000803F000000000000F03FAF
:10D39000000000000000F83F000000000000000056
:10D3A0000000004003B8E23F000000000000000061
:10D3B00006D0CF43EBFD4C3E033333333333E33FEF
:10D3C000FFAB6FDBB66DDB3F4D268F515555D53F1B
:10D3D00001411DA96074D13F65DBC9934A86CD3FE9
:10D3E000EF4E454A287ECA3F3E5555555555C53FD7
:10D3F00093BDBE166CC166BF2CDE25AF6A56113FC9
:10D40000F16BD2C541BDBBBED0A4BE726937663ECA
:10D410004FBB610567ACDD3F182D4454FB21E93F4C
:10D420009BF681D20B73EF3F182D4454FB21F93F3B
:10D43000E2652F227F2B7A3C075C143326A6813CC1
:10D44000BDCBF07A8807703C075C143326A6913C6C
:10D45000C4EB98999999C9BF711623FEC671BCBFD8
:10D460006D9A74AFF2B0B3BF9AFDDE522DDEADBF40
:10D470002F6C6A2C44B4A2BF0D5555555555D53F58
:10D48000FF8300922449C23F6E204CC5CD45B73F73
:10D49000513DD0A0660DB13FEB0D76244B7BA93FEB
:10D4A00011DA22E33AAD903F0000000000000000D6
:10D4B000000000006E83F9A22915444ED15727FCC5
:10D4C000C0DD34F5999562DB4190433CAB6351FE7E
:10D4D000F0D4000800000020A40300002801000888
:10D4E00090D50008A40300204C120000840100081D
:10D4F0001184A24A04000934010203040607080942
:10D50000C534C310101AB0561A604A23C0123380B3
:10D5100025324B329632E193C201890A01124BDC6B
:10D5200005044BD007044BB80B044B88130403428B
:10D53000F82A4BDC0502C11CAAAA01B60116051F78
:10D54000AAAA021E193F1214126412C8328232644F
:10D5500032C8121E03270A6B0716AAAF0201015D2B
:10D56000223F87A041CDCC4C3D05D20AE81CC11A10
:10D5700080E801622D01020304041009060708096E
:10D58000020406080A39014C01535480841E00002D
:040000050800039D4F
:00000001FF
