:020000040800F2
:10000000C8150020CD03000805310008073100089D
:100010000B3100080F310008133100080000000008
:100020000000000000000000000000001731000880
:1000300019310008000000001B31000837310008AA
:10004000E7030008E7030008E7030008E7030008E8
:10005000E7030008E7030008E7030008E7030008D8
:10006000E7030008E7030008E7030008E7030008C8
:10007000E7030008E7030008E7030008E7030008B8
:10008000E7030008E7030008E7030008E7030008A8
:10009000E7030008E7030008E7030008E703000898
:1000A000E7030008E7030008E7030008E703000888
:1000B000E7030008091300085D120008E7030008C1
:1000C000E7030008E7030008E7030008E703000868
:1000D000E7030008D3200008E7030008E70300084F
:1000E000E7030008E7030008E703000800F002F850
:1000F00000F06DF80AA090E8000C82448344AAF155
:100100000107DA4501D100F062F8AFF2090EBAE852
:100110000F0013F0010F18BFFB1A43F0010318473B
:1001200074E7000094E700000A444FF0000C10F858
:10013000013B13F0070408BF10F8014B1D1108BF65
:1001400010F8015B641E05D010F8016B641E01F805
:10015000016BF9D113F0080F1EBF10F8014BAD1C55
:100160000C1B09D16D1E58BF01F801CBFAD505E073
:1001700014F8016B01F8016B6D1EF9D59142D6D3CD
:10018000704700000023002400250026103A28BFF5
:1001900078C1FBD8520728BF30C148BF0B607047F9
:1001A00066290DF0F487642909F08A87782909F017
:1001B000C187002070471FB50AF0BCFB0400002077
:1001C00000210CF04BFDE0601FBD10B510BD0AF022
:1001D000CBFC1146FFF7EFFF02F062FE0AF0E9FCEC
:1001E00003B4FFF7F2FF03BC01F088FE0CB500205A
:1001F000019000906C48006840F480306A490860C3
:1002000000BF6948006800F4003000900198401C6D
:100210000190009818B90198B0F5A06FF1D162482B
:10022000006800F4003010B10120009001E00020CF
:1002300000900098012843D15C48006840F010000D
:100240005A4908600846006820F003000860084624
:10025000006840F002000860534840685249486016
:100260000846406848600846406840F4806048603E
:100270000846406820F47C1048600846406840F416
:10028000E81048600846006840F08070086000BFD1
:100290004548006800F000700028F9D042484068E6
:1002A00020F00300404948600846406840F00200E2
:1002B000486000BF3C48406800F00C000828F9D1B5
:1002C0000CBD10B5FFF792FF10BD10B536480068A1
:1002D00040F001003449086008464068344908404D
:1002E0003149486008460068324908402E49086094
:1002F0000846006820F4802008600846406820F422
:10030000FE0048604FF41F008860FFF7DAFF4FF0EF
:1003100000602949086010BD10B5002100200022AE
:10032000214B5B6803F00C0121B1042906D0082998
:1003300028D107E0214B224C236027E01F4B204CA3
:10034000236023E0184B5B6803F47010164B5B6866
:1003500003F48032022303EB904022B9194B43434C
:10036000174C23600DE0104B5B6803F4003323B19E
:10037000144B4343124C236003E0104B4343104C97
:10038000236003E00D4B0E4C236000BF00BF064B03
:100390005B68C3F303130C4CE15C094B1B68CB4057
:1003A000074C236010BD00000010024000200240F6
:1003B0000000FFF8FFFFF6FE08ED00E000127A00F3
:1003C0000000002000093D0004000020094880478B
:1003D00009480047FEE7FEE7FEE7FEE7FEE7FEE727
:1003E000FEE7FEE7FEE7FEE704480549054A064B3F
:1003F00070470000CB020008ED000008C80F002085
:10040000C8150020C8110020C811002010B50446EE
:100410004FF0E020006920F004004FF0E021086177
:10042000E11704EB5171C1F3C7011A4A117010466C
:10043000007800EB4001C1EBC0104FF6FF7101EAFC
:10044000C0001549088015A009F006FE10BD70B562
:10045000044602F076FE054600BF02F072FE401B25
:1004600004EB4401C1EBC411B0EBC10FF5D370BD77
:1004700070B5044602F065FE054600BF02F061FE5D
:10048000401BA042FAD370BD002100E0491C81420C
:10049000FCD37047140000201600002044656C61F6
:1004A000792066756E6374696F6E20696E69742059
:1004B000737563636573732E2E2E0D0A00000000A2
:1004C00010B58248806940F0040080498861084680
:1004D000806940F0080088610846806940F00100AA
:1004E00088617B4800684FF2F001884378490860D2
:1004F0000846006843F230010843754908607448B3
:100500000C30006840F00A0071490C3108607148F5
:1005100000684FF20F0188436E4908600846006882
:1005200043F2030108436B4908606A4808300068D9
:1005300040F009006749083108606748406840F0AA
:10054000007065494860C9146248001F07F0FFF950
:100550004FF480715F48001F07F0F9F902215C48F1
:1005600007F0F5F908215A4807F0F1F910BD10B568
:100570005A48007800F0010030B14FF4006155484E
:10058000001F07F0E2F905E04FF400615148001F39
:1005900007F0DDF951480078C0F3400030B14FF466
:1005A00080714C48001F07F0D0F905E04FF48071CE
:1005B0004848001F07F0CBF948480078C0F3800096
:1005C00020B10221424807F0C0F903E0022140486F
:1005D00007F0BDF941480078C0F3C00020B1082100
:1005E0003B4807F0B2F903E00821394807F0AFF9BA
:1005F00010BD10B53A480078072862D2DFE800F055
:1006000004191D3248595D0035484088401C80B2AD
:1006100033494880032801DB002048803048408867
:1006200018B903202D49087002E000202B490870FA
:1006300047E003202949087043E029484088401CCE
:1006400080B227494880032801DB002048802448E5
:10065000408818B90F202149087002E000201F4986
:1006600008702EE01E484088401C80B21C4948801B
:10067000042801DB0020488019484088022803DA5A
:100680000C201649087002E003201449087018E095
:1006900013484088401C80B211494880042801DB7F
:1006A000002048800E488178012088400B4908705E
:1006B00007E00F200949087003E00020074908708F
:1006C00000BF00BFFFF753FF10BD00000010024045
:1006D000000C014004080140000001401C00002003
:1006E0001800002010B52021F84807F014F901285F
:1006F00000D110BD0020FCE738B5044603230222D8
:100700006B21D020009400F03FFD38BD10B50123CF
:1007100007226B21D02000F06CFD10BD38B50446D7
:10072000022304221B21D020009400F02DFD38BDAF
:1007300038B50446022304221C21D020009400F086
:1007400023FD38BD10B50446234606226B21D02078
:1007500000F04FFD10BD10B5DD4B01227521D020FA
:1007600000F0A6FCDA48007810BD10B5FFF7F3FFE3
:10077000682801D1012010BD0020FCE710B5044617
:10078000234605226A21D02000F033FD10BD10B5AC
:100790000446234601223721D02000F02AFD10BD57
:1007A00010B5FFF7E2FF10B1012808D103E0C9A09E
:1007B00009F052FC03E0CDA009F04EFC00BF00BFE1
:1007C00010BD10B580226B21D02000F0D3FC322068
:1007D000FFF73DFE00221921D02000F0CBFC0322C0
:1007E0006B21D02000F0C6FC02223721D02000F07F
:1007F000C1FC03221A21D02000F0BCFC0320FFF72B
:100800008DFF10221C21D02000F0B4FC10BD1CB5BF
:1008100004466B4606223B21D02000F049FC9DF89F
:1008200001009DF8001040EA012000B220809DF8F0
:1008300003009DF8021040EA012000B260809DF89C
:1008400005009DF8041040EA012000B2A0801CBD04
:100850001CB504466B4606224321D02000F028FC3C
:100860009DF801009DF8001040EA012000B22080B0
:100870009DF803009DF8021040EA012000B260805C
:100880009DF805009DF8041040EA012000B2A08008
:100890001CBD38B50546002400BF13E035F8140030
:1008A000000A8DF8000015F814008DF801000620EC
:1008B00000EB4400C1B26B460222D02000F02CFCB9
:1008C000601CC4B2032CE9DB38BD38B505460024F2
:1008D00000BF13E035F81400000A8DF8000015F889
:1008E00014008DF80100132000EB4400C1B26B46E8
:1008F0000222D02000F010FC601CC4B2032CE9DB03
:1009000038BD70B504460D46164604F01F040EB1FE
:1009100044F020040DB144F0400422466D21D02063
:1009200000F028FC70BD10B5044622466E21D02090
:1009300000F020FC10BD10B5654B01226F21D020C6
:1009400000F0B6FB6248007810BD10B5604B022283
:100950001321D02000F0ACFB5D4840785C49097859
:1009600040EA012000B210BD10B5594B02221521FA
:10097000D02000F09DFB564840785549097840EA60
:10098000012000B210BD10B5514B02221721D0201A
:1009900000F08EFB4E4840784D49097840EA01202E
:1009A00000B210BD2DE9F05F83460F4691461C460C
:1009B000002211464846FFF7A4FF2046FFF7B3FF89
:1009C000002649E010257019B84201DDB81BC5B2F8
:1009D000C4F58070A84201DA6042C5B20BEB060A8A
:1009E00053462A466F21D02000F096FB0A9800B3A8
:1009F000002211464846FFF784FF2046FFF793FF89
:100A0000414B2A466F21D02000F052FB4FF00008E6
:100A10000DE01AF808003C4911F80810884202D08D
:100A20000020BDE8F09F08F1010000F0FF08A84594
:100A3000EFDB701986B26019C4B2BE420CDA1CB981
:100A400009F1010000F0FF09002211464846FFF7B6
:100A500058FF2046FFF767FFBE42B3DB0120E0E707
:100A60002DE9FE4F05460F46002456E02046611C46
:100A70008CB215F800A02046611C8CB215F800B0AD
:100A80002046611C8CB22E5C002E0FDD05EB0408A5
:100A9000002001215B465246CDE900103146404618
:100AA000FFF780FF0290A01984B231E02046611C5C
:100AB0008CB215F80090B9F1010F27D132223821FC
:100AC000D02000F057FB0120029021E0000C0140F3
:100AD000CC0300204D505536303530206E6F7420D9
:100AE000666F756E642E2E2E0D0A00004D50553621
:100AF00030353020636865636B207375636365739D
:100B0000732E2E2E0D0A00005E040020002002909D
:100B1000029810B90020BDE8FE8FBC42A6DB012080
:100B2000F9E72DE9FC4104460D4616461F46DDF85F
:100B3000208000203B4632462946CDE900802046F1
:100B4000FFF730FFBDE8FC8170B504460D4600227A
:100B500029462046FFF784FF70BD10B504462246A3
:100B60003821D02000F006FB10BD10B50446224607
:100B70001921D02000F0FEFA10BD38B50446032339
:100B800002221A21D020009400F0FEFA38BD38B5B8
:100B90000446032305221A21D020009400F0F4FA21
:100BA00038BD10B5044622467021D02000F0E2FA8C
:100BB00010BD10B5044622467121D02000F0DAFAAB
:100BC00010BD10B50446234600221146D02000F087
:100BD00010FB10BD10B50446200A8F4908704C70F8
:100BE0000B4602221321D02000F096FA10BD10B55A
:100BF0000446200A884908704C700B4602221521D1
:100C0000D02000F089FA10BD10B50446200A8249B0
:100C100008704C700B4602221721D02000F07CFA9D
:100C200010BD10B5012302226A21D02000F0E1FAA4
:100C300010BD10B5784B02227221D02000F038FA96
:100C4000754840787449097840EA012010BD10B514
:100C5000044622461F21D02000F08CFA10BD10B5AA
:100C6000044622462121D02000F084FA10BD10B5A0
:100C7000044622462021D02000F07CFA10BD10B599
:100C8000044622462221D02000F074FA10BD2DE93E
:100C9000F04781460E4690461C46002211464046CB
:100CA000FFF72FFE2046FFF73EFE002525E0102728
:100CB000E819B04201DD701BC7B2C4F58070B842BC
:100CC00001DA6042C7B209EB05033A466F21D02032
:100CD00000F022FAE81985B2E019C4B2B5420CDA84
:100CE0001CB908F1010000F0FF080022114640463F
:100CF000FFF707FE2046FFF716FEB542D7DBBDE83B
:100D0000F08770B504460D4623462A467421D0204C
:100D100000F0CEF970BD10B53A21D02000F0A5F951
:100D200010BD10B50446234607226A21D02000F0EA
:100D300060FA10BD10B50021D02000F096F90446ED
:100D400004F0010010BD10B50021D02000F08DF995
:100D5000044604F03F04204610BD38B50446E0B216
:100D600006231A4600210090D02000F00DFA38BD6D
:100D700010B50121D02000F078F9044604F03F04BA
:100D8000204610BD38B50446E0B206231A460121BC
:100D90000090D02000F0F8F938BD10B50221D02025
:100DA00000F063F9044604F03F04204610BD38B556
:100DB0000446E0B206231A4602210090D02000F03B
:100DC000E3F938BD70B504460D46032C00DD70BD57
:100DD00004EB44002530C1B22A46D02000F0CAF905
:100DE00000BFF4E710B501231A466A21D02000F0B5
:100DF00000FA10BD10B50446234606226A21D02011
:100E000000F0F7F910BD10B5012303226A21D020AC
:100E100000F0EFF910BD0000CC03002008B501215F
:100E2000082006F0A1FFC020ADF8000010208DF8CA
:100E3000030003208DF802006946FE4806F0D8FC46
:100E4000FDA009F009F908BD10B5FA48006820F0C6
:100E50007040F84908600846006840F0405008605B
:100E60000120FC490860FC49C1F898010420FFF703
:100E7000FFFA0020F74908600420FFF7F9FA002084
:100E8000F549C1F8980110BD10B5EA48006820F096
:100E90007040E84908600846006840F0405008602B
:100EA0000020EC49091F0860EB49C1F89C010420AF
:100EB000FFF7DEFA0120E749091F0860E649C1F89B
:100EC0009C010420FFF7D4FA10BD10B50024D948C6
:100ED000006820F07040D74908600846006840F07C
:100EE000004008600120DB490860FFF7C1FA0120DB
:100EF000D949C1F89801FFF7BBFA0AE0601CC4B2F7
:100F0000322C03DDFFF7C0FF012010BD0120FFF7E9
:100F1000AFFAD048803800680028EFD1CD49091FCA
:100F2000086000BFF1E710B50020CA49091F08603A
:100F3000C048006820F07040BE490860084600685C
:100F400040F0405008600020C349C1F89C010120D6
:100F5000FFF78EFA0120BF49091F0860FFF788FAE2
:100F60000020BD49C1F8980110BD10B50020B94955
:100F7000091F0860AF48006820F07040AD49086064
:100F80000846006840F0405008600120B249C1F8AE
:100F90009C01FFF76DFA0120AE49091F0860FFF7B9
:100FA00067FA0020AC49C1F8980110BD70B504463D
:100FB000A048006820F070409E490860084600681C
:100FC00040F0405008600020A249091F0860002539
:100FD00016E0E0099F4908606006040E0120FFF753
:100FE00047FA01209C49C1F89801FFF741FA002017
:100FF0009849091F08600120FFF73AFA681CC5B23A
:10100000082DE6DB70BD70B50546002489480068F0
:1010100020F07040874908600846006840F00040B2
:101020000860002617E000208A49091F0860012097
:10103000FFF71EFA01208849C1F898016006040EE6
:1010400084488038006808B1601CC4B20120FFF7F2
:101050000FFA701CC6B2082EE5DB15B1FFF763FF6F
:1010600001E0FFF782FF204670BD70B505460E46D1
:101070000024FFF7E9FE2846FFF798FF641CFFF7FE
:1010800024FF3046FFF792FF641CFFF71EFFFFF7B7
:10109000DBFE691CC8B2FFF789FF641CFFF715FF70
:1010A0000020FFF7B0FF0446FFF7EEFE204670BDBC
:1010B0002DE9F04706460F46154698460024FFF7EF
:1010C000C3FE3046FFF772FFFFF7FFFE3846FFF71B
:1010D0006DFFFFF7FAFEFFF7B7FE711CC8B2FFF70E
:1010E00065FFFFF7F2FE00BF0FE0681EA04204D0CC
:1010F0000120FFF788FF814603E00020FFF783FF10
:10110000814608F80490601CC4B2AC42EDDBFFF7E6
:10111000BBFE2046BDE8F0872DE9F04180460D4634
:1011200016461F460024FFF78FFE4046FFF73EFF9E
:10113000FFF7CBFE2846FFF739FFFFF7C6FE00BFDB
:1011400006E0385DFFF732FFFFF7BFFE601CC4B258
:10115000B442F6DBFFF798FE0120BDE8F08170B5E0
:1011600005460E46144631462846FFF77EFF20709E
:10117000012070BD37B504460D4602AB0122294659
:101180002046FFF7C9FF3EBD2DE9F84307468846D4
:1011900014461D46089E6A4641463846FFF7DFFF63
:1011A00028B3601CFF2101FA00F0C4F108012944B2
:1011B000491EFF220A41104300F0FF09C5F1080053
:1011C00006FA00F0C6B2C4F1070006419DF800001F
:1011D00000EA090000909DF80000304300909DF85F
:1011E000002041463846FFF7C5FFBDE8F8830020E0
:1011F000FBE7F8B506460F4614461D466A463946D3
:101200003046FFF7ACFF2DB10120A0409DF8001043
:10121000084305E00120A0409DF8001021EA0000ED
:10122000C0B200909DF8002039463046FFF7A2FF7B
:10123000F8BD0000000C014049494320627573204D
:10124000696E697420737563636573732E2E2E0D3A
:101250000A0000009C8121420080214210B501213A
:10126000D64807F0DEFC00284DD0D5480088401C49
:10127000D3490880D3480088401CD2490880D2480E
:101280000088401CD0490880D0480088401C80B2AB
:10129000CE49088000EBC00101EB00104FF47A71D9
:1012A000B1EB400F05DC0020C84908800120C84987
:1012B0000870C8480088401C80B2C649088000EB0E
:1012C00080004FF47A71B1EB800F05DC0020C1493A
:1012D00008800120C0490870C0480088401C80B2C6
:1012E000BE49088000EB80004FF47A71B1EB400FEB
:1012F00005DC0020B94908800120B94908700121A6
:10130000AE4807F09FFC10BD2DE9FF5F0121B548F5
:1013100007F087FC00287DD001F06EF8B249086024
:10132000C8680CF09DFA82468B46AF4908680BF0FE
:1013300020FF80460022AD4B0BF094FD04460D4685
:10134000A94948690CF08CFA064622462B460BF058
:1013500077FF52465B46CDE900010BF071FFCDE906
:1013600002010BF091FCA0494860A1480068401CB4
:101370009F49086008460068B0F5FA7F73D10020E5
:1013800008609C4808F068FE9B4808F065FE9B4892
:1013900008F062FE9A4808F05FFE9A4808F05CFE8A
:1013A000994808F059FE994808F056FE984808F008
:1013B00053FE984808F050FE974808F04DFE9748B5
:1013C00008F04AFE8B4808F047FE95A008F044FE5E
:1013D00093A008F041FE9349D1F8B0000CF040FA18
:1013E000044622460B4690A008F036FE8D49D1F8FF
:1013F000AC000CF035FA044622460B4691A008F0EA
:101400002BFE8849D1F8A8000CF02AFA044622469F
:101410000B4600E058E092A008F01EFE97A008F0EE
:101420001BFE4FF08040818E9EA008F015FE4FF00D
:101430008040018FA1A008F00FFE4FF08040818F07
:10144000A4A008F009FEA9480188A9A008F004FE9C
:101450008AA008F001FEAC4800680CF001FA0446CE
:1014600022460B4600E02BE0A8A008F0F5FDAE48B0
:1014700000680CF0F5F9044622460B46ABA008F0D4
:10148000EBFDB14800680CF0EBF9044622460B4630
:10149000AEA008F0E1FD79A008F0DEFD52494868F1
:1014A0000CF0DEF9044622460B46AFA008F0D4FD4E
:1014B000B5480179B5A008F0CFFD70A008F0CCFDCB
:1014C0000121484807F0BEFBBDE8FF9F3EB5054639
:1014D0000C460121042006F054FC384806F0A8FC14
:1014E000A0B2ADF80400681E80B2ADF80000002084
:1014F000ADF80600ADF802006946304806F06CFD14
:1015000001212E4807F08AFB012211462B4807F0E3
:10151000DAF80121294807F0BBF8A2A008F09CFDE9
:101520003EBD3EB505460C460121022006F029FCD1
:101530002C4806F07DFCA0B2ADF80400681E80B215
:10154000ADF800000020ADF80600ADF802006946D5
:10155000244806F041FD0121224807F05FFB0122EB
:101560001146204807F0AFF801211E4807F090F817
:1015700093A008F071FD3EBD08B54FF4A06006F0E1
:1015800069F81D208DF8000002208DF80100002070
:101590008DF8020001208DF80300684606F05FF820
:1015A0001E208DF8000001208DF801008DF802004A
:1015B0008DF80300684606F052F808BD00080040A8
:1015C0002A000020380000203E0000203A000020C1
:1015D00030000020400000203300002042000020A6
:1015E0003400002000040040D80900200000B04072
:1015F000440000204CE8000874E7000804E80008F4
:10160000BCE700082CE70008E4E600089CE60008B8
:1016100054E600080CE60008C4E500087CE5000874
:101620000D0A0000D40B002020596177202D2D2DAC
:101630003E2025352E3266206465677265650D0A89
:10164000000000002050697463682D2D2D3E202578
:10165000352E3266206465677265650D0A000000EC
:1016600020526F6C6C202D2D2D3E2025352E32669C
:10167000206465677265650D0A0000003D3D3D3DD3
:101680003D3D3D3D3D3D3D3D3D3D3D3D3D3D3D3D8A
:101690003D3D3D3D3D3D3D3D3D3D3D3D3D3D3D3D7A
:1016A0000D0A0000204D6F746F72204D312050578D
:1016B0004D2D2D2D3E2025640D0A0000204D6F7408
:1016C0006F72204D322050574D2D2D2D3E20256418
:1016D0000D0A0000204D6F746F72204D332050575B
:1016E0004D2D2D2D3E2025640D0A000040000040A8
:1016F000204D6F746F72204D342050574D2D2D2D7D
:101700003E2025640D0A0000D000002020507265A4
:101710007373757265202D2D2D3E2025352E326672
:101720002050610D0A000000D400002020416C749C
:101730006974756465202D2D2D3E2025352E326669
:10174000204D0D0A00000000CC0000202054656DE3
:1017500070657261747572652D2D2D3E2025352EB4
:10176000326620430D0A000020426174746572796C
:1017700020566F6C746167652D2D2D3E2025332E0C
:101780003266760D0A0000004800002020525820E2
:1017900041646472202D2D2D3E20307825780D0A6D
:1017A0000000000054696D6572203420696E697410
:1017B00020737563636573732E2E2E0D0A0000006F
:1017C00054696D6572203320696E69742073756386
:1017D000636573732E2E2E0D0A00000030B540F2A3
:1017E000E734A04200DB204640F2E734A14200DBB0
:1017F000214640F2E734A24200DB224640F2E734C1
:10180000A34200DB2346002800DC0020002900DC86
:101810000021002A00DC0022002B00DC00234FF016
:101820008045A8862987AA87384D2B8030BD10B502
:1018300088B000240121042006F096FA0121084610
:1018400006F09FFA0F20ADF81C0018208DF81F003D
:1018500002208DF81E0007A92D4805F0C9FF4FF0A2
:10186000804006F0E5FA2B4800682B49B0FBF1F008
:10187000401E84B240F2E730ADF81400ADF81040DD
:101880000020ADF81600ADF8120004A94FF080401A
:1018900006F0A2FB684606F0D4FE6020ADF800001A
:1018A0000120ADF802000020ADF80600ADF80800F8
:1018B00069464FF0804006F0CCFB69464FF080400F
:1018C00006F009FC69464FF0804006F051FC69467D
:1018D0004FF0804006F097FC0821C80607F008F892
:1018E0000821C80607F00DF80821C80607F016F809
:1018F0000821C80607F01BF80121880706F0C8FE7A
:1019000006A008F0A9FB08B010BD00004000004090
:10191000000801400000002000366E014D6F746F1A
:101920007220696E697420737563636573732E2EFC
:101930002E0D0A0070B505460C4610217E4806F0B3
:1019400006F8284600F07CF90646204600F078F9B3
:101950001021794805F0F9FF304670BD70B5044696
:101960001021754805F0F3FF204600F069F90020CA
:1019700000F066F9054610216F4805F0E6FF28469D
:1019800070BD2DE9F04107460D46164610216A4804
:1019900005F0DDFF384600F053F98046002404E0EE
:1019A000285D00F04DF9601CC4B2B442F8DB102190
:1019B000614805F0CAFF4046BDE8F0812DE9F041DD
:1019C00007460D46164610215B4805F0C0FF384615
:1019D00000F036F98046002405E0002000F030F9E0
:1019E0002855601CC4B2B442F7DB1021524805F000
:1019F000ACFF4046BDE8F08170B504460D464FF49B
:101A000080514D4805F0A3FF2A462146A020FFF74C
:101A1000B8FF4FF48051484805F097FF70BD1FB5DF
:101A200046A103C9CDE902010024052202A9302004
:101A3000FFF7A7FF052269461020FFF7BFFF00BF91
:101A400006E01DF80400C22800D003E0601CC4B208
:101A5000052CF6DB00BF052C05D13AA008F0FCFAF6
:101A6000012004B010BD3CA008F0F6FA0020F8E711
:101A700010B500F083F8FFF7D2FF08F04CFA10BD64
:101A800010B54FF480512C4805F061FFFF21E22092
:101A9000FFF750FF052237492A20FFF772FF012187
:101AA0002120FFF747FF01212220FFF743FF2821D4
:101AB0002520FFF73FFF20213120FFF73BFF0F21BB
:101AC0002620FFF737FF0F212020FFF733FF4FF4C9
:101AD0008051194805F039FF10BD10B50720FFF7F8
:101AE0003DFF044604F0400058B120222249612005
:101AF000FFF764FF08F0C4F921462720FFF71AFF1B
:101B0000002410BD70B504460720FFF727FF0546E7
:101B100029462720FFF70EFF05F0400050B1202294
:101B200021466120FFF74AFFFF21E220FFF702FF75
:101B3000002070BD0120FCE700080140C2C2C2C203
:101B4000C20000004E524632344C303120666F7570
:101B50006E642E2E2E0D0A004E524632344C303119
:101B600020636865636B206661696C65642E2E2E48
:101B70000D0A0000480000207E04002000B587B058
:101B80000121042006F0F0F80121082006F0ECF80D
:101B90000121080306F0E8F8E020ADF80400012078
:101BA0008DF8060018208DF8070001A9314805F0CE
:101BB0001FFE4FF48050ADF8040001208DF80600A0
:101BC00010208DF8070001A92A4805F011FE102009
:101BD000ADF8040001208DF8060010208DF80700F4
:101BE00001A9244805F004FE1021224805F0ADFEAD
:101BF0000020ADF808004FF48270ADF80A00002014
:101C0000ADF80C00ADF80E00ADF810004FF4007008
:101C1000ADF812001020ADF814000020ADF8160049
:101C20000720ADF8180002A9134807F039FA01217E
:101C3000114807F0DAFA11A008F00EFA07B000BD5B
:101C400010B5044600BF02210B4807F052FB0028E4
:101C5000F9D02146084807F0F9FA00BF01210648EB
:101C600007F047FB0028F9D0034807F0F1FAC0B2AB
:101C700010BD0000000801400030014053504920D1
:101C800062757320696E697420737563636573731D
:101C90002E2E2E0D0A00000010B58B488B4948608F
:101CA0008B4848608BA008F0D7F910BD87480069C1
:101CB00040F080008549086170478448C16801F0A0
:101CC000010008B10120704701F0040008B10220B2
:101CD000F9E701F0100008B10320F4E70020F2E773
:101CE00070B5044600BFFFF7E8FF0546012D00D0A0
:101CF00006E00120FEF7BCFB601E84B2002CF2D18E
:101D000000BF04B9FF25284670BD70B50546002404
:101D100045F6FF70FFF7E4FF0446C4B96B4800695D
:101D200040F002006949086108464561006940F0D9
:101D30004000086145F6FF70FFF7D2FF0446012C12
:101D400005D06248006920F0020060490861204621
:101D500070BD70B505460E46FF20FFF7C1FF044673
:101D600094B95A48006940F00100584908612E8032
:101D7000FF20FFF7B5FF0446012C05D0534800694A
:101D800020F0010051490861204670BD01460888D5
:101D900070472DE9F04105460E461746002407E03E
:101DA00036F814102846FFF7D4FFAD1C601C84B22F
:101DB000BC42F5DBBDE8F08130B503460C46154664
:101DC000002207E01846FFF7E1FF24F812009B1CF1
:101DD000501C82B2AA42F5DB30BD2DE9F05F80468F
:101DE0008A461746B8F1006F02D34248804501D3B6
:101DF000BDE8F09FFFF750FFA8F1006B4FEA9B256D
:101E0000CBF34809C9F50074A74200DC3C464DE01D
:101E10004FF0006101EB85208A143749FFF7CCFFB2
:101E200000260BE009EB0600334931F810004FF6AD
:101E3000FF71884200D003E0701C86B2A642F1DB3D
:101E400000BFA6421BDA4FF0006101EB8520FFF7CF
:101E50005CFF002608E03AF8160006EB0901264A66
:101E600022F81100701C86B2A642F4DB4FF000612C
:101E700001EB85208A142049FFF78BFF04E02246FE
:101E800051464046FFF785FFA74200D10FE06D1C89
:101E90004FF000090AEB440AA044381B87B2B7F59B
:101EA000007F02DD4FF4007400E03C46B0E700BF65
:101EB000FFF7FCFE00BF9BE713B50446012201A912
:101EC0002046FFF78AFF1CBD230167450020024022
:101ED000AB89EFCD496E6E657220464C4153482068
:101EE000756E6C6F636B20737563636573732E2EF1
:101EF0002E0D0A0000000108BE040020014600BFAC
:101F0000704700BF8F4A128802F04002002AF9D0C1
:101F1000C2B28C4B1B1D1A80704708B525208DF866
:101F2000000000208DF801008DF8020001208DF8DE
:101F30000300684605F093FB08BD2DE9F05F0546F8
:101F40000E4630010BF0A6FE81467F4905FB01F0ED
:101F50000BF0A0FE824649460BF022FD07463846AC
:101F60000BF030FE84B220460BF094FE83463946D7
:101F70000CF006F882464FF083410BF0D3FE814609
:101F80000BF020FE80464FF6FF7000EA041404EBCD
:101F9000080084B26D48806940F004006B49886194
:101FA0000846806940F4804088616948006820F4F0
:101FB0007F60674908600846006840F40B6008606D
:101FC0006248C06840F480406049C8600846C06804
:101FD00020F48040C8605B4808300480001D008801
:101FE00042F20C01084357490C310880084600882A
:101FF00040F4807008800846008840F02000088087
:10200000FFF78BFF00205349088048807F2088809D
:102010005148886000205149088048807F2088808E
:102020004F48886029464FA008F016F8314655A061
:1020300008F012F8BDE8F09F028883881A40836890
:1020400099540288521C0280704710B504462146FC
:102050004048FFF7F1FF012240F22771394806F0AE
:10206000D0FE10BD10B5044621463A48FFF7E4FF04
:10207000012240F22771334806F0C3FE204610BD0E
:1020800001464A888B881A408B68985C4A88521CA3
:102090004A807047014608884A88801A8A8810401A
:1020A000704701884180704770B504460D46002690
:1020B00006E021782748FFF7BFFF641C701CC6B2FA
:1020C000AE42F6DB012240F227711E4806F099FE6F
:1020D00070BD10B540F227711A4806F077FF90B135
:1020E0001C48FFF7CDFF04462146164806F0EAFEDD
:1020F0001848FFF7CFFF18BB002240F227711148A4
:1021000006F07FFE1CE040F225510E4806F05EFF0F
:10211000B0B140F225510B4806F082FF094806F0A5
:10212000D5FE1F490870084601780C48FFF784FF68
:102130001B48007801F0B7FA1948007801F04EFC0E
:1021400010BD00000038014040420F000010024066
:1021500004080140C008002058090020CC080020D5
:10216000D80800204D435520636C6F636B20667266
:10217000657175656E63793A25644D487A200D0A5C
:1021800000000000554152542031206261756420E6
:1021900066726571756E63793A2564200D0A0000D8
:1021A0005400002010B5CF48806940F00800CD49A8
:1021B0008861CD48006820F00F00CB490860C9480D
:1021C000806940F40070C74988610846C06840F4DF
:1021D0000070C8600846C06820F40070C8600846F7
:1021E000406820F4404048600846406840F40040A1
:1021F0004860BE480068BE490840BC4908600846BF
:10220000006808600846006820F480700860081DB7
:10221000006820F00200091D08600846006820F4EC
:10222000602008600846006840F4602008600846A6
:10223000006840F4801008600846006820F40060E0
:1022400008600846006840F400000860A74828308D
:10225000006820F47000A54928310860084600682D
:1022600000200860A1480C30006820F038009F4929
:102270000C3108600846006840F038000860081F0C
:10228000006820F4E010091F08600846006840F468
:10229000E0100860081F006840F00100091F086096
:1022A0000846006840F00800086000BF8F48001D25
:1022B000006800F008000028F8D18C48001D006874
:1022C00040F004008949091D086000BF8748001DCF
:1022D000006800F004000028F8D18648864988602C
:1022E000864808618648C8600A46116990680BF004
:1022F00057FB814948614FF4FA60886181A007F07B
:10230000ABFE10BD014679483030006820F01F0058
:10231000764A3032106010460068084310607348F7
:10232000001D006840F48000704A121D106000BF5C
:102330006E48001F006800F002000028F8D06B48CB
:102340004830006880B2704770B506460B460024DE
:10235000002505E03046FFF7D5FF0444681CC5B2F0
:102360009D42F7DBB4FBF3F080B270BD2DE9FE4F68
:102370000024A14608E01020FFF7C4FF204484B2E7
:1023800009F1010000F0FF09B9F1140FF3DB14208B
:1023900094FBF0F084B220460BF07CFC82460BF0FC
:1023A0005FFA07464FF066325E4B0AF049FF05467A
:1023B0000AF06AFC029002980BF052FA05465A4A5B
:1023C0005A4B0BF071F80746594A5A4B0AF04AFD2E
:1023D0000022594BCDE900010AF088FC82460AF040
:1023E00053FC0290554902980BF09CFC0290029815
:1023F0000BF0CCFBBDE8FE8F00B505210820FFF7F0
:10240000A3FF00BD2DE9FF5FFFF7F6FF3A49086023
:10241000C8680BF025FA82468B46374908680AF0EF
:10242000A8FE80460022464B0AF01CFD04460D46DD
:10243000314948690BF014FA064622462B460AF049
:10244000FFFE52465B46CDE900010AF0F9FECDE9F8
:1024500002010AF019FC284948603A48007860B146
:10246000084600688969884203DC01202249087710
:102470001EE00020204908771AE01F4948680BF049
:10248000EFF90446304A314B0AF09EFE0DD21A494C
:1024900048680BF0E5F9044600222D4B0AF0CEFF08
:1024A00003D201201449087702E00020124908777E
:1024B000114948680BF0D4F904460022244B0AF075
:1024C00083FE0AD201200C4948770421064805F012
:1024D0003EFA20A007F0C0FD02E000200649487740
:1024E000BDE8FF9F00100240000C014004240140A1
:1024F000FFFFF000CDCC7C40D8090020A470FD3F48
:10250000D7A3504042617474657220766F6C746119
:10251000676520414420696E6974202E2E2E0D0AB5
:102520000000000066664A3FE17A14AE47E1F63FDC
:1025300022FDF675E09C713F00003940000020410B
:102540000000B040BC0300209A99999999990D40D8
:102550000000F03F425420706F77657220636C6F0B
:10256000736520737563636573732E2E2E0D0A00D9
:1025700010B57A48806940F0080078498861784849
:10258000006820F47060764908600846006840F4EE
:102590004070086072480C30006840F004007049D8
:1025A0000C31086004216E4805F0CFF96DA007F0EA
:1025B00053FD10BD70B50546002404E000207049AD
:1025C0000855601CC4B2142CF8DB4FF400616D4850
:1025D00005F0BBF96420FDF73AFF4FF4006169484C
:1025E00005F0B5F9002404E0285DFFF72EFD601C1E
:1025F000C4B2284607F051FEA042F5D86420FDF78A
:1026000026FF002407E06048FFF73AFD2146621CE0
:10261000D4B25B4A50545C48FFF73CFD0028F2D12D
:1026200070BD70B50546002407E05548005D295D82
:10263000884200D006E0601CC4B2284607F02DFE98
:10264000A042F2D800BF284607F027FEA04201D0E2
:10265000002070BD0120FCE710B5002414E04B48B9
:1026600050F824104A480078FFF767FC4948FFF704
:10267000A1FF4948FFF7D5FF012803D1434850F88F
:10268000240010BD601CC4B2092CE8DB4FF4E1301B
:10269000F7E710B53F48FFF78DFF3F48FFF7C1FF51
:1026A000012800D110BD3DA007F0D6FCFFF7D4FFF4
:1026B0004849086008460068B0F5E13F40D0464808
:1026C000FFF778FF4548FFF775FF002435E04FF42A
:1026D00000612C4805F039F94FF48071294805F064
:1026E00034F902211E4805F030F908211C4805F094
:1026F0002CF94FF47A70FDF7AAFE4FF400612148DF
:1027000005F025F94FF480711E4805F020F90221EB
:10271000134805F01CF90821114805F018F94FF489
:102720007A70FDF794FE2E4850F824002949096874
:10273000884200D103E0601CC4B2092CC7DB02E070
:1027400028A007F089FC4FF4E13111480078FFF729
:10275000F4FB2CA007F080FC00BFA3E700100240B0
:10276000000C0140425420706F77657220696E69D9
:102770007420737563636573732E2E2E0D0A00002B
:10278000C00A002000080140CC0800205C000020A6
:102790001C010020CEE20008D1E200084254206271
:1027A00061756E6420636865636B20616E64206987
:1027B0006E697420626567696E2E7072696E7466E8
:1027C000206973207573656C6573732E0D0A0D0A8D
:1027D0000000000080000020EFE2000849E300084C
:1027E000840000204254206D6F64756C6520626126
:1027F000756420697320313135323030206F6B6160
:10280000790D0A000D0A4254206261756E642063DE
:102810006865636B20616E6420696E697420656E03
:10282000642E0D0A00000000FD49FE4A127841F8AE
:102830002200FC490978491C0A2291FBF2F302FBB1
:102840001311F84A11707047F749F84A127841F8A5
:102850002200F6490978491C0A2291FBF2F302FB97
:102860001311F24A1170704710B50146012008E0BB
:10287000EF4A52F82030421EED4C44F82230421C00
:1028800010B20A28F4DBEA4A516210BD2DE9F0418A
:1028900006460C460027002506E056F82510384667
:1028A0000BF00AF807466D1CA542F6DB20460BF03C
:1028B000A9F98046414638460BF072F8BDE8F08130
:1028C00070B5002430E0FEF7BFFAEE20FEF76EFB95
:1028D000FEF7FBFAA22101EB4401C8B2FEF766FB4A
:1028E000FEF7F3FAFEF7D0FA0520FDF7C1FDFEF77B
:1028F000ABFAEF20FEF75AFB0120FDF7B9FDFEF71A
:10290000E4FA0120FEF77FFB05460120FDF7B0FD4C
:102910000020FEF778FB0646FEF7B6FA46EA0520E9
:10292000C44921F81400641C062CCCDB70BD10B522
:10293000FEF78AFAEE20FEF739FBFEF7C6FA1E20F4
:10294000FEF734FBFEF7C1FAFEF79EFA10BD10B594
:102950000446FEF779FAEE20FEF728FBFEF7B5FAFB
:102960002046FEF723FBFEF7B0FAFEF78DFA10BD06
:1029700038B50024FEF768FAEE20FEF717FBFEF7E5
:10298000A4FA0020FEF712FBFEF79FFAFEF77CFA8E
:10299000FEF75AFAEF20FEF709FBFEF796FA012040
:1029A000FEF731FB8DF800000120FEF72CFB8DF8BF
:1029B00001000020FEF727FB8DF80200FEF764FA05
:1029C0009DF8000001049DF8010001EB00209DF836
:1029D00002104418204638BD10B5FFF7A8FF642048
:1029E000FDF735FDFFF76CFF10BD10B5FFF7C0FF19
:1029F0009149086010BD2DE9F04F85B0002004908A
:102A000000218E4800680BF08DF830D18C4800888A
:102A1000322813DD8A4800880AF0C2FB0646324697
:102A20000B46884903C90AF01DFA04460AF02CF93E
:102A3000824908600120844908700BE083480068DF
:102A40000AF00EFF04467F480CC820460AF04EF9F3
:102A50007C4A03C27A480088401C794908800020DB
:102A60007B4908600846006805B0BDE8F08F7348F0
:102A70000168764800680AF093FF01900AF0F0FEC2
:102A8000744A754BCDE9020109F03AFA80460022FA
:102A9000724B0AF009FD06460022714B0AF0D0FB8A
:102AA00004464FF080426F4B0AF0CAFB82460AF0A0
:102AB000EBF8674908606C480168654800680AF0EF
:102AC000FBFE6349086008460068CDE72DE9F04F3A
:102AD0008FB0FFF74DFF8246564800895649096876
:102AE000A1EB0020C5170446524840890021A0FBF5
:102AF00004B301FB043100FB05114FF40002002375
:102B0000584607F084FA4FF4FA6C024612EB0C06B2
:102B100041F10007474841880020000440EA114085
:102B20000A044449C9880023A1FB04CB03FB04B376
:102B300001FB05334FEADC1141EA4361511840EBD8
:102B4000E310CDE90C103B4801884FF000004FEA3C
:102B5000C03040EA51404FEAC132364989884FF0CF
:102B60000003A1FB04CB03FB04B301FB05334FEAD5
:102B70001C2141EA0361511840EB2320CDE90A10E2
:102B80004FF4FA61711A77F1000076DAA4FB0401C0
:102B900005FB041104FB0511C00F40EA4100C917F1
:102BA000CDE908014FF4FA62B11A67F10000A1FB08
:102BB000018200FB012201FB002905210020A8FB66
:102BC000012309FB013108FB001040104FEA3201DC
:102BD000CDE906104FF005014FF00002A8FB0103FC
:102BE00009FB013108FB02114FEA900040EA8170B5
:102BF0004FEAA101CDE90401DDE90801361A67EBCE
:102C00000107DDE90CC2DDE90610BCEB010162EB56
:102C10000002CDE90C12DDE90AC2DDE9040126E07B
:102C2000E00A002000010020080B00200101002024
:102C3000300B0020D40A0020B4000020BC0000208B
:102C4000C8000020C0000020CA000020D0000020E2
:102C500004010020EBE2361AC05BC83F0000F03FE1
:102C60001AE95041E17A843FB800002005E0BCEB4E
:102C7000000062EB0102CDE90A024FEAEA72DDE9E7
:102C80000A01AAFB003C02FB00C00AFB0100590D2F
:102C900041EAC0234115DDE90C209A1A61EB0001DD
:102CA000CDE900214FF400420023009807F0AFF96E
:102CB000CDE902010AF0C1FF6E490860304639468D
:102CC0000AF0BBFF6C4903900BF02CF88346FFF72A
:102CD000ABFD0A216948FFF7D9FD69490860FFF794
:102CE0008AFE684908600FB0BDE8F08F10B56648ED
:102CF0000078012806D0022813D0032820D0042809
:102D00003FD12CE05820FFF722FE6048006A60495E
:102D1000086000F016FA5F49086002205A490870FE
:102D200033E000F00EFA5B490968401A5849096817
:102D3000884204D9FFF759FE03205349087024E064
:102D40004820FFF704FE5148006A5149086000F02E
:102D5000F8F95049086004204B49087015E000F06C
:102D6000F0F94C490968401A49490968884207D96D
:102D7000FFF7ACFEFF204849087001204249087067
:102D800003E001204049087000BF00BF10BD10B52E
:102D90003D480078012804D0022811D0042846D1EB
:102DA00028E05820FFF7D3FD3848006A384908600A
:102DB00000F0C7F9374908600220334908703AE04B
:102DC00000F0BFF933490968401A3149096888425F
:102DD0000FD9FFF70AFE4820FFF7B9FD2B48006A1C
:102DE0002B49086000F0ADF92A4908600420264903
:102DF000087020E000F0A5F926490968401A244926
:102E00000968884212D9FFF761FEFF202249087045
:102E10005820FFF79CFD1D48006A1D49086000F01E
:102E200090F91C49086002201749087003E002204D
:102E30001549087000BF00BF10BD70B50024002503
:102E400000F07FF904460FE0FFF7A1FF00F079F9E9
:102E50000546281B4FF47A71B0FBF1F040F6C4111F
:102E6000884201D3002070BD0C4800780028EBD0C8
:102E70000120F8E7D00000200AD7233CE00A002018
:102E8000CC000020D4000020A8000020DC0000209E
:102E9000AC000020B0000020CB000020CA000020C1
:102EA000092000F0EBF900F039F9844800684FF48C
:102EB0007A72B0FBF2F1B1F1807F00D31DE021F016
:102EC0007F40401E4FF0E022506150170F22002833
:102ED00007DA13071D0E7A4B00F00F04241F1D554F
:102EE00003E013071C0E774B1C5400BF00204FF06B
:102EF000E02290610720106100BF4FF4E131724879
:102F00000078FFF71AF800F053F9FEF7C5FE03F05A
:102F100026FAFDF7D5FAFFF72BFBFEF788FCFFF743
:102F200041F9FDF77BFFFDF74CFCFEF7A1FD00F03A
:102F3000EFF9FFF7AEFBFFF765FAFFF74DFD01F084
:102F4000E7FB4FF47A7160480078FEF7BFFA0A2376
:102F50001A4619461846FEF741FC01205B490870E5
:102F6000FFF76BFFA8E05A4800880A282DDB0020F5
:102F70005749088000F0E5F856494968401A564913
:102F8000486000F0DEF85349486004F016F801206C
:102F900052490870FFF7FBFE5148007850B101F02C
:102FA00047FD38B100204E49087001204D49087096
:102FB0004D49087006F0F5FA06F08AFE00F0C1F8F7
:102FC00044494968401A49494860FEF786FD484827
:102FD000007820B300204649087000F0B2F83D495F
:102FE000C968401A3C49C86000F0ABF83949C8606C
:102FF00000F038FA04F0DAFA34480078022801D1F7
:1030000004F0A9FA02F074F906F07FFB06F035FA35
:1030100000F097F82F49C968401A3449C86035480C
:103020000078002840D000203249087000F089F86C
:1030300028498968401A2849886000F082F82549A3
:1030400088602D480088401C80B22B49088000EB26
:10305000C00101EB001041F28831B1EB800F04DCBC
:10306000002025490880FFF7CDF92448007820B1D9
:1030700000F035FC0020214908701A48007820B182
:1030800000201849087003F081F904F002FA04F0F6
:10309000DBF904F030FAFDF7ACFA00F052F80D4914
:1030A0008968401A114988601548007820B10020CD
:1030B0001349087000F0CAFE55E700000000002028
:1030C00018ED00E000E400E01C010020780300207F
:1030D0003E000020580B0020800B0020280000201C
:1030E000CE010020BC020020D40B00206C0B00207D
:1030F00030000020340000201001002021010020B9
:103100003C010020704700BFFEE700BFFEE700BFA4
:10311000FEE700BFFEE770477047704700B585B017
:10312000684604F0B4FD1F490098B0FBF1F01E4959
:10313000086005B000BD1D480068401C1B490860C0
:10314000704700BF194801684FF0E02082691748B6
:1031500000688142F6D11448006800EB4003C3EBDD
:10316000C010C2EBC000104B1B68B0FBF3F001EBCA
:103170004103C3EBC11300EBC300704730B50446F5
:10318000FFF7DFFF054600BFFFF7DBFF401B04EB47
:103190004401C1EBC411B0EBC10FF5D330BD0348FE
:1031A0000068704740420F00140100201801002001
:1031B00010B5FEF7E1F9FEF7B0FE10BD00209C4906
:1031C0000861C8601420486100208861C861084611
:1031D000006840F0010008600846406895490840D2
:1031E0009349486008460068934908409049086040
:1031F0000846006820F4802008600846406820F4F3
:10320000FE004860002088607047014688480068DA
:1032100040F00100864A10601046006810601046B9
:10322000006840F48020106000BF8148006800F012
:1032300002000028F9D07E484268881E42EA804099
:103240007B4A50601046406850601046006840F06D
:103250008070106000BF7648006800F000700028A1
:10326000F9D07348406840F00200714A5060880607
:10327000000E724A107010460078704700B5024682
:103280000023FFF79BFF6A48006840F480306849DC
:10329000086000BF66480068400C0028FAD04FF470
:1032A000806063494860901EC2B20846406840EAA8
:1032B000824048600846406840F48030486060487A
:1032C000006840F032005E4908605948006840F0EC
:1032D00080705749086000BF55480068400E0028BC
:1032E000FAD05348406840F002005149486005E078
:1032F0004F484068C0F3870303F00303022BF7D164
:10330000901CC006000E4D4908700846007800BDAC
:1033100010B5002455E04FF400614A4804F015FB55
:103320004FF48071474804F012FB0221464804F034
:103330000EFB0821444804F00AFB4448FDF7A4F8BA
:103340004FF400613F4804F002FB4FF480713D48A8
:1033500004F0FBFA02213C4804F0F9FA08213A484B
:1033600004F0F5FA3948FDF78FF84FF4006135485D
:1033700004F0EDFA4FF48071324804F0E8FA0221CB
:10338000314804F0E2FA08212F4804F0E0FA2F480F
:10339000FDF77AF84FF400612A4804F0D8FA4FF4A8
:1033A0008071284804F0D3FA0221274804F0CFFAAC
:1033B0000821254804F0C9FA2448FDF765F8601C87
:1033C000C4B2042CA7DB00242BE04FF400611D489D
:1033D00004F0BBFA4FF480711A4804F0B6FA0221E7
:1033E000194804F0B2FA0821174804F0AEFA174859
:1033F000FDF74AF84FF40061124804F0A8FA4FF4C0
:103400008071104804F0A3FA02210F4804F09FFADB
:1034100008210D4804F09BFA0C48FDF735F8601CB4
:10342000C4B2032CD1DB0AA006F016FE10BD0000CA
:10343000001002400000FFF8FFFFF6FE1C01002014
:103440000020024000080140000C0140A0BB0D001C
:1034500041726D656420737563636573732E2E2EE0
:103460000D0A00002DE9F047FE48C088B0F57A7FCC
:1034700003DA4FF47A70FB49C880FA48C088B0F587
:10348000FA6F03DD4FF4FA60F649C880F54880888A
:10349000B0F57A7F03DA4FF47A70F2498880F14808
:1034A0008088B0F5FA6F03DD4FF4FA60ED4988804B
:1034B000EC484088B0F57A7F03DA4FF47A70E94936
:1034C0004880E8484088B0F5FA6F03DD4FF4FA60B1
:1034D000E4494880E3480088B0F57A7F03DA4FF486
:1034E0007A70E0490880DF480088B0F5FA6F03DDA4
:1034F0004FF4FA60DB490880DA49C988A1F57A708F
:103500000AF080FBD8498860D6498988A1F2DC504E
:103510000AF078FB8146D54AD54906F0C6F804463C
:103520000AF09EF90746D34AD34B09F089FE0546B7
:1035300009F0AAFBCC49C860CA494988A1F2DC500D
:103540000AF060FB8146CD4AC94906F0AEF8044650
:103550000AF086F907460022C94B09F071FE0546BC
:1035600009F092FBC0494860BE490988A1F2DC50CD
:103570000AF048FB8146C14ABD4906F096F8044668
:103580000AF06EF907460022BD4B09F059FE0546C8
:1035900009F07AFBB4490860BA480078012802D0E3
:1035A000032827D112E001F055FB48B1B648007F4F
:1035B00030B90220B3490870A520B449087004E06E
:1035C0000020B2490870AF49087014E00020AF49EC
:1035D00008700120AE490870AE4908700020AE495D
:1035E0000860AE48AE4908600020AE490870A549A1
:1035F000087000E000BF00BFBDE8F08710B5AA4822
:1036000000790C2841D008DC05282ED0062830D0BF
:10361000072809D0092844D13FE00D2839D01028C7
:103620002BD0CD283DD12CE09F4840799E49897907
:1036300040EA01208B49C8809B48C0799A49097AA1
:1036400040EA0120874988809748407A9649897ADC
:1036500040EA0120834948809348C07A9249097B17
:1036600040EA01207F4908801BE00120854908705D
:1036700017E003208349087013E001208B4908708C
:103680000FE001208A4908700BE0012005F0E6FEFA
:1036900007E0002005F0E2FE03E002207C4908700C
:1036A00000BF00BF10BD10B504467F4881490978AE
:1036B000445480480078032834DA7E48007820B1EA
:1036C00001280ED002282CD11BE0774879490978CF
:1036D000405C242804D177480078401C7549087064
:1036E0001FE0714873490978405C4D2805D1714845
:1036F0000078401C6F49087002E000206D49087096
:103700000FE069486B490978405C3C2805D169485D
:103710000078401C6749087002E000206549087085
:1037200000BF38E063480078032808D100206249D0
:1037300008705D485F490978405C604908705D48E1
:103740000078401C5B490870084601785B480078A7
:10375000801D814215DB57480078401E5249085CA5
:1037600055490978884208D1FFF748FF012054499C
:103770000870FFF714FD5349086000204D49087098
:1037800009E04C480078401E4749085C4A490978DE
:1037900048404949087010BD10B5044621464A48C2
:1037A000FEF74AFC4448007860404349087010BD69
:1037B00010B5044645490C70084601784248FEF7AA
:1037C0003BFC3D4800784149097848403A49087037
:1037D000200A3E490870084601783B48FEF72CFC59
:1037E0003548007839490978484033490870200C39
:1037F00036490870084601783348FEF71DFC2E480C
:1038000000783249097848402B490870200E2F492A
:103810000870084601782C48FEF70EFC2648007810
:103820002A49097848402449087010BD10B504465B
:1038300027490C70084601782348FEF7FDFB1E4817
:1038400000782349097848401B490870200A20491C
:103850000870084601781C48FEF7EEFB1648007811
:103860001B4937E02E010020540F002000008C423D
:103870000000FA43AA9F9622DCA54C400000484273
:103880000000444029010020D8090020BC0300208A
:10389000780300208003002088030020CDCC0CBFDB
:1038A0008403002038030020940B00202101002015
:1038B000CE0100202B010020360100202C01002029
:1038C0002A01002024010020C00800203701002028
:1038D00038010020097848403849087010BD70B59B
:1038E0002420FFF759FF4D20FFF756FF3E20FFF73A
:1038F00053FF0020314908700E20FFF74DFF1020C4
:10390000FFF74AFF2E49D1F8A8002E490AF00AFA1B
:1039100005460AF03BF904B22046FFF787FF284925
:10392000D1F8AC0027490AF0FDF905460AF02EF956
:1039300004B22046FFF77AFF2149D1F8B0002149AF
:103940000AF0F0F905460AF021F904B22046FFF723
:103950006DFF1D48806880F000461C4930460AF023
:10396000E1F905460AF012F90446FFF721FF18496C
:10397000486816490AF0D6F905460AF007F904B274
:103980002046FFF753FF1048406980F00046114978
:1039900030460AF0C7F905460AF0F8F804B22046A6
:1039A000FFF744FF05480078FFF7F6FE012240F2DA
:1039B0002771094805F025FA70BD00003601002086
:1039C000D40B002000002041AC0C00200000C842B5
:1039D000D809002000007A4400380140F7490978EE
:1039E00007295AD2DFE801F0040D171D592C4900B0
:1039F0000021F34A1170AA2802D10121EF4A117067
:103A00004BE0AF2803D10221EC4A117002E0002103
:103A1000EA4A117041E0EB4908700321E74A11704E
:103A20003BE0E94908700521E44A1170E64909784C
:103A300001F25911E34A12781144E14A11702CE065
:103A4000E2490978E04A127891420CDADF490A78B3
:103A50000978491CDD4B1970DD498854D84909782B
:103A60000144D74A1170D9490978D74A127891424E
:103A700002D10621D14A11700FE0D1490978814263
:103A800007D10121D34A11700021D04A1170D24AC6
:103A900011700021C94A117000BF00BF704710B5F6
:103AA000002400BF05E0CD49085DFFF797FF601CCB
:103AB000C4B2062CF7DB10BDC9490A780978491C45
:103AC000C74B1970C7498854C74909780144C64A89
:103AD0001170704710B50446C4F30720FFF7ECFFE0
:103AE000E0B2FFF7E9FF10BD70B505460E460024B1
:103AF00004E0285DFFF7E0FF601CC4B2B442F8DBCD
:103B000070BD10B5B6480178B648FEF7CDFA002072
:103B1000B3490870B449087010BD70B50446002060
:103B2000B1490870AA20FFF7C7FFAA20FFF7C4FF1A
:103B30002046FFF7C1FF102C06D0112C50D0122CBC
:103B40007ED0142C4BD1E5E00C20FFF7B5FFA74940
:103B50000868A7490AF0E6F806460AF017F805B221
:103B60002846FFF7B7FFA1494868A1490AF0DAF8EB
:103B700006460AF00BF805B22846FFF7ABFF9B4953
:103B800088689B490AF0CEF8064609F0FFFF05B2A7
:103B90002846FFF79FFF9749086895490AF0C2F841
:103BA000064609F0F3FF05B22846FFF793FF914957
:103BB00048688F490AF0B6F8064609F0E7FF05B2F3
:103BC0002846FFF787FF8B49886889490AF0AAF8D9
:103BD000064609F0DBFF05B22846FFF77BFFE5E06C
:103BE0000C20FFF769FF8449086881490AF09AF8B8
:103BF000064609F0CBFF05B22846FFF76BFF7E496A
:103C000048687B490AF08EF8064609F0BFFF05B206
:103C10002846FFF75FFF7849886875490AF082F8FF
:103C2000064609F0B3FF05B22846FFF753FF734974
:103C300008686F490AF076F8064609F0A7FF00E029
:103C40001CE005B22846FFF745FF6C494868684903
:103C50000AF068F8064609F099FF05B22846FFF712
:103C600039FF6649886862490AF05CF8064609F03F
:103C70008DFF05B22846FFF72DFF97E00C20FFF7D8
:103C80001BFF5F4908685A490AF04CF8064609F0DC
:103C90007DFF05B22846FFF71DFF59494868544982
:103CA0000AF040F8064609F071FF05B22846FFF712
:103CB00011FF534988684E490AF034F8064609F066
:103CC00065FF05B22846FFF705FF4E4908684849D9
:103CD0000AF028F8064609F059FF05B22846FFF712
:103CE000F9FE4849486842490AF01CF8064609F0BE
:103CF0004DFF05B22846FFF7EDFE424988683C4972
:103D00000AF010F8064609F041FF05B22846FFF711
:103D1000E1FE4BE00C20FFF7CFFE3B490868344939
:103D20000AF000F8064609F031FF05B22846FFF711
:103D3000D1FE354948682E4909F0F4FF064609F0DE
:103D400025FF05B22846FFF7C5FE2F498868284998
:103D500009F0E8FF064609F019FF05B22846FFF70B
:103D6000B9FE2A490868224909F0DCFF064609F035
:103D70000DFF05B22846FFF7ADFE244948681C49EF
:103D800009F0D0FF064609F001FF05B22846FFF70B
:103D9000A1FE1E498868164909F0C4FF064609F0CD
:103DA000F5FE05B22846FFF795FE00BF00BF0E489E
:103DB0000078FFF781FEFFF7A4FE70BDCB01002065
:103DC000C9010020C7010020C8010020CA0100204D
:103DD000B40B00203C0100202A010020BF0100207C
:103DE000C50100207F010020C6010020E00D002059
:103DF0000000C842B00D0020400E0020100E002030
:103E0000A00E0020700E0020000F0020D00E002019
:103E100010B504460020FE490870FE490870AA202B
:103E2000FFF74AFEAA20FFF747FE2046FFF744FEB1
:103E30000C20FFF741FE0C21F748FFF755FEF44830
:103E40000078FFF739FEFFF75CFE10BD10B5F348B0
:103E5000007812287ED006DC022809D0102818D05D
:103E6000112815D178E0132875D01428F9D136E13E
:103E7000E948007801280BD11020FFF74EFE1120F1
:103E8000FFF74BFE1220FFF748FE1420FFF745FE18
:103E900086E1E1494978E04A127841EA022108B214
:103EA00009F0B0FE0446DE4909F03CFFDD49086038
:103EB000D949C978D84A927841EA022108B209F072
:103EC000A1FE0446D64909F02DFFD6494860D249E3
:103ED0004979D14A127941EA022108B209F092FEE9
:103EE0000446CF4909F01EFFCE498860CA49C97906
:103EF000C94A927941EA022108B209F083FE0446D8
:103F0000C74909F00FFFC8490860C349497AC24A46
:103F1000127A41EA022108B209F074FE0446C0494F
:103F200009F000FFC0494860BB49C97ABA4A927A91
:103F300041EA022108B209F065FE0446B84909F0D9
:103F4000F1FEB94988601020FFF762FF0120B749F0
:103F5000087025E161E0C1E0AF494978AE4A1278C6
:103F600041EA022108B209F04DFE0446AC4909F0CD
:103F7000D9FEAF490860A849C978A74A927841EAB2
:103F8000022108B209F03EFE0446A54909F0CAFE26
:103F9000A7494860A04949799F4A127941EA02211C
:103FA00008B209F02FFE04469D4909F0BBFEA04966
:103FB00088609949C979984A927941EA022108B200
:103FC00009F020FE0446964909F0ACFE99490860C4
:103FD0009149497A904A127A41EA022108B209F0DD
:103FE00011FE04468E4909F09DFE924948608A49B7
:103FF000C97A894A927A41EA022108B209F002FE9E
:104000000446874909F08EFE8A4988601120FFF72F
:10401000FFFE012085490870C2E07F4949787E4A49
:10402000127841EA022108B209F0ECFD04467C490D
:1040300009F078FE804908607749C978764A927815
:1040400041EA022108B209F0DDFD0446744909F095
:1040500069FE79494860704949796F4A127941EAA5
:10406000022108B209F0CEFD04466D4909F05AFE5E
:10407000714988606849C979674A927941EA0221A1
:1040800008B209F0BFFD0446654909F04BFE6B49D3
:1040900008606149497A604A127A41EA022108B20D
:1040A00009F0B0FD04465E4909F03CFE63494860F2
:1040B0005949C97A584A927A41EA022108B209F06C
:1040C000A1FD0446564909F02DFE5C498860122086
:1040D000FFF79EFE01205549087061E060E04E49FF
:1040E00049784D4A127841EA022108B209F08AFD66
:1040F00004464B4909F016FE514908604649C97803
:10410000454A927841EA022108B209F07BFD044653
:10411000434909F007FE4A4948603F4949793E4A08
:10412000127941EA022108B209F06CFD04463C49CB
:1041300009F0F8FD424988603749C979364A9279D1
:1041400041EA022108B209F05DFD0446344909F054
:10415000E9FD3C4908603049497A2F4A127A41EA20
:10416000022108B209F04EFD04462D4909F0DAFD9E
:10417000344948602849C97A274A927A41EA02219B
:1041800008B209F03FFD0446254909F0CBFD2D4951
:1041900088601420FFF73CFE01202449087000BF0E
:1041A00000BF10BD1CB50246002004E0135C0DF8F2
:1041B0000030431CD8B28842F8DB002006E01DF82E
:1041C00000404B1E1B1AD454431CD8B28842F6DB65
:1041D0001CBD70B500241C49D1F8A8001B4909F08A
:1041E000A1FD054609F0D2FC00B2194988801649A4
:1041F000D1F8AC00154909F095FD054609F0C6FC5B
:1042000000B21349C8801049D1F8B0000F4921E02D
:10421000C6010020C5010020B40B0020C70100200A
:104220000AD7233CE00D0020B00D0020BC02002086
:10423000400E0020100E0020A00E0020700E002066
:10424000000F0020D00E0020D40B00200000C84238
:104250004001002009F066FD054609F097FC00B218
:10426000F7490881F7498868F74909F05BFD054679
:1042700009F08CFCF249C860F349F448006809F081
:1042800051FD054609F082FC00B2ED490882F04874
:10429000006809F07BFCEA494861EA494869EA4953
:1042A00009F040FD054609F071FC00B2E4490883BD
:1042B0000221E348001DFFF775FF0221E048801D41
:1042C000FFF770FF0221DE480830FFF76BFF042183
:1042D000DB480C30FFF766FF0221D9481030FFF7AA
:1042E00061FF0421D6481430FFF75CFF0221D44857
:1042F0001830FFF757FF70BD2DE9F05F0020D5495A
:104300000870AA20FFF7D8FBAA20FFF7D5FB0220F0
:10431000FFF7D2FB1E20FFF7CFFBCF49086DCF4937
:1043200009F000FD054609F031FC04B22046FFF714
:10433000D1FBC949486DC94909F0F4FC054609F0AB
:1043400025FC04B22046FFF7C5FBC349886DC3496D
:1043500009F0E8FC054609F019FC04B22046FFF715
:10436000B9FBBD49886EBE4909F0DCFC834609F003
:1043700077FA0646BB4ABC4B08F074FD8046002223
:10438000BA4B08F05DFF044608F0C4FE0FFA80FA4D
:104390005046FFF79FFBB049C86EB14909F0C2FC17
:1043A000834609F05DFA8046AE4AAF4B08F05AFDED
:1043B00006460022AD4B08F043FF044608F0AAFE73
:1043C0000FFA80FA5046FFF785FBA349086FA4490E
:1043D00009F0A8FC834609F043FA8046A14AA24BA3
:1043E00008F040FD06460022A04B08F029FF0446D5
:1043F00008F090FE0FFA80FA5046FFF76BFB0020A2
:10440000FFF768FB0020FFF765FB0020FFF762FB6A
:1044100091494869914909F085FC054609F0B6FBC8
:1044200004B22046FFF756FB8B4988698B4909F097
:1044300079FC054609F0AAFB04B22046FFF74AFBC7
:104440008549C869854909F06DFC054609F09EFB60
:1044500004B22046FFF73EFB7F49086A804909F015
:1044600061FC834609F0FCF906467E4A7E4B08F063
:10447000F9FC804600227D4B08F0E2FE044608F07D
:1044800049FE0FFA80FA5046FFF724FB7249486A4A
:10449000734909F047FC834609F0E2F98046714A06
:1044A000714B08F0DFFC06460022704B08F0C8FE96
:1044B000044608F02FFE0FFA80FA5046FFF70AFB79
:1044C0006549886A664909F02DFC834609F0C8F9F8
:1044D0008046644A644B08F0C5FC06460022634BE4
:1044E00008F0AEFE044608F015FE0FFA80FA5046BA
:1044F000FFF7F0FA57480078FFF7DEFAFFF701FB05
:10450000BDE8F09F70B50820594988700C20C8702C
:10451000002008710021564841718171C1715548D0
:10452000406880F000464849304609F0FBFB0546EC
:1045300009F02CFB010A4E4801724E48406880F099
:1045400000464149304609F0EDFB054609F01EFBE7
:10455000C1B24748417241494748006809F0E2FB4F
:10456000054609F013FB010A414881723B49424864
:10457000006809F0D7FB054609F008FBC1B23C48CA
:10458000C1723549486E354909F0CCFB054609F042
:10459000FDFA010A364801732F49486E2F4909F088
:1045A000C1FB054609F0F2FAC1B23148417300215E
:1045B0008173C17300202E4981F8220000240AE093
:1045C0002B4890F822002A49095D0844284981F8BF
:1045D0002200601CC4B2042CF2DB00240AE0244850
:1045E00090F82210001D005D0844214981F8220046
:1045F000601CC4B21E48C078A042F0DC1C48C078E1
:10460000001DC1B21A48FDF74FFD012118482230A4
:10461000FDF74AFD70BD10B5002418480078401C15
:104620001649087008460078022801DD002008704D
:1046300012480078002856D1FFF7CBFD002425E072
:1046400040010020AC0C00200000C842CC0000203B
:10465000D0000020C6010020D40B002000007A44C6
:10466000000034434AD8124DFB2109400000594054
:104670005C010020540F0020D4000020CC01002059
:104680002048005D20490855601CC4B20A2CF7DBA5
:104690000A2406E01B48801C005D1B490855601C6D
:1046A000C4B2102CF6DB102406E01648001D005D95
:1046B00015490855601CC4B2172CF6DB00201249BE
:1046C0008875002408E01048807D0F49095D084482
:1046D0000D498875601CC4B2162CF4DB17210A48FA
:1046E000FDF7E2FC0CE009480078012802D1FFF751
:1046F00003FE05E005480078022801D1FFF702FF1C
:1047000010BD0000400100207F010020CC010020EE
:1047100010B50020FE49487001200870FD49FE4890
:1047200000F008FFFB49FC4800F0E1FFF949FA48B6
:1047300001F0BAF8F749F84801F0C2F9F549F6482E
:1047400001F09BFAF349F44801F0ACFB10BD2DE9F0
:10475000F04F8FB004460D4616461F46284609F016
:104760007FF8EE4AEE4BCDE9000108F069FD00222A
:10477000EC4BCDE9020108F075FBCDE9040108F02E
:1047800083FA069007F0FAFA0D90284609F068F8C7
:10479000E24AE34BCDE9000108F052FD0022E14B73
:1047A000CDE9020108F05EFBCDE9040108F06CFAE6
:1047B000069008F095F80C90304609F051F8D74A69
:1047C000D74BCDE9000108F03BFD0022D54BCDE9E8
:1047D000020108F047FBCDE9040108F055FA069004
:1047E00007F0CCFA8046304609F03AF8CB4ACC4B79
:1047F000CDE9000108F024FD0022CA4BCDE90201F9
:1048000008F030FBCDE9040108F03EFA069008F00C
:1048100067F88146384609F023F8C04AC04BCDE915
:10482000000108F00DFD0022BE4BCDE9020108F0A9
:1048300019FBCDE9040108F027FA069007F09EFA6B
:104840008246384609F00CF8B44AB54BCDE9000170
:1048500008F0F6FC0022B34BCDE9020108F002FBA0
:10486000CDE9040108F010FA069008F039F8834603
:1048700050460D9909F056FA0B904146504609F002
:1048800051FA0A9058460D9909F04CFA0990514690
:104890000C9809F047FA089059460C9809F042FA2A
:1048A00007900A9820605946404609F03BFA60603C
:1048B00089F00040A0604946089809F033FA069054
:1048C000099880F000400590069908F0F5FFE06037
:1048D0004946079809F026FA06900B9908F0ECFF74
:1048E000206141460C9809F01DFA606149460B9819
:1048F00009F018FA0690079908F0DEFFA061494612
:10490000099809F00FFA0690089880F00040059089
:10491000069908F0D1FFE06140460D9909F002FACE
:1049200020620FB0BDE8F08F10B57F48808B7849CA
:1049300048807D48018C764881807B48818C744812
:10494000C1807948008A724908817748818A704815
:1049500041817548018B6E4881817348406C6C4978
:1049600048617148816C6A4881616F48C16C6848D0
:10497000C1616D48806B664908626B48C16B6448D1
:1049800041626948016C624881620246916B5069DC
:1049900009F088FB044600F059FE5D4908650A46A7
:1049A000D16B906909F07EFB044600F02CFF58495A
:1049B00048650A46116CD06909F074FB044601F0A1
:1049C0002EF8534988650A46516C106A09F06AFB53
:1049D000044601F001F94E4988660A46916C506A16
:1049E00009F060FB044601F0D4F94949C8660A465B
:1049F000D16C906A09F056FB044601F0DFFA444995
:104A000008674A484068C1F8AC0048480068C1F8E7
:104A1000A80046488068C1F8B0000846D0F8B03019
:104A2000D0F8AC20D0F8A8107430FFF790FE10BD7D
:104A30002DE9F0470026002400270025A046FEF7B8
:104A4000AEFB85B23A480088281A87B23948007808
:104A500098B901203749087000BF0CE000203649A2
:104A600041F82400354941F8240035490880284997
:104A70004870601CC4B2032CF0DB0A2F74DB304892
:104A80000088B0F5967F25DA002419E0204A143218
:104A900052F82410284A52F8240008F00DFF264945
:104AA00041F824001A4A203252F82410234A52F8BE
:104AB000240008F001FF214941F82400601CC4B221
:104AC000032CE3DB1E480088401C1D490880184861
:104AD000058049E000243AE01948008809F0DAF836
:104AE0008146154951F82400494608F059FF084904
:104AF000383141F824001248008809F0CBF881468B
:104B00000E4951F82400494608F04AFF004919E0CF
:104B1000D40B00200000F0410000C8424AD8124DDA
:104B2000FB21094000806640140A0020F80900209B
:104B3000D2010020D6010020940C0020A00C0020FF
:104B4000D0010020443141F82400601CC4B2032C81
:104B5000C2DBFE49086CFE4909F0A4FAFB4908646F
:104B60000020FC49087001263046BDE8F0872DE999
:104B7000F84FF648801CFBF74AFEF4480830FBF774
:104B800067FE4FF0000A33E0F049891C31F91A0042
:104B900009F038F805464FF0665109F0C3F80446AD
:104BA000EB4909F0BFF8E949143141F82A000C3902
:104BB00031F91A0009F026F8E749009009F0B2F837
:104BC000834608F04DFE0646E44AE54B08F038FB04
:104BD00004460022E34B08F045F9804608F054F8FB
:104BE000DA49203141F82A000AF1010000F0FF0AF9
:104BF000BAF1030FC8DBD54A916B506909F052FA3C
:104C0000044600F023FDD14908650A46D16B90693E
:104C100009F048FA044600F0F6FDCC4948650A461A
:104C2000116CD06909F03EFA044600F0F8FEC7495D
:104C30008865086A00F0D0FFC4498866486A01F0B8
:104C4000A8F8C249C866886A01F0B8F9BF49086780
:104C5000BDE8F88F2DE9F0470024A046002509E0C3
:104C6000BA48801CFBF7D3FDB848B0F906000444ED
:104C7000681CC5B2052DF3DB204609F00BF8814610
:104C8000B94908F08DFE07464FF0665109F04AF821
:104C90000646AF4909F046F8AC49C8610A46116CAE
:104CA000D06909F0FFF98046404608F0D9FD064674
:104CB000AE4AAF4B08F0C2FB0CD2404608F0D0FD24
:104CC0000646AC4AAC4B08F07FFA03D201209F495C
:104CD000087002E000209D4908709C480078BDE8FB
:104CE000F0872DE9FF5F04460D46D5F800906E6809
:104CF000AF68D5F80C803146304609F013F80390C0
:104D00003946384609F00EF883464146404609F0D8
:104D100009F802905846029908F0CEFD4FF0804104
:104D2000019008F0FFFF82464FF07E5109F028F90C
:104D300020604146484608F0F5FF3946019030466C
:104D400008F0F0FF0090019908F0B6FD82464FF0A0
:104D5000804108F0E7FFE0603946484608F0E2FF8E
:104D600041460190304608F0DDFF0090019909F0BE
:104D700099F982464FF0804108F0D4FFA061414686
:104D8000484608F0CFFF39460190304608F0CAFF88
:104D90000090019909F086F982464FF0804108F0B1
:104DA000C1FF6060DDE9021008F086FD4FF0804130
:104DB000019008F0B7FF82464FF07E5109F0E0F80D
:104DC00020613146484608F0ADFF41460190384623
:104DD00008F0A8FF0090019908F06EFD82464FF0A0
:104DE000804108F09FFFE0613946484608F09AFF8D
:104DF00041460190304608F095FF0090019908F077
:104E00005BFD82464FF0804108F08CFFA060314688
:104E1000484608F087FF41460190384608F082FF77
:104E20000090019909F03EF982464FF0804108F068
:104E300079FF60615946039808F03EFD4FF08041CC
:104E4000019008F06FFF82464FF07E5109F098F80C
:104E50002062BDE8FF9F2DE9F04F85B004460D4666
:104E600016461F46304606F089FF8246304607F058
:104E700037FD8046284607F033FD0490284606F0AB
:104E80007DFF0390384607F02BFD0290384606F070
:104E900075FF01905046019908F044FF2060DDE95C
:104EA000021008F03FFF83464146049808F03AFF9D
:104EB0000090019908F036FF8146594609F0F2F852
:104EC00060600299049808F02DFF834641460398DC
:104ED00008F028FF0090019908F024FF8146594608
:104EE00008F0EAFCA0605046029908F01BFFE06061
:104EF0000199039808F016FF83464146049808F08C
:104F000011FF0090029908F00DFF8146594608F004
:104F1000D3FC20610199049808F004FF83464146C0
:104F2000039808F0FFFE0090029908F0FBFE81460E
:104F3000594609F0B7F8606188F00040A061514619
:104F4000049808F0EFFEE061514617E0D40B002012
:104F50000AE81C41D601002000007A3D4AD8124DD3
:104F6000FB210940008066400000A040666666A6FE
:104F7000678323409A9999D99AB62340039808F0F9
:104F8000D1FE206205B0BDE8F08F2DE9F04705465F
:104F90000C464FF07E50216808F08EFC8146216956
:104FA00008F08AFC8046216A08F086FC074607F074
:104FB00083FD06464FF07C5108F0B4FE28604FF0A8
:104FC0007E50216808F078FC8146216909F06AF872
:104FD0008046216A09F066F8074607F06DFD06462F
:104FE0004FF07C5108F09EFE68604FF07E502168C3
:104FF00009F058F88146216908F05EFC8046216A74
:1050000009F050F8074607F057FD06464FF07C516F
:1050100008F088FEA8604FF07E50216809F042F841
:105020008146216909F03EF88046216A08F044FC77
:10503000074607F041FD06464FF07C5108F072FE2E
:10504000E860BDE8F08730B502460B46002013E06B
:1050500000210DE001EB410403EB840454F82040EF
:1050600000EB400502EB850545F821404C1CE1B200
:105070000329EFDB441CE0B20328E9DB30BD2DE956
:10508000F04705460F46904600241BE0002045F8F7
:105090002400002612E004EB440207EB820252F8DF
:1050A000260058F8261008F03DFE814655F82410D9
:1050B00008F002FC45F82400701CC6B2032EEADB9F
:1050C000601CC4B2032CE1DBBDE8F0872DE9F0479A
:1050D0008AB081460F469046002435E000252FE037
:1050E000002004EB440101AA02EB810141F82500F4
:1050F000002621E006EB460208EB820252F825105A
:1051000004EB440207EB820252F8260008F00AFE84
:10511000824604EB440001AA02EB800050F82510FF
:10512000504608F0C9FB04EB440101AA02EB8101DF
:1051300041F82500701CC6B2032EDBDB681CC5B22B
:10514000032DCDDB601CC4B2032CC7DB242201A9D4
:10515000484605F0C1F80AB0BDE8F0872DE9F041F6
:1051600005460E46002700240CE056F8241055F89A
:10517000240008F0D7FD8046394608F09DFB07461D
:10518000601CC4B2032CF0DB3846BDE8F0812DE989
:10519000FE4306460C4615466968A06808F0C2FD45
:1051A0000746A968606808F0BDFD8046394608F0EA
:1051B00079FF0090A968206808F0B4FD07462968C7
:1051C000A06808F0AFFD8046394608F06BFF0190FB
:1051D0002968606808F0A6FD07466968206808F03D
:1051E000A1FD8046394608F05DFF02909DE807006A
:1051F00086E80700BDE8FE832DE9F04705460C462A
:105200002846A16808F08EFD8246294608F08AFDEE
:1052100080464FF0804108F0C3FB0746284661688E
:1052200008F080FD8146394608F046FB06462168B5
:1052300008F042FB20602846A16808F073FD06468E
:10524000616808F039FB6060BDE8F0872DE9FF4F29
:1052500087B014469946DDF850A05146079808F0EB
:1052600061FD0546089908F05DFD069054F8290097
:10527000069908F021FB44F82900B9F1000F28D164
:105280005046069908F04EFD0546616808F014FB8B
:1052900060605146504608F045FD0190069908F0BF
:1052A00041FD834608F0DCFA074600228F4B07F0E9
:1052B000D9FDCDE90401A06808F0D2FACDE90201D8
:1052C000DDE9042307F012FD054607F0DDFCA060D0
:1052D0000BE0B9F1010F08D15046069908F022FD04
:1052E0000546A16808F0E8FAA0600BB0BDE8F08FB1
:1052F0002DE9FF470020019002900390FDF721FF68
:1053000006467B48006848B179490968701A08F078
:10531000C1FC8046774908F043FB00E000200746C7
:10532000734806607448007808B9BDE8FF87734881
:10533000407800B9F9E77248007878B1714801689F
:10534000002008F0AFFE80466F480168404608F034
:10535000A9FE6E4908600020694908706C48007811
:10536000002854D06B4A1168644A106D08F09AFE08
:1053700062490865674A5168604A506D08F092FEBC
:105380005E494865634A91685C4A906D08F08AFE00
:105390005A498865002423E000205F4941F8240031
:1053A000002519E005EB4503544A743202EB8302F1
:1053B00052F82400514A503252F8251008F0B2FC3D
:1053C0008046554850F82410404608F075FA524976
:1053D00041F82400681CC5B2032DE3DB601CC4B295
:1053E000032CD9DB4C48806880F000404A49886033
:1053F00088684A4908F060FA804643488168404618
:1054000008F050FE46498860002041490870454830
:1054100001683E48006808F085FC81464148016803
:10542000484608F07FFC8046039908F0A9FD0390E8
:1054300000242EE04FF00008002513E004EB4403A5
:105440002E4A743202EB830252F8250001AA52F868
:10545000251008F067FC8146414608F02DFA804689
:10546000681CC5B2032DE9DB2F480168404608F0EF
:1054700059FC8246394608F055FC8146254850F8CB
:105480002410484608F018FA224941F82400601C0C
:10549000C4B2032CCEDB1F48806880F000401D4959
:1054A000886019493846FFF7A7FE1E4800680023A8
:1054B000154A3946009015480068FFF7C7FE1B489B
:1054C00000681749009002230F4A88683946FFF7A1
:1054D000BDFE0D480068164988600B484068486169
:1054E00009488068086200BF1FE70000000008400C
:1054F000F401002000247449CA000020D40B0020CD
:10550000CB000020D4000020D00C0020F0010020AF
:1055100028000020E80C0020E40100200AE81C41DB
:10552000DC0C0020D8010020E0010020DC0100207C
:10553000AC0C00202DE9FE4F82460C460020029064
:10554000814601902146504608F02AFA02900298BE
:1055500008F086F907463A460B46FE48FE4907F032
:1055600081FC054607F090FB834607F0BBFA8146B5
:105570004946484608F0D6FB8046F84806F0FEFB50
:1055800083464FF0804108F0CDFB0746494608F0BE
:10559000C9FB06464FF07E5108F08EF9054641469C
:1055A00008F08AF90190EE4804600021006808F0D4
:1055B00085FC49D24946484608F0B4FB05460199A6
:1055C00008F0EEF9E7490860084601684FF08040AE
:1055D00008F0A8FBE4490860E2480068E349086075
:1055E0004946484608F09EFB07464FF07E5108F0BA
:1055F00059FD06464FF0804108F094FB054601999D
:1056000008F0CEF9DA4908604946484608F08AFBB6
:105610000090D24806F0B2FB83464FF0804108F07C
:1056200081FB8046494608F07DFB07464FF07E51DE
:1056300008F0A6FC0646009908F03EF905460199D7
:1056400008F0AEF9CB490860BDE8FE8F2DE9F047C0
:105650000446002500260021C148006808F02EFB02
:1056600002D82046BDE8F087C2480168C2480068F9
:1056700008F058FB8046BE480168C048006808F042
:1056800051FB8146214608F07BFC0746414608F065
:1056900009FD0546284605F0BFFE18B9284605F065
:1056A000B1FE00B12546B1480168B348006808F072
:1056B00039FB8046AC480168B048006808F032FB0E
:1056C0008146A8480168284608F02CFB82464946D6
:1056D00008F0F2F80746414608F0EEF80646A748FB
:1056E0000068A5490860A54805603046BAE72DE97D
:1056F000FE4F82460C4600200290814601902146D2
:10570000504608F04DF90290029808F0A9F80746B3
:105710003A460B468F48904907F0A4FB054607F030
:10572000B3FA834607F0DEF981464946484608F059
:10573000F9FA8046894806F021FB83464FF0804104
:1057400008F0F0FA0746494608F0ECFA06464FF032
:105750007E5108F0B1F80546414608F0ADF80190D9
:10576000874804600021006808F0A8FB49D2494638
:10577000484608F0D7FA0546019908F011F9814921
:105780000860084601684FF0804008F0CBFA7E4977
:1057900008607C4800687D4908604946484608F032
:1057A000C1FA07464FF07E5108F07CFC06464FF0E8
:1057B000804108F0B7FA0546019908F0F1F87449FC
:1057C00008604946484608F0ADFA0090634806F084
:1057D000D5FA83464FF0804108F0A4FA8046494646
:1057E00008F0A0FA07464FF07E5108F0C9FB0646C4
:1057F000009908F061F80546019908F0D1F865496B
:105800000860BDE8FE8F2DE9F0470446002500261C
:1058100000215B48006808F051FA02D82046BDE834
:10582000F0875C4801685C48006808F07BFA8046B5
:10583000574801685948006808F074FA81462146C3
:1058400008F09EFB0746414608F02CFC054628461A
:1058500005F0E2FD18B9284605F0D4FD00B1254653
:105860004A4801684C48006808F05CFA804646489F
:1058700001684A48006808F055FA814641480168C5
:10588000284608F04FFA8246494608F015F80746C0
:10589000414608F011F80646404800683E49086055
:1058A0003E4805603046BAE72DE9FE4F82460C4679
:1058B00000200290814601902146504608F070F881
:1058C0000290029807F0CCFF07463A460B46214863
:1058D000214907F0C7FA054607F0D6F9834607F0D5
:1058E00001F981464946484608F01CFA80461B48A3
:1058F00006F044FA83464FF0804108F013FA074659
:10590000494608F00FFA06464FF07E5107F0D4FFE3
:105910000546414607F0D0FF019021480460002170
:10592000006808F0CBFA78D24946484608F0FAF900
:105930000546019908F034F81A49086008460168DC
:105940004FF0804008F0EEF91749086015480068EC
:1059500016492DE04AD8124DFB210940DA0F493F84
:10596000FC010020080200200C0200201002002090
:10597000000200200402002018020020140200206F
:105980001C020020280200202C02002030020020EF
:1059900020020020240200203802002034020020CF
:1059A0003C020020480200204C020020500200204F
:1059B00008604946484608F0B5F907464FF07E5161
:1059C00008F070FB06464FF0804108F0ABF9054641
:1059D000019907F0E5FFFE4908604946484608F08E
:1059E000A1F90090FB4806F0C9F983464FF08041C9
:1059F00008F098F98046494608F094F907464FF0B8
:105A00007E5108F0BDFA0646009907F055FF05469D
:105A1000019907F0C5FFF0490860BDE8FE8F2DE948
:105A2000F0470446002500260021EC48006808F0F5
:105A300045F902D82046BDE8F087E7480168E84804
:105A4000006808F06FF98046E1480168E5480068A1
:105A500008F068F98146214608F092FA0746414667
:105A600008F020FB0546284605F0D6FC18B9284664
:105A700005F0C8FC00B12546DB480168D84800683D
:105A800008F050F98046D9480168D648006808F007
:105A900049F98146D6480168284608F043F982460C
:105AA000494607F009FF0746414607F005FF06464D
:105AB000CC480068CA490860CA4805603046BAE761
:105AC0002DE9FE4F82460C4600200290814601904F
:105AD0002146504607F064FF0290029807F0C0FE8E
:105AE00007463A460B46C348C34907F0BBF905468B
:105AF00007F0CAF8834606F0F5FF81464946484656
:105B000008F010F98046B34806F038F983464FF0A4
:105B1000804108F007F90746494608F003F90646B0
:105B20004FF07E5107F0C8FE0546414607F0C4FE1F
:105B30000190B24804600021006808F0BFF949D222
:105B40004946484608F0EEF80546019907F028FF57
:105B5000AB490860084601684FF0804008F0E2F861
:105B6000A8490860A6480068A74908604946484611
:105B700008F0D8F807464FF07E5108F093FA064631
:105B80004FF0804108F0CEF80546019907F008FF74
:105B90009E4908604946484608F0C4F800908D4880
:105BA00006F0ECF883464FF0804108F0BBF88046E1
:105BB000494608F0B7F807464FF07E5108F0E0F983
:105BC0000646009907F078FE0546019907F0E8FEC1
:105BD0008F490860BDE8FE8F2DE9F0470446002597
:105BE000002600218548006808F068F802D82046A1
:105BF000BDE8F087864801688648006808F092F89A
:105C00008046824801688448006808F08BF8814625
:105C1000214608F0B5F90746414608F043FA054623
:105C2000284605F0F9FB18B9284605F0EBFB00B152
:105C30002546754801687748006808F073F8804683
:105C4000704801687448006808F06CF881466C4838
:105C50000168284608F066F88246494607F02CFE9F
:105C60000746414607F028FE06466B48006869492A
:105C70000860694805603046BAE72DE9FE4F824664
:105C80000C4600200290814601902146504607F0C4
:105C900087FE0290029807F0E3FD07463A460B465E
:105CA0005448554907F0DEF8054606F0EDFF8346F7
:105CB00006F018FF81464946484608F033F880460A
:105CC000444806F05BF883464FF0804108F02AF81C
:105CD0000746494608F026F806464FF07E5107F081
:105CE000EBFD0546414607F0E7FD01904B48046097
:105CF0000021006808F0E2F849D24946484608F019
:105D000011F80546019907F04BFE45490860084621
:105D100001684FF0804008F005F8424908604048AB
:105D20000068414908604946484607F0FBFF0746BE
:105D30004FF07E5108F0B6F906464FF0804107F06B
:105D4000F1FF0546019907F02BFE384908604946E6
:105D5000484607F0E7FF00901E4806F00FF883461C
:105D60004FF0804107F0DEFF8046494607F0DAFF3A
:105D700007464FF07E5108F003F90646009907F0F8
:105D80009BFD0546019907F00BFE29490860BDE817
:105D9000FE8F2DE9F04704460025002600211F480C
:105DA000006807F08BFF02D82046BDE8F087204846
:105DB00001682048006807F0B5FF80461B4801686D
:105DC0001D48006807F0AEFF8146214636E000001E
:105DD00040020020DA0F493F440200203C0200202C
:105DE0005802002054020020500200204C020020E3
:105DF000480200204AD8124DFB2109405C020020D5
:105E0000680200206C020020700200206002002066
:105E10006402002078020020740200207C0200202E
:105E2000880200208C0200209002002080020020C6
:105E300084020020980200209402002008F0A0F8BC
:105E40000746414608F02EF90546284605F0E4FAD3
:105E500018B9284605F0D6FA00B1254680480168F1
:105E60008048006807F05EFF80467F4801687F48F1
:105E7000006807F057FF81467D480168284607F013
:105E800051FF8246494607F017FD0746414607F095
:105E900013FD06467548006872490860734805603E
:105EA000304682E72DE9FE4F82460C4600200290E4
:105EB000814601902146504607F072FD02900298FB
:105EC00007F0CEFC07463A460B466A486A4906F098
:105ED000C9FF054606F0D8FE834606F003FE81465C
:105EE0004946484607F01EFF8046644805F046FFD5
:105EF00083464FF0804107F015FF0746494607F0FB
:105F000011FF06464FF07E5107F0D6FC054641468C
:105F100007F0D2FC01905A4804600021006807F0A5
:105F2000CDFF49D24946484607F0FCFE0546019997
:105F300007F036FD53490860084601684FF080407D
:105F400007F0F0FE504908604E4800684F4908606D
:105F50004946484607F0E6FE07464FF07E5108F0F6
:105F6000A1F806464FF0804107F0DCFE0546019996
:105F700007F016FD464908604946484607F0D2FE3C
:105F800000903E4805F0FAFE83464FF0804107F04E
:105F9000C9FE8046494607F0C5FE07464FF07E51D0
:105FA00007F0EEFF0646009907F086FC05460199CA
:105FB00007F0F6FC37490860BDE8FE8F2DE9F04791
:105FC00004460025002600212D48006807F076FED3
:105FD00002D82046BDE8F0872E4801682E480068A8
:105FE00007F0A0FE80462A4801682C48006807F0A8
:105FF00099FE8146214607F0C3FF0746414608F057
:1060000051F80546284605F007FA18B9284605F064
:10601000F9F900B125461D4801681F48006807F0DE
:1060200081FE8046184801681C48006807F07AFE27
:10603000814614480168284607F074FE82464946A6
:1060400007F03AFC0746414607F036FC064613487F
:10605000006811490860114805603046BAE7000041
:1060600090020020980200208C0200209402002060
:10607000880200204AD8124DFB210940DA0F493F1F
:106080009C020020A8020020AC020020B0020020E8
:10609000A0020020A4020020B8020020B4020020C8
:1060A00010B50222BC49BD48FBF786FEBA49086814
:1060B00007F06CFD00B2012800D110BD0020FCE704
:1060C00010B50222B449B548FBF787FE10BD10B5E4
:1060D00029246200B049B148FBF76EFE10BD10B52F
:1060E00029246200AC49AD48FBF777FE10BD10B51E
:1060F000002400BF48E0A848001D50F82400A8492B
:1061000041F82400A4481C3050F82400A54941F867
:106110002400A148343050F82400A34941F8240059
:106120009D48103050F82400A04941F824009A48B6
:10613000283050F824009E4941F824009648403009
:1061400050F824009B4941F8240093484C3050F803
:106150002400994941F824008F48583050F8240011
:10616000964941F824008C48643050F82410944833
:1061700040F824108848703050F8241090480C30B3
:1061800040F82410601CC4B2032CB4DB00240FE0E0
:106190008149883151F8240007F014FD89490855D8
:1061A0000846025D214688A003F056FF601CC4B279
:1061B000052CEDDB7848D0F89C00894908607649C9
:1061C000D1F8A00007F0FEFC8649087010BD70B53C
:1061D000002400BF51E0724850F824106E48001DA2
:1061E00040F824106F4850F8245050F824106A48A2
:1061F0001C3040F824106B4850F8241066481C30BE
:1062000040F82410684850F824106348343040F8AF
:106210002410664850F824105F48103040F82410CD
:10622000634850F824105C48283040F82410614836
:1062300050F824105848403040F824105E4850F878
:10624000241055484C3040F824105C4850F8241075
:106250005148583040F82410594850F824104E48FE
:10626000643040F8241056480C3050F824104A4846
:10627000703040F82410601CC4B2032CABDB002447
:1062800009E05049085D07F005FD4349883141F8B0
:106290002400601CC4B2052CF3DB514800683E4961
:1062A000C1F89C004F48007807F0F4FC3A49C1F867
:1062B000A00070BD4C483A490860002048608860E2
:1062C0004A4848624A48394908604FF07C50486063
:1062D0004848886045484862434832490860002081
:1062E00048608860414848624148314908604FF041
:1062F0007C5048603F4888603C4848624FF07E5080
:10630000294908603C484860002088603B4829498A
:1063100008600020486088604FF07E502649086081
:106320000020486088603648244908603548486045
:10633000002088603448224938398863334920482E
:106340003838C1633249016432481D4938394864DC
:1063500031491B48383881640021C164704710B549
:10636000FFF79EFE20B1FFF7B2FEFFF7C0FE0CE084
:106370002AA003F071FEFFF79DFFFFF728FF4FF003
:106380007E5005490860FFF7AAFE10BD10B5FFF763
:106390001EFFFFF7A4FE10BDF40C002000FC000857
:1063A000B00D0020100E0020700E0020E00D002027
:1063B000400E0020A00E0020D00E0020000F002074
:1063C0000C0C00204800002052585F4144445245C4
:1063D00053535B25645D3A307825780D0A00000040
:1063E00058000020BE0300200000604000009643DB
:1063F0003333333F8FC2F53CCDCC4C3E0000A0413F
:10640000CDCCCC3D0AD7A33CD4F025BECB00983DE3
:106410000139463F82C179BD42D91ABD6C6F6164B2
:1064200020706172616D732066726F6D206565709A
:10643000726F6D206661696C65642C73657420648D
:10644000656661756C742076616C75650D0A000077
:106450002DE9FF4104464FF07F5000904FF07C51F2
:10646000204607F05FFC0290019401980390FE49DA
:106470000398A1EB6000039003980190DDE90110FF
:1064800007F050FC0746019907F04CFC06460099BE
:1064900007F076FD0546019907F044FC019001984C
:1064A00004B0BDE8F0812DE9FF4F8DB00D461446D4
:1064B0001E4684F0004B584607F0D2F985F0004B99
:1064C000CDE90001584607F0CBF90746DDE9002386
:1064D00005F066FACDE9020106F0D6FB0C9084F0D7
:1064E000004B584607F0BCF9CDE902010D9807F0C2
:1064F000B7F9CDE90001DDE9022305F051FA0746BD
:1065000006F0C2FB0B900C9805F038FC81460C9805
:1065100006F0E6F982460B9805F030FC0A900B98DD
:1065200006F0DEF9099049461B9807F0FBFB83460D
:10653000099907F0F7FB074651461A9807F0F2FB56
:106540000290099907F0EEFB834630460A9907F05E
:10655000E9FB5946039007F0AFF98046394607F04A
:10656000ABF9089051461B9807F0DCFB07464946FB
:106570001A9807F0D7FB8046394607F093FD07903D
:10658000079880F000473846089905F0C9FA069048
:106590004FF07C510C9807F0C5FB074605F0EEFB69
:1065A00081464FF07C510C9807F0BCFB074606F083
:1065B00097F982464FF07C510B9807F0B3FB0746E2
:1065C00005F0DCFB0A904FF07C510B9807F0AAFB1A
:1065D000074606F085F909904FF07C51069807F0C0
:1065E000A1FB074605F0CAFB05904FF07C510698C9
:1065F00007F098FB074606F073F904905046099996
:1066000007F090FB8346049907F08CFB0746484649
:106610000A9907F087FB8346059907F083FB8046BC
:10662000394607F049F9914908604846099907F049
:1066300079FB8346049907F075FB074650460A9993
:1066400007F070FB8346059907F06CFB80463946DE
:1066500007F028FD8649086050460A9907F062FB5A
:106660008346049907F05EFB07464846099907F000
:1066700059FB8346059907F055FB8046394607F0DC
:106680001BF97C4908605046099907F04BFB83468B
:10669000059907F047FB074648460A9907F042FB71
:1066A0008346049907F03EFB8046394607F0FAFC22
:1066B000714908606D480168006807F033FB6F4955
:1066C00008606B4801686948006807F02BFB6C495B
:1066D0000860684801686548006807F023FB69495D
:1066E0000860654801686148006807F01BFB66495F
:1066F00008605F480168006807F014FB63490860A0
:106700005C4801685A48006807F00CFB6049086063
:10671000594801685648006807F004FB5D49086065
:1067200054480168006807F0FDFA5B490860524868
:1067300001685048006807F0F5FA584908604E486B
:106740000168006807F0EEFA5549086011B0BDE82D
:10675000F08F0FB595B00020129011901090514815
:10676000007858B9DDE91D01CDE900011AA90EC96B
:106770001898FFF798FE01204A49087000211C98DC
:1067800007F0D0F909D100211D9807F0CBF904D109
:1067900000211E9807F0C6F964D01E99084607F03C
:1067A000C1FA06901D99084607F0BCFA04901C999E
:1067B000084607F0B7FA0390049907F07DF80590B2
:1067C000069907F079F80790FFF742FE13901399A6
:1067D0001C9807F0A7FA1C9013991D9807F0A2FACD
:1067E0001D9013991E9807F09DFA1E902548016888
:1067F0002848006807F060F804901E9907F092FAA4
:106800000690214801682248006807F04BFC02907E
:106810001D9907F087FA04901F4801684FF07C50DB
:1068200007F040FC01901E480168019807F03AFC0F
:1068300002901C9907F076FA0390049907F03CF84F
:106840000590069907F038F84FF08041079007F05F
:1068500069FA0F900A4801681048006807F022FCA6
:10686000049021E03AE10000865A375FC002002020
:10687000C4020020C8020020CC020020E002002058
:10688000E4020020E8020020EC020020F0020020D8
:10689000F4020020F8020020FC0200200003002087
:1068A00004030020080300201E9907F03BFA06901D
:1068B000FE4801684FF07C5007F0F4FB0190FC4863
:1068C0000168019807F0EEFB02901D9907F02AFA83
:1068D0000490F8480168F848006806F0EDFF02905F
:1068E0001C9907F01FFA0390049906F0E5FF059044
:1068F000069906F0E1FF4FF08041079007F012FA89
:106900000E90EA4801684FF07C5007F0CBFB0390F3
:10691000EA480168039807F0C5FB05904FF08040F6
:106920001E9907F0FFF90490059907F0FBF907900D
:10693000E3480168E348006806F0BEFF03904FF0AB
:1069400080401D9907F0EEF90290039907F0EAF9EB
:106950000590DD480168DD48006807F0A3FB03905F
:106960004FF080401C9907F0DDF90290039907F081
:10697000D9F90490059906F09FFF0690079906F053
:106980009BFF0D900E99084607F0CCF902900F99E5
:10699000084607F0C7F90190029906F08DFF0390B1
:1069A00006F05EFFCDE9040106F060F8CDE90601CE
:1069B00006F06AF90C900D980B90C3480168C34823
:1069C000006807F06FFB05900B9907F0ABF9079093
:1069D000BA4801684FF07C5007F064FB0490B4485B
:1069E0000168049807F05EFB05900C9907F09AF98E
:1069F0000690079906F060FF0A90B2480168B04817
:106A0000006806F059FF05900B9907F08BF9079085
:106A1000A8480168A848006807F044FB05900C9955
:106A200007F080F90690079906F046FF09909F4805
:106A300001684FF07C5007F035FB04909F480168D7
:106A4000049807F02FFB05900B9907F06BF907905E
:106A50009E4801689C48006806F02EFF05900C993E
:106A600007F060F90690079906F026FF089009994B
:106A70001E9807F057F9069008991D9807F052F9EB
:106A80000590069907F00EFB0790129906F014FF87
:106A9000129008991C9807F045F906900A991E98DB
:106AA00007F040F90590069907F0FCFA0790119954
:106AB00006F002FF11900A991D9807F033F906902D
:106AC00009991C9807F02EF90590069907F0EAFA43
:106AD0000790109906F0F0FE109000BF0021189862
:106AE00007F020F809D100211A9807F01BF804D10B
:106AF00000211B9807F016F87CD000200C901B9901
:106B0000084607F00FF90A901A99084607F00AF9A3
:106B100008901899084607F005F90790089906F0BB
:106B2000CBFE09900A9906F0C7FE0B90FFF790FC88
:106B300013901399189807F0F5F8189013991A986C
:106B400007F0F0F81A9013991B9807F0EBF81B90D8
:106B50005D4801685D48006807F0A4FA0F90594845
:106B600001685748006806F0A7FE0E904FF07C5170
:106B70005748006807F096FA0B904D4801680B984B
:106B800006F09AFE0D900E991B9807F0CBF80A902C
:106B90000D991A9807F0C6F809900A9907F082FA39
:106BA0000B90129906F088FE12900D99189807F034
:106BB000B9F80A900F991B9807F0B4F809900A9950
:106BC00007F070FA0B90119906F076FE11900F996C
:106BD0001A9807F0A7F80A900E99189807F0A2F8EB
:106BE00009900A9907F05EFA0B90109906F064FE7E
:106BF000109000BF0021129806F094FF6CD0002185
:106C0000119806F08FFFF9D00021109806F08AFF46
:106C1000F4D00021209807F051F966D212992098FB
:106C200007F080F80E90219907F07CF80F90294822
:106C3000006801460E900F9806F03EFE2549086058
:106C40001199209807F06EF80E90219907F06AF8D4
:106C50000F902048406801460E900F9806F02CFED9
:106C60001C4948601099209807F05CF80E90219913
:106C700007F058F80F901748806801460E900F985B
:106C800006F01AFE134988600846006801460F9016
:106C9000159806F011FE15900E48406801460F90B9
:106CA000169806F009FE16900A4816E0F002002039
:106CB00004030020EC020020F4020020FC0200206B
:106CC000E402002000030020E8020020F802002077
:106CD000E0020020980D002027E0806801460F9018
:106CE000179806F0E9FD179004E00020FC490860C1
:106CF0004860886012991F9807F014F80F90159952
:106D000006F0DAFD159011991F9807F00BF80F9017
:106D1000169906F0D1FD169010991F9807F002F809
:106D20000F90179906F0C8FD1790EE481799006864
:106D300006F0F8FF0E90EC481699006806F0F2FF96
:106D40000C90EA48006880F000400A90159906F01F
:106D5000E9FF0B900C9907F0A5F90D900E9907F03B
:106D6000A1F94FF07C510F9006F0DCFFE04908607C
:106D7000DC481699006806F0D5FF0E90DA4817999E
:106D8000006806F0CFFF0C90DA480168159806F00D
:106D9000C9FF0B900C9906F08FFD0D900E9907F02E
:106DA00081F94FF07C510F9006F0BCFFD24908608A
:106DB000CC480168159806F0B5FF0E90CB4817999E
:106DC000006806F0AFFF0C90CA481699006806F0FC
:106DD000A9FF0B900C9907F065F90D900E9906F03C
:106DE0006BFD4FF07C510F9006F09CFFC34908608B
:106DF000BD480168159806F095FF0E90BB4816999E
:106E0000006806F08FFF0C90BA481799006806F0EA
:106E100089FF0B900C9906F04FFD0D900E9907F02D
:106E200041F94FF07C510F9006F07CFFB4490860A7
:106E3000AF480168219806F075FF0F90AD480168D2
:106E40000F9806F039FDAB490860AB4801682198FE
:106E500006F068FF0F90A54801680F9806F02CFD1A
:106E6000A2490860A5480168219806F05BFF0F90D1
:106E70009D4801680F9806F01FFD9B490860A048D7
:106E80000168219806F04EFF0F90964801680F9810
:106E900006F012FD9349086008460168006806F094
:106EA00041FF0E9090480168006806F03BFF0C908F
:106EB0008E480168006806F035FF0A908D48016829
:106EC000006806F02FFF09900A9906F0F5FC0B9078
:106ED0000C9906F0F1FC0D900E9906F0EDFC0F9068
:106EE000FFF7B6FA139083481399006806F01AFF6B
:106EF000804908607D481399006806F013FF7B49BC
:106F0000086079481399006806F00CFF764908601C
:106F100074481399006806F005FF724908607548C7
:106F20000168006806F0FEFE764908606F48016857
:106F30007048006806F0F6FE734908606A48016808
:106F40006C48006806F0EEFE70490860654801680C
:106F50006848006806F0E6FE6D490860634801680D
:106F6000006806F0DFFE6B4908605F4801685F4813
:106F7000006806F0D7FE684908605A4801685B4817
:106F8000006806F0CFFE6549086057480168006850
:106F900006F0C8FE6249086052480168524800681D
:106FA00006F0C0FE5F4908604E480168006806F0C0
:106FB000B9FE5D49086019B000BD2DE9F04F9DB0E4
:106FC000DFF868A100201A901B901C9024225849D9
:106FD00011A803F081F900200E900F9010900B90F3
:106FE0000C900D90089009900A90FCF7AAF8814641
:106FF0005048006850B14F490968A9EB010006F0FC
:1070000049FE05464C4906F0CBFC00E000208246D4
:107010004848C0F80090FDF7AAFD4848407800288D
:107020005CD14748006810B94548C0F80090434A11
:10703000116A444A106806F03FFC424908603F4A22
:10704000516A404A506806F037FC3E4948603B4A66
:10705000916A3C4A906806F02FFC3A4988603A48A9
:107060000088401C38490880354800683749084482
:10707000814530D93448008806F00CFE0546314978
:107080000868294606F08CFC2C4948642E48008884
:1070900006F000FE05462B494868294606F080FCAC
:1070A000264988642848008806F0F4FD05462549ED
:1070B0008868294606F074FC2049C86400202249EB
:1070C0000880204908604860886001201B4948709A
:1070D00000201B4908601DB0BDE8F08F38E00000BB
:1070E000980D0020CC020020C8020020C40200201D
:1070F000D0020020C0020020D4020020D8020020CC
:10710000DC020020E0020020E4020020E80200206F
:10711000EC020020F0020020F4020020F80200201F
:10712000FC02002000030020040300200AD7233CB7
:1071300054E300080C03002000247449D40B002001
:1071400010030020A40D002014030020C0C62D0051
:10715000B04A516C906E06F0A5FF0B90AD4A916C51
:10716000D06E06F09FFF0C90AA4AD16C106F06F00B
:1071700099FF0D90A748006D80F000400E90A54843
:10718000406D80F000400F90A248806D80F000407C
:107190001090109880F000450F9880F000460E98EF
:1071A00080F000479C494FF07E520A98CDE9061ABC
:1071B000CDE90402DDE90810CDE90065CDE9021052
:1071C0003B460BA807C8FFF7C4FA944801689448E7
:1071D000006806F071FB064692480168304606F0EA
:1071E00061FF054690480168284606F05BFF119054
:1071F0008E4801688E48006806F094FD06468D486A
:1072000001688D48006806F08DFD0746314606F09E
:1072100053FB05464FF0804106F084FD12908548EF
:1072200001688348006806F07DFD06467F480168D6
:107230008148006806F076FD0746314606F032FFC9
:1072400005464FF0804106F06DFD139077480168C8
:107250007748006806F066FD06467648016876487D
:10726000006806F05FFD0746314606F01BFF054645
:107270004FF0804106F056FD149068480168684858
:10728000006806F00FFF064666480168304606F0C3
:1072900013FB054664480168284606F003FF159075
:1072A000654801686248006806F03CFD06465F4894
:1072B00001686048006806F035FD0746314606F073
:1072C000FBFA05464FF0804106F02CFD1690594818
:1072D00001685748006806F025FD064653480168D6
:1072E0005548006806F01EFD0746314606F0E4FAF0
:1072F00005464FF0804106F015FD17904E48016895
:107300004B48006806F00EFD0646484801684948AB
:10731000006806F007FD0746314606F0C3FE054645
:107320004FF0804106F0FEFC18903C4801683C4854
:10733000006806F0B7FE06463A480168304606F097
:10734000B1FE054638480168284606F0B5FA19909E
:107350001999169804F0E4FB1A90139804F07AF93E
:1073600080F000401B90DDE9111004F0D9FB1C9067
:10737000002408E011A850F824102648743040F882
:107380002410601CC4B2092CF4DB22491A98C1F8FD
:10739000B4001B98C1F8B8001C98C1F8BC0027497C
:1073A0001A9806F0BFFC834606F05AFA0746244AAC
:1073B000244B05F057FD054605F066FC1549C1F85C
:1073C000A8001E491B9806F0ADFC834606F048FA5B
:1073D00007461B4A1B4B05F045FD054605F054FCCE
:1073E0000C49C1F8AC0015491C9806F09BFC83467B
:1073F00006F036FA0746124A124B05F033FD0546F1
:1074000005F042FC0349C1F8B00000BF1DB0BDE863
:10741000F08F0000D40B0020CDCC4C3DF0020020BA
:10742000E0020020FC02002004030020CC02002027
:10743000C0020020C8020020C40200200000344323
:107440004AD8124DFB21094070B56D49D1F8AC0006
:1074500006F006FA21F0004104460022694B05F0CF
:10746000EDFF0CD36649D1F8A80006F0F9F921F038
:10747000004104460022634B05F0E0FF08D20023E0
:107480001A4619461846FAF7A9F900205E4908700D
:1074900070BD10B50024FBF782FE5C490860084609
:1074A00000685B490968884205D95848006858490E
:1074B0000968401A06E056480068C0F58030534914
:1074C0000968084484B2B4F57A7F10DD5148007829
:1074D00048B102205049087040F2DC504F49088002
:1074E00048808880C88001204D49087002E0002053
:1074F0004B49087010BD00204A4908704048407848
:1075000008B9012008704648007810B104204549A8
:1075100008703B48007810B903204249087042487F
:10752000007F10B102203F4908704048007810B138
:1075300001203C4908703E48007828B13248007864
:1075400010B90520374908703748407F10B1062030
:1075500034490870704710B500242E480078E0B117
:107560003448006818B9FBF71AFE32490860FBF787
:1075700016FE30490968441AB4F57A6F15D901200E
:1075800025490870002020490870224908702949BF
:10759000086001202649087007E001201E49087094
:1075A0000020194908702249087010BD10B516480E
:1075B000007820B320498868204906F07FFC17D85E
:1075C00015480078D8B101201D49087000201D49D8
:1075D00008601149087001200E4908701A48806837
:1075E00080F0004019490860012001F037FF06E0F3
:1075F00009480078012802D115480F49886010BD5C
:10760000D40B002000005440BC03002018030020CD
:107610002401002038030020780300202E010020E0
:107620001C03002018000020D8090020CE010020F3
:107630001D03002020030020540F002000001644EA
:107640008003002088030020AC0C0020A003002051
:107650000000484331490143314A1160704770B519
:10766000002100230F22C47804B32D4C246804F4B5
:10767000E064C4F5E064210AC1F10403CA4044781F
:1076800004FA03F18478144021430901254C06785B
:10769000A155047804F01F050124AC4005786D1154
:1076A000AD0005F1E025C5F8004109E0047804F0DB
:1076B0001F050124AC401C4D0678761145F8264084
:1076C00070BD1A4A0A400243154B1B1F1A607047CF
:1076D00039B1134A121D12680243114B1B1D1A6067
:1076E00006E00F4A121D126882430D4B1B1D1A60E3
:1076F0007047042808D14FF0E021096941F00401E6
:107700004FF0E022116107E04FF0E021096921F01C
:1077100004014FF0E0221161704700000000FA05FB
:107720000CED00E000E400E080E100E080FFFF1FDE
:1077300010B50446CC48844208D10121042000F051
:107740002DFB0021042000F029FB46E0C7488442BD
:1077500008D10121082000F021FB0021082000F0C1
:107760001DFB3AE0C248844208D10121102000F0FC
:1077700015FB0021102000F011FB2EE0BD488442D3
:1077800008D10121202000F009FB0021202000F079
:1077900005FB22E0B848844208D10121402000F0D6
:1077A000FDFA0021402000F0F9FA16E0B3488442C7
:1077B00008D10121802000F0F1FA0021802000F0A2
:1077C000EDFA0AE0AE48844207D10121801500F0AD
:1077D000E5FA0021A01500F0E1FA10BD10B5012175
:1077E000084600F0DBFA0021012000F0D7FA10BDB6
:1077F0002DE9F04102460025002600200023002448
:10780000002791F803C00CF00F0591F803C00CF0AD
:10781000100CBCF1000F03D091F802C04CEA050532
:1078200091F800C0BCF1000F31D0146800202BE0AB
:107830004FF0010C0CFA00F3B1F800C00CEA03069B
:107840009E4220D183004FF00F0C0CFA03F7BC438B
:1078500005FA03FC4CEA040491F803C0BCF1280FBC
:1078600006D14FF0010C0CFA00FCC2F814C00AE07B
:1078700091F803C0BCF1480F05D14FF0010C0CFA90
:1078800000FCC2F810C0401C0828D1D31460B1F825
:1078900000C0BCF1FF0F34DD546800202EE000F181
:1078A000080C4FF0010808FA0CF3B1F800C00CEA1C
:1078B00003069E4221D183004FF00F0C0CFA03F710
:1078C000BC4305FA03FC4CEA040491F803C0BCF184
:1078D000280F05D100F1080C08FA0CF8C2F8148042
:1078E00091F803C0BCF1480F07D100F1080C4FF02C
:1078F000010808FA0CF8C2F81080401C0828CED302
:107900005460BDE8F0814FF6FF7101800221817063
:107910000421C17070470246002093680B400BB1F0
:10792000012000E0002070470146886880B270475F
:1079300002460020D3680B400BB1012000E000207C
:1079400070470146C86880B2704701617047416165
:1079500070470AB1016100E041617047C160704742
:107960004FF480320A438261816182618269826957
:10797000704702460020434B18684FF6807318404A
:1079800040EA021008433F4B186070473E49C86107
:107990007047F0B50A46002300240021002500F0BE
:1079A0000046B6F1004F02D1364EF16901E0354E86
:1079B0007168C0F3034583B200F44016B6F5401F6A
:1079C00008D121F070612F4E766826F070662D4F39
:1079D0007E6012E000F48016B6F5801F06D1032603
:1079E00006FA05F4A14341F0706106E0460D360148
:1079F00003FA06F6B14341F0706122B1460D36013B
:107A000003FA06F6314300F00046B6F1004F02D10A
:107A10001C4EF16101E01B4E7160F0BD30B50022DB
:107A20008B071C0F0F2303FA04F2164B08338C103C
:107A300053F824309343134C08348D1044F8253008
:107A400023468C1053F824308C07240F00FA04F4DA
:107A500023430C4C08348D1044F8253030BD0A49BE
:107A6000DC3108607047000000080140000C014054
:107A7000001001400014014000180140001C0140AA
:107A8000002001400000014000002042DF48006863
:107A900040F00100DD49086008464068DC490840C4
:107AA000DA49486008460068DA490840D749086062
:107AB0000846006820F4802008600846406820F4EA
:107AC000FE0048604FF41F0088607047CF49096886
:107AD00021F48031CD4A11601146096821F48021DA
:107AE0001160B0F5803F03D0B0F5802F0ED106E0D5
:107AF000C649096841F48031C44A116007E0C349AE
:107B0000096841F4A021C14A116000E000BF00BF34
:107B1000704710B501460022002300204A11012AB7
:107B200002D1BA4C236806E0022A02D1B74C236A7C
:107B300001E0B64C636A01F01F02012494401C402E
:107B40000CB1012000E0002010BD38B500200090ED
:107B50000024002500BF3120FFF7DBFF0546009819
:107B6000401C00900098B0F5A06F01D0002DF2D01D
:107B70003120FFF7CEFF08B1012400E000242046A9
:107B800038BD01460020A14A106820F0F80040EA04
:107B9000C10010607047A04908607047024600208D
:107BA0009A4B586820F47C1042EA01031843974B23
:107BB0005860704798490866704701460020934A0C
:107BC000506820F003000843506070478F484068B9
:107BD00000F00C007047014600208C4A506820F0ED
:107BE000F00008435060704701460020874A506803
:107BF00020F4E06008435060704701460020834A4B
:107C0000506820F4605040EAC1005060704729B1CC
:107C10007E4A527A02437D4B5A7204E07B4A527A82
:107C200082437A4B5A7270477B49D831086070475B
:107C300001460020754A506820F4404008435060D7
:107C400070470021714A20321170704A82F820106A
:107C5000012802D004280AD104E001216B4A203215
:107C6000117005E00521694A2032117000E000BF63
:107C700000BF70476949086070476449096A014359
:107C8000624A11627047654944390860704730B5EF
:107C900000210022002400235C4D6D6805F00C01DA
:107CA00021B1042905D0082923D105E05C4D0560E8
:107CB00022E05B4D05601FE0544D6D6805F47012C5
:107CC000524D6D6805F48034022505EB92421CB9D3
:107CD000544D554305600BE04C4D6D6805F400357F
:107CE0001DB1504D5543056002E04D4D55430560B3
:107CF00002E04B4D056000BF00BF444D6D6805F0CC
:107D0000F0010909484D6B5C0568DD4045603F4D59
:107D10006D6805F4E061090A434D6B5C4568DD4020
:107D200085603A4D6D6805F46051C90A3E4D6B5C43
:107D30004568DD40C560354D6D6805F44041890BEF
:107D40003A4D6B5CC568B5FBF3F5056130BD29B1F3
:107D50002E4A526902432D4B5A6104E02B4A526964
:107D600082432A4B5A61704729B1284A92690243DB
:107D7000264B9A6104E0254A92698243234B9A611B
:107D8000704729B1214AD2690243204BDA6104E0ED
:107D90001E4AD26982431D4BDA61704729B11B4AE2
:107DA000D2680243194BDA6004E0184AD268824371
:107DB000164BDA60704729B1144A12690243134B1B
:107DC0001A6104E0114A12698243104B1A6170472C
:107DD00012494039086070470F49C86470470B4921
:107DE000C87170470948406A40F08070074948628E
:107DF000704701460020054A92680A400AB10120F6
:107E000000E000207047014988727047001002406E
:107E10000000FFF8FFFFF6FE0000424280044242ED
:107E200000127A0000093D002403002034030020E2
:107E300010B50446FE48844208D10121C014FFF762
:107E4000ADFF0021E014FFF7A9FFC4E0B4F1804FBB
:107E500008D101210846FFF7AEFF00210120FFF7FE
:107E6000AAFFB8E0F348844208D101210220FFF7BD
:107E7000A2FF00210220FFF79EFFACE0EE48844203
:107E800008D101210420FFF796FF00210420FFF70D
:107E900092FFA0E0E948844208D101210820FFF7C1
:107EA0008AFF00210820FFF786FF94E0E44884421F
:107EB00008D101211020FFF77EFF00211020FFF7DD
:107EC0007AFF88E0DF48844208D101212020FFF7B3
:107ED00072FF00212020FFF76EFF7CE0DA48844229
:107EE00008D101214014FFF759FF00216014FFF76A
:107EF00055FF70E0D548844209D10121C804FFF73D
:107F00004DFF00214FF40020FFF748FF63E0D04809
:107F1000844209D101210805FFF740FF00214FF4F9
:107F20008010FFF73BFF56E0CA48844209D1012187
:107F30004805FFF733FF00214FF40010FFF72EFF35
:107F400049E0C548844208D101214020FFF733FFB2
:107F500000214020FFF72FFF3DE0C048844208D1B8
:107F600001218020FFF727FF00218020FFF723FF5A
:107F700031E0BB48844208D101218015FFF71BFF87
:107F80000021A015FFF717FF25E0B648844209D16C
:107F900001210804FFF702FF00214FF48030FFF7B2
:107FA000FDFE18E0B048844209D101214804FFF7E2
:107FB000F5FE00214FF40030FFF7F0FE0BE0AB4878
:107FC000844208D101218804FFF7E8FE00214FF424
:107FD0008020FFF7E3FE10BD00220288944B9842F8
:107FE0000ED0994B98420BD0B0F1804F08D0914BF6
:107FF000984205D0904B984202D0904B984204D1C1
:108000004FF68F731A404B881A438D4B984207D016
:108010008C4B984204D04FF6FF431A40CB881A434A
:1080200002808B8883850B880385814B98420BD017
:10803000854B984208D08B4B984205D08A4B98428A
:1080400002D08A4B984201D10B7A038601238382A6
:10805000704770B5002400220023058C4FF6FE7691
:1080600035400584028C8388048B4FF68F752C4035
:10807000B51E2C400D882C43751E2A400D892A43BD
:108080004D882A436A4DA8420BD06F4DA84208D0B4
:10809000744DA84205D0744DA84202D0734DA84239
:1080A00013D14FF6F7752A404D892A434FF6FB75D9
:1080B0002A408D882A434FF6FF652B404FF6FF5527
:1080C0002B408D892B43CD892B4383800483CD881E
:1080D0008586028470BD70B5002400220023058CC3
:1080E0004FF6EF7635400584028C8388048B48F682
:1080F000FF752C404FF6FF452C400D884FF6FF765C
:1081000006EA05252C434FF6DF752A400D8906EA5D
:1081100005152A434D8806EA05152A43444DA84211
:1081200002D0494DA8421DD14FF67F752A404D8996
:108130004FF6FF7606EA05152A434FF6BF752A402B
:108140008D8806EA05152A434FF6FF352B404FF27E
:10815000FF752B408D8906EA85052B43CD8906EAFC
:1081600085052B4383800483CD880587028470BDF9
:1081700070B5002400220023058C4FF6FF663540C1
:108180000584028C8388848B4FF68F752C404FF6C4
:10819000FC752C400D882C434FF6FF552A400D8965
:1081A0004FF6FF7606EA05252A434D8806EA05259F
:1081B0002A431F4DA84202D0234DA8421DD14FF2A1
:1081C000FF752A404D894FF6FF7606EA05252A43BA
:1081D0004FF6FF352A408D8806EA05252A434EF6DC
:1081E000FF752B404DF6FF752B408D8906EA05156E
:1081F0002B43CD8906EA05152B4383808483CD88E4
:108200008587028470BD70B5002200230024058C90
:108210004EF6FF7635400584038C8488828B48F6C1
:10822000FF752A404FF6FF452A400D8820E00000E8
:10823000002C01400004004000080040000C0040F9
:10824000001000400014004000340140004C014088
:10825000005001400054014000180040001C004044
:10826000002000400040014000440140004801401F
:108270004FF6FF7606EA05252A434DF6FF752B409B
:108280000D8906EA05352B434D8806EA05352B4353
:10829000FA4DA84202D0FA4DA84208D14BF6FF751C
:1082A0002C408D894FF6FF7606EA85152C43848095
:1082B0008283CD88A0F84050038470BD828B4FF23A
:1082C000FF331A408283828B4FF6FF7303EA012348
:1082D0001A4382837047F0B50C46154600220021F0
:1082E0000026078C4EF6FF7C07EA0C070784828B7A
:1082F000018C4FF6FF7707EA043640F6FF473A4015
:108300004FF6FF7707EA05273A434FF6FF7707EA6C
:1083100003373A43D94FB8420ED0D94FB8420BD0A9
:10832000B0F1804F08D0D74FB84205D0D64FB842F1
:1083300002D0D64FB84206D14DF6FF77394046F409
:108340008057394305E047F6FF57394044F48057DA
:10835000394382830184F0BD828B4FF6F3731A4058
:108360008283828B0A4382837047F0B50C461546A0
:10837000002200210026078C4FF6FF6C07EA0C074D
:108380000784828B018C4FF6FF7707EA04264FF6AD
:108390000C773A404FF6FF7707EA03172F433A432B
:1083A000B64FB8420ED0B64FB8420BD0B0F1804FA6
:1083B00008D0B44FB84205D0B34FB84202D0B34F43
:1083C000B84206D14FF6FF57394046F4807739431B
:1083D00005E04FF2FF57394044F4807739438283F8
:1083E0000184F0BD028B4FF2FF331A400283028BEF
:1083F0004FF6FF7303EA01231A4302837047F0B577
:108400000C461546002200210026078C4FF6EF7C13
:1084100007EA0C070784028B018C4FF6FF7707EA07
:10842000041640F6FF473A404FF6FF7707EA033756
:108430003A434FF6FF7707EA05273A438F4FB84292
:108440000ED08F4FB8420BD0B0F1804F08D08D4F77
:10845000B84205D08C4FB84202D08C4FB84206D1FA
:108460004FF6DF77394046F01007394305E04FF605
:108470005F77394044F01007394302830184F0BD2F
:10848000028B4FF6F3731A400283028B0A43028376
:108490007047F0B50C46154600220021068C4FF6B9
:1084A000FE773E400684028B018C4FF60C763240FC
:1084B0007E1C06EA03162E433243704EB0420ED0A5
:1084C0006F4EB0420BD0B0F1804F08D06D4EB0422D
:1084D00005D06D4EB04202D06C4EB04206D14FF680
:1084E000FD76314044F00106314305E04FF6F57664
:1084F000314044F00106314302830184F0BD70B580
:1085000005460C465D4885420ED05D4885420BD03D
:10851000B5F1804F08D05B48854205D05A48854266
:1085200002D05A48854200D100E000BF208850B9EF
:108530002389A28861882846FFF7ABFFE188284697
:10854000FFF79EFF25E0208804280AD12389A2880E
:1085500061882846FFF753FFE1882846FFF742FF6E
:1085600017E0208808280AD12389A2886188284634
:10857000FFF7FBFEE1882846FFF7EEFE09E02389BE
:10858000A28861882846FFF7A6FEE1882846FFF703
:1085900095FE70BD2DE9F04105460C4600260127E9
:1085A000608808B9022600E00026A088012801D1D1
:1085B000022700E001272088A0B92389A2886188CA
:1085C0002846FFF766FFE1882846FFF759FF238911
:1085D0003A4631462846FFF712FFE1882846FFF762
:1085E00001FF13E02389A28861882846FFF707FF6F
:1085F000E1882846FFF7F6FE23893A4631462846A9
:10860000FFF747FFE1882846FFF73AFFBDE8F08112
:108610000A884B881A438B881A43CB881A430B89E4
:108620001A434B891A438B891A43A0F84420704798
:108630004FF6FF71818000210180C180418001726D
:1086400070470021018041808180C180018141818A
:108650008181C18170470021018041800121818099
:108660000021C1800181704700210180418081800B
:10867000C18001814181818170470000002C01404F
:10868000003401400004004000080040000C00409D
:1086900021B1028842F00102028004E002884FF614
:1086A000FE731A400280704731B1B0F8442042F4A2
:1086B0000042A0F8442005E0B0F84420C2F30E02C6
:1086C000A0F8442070471AB183890B43838102E0EC
:1086D00083898B43838170478182704741EA02031B
:1086E000A0F8483070471AB183890B43838102E0B8
:1086F00083898B438381704701894FF6F87211405B
:10870000018170470A46002101894FF68F73194095
:1087100011430181704730B504460D462946204675
:10872000FFF7F0FF208940F00700208130BD2DE9E0
:10873000F04104460D4616461F46602D06D13B46C5
:10874000012231462046FFF75AFE05E03B46012252
:1087500031462046FFF79DFE29462046FFF7D2FF0F
:10876000208940F007002081BDE8F08130B50C463B
:1087700000210189C9B24FF6FF7505EA03251543AB
:1087800025432943018130BD2DE9F04105460E46C0
:1087900017469846002443463A4631462846FFF796
:1087A000E5FF2C894FF6F870044044F007044FF6BB
:1087B0008F70044044F070042C81BDE8F081F0B566
:1087C00004460D4616461F463B463246294620467D
:1087D000FFF7CCFF208940F480402081F0BD018567
:1087E000828270470A46002101884FF68F73194034
:1087F000114301807047F0B50C4615461E46002116
:10880000002200230189028B038C4FF6F877394050
:1088100021434FF6FC473A4040F201173A434FF6E6
:10882000DD773B404FF6FF7707EA06172F433B43C0
:10883000018102830384F0BD0A460021018B4FF6BB
:108840008F7319401143018370470A460021018B41
:1088500048F6FF7319404FF6FF7303EA02231943EA
:10886000018370470A460021818B4FF68F731940B0
:108870001143818370470A460021818B48F6FF73BC
:1088800019404FF6FF7303EA0223194381837047AF
:1088900021B1028842F08002028004E002884FF693
:1088A0007F731A400280704721B1828842F004022F
:1088B000828004E082884FF6FB731A408280704702
:1088C00021B1828842F00802828004E082884FF65B
:1088D000F7731A408280704721B1828842F001020A
:1088E000828004E082884FF6FE731A4082807047CF
:1088F0000A460021018B4FF6F7731940114301839B
:1089000070470A460021018B4FF2FF7319404FF662
:10891000FF7303EA02231943018370470A460021CB
:10892000818B4FF6F77319401143818370470A46D4
:108930000021818B4FF2FF7319404FF6FF7303EA5A
:1089400002231943818370470A460021018B4FF6A9
:10895000FB7319401143018370470A460021018BC4
:108960004FF6FF3319404FF6FF7303EA0223194312
:10897000018370470A460021818B4FF6FB73194033
:108980001143818370470A460021818B4FF6FF33E4
:1089900019404FF6FF7303EA02231943818370479E
:1089A0000A460021018B4FF67F7319401143018362
:1089B00070470A460021018BC1F30E014FF6FF7389
:1089C00003EA02231943018370470A460021818B81
:1089D0004FF67F7319401143818370470A46002187
:1089E000818BC1F30E014FF6FF7303EA0223194393
:1089F000818370470A460021018C4FF6FD731940B0
:108A00001143018470470A460021018C4FF6F77329
:108A100019401143018470470A460021018C4FF62A
:108A2000DF7319404FF6FF7303EA02131943018401
:108A300070470A460021018C4FF67F7319404FF6AC
:108A4000FF7303EA02131943018470470A460021A9
:108A5000018C4FF6FF5319404FF6FF7303EA0223D0
:108A60001943018470470A460021018C4FF2FF73BD
:108A700019404FF6FF7303EA02231943018470473C
:108A80000A460021018C4DF6FF7319404FF6FF7323
:108A900003EA023319430184704730B500230124EF
:108AA0008C40A3B2048C9C430484048C02FA01F52C
:108AB000ADB22C43048430BD30B5002304248C4077
:108AC000A3B2048C9C430484048C02FA01F5ADB279
:108AD0002C43048430BD70B50346002000241846A2
:108AE000183001258D40ACB21D8CA5431D8409B101
:108AF000082909D100EB6100056825F070050560C3
:108B00000568154305600EE00D1FC5F34E052844AA
:108B1000056825F4E045056005684FF6FF7606EA2E
:108B200002263543056070BD21B1028842F0020281
:108B3000028004E002884FF6FD731A4002807047FD
:108B400021B1028842F00402028004E002884FF65C
:108B5000FB731A400280704721B1828842F0800284
:108B6000828004E082884FF67F731A4082807047CB
:108B700002884FF6F7731A40028002880A43028087
:108B8000704782884FF68F731A40828082880A432A
:108B90008280704702894FF6F8731A400281028979
:108BA0000A430281704702894FF67F731A4002819F
:108BB00002890A430281704781847047818570472A
:108BC000818670470187704781877047A0F8401001
:108BD000704702884FF6FF431A40028002880A431A
:108BE000028070470146888E70470146088F7047A3
:108BF0000146888F70470146B1F840007047014632
:108C0000888C70470146088D704702460020138A01
:108C10000B400BB1012000E000207047CA430282E4
:108C2000704730B50246002000230024158A05EA6B
:108C30000103958905EA010413B10CB1012000E09C
:108C4000002030BDCA4302827047000010B50446C0
:108C5000FB48844209D101218803FFF79FF80021D6
:108C60004FF48040FFF79AF832E0F648844209D189
:108C700001214804FFF79FF800214FF40030FFF76F
:108C80009AF825E0F048844209D101218804FFF7D1
:108C900092F800214FF48020FFF78DF818E0EB48A0
:108CA000844209D10121C804FFF785F800214FF45F
:108CB0000020FFF780F80BE0E548844208D101214D
:108CC0000805FFF778F800214FF48010FFF773F8DC
:108CD00010BD2DE9F04786B005460E460024A24699
:108CE00000BFA1460027B08900B100BF2F462C8AE3
:108CF0004CF6FF700440F08804432C82AC894EF699
:108D0000F3100440B0883189084371890843044353
:108D1000AC81AC8A4FF6FF400440B0890443AC827A
:108D200001A8FEF7B4FFC648874202D1DDF810A0C3
:108D300001E0DDF80CA0A88900F4004040B10AEB86
:108D4000CA0000EB0A1031684900B0FBF1F807E0F7
:108D50000AEBCA0000EB0A1031688900B0FBF1F899
:108D60006420B8FBF0F004012009642101FB1089A4
:108D7000A88900F4004040B1322000EBC900B0FBEC
:108D8000F1F000F00700044308E0322000EB091086
:108D90006421B0FBF1F000F00F0004432C8106B019
:108DA000BDE8F0874FF41651016000218180C18039
:108DB00001810C21418100218181704710B502465B
:108DC0000020108A4FF2FF0318400B884C88234381
:108DD0008C882343CC8823431843108210BD002184
:108DE000018041808180C180704721B1828942F435
:108DF0000052828104E082894DF6FF731A4082811D
:108E00007047F0B50346002400260025002040F6F8
:108E10006A17B94200D100BF1846C1F3421401F0ED
:108E20001F06012707FA06F5012C01D10C3004E0DA
:108E3000022C01D1103000E014301AB107682F4322
:108E4000076002E00768AF430760F0BD1AB1838A8C
:108E50000B43838202E0838A8B4383827047028ABA
:108E60004FF6F0731A400282028A0A430282704768
:108E700082894FF2FF731A40828182890A4382817C
:108E8000704721B1828942F00202828104E0828926
:108E90004FF6FD731A4082817047028A4FF6DF73E6
:108EA0001A400282028A0A430282704721B1028A72
:108EB00042F48042028204E0028A4BF6FF731A40B9
:108EC00002827047C1F30802828070470146888899
:108ED000C0F308007047818941F00101818170472A
:108EE000028BD2B20283028B42EA012202837047D4
:108EF000028B02F47F420283028B0A430283704793
:108F000021B1828A42F02002828204E0828A4FF6F6
:108F1000DF731A408282704721B1828A42F01002C8
:108F2000828204E0828A4FF6EF731A408282704791
:108F300021B1828A42F00802828204E0828A4FF6DE
:108F4000F7731A408282704721B1828942F400424D
:108F5000828103E08289C2F30E028281704721B1CF
:108F6000828A42F40062828204E0828A4FF2FF73B6
:108F70001A4082827047828A4FF6FB731A408282BF
:108F8000828A0A438282704721B1828A42F00202B9
:108F9000828204E0828A4FF6FD731A408282704713
:108FA00002460020B1F5007F00D100BF13880B40BE
:108FB0000BB1012000E00020704701F40072B2F50F
:108FC000007F00D100BFCA430280704770B50246DF
:108FD000002400230025002040F66A16B14200D18B
:108FE00000BFC1F3421501F01F03012606FA03F387
:108FF000012D02D19689334006E0022D02D1168A56
:10900000334001E0968A33400C12012606FA04F43C
:109010001688344013B10CB1012000E0002070BD6F
:1090200010B50022002340F66A14A14200D100BF0F
:109030000A1201249440A3B2DC43048010BD000056
:10904000003801400044004000480040004C00400F
:109050000050004010B50446BE48844208D10121AA
:109060008014FEF79BFE0021A014FEF797FE16E089
:10907000B948844208D101210014FEF79CFE00216A
:109080002014FEF798FE0AE0B448844207D101217B
:10909000C013FEF790FE0021E013FEF78CFE10BD1A
:1090A00010B50022028802F441520B884C882343F9
:1090B0008C882343CC8823430C8923434C89234346
:1090C0008C892343CC8923431A430280838B4FF23C
:1090D000FF74234083830B8A038210BD2DE9F04F78
:1090E00085B005460C464FF0000902274FF00008F6
:1090F0004FF0010B0026B246A88B4FF2400108400A
:10910000A88302202884B5F81C90A068022801D109
:1091100000BF38E0A08810B94FF0010B01E04FF01C
:10912000020B8D48854200D100E000BF6846FEF783
:10913000AEFDDDF800A0E088B0F5007F0AD14FEA6F
:109140001A2000EB80004000A168B0FBF1F0401D48
:1091500086B20BE04FEA4B10BAFBF0F000EB800058
:109160004000A168B0FBF1F0401D86B20A20B6FBBA
:10917000F0F606F00108A6EB0800C0F34F074FF623
:10918000FF7000EA0828022F01DBFF2F02DD022713
:109190004FF00008E08840EA080038432884A0889F
:1091A000A1890843618808432188084340F400608E
:1091B00040EA0909A5F81C9005B0BDE8F08F002130
:1091C000018041808180C180018141818181C18193
:1091D0000721018270470021018041808180C18088
:1091E0000221816000218181704721B1028842F013
:1091F0004002028004E002884FF6BF731A400280EA
:10920000704721B1828B42F48062828304E0828BBA
:109210004FF6FF331A408283704730B50024002395
:109220000C110125A540ABB21AB185881D4385807C
:1092300002E085889D43858030BD1AB183880B4349
:10924000838002E083888B438380704781817047ED
:109250000146888970474FF6FF62914204D0028828
:1092600042F48072028004E002884FF6FF631A40E5
:109270000280704721B1828842F00402828004E0BB
:1092800082884FF6FB731A408280704702884FF243
:10929000FF731A40028002880A43028070470188E7
:1092A00041F480510180704721B1028842F400529C
:1092B000028004E002884DF6FF731A400280704776
:1092C00002460020012901D0108B00E0908A7047EF
:1092D0000146088A7047B1F5804F04D1028842F4F4
:1092E0008042028004E002884BF6FF731A4002803D
:1092F00070470246002013890B400BB1012000E0AB
:1093000000207047CA4302817047F0B50246002032
:1093100000240023002501F00F070126BE40B4B24F
:109320000B1101269E40B3B2968806EA0305168902
:10933000264016B10DB1012000E00020F0BD10B5AF
:10934000002201F00F040123A3409AB2D34303810A
:1093500010BD00000030014000380040003C0040DB
:109360002DE9FC5F04460E4691469A46002550467C
:1093700003F0FFFE0022FE4BCDE9000103F072FD79
:10938000074603F081FC83464946304604F08AFED6
:109390002061D4E9040104F085FE0746594604F033
:1093A000FFFAA062A16AA06804F0BCFC0190216AE7
:1093B000606804F0B7FC80462169206804F0B2FCC4
:1093C0004146009004F078FA0746019904F074FAD7
:1093D000E06220696061E748007800283AD0E648FA
:1093E0000078B0B3E548006804F03AFA07468846CA
:1093F000E06A04F035FA21F000413A464346CDE9EF
:10940000000103F0E1FE27D25946206904F08AFCEE
:109410000746216A04F050FA0546606A80F000476A
:109420002946384604F04AFC16D22846616A04F000
:1094300045FC11D2606A80F000473846E16A04F0CA
:109440003DFC09D2616AE06A04F038FC04D225626E
:1094500002E0FFE700202062BDE8FC9F012808D160
:10946000C749D1F8B010C74A11600121C64A11702E
:1094700002E00021C44A117070472DE9F04F89B015
:109480000020089005900690079083468246F9F7E1
:1094900058FE044604F0FEFB8246BC48006840B11A
:1094A000BA48006804F0F6FB0446514604F068FD33
:1094B00000E000208346504604F084FBB349086076
:1094C000B3480078012806D1B24800680590B14839
:1094D0004068069005E0B04800680590AF48006815
:1094E0000690A9480078002840D0A549D1F8B000DE
:1094F000A449096804F0D6FD80F00040009004F013
:10950000AFF98046A64AA74B03F09AFE0646002212
:10951000A54B03F0A7FC044603F0B6FB04900498A7
:1095200002F02CFC0390049803F0DAF902900299FF
:10953000059804F0F7FB04460399069804F0F2FB43
:109540000546214604F0B8F901900299069804F006
:10955000E9FB04460399059804F0E4FB054621461F
:1095600004F0A0FD05900198069000BF584604F055
:109570000DFB04468248D0F8AC2023468B48069960
:10958000FFF7EEFE584604F001FB04467C48D0F895
:10959000A820234686480599FFF7E2FE09B0BDE8FA
:1095A000F08F2DE9FC5F4FF00009CA460024F9F75F
:1095B000C8FD054604F06EFB04467E48006840B1D5
:1095C0007C48006804F066FB0546214604F0D8FCA0
:1095D00000E000208246204604F0F4FA7549086055
:1095E0006C48C06880F00049504604F0CFFA6449E6
:1095F0000190C86E704904F095FB009004F030F9BA
:109600000746674A674B03F02DFC054603F03CFB19
:1096100083466648C16A5A466848019BFFF7A0FE28
:10962000504604F0B3FA56490190886E624904F03E
:1096300079FB009004F014F90746594A594B03F09E
:1096400011FC054603F020FB83465948C16A5A467F
:109650005B48019BFFF784FE504604F097FA4849A7
:109660000190086F544904F05DFB009004F0F8F895
:1096700007464B4A4B4B03F0F5FB054603F004FB52
:1096800083465A4649464F48019BFFF769FE4B48BF
:10969000C06A4D4908604A48C06A4C490860494858
:1096A000C06A4B490860BDE8FC9F2DE9F0410546C2
:1096B0000E4614462146284604F000FC0ED22146F0
:1096C000304604F0EFFC07462146284604F0EAFC49
:1096D0008046394604F064F9BDE8F08184F0004723
:1096E0002946384604F0EAFB0DD22146304604F004
:1096F000D9FC07462146284604F0DEF88046394664
:1097000004F04EF9E8E70020E6E72DE9F04F8FB0CE
:1097100000200D900025002400260C9000270A90C0
:109720008046099008900790814682468346002132
:109730002848006804F0F6F909D1F9F702FD06900F
:1097400004F0A8FA234908600FB0BDE8F08FF9F7DC
:10975000F8FC069004F09EFA80461E4801684046D8
:1097600004F0A0FC1C49069004F01AF90A9035E0B8
:1097700080842E41BC030020380300204C030020CD
:10978000D40B00206C03002068030020A8030020F5
:1097900078030020540F00204403002048030020D9
:1097A0004AD8124DFB21094000806640B00D0020D0
:1097B000100E0020AC03002000003443E00D002018
:1097C000400E0020A00E0020540300205003002073
:1097D00058030020B003002000247449FE48C0F85C
:1097E0000080FE480078012802D0FD48007800B9CA
:1097F000AAE7FC48806880F00045FB498868FB497F
:1098000004F0CEF80D904FF07C510D9804F04AFC16
:10981000F74A4FF07C510690FFF747FF80F0004079
:10982000F44908604FF08141F248006804F07AFA88
:10983000F0490860EB48806880F00046ED480A99DE
:10984000006804F06FFA3146069004F099FB064672
:10985000E94801684FF0814004F0A2F84FF08041E0
:10986000069004F05FFA07462946304604F01AFCD9
:109870000B9039460B9804F021FB05D23946284657
:1098800004F01AF806460BE087F0004006900B99AA
:1098900004F014FB04D23946284604F003FC0646C3
:1098A000D6480078A0B1D6480168304604F0FAFBEB
:1098B0004FF08041069004F001FB09D24FF0804147
:1098C000CF48006803F0F8FF06460020C949086049
:1098D0002946304604F0E6FB80F0004009904FF046
:1098E0007C51C448006804F01DFA0690C248016823
:1098F000099804F017FA0590069903F0DDFF0C9023
:10990000B6480078022801D1BE480C90BE480078C5
:1099100028B1BE48BE4908600020BB490870B14864
:10992000446921460C9804F0BDFB0890B9480168D1
:10993000204604F0B7FB04900A9904F031F8214660
:109940000690AC48006804F0ADFB0490AA4801689A
:10995000049804F0E7F90590069904F0A3FB07903A
:10996000AC480460AC488168079804F0DBF90590C6
:10997000A9480168089804F0D5F90490059903F006
:109980009BFF0690A2480168069803F095FFA34943
:1099900008609248007802280BD00846006880F0E2
:1099A00000409F49069004F089F902D29D489B49E6
:1099B000086000209C4908709C4908708A49086822
:1099C00003F04EFF9A4A9B4BCDE9000103F038FCAF
:1099D0000022994BCDE9020103F044FACDE90401DC
:1099E00003F052F9069002F07BFF944908607E492B
:1099F000486803F035FF8E4A8E4BCDE9000103F035
:109A00001FFC00228C4BCDE9020103F02BFACDE9BB
:109A1000040103F039F9069002F062FF87494860BB
:109A20000A465168506804F07DF9844A059011682F
:109A3000106804F077F90490059903F03DFF069053
:109A400003F03AF881467E49484604F037FA3AD2A4
:109A50007C4803F047F806907048006880F00040AA
:109A60000590069904F05EF983465946484604F08D
:109A700025FA28D24946584603F092FF06906F49CE
:109A80004868069904F04EF96C49486008680699E0
:109A900004F048F969490860012063490870674A81
:109AA0005168506804F03EF9644A049011681068E7
:109AB00004F038F90390049903F0FEFE059002F0DB
:109AC000FBFF814600BF55480168006804F02AF991
:109AD00049460590484604F025F90490059903F09D
:109AE000EBFE069002F0E8FF82464FF07E515046B2
:109AF00004F0E4F962D200214848006804F0DEF87E
:109B00003CD24648006880F000404FF07E510690FD
:109B100004F0D4F90CD200204849086048604A4853
:109B20003E4908600120404908704049087045E0FE
:109B30000020069039480168006804F0F3F84FF0FF
:109B40007E51049004F01CFA059002F0B5FF8346A4
:109B50004946584603F024FF06903849486806995C
:109B600004F0E0F8354948600868069904F0DAF82E
:109B70003249086001202C4908701FE051464FF01F
:109B80007E5003F00DFF069024480699006804F00B
:109B9000C9F82249086029494868069904F0C2F8C2
:109BA000264948600868069904F0BCF82349086013
:109BB00001201D4908701D49087000BF1F49086831
:109BC00001F048FD2149009004F0ACF8019003F049
:109BD00047FE174A174B3BE0B003002078030020F4
:109BE000BC030020AC0C0020540F002000007A447D
:109BF000CDCCCC3D74030020D00E00209E0300206D
:109C0000A00300209A99993F80030020CDCC0CBF7F
:109C100084030020B4030020000F002088030020EC
:109C20005C8FC23E5C8FC2BE9D0300209C0300205F
:109C30004AD8124DFB210940008066408C03002069
:109C40000AD7233CC2B8323F000080BF0000344333
:109C5000CDE9020103F006F9CDE9040103F014F89F
:109C6000714908607149486801F0F4FC704900903E
:109C700004F058F8019003F0F3FD6E4A6E4BCDE905
:109C8000020103F0EFF8CDE9040102F0FDFF6B499A
:109C900008606B480078C8B96A484168089804F0C1
:109CA00041F805900A9904F03DF80690664801686D
:109CB000069803F001FE64490860002162480068CC
:109CC00004F0FCF802D200205F49086000BF3BE5C9
:109CD0002DE9F0415D49886D5D4903F061FE044660
:109CE0005C480078012815D15849886D584904F01E
:109CF000D9F95949886059488068594908605348DA
:109D0000D0F8944021465648006803F049FE544973
:109D1000086012E05348006880F000455249284628
:109D200004F000F84E4908604F494D48006804F0BF
:109D3000C5F802D24C484A4908604C480168484876
:109D4000006804F0AFF9074649480168384604F056
:109D5000A9F9064647480168304604F0A3F90546CC
:109D600003F014FF00B244498880404801683C4831
:109D7000006803F0A1FD07463D480168384603F03E
:109D80009BFD06463B480168304604F08BF90546CA
:109D900003F0FCFE00B238490880344801683048BE
:109DA000006804F07FF9074631480168384603F03F
:109DB00083FD06462F480168304603F07DFD0546C9
:109DC00003F0E4FE00B22C49C8802848016824480A
:109DD000006803F071FD074625480168384604F025
:109DE00061F9064623480168304603F065FD0546E3
:109DF00003F0CCFE00B2204948802048007858B1DA
:109E00000D46B5F90630B5F90420B5F90210B5F9DB
:109E10000000F7F7E3FC05E000231A461946184650
:109E2000F7F7DCFCBDE8F081440300208C03002040
:109E3000000034434AD8124DFB210940480300205A
:109E40009C030020000F002084030020D40B00207E
:109E50000AE81C4178030020300F0020540F002036
:109E60004C0300208803002000007A4454030020A3
:109E700050030020580300203A030020BC030020B8
:109E800010B555480078242840D1534840784D28D3
:109E90003CD1514880783C2838D14F48007905287A
:109EA00027D0062829D0072802D0CD282DD128E098
:109EB000494840794849897900EB01204749C880E1
:109EC0004548C0794449097A00EB0120434988801C
:109ED0004148407A4049897A00EB01203F49488057
:109EE0003D48C07A3C49097B00EB01203B49088092
:109EF0000BE001203A49087007E003203849087058
:109F000003E001203749087000BF00BFF9F747F9A7
:109F10003549086010BD10B502213448FDF715FD24
:109F2000F9F70FF93249086000BF00203149087085
:109F3000F9F707F92E490968401A2F4908600846C1
:109F400000682E490968884207D32D49D1F8980046
:109F500003F038FE2B49087123E0F7F791FD042048
:109F6000F6F775FA0720F7F7F9FC27490870084655
:109F7000007800F00E0018B901201E4908700AE0B0
:109F800020480079401C1F49087108460079FF28C5
:109F900001D1002008711C48007800F00E000E2846
:109FA000C3D000BFF7F76CFD1248007801280DD12F
:109FB0001449087903F06EFE04461148D0F8981051
:109FC000204603F0AFFD01D0FCF7E0F9022107487D
:109FD000FDF7BDFC10BD00007E0400202E01002016
:109FE00029010020CE01002024010020000C0140A6
:109FF000C0030020BE030020C4030020C8030020CB
:10A00000F40C002048000020BD030020704710B56C
:10A010004C1084EA530404D54042C1F1000138BF1A
:10A02000491E1B4204D55242C3F1000338BF5B1ED8
:10A0300000F088F914F0804F04D04042C1F10001D3
:10A0400038BF491E14F0004F04D05242C3F1000340
:10A0500038BF5B1E10BD00000FB4044910B503AA41
:10A06000029800F055FC10BC5DF814FB5000002075
:10A0700070B5044685690068C10601D5302600E048
:10A080002026C00707D070BDD4E901213046904793
:10A09000206A401C20626D1EF6D570BD70B5044666
:10A0A00085690078C00707D170BDD4E9012120205F
:10A0B0009047206A401C20626D1EF6D570BD0000DE
:10A0C0002DE9F0410646002410687529314615A592
:10A0D00010D0AFF30080002802DA404212A507E05A
:10A0E00031688A0701D511A502E0490704D510A5FA
:10A0F000012401E0AFF3008000210A2306F12407C8
:10A1000007E0B0FBF3F203FB120030307854104646
:10A11000491C0028F5D123462A463046BDE8F041C7
:10A1200000F092B9000000002D0000002B0000009C
:10A130002000000070B504460D4621461068AFF3BC
:10A1400000802188090502D50F4A7A4402E00E4AB0
:10A150007A440E32002104F1240305E000F00F06DA
:10A160000009965D5E54491C0028F7D12078002331
:10A17000000704D5702D02D009B102231132204608
:10A18000BDE8704000F060B92A4200002DE9F047B8
:10A190004FF0000A89460446C0F820A02046E16836
:10A1A0008847002876D0252806D0D4E90121904799
:10A1B000206A401C2062F1E7E168204600258847BC
:10A1C000C4F81CA006460027C4F818A02A2E09D0FF
:10A1D000304601F037FA38B304EB8708303EC8F850
:10A1E000186019E059F8041B204604EB87029161BE
:10A1F000E1688847012F064618D1E069002820DA77
:10A2000025F020051DE0D8F8180000EB800006EBD3
:10A2100040003038C8F818002046E16888470646F4
:10A2200001F010FA0028EED1012F0AD02E2E08D10D
:10A230002046E16888477F1C0646022F45F020052E
:10A24000C4DBA069002803DA404245F00105A061A3
:10A25000E80701D025F01005B6B1A6F14100192894
:10A2600002D8203645F400654A463146204625602E
:10A270004D46F5F795FF58B1012806D0ED1D25F0A4
:10A28000070000F1080989E704E005F1040985E702
:10A2900030468AE7206ABDE8F08710B5431C02E02B
:10A2A00010F8011B71B18107FAD14FF0013202C8D9
:10A2B0008C1A8C4314EAC211F9D0C01A0A0603D0D2
:10A2C000C01E10BDC01A10BD0A0401D0801E10BDF2
:10A2D0000902FCD0401E10BD10B5203AC0F00B8022
:10A2E000B1E81850203AA0E81850B1E81850A0E89A
:10A2F0001850BFF4F5AF5FEA027C24BFB1E81850F4
:10A30000A0E8185044BF18C918C0BDE810405FEA63
:10A31000827C24BF51F8043B40F8043B08BF7047DF
:10A32000D20728BF31F8023B48BF11F8012B28BFE4
:10A3300020F8023B48BF00F8012B70477047704778
:10A340007047704753EA020C00F069802DE9F04B2A
:10A350004FF00006002B1FBFB3FA83F503FA05F494
:10A3600024FA05F65E4012BF1643B2FA82F502FAED
:10A3700005F4C5F120051EBF22FA05FC44EA0C04D1
:10A38000203556EA044C4FEA144418BF641C4FF0C1
:10A3900000084FF00009904271EB030C39D30029FB
:10A3A00019BFB1FA81F701FA07F6B0FA80F700FA9F
:10A3B00007F6C7F120071EBF20FA07FC46EA0C0685
:10A3C0002037B6FBF4FCA7EB0507103F07F01F0B87
:10A3D000CBF120060CFA0BFB2CFA06F644BFB34671
:10A3E0000026202FA4BF5E464FF0000B5BEA060C50
:10A3F00008BF4FF0010B19EB0B09ABFB027C48EBDC
:10A400000608C01B06FB02CC0BFB03CC71EB0C0156
:10A41000C1E70B46024641464846BDE8F08B13B5FE
:10A420004FF000004FF00001AFF30080BDE81C408A
:10A43000704710B500F082FA006810BD10B50446F0
:10A4400000F07CFA046010BD2DE9F0470D469946F6
:10A450009246044600F124080168880604D5E069A4
:10A4600021F01001216000E00120A84201DD471B1E
:10A4700000E00027A1697A1902EB0900081AA0611F
:10A480002078C00602D42046FFF7F2FD002608E03F
:10A49000D4E901211AF806009047206A401C761C76
:10A4A00020624E45F4DB2078C0060AD52046FFF72F
:10A4B000DFFD06E0D4E9012130209047206A401CEE
:10A4C0002062381EA7F10107F4DC07E0D4E901217E
:10A4D00018F805009047206A401C2062281EA5F14C
:10A4E0000105F3DC2046FFF7D9FD2078000602D5F0
:10A4F0000220BDE8F0870120FBE770472DE9FF4F00
:10A500000C461E464FF0FF378BB0D2E90001DDF854
:10A5100060800A908A46C1F30A5505B93D4600217C
:10A5200008464FF00000BAF1000F00F4400005DAD1
:10A5300000EB80004FF4400101EA50004FEA9059CF
:10A54000B9F1010F00DDB9460A9850EA4A000ED071
:10A5500044F61050A5F2FF3545432F14B8F1000F13
:10A560001ED07542291E1EDDC9F100021CE0B8F1A3
:10A57000010F4FF0000001D0302103E0F24305E06D
:10A580002154401CB042FBDB304600220021215404
:10A590000B99C1F80880C1E900200FB0BDE8F08F29
:10A5A000BD1B6D1CDEE74A4600DA694206A800F0D2
:10A5B00067FA06AB93E8070003AB83E80700504651
:10A5C0000A9900F03DFB8DE80700A0F500501F3808
:10A5D00000900398002D09DD42F21F014A4608440D
:10A5E00003A90390684600F09CFD08E0A0F5005028
:10A5F0004A461F3803A90390684600F0A6FD8DE87F
:10A6000007000004000C03D04FF0FF30410800E0C9
:10A610001046B8F1000F03D00022009215461EE04C
:10A62000751E05D400F08EF9303262556D1EF9D5D5
:10A63000B3460122084302D000227F1C04E02078A8
:10A64000302801D100227F1E002A099786D01DE004
:10A65000112D07DA00F076F9303262556D1C50EAA0
:10A660000102F5D1084302D00098C8B10EE00021E4
:10A67000681E05E0235C625C63542254401E491C42
:10A680008142F7DBAB46A81B401E0990002004F86E
:10A690000B000B98099AC0F80880C0E9002B7CE7F2
:10A6A00011264FF0000859E72DE9F04F884604467F
:10A6B000D21D22F0070191B0D1E90001CDE90A01D4
:10A6C00000F079FE02460B98C00F01D02D2007E064
:10A6D0002068810701D52B2002E0202101EAC0007B
:10A6E000032A099001D0072A05DB0346414620468C
:10A6F00000F086F909E12078800601D5E06900E0E4
:10A700000620B8F1650F814606D0B8F1660F18D063
:10A71000B8F1670F70D131E00020B9F1110F00904E
:10A7200001DB112301E009F101030AAA01A90CA828
:10A73000FFF7E4FEDDE90C70002609F10105834610
:10A7400047E001204B4600904FF000470AAA01A9BC
:10A750000CA8FFF7D3FEDDE90DB00C995D4600268D
:10A7600010B909F101000D18B9EB050003D4C0F1CF
:10A77000FF3609F10105A5EB09002BE0B9F1010F46
:10A7800001DA4FF001090020B9F1110F009048469D
:10A7900001DD112300E003460AAA01A90CA8FFF776
:10A7A000ADFEDDE90C704D4600268346207800079B
:10A7B0000AD4AB4500DA5D4601A8012D04DD41193C
:10A7C00011F8011C302907D04F4502DA17F1040FA8
:10A7D00004DA012082460FE06D1EEEE7002F02DC56
:10A7E000ED1B3E4403E0781CA84200DD7D1CB81B35
:10A7F00000F1010A4FF000472078000703D4AA4572
:10A8000001DB4FF0FF3A0021B7F1004F0DF1430893
:10A810008DF8431022D002202B23002F01DA7F4233
:10A820002D234FF00A0C011EA0F1010000DC47B1FE
:10A8300097FBFCF10CFB11720F46303208F8012D2A
:10A84000F1E7A8F1010003702188090501D5452130
:10A8500000E06521A0F1010800F8011C09980FA98A
:10A86000A1EB0807FF1D00B10120411901EBEA70BF
:10A87000A1693844081A401EA0612078C00602D49D
:10A880002046FFF7F5FB099828B1D4E9012190474C
:10A89000206A401C20622078C00622D52046FFF79F
:10A8A000E7FB1EE0002E04DBB34502DD01A8805D5E
:10A8B00000E03020D4E901219047206A401C20624A
:10A8C000761CAAF101005FEA000A0AD100F032F812
:10A8D000C0680168405CD4E901219047206A401CAF
:10A8E0002062281EA5F10105DCDC07E0D4E9012186
:10A8F00018F8010B9047206A401C2062381EA7F10F
:10A900000107F3DC2046FFF7C9FB022011B045E642
:10A91000074B70B50D467B4400F05FF804462846AF
:10A9200000F01AF910B14FF0FF3070BD204670BD35
:10A93000E975FFFF00487047840F0020004870470A
:10A94000640F002030B5B0F10A024FEA900E71F1A9
:10A9500000034EEA817EB0EB0E0061EB91014FEAFD
:10A96000101E4EEA017E10EB0E0041EB11114FEA72
:10A97000102E4EEA016E10EB0E0041EB11214FEA52
:10A98000104E4EEA014E10EB0E0041EB1141401803
:10A9900041F100014FEAD00040EA41704FEAD10195
:10A9A00010EB80054FEA810444EA907444EB010403
:10A9B0006D1944EB0404521BA3414FF0000348BF40
:10A9C0000A3200D530BD401C41F1000130BD00000D
:10A9D00001694A1C02610878704700B58FB0CDE963
:10A9E00001310021059105497944CDE90310114653
:10A9F0006846FFF7CBFB0FB000BD0000E5FFFFFF8F
:10AA00002DE9F0411F46044603260168072A01F498
:10AA1000006004DB08B116A505E016A503E008B147
:10AA200015A500E015A521F010002060A069C01E4A
:10AA3000A0610FB1401EA0612046FFF719FB4FB186
:10AA4000D4E9012138469047206A401C2062C01C8E
:10AA5000206206E0206AFAE7D4E9012115F8010B2B
:10AA60009047761EF8D22046FFF718FBBDE8F0812C
:10AA70004E414E006E616E00494E4600696E6600A2
:10AA80002DE9F047814616468AB0324878440DC811
:10AA90008DE80D002F487844801C03AC0DC884E875
:10AAA0000D0041F69B303722014491FBF2F0A0F1FA
:10AAB000800502FB10141B3C02D56442012000E01B
:10AAC0000020DFF890A080460027FA44AAF1BA0AD5
:10AAD0000DE0E00709D03246684607EB47010AEB74
:10AAE000810100F032FB8DE8070064107F1C002C10
:10AAF000EFD1184F7F44A83F18E0E80714D007EBC8
:10AB000004100DF1180A90E80E008AE80E00C068E3
:10AB1000F04201D198190890324606A903A800F026
:10AB200014FB03AB83E807006D10641C002DE4D117
:10AB300032466946B8F1000F03A802D000F0F1FADE
:10AB400001E000F002FBC9E90001C9F808200AB0E1
:10AB5000BDE8F087D43A0000007B00F08000704729
:10AB600000487047640F00207546FFF7F9FFAE46B6
:10AB700005006946534620F00700854618B020B509
:10AB8000F5F732FCBDE820404FF000064FF000071B
:10AB90004FF000084FF0000B21F00701AC46ACE885
:10ABA000C009ACE8C009ACE8C009ACE8C0098D46F2
:10ABB00070470446AFF300802046F5F711FB000014
:10ABC0004FF0013C50F8042B51F8043B9A4221D13C
:10ABD000A2EB0C03934313EACC1317D150F8042BC8
:10ABE00051F8043B9A4215D1A2EB0C03934313EAAC
:10ABF000CC130BD150F8042B51F8043B9A4209D1E5
:10AC0000A2EB0C03934313EACC13DBD04FF000000C
:10AC1000704700BFD01A01BAB1FA81F101F01801F2
:10AC200022FA01F0CB40C1F12001DBB2C0B2C01A60
:10AC30002CFA01F3D11A914311EAC311E6D17047FE
:10AC40005FEA400C08BF91F0000F4FEA8C234FEAF7
:10AC5000C12243EA51514FEA1C5018BF00F5F040A1
:10AC60004FEA300018BF41F000415FEA6C5C00F031
:10AC70002980BCF1FF3F08BF40F080407047130CB3
:10AC800006BF12044FF0100C4FF0000C130E04BF5F
:10AC900012020CF1080C130F04BF12010CF1040C8A
:10ACA000930F04BF92000CF1020CD30F04BF5200AB
:10ACB0000CF1010C11464FF00002A0F11F00A0EBB7
:10ACC0000C00704711F0004F08BF704731F0004191
:10ACD0003FF4D5AF0B0C06BF09044FF0100C4FF03A
:10ACE000000C0B0E04BF09020CF1080C0B0F04BF83
:10ACF00009010CF1040C8B0F04BF89000CF1020C4C
:10AD0000CB0F04BF49000CF1010CCCF12003A0EBE8
:10AD10000C0022FA03F302FA0CF241EA030100F1FB
:10AD20000100704720F07F4C80EA030023F07F474A
:10AD3000ACEB070303F57C5300F0004003F1FF0385
:10AD40002DE980494FEA154B09B44FEA144325EA2F
:10AD50000B4E24EA03480FF2042606EB132749089A
:10AD60003E785FEA320203FB0667C7F5000707FB80
:10AD700006F64FEA54374FEAD64606F1020607FBBD
:10AD8000066CCCF1005C4FEA1C472CEA074C07FB31
:10AD900006F40CFB06F504EB15464FEA961634BF95
:10ADA00000204FF000404FEAD13706FB07FC4FEA86
:10ADB0001C4C0CFB0BF7D21B03FB0CF761EB0701E0
:10ADC0000CFB0EF7B0EB074072EB17420CFB08F7D9
:10ADD00034BFA2EB0742B2EB074261EB17414FEAE7
:10ADE0000C444FEA910706FB07FC4FEA1C4C0CFB96
:10ADF0000BF7B0EBC74072EB573203FB0CF734BFD5
:10AE0000A2EBC742B2EBC74261EB57310CFB0EF726
:10AE1000B0EBC70072EB57720CFB08F734BFA2EB24
:10AE2000C702B2EBC70261EB5771039F4FEA816122
:10AE300041EA921104EBCC044FEAD1374FEA826227
:10AE400006FB07FC42EA90124FEA80604FEA1C4C76
:10AE50000CFB0BF7D21B03FB0CF761EB07010CFBA0
:10AE60000EF7B0EB074072EB17420CFB08F734BF4C
:10AE7000A2EB0742B2EB074261EB17414FEA8C5558
:10AE80004FEA910704EB9C2406FB07FC4FEA1C4C9D
:10AE90000CFB0BF7B0EBC74072EB573203FB0CF720
:10AEA00034BFA2EBC742B2EBC74261EB57310CFB98
:10AEB0000EF7B0EBC70072EB57720CFB08F734BF0C
:10AEC000A2EBC702B2EBC70261EB577115EB4C2541
:10AED0004FEA816141EA92114FEA82624FEAD1372B
:10AEE00042EA901206FB07FC44F100044FEA80603E
:10AEF0004FEA1C4C0CFB0BF7D21B03FB0CF761EB6E
:10AF000007010CFB0EF7B0EB074072EB17420CFB8E
:10AF100008F734BFA2EB0742B2EB074261EB1741DF
:10AF200015EB1C154FEA813141EA92414FEA82321A
:10AF300042EA90424FEA80304FEA0C7644F1000436
:10AF400048EA03434EEA0B484FF0000EB2EB080C00
:10AF500071EB030724BF624639464EEB0E0E4FF0ED
:10AF6000000B0018524149414BEB0B0BB2EB080CA4
:10AF700071EB03077BF1000B24BF624639464EEBB1
:10AF80000E0E4FF0000B0018524149414BEB0B0BDA
:10AF9000B2EB080C71EB03077BF1000B24BF624698
:10AFA00039464EEB0E0E51EA020718BF46F0010675
:10AFB00016EB0E7655F1000254F1000103D5BDE801
:10AFC0008901BDE80088BDE88901B619BDE80048DF
:10AFD000524141EB0101A3F10103704780807F7E64
:10AFE0007D7C7B7A797877767675747372717170FF
:10AFF0006F6E6E6D6C6C6B6A6A69686867666665B1
:10B000006464636362616160605F5F5E5E5D5D5C3E
:10B010005C5B5B5A5A5959585857575656555555AF
:10B020005454535352525251515050504F4F4F4E0F
:10B030004E4D4D4D4C4C4C4B4B4B4A4A4A4949495D
:10B04000484848474747474646464545454444449F
:10B05000444343434342424242414141002B26D4B0
:10B06000770021D01CB54FEA370703B44FF010002A
:10B070004FF010014FF000000FBC0BF1010BBDE8C9
:10B080001040BBF1010F08BF5FEA170722BF12F1A2
:10B09000010211F101014FF0004143F1000300F002
:10B0A000004043EA00007047F9D35708DAE746EA60
:10B0B000064613F1400F4FEA16461FDD13F1200F2D
:10B0C000DFBF16430A46002120335B42C8D0C3F1DC
:10B0D000200746EA064602FA07F74FEA164646EA0E
:10B0E0000706C3F1200722FA03F201FA07F721FA53
:10B0F00003F14FF0000342EA0702B1E746EA020615
:10B1000046EA06464FEA164646EA0106BCBF46EA4C
:10B110000646360C4FF000034FF000024FF00001DE
:10B120009EE72DE9C048934630B491E8380007C83F
:10B1300031EA400C48BF34EA430C03D5FFF7F2FD77
:10B14000FFF78CFFF0BCBDE800882DE9C0489346AE
:10B1500030B491E8380007C810F0804F08BF13F0F2
:10B16000804F03D100F005F8FFF778FFF0BCBDE891
:10B17000008820F07F4780EA030023F07F4C07EB34
:10B180000C03A3F57C5300F00040A3F1FE0392F002
:10B19000000F00F0B38095F0000F00F077802DE9EC
:10B1A00001494FEA11404FEA144621EA004800FBEA
:10B1B00006FC24EA064708FB06F607FB08F800FB36
:10B1C00007F718EB06484CEB164C4FEA124B18EBFE
:10B1D00007484FEA15464CEB174022EA0B4E0BFB93
:10B1E00006FC25EA06470EFB06F607FB0EFE0BFBE8
:10B1F00007F71EEB064E4CEB164C4FF000061EEB0D
:10B20000074E4CEB174B18EB0B0840F1000018EB06
:10B210000E0B58EB000840F100008F1A4FF00001B0
:10B220003CBFC943661B14BFB5EB040C00213CBFF7
:10B23000C943F61B4FEA17444EEA8E0E27EA04452F
:10B240004FEA1C4704FB07622CEA074C05FB07F793
:10B250000CFB05F604FB0CFC16EB074642EB174211
:10B2600016EB0C4642EB1C421BEB060658EB0202A7
:10B27000414146EA9E0601D5BDE80189B619524111
:10B2800041EB0101A3F10103BDE801894FEA144537
:10B290004FEA114724EA054621EA074C05FB07F46B
:10B2A00006FB07F70CFB06F105FB0CFC11EB074155
:10B2B00044EB17444FEA124711EB0C4144EB1C449A
:10B2C00022EA074C05FB07F206FB07F70CFB06F624
:10B2D00005FB0CFC16EB074642EB174216EB0C463F
:10B2E00042EB1C456A1854F1000148BF7047B6197B
:10B2F000524141EB0101A3F10103704795F0000FAA
:10B3000037D04FEA11424FEA144721EA024624EAB5
:10B31000074C02FB07F106FB07F70CFB06F402FBE8
:10B320000CFC14EB074441EB17414FEA154714EBB3
:10B330000C4441EB1C4125EA074C02FB07F506FBD8
:10B3400007F70CFB06F602FB0CFC16EB074645EB79
:10B35000174516EB0C4645EB1C42121951F1000142
:10B3600048BF7047B619524141EB0101A3F10103F7
:10B3700070474FEA14454FEA114724EA054621EA8F
:10B38000074C05FB07F106FB07F70CFB06F24FF035
:10B39000000605FB0CFC12EB074241EB174112EBD8
:10B3A0000C4251EB1C4148BF7047921841EB010120
:10B3B000A3F101037047490050EAC12018BF0420DF
:10B3C0004A0D18BF40F0010040F2FF72B2EB515F2E
:10B3D00008BF40F00200012808BF05207047410067
:10B3E000080218BF04200A0E18BF40F001004FF0F9
:10B3F0007F4232EA010108BF40F00200012808BF85
:10B400000520704701464FF07F40B0EB410F01D15E
:10B41000012070470020FCE7014621F00040C0F108
:10B42000FF40C00F70472DE9F0414F1E00EBC701F0
:10B430000446D1E9000115461E4637F006020DD03C
:10B440002A46334601F0FCFE7F1E04EBC703D3E916
:10B45000002301F04BFC37F00602F1D1022F25D07A
:10B46000042F13D0062F18BFBDE8F0812A463346BB
:10B4700001F0E6FED4E90A2301F038FC2A463346FF
:10B4800001F0DEFED4E9082301F030FC2A46334601
:10B4900001F0D6FED4E9062301F028FC2A46334603
:10B4A00001F0CEFED4E9042301F020FC2A46334605
:10B4B00001F0C6FED4E9022301F018FC2A46334607
:10B4C00001F0BEFED4E90023BDE8F04101F00EBC5E
:10B4D000024A0020110702F08EBE000001FDFFFFAE
:10B4E0006FF05E01080702F0B4BE00002DE9F04DD8
:10B4F0000E4614464FF07F41B1EB440F9EBF4FF014
:10B50000FF313160BDE8F08D4FF0004040EA04218A
:10B51000C4F3C7507838431100F01F00DFF814C19E
:10B52000C0F12002FC445CF823500CEB83038540FF
:10B53000D3F804C02CFA02F72F439D680CFA00FCE4
:10B5400025FA02F8DB6805FA00F023FA02F240EA75
:10B5500002054CEA080CA7FB0132ACFB01C0A5FBBD
:10B56000015101EB0C058D4234BF4FF0010C4FF03F
:10B57000000CC1186144BCF1000F02D0814202D915
:10B5800003E0814201D2012000E00020104400F1DC
:10B5900020024FEA92188006CA0C40EA42304F035C
:10B5A000C6F8008002F02EFB8246384602F072FB9D
:10B5B0006FF0120102F04DFE0746284602F06AFBCA
:10B5C0006FF0250102F045FE83463946504602F0F1
:10B5D00073F9594602F070F900F500656FF30B0539
:10B5E0005146284602F05EFD394602F05BFD5946A1
:10B5F00002F0C6FC104902F095FB07460F492846A9
:10B6000002F090FB394602F057F907460C492846EC
:10B6100002F088FB394602F04FF914F0004F08BFE2
:10B62000BDE8F08DC8F1805180F000403160BDE888
:10B63000F08D0000A02F0000DB0FC92F22AAFD29EA
:10B640000000C92F30380A2801D20120704700209D
:10B65000704700002DE9F04104464FF00E4000EB2A
:10B660004400B0F1506F204655D84FF0FC41B1EB8B
:10B67000440F1CD224F000404FF07E5102F080FCB9
:10B680004FF0FF3102F0E5FD074601F015FA14F026
:10B69000004F1DBF304E314D80F00040304E08BF8E
:10B6A000304D4FF0404102F03DFB044605E00026DE
:10B6B0003546014602F036FB07462B49384602F074
:10B6C00031FB2A4902F0F8F8394602F02BFB2849F1
:10B6D00002F0F2F8394602F025FB264902F0ECF8B8
:10B6E000394602F01FFB244902F0E6F8804639464D
:10B6F000204602F017FB414602F014FB074629469C
:10B70000204602F0D9F8394602F0D6F83146BDE8B5
:10B71000F04102F0D1B84FF0E441B1EB440F08D949
:10B72000FFF75DFE042808BFFFF7DAFE2046BDE8FC
:10B73000F0814FF07F41B1EB440F04D2BDE8F041FE
:10B74000012102F086BD0120FEF778FEBDE8F04140
:10B750000021084602F024B90000C9BF22AAFDB9A1
:10B760000000C93F22AAFD3924FE1C3DC78AD83CEF
:10B770001E67383D1B93993DAFAA2A3E2DE9F84F2D
:10B7800004460D4621F0004000917449814213DCCB
:10B790007349884201DC08D13CB120462946BDE806
:10B7A000F84F4FF0010202F026BD6E48002DCCBFCD
:10B7B0006D496E49BDE8F88F6D49814211DD6D49D3
:10B7C0008142D8BF4FF0FF366DDD20462946FFF796
:10B7D000F2FD042808BFFFF77BFE20462946BDE89E
:10B7E000F88F6549654F25F00045814233DD644996
:10B7F000814219DD002632464FF08043204629461B
:10B8000001F074FA80468A4601222046294602F059
:10B81000F2FC00223B4601F039FF4246534601F05C
:10B8200021FB04460D463EE001260022BA463B4677
:10B830002046294601F05AFA80460F460022534618
:10B840002046294601F022FF42463B4601F00AFB12
:10B8500004460D4627E04B4981421BDDDFF8288175
:10B860000226002243462046294601F0E9FC002238
:10B870003B4601F03BFA07468A46002243462046F3
:10B88000294601F003FF3A46534601F0EBFA04461D
:10B890000D4608E0032622462B4600203B4901F0D6
:10B8A000E1FA04460D4622462B461046194601F0A1
:10B8B000C7FC8B46824602460B4601F0C1FC074698
:10B8C0000246334888460B4606217844FFF7ABFD15
:10B8D00052465B4601F0B4FC82462E488B463A46FF
:10B8E000434605217844FFF79EFD3A46434601F062
:10B8F000A7FC02460B46002E504659460CDA01F0D2
:10B90000F5F922462B4601F09BFC01B022462B465E
:10B91000BDE8F04F01F0C8BD01F0E8F922462B4622
:10B9200001F08EFC1C4A7A4402EBC603D3E90023E3
:10B9300001F0ACFE22462B4601F0A8FE174A7A44DD
:10B9400002EBC603D3E9002301F0AEFD009A002A02
:10B95000B8BF81F00041BDE8F88F0000000010443E
:10B960000000F07F182D4454FB21F93FFB21F9BF63
:10B970000000DC3F0000203E0000F33F0000F03FED
:10B980000000E63F008003400000F83F0000F0BFE9
:10B99000C22B0000802B00001E2B0000E62A0000B6
:10B9A0002DE9F04D9446CCF1000423F000464CEA1A
:10B9B0000404524F46EAD4749A46884621F0004265
:10B9C000BC4206D8454240EA050442EAD474BC426F
:10B9D00004D9BDE8F04D624601F088B9AAF140559E
:10B9E000A5F17F6555EA0C040BD0022404EAAA7481
:10B9F000434DDFF810E144EAD87452EA000B04D05A
:10BA00000CE0BDE8F04DFFF7B9BE002C14BF012CCF
:10BA1000BDE8F08D022C30D0032C32D056EA0C0B4E
:10BA20000AD0BE4220D1BA4209D126F0804622F087
:10BA300080423346114617E000291ADB25E0DFF883
:10BA4000C8B0FB44002C04BFDBE90001BDE8F08D69
:10BA5000012C02BFDBE9000181F00041BDE8F08D5F
:10BA6000022C0AD0032C0CD0BA4212D1B8F1000F2C
:10BA70000BDA23482549BDE8F08D28462449BDE866
:10BA8000F08D28467146BDE8F08D1D482149BDE87E
:10BA9000F08D921B12153C2AC4BF19481D490EDCBB
:10BAA000BAF1000FBEBF12F13C0F0020014606DBC9
:10BAB000624601F0D7F921F00041FFF75FFE002C4C
:10BAC00008BFBDE8F08D012C04BF81F00041BDE846
:10BAD000F08D114A114B022C07D001F0D7FD2A46F8
:10BAE000BDE8F04D0A4B01F0D1BD01F0CFFD2A4673
:10BAF000BDE8F04D064B01F0D7BC00000000F07F20
:10BB0000182D4454FB2109C07A2A0000FB21F9BFFB
:10BB1000FB210940FB21F93F075C143326A6A13C19
:10BB20002DE9F0474FF0684202EB40030C46054612
:10BB3000B3F1654F3CBF02EB4102B2F1654F7CD2DD
:10BB4000C0F3C753C1F3C7529A1A1B2A06DD10F07F
:10BB5000004F14BF76487748BDE8F08712F11A0FFE
:10BB600017DA11F0004F06D010F0004F0CBF7248EA
:10BB70007248BDE8F0872146284601F011FF0446CF
:10BB8000FFF72DFC042808BFFFF7AAFC2046BDE8FC
:10BB9000F0874200B2EB410F25D910F0004F19BFDA
:10BBA000674F684E684F694E224685F0004415463F
:10BBB0000A4680F0004110460A1A5200B2F1807F16
:10BBC00040D248406249DFF88CA110F0004F18D0F5
:10BBD0004FF03F48384602F065FA07465146304676
:10BBE00002F060FA17E011F0004F04BF002637465C
:10BBF000E2D010F0004F19BF574F584E584F594ED2
:10BC0000DAE74FF07C58384601F056FE07465146B9
:10BC1000304601F051FE06464146284602F082F8C1
:10BC2000214601F049FE82462146404602F07AF85C
:10BC3000294602F0A5F9514600E037E001F0B0FED8
:10BC4000044604E02146284601F0AAFE04460146C7
:10BC500002F068F88046444902F064F8434901F074
:10BC60002BFE414602F05EF8414901F025FE4146B7
:10BC700002F058F83F4901F01FFE414602F052F829
:10BC80003D4901F019FE05464146204602F04AF8BA
:10BC9000294602F047F8314601F00EFE214601F038
:10BCA0000BFE3946BDE8F04701F006BE4FF07F427B
:10BCB000B2EB400F28BFB2EB410F03D2BDE8F04713
:10BCC00001F0FABD40EA01035B0008BF44F0FF4108
:10BCD0000AD0B2EB400F08BFB2EB410F06D125F0FE
:10BCE000804024F0804105460C4629E7B2EB400F26
:10BCF00012BF5FEA410245F0FF4004F000413FF40B
:10BD00001FAF4A0092EA40033FF51AAF002AACBFCA
:10BD10004FF09F464FF03E56314602F003F805467D
:10BD20003146204601F0FEFF04462846214607E73B
:10BD3000DB0FC9BFDB0FC93FDB0F4940DB0F49C039
:10BD40000000C9BF22AAFDB90000C93F22AAFD39DF
:10BD50000060ED3EC30ACE37000049C022AA7DBA7A
:10BD60000000494022AA7D3A2DAD65BD8FB8D53D72
:10BD70000FB511BE61C84C3EA8AAAABE2DE9F84372
:10BD80000446024651486946B0EB420F09D94FF0CC
:10BD9000E640B0EB420F94BF00204FF0FF30009020
:10BDA00030E04B4B22F00040834271D94949204694
:10BDB00001F0B8FF02F0B4F8804601F0E7FE00F0B1
:10BDC000030000904449404601F0ACFF054643495A
:10BDD000404601F0A7FF06464149404601F0A2FF58
:10BDE00007464049404601F09DFF214602F0C8F851
:10BDF000394602F057F9314602F054F9294602F06B
:10BE000051F904462546009C002C45DB294614F0D8
:10BE1000010F08461CD001F085FF0646324901F0AB
:10BE200081FF324902F0ACF8314601F07BFF304926
:10BE300001F042FD314601F075FF294601F072FF25
:10BE4000294601F039FD14F0020F1CD0BDE8F8833B
:10BE500001F068FF0546274901F064FF264901F01B
:10BE60002BFD294601F05EFF244901F025FD2946FE
:10BE700001F058FF4FF07E5101F01EFD14F0020F4B
:10BE800008BFBDE8F88380F00040BDE8F883FFE715
:10BE90001046FFF72BFBB4E76800B0F17F4F3CBFC3
:10BEA0004FF07E50BDE8F88309D14FF00100FEF756
:10BEB000C5FABDE8F8430021084601F071BD2846E7
:10BEC000BDE8F843012102F0C4B90000B61F927E1C
:10BED000490E494683F9223F1A61342C0020A233CF
:10BEE00000A0FD390000C93F336D4C39DA82083CAF
:10BEF000A0AA2ABEB93AB2BACA9F2A3DDDFFFFBE48
:10BF00002DE9F04D16460F460546020094B01C463A
:10BF100021F0004123F0004014BF4FF0010C4FF01E
:10BF2000000C0CEB470CFE4B0CEB03084FEA630CC8
:10BF3000E0452DD35FEA060818BF4FF0010808EB73
:10BF400044089844F74B984522D3F74B50EA060C27
:10BF500002D09F4205D14AB914B000201946BDE86D
:10BF6000F08D002A08BF4FF0000C01D04FF0010CFB
:10BF70000CEB470313F5001F0AD8002E14BF4FF037
:10BF8000010C4FF0000C0CEB440313F5001F08D913
:10BF900014B03246234628463946BDE8F04D00F03D
:10BFA000A5BEDFF888B34FF0000A002FB8BF584590
:10BFB00023DADF4B9842A8BF4FF0020A1DDADA4BB2
:10BFC00083421ADCDB4B03EB2053142B08DDC3F157
:10BFD000340C26FA0CF303FA0CFCB4450DD108E03E
:10BFE0005EB9C3F1140C20FA0CF303FA0CFC84457F
:10BFF00003D103F00103C3F1020A51EA020321D184
:10C00000002C1FDA002F18BFBAF1020F02D0BAF1CC
:10C01000010F0BD00220FEF711FA14B00022BDE888
:10C02000F04D13461046C04900F01CBF0220FEF739
:10C0300005FA14B02A463B46BDE8F04D0020BA4947
:10C0400000F010BF33006DD1584525D107F1804075
:10C0500010F5801001BF002A0020B34914B008BFBA
:10C06000BDE8F08DB048884207DC002CA1BF18461F
:10C07000214614B0BDE8F08D07E0002CBFBF184684
:10C0800084F0004114B0BDE8F08DAB497944D1E9AA
:10C09000000114B0BDE8F08DDFF88CC2604526D1F8
:10C0A000002C1FDA19B1594513D1DAB90AE0002A78
:10C0B00040F0DA829D4A394614B0002062F31E0136
:10C0C000BDE8F08D0020394614B060F31E01BDE8D4
:10C0D000F08D07DA14B03B46BDE8F04D0020614614
:10C0E00000F0C0BE14B010463946BDE8F08D594589
:10C0F00018DAB4F1804F0DD0A4F10053B3F1FF531F
:10C1000010D13B1E0EDB14B01046BDE8F04D1946B1
:10C1100000F0ACBC3B4614B01046BDE8F04D1946EB
:10C1200001F08EB827F00043A2BBE1B1594538D1E8
:10C13000002F06DD002CA1BF0020594614B0BDE839
:10C14000F08D002F01DD002C1FDB002F16DA002CF4
:10C1500014DBBAF1010F4FF0000014BF73497749A7
:10C1600014B0BDE8F08DBAF1020F18BF002F0CD04B
:10C17000BAF1010F09D1002F07DA0CE0002FB8BF88
:10C18000002C0EDABAF1010F05D0002014B00146E0
:10C19000BDE8F08D05E014B000204FF00041BDE88F
:10C1A000F08D4FF0010C0CEBE7720D9252EA0A028F
:10C1B0000BD0634A90427DDD624B634A984216DDA4
:10C1C0008A420EDB002C1CDB2CE00120FEF736F946
:10C1D00014B00022BDE8F04D13461046114600F0A1
:10C1E00041BE5148884202DC002C0ADC1AE0914230
:10C1F00002DA002C16DA04E04B4B99421EDD002CCB
:10C2000010DD0220FEF71AF940F2013200204FF053
:10C21000E04101F0F0FF454A14B061F31E021146FF
:10C22000BDE8F08D0220FEF709F9FFF751F93E4A0B
:10C2300014B061F31E021146BDE8F08D00222846BD
:10C24000394601F023FA054688466FF0010201F0F5
:10C25000D2FF4FF055323D4B01F026F92A464346B6
:10C2600000F0EEFF00223A4B01F01EF907468B4624
:10C270002A4643461046194600F0E2FF3A465B461E
:10C2800000F0DEFF09910C904FF0C042314B284680
:10C29000414600F0D5FF07468B462F4A2D4B0999A2
:10C2A0000C9800F0CDFFCDE901102C4A2C4B28460C
:10C2B000414600E019E000F0C3FFDDE9013201F082
:10C2C000E5F93A465B460591089000F00FFD002520
:10C2D00088463A465B46284601F0D8F9059B089AFD
:10C2E00001F0E2F8024600F076B90020B1F5801FB7
:10C2F00007DA35222846194601F07DFF05466FF022
:10C30000340000EB2150A0F2FF300190C1F3130084
:10C3100040F07F6141F0405102911249884223E090
:10C32000FFFF1F00FFFF0F000000F03F0000F07F45
:10C330000000404301FCFFFF302400000000F0FF3C
:10C340000000E0410000F043FFFFEF3F5555D53FAF
:10C350000000E03F4715F73FFE822B6544DF5DF8A4
:10C360000BAE543E8E980300D8BF4FF0000B0EDD8D
:10C37000FE498142C8BF4FF0010B08DC01984FF025
:10C38000000B401C01900298A0F580100290F84824
:10C390000299784400EBCB000B911090D0E9002378
:10C3A000284601F073F9009010980791D0E9002316
:10C3B00028460B9900F09AFC02460B460020ED49F6
:10C3C00000F050FD05910B46024608900799009831
:10C3D00000F036FF0690E848884600277844029926
:10C3E00000680E904FF0005040EA610000EB8B4077
:10C3F00000F5002110980291D0E900230E9801F079
:10C4000045F92A460B9B01F04FF83A46434600F0A7
:10C4100017FF05460B9138464146029B0E9A00F0E5
:10C420000FFF079B009A01F03FF82A460B9B01F093
:10C430002DF9059B089A00F003FF0B911090069AC6
:10C4400043461046194600F0FBFE05460246CB481F
:10C450000B46009106217844FEF7E5FF009B2A4633
:10C46000029108901046194600F0EAFE029B089AD5
:10C4700000F0E6FE05460591434638461946069A01
:10C4800000F034FC0B9B109A00F0DAFE2A46059B64
:10C4900000F02CFC3A464346059108901046194698
:10C4A00000F0CEFE0022B64B00910C9000F01EFC76
:10C4B000059B089A00F01AFC0D463A46B04B3846E8
:10C4C00001F0E4F8009B0C9A01F0E0F8059B089A53
:10C4D00000F0EAFF11913A460C902B461046414677
:10C4E00000F0AEFE079100904346069A11990C9811
:10C4F00000F0A6FE804603912B463A460B99109811
:10C5000000F09EFE4246039B00F0F0FB0591804642
:10C510000B4602460799009800F0E8FB00200F4602
:10C520000546079B009A01F0B1F84246059B00F0D2
:10C53000BBFF804609914FF06042924B2846394636
:10C5400000F07EFE009102908F4A8E4B4046099982
:10C5500000F076FE804603918C4A8D4B2846394682
:10C5600000F06EFE4246039B00F0C0FB894A7A440D
:10C5700002EBCB03D3E9002300F0B8FB0690039154
:10C58000019800F0F6FD0746DDE902030591069AE1
:10C59000009900F0ABFB804A7A4402EBCB0BDBE95D
:10C5A000002300F0A3FB3A46059B00F09FFB00250B
:10C5B00088463A462846059B01F068F8DBE90023E7
:10C5C00001F064F8009B029A01F060F8039B069A60
:10C5D00000F06AFF0246002006900D98654FAAF110
:10C5E0000103184301D16D4F069000200B460090C7
:10C5F0003046214600F024FE82468B4623463046D4
:10C600001946009A01F042F82A46434600F018FE07
:10C6100052465B4600F06AFB06468A462A46434677
:10C620002146009800F00CFE04460D463246534663
:10C6300000F05CFB5A4A8B46914226DBABEB0203CF
:10C6400053EA000210D122462B4601F01FF8804623
:10C650000591544A544B3046514600F047FB424640
:10C66000059B00F0EBFE30D20220FDF7E7FE40F222
:10C67000013200204FF0E04101F0BDFD0A4639468D
:10C6800014B062F31E01BDE8F08D484B2BF0004260
:10C690009A421AD3464A0BEB020353EA000208D12E
:10C6A00022462B4600F0F2FF3246534600F0C6FE0B
:10C6B0000BD80220FDF7C2FEFEF70AFF0A463946F4
:10C6C00014B062F31E01BDE8F08D2BF00040394933
:10C6D000394A01EB20514FF00008824223DA481C0E
:10C6E0004FF4801121FA00F05844344AC0F30A5143
:10C6F0007A44334BA1F2FF31CB4020EA0303C0F36D
:10C70000130040F4801CC1F1140012682CFA00F8E8
:10C71000BBF1000FB8BFC8F100082046294600F061
:10C72000B5FF04460D4622462B463046514600F0E2
:10C73000DDFA4FF0000B5A46224B5846059100F0A7
:10C740007FFD00900791204A204B5846059900F044
:10C7500077FD0491029022462B465846059900F039
:10C7600095FF3246534600F09FFE31E07AB60B004B
:10C770000A2000000000F03FE0200000761F0000CB
:10C780000000084009C7EE3FFD033ADCF5015B14E9
:10C79000E02F3EBE4E1E0000141E00000000F0BF41
:10C7A00000009040FE822B654715973C00CC9040DE
:10C7B00000346F3F01FCFFFF0000E03FCC1D000094
:10C7C000FFFF0F00432EE63F396CA80C615C20BED2
:10C7D0003F4A404B00F034FD049B029A00F086FA79
:10C7E00006468A46079B009A00F080FA04460D46EA
:10C7F000079B009A00F04AFF3246534600F054FE71
:10C80000064622462B4609911046194600F018FDAF
:10C810008346024630488A460B4605217844FEF797
:10C8200002FE5A46534600F00BFD22462B4600F00E
:10C830003BFE82468B46324620462946099B00F045
:10C84000FFFC3246099B00F051FA05910890002246
:10C850004FF080435046594600F018FF06460091BD
:10C8600052465B462046294600F0EAFC3246009BD1
:10C8700000F0F8FA059B089A00F008FF22462B46C4
:10C8800000F004FF0022154B00F00EFE0D4604469A
:10C8900001EB08510815002810DC424620462946C5
:10C8A00001F0A9FCFEF787FD042808BFFEF710FE83
:10C8B00042462046294601F09EFC044606980B4657
:10C8C00014B022463946BDE8F04D00F0B9BC000076
:10C8D000EF39FAFE422EE63FE01B00000000F03F79
:10C8E0002DE9F8430446024653486946B0EB420F2F
:10C8F00009D94FF0E640B0EB420F94BF00204FF053
:10C90000FF30009030E04D4B22F00040834271D95F
:10C910004B49204601F006FA01F002FB804601F087
:10C9200035F900F0030000904649404601F0FAF95D
:10C9300005464549404601F0F5F90646434940465B
:10C9400001F0F0F907464249404601F0EBF9214673
:10C9500001F016FB394601F0A5FB314601F0A2FBC0
:10C96000294601F09FFB04462546009C002C45DB30
:10C97000294614F0010F08461ED001F0D3F90546F0
:10C98000344901F0CFF9344900F096FF294601F00F
:10C99000C9F9324900F090FF294601F0C3F94FF080
:10C9A0007E5100F089FF14F0020F08BFBDE8F88344
:10C9B00080F00040BDE8F88301F0B4F9064628494C
:10C9C00001F0B0F9274901F0DBFA314601F0AAF98C
:10C9D000254900F071FF314601F0A4F9294601F024
:10C9E000A1F9294600F068FF14F0020FE0D1BDE87C
:10C9F000F883FFE71046FEF779FDB4E76800B0F171
:10CA00007F4F09D22846FEF7EAFC042808BFFEF74C
:10CA100067FD2846BDE8F88308D10120FDF70EFD2B
:10CA2000BDE8F8430021084600F0BABF2846BDE83B
:10CA3000F843012101F00DBCB61F927E490E494614
:10CA400083F9223F1A61342C0020A23300A0FD3963
:10CA50000000C93FB93AB2BACA9F2A3DDDFFFFBE06
:10CA6000336D4C39DA82083CA0AA2ABE2DE9F04188
:10CA700006460F4600F024FD04000D4618BF0120B5
:10CA8000284320F00040C0F17F6000F1E040C00F7B
:10CA90000ED0301C18BF0120384320F00040C0F1F8
:10CAA0007F6000F1E040C00F04BF0120FDF7C6FC2D
:10CAB00020462946BDE8F08170B5054601F06AFAC6
:10CAC000044620F00040C0F1FF40C00F08D025F020
:10CAD0000040C0F1FF40C00F04BF0120FDF7AEFCD5
:10CAE000204670BD2DE9F843044602464D4869468C
:10CAF000B0EB420F09D94FF0E640B0EB420F94BFC4
:10CB000000204FF0FF30009030E0474B22F0004013
:10CB1000834265D94549204601F004F901F000FA45
:10CB2000804601F033F800F0030000904049404691
:10CB300001F0F8F805463F49404601F0F3F8064693
:10CB40003D49404601F0EEF807463C49404601F0B9
:10CB5000E9F8214601F014FA394601F0A3FA31460A
:10CB600001F0A0FA294601F09DFA0446009D002D2F
:10CB70003ADB2146084601F0D5F80646304901F077
:10CB8000D1F8304900F098FE314601F0CBF82E493B
:10CB900000F092FE314601F0C5F82C4900F08CFE01
:10CBA000314601F0BFF82A4900F086FE314601F017
:10CBB000B9F8284900F080FE314601F0B3F821466B
:10CBC00001F0B0F8214600F077FE15F0010F08BF24
:10CBD000BDE8F8830146BDE8F8431F4800F0E0BE19
:10CBE0001046FEF783FCC0E76000B0F17F4F09D22A
:10CBF0002046FEF7F4FB042808BFFEF771FC204630
:10CC0000BDE8F88308D10120FDF718FCBDE8F84322
:10CC10000021084600F0C4BE2046BDE8F8430121CB
:10CC200001F017BBB61F927E490E494683F9223F99
:10CC30001A61342C0020A23300A0FD390000C93F46
:10CC4000BBE9223C0C6D063B8A76CE3CACB5593D27
:10CC500035A1083E29AAAA3E000080BF10B50029D0
:10CC60000AD00878002807D005487844FDF7A8FFC7
:10CC7000002801D0002010BD0248784410BD0000FB
:10CC80004A1C0000421C000021F00042A2F1605248
:10CC9000B2F5801F01F0004328BFD2F17F6C0BD9A1
:10CCA0005FEA001C43EAC20242EB507018BF7047B3
:10CCB00028BF20F001007047B2F5801FBCBF1846A6
:10CCC00070474FEA410C1CF5001F02D2084601F0E4
:10CCD000F0B870B500F05EFB00000089FFF7F6BF0A
:10CCE0004FF00040A0F580007047000010B591EAB9
:10CCF000030F48BF83F0004300F1D084841A71EB26
:10CD0000030C05D2121943EB0C03001B61EB0C0161
:10CD1000DFF824E14FEA1154A4EB135C1EEA430F41
:10CD200018BF9EEA445F73D023EA0E03DCF1200EA5
:10CD300021EA045143F4801332D322FA0CFE10EBA3
:10CD40000E0023FA0CFE41EB0E01CCF1200E03FA8B
:10CD50000EFE10EB0E0051F10001B1F5801FCCF179
:10CD6000200E32D201EB045112FA0EF2BDE810404F
:10CD700058BF7047401C38BF5FEA420218BF704777
:10CD8000002814BF20F0010041F100014FEA4103E7
:10CD900013F5001F38BF7047A1F1C04100F048BB38
:10CDA000012A43EB0302ACF1200CDCF11F0E32BF71
:10CDB0004FF0000E23FA0CF310EB030041EB04518B
:10CDC000B4EB115FD0D0A1EB045101F580114908FB
:10CDD0005FEA300001EB04510ED350F1000038BF80
:10CDE00012FA0EFE08D1BDE81040C9E7401C38BF5A
:10CDF0005FEA4202CAD1C3E7BDE810404FEA4103EF
:10CE000013F5001F38BF7047A1F1C04100F010BBFF
:10CE10009EEA445F08D011EA5E0FBDE8104004BFEF
:10CE200001F0004100207047BDE8104070B500F0EF
:10CE3000B1FA00BF64FBBE3E0000E0FF02494FF0C4
:10CE4000000001F0A6B900BF0000F87F491058BFEC
:10CE5000C1F140415B1058BFC3F140438B42EFF337
:10CE6000008070472DE9C04130B4DFF8A0C23CEA31
:10CE7000111418BF3CEA131400F0EC8081EA03059A
:10CE80001CEA111444EAD57418BF1CEA131500F00B
:10CE9000C780A4EB05044FF0004545EAC12145EAEF
:10CEA000C32341EA505143EA525304F17F7499423B
:10CEB00004F500344FEAC0204FEAC22208BF904276
:10CEC00000F09C804FEA13650FF24016765D4FEA42
:10CED000134506FB05F7C7F1807706FB07F74FEA16
:10CEE000D737A7FB03687642C8F58038A7FB06CE84
:10CEF00038BFA8F1010807FB08E64FF0000EA6FBBB
:10CF0000028CE6FB03CEDCF1000CCEF1004E38BF04
:10CF1000AEF1010EA6FB0C584FF000074FF00005D4
:10CF2000E6FB0E87A1FB08C6A0FB07CE16EB0E069C
:10CF300045F10005E1FB076515F1E04E7EBFA4F564
:10CF400080345FEA46066D4116F1800745F1000521
:10CF50004FEA17274FEA066647EA0567A6F1DE465D
:10CF6000B6F1805F4FEA15251FD9384624F0010C31
:10CF700005EBC471BCF1FE6F01EB0C1102D8F0BCE3
:10CF8000BDE8008124425CBF01F5801E9EEAC47F9B
:10CF900002D4F0BCBDE80081244238D4F0BCA1F139
:10CFA000C041BDE8004100F043BA4FEAD22242EA54
:10CFB00043524FEAD323A7FB02864FEAD02040EA30
:10CFC000415007FB03661EEA0E0F4FEAD12105FB15
:10CFD000026658BFA6EB0056B6EB00564FEA520E5B
:10CFE0004EEAC37E18EB0E0E56EB530EBDD518EB72
:10CFF00002085E417F1C55F10005B6E74FF480152D
:10D000004FF000074FF000064FF00008ADE7F0BC0E
:10D010004FF0000001F1C04101F00041BDE8008186
:10D0200011EA0C1F0CEA131500D00CE013EA0C1FD8
:10D0300000F025804FF00000F0BC81EA030101F010
:10D040000041BDE80081F0BC81EA0301BDE8004178
:10D0500000F0EEB9F0BCBDE8004170B500F09AF9FF
:10D06000097EFC3E00F007B881EA03014FF00000A2
:10D0700001F00041704781EA030100F0D9B9F0BC2A
:10D080004FF000002249BDE800417047FFFDFBF969
:10D09000F7F5F4F2F0EEEDEBE9E8E6E4E3E1E0DEEB
:10D0A000DDDBDAD8D7D5D4D3D1D0CFCDCCCBCAC85D
:10D0B000C7C6C5C4C2C1C0BFBEBDBCBBBAB9B8B784
:10D0C000B6B5B4B3B2B1B0AFAEADACABAAA9A8A877
:10D0D000A7A6A5A4A3A3A2A1A09F9F9E9D9C9C9B45
:10D0E0009A999998979796959594939392919190F0
:10D0F0008F8F8E8E8D8C8C8B8B8A89898888878781
:10D100008685858484838382828181800000FF07F5
:10D110000000F87F4FEA41034FEA5353A3F58063C1
:10D12000D3F11E03C8BFD3F1210C0CDD4FF0004238
:10D1300042EAC12242EA505232FA03FC8CEAE17C14
:10D14000ACEBE1707047102BC4BF0020704703F5B3
:10D15000787CBCF1FF3F04D06FF0004282EA2100EE
:10D16000704770B500F016F949922480002070478E
:10D17000F2E710F0004248BF4042B0FA80F310FAE4
:10D1800003F10AD0C3F11D0303F580634FEA415058
:10D1900002EB035202EBD12170474FF000007047C1
:10D1A000B0FA80F310FA03F10AD0C3F11D0303F5BE
:10D1B00080634FEA41504FEA035202EBD12170479E
:10D1C0004FF000007047000051EA030C17D41CF523
:10D1D000801F58BFBCF5801F00F10680994218BF20
:10D1E000704708BF9042704707D711F5801F58BF9E
:10D1F00013F5801F19D499427047894270471CF576
:10D20000801F08D5BCF5801FF7D58B4218BF70472B
:10D2100008BF824270474FF4001C1CEB410F38BF1F
:10D220001CEB430F01D28B42704770B500F0B2F88F
:10D23000922449004FF000514FF08053FFF706BE93
:10D24000DFF848C170B51CEA111E1EBF1CEA131599
:10D250009EEA0C0F95EA0C0F00F06F8081EA030440
:10D2600023EA4C134EEAD47E21EA4C1141F480119A
:10D2700043F48013AE44A1FB024CA0FB0365AEF166
:10D280007F7E361955EB0C05A1FB034C4CF10003D6
:10D29000A0FB021C16EB0C06654153F1000309428A
:10D2A00018BF46F0010613F4007F0BD14FEA03319B
:10D2B0004FEA0530340341EA155140EA16506FF049
:10D2C00003020AE04FEAC3214FEAC520F40241EA13
:10D2D000555140EA56506FF0020202EB2E4201EB2C
:10D2E000025585EACE710AD05FEA440C18BF24F0DB
:10D2F000004450F1000041F1000120EAD47040F2F6
:10D30000FE7C624500D270BDA84214BF4FF080443D
:10D310004FF04044002E08BF0024BEF1806FA8BF2C
:10D32000A1F1C041BDE8704080F282804FF0000062
:10D3300001F1C04101F0004170479EEA0C0F0CEA78
:10D34000131518BF95EA0C0F06D04FF0000081EAC4
:10D35000030E0EF0004170BD00F01CF88900013E84
:10D3600000F007B800F009B84FEA430C5FEA5C5CD4
:10D3700008D081EA030100F05BB84FEA410C5FEA94
:10D380005C5CF6D14FF00000014970470000FF07D8
:10D390000000F87F0EF1020E2EF0030E5EF8046B13
:10D3A000364205D4012A43EB030515F5001F12D8B8
:10D3B000012841EB010C1CF5001F0CD80ED14FEADF
:10D3C000D17C15F5001F0CEB4C0C0CF1020C08BFC6
:10D3D0004CEBD37C04E04FF0080C01E04FEAD37C27
:10D3E0000CEB4C0526FA05F606F00706B6F1040C20
:10D3F00006D20EEB860CBDE870404CF0010C604785
:10D40000DFE80CF0090B02024FF000414FF0000082
:10D41000A1F5002170BD19461046012851EB010409
:10D4200018BFD4F5001484BF002001F0004170BD86
:10D430000808A0F500114FEA3101704753EA010CCA
:10D4400017D41CF5801F58BFBCF5801F00F1068063
:10D450008B4218BF704708BF8242704707D713F549
:10D46000801F58BF11F5801F19D48B4270479B4213
:10D4700070471CF5801F08D5BCF5801FF7D5994271
:10D4800018BF704708BF904270474FF4001C1CEB58
:10D49000430F38BF1CEB410F01D2994270470FB4C4
:10D4A0000CBC03BCFFF7C1BE91EA030F10B581F0BD
:10D4B00000413FF523AC83F0004300F0EFB80000DB
:10D4C0002DE9F04101F5801CBCF5001FC0F2C380BE
:10D4D0004FEA115C21EA0C510CF1FD0C41F4801172
:10D4E0005FEA5C0C0CF5C07C01D3400049413DA4CF
:10D4F000890241EA905187028E0E0A0CA45D04FB5A
:10D5000004F602FB06F6C6F14046A4FB0662F60DE1
:10D5100046EA422606FB06F4A4FB01235242C3F16D
:10D52000404338BF5B1EA6FB02420024E6FB0324F7
:10D53000D20B42EA4446A6FB0623A1FB02E2A3FB70
:10D5400007E4A4184FF0000252F10002E3FB01428D
:10D550006442C2F1404E38BFAEF1010EA6FB042377
:10D560004FF00002E6FB0E32A2FB03464FF0000430
:10D57000B61954F10004E2FB0264A1FB06E6A4FB29
:10D5800007E816EB08064FF0000858F10008E4FB26
:10D5900001687642C8F1405838BFA8F10108A2FBE3
:10D5A00006E4A3FB08E52D194FF0000454F1000434
:10D5B000E2FB0854A1FB05E6A7FB04E818EB06080C
:10D5C0004FF0000656F10006E1FB048618F1200535
:10D5D00056F10006A809A8F11B08B10908F03F0898
:10D5E000B8F10A0F40EA86601CD901EB0C51BDE886
:10D5F000F08100BFFCF5EEE8E2DDD8D3CFCBC7C3A6
:10D60000C0BDB9B6B4B1AEACA9A7A5A3A19F9D9B5F
:10D610009A9896959392908F8D8C8B898887868522
:10D6200084838281A0FB006800FB01F208EB4208C2
:10D63000B8EB872807D5341858EB0104D5D5401C22
:10D6400051F10001D1E7341A78EB0104CDD4401E2A
:10D6500071F10001C9E75FEA4C0C5FEA9C5C0DD1F7
:10D6600005D34FF0000001F00041BDE8F081BDE8B6
:10D67000F04170B5FFF78EFE6DDBFFBEBDE8F041F7
:10D680004FF00000004970470000F87F10B591EAA4
:10D69000030F48BF83F000433FF530AB841A71EBB2
:10D6A000030C07D212198CF0004C43EB0C03001B47
:10D6B00061EB0C01DFF8A4E14FEA1154A4EB135C19
:10D6C0001EEA430F18BF9EEA445F00F0B08023EAD1
:10D6D0006E03524221EA0451C3EB6E0338BF5B1E56
:10D6E000DCF1200E25D322FA0CFE10EB0E0043FADB
:10D6F0000CFE41EB0E01CCF1200E03FA0EFE10EBF6
:10D700000E0051F10001CCF1200E29D412FA0EF2D4
:10D7100001EB0451BDE8104058BF7047401C1CBFCE
:10D72000B2F1004F704700280CBF491C20F00100E7
:10D73000704712EB020E43EB030218BF4FF0010ECD
:10D740004EEA4202ACF1200CDCF11E0E54D943FA31
:10D750000CFE10EB0E0051F1FF31CCF11E0ED5D5B1
:10D760000EF1010E12FA0EFE404141EB010101EBF8
:10D77000445C5FEA5C5C10D910EBDE7001EB045195
:10D7800038BFBEF1004FBDE8104018BF70470028F9
:10D790000CBF491C20F00100704730D24FEAD42C56
:10D7A00011F5001124F400641BD0B1FA81F20B3A98
:10D7B000A41AA41ED2F12003914030FA03F31943B6
:10D7C000904001EBCC71002C01EB0451BDE81040FE
:10D7D000A8BF704701F1C0414FF0000001F00041C7
:10D7E0007047B0FA80F310FA03F100D110BDE41ACB
:10D7F000173C4805C90AE4E701EB045110BD491084
:10D8000001EB0451BDE810404FEA300002E04FF058
:10D81000000170474A0008BF0042F8D0B2F5001F6F
:10D8200028BF704701F000414FF0000070479EEAAA
:10D83000445F07D011EA5E0FBDE8104004BF00212D
:10D8400000207047BDE8104070B5FFF7A3FD00BF92
:10D8500040DFF63E83F00041104670470000E0FFD5
:10D8600043004FEAD30C4FEA3C0C43401FBF400734
:10D870000CF1605113F0FE4F70471CF0006F03D1A4
:10D8800000200CF0004170470CF0004343EA507058
:10D8900010B540EACC0000F0C6FA00BF00000092CC
:10D8A0004FEA0001FFF7C4BD4FF000414FF0000008
:10D8B000A1F500217047000090EA010F48BF81F0F8
:10D8C000004100F1F683421A3CBF801A89184FEAE2
:10D8D000D0524FF07F4C1CEA410FA2EBD15318BF3E
:10D8E0009CEA026F00F03B804FF0004C4CEA0020B5
:10D8F0004CEA012121FA03FC10EB0C0C1ED202F1C0
:10D90000FF325FEA1C2040EBC25038BF70471CF06A
:10D910007F0F4FEA400C18BFBCF17F4F38BF7047F4
:10D92000C3F12003994008BF20F00100BCF17F4FF4
:10D9300038BF7047A0F1C04000F0BBBA4FEA3C00CE
:10D94000000A40EBC25028BF1CF0FF0F4FEA400C0A
:10D95000E6D018BFBCF17F4F38BF7047EAE79CEABA
:10D96000026F05D010EA5C0F08BF00F0004070475E
:10D9700010B500F058FA00BF64FBBE3E014800F04D
:10D9800008BC00BF0000C07F401058BFC0F140403D
:10D99000491058BFC1F140418142EFF30080704708
:10D9A0004FF47F0C1CEAD0121EBF1CEAD11392EA7E
:10D9B0000C0F93EA0C0F00F0858090EA010F48BF2E
:10D9C00042F4807240F4000C41F400002CF07F41DE
:10D9D00020F07F4000B58142A2EB03020FF2081C49
:10D9E000ACEB504EC0F100009EF800E04FEA4E0E46
:10D9F00000FB0EFC38BF49004FEA2C1C02F5FA026E
:10DA00000CFB0EF34FEACE1E4FEA112C4FEAC12158
:10DA10000EEB635E42EB22420EFB0CFC4FEA1C5302
:10DA200000FB03114FEA112C4FEA01310EFB0CFCF5
:10DA30004FEADC4C00FB0C11C14228BF09184CEB2B
:10DA400003335DF804EB10EB410143EBC250B2F538
:10DA50007C0F38BF704729D512F0F00F1CBF00F1C2
:10DA6000C04000F000407047008182838485868733
:10DA700088898B8C8D8E8F919293959697999A9C8D
:10DA80009D9FA0A2A3A5A7A8AAACAEB0B2B3B5B7FC
:10DA9000B9BCBEC0C2C5C7C9CCCED1D4D7D9DCDFD2
:10DAA000E2E6E9ECF0F3F7FAFE0000004FEA400C82
:10DAB0000CF1807CBCF17E4F28BF7047B0F1C040B4
:10DAC00000F0F7B990EA010F0CEAD11348BF42F415
:10DAD0008072624538BF634507D213F47F0F16D0BA
:10DAE00080EA010000F00040704710B500F09BF99B
:10DAF000097EFC3E00F005B880EA010000F000401D
:10DB0000704780EA010000F0004000F0D2B912F442
:10DB10007F0F04BF0248704780EA010000F0C9B9D6
:10DB20000000C07F50EA010C00F113801CF5000FCB
:10DB300058BFBCF5000F01D48842704707D710F5D5
:10DB4000000F58BF11F5000F15D488427047894265
:10DB500070471CF5000F04D5BCF5000FF7D58142C6
:10DB600070474FF0807C1CEB400F38BF1CEB410F1F
:10DB700001D28142704710B500F055F99224490056
:10DB80004FF000504FF08051FFF7FEBE41000B0EEA
:10DB9000D3F19E0208D950F400034FEA032323FA7D
:10DBA00002F048BF4042704710B500F03CF900BF9A
:10DBB00049922480002070476FF0004282EA2000E2
:10DBC00070470000C10DD1F19E0206DB4FEA002331
:10DBD00043F0004323FA02F07047004207D54FEAB2
:10DBE0004001B1F1FE4F02D24FF00000704710B576
:10DBF00000F019F949922480002070476FEA200054
:10DC00007047000010F0004148BF4042B0FA80F376
:10DC100010FA03F2C3F19D030BD051EAC35101EB9B
:10DC20001220530638BF704700F1010008BF20F0F2
:10DC3000010070474FF07E5209E011F0004204D518
:10DC40004042C1F1000138BF491E42F07E520B0034
:10DC500002F1706212BF20235FEA00017047B1FA3F
:10DC600081FCA3EB0C0301FA0CF120FA03FC02EB9C
:10DC7000C352C3F1200341EA0C0110FA03FC5CEA31
:10DC8000416C42EB112018BF5FF0806C28BF20F080
:10DC900001007047B0FA80F310FA03F2C3F19D035C
:10DCA0000AD0D90501EB1220530638BF704700F1A6
:10DCB000010008BF20F001007047000050EA010C8D
:10DCC00000F113801CF5000F58BFBCF5000F01D404
:10DCD0008842704707D710F5000F58BF11F5000FA5
:10DCE00015D488427047894270471CF5000F04D54F
:10DCF000BCF5000FF7D5814270474FF0807C1CEBDC
:10DD0000400F38BF1CEB410F01D28142704710B564
:10DD100000F089F8922449004FF000504FF08051F4
:10DD2000FFF732BE4FF47F0C1CEAD0121EBF1CEA74
:10DD3000D11392EA0C0F93EA0C0F00F0478090EA9F
:10DD4000010F48BF42F480724FF0004C4CEA0020B3
:10DD50004CEA012102EB0302A0FB0113A2F5000231
:10DD6000002918BF43F001035B0028BF4FEA3303CB
:10DD700042EB22425FEA132C4CEBC2502EBFBCEBAD
:10DD8000436FB2F57C0F70474FEA036CBCF1004F54
:10DD900008BF20F00100B2F57C0F38BF70470BD5EB
:10DDA00082F0FF0212F5803FC8BF704700F1C0400B
:10DDB000D8BF00F00040704700F5000C5FEA4C0C43
:10DDC00048BF7047B0F1C04000F073B890EA010F4F
:10DDD0000CEAD11348BF42F48072624538BF6345F4
:10DDE00004D280EA010000F00040704710B500F056
:10DDF0001AF800BF8900013E00F007B800F009B82A
:10DE00005FEA410C5FEA1C6C08D080EA010000F078
:10DE100050B85FEA400C5FEA1C6CF6D14FF000404E
:10DE2000A0F5800070470EF1020E2EF0030E5EF892
:10DE3000044B244204D44FEA4102B2F17F4F11D87F
:10DE40004FEA4003B3F17F4F0CD80ED14FEAD07C9C
:10DE5000B2F17F4F0CEB4C0C0CF1020C08BF4CEBF9
:10DE6000D17C04E04FF0080C01E04FEAD17C0CEBD0
:10DE70004C0324FA03F404F00704B4F1040C06D2B2
:10DE80000EEB840CBDE810404CF0010C6047DFE85D
:10DE90000CF0070802024FF00040A0F5800010BD12
:10DEA0000846420018BFD2F1807288BF00F00040DF
:10DEB00010BDFF2141EAD050C005704751EA000C67
:10DEC00000F113801CF5000F58BFBCF5000F01D402
:10DED0008142704707D711F5000F58BF10F5000FAA
:10DEE00015D481427047894270471CF5000F04D554
:10DEF000BCF5000FF7D5884270474FF0807C1CEBD3
:10DF0000410F38BF1CEB400F01D28842704780EAB6
:10DF1000010081EA000180EA0100FFF7F8BE00007D
:10DF20005FEA400C5FEA1C6CBCF17F0314D4D3F1B0
:10DF3000170240F31C804FF0010C0CFA02FCACF10C
:10DF400001030340B3EB5C0220EA030008BF10EAC0
:10DF50000C0F88BF60447047B3F1FF3F28BF5FEAF2
:10DF6000002C00F0004088BF40F07E507047BCF1AC
:10DF7000FF0FB8BF704710B5FFF755FF40DBB6BEC7
:10DF800080F0004090EA010F7FF59DAC81F00041E8
:10DF900000F08FB84FEAD051002988BFD1F1FF02BD
:10DFA00040F2758001F17D014FEA002070B549080B
:10DFB00040F0004038BF40080EA2430E040CD25C73
:10DFC00002FB02F304FB03F3C3F14043A3FB02543F
:10DFD000ED0D45EA442202FB02F3A0FB03546D421F
:10DFE000C4F1404438BF641EA2FB05350023E2FBA8
:10DFF0000453EA0B42EA4342A0FB023212F140040E
:10E00000A2F12103E40903F07F031F2B32D904EBB3
:10E01000C15070BDFEFAF7F3F0ECE9E6E4E1DEDCB6
:10E02000D9D7D4D2D0CECCCAC8C6C4C2C1BFBDBC59
:10E03000BAB9B7B6B4B3B2B0AFAEACABAAA9A8A7E1
:10E04000A6A4A3A2A1A09F9E9E9D9C9B9A999897EF
:10E05000979695949393929190908F8E8E8D8C8CB1
:10E060008B8A8A8989888787868685848483838248
:10E070008281818004FB04F6B6EB004603D5E642BC
:10E0800048BF641CC3E7A64258BF641CBFE711F039
:10E09000FF0F02D100F00040704710B5FFF7C3FE3C
:10E0A0007FDBFFBE90EA010F48BF81F000413FF5E2
:10E0B0000AAC421A04D882F00042A0EB02001144DC
:10E0C0004FEAD0524FF07F4C1CEA410FA2EBD153E4
:10E0D00018BF9CEA026F4AD04FF0004C4CEA002077
:10E0E0004CEA012121FA03FCB0EB0C0C0FD412F026
:10E0F000FE0F36D05FEA4C001DD5001240EBC25037
:10E1000038BF70471CF03F0F18BF70470BE0A2F1FB
:10E1100001025FEA1C2040EBC25038BF70471CF080
:10E120007F0F18BF7047C3F12003994014BF401EF2
:10E1300020F00100704780084FEA122308BF7047A3
:10E14000B0FA80FCA2EB0C02CCF1280C60FA0CF0C7
:10E1500093EA122F04BF00EBC25070474FEAC3701E
:10E160007047130A5FEADC1008BF7047F6E79CEAC5
:10E17000026F04D010EA5C0F08BF0020704710B592
:10E18000FFF751FE40DFF63E81F000407047FCF79C
:10E190008BBA0CF00F03092B08BF082000F07F801A
:10E1A0000A2B0BD0082B18BF704708BF1CF0400F7C
:10E1B0000AD04FF000004FF0000170471CF0400FF4
:10E1C00018BF4FF0004070471CF0100F08D020F02F
:10E1D000704300F07F4242EAD3014FEA4370704738
:10E1E00000F0604021F07F4242EA000201F07F40EF
:10E1F00040EA727070474FF0FF0C4CF4E06C1CEA80
:10E2000011531CBF9CEA030C9445C2BFDA4201EBD8
:10E2100002517047002B0DD0BCF1000F0FD0002A27
:10E2200001F00041A4BF41F0E04141F07F614FF0B7
:10E230000000704701F000414FF00000704750EAC5
:10E2400001334FF09B0C18BF4CF0806C7EF4F6ADA0
:10E2500070474FF0FF0212EAD0521CBF92F0FF034A
:10E260008B42C2BFD14200EBC1507047002A0AD096
:10E27000002B0BD0002900F00040A4BF40F0FE406E
:10E2800040F40000704700F00040704743024FF038
:10E290000B0C18BF4CF0806C7FF470AB70471CF413
:10E2A000801F11D01CF4E02F03D06FEACC3149005D
:10E2B00070474FF04050EFF3008222F0704242EA84
:10E2C000000282F3008870474FF00000704741540D
:10E2D000004F4B0041542B4E414D453F004F4B2BBF
:10E2E0004E414D453A4372617A65706F6E790041D7
:10E2F000542B4E414D454372617A65706F6E7900C3
:10E3000041542B50494E3F004F4B2B50494E3A3110
:10E310003233340041542B50494E313233340041B2
:10E32000542B52454E4557004F4B2B52454E4557A7
:10E330000041542B424155443F004F4B2B42415525
:10E34000443A3131353230300041542B424155444A
:10E35000340000000000803F0000000000000000CA
:10E36000000000000000803F0000000000000000EE
:10E37000000000000000803F303132333435363742
:10E3800038394142434445464030580030313233F9
:10E3900034353637383961626364656640307800F9
:10E3A000000000000000F03F000000000000F83F07
:10E3B00000000000000000000000004003B8E23F41
:10E3C000000000000000000006D0CF43EBFD4C3EF3
:10E3D000033333333333E33FFFAB6FDBB66DDB3FE8
:10E3E0004D268F515555D53F01411DA96074D13F30
:10E3F00065DBC9934A86CD3FEF4E454A287ECA3F2A
:10E400003E5555555555C53F93BDBE166CC166BFAB
:10E410002CDE25AF6A56113FF16BD2C541BDBBBEA4
:10E42000D0A4BE726937663E4FBB610567ACDD3F65
:10E43000182D4454FB21E93F9BF681D20B73EF3F2B
:10E44000182D4454FB21F93FE2652F227F2B7A3CA3
:10E45000075C143326A6813CBDCBF07A8807703C5C
:10E46000075C143326A6913CC4EB98999999C9BFCF
:10E47000711623FEC671BCBF6D9A74AFF2B0B3BF04
:10E480009AFDDE522DDEADBF2F6C6A2C44B4A2BFC4
:10E490000D5555555555D53FFF8300922449C23F30
:10E4A0006E204CC5CD45B73F513DD0A0660DB13F64
:10E4B000EB0D76244B7BA93F11DA22E33AAD903F76
:10E4C0000000000000000000000000006E83F9A2C0
:10E4D0002915444ED15727FCC0DD34F5999562DBF0
:10E4E0004190433CAB6351FE02400000000000A09D
:10E4F0000000000005400000000000C8000000000F
:10E500000C4000000000409C00000000194000008A
:10E510000020BCBE0000000034400000BFC91B8EBC
:10E5200000000004B5400000504BCFD06607E2CF9A
:10E53000010000006C4100003E8251AADFEEA734CA
:10E5400001000000D9420000DCB5A0E23A301F977C
:10E55000FFFFFFFFB4450000FD25A0C8E9A3C14FA0
:10E56000FFFFFFFFFF3F00000000008000000000F1
:10E57000FF3F00000000008000000000202A202053
:10E58000202020202020202020202020202020208B
:10E59000202020202020202020202020202020207B
:10E5A000202020202020202020202F5F5F5F5F5F21
:10E5B0002F202020202020202020202020202A0D55
:10E5C0000A000000202A20202020202020202020B7
:10E5D000202020202020202020202020202020203B
:10E5E000202020202020202020202020202020202B
:10E5F0002020205F5F5F5F2F202F20202020202001
:10E600002020202020202A0D0A000000202A20207F
:10E6100020202020202020202020202020202020FA
:10E6200020202020202020202020202020202020EA
:10E6300020202020202020202020202020202020DA
:10E640002F202F20202020202020202020202A0DB5
:10E650000A000000202A20205C5F5F5F2F5F2F20D0
:10E6600020205C5F5F2C5F2F202F5F5F5F2F5C5F40
:10E670005F5F2F5F2F202020205C5F5F5F202F5F78
:10E680002F202F5F2F5F5F5F5F20202F2020202013
:10E690002020202020202A0D0A000000202A2020EF
:10E6A0002F202F5F5F2F202F20202F202F5F2F2044
:10E6B0002F202F202F5F2F20205F5F2F202F202043
:10E6C000202F202F5F2F202F202F202F202F202F93
:10E6D0005F5F2F202F2020202020202020202A0DA7
:10E6E0000A000000202A2020202F202F20202F2069
:10E6F0005F5F5F2F205F5F20602F5F20202F202F24
:10E70000205F205C2F202F2020202F205F5F205CA7
:10E710002F205F20205C2F202F20202F202F202033
:10E720002020202020202A0D0A000000202A20205E
:10E7300020202F202F2020205F5F5F5F5F5F5F5FC3
:10E7400020205F5F5F5F20205F5F5F20202F205FC2
:10E750005F5F5F2F5F5F5F20205F5F5F5F20205FF5
:10E760005F2020205F5F20202020202020202A0DF5
:10E770000A000000202A202020202020205F5F5F48
:10E780005F2020202020202020202020202020204A
:10E79000202020202020205F5F5F5F5F202020203E
:10E7A00020202020202020202020202020202B2D51
:10E7B0002D2D2B2020202A0D0A000000202A2020A9
:10E7C0002020202F202F202020202020202020202B
:10E7D00020202020202020202020202020202F202A
:10E7E0002F5F2F202F2020202020202020202020BD
:10E7F0002020202020202B2D2D2D2B2020202A0DE5
:10E800000A000000202A2020202020202F205F5FE7
:10E810005F5C20202020202020202020202020207D
:10E82000202020202020202F205F5F205C2020201F
:10E8300020202020202020202020202020207C207C
:10E8400052207C2020202A0D0A000000202A2A2A9B
:10E850002A2A2A2A2A2A2A2A2A2A2A2A2A2A2A2A18
:10E860002A2A2A2A2A2A2A2A2A2A2A2A2A2A2A2A08
:10E870002A2A2A2A2A2A2A2A2A2A2A2A2A2A2A2AF8
:10E880002A2A2A2A2A2A2A2A2A2A2A2A2A2A2A0D05
:10E890000A000000D0E8000800000020CC030000BF
:10E8A0002801000874E90008CC030020FC110000D6
:10E8B000840100081C00000043000000F8FFFFFF77
:10E8C0000C0000000E0000000F0000002E000000F1
:10E8D0001184A24A0400093401020304060708094E
:10E8E000051134C310101384032380251AB0621A53
:10E8F000605633C012324B329632E10B27C20128E8
:10E90000592A012D4BDC05044BD007044BB80B04EE
:10E910004B8813040B30F82A524902A12CAAAA01F1
:10E92000AE0115051FAAAA021E193F121412641285
:10E93000C83282326432C8121E03270A6B0716AA35
:10E94000AF0201015D223F87A041CDCC4C3D05D2F5
:10E950000AE81CC11A80E801622D010203040410B8
:10E960000906070809020406080A45015801471468
:04E9700080841E0081
:04000005080003CD1F
:00000001FF
