:020000040800F2
:10000000080F002071030008C1360008C33600083D
:10001000C7360008CB360008CF36000800000000C5
:10002000000000000000000000000000D3360008BF
:10003000D536000800000000D7360008D936000881
:100040008B0300088B0300088B0300088B03000858
:100050008B0300088B0300088B0300088B03000848
:100060008B0300088B0300088B0300088B03000838
:100070008B0300088B0300088B0300088B03000828
:100080008B0300088B0300088B0300088B03000818
:100090008B0300088B0300088B0300088B03000808
:1000A0008B0300088B0300088B0300088B030008F8
:1000B0008B030008EF1000080D1000088B030008E8
:1000C0008B0300088B0300088B0300088B030008D8
:1000D0008B030008892000088B0300088B030008AD
:1000E0008B0300088B0300088B03000800F002F864
:1000F00000F04AF80AA090E8000C82448344AAF178
:100100000107DA4501D100F03FF8AFF2090EBAE875
:100110000F0013F0010F18BFFB1A43F0010318473B
:10012000149A0000349A0000103A24BF78C878C1AD
:10013000FAD8520724BF30C830C144BF04680C60ED
:10014000704700000023002400250026103A28BF35
:1001500078C1FBD8520728BF30C148BF0B60704739
:10016000662908F0A685642905F0D8870020704725
:100170001FB506F043FB04000020002107F036FC09
:10018000E0601FBD10B510BD06F058FC1146FFF72A
:10019000EFFF03F05BFA06F076FC03B4FFF7F2FF23
:1001A00003BC01F09FFE000000210020674A126896
:1001B00042F48032654B1A6000BF644A126802F450
:1001C0000030491C10B9B1F5A06FF6D15F4A126832
:1001D00012F4003F01D0012000E00020012842D1AC
:1001E0005B4A126842F01002594B1A601A461268B4
:1001F00022F003021A601A46126842F002021A60E4
:10020000524A5268514B5A601A4652685A601A460E
:10021000526842F480625A601A46526822F47C1294
:100220005A601A46526842F4E8125A601A46126836
:1002300042F080721A6000BF444A126812F0007FD8
:10024000FAD0424A526822F00302404B5A601A46E2
:10025000526842F002025A6000BF3C4A526802F003
:100260000C02082AF9D1704710B5FFF79DFF10BDA9
:1002700010B53648006840F001003449086008466F
:1002800040683449084031494860084600683249AE
:1002900008402E4908600846006820F48020086065
:1002A0000846406820F4FE0048604FF41F00886054
:1002B000FFF7DAFF4FF000602849086010BD10B565
:1002C000002100200022214B5B6803F00C0121B1CA
:1002D000042906D0082928D107E0214B214C2360AE
:1002E00027E01F4B1F4C236023E0184B5B6803F48F
:1002F0007010164B5B6803F48032022303EB9040CE
:1003000022B9194B4343174C23600DE00F4B5B6838
:1003100013F4003F04D0144B4343124C236003E01A
:100320000F4B43430F4C236003E00D4B0D4C2360F8
:1003300000BF00BF054B5B68C3F303130B4CE15CCC
:10034000084B1B68CB40074C236010BD00100240D7
:10035000002002400000FFF8FFFFF6FE08ED00E07D
:1003600000127A000000002000093D000400002077
:100370000948804709480047FEE7FEE7FEE7FEE739
:10038000FEE7FEE7FEE7FEE7FEE7FEE70448054975
:10039000054A064B7047000071020008ED00000896
:1003A00008090020080F0020080B0020080B00207F
:1003B00010B504464FF0E020006920F004004FF033
:1003C000E0210861E11704EB5171C910264A117050
:1003D0001046007800EB4001C1EBC0104FF6FF71F2
:1003E00001EAC0002149088021A005F061FE10BD8E
:1003F00001461E4A12884A434FF0E0235A61002208
:100400009A6101221A6100BF4FF0E022106910F0DA
:10041000010F02D010F4803FF6D000224FF0E0230D
:100420001A619A61704701460F4A12784A434FF0A9
:10043000E0235A6100229A6101221A6100BF4FF045
:10044000E022106910F0010F02D010F4803FF6D0C6
:1004500000224FF0E0231A619A617047002100E00A
:10046000491C8142FCD37047140000201600002074
:10047000D1D3CAB1BAAFCAFDB3F5CABCBBAFCDEADE
:10048000B3C92E2E2E0D0A0010B52C48806940F0FD
:1004900004002A4988610846806940F008008861A4
:1004A0000846806940F001008861254800684FF2E5
:1004B000F0018843224908600846006843F2300191
:1004C00008431F4908601E480C30006840F00A00CD
:1004D0001B490C3108601B4800684FF20F0188432C
:1004E000184908600846006843F2030108431549AB
:1004F000086014480830006840F0090011490831CC
:1005000008601148406840F000700F494860C91405
:100510000C48001F03F045FC4FF480710948001F90
:1005200003F03FFC0221064803F03BFC082104488D
:1005300003F037FC05A005F0BBFD10BD0010024024
:10054000000C01400408014000000140D7B4CCACCD
:100550004C4544B5C6B3F5CABCBBAFCDEAB3C92E52
:100560002E2E0D0A0000000010B52021F84803F0DF
:10057000FCFB012800D110BD0020FCE738B5044683
:10058000032302226B21D020009400F0D2FC38BD5E
:1005900010B5012307226B21D02000F0FFFC10BD15
:1005A00038B50446022304221B21D020009400F019
:1005B000C0FC38BD38B50446022304221C21D020DB
:1005C000009400F0B6FC38BD10B504462346062260
:1005D0006B21D02000F0E2FC10BD10B5DD4B0122F4
:1005E0007521D02000F039FCDA48007810BD10B534
:1005F000FFF7F3FF682801D1012010BD0020FCE7C0
:1006000010B50446234605226A21D02000F0C6FC1E
:1006100010BD10B50446234601223721D02000F03A
:10062000BDFC10BD10B5FFF7E2FF10B1012808D1E5
:1006300003E0C9A005F03CFD03E0CDA005F038FDC6
:1006400000BF00BF10BD10B50120FFF797FF0220CB
:10065000FFF7A6FF0020FFF7ADFF0020FFF7B4FF74
:100660000020FFF7CDFF0120FFF7D3FF0023072273
:100670003721D02000F092FC002306223721D02021
:1006800000F08CFC012305223721D02000F086FCED
:10069000012304223721D02000F080FCFFF7C2FFA5
:1006A00010BD70B504460D46164604F01F040EB189
:1006B00044F020040DB144F0400422466D21D020C6
:1006C00000F02DFC70BD10B5044622466E21D020EE
:1006D00000F025FC10BD10B59E4B01226F21D020EB
:1006E00000F0BBFB9B48007810BD10B5994B02226F
:1006F0001321D02000F0B1FB964840789549097845
:1007000040EA012000B210BD10B5924B0222152123
:10071000D02000F0A2FB8F4840788E49097840EA4B
:10072000012000B210BD10B58A4B02221721D02043
:1007300000F093FB874840788649097840EA012019
:1007400000B210BD2DE9F05F83460F4691461C466E
:10075000002211464846FFF7A4FF2046FFF7B3FFEB
:10076000002649E010257019B84201DDB81BC5B25A
:10077000C4F58070A84201DA6042C5B20BEB060AEC
:1007800053462A466F21D02000F09BFB0A9800B305
:10079000002211464846FFF784FF2046FFF793FFEB
:1007A000794B2A466F21D02000F057FB4FF000080C
:1007B0000DE01AF80800744911F80810884202D0B8
:1007C0000020BDE8F09F08F1010000F0FF08A845F7
:1007D000EFDB701986B26019C4B2BE420CDA1CB9E4
:1007E00009F1010000F0FF09002211464846FFF719
:1007F00058FF2046FFF767FFBE42B3DB0120E0E76A
:100800002DE9FE4F05460F46002436E02046611CC8
:100810008CB215F800A02046611C8CB215F800B00F
:100820002046611C8CB22E5C002E0FDD05EB040807
:10083000002001215B465246CDE90010314640467A
:10084000FFF780FF0290A01984B211E02046611CDE
:100850008CB215F80090B9F1010F07D1322238217E
:10086000D02000F05CFB0120029001E0002002900B
:10087000029810B90020BDE8FE8FBC42C6DB012003
:10088000F9E72DE9FC4104460D4616461F46DDF802
:10089000208000203B4632462946CDE90080204694
:1008A000FFF750FFBDE8FC8170B504460D460022FD
:1008B00029462046FFF7A4FF70BD10B50446224626
:1008C0003821D02000F02BFB10BD10B50446224685
:1008D0001921D02000F023FB10BD38B504460323B6
:1008E00002221A21D020009400F023FB38BD38B535
:1008F0000446032305221A21D020009400F019FB9E
:1009000038BD10B5044622467021D02000F007FB08
:1009100010BD10B5044622467121D02000F0FFFA28
:1009200010BD10B50446234600221146D02000F029
:1009300035FB10BD10B50446200A064908704C70FE
:100940000B4602221321D02000F0BBFA10BD00009C
:10095000000C014088000020CEB4BCECB2E2B5BD72
:100960004D5055363035302E2E2E0D0A0000000029
:10097000D2D1BCECB2E2B5BD4D5055363035302E3B
:100980002E2E0D0A000000001A01002010B50446AA
:10099000200A884908704C700B4602221521D0208D
:1009A00000F08FFA10BD10B50446200A8149087086
:1009B0004C700B4602221721D02000F082FA10BDA5
:1009C00010B5012302226A21D02000F0E7FA10BD01
:1009D00010B5784B02227221D02000F03EFA754803
:1009E00040787449097840EA012010BD10B50446EA
:1009F00022461F21D02000F092FA10BD10B5044607
:100A000022462121D02000F08AFA10BD10B50446FC
:100A100022462021D02000F082FA10BD10B50446F5
:100A200022462221D02000F07AFA10BD2DE9F047AD
:100A300081460E4690461C46002211464046FFF76E
:100A400030FE2046FFF73FFE002525E01027E8197D
:100A5000B04201DD701BC7B2C4F58070B84201DA44
:100A60006042C7B209EB05033A466F21D02000F07F
:100A700028FAE81985B2E019C4B2B5420CDA1CB9FB
:100A800008F1010000F0FF08002211464046FFF780
:100A900008FE2046FFF717FEB542D7DBBDE8F0871A
:100AA00070B504460D4623462A467421D02000F036
:100AB000D4F970BD10B53A21D02000F0ABF910BDCB
:100AC00010B50446234607226A21D02000F066FABA
:100AD00010BD10B50021D02000F09CF9044604F0B0
:100AE000010010BD10B50021D02000F093F904469C
:100AF00004F03F04204610BD38B50446E0B206239A
:100B00001A4600210090D02000F013FA38BD10B52D
:100B10000121D02000F07EF9044604F03F04204675
:100B200010BD38B50446E0B206231A4601210090F4
:100B3000D02000F0FEF938BD10B50221D02000F021
:100B400069F9044604F03F04204610BD38B5044658
:100B5000E0B206231A4602210090D02000F0E9F905
:100B600038BD70B504460D46032C00DD70BD04EBA6
:100B700044002530C1B22A46D02000F0D0F900BF91
:100B8000F4E710B501231A466A21D02000F006FAD6
:100B900010BD10B50446234606226A21D02000F07D
:100BA000FDF910BD10B5012303226A21D02000F009
:100BB000F5F910BD8800002008B50121082003F0D8
:100BC000F5FAC020ADF8000010208DF803000320D6
:100BD0008DF802006946FA4803F036F8F9A005F0EE
:100BE00067FA08BD10B5F648006820F07040F44977
:100BF00008600846006840F0405008600120F7494E
:100C00000860F749C1F898014FF00400FFF70BFCAA
:100C10000020F24908604FF00400FFF704FC0020B8
:100C2000EF49C1F8980110BD10B5E548006820F003
:100C30007040E34908600846006840F04050086092
:100C40000020E8490860E649C1F89C014FF0040023
:100C5000FFF7E9FB0120E3490860E149C1F89C0185
:100C60004FF00400FFF7DFFB10BD10B50024D4489F
:100C7000006820F07040D24908600846006840F0E3
:100C8000004008600120D5490860FFF7CCFB012037
:100C9000D349C1F89801FFF7C6FB0AE0601CC4B253
:100CA000322C03DDFFF7C0FF012010BD0120FFF74C
:100CB000BAFBCD4800680028F0D1CA49086000BFDF
:100CC000F3E710B50020C7490860BD48006820F070
:100CD0007040BB4908600846006840F0405008601A
:100CE0004FF00000BE49C1F89C014FF00200FFF731
:100CF0009AFB0120BB4908604FF00200FFF793FB0D
:100D00000020B749C1F8980110BD10B50020B549C1
:100D10000860AB48006820F07040A94908600846A8
:100D2000006840F0405008604FF00100AC49C1F845
:100D30009C014FF00200FFF776FB0120A9490860F3
:100D40004FF00200FFF76FFB0020A549C1F89801A2
:100D500010BD70B504469A48006820F0704098496C
:100D600008600846006840F04050086000209D4937
:100D7000086005461AE0E009984908604FEA4460B7
:100D80004FEA10644FF00200FFF74DFB0120944939
:100D9000C1F898010220FFF746FB00209149086046
:100DA0004FF00200FFF73FFB681CC5B2082DE2DBE5
:100DB00070BD70B5054600248148006820F0704081
:100DC0007F4908600846006840F00040086000263F
:100DD00016E00020834908604FF00200FFF723FB74
:100DE00001207F49C1F898016006040E7E48006822
:100DF00008B1601CC4B20220FFF715FB701CC6B21C
:100E0000082EE6DB15B1FFF75CFF01E0FFF77DFF81
:100E1000204670BD70B505460E460024FFF7E2FE81
:100E20002846FFF796FF641CFFF71FFF3046FFF7C9
:100E300090FF641CFFF719FFFFF7D4FE691CC8B2CE
:100E4000FFF787FF641CFFF710FF0020FFF7B1FFDB
:100E50000446FFF7E9FE204670BD2DE9F04706463F
:100E60000F46154698460024FFF7BCFE3046FFF7B4
:100E700070FFFFF7FAFE3846FFF76BFFFFF7F5FE4E
:100E8000FFF7B0FE711CC8B2FFF763FFFFF7EDFE7E
:100E900000BF0FE0681EA04204D00120FFF789FFC9
:100EA000814603E00020FFF784FF814608F80490A4
:100EB000601CC4B2AC42EDDBFFF7B6FE2046BDE8D5
:100EC000F0872DE9F04180460D4616461F46002466
:100ED000FFF788FE4046FFF73CFFFFF7C6FE2846B7
:100EE000FFF737FFFFF7C1FE00BF06E0385DFFF7F1
:100EF00030FFFFF7BAFE601CC4B2B442F6DBFFF766
:100F000093FE0120BDE8F08170B505460E461446FB
:100F100031462846FFF77EFF2070012070BD37B5AF
:100F200004460D4602AB012229462046FFF7C9FFC1
:100F30003EBD2DE9F8430746884614461D46089EE7
:100F40006A4641463846FFF7DFFF28B3601CFF21A1
:100F500001FA00F0C4F108012944491EFF220A41A8
:100F6000104300F0FF09C5F1080006FA00F0C6B210
:100F7000C4F1070006419DF8000000EA0900009056
:100F80009DF80000304300909DF80020414638460F
:100F9000FFF7C5FFBDE8F8830020FBE7F8B506467C
:100FA0000F4614461D466A4639463046FFF7ACFFE9
:100FB000E5B10120A0409DF8001008431CE00000AE
:100FC000000C0140494943D7DCCFDFB3F5CABCBBB5
:100FD000AFCDEAB3C92E2E2E0D0A00009C8121420E
:100FE00000802142988121421C8121420120A040A1
:100FF0009DF8001021EA0000C0B200909DF800208A
:1010000039463046FFF78BFFF8BD000010B50121CF
:10101000FE4804F02CF8002868D004F065FDFC4878
:101020000068401CFA490860FA480068F949896973
:10103000884220DDF64800680A280AD14FF4006192
:10104000F54802F0AEFE4FF48071F34802F0A9FEBD
:1010500041E0EF4800681E283DD10020EC490860BF
:101060004FF40061EC4802F09AFE4FF48071EA48B8
:1010700002F095FE2FE0E64800680A2812D14FF4EE
:101080000061E54802F08DFE4FF48071E24802F005
:1010900088FE0221E14802F084FE0821DF4802F0C8
:1010A00080FE18E0DA480068142814D10020D849DE
:1010B00008604FF40061D84802F071FE4FF480716F
:1010C000D54802F06CFE0221D44802F068FE0821E7
:1010D000D24802F064FECE4800681F2802DB0020E0
:1010E000CB4908600121C94803F0D2FF10BD2DE9AA
:1010F000FF5F0121CA4803F0BAFF00287ED001F04B
:101100005AF9C4490860C86807F05EFA82468B46FF
:10111000C049086806F0F5FE80460022C14B06F083
:1011200069FD04460D46BB49486907F04DFA06467D
:1011300022462B4606F038FF52465B46CDE90001B9
:1011400006F032FFCDE9020106F066FCB1494860C5
:10115000B5480068401CB449086008460068B0F50E
:10116000FA7F7BD100200860B04804F0A1FFAF48AF
:10117000483004F09DFFAD48903004F099FFAB4833
:10118000D83004F095FFAA4804F092FFA8484830F0
:1011900004F08EFFA648903004F08AFFA448D830AF
:1011A00004F086FFA34804F083FFA248483004F00F
:1011B0007FFFA048903004F07BFF9C4804F078FF4C
:1011C0009DA004F075FF9DA004F072FF9AA004F0AA
:1011D0006FFFA4A004F06CFF97A004F069FFAA4978
:1011E000886807F0F1F9044622460B46A7A004F0F0
:1011F0005FFFA549486807F0E7F900E0B9E0044659
:1012000022460B46A7A004F053FF9F49086807F049
:10121000DBF9044622460B46A8A004F049FFADA026
:1012200004F046FFB149086807F0CEF904462246AB
:101230000B46AFA004F03CFFAC49486807F0C4F986
:10124000044622460B46B1A004F032FFA749886845
:1012500007F0BAF9044622460B4600E085E0B2A04A
:1012600004F026FF9BA004F023FFB649486807F06E
:10127000ABF9044622460B46B3A004F019FFB1496E
:10128000086807F0A1F9044622460B46B5A004F011
:101290000FFFBBA004F00CFFBF49486C07F094F9A6
:1012A000044622460B46BDA004F002FFBA49886CF2
:1012B00007F08AF9044622460B46BFA004F0F8FE68
:1012C000B549C86C07F080F9044622460B46C1A018
:1012D00004F0EEFE7FA004F0EBFEAF49886B07F050
:1012E00073F9044622460B46C1A004F0E1FEAA4968
:1012F000C86B07F069F9044622460B46C3A004F008
:10130000D7FEA549086C07F05FF9044622460B4654
:10131000C5A004F0CDFE9AA004F0CAFE4FF08040B4
:10132000818EC8A004F0C4FE4FF08040018FCBA096
:1013300004F0BEFE4FF08040818FCEA004F0B8FED6
:10134000D2480188D2A004F0B3FE8DA004F0B0FE14
:101350003049486807F038F9044622460B46D2A0C7
:1013600004F0A6FE86A004F0A3FE01212C4803F0A1
:101370008FFEBDE8FF9F3EB505460C4601210420C7
:1013800002F021FF214802F079FFA0B2ADF804007D
:10139000681E80B2ADF800000020ADF80600ADF880
:1013A00002006946194803F03DF80121174803F08F
:1013B0005BFE01221146154803F0ABFB01211348E7
:1013C00003F08CFBBEA004F073FE3EBD3EB50546A7
:1013D0000C460121022002F0F6FE114802F04EFFF9
:1013E000A0B2ADF80400681E80B2ADF80000002085
:1013F000ADF80600ADF802006946094803F012F89E
:101400000121074803F030FE012265E10008004099
:10141000180000203406002000080140000C0140A4
:10142000000400400000B0401C000020A88D00080F
:10143000C88E0008E88F00080D0A00002043726182
:101440007A65706F6E792D4949B1A8B8E6A3BACF15
:10145000B5CDB3D5FDD4DAD4CBD0D02E2E2E0D0AF7
:10146000000000000D0A2D2D2D3EBBFAC9EDCAB5B6
:10147000CAB1D7CBCCACB9E3B2A5D0C5CFA23C2D75
:101480002D2D0D0A000000005006002020C6ABBA2A
:10149000BDBDC72D2D2D3E2025352E3266A1E30D75
:1014A0000A00000020B8A9D1F6BDC72D2D2D3E2081
:1014B00025352E3266A1E30D0A00000020BAE1B9FD
:1014C000F6BDC72D2D2D3E2025352E3266A1E30D0C
:1014D0000A000000203D3D3D3D3D3D3D3D3D3D3D43
:1014E0003D3D3D3D3D3D3D0D0A0000002C080020E6
:1014F0002058D6E1C6DACDFBBDC7B6C82D2D2D3E8E
:101500002025352E3266A1E30D0A00002059D6E1D0
:10151000C6DACDFBBDC7B6C82D2D2D3E2025352EF4
:101520003266A1E30D0A0000205AD6E1C6DACDFBEF
:10153000BDC7B6C82D2D2D3E2025352E3266A1E320
:101540000D0A0000380800202059D6E1CEF3B2EE93
:10155000BDC7B6C82D2D2D3E2025352E3266A1E300
:101560000D0A00002058D6E1CEF3B2EEBDC7B6C8D2
:101570002D2D2D3E2025352E3266A1E30D0A0000CB
:101580003D3D3D3D3D3D3D3D3D3D3D3D3D3D3D3D8B
:101590003D3D0D0A000000005C0600202058D6E109
:1015A000BCD3CBD9B6C82D2D2D3E2025352E326685
:1015B0006D2F73320D0A00002059D6E1BCD3CBD970
:1015C000B6C82D2D2D3E2025352E32666D2F733257
:1015D0000D0A0000205AD6E1BCD3CBD9B6C82D2DB8
:1015E0002D3E2025352E32666D2F73320D0A0000F8
:1015F0002058D6E1BDC7CBD9B6C82D2D2D3E20250C
:10160000352E326620A1E32F730D0A002059D6E152
:10161000BDC7CBD9B6C82D2D2D3E2025352E32661F
:1016200020A1E32F730D0A00205AD6E1BDC7CBD904
:10163000B6C82D2D2D3E2025352E326620A1E32F54
:10164000730D0A0020B5E7BBFA4D312050574DD637
:10165000B52D2D2D3E2025640D0A000020B5E7BBD9
:10166000FA4D322050574DD6B52D2D2D3E202564F4
:101670000D0A000020B5E7BBFA4D332050574DD678
:10168000B52D2D2D3E2025640D0A000040000040A0
:1016900020B5E7BBFA4D342050574DD6B52D2D2D32
:1016A0003E2025640D0A000020B5E7B3D8B5E7D188
:1016B000B92D2D2D3E2025332E3266760D0A0000E1
:1016C000B6A8CAB1C6F734B3F5CABCBBAFCDEAB34E
:1016D000C92E2E2E0D0A00001146164803F019FAE5
:1016E0000121144803F0FAF913A004F0E1FC3EBD17
:1016F00008B54FF4A06002F0D9F91D208DF8000064
:1017000002208DF8010000208DF8020001208DF8E4
:101710000300684602F0CFF91E208DF8000001207A
:101720008DF801008DF802008DF80300684602F084
:10173000C2F908BD00040040B6A8CAB1C6F733B369
:10174000F5CABCBBAFCDEAB3C92E2E2E0D0A0000E0
:1017500030B540F2E734A04200DB204640F2E734E7
:10176000A14200DB214640F2E734A24200DB2246E0
:1017700040F2E734A34200DB2346002800DC0020CF
:10178000002900DC0021002A00DC0022002B00DC04
:1017900000234FF08045A8862987AA87384D2B80E3
:1017A00030BD10B588B000240121042002F0FEFCF9
:1017B0000121084602F007FD0F20ADF81C0018209B
:1017C0008DF81F0002208DF81E0007A92D4802F099
:1017D0003BFA4FF0804002F051FD2B4800682B4946
:1017E000B0FBF1F0401E84B240F2E730ADF81400D7
:1017F000ADF810400020ADF81600ADF8120004A9B5
:101800004FF0804002F00EFE684603F040F9602081
:10181000ADF800000120ADF802000020ADF8060090
:10182000ADF8080069464FF0804002F038FE694686
:101830004FF0804002F075FE69464FF0804002F0A4
:10184000BDFE69464FF0804002F003FF0821C80644
:1018500003F074FA0821C80603F079FA0821C806D3
:1018600003F082FA0821C80603F087FA01218807ED
:1018700003F034F906A004F01BFC08B010BD000012
:1018800040000040000801400000002000366E01CA
:10189000B5E7BBFAB3F5CABCBBAFCDEAB3C92E2ED0
:1018A0002E0D0A0070B505460C461021974802F02F
:1018B00078FA284600F0BEF90646204600F0BAF94C
:1018C0001021924802F06BFA304670BD70B50446A4
:1018D00010218E4802F065FA204600F0ABF9002096
:1018E00000F0A8F905461021884802F058FA284669
:1018F00070BD2DE9F04107460D461646102183487C
:1019000002F04FFA384600F095F98046002404E0D2
:10191000285D00F08FF9601CC4B2B442F8DB1021DE
:101920007A4802F03CFA4046BDE8F0812DE9F041EA
:1019300007460D4616461021744802F032FA384622
:1019400000F078F98046002405E0002000F072F9EC
:101950002855601CC4B2B442F7DB10216B4802F07A
:101960001EFA4046BDE8F08170B504460D464FF4BE
:101970008051664802F015FA2A462146A020FFF75A
:10198000B8FF4FF48051614802F009FA70BD1FB5ED
:101990005FA103C9CDE902010024052202A930207C
:1019A000FFF7A7FF052269461020FFF7BFFF00BF22
:1019B00006E01DF80400C22800D003E0601CC4B299
:1019C000052CF6DB00BF052C05D153A004F070FBFD
:1019D000012004B010BD56A004F06AFB0020F8E717
:1019E00010B500F0C5F8FFF7D2FF10BD10B54FF4E9
:1019F0008051464802F0D5F9FF21E220FFF752FF5F
:101A0000052251492A20FFF774FF01212120FFF709
:101A100049FF01212220FFF745FF28212520FFF75C
:101A200041FF20213120FFF73DFF0F212620FFF746
:101A300039FF0F212020FFF735FF4FF48051334845
:101A400002F0ADF941A004F033FB10BD10B54FF426
:101A500080512E4802F0A5F9FF21E120FFF722FF77
:101A6000052241493020FFF744FF052236492A204C
:101A7000FFF73FFF01212120FFF714FF0121222062
:101A8000FFF710FF1A212420FFF70CFF2821252043
:101A9000FFF708FF0F212620FFF704FF0E2120206B
:101AA000FFF700FF4FF48051184802F078F910BD9D
:101AB00010B50720FFF70AFF044614F0400F06D0C8
:101AC00020222A496120FFF731FF04F0BDF82146AA
:101AD0002720FFF7E7FE10BD70B504460720FFF78B
:101AE000F5FE054629462720FFF7DCFE15F0400FDE
:101AF0000AD0202221466120FFF7FBFEFF21E220D1
:101B0000FFF7D0FE002070BD0120FCE70008014077
:101B1000C2C2C2C2C2000000B3F5CABCBBAF4E52C3
:101B20004632344C3031B3C9B9A62E2E2E0D0A00E0
:101B3000B3F5CABCBBAF4E524632344C3031B3F66B
:101B4000B4ED2E2E2E0D0A00250000204E524632F6
:101B5000344C3031C9E8CEAABDD3CAD5C4A3CABD5E
:101B60002E2E2E0D0A000000200000203A01002039
:101B700000B587B00121042002F018FB01210820E4
:101B800002F014FB0121080302F010FBE020ADF885
:101B9000040001208DF8060018208DF8070001A927
:101BA000314802F051F84FF48050ADF804000120A4
:101BB0008DF8060010208DF8070001A92A4802F0D0
:101BC00043F81020ADF8040001208DF80600102025
:101BD0008DF8070001A9244802F036F810212248A8
:101BE00002F0DDF80020ADF808004FF48270ADF887
:101BF0000A000020ADF80C00ADF80E00ADF81000A2
:101C00004FF40070ADF812001020ADF81400002061
:101C1000ADF816000720ADF8180002A9134803F02C
:101C200065FC0121114803F006FD11A004F040FA03
:101C300007B000BD10B5044600BF02210B4803F0F9
:101C40007EFD0028F9D02146084803F025FD00BF9D
:101C50000121064803F073FD0028F9D0034803F082
:101C60001DFDC0B210BD0000000801400030014061
:101C7000535049D7DCCFDFB3F5CABCBBAFCDEAB315
:101C8000C92E2E2E0D0A000010B58B488B494860D6
:101C90008B4848608BA004F00BFA10BD87480069A0
:101CA00040F080008549086170478448C16811F0A0
:101CB000010F01D00120704711F0040F01D0022064
:101CC000F9E711F0100F01D00320F4E70020F2E74C
:101CD00070B5044600BFFFF7E8FF0546012D00D0B0
:101CE00006E00120FEF79FFB601E84B2002CF2D1BB
:101CF00000BF04B9FF25284670BD70B50546002415
:101D000045F6FF70FFF7E4FF0446C4B96B4800696D
:101D100040F002006949086108464561006940F0E9
:101D20004000086145F6FF70FFF7D2FF0446012C22
:101D300005D06248006920F0020060490861204631
:101D400070BD70B505460E46FF20FFF7C1FF044683
:101D500094B95A48006940F00100584908612E8042
:101D6000FF20FFF7B5FF0446012C05D0534800695A
:101D700020F0010051490861204670BD01460888E5
:101D800070472DE9F04105460E461746002407E04E
:101D900036F814102846FFF7D4FFAD1C601C84B23F
:101DA000BC42F5DBBDE8F08130B503460C46154674
:101DB000002207E01846FFF7E1FF24F812009B1C01
:101DC000501C82B2AA42F5DB30BD2DE9F05F80469F
:101DD0008A461746B8F1006F02D34048804501D3C8
:101DE000BDE8F09FFFF750FFA8F1006B4FEA9B257D
:101DF000CBF34809C9F50074A74200DC3C464DE02E
:101E00004FF0006101EB85208A143549FFF7CCFFC4
:101E100000260BE009EB0600314931F81000A0F56F
:101E20007F41FF3900D003E0701C86B2A642F1DB8F
:101E300000BFA6421BDA4FF0006101EB8520FFF7DF
:101E40005CFF002608E03AF8160006EB0901244A78
:101E500022F81100701C86B2A642F4DB4FF000613C
:101E600001EB85208A141E49FFF78BFF04E0224610
:101E700051464046FFF785FFA74200D10FE06D1C99
:101E80004FF000090AEB440AA044381B87B2B7F5AB
:101E9000007F02DD4FF4007400E03C46B0E700BF75
:101EA000FFF7FCFE00BF9BE713B50446012201A922
:101EB0002046FFF78AFF1CBD230167450020024032
:101EC000AB89EFCDC4DAB2BF464C415348BDE2CB3B
:101ED000F8CDEAB3C92E2E2E0D0A0000000001082D
:101EE0007A010020014600BF704700BF884A12886F
:101EF00012F0400FFAD0C2B2854B1B1D1A807047FA
:101F000008B525208DF8000000208DF801008DF81F
:101F1000020001208DF80300684601F0CCFD08BDE9
:101F20002DE9F05F05460E46300106F0FDFC8146C6
:101F3000784905FB01F006F0F7FC8246494606F0B9
:101F4000DDFB0746384606F0B7FC84B2204606F0B3
:101F5000EBFC8346394606F02CFE82464FF0834167
:101F600006F02AFD814606F0A7FC80464FF6FF707A
:101F700000EA041404EB080084B26748806940F06A
:101F80000400654988610846806940F480408861A2
:101F90006248006820F47F60604908600846006875
:101FA00040F40B6008605C48C06840F480405A49C7
:101FB000C8600846C06820F48040C86054480830B3
:101FC0000480001D008842F20C01084350490C3186
:101FD00008800846008840F4807008800846008821
:101FE00040F020000880FFF78BFF00204C4908805C
:101FF00048801F2088804B48886000204A4908801C
:1020000048807F20888049488860294648A004F09D
:102010004FF831464CA004F04BF8BDE8F09F028821
:1020200083881A40836899540288521C0280704742
:1020300010B5044621463A48FFF7F1FF012240F26D
:102040002771334803F003F910BD10B5044621464B
:102050003348FFF7E4FF012240F227712C4803F0D8
:10206000F6F8204610BD01464A888B881A408B68D6
:10207000985C4A88521C4A807047014608884A8802
:10208000801A8A881040704710B540F227712048A6
:1020900003F0C2F990B12248FFF7E5FF044621465C
:1020A0001B4803F035F91E48FFF7E7FF70BB00221D
:1020B00040F22771164803F0CAF827E040F2255194
:1020C000134803F0A9F908B3114803F025F925498D
:1020D0000870084601781448FFF7A1FF1248FFF77F
:1020E000CCFF18B945210A4803F012F90E48FFF752
:1020F000C4FF0D498988884203D14621044803F072
:1021000007F940F22551024803F0B0F910BD000074
:102110000038014040420F00001002400408014016
:102120007C0500201406002088050020940500206E
:10213000CFB5CDB3CAB1D6D3C6B5C2CAA3BA25648A
:102140004D487A200D0A0000B4AEBFDA31B3F5CAAB
:10215000BCBBAFB2A8CCD8C2CAA3BA2564200D0AB2
:10216000000000003000002010B59648806940F063
:102170000800944988619448006820F00F00924953
:1021800008609048806940F400708E498861084674
:10219000C06840F40070C8600846C06820F4007051
:1021A000C8600846406820F44040486008464068DF
:1021B00040F40040486085480068854908408349EC
:1021C00008600846006808600846006820F48070CF
:1021D0000860081D006820F00200091D086008461C
:1021E000006820F4602008600846006840F4602021
:1021F00008600846006840F48010086008460068DF
:1022000020F4006008600846006840F400000860A0
:102210006E482830006820F470006C49283108604E
:10222000084600680020086068480C30006820F00C
:10223000380066490C3108600846006840F03800F4
:102240000860081F006820F4E010091F08600846B5
:10225000006840F4E0100860081F006840F00100CA
:10226000091F08600846006840F00800086000BFC9
:102270005648001D006810F0080FF9D15348001DA2
:10228000006840F004005149091D086000BF4F4834
:10229000001D006810F0040FF9D14E484E498860C7
:1022A0004E4808614E48C8600A461169906806F0B9
:1022B00025FA494948614FF4FA60886149A003F062
:1022C000F7FE10BD014641483030006820F01F0085
:1022D0003E4A3032106010460068084310603B48A8
:1022E000001D006840F48000384A121D106000BFD5
:1022F0003648001F006810F0020FF9D0334848300C
:10230000006880B2704770B506460B460024002571
:1023100005E03046FFF7D6FF0444681CC5B29D4275
:10232000F7DBB4FBF3F080B270BD2DE9FE4F002463
:10233000A14608E01020FFF7C5FF204484B209F150
:10234000010000F0FF09B9F1140FF3DB142094FB36
:10235000F0F084B2204606F0E7FA824606F034F93F
:1023600007464FF06632254B05F01EFE054605F088
:1023700053FB0290029806F027F90546204A214BAC
:1023800005F046FF0746204A204B05F033FC0022AB
:102390001F4BCDE9000105F071FB824605F03CFBC7
:1023A00002901C49029806F007FB0290029806F082
:1023B00067FABDE8FE8F00B505210820FFF7A3FFEF
:1023C00000BD000000100240000C01400424014048
:1023D000FFFFF000CDCC7C4034060020A470FD3F10
:1023E000D7A35040B5E7D1B9BCE0B2E24144B3F560
:1023F000CABCCDEAB3C92E2E2E0D0A0066664A3F2E
:10240000E17A14AE47E1F63F22FDF675E09C713F9C
:10241000000039400000204102468A4201DA10469D
:1024200070470846FCE72DE9F047A6B0002592A0CA
:1024300003F03EFE98A003F03BFEFEF7A9F8322021
:10244000FDF7D6FF99A003F033FE0020FEF7BCF89D
:102450009BA003F02DFEA1A003F02AFE012211464D
:102460001020FEF71EF9A3A003F022FE0620FEF7BF
:102470002AF9A7A003F01CFEFEF72DF9AAA003F08D
:1024800017FE002211461046FEF70BF9AAA003F032
:102490000FFEFEF71EFBAEA003F00AFEFEF722FBC6
:1024A0000746FEF734FB8046FEF746FB8146AEA0AA
:1024B00003F0FEFD7F210020FEF753FBB1A003F0E7
:1024C000F7FD0020FEF79CF80120FEF7A2F8B3A06C
:1024D00003F0EEFD68210020FEF743FBB6A003F0F9
:1024E000E7FDFEF74EFB1420FDF782FFB9A003F0D5
:1024F000DFFD012000231A4640F289710090BD489B
:10250000FEF7BFF9002877D0BBA003F0D1FDC1A032
:1025100003F0CEFDC5A003F0CBFDC021CD48FEF7F2
:10252000C3F9002869D0CCA003F0C2FDD1A003F00C
:10253000BFFD0320FEF722F8D5A003F0B9FD12205D
:10254000FEF7BBF9D9A003F0B3FD0420FEF7BDF9F7
:10255000DDA003F0ADFD0120FEF7C9F9E3A003F013
:10256000A7FD0320FEF7B9F9E6A003F0A1FD0320C3
:10257000FEF716F8EDA003F09BFD0320FEF7C1F96E
:102580000020FEF7C6F9EFA003F092FD0020FEF751
:10259000C8F9F1A003F08CFD3846FEF7ADFA4046CD
:1025A000FEF7BFFA4846FEF7D1FAF3A003F080FD2C
:1025B000002407E0F848405D22A90855601CC4B219
:1025C000681C85B2042CF5DB9DF88A00C01CA04273
:1025D000F0DC00200121CDE900109DF889309DF844
:1025E00088209DF88A100DF18B00FEF7ABF8EBA068
:1025F00003F05EFD002409E044E33CE3E648405D6F
:1026000022A90855601CC4B2681C85B2042CF5DBF5
:102610009DF88A00C01CA042F0DC002000900190D0
:102620009DF889309DF888209DF88A100DF18B0067
:10263000FEF788F8E1A003F03BFDFEF7C1F9E4A046
:1026400003F036FDFEF7C4F9C6B2314602A8FEF724
:1026500027FAE5A003F02CFD0220FEF7C7F9E9A058
:1026600003F026FD9C20FEF7C9F9EEA003F020FD43
:102670005020FEF7CBF9E7E10D0A3D3D3D3D3D3DE4
:102680003DC5E4D6C3444D50D2FDC7E63D3D3D3D7A
:102690003D3D3D3D3D0D0A00B8B4CEBB4D505536D5
:1026A0003035302E2E2E0D0A00000000BDFBD6B9AD
:1026B000D0DDC3DFC4A3CABD2E2E2E0D0A0000003C
:1026C0000D0AB6C1C8A14D505536303530D3B2BC15
:1026D000FEB0E6B1BE2E2E2E0D0A0000D5FDD4DAD6
:1026E000D1A1D4F1D3C3BBA7C4DAB4E6BFE92E2E7F
:1026F0002E0D0A00D5FDD4DAD1A1D4F1D3C3BBA7E6
:10270000C4DAB4E6D7D6BDDA2E2E2E0D0A000000AC
:10271000D5FDD4DABCECB2E9D3B2BCFEB0E6B1BEB2
:102720002E2E2E0D0A000000B8B4CEBBC4DAB4E6DB
:10273000BFE92E2E2E0D0A00B6C1C8A14F5450BFBE
:10274000E9D3D0D0A7B1EAD6BE2E2E2E0D0A0000B6
:10275000B6C1C8A1BCD3CBD9B6C8C6ABD2C6D6B554
:102760002E2E2E0D0A000000C9E8D6C3B4D3C6F73A
:10277000BCFEB5D8D6B7CEAA307837462E2E2E0D51
:102780000A000000BDFBD6B9494943D6F7C6F7BCDD
:10279000FEC4A3CABD2E2E2E0D0A0000C9E8D6C362
:1027A000B4D3C6F7BCFEB5D8D6B7CEAA3078363883
:1027B0002E2E2E0D0A000000B8B4CEBB494943D6D8
:1027C000F7C6F7BCFEBFD8D6C6C8A82E2E2E0D0A57
:1027D00000000000D5FDD4DAD0B4C8EB444D50B4AD
:1027E000FAC2EBB6CEB5BD4D505536303530200D62
:1027F0000A000000C0900008444D50B4FAC2EBD06B
:10280000B4C8EBD0A3D1E9B3C9B9A62E2E2E0D0AB8
:1028100000000000C5E4D6C3444D50BACDD3D0B9B2
:10282000D8C9E8D6C32E2E2E0D0A0000D5FDD4DA65
:10283000D0B4C8EB444D50C5E4D6C3B4FAC2EBB52E
:10284000BD4D505536303530C4DAB4E62E2E2E0D3F
:102850000A00000049980008444D50C5E4D6C3B4AE
:10286000FAC2EBD0B4C8EBD0A3D1E9B3C9B9A60D75
:102870000A000000C9E8D6C35AD6E1BDC7CBD9B615
:10288000C8CAB1D6D3D4B42E2E2E0D0A0000000033
:10289000CAB9C4DC444D50D2FDC7E6BACD4649465C
:1028A0004FD6D0B6CF2E2E2E0D0A0000C9E8D6C3C3
:1028B000444D50B2C9D1F9C2CACEAA323030487A9A
:1028C0002E2E2E0D0A000000C9E8D6C3CDE2B2BFFD
:1028D000CDACB2BDD6A1B5BD54454D505F4F55549A
:1028E0005F4C5B305D2E2E2E0D0A0000C9E8D6C36A
:1028F000444C5046B4F8BFEDCEAA3432487A2E2E5E
:102900002E0D0A00C9E8D6C3BDC7CBD9B6C8BEAB29
:10291000B6C8CEAA202B2F2D20323030302064654F
:10292000672F7365632E2E2E0D0A0000C9E8D6C3EB
:10293000444D50C5E4D6C3D7D6BDDA2E2E2E0D0A8F
:1029400000000000C7E5B3FE4F5450BFE9B1EAD61E
:10295000BE2E2E2E0D0A0000C9E8D6C3582F592FBF
:102960005AD6E1BDC7CBD9B6C8CEAACFC8C7B0D654
:10297000B52E2E2E0D0A0000D0B4C8EBD7EEBAF358
:10298000C4DAB4E6B8FAD0C2B5BD20312F37202E54
:102990002E2E0D0A0000000009990008D0B4C8EBE3
:1029A000D7EEBAF3C4DAB4E6B8FAD0C2B5BD203275
:1029B0002F37202E2E2E0D0A00000000D5FDD4DA70
:1029C000B8B4CEBB4649464F2E2E2E0D0A0000004D
:1029D000D5FDD4DAB6C1C8A14649464FBCC6CAFD2A
:1029E0002E2E2E0D0A000000D5FDD4DAC9E8D6C37C
:1029F000D4CBB6AFE3D0D6B5CEAA322E2E2E0D0A4A
:102A000000000000D5FDD4DAC9E8D6C330D4CBB677
:102A1000AFBCECB2E2E3D0D6B5CEAA3135362E2E1D
:102A20002E0D0A00D5FDD4DAC9E8D6C3D4CBB6AF93
:102A3000BCECB2E2B3D6D0F8CAB1BCE4CEAA38300E
:102A40002E2E2E0D0A000000F0A003F031FB002016
:102A5000FDF7E4FFAFF2980003F02AFBFDF7B0FFAB
:102A6000F3A003F025FB0120FEF793F8F5A003F097
:102A70001FFB0120FEF724F8F7A003F019FBFEF777
:102A800091F8F9A003F014FB002407E0FE48405D34
:102A900022A90855601CC4B2681C85B2042CF5DB61
:102AA0009DF88A00C01CA042F0DC0020009001903C
:102AB0009DF889309DF888209DF88A100DF18B00D3
:102AC000FDF740FEF1A003F0F3FA002407E0EE4822
:102AD000405D22A90855601CC4B2681C85B2042C54
:102AE000F5DB9DF88A00C01CA042F0DC00200090BD
:102AF00001909DF889309DF888209DF88A100DF18D
:102B00008B00FDF71FFEE9A003F0D2FA002407E0D6
:102B1000DD48405D22A90855601CC4B2681C85B21E
:102B2000042CF5DB9DF88A00C01CA042F0DC0020DC
:102B3000009001909DF889309DF888209DF88A10BA
:102B40000DF18B00FDF7FEFDE0A003F0B1FA00BF30
:102B5000FDF73EFFC0B206460328F9DBE1A003F013
:102B6000A7FA80213046FFF757FC8246514602A85B
:102B7000FDF796FFDFA003F09BFAFDF79BFFE2A0B5
:102B800003F096FA002407E0BF48405D22A90855EB
:102B9000601CC4B2681C85B2042CF5DB9DF88A0069
:102BA000C01CA042F0DC9DF889309DF888209DF87B
:102BB0008A100DF18B00FDF739FFC4A003F078FAFD
:102BC00000BFFDF705FFC0B206460328F9DBD6A01B
:102BD00003F06EFA80213046FFF71EFC8246514614
:102BE00002A8FDF75DFFD5A003F062FAFDF762FFD2
:102BF000D8A003F05DFA002407E0A348405D22A9B5
:102C00000855601CC4B2681C85B2042CF5DB9DF825
:102C10008A00C01CA042F0DC0020009001909DF8CA
:102C200089309DF888209DF88A100DF18B00FDF702
:102C300089FDD0A003F03CFAD4A003F039FA0020BB
:102C4000FDF73EFFD6A003F033FA2A20DB490880C7
:102C5000DBA003F02DFAFDF7B3FEFDF72BFFE0A09C
:102C600003F026FA0120FDF72BFFE2A003F020FA83
:102C7000FDF720FF0BE0E9A003F01AFA022026B0CE
:102C8000BDE8F087ECA003F013FA0120F7E7EFA00E
:102C900003F00EFA0020F2E72DE9F041044600BFF0
:102CA00024F00040C0F1FF40C00F10B10020BDE88B
:102CB000F081204605F088FC05460022EC4B05F02B
:102CC00071FA01D8EB48F2E7204605F07DFC054695
:102CD0000022E94B05F02CF901D8E848E7E7204647
:102CE00005F072FC054604F049FB074604F094FE2B
:102CF000DDE72DE9F04704464FF07C51204605F012
:102D00005BFE814625462E46DD48A0EB660635462D
:102D10002946484605F050FE8246294605F04CFEFD
:102D200080464FF07F5105F044FF0746294605F0E5
:102D300043FE05462846BDE8F08700B599B0D14866
:102D4000B0F91000129005F0D7FDCF49139005F0AF
:102D5000D5FCCC4988630846B0F91400129005F000
:102D6000CBFDC949139005F0C9FCC649C8630846A4
:102D7000B0F91800129005F0BFFDC349139005F09B
:102D8000BDFCC04908640846B0F91C00119005F06C
:102D9000B3FD4FF08C41129005F0B0FCBB4913908D
:102DA00005F00AFEB74948640846B0F920001190C2
:102DB00005F0A2FD4FF08C41129005F09FFCB34945
:102DC000139005F0F9FDAF4988640846B0F9240076
:102DD000119005F091FD4FF08C41129005F08EFCA2
:102DE000AA49139005F0E8FDA649C8640846B0F961
:102DF0000000139005F080FD1590A248B0F9040082
:102E0000139005F079FD16909E4841E1D5FDD4DA86
:102E1000C9E8D6C330D4CBB6AFBCECB2E2B3D6D09F
:102E2000F8CAB1BCE4CEAA302E2E2E0D0A00000046
:102E3000D5FDD4DACAB9C4DC4649464F2E2E2E0D34
:102E40000A000000D5FDD4DACAB9C4DC444D502EC6
:102E50002E2E0D0A00000000B8B4CEBB444D5044E5
:102E60004D502E2E2E0D0A00D0B4C8EBD7EEBAF37B
:102E7000C4DAB4E6B8FAD0C2B5BD20332F37202E5D
:102E80002E2E2E2E2E0D0A0009990008D0B4C8EB64
:102E9000D7EEBAF3C4DAB4E6B8FAD0C2B5BD20347E
:102EA0002F37202E2E2E2E2E2E0D0A00D0B4C8EB3A
:102EB000D7EEBAF3C4DAB4E6B8FAD0C2B5BD20355D
:102EC0002F37202E2E2E2E2E2E0D0A00B5C8B4FD23
:102ED0004649464FBCC6CAFD3E3D322E2E2E0D0A37
:102EE00000000000B8B4CEBB204649464F2E2E2E1F
:102EF0000D0A0000B6C1C8A1D6D0B6CFD7B4CCACAD
:102F00002E2E2E0D0A000000D0B4C8EBD7EEBAF377
:102F1000C4DAB4E6B8FAD0C2B5BD20362F37202EB9
:102F20002E2E2E2E2E0D0A00D5FDD4DAB6C1C8A144
:102F30004649464F2E2E2E0D0A000000D5FDD4DA4C
:102F4000B6C1C8A1D6D0B6CFD7B4CCAC2E2E2E0DDC
:102F50000A000000D0B4C8EBD7EEBAF3C4DAB4E686
:102F6000B8FAD0C2B5BD20372F37202E2E2E2E2EE8
:102F70002E0D0A00444D50C9E8D6C3D2BBC7D0D5E8
:102F8000FDB3A32E2E2E0D0A00000000B9D8B1D536
:102F9000444D50D2FDC7E62E2E2E0D0A0000000033
:102FA000C9E8D6C3C4DAB2BF3432D7D6BDDABBBAA9
:102FB000B3E5B0FC2E2E2E0D0A0000003C000020D0
:102FC000D7EEBAF3D2BBB4CEB8B4CEBB4649464F67
:102FD000BACDD6D0B6CFD7B4CCAC2E2E2E0D0A009B
:102FE000B4F2BFAA444D50D2FDC7E62E2E2E0D0AD4
:102FF00000000000444D50D2FDC7E6D7BCB1B8BEBA
:10300000CDD0F72CB5C8B4FDB5DAD2BBB4CECAFD6D
:10301000BEDDD6D0B6CF2E2E2E0D0A00444D50D296
:10302000FDC7E6C5E4D6C3D0A3D1E9B3F6B4ED2E0F
:103030002E2E0D0A00000000444D50B4FAC2EBD011
:10304000A3D1E9B3F6B4ED2E0D0A00003D3D3D3DA0
:103050003D3D444D50D2FDC7E6B3F5CABCBBAFCD34
:10306000EAB3C93D3D3D3D3D3D3D3D0D0A000000FB
:103070000000F03FDA0FC93F0000F0BFDA0FC9BF10
:10308000DF59375F5C06002033338341EC51144134
:10309000B0F90800139005F02FFC1790E248B0F942
:1030A0000C00139005F028FC1890189810901898B0
:1030B0000F90109905F080FC129017980E901798B9
:1030C0000D900E9905F078FC109016980C901698BB
:1030D0000B900C9905F070FC0E9015980C901598BB
:1030E0000B900C9905F068FC0D900E9905F098FA7C
:1030F0000F90109905F094FA1190129905F090FA3A
:103100001390FFF7F6FD149015981390149905F09D
:1031100053FC159016981390149905F04DFC1690D9
:1031200017981390149905F047FC1790189813906E
:10313000149905F041FC1890179802901798019087
:10314000029905F039FC04901698029016980190A7
:10315000029905F031FC0390049905F061FA05909D
:1031600005F032FA00224FF08043CDE9060104F069
:103170001BFF0022AD4BCDE9080105F049F8CDE970
:103180000C011898049017980390049905F014FC0A
:1031900006901698049015980390049905F00CFC7D
:1031A0000590069905F03CFA079005F00DFA00220B
:1031B0004FF08043CDE9080104F0F6FECDE90A01A5
:1031C000DDE90C2304F02AFB0022994BCDE90E0126
:1031D00004F0EAFE4FF08042964BCDE9100104F076
:1031E00009FDCDE9120104F017FC8F490863169818
:1031F000089018980790089905F0DEFB0A90179838
:10320000089015980790089905F0D6FB09900A993F
:1032100005F0DAFC0B9005F0D7F900224FF080435F
:10322000CDE90C0104F0C0FECDE90E0104F0F4FB81
:103230001190FFF731FD8049129005F0BDFB7F49E9
:10324000139005F05BFA7849C862189802901898B4
:103250000190029905F0B0FB04901798029017981E
:103260000190029905F0A8FB0390049905F0D8F9A4
:10327000059005F0A9F900224FF08043CDE9060141
:1032800004F092FE0022694BCDE9080104F0C0FF72
:10329000CDE90C011798049016980390049905F055
:1032A0008BFB06901898049015980390049905F0EC
:1032B00083FB0590069905F0B3F9079005F084F9B2
:1032C00000224FF08043CDE9080104F06DFECDE906
:1032D0000A01DDE90C2304F0A1FA81F0004100228B
:1032E000534BCDE90E0104F05FFE4FF08042514B8D
:1032F000CDE9100104F07EFCCDE9120104F08CFB55
:10330000494948630846B0F91000109005F0F4FAF6
:103310004FF07E51119005F04FFB13904848016823
:10332000002005F049FB1290139905F079F9454901
:10333000086008460068424908603B48B0F914003C
:10334000109005F0D9FA4FF07E51119005F034FB42
:1033500013903D480168002005F02EFB1290139950
:1033600005F05EF93949086008460068364908608A
:1033700019B000BD70B52C4D00BFFDF7F5F828B9A8
:1033800033480088334909888842F6DBFDF792FB11
:1033900031490870FDF71CFB2D4908802E48007844
:1033A00010F0100F04D108460088B0F5806F02D1EC
:1033B000FDF706FB2CE02848007810F0020F27D01C
:1033C00003E0FDF705FB22490880214800882149D8
:1033D00009888842F5DB1F4801782048FDF760FB2B
:1033E0001B4800881B490988401A19490880002495
:1033F00008E01A49601C085C28550846015D601CFD
:103400002954A41C134800888442F2DBFFF795FC82
:1034100070BD0548406B124988600348C06A486027
:103420000148006B086070475C0600200000F03F18
:1034300000806640FB21094000003443DA0F494018
:103440003400002058000020380000205C000020DC
:10345000400000203C0000203E000020AC06002080
:103460005006002010B55248806940F008005049CD
:1034700088615048006820F470604E490860084632
:10348000006840F4407008604A480C30006840F022
:10349000040048490C3108600421464800F081FCD2
:1034A00045A002F005FE10BD70B50546002404E0FD
:1034B000002048490855601CC4B2142CF8DB4FF4B6
:1034C0004870FCF795FF002404E0285DFEF7B0FD8E
:1034D000601CC4B2284602F0E4FEA042F5D84FF4C6
:1034E0004870FCF785FF002407E03B48FEF7BBFD72
:1034F0002146621CD4B2374A50543748FEF7BDFD0E
:103500000028F2D170BD70B50546002407E03148AF
:10351000005D295D884200D006E0601CC4B22846E8
:1035200002F0BFFEA042F2D800BF284602F0B9FE6A
:10353000A04201D0002070BD0120FCE710B504219D
:103540001C4800F02CFC25A002F0B2FD40F2DC503B
:10355000FCF74EFF28A002F0ABFD2C48FFF7A4FFBC
:103560002B48FFF7D0FF01281ED12A48FFF79CFF08
:103570002948FFF7C8FF10B92848FFF795FF2848EA
:10358000FFF792FF2748FFF7BEFF10B92648FFF765
:103590008BFF2648FFF788FF2548FFF7B4FF30B9B7
:1035A0002448FFF781FF02E023A002F081FD10BD57
:1035B00000100240000C0140C0B6D1C0B5E7D4B441
:1035C000B3F5CABCBBAFB9D8B1D5CDEAB3C92E2EBD
:1035D0002E0D0A00EC06002088050020C0B6D1C0E0
:1035E000B5E7D4B4B3F5CABCBFAAC6F4CDEAB3C933
:1035F0002E2E2E0D0A000000D3EBC0B6D1C0CDA8F0
:10360000D0C5D6D02E2E2E0D0A0000003899000805
:103610003B9900088999000892990008A19900082F
:103620003E99000847990008599900086A990008CE
:10363000729900087E990008D3EBC0B6D1C0CDA81E
:10364000D0C5CAA7B0DC0D0A00000000092000F0B8
:10365000A9F84FF4E13119480078FEF761FC00F059
:103660003DF8FEF711FBFCF70FFF14480078FCF75C
:103670009FFEFFF7F7FEFEF794F8FEF775FDFDF7E6
:103680009BFAFEF7D0FE02F058FA02F04BFA02F075
:1036900054FAFEF7A5F9FEF7A9F900F0CBF84FF4BC
:1036A0007A7106480078FDF791FE4FF47A7103486D
:1036B0000078FDF760FE00BFFEE70000420000203A
:1036C000704700BFFEE700BFFEE700BFFEE700BF98
:1036D000FEE77047704770477047000010B5FEF76F
:1036E00007F8FEF70DFC10BD0020D0490861C86046
:1036F0001420486100208861C8610846006840F0D5
:103700000100086008464068C9490840C749486048
:1037100008460068C7490840C44908600846006870
:1037200020F4802008600846406820F4FE004860CD
:103730000020886070470146BC48006840F00100E6
:10374000BA4A10601046006810601046006840F4E5
:103750008020106000BFB548006810F0020FFAD05A
:10376000B2484268881E42EA8040B04A5060104623
:10377000406850601046006840F08070106000BFE4
:10378000AA48006810F0007FFAD0A848406840F0CE
:103790000200A64A50608806000EA74A1070104624
:1037A0000078704700B502460023FFF79DFF9F4851
:1037B000006840F480309D49086000BF9B48006865
:1037C000400CFBD04FF4806098494860901EC2B214
:1037D0000846406840EA824048600846406840F435
:1037E000803048609548006840F032009349086096
:1037F0008E48006840F080708C49086000BF8B489C
:103800000068400EFBD08948406840F002008749BC
:10381000486005E085484068C0F3870303F0030370
:10382000022BF7D1901CC006000E83490870084691
:10383000007800BD10B52EE0FEF73AF980A002F046
:1038400037FC4FF40061834800F0A9FA4FF480710F
:10385000804800F0A4FA02217F4800F0A0FA082175
:103860007D4800F09CFA7D48FCF7F8FD4FF40061BC
:10387000784800F096FA4FF48071764800F091FA9B
:103880000221754800F08DFA0821734800F089FA8A
:103890007348FCF7E3FD7348807FA528CCD172A064
:1038A00002F006FC002455E04FF40061694800F086
:1038B00076FA4FF48071674800F073FA0221664887
:1038C00000F06FFA0821644800F06BFA6348FCF7D7
:1038D000C5FD4FF400615F4800F063FA4FF480715A
:1038E0005C4800F05CFA02215B4800F05AFA0821BB
:1038F000594800F056FA5948FCF7B0FD4FF4006102
:10390000544800F04EFA4FF48071524800F049FAE2
:103910000221514800F043FA08214F4800F041FAD3
:103920004E48FCF79BFD4FF400614A4800F039FA1D
:103930004FF48071474800F034FA0221464800F005
:1039400030FA0821444800F02AFA4448FCF786FD82
:10395000601CC4B2042CA7DB2FE0FEF7A9F848A036
:1039600002F0A6FB4FF400613A4800F018FA4FF459
:103970008071384800F013FA0221374800F00FFA3E
:103980000821354800F00BFA6420FCF767FD4FF47E
:103990000061304800F005FA4FF480712D4800F0C6
:1039A00000FA02212C4800F0FCF908212A4800F016
:1039B000F8F942F22830FCF751FD2A48C07EA528CC
:1039C000CBD100242BE04FF40061224800F0E7F94E
:1039D0004FF480711F4800F0E2F902211E4800F008
:1039E000DEF908211C4800F0DAF91C48FCF736FD26
:1039F0004FF40061174800F0D4F94FF48071154876
:103A000000F0CFF90221144800F0CBF90821124848
:103A100000F0C7F91148FCF721FD601CC4B2032C6B
:103A2000D1DB1BA002F044FB10BD000000100240DF
:103A30000000FFF8FFFFF6FE4200002000200240D9
:103A4000B5C8B4FDD2A3BFD8BDD3C8EB2E2E2E0D62
:103A50000A00000000080140000C0140A0BB0D005E
:103A6000E03229003A010020D2D1BCECB2E2B5BD6F
:103A7000D2A3BFD8D0C5BAC52E2E2E0D0A00000085
:103A8000B5C8B4FDBDE2CBF82E2E2E0D0A00000005
:103A9000BDE2CBF8B3C9B9A62CBDF8C8EBB7C9D005
:103AA000D0C4A3CABD2E2E2E0D0A000031490143F9
:103AB000314A1160704770B5002100230F22C4788D
:103AC0000CB32D4C246804F4E064C4F5E064210ACE
:103AD000C1F10403CA40447804FA03F18478144025
:103AE00021430901254C0678A155047804F01F05EF
:103AF0000124AC4005786D114FF0E02606EB8505FA
:103B0000C5F8004109E0047804F01F050124AC4029
:103B10001B4D0678761145F8264070BD194A0A40BB
:103B20000243154B1B1F1A60704739B1124A121D10
:103B300012680243104B1B1D1A6006E00E4A121D4C
:103B4000126882430C4B1B1D1A607047042808D171
:103B50004FF0E021096941F004014FF0E0221161CA
:103B600007E04FF0E021096921F004014FF0E02265
:103B7000116170470000FA050CED00E000E400E080
:103B800080E100E080FFFF1F10B50446CA48844270
:103B900008D10121042000F023FB0021042000F0C3
:103BA0001FFB46E0C548844208D10121082000F0EF
:103BB00017FB0021082000F013FB3AE0C0488442C4
:103BC00008D10121102000F00BFB0021102000F093
:103BD00007FB2EE0BB48844208D10121202000F0E1
:103BE000FFFA0021202000F0FBFA22E0B6488442D0
:103BF00008D10121402000F0F3FA0021402000F01C
:103C0000EFFA16E0B148844208D10121802000F08B
:103C1000E7FA0021802000F0E3FA0AE0AC48844291
:103C200007D10121801500F0DBFA0021A01500F07A
:103C3000D7FA10BD10B50121084600F0D1FA0021D5
:103C4000012000F0CDFA10BD2DE9F041024600251B
:103C50000026002000230024002791F803C00CF068
:103C60000F0591F803C01CF0100F03D091F802C0AB
:103C70004CEA050591F800C0BCF1000F31D0146882
:103C800000202BE04FF0010C0CFA00F3B1F800C05B
:103C90000CEA03069E4220D183004FF00F0C0CFA71
:103CA00003F7BC4305FA03FC4CEA040491F803C093
:103CB000BCF1280F06D14FF0010C0CFA00FCC2F841
:103CC00014C00AE091F803C0BCF1480F05D14FF0D1
:103CD000010C0CFA00FCC2F810C0401C0828D1D31B
:103CE0001460B1F800C0BCF1FF0F34DD546800204F
:103CF0002EE000F1080C4FF0010808FA0CF3B1F8BF
:103D000000C00CEA03069E4221D183004FF00F0C45
:103D10000CFA03F7BC4305FA03FC4CEA040491F8DF
:103D200003C0BCF1280F05D100F1080C08FA0CF80B
:103D3000C2F8148091F803C0BCF1480F07D100F11C
:103D4000080C4FF0010808FA0CF8C2F81080401C6B
:103D50000828CED35460BDE8F0814FF6FF71018092
:103D6000022181700421C1707047024600209368CF
:103D70000B4201D0012000E0002070470146886816
:103D800080B2704702460020D3680B4201D0012068
:103D900000E0002070470146C86880B270470161AA
:103DA0007047416170470AB1016100E041617047AD
:103DB000C16070474FF480320A4382618161826141
:103DC00082698269704702460020424B18684FF6AC
:103DD0008073184040EA021008433E4B1860704759
:103DE0003D49C8617047F0B50A4600230024002110
:103DF000002500F00046B6F1004F02D1354EF169C2
:103E000001E0344E7168C0F3034583B200F44016FC
:103E1000B6F5401F08D121F070612E4E766826F06D
:103E200070662C4F7E6012E000F48016B6F5801F9D
:103E300006D1032606FA05F4A14341F0706106E0BD
:103E4000460D360103FA06F6B14341F0706122B126
:103E5000460D360103FA06F6314300F00046B6F18E
:103E6000004F02D11B4EF16101E01A4E7160F0BDAE
:103E700030B500228B071C0F0F2303FA04F2154BF9
:103E800008338C1053F824309343124C08348D10AF
:103E900044F8253023468C1053F824308C07240F27
:103EA00000FA04F423430B4C08348D1044F82530F9
:103EB00030BD0A490860704700080140000C01400D
:103EC000001001400014014000180140001C014096
:103ED000002001400000014000002042DC002042A0
:103EE000DB48006840F00100D94908600846406896
:103EF000D8490840D649486008460068D649084075
:103F0000D34908600846006820F48020086008460D
:103F1000406820F4FE0048604FF41F00886070473E
:103F2000CB49096821F48031C94A116011460968FA
:103F300021F480211160B0F5803F03D0B0F5802FCF
:103F40000ED106E0C249096841F48031C04A1160CF
:103F500007E0BF49096841F4A021BD4A116000E0B3
:103F600000BF00BF704710B50146002200230020AB
:103F70004A11012A02D1B64C236806E0022A02D176
:103F8000B34C236A01E0B24C636A01F01F020124C2
:103F900094401C4201D0012000E0002010BD70B50B
:103FA00000240025002600BF3120FFF7DCFF064675
:103FB000641CB4F5A06F01D0002EF5D03120FFF7BE
:103FC000D2FF08B1012500E00025284670BD01465A
:103FD00000209F4A106820F0F80040EAC1001060FD
:103FE00070479E490860704702460020984B586809
:103FF00020F47C1042EA01031843954B5860704747
:1040000096490866704701460020914A506820F0A2
:1040100003000843506070478D48406800F00C0072
:104020007047014600208A4A506820F0F00008439B
:104030005060704701460020854A506820F4E060D7
:1040400008435060704701460020814A506820F4C0
:10405000605040EAC1005060704729B17C4A527AF2
:1040600002437B4B5A7204E0794A527A8243784B7E
:104070005A7270477A490860704701460020744AB6
:10408000506820F440400843506070470021754A52
:1040900011706F4A82F82010012802D0042808D13C
:1040A00003E001216F4A117004E005216D4A11708F
:1040B00000E000BF00BF70476B490860704764496B
:1040C000096A0143624A11627047674944390860CE
:1040D000704730B500210022002400235C4D6D683C
:1040E00005F00C0121B1042905D0082923D105E0F0
:1040F0005E4D056022E05D4D05601FE0544D6D682A
:1041000005F47012524D6D6805F48034022505EBFC
:1041100092421CB9564D554305600BE04C4D6D68FD
:1041200015F4003F03D0524D5543056002E04F4D5A
:104130005543056002E04D4D056000BF00BF444D92
:104140006D6805F0F00109094A4D6B5C0568DD40BA
:1041500045603F4D6D6805F4E061090A454D6B5CB3
:104160004568DD4085603A4D6D6805F46051C90AC7
:10417000404D6B5C4568DD40C560354D6D6805F4AC
:104180004041890B3C4D6B5CC568B5FBF3F505619F
:1041900030BD29B12E4A526902432D4B5A6104E0C9
:1041A0002B4A526982432A4B5A61704729B1284AE7
:1041B00092690243264B9A6104E0254A9269824340
:1041C000234B9A61704729B1214AD2690243204B9F
:1041D000DA6104E01E4AD26982431D4BDA617047FE
:1041E00029B11B4AD2680243194BDA6004E0184A2D
:1041F000D2688243164BDA60704729B1144A1269BB
:104200000243134B1A6104E0114A12698243104BB6
:104210001A61704714494039086070470F49C864F3
:1042200070470B49C87170470948406A40F0807078
:1042300007494862704701460020054A92680A42D1
:1042400001D0012000E000207047014988727047CA
:10425000001002400000FFF8FFFFF6FE000042429F
:10426000D8004242201002408004424200127A00EC
:1042700000093D00430000205300002010B5044613
:10428000FE48844208D10121C014FFF7A9FF002194
:10429000E014FFF7A5FFC4E0B4F1804F08D101217D
:1042A0000846FFF7AAFF00210120FFF7A6FFB8E0AC
:1042B000F348844208D101210220FFF79EFF00212C
:1042C0000220FFF79AFFACE0EE48844208D10121BA
:1042D0000420FFF792FF00210420FFF78EFFA0E0EB
:1042E000E948844208D101210820FFF786FF002118
:1042F0000820FFF782FF94E0E448844208D10121BE
:104300001020FFF77AFF00211020FFF776FF88E0EA
:10431000DF48844208D101212020FFF76EFF0021F1
:104320002020FFF76AFF7CE0DA48844208D10121AF
:104330004014FFF755FF00216014FFF751FF70E0B4
:10434000D548844209D10121C804FFF749FF002163
:104350004FF40020FFF744FF63E0D048844209D1C6
:1043600001210805FFF73CFF00214FF48010FFF703
:1043700037FF56E0CA48844209D101214805FFF7BA
:104380002FFF00214FF40010FFF72AFF49E0C54836
:10439000844208D101214020FFF72FFF0021402057
:1043A000FFF72BFF3DE0C048844208D10121802067
:1043B000FFF723FF00218020FFF71FFF31E0BB48FC
:1043C000844208D101218015FFF717FF0021A015B5
:1043D000FFF713FF25E0B648844209D10121080404
:1043E000FFF7FEFE00214FF48030FFF7F9FE18E0E2
:1043F000B048844209D101214804FFF7F1FE0021B1
:104400004FF40030FFF7ECFE0BE0AB48844208D1DC
:1044100001218804FFF7E4FE00214FF48020FFF71C
:10442000DFFE10BD00220288944B98420ED0994BBB
:1044300098420BD0B0F1804F08D0914B984205D0F4
:10444000904B984202D0904B984204D14FF68F7314
:104450001A404B881A438D4B984207D08C4B984298
:1044600004D04FF6FF431A40CB881A4302808B8852
:1044700083850B880385814B98420BD0854B9842EE
:1044800008D08B4B984205D08A4B984202D08A4B79
:10449000984201D10B7A038601238382704770B55D
:1044A000002400220023058C4FF6FE76354005845B
:1044B000028C8388048B4FF68F752C40B51E2C40E0
:1044C0000D882C43751E2A400D892A434D882A43A6
:1044D0006A4DA8420BD06F4DA84208D0744DA84237
:1044E00005D0744DA84202D0734DA84213D14FF6A7
:1044F000F7752A404D892A434FF6FB752A408D886F
:104500002A434FF6FF652B404FF6FF552B408D8910
:104510002B43CD892B4383800483CD8885860284F9
:1045200070BD70B5002400220023058C4FF6EF7695
:1045300035400584028C8388048B48F6FF752C4037
:104540004FF6FF452C400D884FF6FF7606EA05250D
:104550002C434FF6DF752A400D8906EA05152A43DC
:104560004D8806EA05152A43444DA84202D0494D1C
:10457000A8421DD14FF67F752A404D894FF6FF7630
:1045800006EA05152A434FF6BF752A408D8806EACC
:1045900005152A434FF6FF352B404FF2FF752B4090
:1045A0008D8906EA85052B43CD8906EA85052B43CF
:1045B00083800483CD880587028470BD70B5002494
:1045C00000220023058C4FF6FF6635400584028CDF
:1045D0008388848B4FF68F752C404FF6FC752C40EA
:1045E0000D882C434FF6FF552A400D894FF6FF7674
:1045F00006EA05252A434D8806EA05252A431F4D6C
:10460000A84202D0234DA8421DD14FF2FF752A4087
:104610004D894FF6FF7606EA05252A434FF6FF350A
:104620002A408D8806EA05252A434EF6FF752B4061
:104630004DF6FF752B408D8906EA05152B43CD8974
:1046400006EA05152B4383808483CD888587028401
:1046500070BD70B5002200230024058C4EF6FF7655
:1046600035400584038C8488828B48F6FF752A4088
:104670004FF6FF452A400D8820E00000002C014045
:104680000004004000080040000C00400010004002
:104690000014004000340140004C01400050014033
:1046A0000054014000180040001C00400020004061
:1046B0000040014000440140004801404FF6FF76B1
:1046C00006EA05252A434DF6FF752B400D8906EABB
:1046D00005352B434D8806EA05352B43FA4DA84294
:1046E00002D0FA4DA84208D14BF6FF752C408D89B7
:1046F0004FF6FF7606EA85152C4384808283CD88A9
:10470000A0F84050038470BD828B4FF2FF331A40F3
:104710008283828B4FF6FF7303EA01231A4382835D
:104720007047F0B50C461546002200210026078C84
:104730004EF6FF7C07EA0C070784828B018C4FF64C
:10474000FF7707EA043640F6FF473A404FF6FF7717
:1047500007EA05273A434FF6FF7707EA03373A435C
:10476000D94FB8420ED0D94FB8420BD0B0F1804FDC
:1047700008D0D74FB84205D0D64FB84202D0D64F56
:10478000B84206D14DF6FF77394046F48057394399
:1047900005E047F6FF57394044F480573943828398
:1047A0000184F0BD828B4FF6F3731A408283828BB3
:1047B0000A4382837047F0B50C461546002200215B
:1047C0000026078C4FF6FF6C07EA0C070784828BE4
:1047D000018C4FF6FF7707EA04264FF60C773A4034
:1047E0004FF6FF7707EA03172F433A43B64FB84215
:1047F0000ED0B64FB8420BD0B0F1804F08D0B44FB6
:10480000B84205D0B34FB84202D0B34FB84206D138
:104810004FF6FF57394046F48077394305E04FF2B1
:10482000FF57394044F48077394382830184F0BDD7
:10483000028B4FF2FF331A400283028B4FF6FF7355
:1048400003EA01231A4302837047F0B50C4615466C
:10485000002200210026078C4FF6EF7C07EA0C07A8
:104860000784028B018C4FF6FF7707EA041640F6A7
:10487000FF473A404FF6FF7707EA03373A434FF6D0
:10488000FF7707EA05273A438F4FB8420ED08F4F84
:10489000B8420BD0B0F1804F08D08D4FB84205D050
:1048A0008C4FB84202D08C4FB84206D14FF6DF771A
:1048B000394046F01007394305E04FF65F7739403D
:1048C00044F01007394302830184F0BD028B4FF698
:1048D000F3731A400283028B0A4302837047F0B5D8
:1048E0000C46154600220021068C4FF6FE773E400E
:1048F0000684028B018C4FF60C7632407E1C06EA51
:1049000003162E433243704EB0420ED06F4EB0426B
:104910000BD0B0F1804F08D06D4EB04205D06D4E37
:10492000B04202D06C4EB04206D14FF6FD76314017
:1049300044F00106314305E04FF6F576314044F08E
:104940000106314302830184F0BD70B505460C4673
:104950005D4885420ED05D4885420BD0B5F1804F51
:1049600008D05B48854205D05A48854202D05A4853
:10497000854200D100E000BF208850B92389A28879
:1049800061882846FFF7ABFFE1882846FFF79EFFC6
:1049900025E0208804280AD12389A2886188284636
:1049A000FFF753FFE1882846FFF742FF17E0208812
:1049B00008280AD12389A28861882846FFF7FBFED0
:1049C000E1882846FFF7EEFE09E02389A288618886
:1049D0002846FFF7A6FEE1882846FFF795FE70BD42
:1049E0002DE9F04105460C4600260127608808B9EC
:1049F000022600E00026A088012801D1022700E05D
:104A000001272088A0B92389A28861882846FFF75A
:104A100066FFE1882846FFF759FF23893A46314669
:104A20002846FFF712FFE1882846FFF701FF13E051
:104A30002389A28861882846FFF707FFE188284676
:104A4000FFF7F6FE23893A4631462846FFF747FF2F
:104A5000E1882846FFF73AFFBDE8F0810A884B88D5
:104A60001A438B881A43CB881A430B891A434B8904
:104A70001A438B891A43A0F8442070474FF6FF7100
:104A8000818000210180C180418001727047002136
:104A9000018041808180C180018141818181C1810A
:104AA0007047002101804180012181800021C18067
:104AB000018170470021018041808180C180018196
:104AC0004181818170470000002C01400034014089
:104AD0000004004000080040000C004021B10288A2
:104AE00042F00102028004E002884FF6FE731A4091
:104AF0000280704731B1B0F8442042F40042A0F87F
:104B0000442005E0B0F84420C2F30E02A0F844208F
:104B100070471AB183890B43838102E083898B43F9
:104B2000838170478182704741EA0203A0F84830D0
:104B300070471AB183890B43838102E083898B43D9
:104B40008381704701894FF6F872114001817047E7
:104B50000A46002101894FF68F73194011430181E4
:104B6000704730B504460D4629462046FFF7F0FF52
:104B7000208940F00700208130BD2DE9F041044636
:104B80000D4616461F46602D06D13B460122314692
:104B90002046FFF75AFE05E03B46012231462046FB
:104BA000FFF79DFE29462046FFF7D2FF208940F0FF
:104BB00007002081BDE8F08130B50C460021018955
:104BC000C9B24FF6FF7505EA03251543254329436E
:104BD000018130BD2DE9F04105460E461746984645
:104BE000002443463A4631462846FFF7E5FF2C8924
:104BF0004FF6F870044044F007044FF68F700440FD
:104C000044F070042C81BDE8F081F0B504460D46F7
:104C100016461F463B46324629462046FFF7CCFF44
:104C2000208940F480402081F0BD01858282704758
:104C30000A46002101884FF68F7319401143018005
:104C40007047F0B50C4615461E4600210022002391
:104C50000189028B038C4FF6F877394021434FF6D8
:104C6000FC473A4040F201173A434FF6DD773B40AC
:104C70004FF6FF7707EA06172F433B430181028374
:104C80000384F0BD0A460021018B4FF68F73194053
:104C90001143018370470A460021018B48F6FF73D8
:104CA00019404FF6FF7303EA02231943018370474B
:104CB0000A460021818B4FF68F731940114381837F
:104CC00070470A460021818B48F6FF7319404FF662
:104CD000FF7303EA022319438183704721B10288DD
:104CE00042F08002028004E002884FF67F731A408F
:104CF0000280704721B1828842F00402828004E081
:104D000082884FF6FB731A408280704721B18288F7
:104D100042F00802828004E082884FF6F7731A405E
:104D20008280704721B1828842F00102828004E0D3
:104D300082884FF6FE731A40828070470A4600212F
:104D4000018B4FF6F77319401143018370470A46F0
:104D50000021018B4FF2FF7319404FF6FF7303EAF6
:104D600002231943018370470A460021818B4FF6C5
:104D7000F77319401143818370470A460021818BE4
:104D80004FF2FF7319404FF6FF7303EA02231943F2
:104D9000818370470A460021018B4FF6FB7319404F
:104DA0001143018370470A460021018B4FF6FF3300
:104DB00019404FF6FF7303EA02231943018370473A
:104DC0000A460021818B4FF6FB7319401143818302
:104DD00070470A460021818B4FF6FF3319404FF68A
:104DE000FF7303EA02231943818370470A460021B7
:104DF000018B4FF67F7319401143018370470A46B8
:104E00000021018BC1F30E014FF6FF7303EA022369
:104E10001943018370470A460021818B4FF67F7347
:104E200019401143818370470A460021818BC1F3E9
:104E30000E014FF6FF7303EA022319438183704783
:104E40000A460021018C4FF6FD731940114301847D
:104E500070470A460021018C4FF6F7731940114341
:104E6000018470470A460021018C4FF6DF73194018
:104E70004FF6FF7303EA02131943018470470A4691
:104E80000021018C4FF67F7319404FF6FF7303EA40
:104E900002131943018470470A460021018C4FF622
:104EA000FF5319404FF6FF7303EA022319430184AD
:104EB00070470A460021018C4FF2FF7319404FF6EC
:104EC000FF7303EA02231943018470470A46002155
:104ED000018C4DF6FF7319404FF6FF7303EA02335E
:104EE00019430184704730B5002301248C40A3B2DC
:104EF000048C9C430484048C02FA01F5ADB22C436B
:104F0000048430BD30B5002304248C40A3B2048C4B
:104F10009C430484048C02FA01F5ADB22C43048452
:104F200030BD70B503460020002418461830012516
:104F30008D40ACB21D8CA5431D8409B1082909D14F
:104F400000EB6100056825F07005056005681543F4
:104F500005600EE00D1FC5F34E052844056825F4D5
:104F6000E045056005684FF6FF7606EA0226354300
:104F7000056070BD21B1028842F00202028004E0A7
:104F800002884FF6FD731A400280704721B10288F3
:104F900042F00402028004E002884FF6FB731A40DC
:104FA0000280704721B1828842F08002828004E052
:104FB00082884FF67F731A408280704702884FF6CE
:104FC000F7731A40028002880A4302807047828881
:104FD0004FF68F731A40828082880A43828070471E
:104FE00002894FF6F8731A40028102890A4302814E
:104FF000704702894FF67F731A40028102890A4383
:10500000028170478184704781857047818670472F
:105010000187704781877047A0F840107047028869
:105020004FF6FF431A40028002880A43028070470D
:105030000146888E70470146088F70470146888F69
:1050400070470146B1F8400070470146888C7047B0
:105050000146088D704702460020138A0B4201D09A
:10506000012000E000207047CA430282704730B53B
:105070000246002000230024158A05EA01039589D1
:1050800005EA010413B10CB1012000E0002030BD9D
:10509000CA4302827047000010B50446FB488442B0
:1050A00009D101218803FFF79BF800214FF48040CC
:1050B000FFF796F832E0F648844209D1012148040E
:1050C000FFF79BF800214FF40030FFF796F825E03A
:1050D000F048844209D101218804FFF78EF80021AD
:1050E0004FF48020FFF789F818E0EB48844209D19B
:1050F0000121C804FFF781F800214FF40020FFF7D9
:105100007CF80BE0E548844208D101210805FFF74F
:1051100074F800214FF48010FFF76FF810BD2DE9EF
:10512000F04786B005460E460024A24600BFA146C1
:105130000027B08900B100BF2F462C8A4CF6FF70C3
:105140000440F08804432C82AC894EF6F3100440EE
:10515000B08831890843718908430443AC81AC8A23
:105160004FF6FF400440B0890443AC8201A8FEF72B
:10517000B0FFC648874202D1DDF810A001E0DDF89B
:105180000CA0A88910F4004F08D00AEBCA0000EB6D
:105190000A1031684900B0FBF1F807E00AEBCA00D9
:1051A00000EB0A1031688900B0FBF1F86420B8FB0D
:1051B000F0F004012009642101FB1089A88910F492
:1051C000004F08D0322000EBC900B0FBF1F000F036
:1051D0000700044308E0322000EB09106421B0FB13
:1051E000F1F000F00F0004432C8106B0BDE8F08719
:1051F0004FF41651016000218180C18001810C2192
:10520000418100218181704710B502460020108A3B
:105210004FF2FF0318400B884C8823438C882343AC
:10522000CC8823431843108210BD002101804180A7
:105230008180C180704721B1828942F4005282810D
:1052400004E082894DF6FF731A4082817047F0B501
:1052500003460024002600250020A1F510676A3FC0
:1052600000D100BF1846C1F3421401F01F06012708
:1052700007FA06F5012C01D10C3004E0022C01D113
:10528000103000E014301AB107682F43076002E0C5
:105290000768AF430760F0BD1AB1838A0B4383826E
:1052A00002E0838A8B4383827047028A4FF6F07351
:1052B0001A400282028A0A430282704782894FF2B0
:1052C000FF731A40828182890A438281704721B12B
:1052D000828942F00202828104E082894FF6FD73E6
:1052E0001A4082817047028A4FF6DF731A400282A9
:1052F000028A0A430282704721B1028A42F4804244
:10530000028204E0028A4BF6FF731A400282704761
:10531000C1F308028280704701468888C0F3080004
:105320007047818941F0010181817047028BD2B2BF
:105330000283028B42EA012202837047028B02F44D
:105340007F420283028B0A430283704721B1828A23
:1053500042F02002828204E0828A4FF6DF731A4014
:105360008282704721B1828A42F01002828204E078
:10537000828A4FF6EF731A408282704721B1828A87
:1053800042F00802828204E0828A4FF6F7731A40E4
:105390008282704721B1828942F40042828103E017
:1053A0008289C2F30E028281704721B1828A42F45F
:1053B0000062828204E0828A4FF2FF731A40828286
:1053C0007047828A4FF6FB731A408282828A0A43B0
:1053D0008282704721B1828A42F00202828204E016
:1053E000828A4FF6FD731A4082827047024600207F
:1053F000B1F5007F00D100BF13880B4201D001201E
:1054000000E00020704701F40072B2F5007F00D187
:1054100000BFCA430280704770B5024600240023D3
:1054200000250020A1F510666A3E00D100BFC1F33F
:10543000421501F01F03012606FA03F3012D02D1E4
:105440009689334006E0022D02D1168A334001E0EE
:10545000968A33400C12012606FA04F4168834406A
:1054600013B10CB1012000E0002070BD10B5002286
:105470000023A1F510646A3C00D100BF0A12012488
:105480009440A3B2DC43048010BD0000003801400A
:105490000044004000480040004C004000500040E4
:1054A00010B50446BE48844208D101218014FEF79D
:1054B00097FE0021A014FEF793FE16E0B94884423F
:1054C00008D101210014FEF798FE00212014FEF7F8
:1054D00094FE0AE0B448844207D10121C013FEF7CC
:1054E0008CFE0021E013FEF788FE10BD10B50022EF
:1054F000028802F441520B884C8823438C88234352
:10550000CC8823430C8923434C8923438C89234330
:10551000CC8923431A430280838B4FF2FF742340CC
:1055200083830B8A038210BD2DE9F04F85B00546B9
:105530000C464FF0000902274FF000084FF0010B16
:105540000026B246A88B4FF240010840A8830220F3
:105550002884B5F81C90A068022801D100BF38E06B
:10556000A08810B94FF0010B01E04FF0020B8D48FD
:10557000854200D100E000BF6846FEF7AAFDDDF8D5
:1055800000A0E088B0F5007F0AD14FEA1A2000EBB6
:1055900080004000A168B0FBF1F0401D86B20BE036
:1055A0004FEA4B10BAFBF0F000EB80004000A1681E
:1055B000B0FBF1F0401D86B20A20B6FBF0F606F013
:1055C0000108A6EB0800C0F34F074FF6FF7000EA92
:1055D0000828022F01DBFF2F02DD02274FF0000811
:1055E000E08840EA080038432884A088A18908435D
:1055F000618808432188084340F4006040EA0909B3
:10560000A5F81C9005B0BDE8F08F00210180418015
:105610008180C180018141818181C1810721018215
:1056200070470021018041808180C180022181601A
:1056300000218181704721B1028842F0400202803E
:1056400004E002884FF6BF731A400280704721B110
:10565000828B42F48062828304E0828B4FF6FF33B8
:105660001A408283704730B5002400230C110125B5
:10567000A540ABB21AB185881D43858002E08588BC
:105680009D43858030BD1AB183880B43838002E03F
:1056900083888B4383807047818170470146888966
:1056A0007047A1F57E42FF3A04D0028842F480722E
:1056B000028004E002884FF6FF631A4002807047C0
:1056C00021B1828842F00402828004E082884FF691
:1056D000FB731A408280704702884FF2FF731A40B2
:1056E000028002880A4302807047018841F4805199
:1056F0000180704721B1028842F40052028004E028
:1057000002884DF6FF731A4002807047024600205F
:10571000012901D0108B00E0908A70470146088A69
:105720007047B1F5804F04D1028842F48042028074
:1057300004E002884BF6FF731A400280704702466D
:10574000002013890B4201D0012000E000207047A7
:10575000CA4302817047F0B50246002000240023AE
:10576000002501F00F070126BE40B4B20B1101263F
:105770009E40B3B2968806EA03051689264202D0F7
:105780000DB1012000E00020F0BD10B5002201F0B5
:105790000F040123A3409AB2D343038110BD00003C
:1057A0000030014000380040003C00402DE9F04F3F
:1057B0008BB004460D46164699463146284603F0FE
:1057C00003FA2061484602F09CFBCDE906012069FE
:1057D00002F0FAFE0746DDE9062302F0E5FB824609
:1057E0000022EE4B02F006FACDE90801D4E9087375
:1057F0003A4602F043F9C4E90801D4E9040103F090
:10580000E3F9A062A16AA06803F0D6F8074602F0A7
:10581000DBFECDE90601606802F0D6FE8246D4E9DF
:1058200008733A4602F0C0FBCDE902012169206805
:1058300003F0C2F8074602F0C7FECDE90001DDE93A
:10584000022302F01BF9CDE90401DDE9062302F091
:1058500015F9CDE9080102F0DFF8E0622069606126
:105860000BB0BDE8F08F7FB5CD480068CD4908602A
:10587000CB4840684860CA49C86803F03DF8C94948
:105880008860C94A1168C74A106803F09DF9C74982
:105890000860084600680860C34A5168C14A5068F9
:1058A00003F092F9C1494860084640684860C04921
:1058B000C86CC04903F088F9BF498860BF480068D8
:1058C00003F01AF80446B7488168204603F040F90F
:1058D00016D2BA480068404203F00EF80446B148B8
:1058E0008168204603F034F80AD2B548007850B9F0
:1058F000AD488068B3490860FF20B149087002E0F4
:105900000020AF490870B0480068401CAE490860EC
:1059100008460068022811D100200860A2484268A9
:10592000A04800234168A948FFF740FF9E4802684D
:105930009C4800230168A648FFF738FFA04800787C
:1059400020B9994880689F49086002E00020954985
:1059500088609548002382689A4801689D48FFF74F
:1059600025FF9A480023C16A9B4802689B48FFF7BD
:105970001DFF97480023C16A994802689948FFF7BC
:1059800015FF8B49B1F9180002F0B6FF06469148A1
:10599000C06A80F0004583488168284603F014F906
:1059A00004460023324621468F48FFF7FFFE7C491C
:1059B000886802F0A1FF8D4908607F4881688C48A3
:1059C00002F0FAFF044689480168204603F0F1F826
:1059D000864908608148C06A864908608148C06A73
:1059E000854908608048C06A844908608148016828
:1059F0007E48006803F0E8F806467F4801683046B4
:105A000003F0E2F805467D480168284603F0DCF81B
:105A1000044602F035FF00B20290764801687348F0
:105A2000006802F0FDFD064673480168304602F04A
:105A3000F7FD054671480168284603F0C5F804469D
:105A400002F01EFF00B200906A48016867480068D3
:105A500003F0BAF8064668480168304602F0E0FDF7
:105A6000054666480168284602F0DAFD044602F061
:105A700007FF00B203905F4801685C48006802F0CD
:105A8000CFFD06465C480168304603F09DF80546A8
:105A90005A480168284602F0C3FD044602F0F0FEB1
:105AA00000B2019056480078A5280AD1039C23B281
:105AB000029C22B2019C21B2009C20B2FBF748FE5E
:105AC00005E000231A4619461846FBF741FE4D48EB
:105AD000807AA52807D1039803B2029802B2052163
:105AE0000846FBF735FE7FBD10B547480078401CDF
:105AF00045490870FDF73EFCFDF78BFC42480078F5
:105B0000052806D1002040490870FBF7D1FFFFF7B8
:105B1000AAFE10BD10B503223C493D48FCF755F9DB
:105B2000002010BD10B50322384914313848FCF765
:105B30003BF938A000F0BCFA10BD10B53B48234932
:105B400008600020486088604FF07C50234908605E
:105B5000002048604FF07F50886034481C4908603E
:105B60000020486088604FF07C501E49086000208B
:105B700048604FF07F5088604FF07E5015490860B4
:105B80000020486088602A48174908600020486063
:105B9000886028A000F08CFA10BD000080842E419F
:105BA000940800202C08002050060020380800200F
:105BB0005C060020EC511441200800206800002001
:105BC000640000206000002080000020000700200A
:105BD00060070020C00700205C0000203007002084
:105BE0005800002090070020F007002070000020DF
:105BF0000000A04278000020740000207C000020FB
:105C0000840000203A0100206C0000206C08002075
:105C1000207C0008B4D3464C415348D6D0B6C1C806
:105C2000A1B2CECAFD2E2E2E0D0A0000000060404B
:105C300000007041504944B3F5CABCBBAFCDEAB3D4
:105C4000C92E2E2E0D0A00002DE9F05FFE4989783D
:105C5000A1F1320002F050FEFC494860486802F0B1
:105C6000B3FC82460022FA4B01F0C4FF0646002234
:105C7000F84B02F099F980460022134601F0FEFE2F
:105C8000044601F0C9FEF14948604868F24902F053
:105C90005FFF01D2F04801E0EC484068EB49486002
:105CA0004868EE4902F054FE01D2EC4801E0E748B2
:105CB0004068E6494860E449C978A1F1320002F041
:105CC0001BFEE2490860086802F07EFC06460022DE
:105CD000DF4B01F08FFF04460022DE4B02F064F937
:105CE00080460022DE4B01F0C9FE824601F094FEA0
:105CF000D64908600868D84902F02AFF01D2D64880
:105D000001E0D2480068D14908600868D34902F030
:105D10001FFE01D2D14801E0CC480068CB490860A1
:105D2000C94800793238C860C86802F0EAF880468D
:105D30000022C74B01F05EFF06460022C54B02F071
:105D400033F9044602F0AEF8C049C860C86802F0F2
:105D5000D3FD0546C04902F0FBFE01D2BE4803E078
:105D6000BA49C86802F0C8FD044602F089FDB74987
:105D7000C860C86802F0C0FD0546B84902F0E8FDF9
:105D800001D2B64803E0B149C86802F0B5FD044647
:105D900002F076FDAD49C860AB480078AA49497861
:105DA00000EB0120A9498860A748C07FAD49087071
:105DB000BDE8F09F2DE9F05FAB480078AA287DD1BF
:105DC000A9484078BB28FAD1A7490979A1F1320046
:105DD00002F092FD9D494860486802F0F5FB82465A
:105DE00000229B4B01F006FF80460022994B02F0F7
:105DF000DBF806460022134601F040FE044601F09F
:105E00000BFE924948604868934902F0A1FE01D216
:105E1000914801E08D4840688C49486048688F4946
:105E200002F096FD01D28D4801E08848406887491C
:105E300048608D494979A1F1320002F05DFD834946
:105E40000860086802F0C0FB82460022804B01F027
:105E5000D1FE804600227F4B02F0A6F806460022C3
:105E60007F4B01F00BFE044601F0D6FD7749086038
:105E70000868794902F06CFE01D2774801E0734866
:105E80000068724908600868744902F061FD01D237
:105E9000724801E06D4800686C490860724880797A
:105EA000C0F13200C860C86802F02BF880460022BA
:105EB000674B01F09FFE0646002200E047E06B4B77
:105EC00002F072F804460022624B02F06DF882463E
:105ED00001F0E8FF5D49C860C86802F00DFD0546A5
:105EE0005D4902F035FE01D25B4803E05749C868BE
:105EF00002F002FD044602F0C3FC5449C860C868C1
:105F000002F0FAFC0546554902F022FD01D2534841
:105F100003E04E49C86802F0EFFC044602F0B0FC12
:105F20004A49C860504880784F49C97800EB012041
:105F3000464988604C48C07FA52802D1494908706D
:105F400005E04948C07F10B9002046490870BDE807
:105F5000F09F70B500248820FCF76AF8AF20FCF7AA
:105F600067F81C20FCF764F841494868414902F091
:105F700057FB064602F084FC0546C5F30720FCF7F4
:105F800064F82044C4B2E8B2FCF75FF82044C4B21D
:105F900037490868374902F043FB064602F070FCB7
:105FA0000546C5F30720FCF750F82044C4B2E8B218
:105FB000FCF74BF82044C4B22D4988682D4902F003
:105FC0002FFB064602F05CFC0546C5F30720FCF7F4
:105FD0003CF82044C4B2E8B2FCF737F82044C4B21D
:105FE0004FF08040808E0A2190FBF1F500210812CD
:105FF000FCF72BF82044C4B2E8B2FCF726F82044A2
:10600000C4B24FF08040008F0A2190FBF1F50021CF
:106010000812FCF71AF82044C4B2E8B2FCF715F8ED
:106020002044C4B24FF08040808F0A2190FBF1F5EC
:1060300000210812FCF709F82044C4B2E8B2FCF7CA
:1060400004F82044C4B217E03A010020940800206C
:106050000000494000003E400000F0410000F0C157
:106060000000F0BF840000209405002000002240C2
:1060700050060020000048430B4800884FF00A01FA
:1060800090FBF1F54FF000014FEA2120FBF7DDFF17
:106090002044C4B2E8B2FBF7D8FF2044C4B2204683
:1060A000FBF7D3FF70BD00004000004070470000C8
:1060B0000FB4044910B503AA029800F08DFB10BC80
:1060C0005DF814FB2C00002070B50446856900685B
:1060D000C10601D5302600E02026C00708D070BDDB
:1060E000D4E9012130469047206A00F10100206286
:1060F0006D1EF5D570BD70B5044685690078C00782
:1061000008D170BDD4E9012120209047206A00F118
:10611000010020626D1EF5D570BD00002DE9F04133
:106120000646002410687529314616A511D0AFF334
:106130000080002803DAC0F1000013A507E03168F1
:106140008A0701D511A502E0490704D510A501244D
:1061500001E0AFF3008000210A2306F1240707E0E5
:10616000B0FBF3F203FB1200303078541046491CA8
:106170000028F5D123462A463046BDE8F04100F01C
:10618000BEB80000000000002D0000002B00000041
:10619000200000002DE9F0474FF0000A8946044630
:1061A000C0F820A02046E1688847002876D025283E
:1061B00006D0D4E901219047206A401C2062F1E713
:1061C000E168204600258847C4F81CA00646002741
:1061D000C4F818A02A2E09D0304601F0C7F838B309
:1061E00004EB8708303EC8F8186019E059F8041B22
:1061F000204604EB87029161E1688847012F06463B
:1062000018D1E069002820DA25F020051DE0D8F833
:10621000180000EB800006EB40003038C8F818008A
:106220002046E1688847064601F0A0F80028EED134
:10623000012F0AD02E2E08D12046E16888477F1C06
:106240000646022F45F02005C4DBA069002803DACA
:10625000404245F00105A061E80701D025F0100596
:10626000B6B1A6F14100192802D8203645F40065E0
:106270004A463146204625604D46F9F771FF58B130
:10628000012806D0ED1D25F0070000F1080989E777
:1062900004E005F1040985E730468AE7206ABDE895
:1062A000F08710B5431C02E010F8011B71B18107A3
:1062B000FAD14FF0013202C88C1A8C4314EAC21191
:1062C000F9D0C01A0A0603D0C01E10BDC01A10BDF6
:1062D0000A0401D0801E10BD0902FCD0401E10BD72
:1062E000704770477047704710B500F08BFA006830
:1062F00010BD10B5044600F085FA046010BD2DE90C
:10630000F0470D4699469246044600F1240801687C
:10631000880604D5E06921F01001216000E0012029
:10632000A84202DDA0EB050700E00027A16907EB0A
:10633000050202EB0900A1EB0000A0612078C00675
:1063400002D42046FFF7C0FE002608E0D4E9012170
:106350001AF806009047206A401C761C20624E45C1
:10636000F4DB2078C0060AD52046FFF7ADFE06E034
:10637000D4E9012130209047206A401C2062381E59
:10638000A7F10107F4DC07E0D4E9012118F80500C2
:106390009047206A401C2062281EA5F10105F3DC0D
:1063A0002046FFF7A8FE2078000602D50220BDE8AF
:1063B000F0870120FBE770472DE9FF4F0C461E4692
:1063C0004FF0FF378BB0D2E90001DDF860800A9012
:1063D0008A46C1F30A5505B93D46002108464FF0EB
:1063E0000000BAF1000F00F4400005DA00EB800075
:1063F0004FF4400101EA50004FEA9059B9F1010F02
:1064000000DDB9460A9850EA4A000ED044F6105012
:10641000A5F2FF3545432F14B8F1000F1ED0754289
:10642000291E1EDDC9F100021CE0B8F1010F4FF07A
:10643000000001D0302103E0F24305E02154401C6C
:10644000B042FBDB30460022002121540B99C1F8F9
:106450000880C1E900200FB0BDE8F08FBD1B6D1CA6
:10646000DEE74A4600DA694206A800F06DFA06AB9C
:1064700007CB03AB07C350460A9900F04BFB8DE8EE
:106480000700A0F500501F3800900398002D09DD8B
:1064900042F21F014A46084403A90390684600F0EF
:1064A000AAFD08E0A0F500504A461F3803A9039052
:1064B000684600F0B4FD8DE807000004000C03D02E
:1064C0004FF0FF30410800E01046B8F1000F03D054
:1064D0000022009215461FE0751E06D400F096F9C2
:1064E00002F1300262556D1EF8D5B3460122084311
:1064F00002D000227F1C04E02078302801D1002245
:106500007F1E002A099787D01DE0112D07DA00F0C1
:106510007DF9303262556D1C50EA0102F5D1084315
:106520000FD10021681E05E0235C625C6354491CA6
:106530002254401E8142F7DBAB46A81B401E099047
:1065400001E0009848B1002004F80B000B98099A6C
:10655000C0F80880C0E9002B7DE711264FF0000845
:106560005AE72DE9F04F88460446D21D22F0070174
:1065700091B0D1E90001CDE90A0100F086FE0246A2
:106580000B98C00F01D02D2007E02068810701D5AE
:106590002B2002E0202101EAC000032A099001D04B
:1065A000072A05DB03464146204600F08DF90FE13E
:1065B0002078800601D5E06900E00620B8F1650F7B
:1065C000814606D0B8F1660F18D0B8F1670F72D1C6
:1065D00032E00020B9F1110F009001DB112301E03E
:1065E00009F101030AAA01A90CA8FFF7E5FEDDE9FC
:1065F0000C70002609F10105834648E001204B4656
:1066000000904FF000470AAA01A90CA8FFF7D4FE9A
:10661000DDE90DB00C995D46002618B909F10100BD
:1066200001EB0005B9EB050003D4C0F1FF3609F119
:106630000105A5EB09002BE0B9F1010F01DA4FF0DC
:1066400001090020B9F1110F0090484601DD112326
:1066500000E003460AAA01A90CA8FFF7ADFEDDE998
:106660000C704D4600268346207800070AD4AB45BF
:1066700000DA5D4601A8012D04DD411911F8011C65
:10668000302907D04F4502DA17F1040F04DA012050
:10669000824610E06D1EEEE7002F02DCED1B3E444B
:1066A00003E0781CA84200DD0546A7EB060000F1D8
:1066B000010A4FF000472078000703D4AA4501DB08
:1066C0004FF0FF3A0021B7F1004F0DF143088DF86C
:1066D000431023D002202B23002F01DA7F422D23E9
:1066E0004FF00A0C011EA0F1010000DC4FB197FB36
:1066F000FCF10CFB11720F4602F1300208F8012D7B
:10670000F0E7A8F1010003702188090501D54521B2
:1067100000E06521A0F1010800F8011C09980FA90B
:10672000A1EB080707F1070700B1012000EB050105
:1067300001EBEA70A1693844A1EB0000A0F101006F
:10674000A0612078C00602D42046FFF7BDFC09985E
:1067500030B1D4E901219047206A00F101002062A4
:106760002078C00620D52046FFF7AEFC1CE0002EA6
:1067700004DBB34502DD01A8805D00E03020D4E9F0
:1067800001219047206A761C401CBAF1010A206260
:106790000AD100F033F8C0680168405CD4E90121F7
:1067A0009047206A401C2062281EA5F10105DEDC0E
:1067B00007E0D4E9012118F8010B9047206A401C3A
:1067C0002062381EA7F10107F3DC2046FFF793FC97
:1067D000022011B040E60000074B70B50D467B4427
:1067E00000F05FF80446284600F020F910B14FF0A1
:1067F000FF3070BD204670BD09B7FFFF00487047ED
:10680000C408002000487047A408002030B5B0F14B
:106810000A024FEA900E71F100034EEA817EB0EB5E
:106820000E0061EB91014FEA101E4EEA017E10EB63
:106830000E0041EB11114FEA102E4EEA016E10EBE3
:106840000E0041EB11214FEA104E4EEA014E10EBC3
:106850000E0041EB1141401841F100014FEAD00018
:1068600040EA41704FEAD10110EB80054FEA810404
:1068700044EA907444EB01046D1944EB0404521B88
:10688000A3414FF0000348BF0A3200D530BD401C81
:1068900041F1000130BD000001694A1C0261087825
:1068A000704700B58FB0CDE9013100210591054950
:1068B0007944CDE9031011466846FFF76BFC0FB031
:1068C00000BD0000E5FFFFFF2DE9F0411F46044633
:1068D00003260168072A01F4006004DB08B116A54D
:1068E00005E016A503E008B115A500E015A521F007
:1068F00010002060A069C01EA0610FB1401EA06101
:106900002046FFF7E1FB4FB1D4E90121384690471B
:10691000206A401C2062C01C206206E0206AFAE760
:10692000D4E9012115F8010B9047761EF8D22046D4
:10693000FFF7E1FBBDE8F0814E414E006E616E0055
:10694000494E4600696E66002DE9F04781461646BD
:106950008AB035487844D0E9002380680092CDE9B8
:106960000130314878440C38D0E9022300690392A1
:106970004FF03702CDE9043041F69B30014491FBE2
:10698000F2F0A0F1800502FB10141B3C02D564421A
:10699000012000E00020DFF890A080460027FA44A4
:1069A000AAF1C60A0DE0E00709D03246684607EBB7
:1069B00047010AEB810100F032FB8DE8070064100B
:1069C0007F1C002CEFD1184F7F44B43F17E0E8073D
:1069D00013D007EB04100DF1180A90E80E00AAE896
:1069E0000E00C068F04201D198190890324606A9FD
:1069F00003A800F014FB03AB07C36D10641C002D4B
:106A0000E5D132466946B8F1000F03A802D000F084
:106A1000F2FA01E000F003FBC9E90001C9F808201F
:106A20000AB0BDE8F0870000C4310000007B00F030
:106A30008000704700487047A40800207546FFF7A3
:106A4000F9FFAE4605006946534620F0070085462B
:106A500018B020B5F9F79AFCBDE820404FF00006C9
:106A60004FF000074FF000084FF0000B21F0070136
:106A7000AC46ACE8C009ACE8C009ACE8C009ACE879
:106A8000C0098D4670470446AFF300802046F9F7F1
:106A900084FB00004FF0013C50F8042B51F8043BFC
:106AA0009A4221D1A2EB0C03934313EACC1317D1E2
:106AB00050F8042B51F8043B9A4215D1A2EB0C0379
:106AC000934313EACC130BD150F8042B51F8043B39
:106AD0009A4209D1A2EB0C03934313EACC13DBD007
:106AE0004FF00000704700BFD01A01BAB1FA81F12F
:106AF00001F0180122FA01F0CB40C1F12001DBB214
:106B0000C0B2C01A2CFA01F3D11A914311EAC31191
:106B1000E6D170475FEA400C08BF91F0000F4FEAE2
:106B20008C234FEAC12243EA51514FEA1C5018BF4F
:106B300000F5F0404FEA300018BF41F000415FEA35
:106B40006C5C00F02980BCF1FF3F08BF40F0804042
:106B50007047130C06BF12044FF0100C4FF0000CDE
:106B6000130E04BF12020CF1080C130F04BF120124
:106B70000CF1040C930F04BF92000CF1020CD30F24
:106B800004BF52000CF1010C11464FF00002A0F1BD
:106B90001F00A0EB0C00704711F0004F08BF7047BA
:106BA00031F000413FF4D5AF0B0C06BF09044FF0A4
:106BB000100C4FF0000C0B0E04BF09020CF1080C76
:106BC0000B0F04BF09010CF1040C8B0F04BF8900EB
:106BD0000CF1020CCB0F04BF49000CF1010CCCF1FD
:106BE0002003A0EB0C0022FA03F302FA0CF241EAB4
:106BF000030100F10100704720F07F4C80EA0300A0
:106C000023F07F47ACEB070303F57C5300F0004013
:106C100003F1FF032DE980494FEA154B09B44FEA10
:106C2000144325EA0B4E24EA03480FF2042606EB30
:106C3000132749083E785FEA320203FB0667C7F56F
:106C4000000707FB06F64FEA54374FEAD64606F12F
:106C5000020607FB066CCCF1005C4FEA1C472CEAED
:106C6000074C07FB06F40CFB06F504EB15464FEA50
:106C7000961634BF00204FF000404FEAD13706FB94
:106C800007FC4FEA1C4C0CFB0BF7D21B03FB0CF769
:106C900061EB07010CFB0EF7B0EB074072EB1742FC
:106CA0000CFB08F734BFA2EB0742B2EB074261EBE3
:106CB00017414FEA0C444FEA910706FB07FC4FEAE5
:106CC0001C4C0CFB0BF7B0EBC74072EB573203FBCD
:106CD0000CF734BFA2EBC742B2EBC74261EB5731AE
:106CE0000CFB0EF7B0EBC70072EB57720CFB08F70A
:106CF00034BFA2EBC702B2EBC70261EB5771039F2F
:106D00004FEA816141EA921104EBCC044FEAD1379A
:106D10004FEA826206FB07FC42EA90124FEA80606B
:106D20004FEA1C4C0CFB0BF7D21B03FB0CF761EB7F
:106D300007010CFB0EF7B0EB074072EB17420CFBA0
:106D400008F734BFA2EB0742B2EB074261EB1741F1
:106D50004FEA8C554FEA910704EB9C2406FB07FC95
:106D60004FEA1C4C0CFB0BF7B0EBC74072EB5732F1
:106D700003FB0CF734BFA2EBC742B2EBC74261EB97
:106D800057310CFB0EF7B0EBC70072EB57720CFBE0
:106D900008F734BFA2EBC702B2EBC70261EB577131
:106DA00015EB4C254FEA816141EA92114FEA82626C
:106DB0004FEAD13742EA901206FB07FC44F1000487
:106DC0004FEA80604FEA1C4C0CFB0BF7D21B03FB15
:106DD0000CF761EB07010CFB0EF7B0EB074072EB11
:106DE00017420CFB08F734BFA2EB0742B2EB074295
:106DF00061EB174115EB1C154FEA813141EA9241D5
:106E00004FEA823242EA90424FEA80304FEA0C76F3
:106E100044F1000448EA03434EEA0B484FF0000EE9
:106E2000B2EB080C71EB030724BF624639464EEB08
:106E30000E0E4FF0000B0018524149414BEB0B0B6B
:106E4000B2EB080C71EB03077BF1000B24BF624629
:106E500039464EEB0E0E4FF0000B001852414941DF
:106E60004BEB0B0BB2EB080C71EB03077BF1000B48
:106E700024BF624639464EEB0E0E51EA020718BF98
:106E800046F0010616EB0E7655F1000254F10001B2
:106E900003D5BDE88901BDE80088BDE88901BDE8EA
:106EA0000048B619524141EB0101A3F101037047BB
:106EB00080807F7E7D7C7B7A797877767675747337
:106EC000727171706F6E6E6D6C6C6B6A6A696868F6
:106ED000676666656464636362616160605F5F5E8C
:106EE0005E5D5D5C5C5B5B5A5A5959585857575602
:106EF0005655555554545353525252515150505067
:106F00004F4F4F4E4E4D4D4D4C4C4C4B4B4B4A4AB8
:106F10004A494949484848474747474646464545FC
:106F20004544444444434343434242424241414135
:106F3000002B26D4770021D01CB54FEA370703B4C5
:106F40004FF010004FF010014FF000000FBCBDE8F3
:106F500010400BF1010BBBF1010F08BF5FEA1707EF
:106F600022BF12F1010211F101014FF0004143F182
:106F7000000300F0004043EA00007047F9D35708CF
:106F8000DAE746EA064613F1400F4FEA16461FDDE0
:106F900013F1200FDFBF16430A46002120335B4266
:106FA000C8D0C3F1200746EA064602FA07F74FEABF
:106FB000164646EA0706C3F1200722FA03F201FA51
:106FC00007F721FA03F14FF0000342EA0702B1E7A5
:106FD00046EA020646EA06464FEA164646EA010631
:106FE000BCBF46EA0646360C4FF000034FF00002E5
:106FF0004FF000019EE72DE9C048934630B491E878
:10700000380007C831EA400C48BF34EA430C03D5C6
:10701000FFF7F2FDFFF78CFFF0BCBDE800882DE91B
:10702000C048934630B491E8380007C810F0804F4C
:1070300008BF13F0804F03D100F005F8FFF778FF89
:10704000F0BCBDE8008820F07F4780EA030023F011
:107050007F4C07EB0C03A3F57C5300F00040A3F139
:10706000FE0392F0000F00F0B38095F0000F00F0E7
:1070700077802DE901494FEA11404FEA144621EA91
:10708000004800FB06FC24EA064708FB06F607FB5F
:1070900008F800FB07F718EB06484CEB164C4FEAD4
:1070A000124B18EB07484FEA15464CEB174022EA03
:1070B0000B4E0BFB06FC25EA06470EFB06F607FB0C
:1070C0000EFE0BFB07F71EEB064E4CEB164C4FF07B
:1070D00000061EEB074E4CEB174B18EB0B0840F16C
:1070E000000018EB0E0B58EB000840F100008F1A5F
:1070F0004FF000013CBFC943661B14BFB5EB040C45
:1071000000213CBFC943F61B4FEA17444EEA8E0EDE
:1071100027EA04454FEA1C4704FB07622CEA074CA8
:1071200005FB07F70CFB05F604FB0CFC16EB07460A
:1071300042EB174216EB0C4642EB1C421BEB0606D9
:1071400058EB0202414146EA9E0601D5BDE801899D
:10715000B619524141EB0101A3F10103BDE80189D8
:107160004FEA14454FEA114724EA054621EA074C45
:1071700005FB07F406FB07F70CFB06F105FB0CFC0F
:1071800011EB074144EB17444FEA124711EB0C4156
:1071900044EB1C4422EA074C05FB07F206FB07F709
:1071A0000CFB06F605FB0CFC16EB074642EB174200
:1071B00016EB0C4642EB1C456A1854F1000148BF1F
:1071C0007047B619524141EB0101A3F10103704729
:1071D00095F0000F37D04FEA11424FEA144721EAE9
:1071E000024624EA074C02FB07F106FB07F70CFBFB
:1071F00006F402FB0CFC14EB074441EB17414FEA89
:10720000154714EB0C4441EB1C4125EA074C02FBEB
:1072100007F506FB07F70CFB06F602FB0CFC16EB6A
:10722000074645EB174516EB0C4645EB1C42121979
:1072300051F1000148BF7047B619524141EB0101BD
:10724000A3F1010370474FEA14454FEA114724EABE
:10725000054621EA074C05FB07F106FB07F70CFB87
:1072600006F24FF0000605FB0CFC12EB074241EB67
:10727000174112EB0C4251EB1C4148BF704792186A
:1072800041EB0101A3F101037047490050EAC1201D
:1072900018BF04204A0D18BF40F0010040F2FF72F1
:1072A000B2EB515F08BF40F00200012808BF052083
:1072B00070472DE9F0414F1E00EBC7010446D1E9AC
:1072C000000115461E4637F006020DD02A46334609
:1072D00000F06AFE7F1E04EBC703D3E9002300F031
:1072E000CDFB37F00602F1D1022F25D0042F13D0A9
:1072F000062F18BFBDE8F0812A46334600F054FE41
:10730000D4E90A2300F0BAFB2A46334600F04CFECB
:10731000D4E9082300F0B2FB2A46334600F044FECD
:10732000D4E9062300F0AAFB2A46334600F03CFECF
:10733000D4E9042300F0A2FB2A46334600F034FED1
:10734000D4E9022300F09AFB2A46334600F02CFED3
:10735000D4E90023BDE8F04100F090BB024A0020D0
:10736000110701F0DABC000001FDFFFF30380A28E8
:1073700001D2012070470020704700002DE9F04D38
:10738000904F21F0004A86B005460C46BA4530DBE6
:10739000AAEB070028430CD08B48824501DC1CD1A6
:1073A000DDB106B02846BDE8F04D4FF0010201F016
:1073B000B4BC864A864B284600F0F6FD07460E46CA
:1073C000844A854B2846214600F0EEFD06B03A4639
:1073D0003346BDE8F04D00F051BB0120FEF789FFB8
:1073E00006B00022BDE8F04D13461046114600F0ED
:1073F00001BC7A48824542DABAF1795F0BDA284655
:10740000FFF743FF042808BFFFF7A8FF284606B090
:107410002146BDE8F08D2A460B46104600F0C4FD1B
:10742000834602466E480E460B4606217844FFF717
:1074300040FF5A46334600F0B7FD804669488A4609
:107440005A46334604217844FFF733FF5A46334601
:1074500000F0AAFD00223B4600F010FB02460B465E
:107460004046514600F0C6FB2A46234600F09CFDEC
:1074700006B02A462346BDE8F04D00F0FFBA284684
:1074800024F0004100223D463B4600F0C1FE4FF093
:10749000FF3201F042FC0646024653480F460B46B7
:1074A00006217844FFF705FF32463B4600F07CFD9D
:1074B000CDE900014D4832463B4604217844FFF7B0
:1074C000F8FE32463B4600F06FFD00222B4600F0EE
:1074D000D5FA834602913046394600F05FFA80467D
:1074E00043480D46504517DCDDE900015A46029B32
:1074F00000F080FB42462B4600F056FD42462B46EC
:1075000000F0BCFA012201F008FC304A304B00F0D8
:1075100071FF304A304B4CE04FF0000A52460B46A8
:10752000404600F0ABFACDE9031052462B46104618
:10753000194600F039FD32463B4600F069FEDDE9B0
:10754000033200F057FB06460F46DDE900015A46BC
:10755000029B00F04FFB83460091012230463946E2
:1075600001F0DBFB194A1A4B00F052FE06460F46AB
:1075700001224046294601F0D0FB5A46009B00F00C
:1075800013FD32463B4600F035FF07460E4601220A
:107590005046294601F0C1FB0E4DDFF858802A46BF
:1075A000434600F035FE3A46334600F031FE2A46A7
:1075B000434600F02DFE002CD8BF81F0004106B0FC
:1075C000BDE8F08D0000F03F0000F07F075C143351
:1075D00026A6913C182D4454FB21F93F0000E03FC2
:1075E00080250000962500000A25000020250000C7
:1075F0003333EF3FFB21E93F2DE9F84F04460D46B9
:1076000021F0004000917449884213DB734988429D
:1076100001DC08D13CB120462946BDE8F84F4FF0C7
:10762000010201F07ABB6E48002DCCBF6D496E4956
:10763000BDE8F88F6D49884211DA6D498842A8BFCC
:107640004FF0FF366DDA20462946FFF71EFE04286C
:1076500008BFFFF783FE20462946BDE8F88F65493D
:10766000654F25F00045884233DA6449884219DACB
:10767000002632464FF080432046294600F0FEF9AE
:1076800080468A4601222046294601F046FB002218
:107690003B4600F0AFFE4246534600F0ABFA0446CC
:1076A0000D463EE001260022BA463B4620462946CA
:1076B00000F0E4F980460F46002253462046294652
:1076C00000F098FE42463B4600F094FA04460D4610
:1076D00027E04B4988421BDADFF828810226002286
:1076E00043462046294600F05FFC00223B4600F05E
:1076F000C5F907468A46002243462046294600F03F
:1077000079FE3A46534600F075FA04460D4608E005
:10771000032622462B4600203B4900F06BFA044624
:107720000D4622462B461046194600F03DFC8B467E
:10773000824602460B4600F037FC074602463348B5
:1077400088460B4606217844FFF7B3FD52465B4658
:1077500000F02AFC82462E488B463A4643460521D5
:107760007844FFF7A6FD3A46434600F01DFC02466A
:107770000B46002E504659460CDA00F07FF922469F
:107780002B4600F011FC01B022462B46BDE8F04F1D
:1077900000F03EBD00F072F922462B4600F004FCDA
:1077A0001C4A7A4402EBC603D3E9002300F022FE10
:1077B00022462B4600F01EFE174A7A4402EBC6030F
:1077C000D3E9002300F024FD009A002AB8BF81F01D
:1077D0000041BDE8F88F0000000010440000F07F79
:1077E000182D4454FB21F93FFB21F9BF0000DC3F79
:1077F0000000203E0000F33F0000F03F0000E63FA5
:10780000008003400000F83F0000F0BF1E2300008E
:10781000DC2200007A220000422200002DE9F04D17
:107820009446CCF1000423F000464CEA0404524F85
:1078300046EAD4749A46884621F00042BC4206D8F3
:10784000454240EA050442EAD474BC4204D9BDE88A
:10785000F04D624600F012B9AAF14055A5F17F65DE
:1078600055EA0C040BD0022404EAAA74434DDFF855
:1078700010E144EAD87452EA000B04D00CE0BDE8F1
:10788000F04DFFF7B9BE002C14BF012CBDE8F08D00
:10789000022C30D0032C32D056EA0C0B0AD0BE4258
:1078A00020D1BA4209D126F0804622F080423346E8
:1078B000114617E000291ADB25E0DFF8C8B0FB44C9
:1078C000002C04BFDBE90001BDE8F08D012C02BFF4
:1078D000DBE9000181F00041BDE8F08D022C0AD007
:1078E000032C0CD0BA4212D1B8F1000F0BDA2348A6
:1078F0002549BDE8F08D28462449BDE8F08D28468D
:107900007146BDE8F08D1D482149BDE8F08D921B00
:1079100012153C2AC4BF19481D490EDCBAF1000FEC
:10792000BEBF12F13C0F0020014606DB624600F0AC
:1079300061F921F00041FFF75FFE002C08BFBDE8B0
:10794000F08D012C04BF81F00041BDE8F08D114A9B
:10795000114B022C07D000F04DFD2A46BDE8F04D3A
:107960000A4B00F047BD00F045FD2A46BDE8F04D4A
:10797000064B00F04DBC00000000F07F182D445471
:10798000FB2109C0D6210000FB21F9BFFB210940E2
:10799000FB21F93F075C143326A6A13C2DE9F041F9
:1079A00006460F4600F040FC04000D4618BF0120BB
:1079B000284320F00040C0F17F6000F1E040C00F9C
:1079C0000FD0002E14BF01200020384320F00040CB
:1079D000C0F17F6000F1E040C00F04BF0120FEF75E
:1079E00088FC20462946BDE8F081000010B500293A
:1079F0000AD00878002807D005487844FFF74AF8ED
:107A0000002801D0002010BD0248784410BD0000BD
:107A10005A2100005221000021F00042A2F16052E0
:107A2000B2F5801F01F0004328BFD2F17F6C0BD963
:107A30005FEA001C43EAC20242EB507018BF704775
:107A400028BF20F001007047B2F5801FBCBF184668
:107A500070474FEA410C1CF5001F02D2084601F0A6
:107A600072B870B500F04AFB00000089FFF7F6BF5E
:107A70004FF00040A0F580007047000010B591EA7B
:107A8000030F48BF83F0004300F1BC84841A71EBFC
:107A9000030C05D2121943EB0C03001B61EB0C0124
:107AA000DFF824E14FEA1154A4EB135C1EEA430F04
:107AB00018BF9EEA445F73D023EA0E03DCF1200E68
:107AC00021EA045143F4801332D322FA0CFE10EB66
:107AD0000E0023FA0CFE41EB0E01CCF1200E03FA4E
:107AE0000EFE10EB0E0051F10001B1F5801FCCF13C
:107AF000200E32D201EB045112FA0EF2BDE8104012
:107B000058BF7047401C38BF5FEA420218BF704739
:107B1000002814BF20F0010041F100014FEA4103A9
:107B200013F5001F38BF7047A1F1C04100F034BB0E
:107B3000012A43EB0302ACF1200CDCF11F0E32BF33
:107B40004FF0000E23FA0CF310EB030041EB04514D
:107B5000B4EB115FD0D0A1EB045101F580114908BD
:107B60005FEA300001EB04510ED350F1000038BF42
:107B700012FA0EFE08D1BDE81040C9E7401C38BF1C
:107B80005FEA4202CAD1C3E7BDE810404FEA4103B1
:107B900013F5001F38BF7047A1F1C04100F0FCBAD7
:107BA0009EEA445F08D011EA5E0FBDE8104004BFB2
:107BB00001F0004100207047BDE8104070B500F0B2
:107BC0009DFA00BF64FBBE3E0000E0FF02494FF09B
:107BD000000001F070B800BF0000F87F491058BFE6
:107BE000C1F140415B1058BFC3F140438B42EFF3FA
:107BF000008070472DE9C04130B4DFF8A0C23CEAF4
:107C0000111418BF3CEA131400F0EC8081EA03055C
:107C10001CEA111444EAD57418BF1CEA131500F0CD
:107C2000C780A4EB05044FF0004545EAC12145EAB1
:107C3000C32341EA505143EA525304F17F749942FD
:107C400004F500344FEAC0204FEAC22208BF904238
:107C500000F09C804FEA13650FF24016765D4FEA04
:107C6000134506FB05F7C7F1807706FB07F74FEAD8
:107C7000D737A7FB03687642C8F58038A7FB06CE46
:107C800038BFA8F1010807FB08E64FF0000EA6FB7D
:107C9000028CE6FB03CEDCF1000CCEF1004E38BFC7
:107CA000AEF1010EA6FB0C584FF000074FF0000597
:107CB000E6FB0E87A1FB08C6A0FB07CE16EB0E065F
:107CC00045F10005E1FB076515F1E04E7EBFA4F527
:107CD00080345FEA46066D4116F1800745F10005E4
:107CE0004FEA17274FEA066647EA0567A6F1DE4620
:107CF000B6F1805F4FEA15251FD9384624F0010CF4
:107D000005EBC471BCF1FE6F01EB0C1102D8F0BCA5
:107D1000BDE8008124425CBF01F5801E9EEAC47F5D
:107D200002D4F0BCBDE80081244238D4F0BCA1F1FB
:107D3000C041BDE8004100F02FBA4FEAD22242EA2A
:107D400043524FEAD323A7FB02864FEAD02040EAF2
:107D5000415007FB03661EEA0E0F4FEAD12105FBD7
:107D6000026658BFA6EB0056B6EB00564FEA520E1D
:107D70004EEAC37E18EB0E0E56EB530EBDD518EB34
:107D800002085E417F1C55F10005B6E74FF48015EF
:107D90004FF000074FF000064FF00008ADE7F0BCD1
:107DA0004FF0000001F1C04101F00041BDE8008149
:107DB00011EA0C1F0CEA131500D00CE013EA0C1F9B
:107DC00000F025804FF00000F0BC81EA030101F0D3
:107DD0000041BDE80081F0BCBDE8004181EA03013B
:107DE00000F0DAB9F0BCBDE8004170B500F086F9EA
:107DF000097EFC3E00F007B881EA03014FF0000065
:107E000001F00041704781EA030100F0C5B9F0BC00
:107E1000BDE800414FF0000021497047FFFDFBF92C
:107E2000F7F5F4F2F0EEEDEBE9E8E6E4E3E1E0DEAD
:107E3000DDDBDAD8D7D5D4D3D1D0CFCDCCCBCAC81F
:107E4000C7C6C5C4C2C1C0BFBEBDBCBBBAB9B8B746
:107E5000B6B5B4B3B2B1B0AFAEADACABAAA9A8A839
:107E6000A7A6A5A4A3A3A2A1A09F9F9E9D9C9C9B07
:107E70009A999998979796959594939392919190B2
:107E80008F8F8E8E8D8C8C8B8B8A89898888878743
:107E90008685858484838382828181800000FF07B8
:107EA0000000F87F4FEA41034FEA5353A3F5806384
:107EB000D3F11E03C8BFD3F1210C0CDD4FF00042FB
:107EC00042EAC12242EA505232FA03FC8CEAE17CD7
:107ED000ACEBE1707047102BC4BF0020704703F576
:107EE000787CBCF1FF3F04D06FF0004282EA2100B1
:107EF000704770B500F002F9499224800020704765
:107F0000F2E710F0004248BF4042B0FA80F310FAA6
:107F100003F10AD0C3F11D0303F580634FEA41501A
:107F200002EB035202EBD12170474FF00000704783
:107F300051EA030C17D41CF5801F58BFBCF5801FF5
:107F400000F10680994218BF704708BF9042704701
:107F500007D711F5801F58BF13F5801F19D4994218
:107F60007047894270471CF5801F08D5BCF5801FFB
:107F7000F7D58B4218BF704708BF824270474FF455
:107F8000001C1CEB410F38BF1CEB430F01D28B428E
:107F9000704770B500F0B2F8922449004FF00051DC
:107FA0004FF08053FFF71ABEDFF848C170B51CEAE6
:107FB000111E1EBF1CEA13159EEA0C0F95EA0C0F4A
:107FC00000F06F8081EA030423EA4C134EEAD47E6A
:107FD00021EA4C1141F4801143F48013AE44A1FB1B
:107FE000024CA0FB0365AEF17F7E361955EB0C0504
:107FF000A1FB034C4CF10003A0FB021C16EB0C068A
:10800000654153F10003094218BF46F0010613F41D
:10801000007F0BD14FEA03314FEA0530340341EAC8
:10802000155140EA16506FF003020AE04FEAC321EF
:108030004FEAC520F40241EA555140EA56506FF02C
:10804000020202EB2E4201EB025585EACE710AD004
:108050005FEA440C18BF24F0004450F1000041F1E5
:10806000000120EAD47040F2FE7C624500D270BD6F
:10807000A84214BF4FF080444FF04044002E08BF88
:108080000024BEF1806FA8BFA1F1C041BDE87040DF
:1080900080F282804FF0000001F1C04101F0004108
:1080A00070479EEA0C0F0CEA131518BF95EA0C0FE7
:1080B00006D04FF0000081EA030E0EF0004170BDC3
:1080C00000F01CF88900013E00F007B800F009B884
:1080D0004FEA430C5FEA5C5C08D081EA030100F0E0
:1080E0005BB84FEA410C5FEA5C5CF6D14FF00000F0
:1080F000014970470000FF070000F87F0EF1020EF3
:108100002EF0030E5EF8046B364205D4012A43EBD1
:10811000030515F5001F12D8012841EB010C1CF5D1
:10812000001F0CD80ED14FEAD17C15F5001F0CEBC7
:108130004C0C0CF1020C08BF4CEBD37C04E04FF06C
:10814000080C01E04FEAD37C0CEB4C0526FA05F64F
:1081500006F00706B6F1040C06D20EEB860CBDE85D
:1081600070404CF0010C6047DFE80CF0090B020294
:108170004FF000414FF00000A1F5002170BD1946FD
:108180001046012851EB010418BFD4F5001484BF38
:10819000002001F0004170BD0808A0F500114FEA71
:1081A0003101704753EA010C17D41CF5801F58BFEA
:1081B000BCF5801F00F106808B4218BF704708BFD6
:1081C0008242704707D713F5801F58BF11F5801FF3
:1081D00019D48B4270479B4270471CF5801F08D50D
:1081E000BCF5801FF7D5994218BF704708BF904271
:1081F00070474FF4001C1CEB430F38BF1CEB410FC2
:1082000001D2994270470FB40CBC03BCFFF7C1BE4A
:1082100091EA030F10B581F000413FF537AC83F0D0
:10822000004300F0EFB800002DE9F04101F5801C9B
:10823000BCF5001FC0F2C3804FEA115C21EA0C516B
:108240000CF1FD0C41F480115FEA5C0C0CF5C07C74
:1082500001D3400049413DA4890241EA905187027F
:108260008E0E0A0CA45D04FB04F602FB06F6C6F1B2
:108270004046A4FB0662F60D46EA422606FB06F4DB
:10828000A4FB01235242C3F1404338BF5B1EA6FB4F
:1082900002420024E6FB0324D20B42EA4446A6FB3A
:1082A0000623A1FB02E2A3FB07E4A4184FF000029F
:1082B00052F10002E3FB01426442C2F1404E38BF7A
:1082C000AEF1010EA6FB04234FF00002E6FB0E32D6
:1082D000A2FB03464FF00004B61954F10004E2FB80
:1082E0000264A1FB06E6A4FB07E816EB08064FF0C4
:1082F000000858F10008E4FB01687642C8F14058D4
:1083000038BFA8F10108A2FB06E4A3FB08E52D197C
:108310004FF0000454F10004E2FB0854A1FB05E611
:10832000A7FB04E818EB06084FF0000656F100061C
:10833000E1FB048618F1200556F10006A809A8F112
:108340001B08B10908F03F08B8F10A0F40EA86603F
:108350001CD901EB0C51BDE8F08100BFFCF5EEE843
:10836000E2DDD8D3CFCBC7C3C0BDB9B6B4B1AEACD4
:10837000A9A7A5A3A19F9D9B9A9896959392908F4C
:108380008D8C8B898887868584838281A0FB006899
:1083900000FB01F208EB4208B8EB872807D5341838
:1083A00058EB0104D5D5401C51F10001D1E7341A36
:1083B00078EB0104CDD4401E71F10001C9E75FEAFA
:1083C0004C0C5FEA9C5C0DD105D34FF0000001F02E
:1083D0000041BDE8F081BDE8F04170B5FFF78EFEC9
:1083E0006DDBFFBEBDE8F0414FF000000049704773
:1083F0000000F87F10B591EA030F48BF83F00043F7
:108400003FF544AB841A71EB030C07D212198CF0C0
:10841000004C43EB0C03001B61EB0C01DFF8A4E103
:108420004FEA1154A4EB135C1EEA430F18BF9EEAF7
:10843000445F00F0B08023EA6E03524221EA045107
:10844000C3EB6E0338BF5B1EDCF1200E25D322FA8E
:108450000CFE10EB0E0043FA0CFE41EB0E01CCF1CA
:10846000200E03FA0EFE10EB0E0051F10001CCF1CC
:10847000200E29D412FA0EF201EB0451BDE810408F
:1084800058BF7047401C1CBFB2F1004F7047002816
:108490000CBF491C20F00100704712EB020E43EBA9
:1084A000030218BF4FF0010E4EEA4202ACF1200C5D
:1084B000DCF11E0E54D943FA0CFE10EB0E0051F104
:1084C000FF31CCF11E0ED5D50EF1010E12FA0EFEC3
:1084D000404141EB010101EB445C5FEA5C5C10D977
:1084E00010EBDE7001EB045138BFBEF1004FBDE868
:1084F000104018BF704700280CBF491C20F0010035
:10850000704730D24FEAD42C11F5001124F40064E6
:108510001BD0B1FA81F20B3AA41AA41ED2F12003A7
:10852000914030FA03F31943904001EBCC71002CD9
:1085300001EB0451BDE81040A8BF704701F1C041F4
:108540004FF0000001F000417047B0FA80F310FADC
:1085500003F100D110BDE41A173C4805C90AE4E74D
:1085600001EB045110BD491001EB0451BDE810406E
:108570004FEA300002E04FF0000170474A0008BFA8
:108580000042F8D0B2F5001F28BF704701F000414B
:108590004FF0000070479EEA445F07D011EA5E0F7B
:1085A000BDE8104004BF002100207047BDE8104026
:1085B00070B5FFF7A3FD00BF40DFF63E83F000413A
:1085C000104670470000E0FF43004FEAD30C4FEA2B
:1085D0003C0C43401FBF40070CF1605113F0FE4FAD
:1085E00070471CF0006F03D100200CF00041704771
:1085F0000CF0004343EA507010B540EACC0000F0A4
:108600005CFA00BF000000924FEA0001FFF7C4BD12
:108610004FF000414FF00000A1F50021704700002D
:1086200090EA010F48BF81F0004100F1D482421A64
:108630003CBF801A89184FEAD0524FF07F4C1CEA99
:10864000410FA2EBD15318BF9CEA026F00F03B80B0
:108650004FF0004C4CEA00204CEA012121FA03FCC7
:1086600010EB0C0C1ED202F1FF325FEA1C2040EB33
:10867000C25038BF70471CF07F0F4FEA400C18BF44
:10868000BCF17F4F38BF7047C3F12003994008BF4A
:1086900020F00100BCF17F4F38BF7047A0F1C0400F
:1086A00000F051BA4FEA3C00000A40EBC25028BF2C
:1086B0001CF0FF0F4FEA400CE6D018BFBCF17F4F13
:1086C00038BF7047EAE79CEA026F05D010EA5C0FFA
:1086D00008BF00F00040704710B500F0EEF900BF91
:1086E00064FBBE3E401058BFC0F14040491058BF27
:1086F000C1F140418142EFF3008070474FF47F0C9D
:108700001CEAD0121EBF1CEAD11392EA0C0F93EAA6
:108710000C0F00F0858090EA010F48BF42F4807290
:1087200040F4000C41F400002CF07F4120F07F4029
:1087300000B58142A2EB03020FF2081CACEB504ED5
:10874000C0F100009EF800E04FEA4E0E00FB0EFC68
:1087500038BF49004FEA2C1C02F5FA020CFB0EF35D
:108760004FEACE1E4FEA112C4FEAC1210EEB635E99
:1087700042EB22420EFB0CFC4FEA1C5300FB0311A0
:108780004FEA112C4FEA01310EFB0CFC4FEADC4C96
:1087900000FB0C11C14228BF09184CEB03335DF8F4
:1087A00004EB10EB410143EBC250B2F57C0F38BF34
:1087B000704729D512F0F00F1CBF00F1C04000F047
:1087C00000407047008182838485868788898B8CEE
:1087D0008D8E8F919293959697999A9C9D9FA0A22A
:1087E000A3A5A7A8AAACAEB0B2B3B5B7B9BCBEC07A
:1087F000C2C5C7C9CCCED1D4D7D9DCDFE2E6E9EC1B
:10880000F0F3F7FAFE0000004FEA400C0CF1807C18
:10881000BCF17E4F28BF7047B0F1C04000F093B963
:1088200090EA010F0CEAD11348BF42F4807262450E
:1088300038BF634507D213F47F0F16D080EA0100DA
:1088400000F00040704710B500F037F9097EFC3E9B
:1088500000F005B880EA010000F00040704780EAAF
:10886000010000F0004000F06EB912F47F0F04BF69
:108870000248704780EA010000F065B90000C07F3F
:1088800041000B0ED3F19E0208D950F400034FEAC9
:10889000032323FA02F048BF4042704710B500F0AE
:1088A0000CF900BF49922480002070476FF000420D
:1088B00082EA200070470000C10DD1F19E0206DB64
:1088C0004FEA002343F0004323FA02F070470042CE
:1088D00007D54FEA4001B1F1FE4F02D24FF0000040
:1088E000704710B500F0E9F84992248000207047E5
:1088F0006FEA20007047000010F0004148BF40427E
:10890000B0FA80F310FA03F2C3F19D030BD051EAE1
:10891000C35101EB1220530638BF704700F101002C
:1089200008BF20F001007047B0FA80F310FA03F29C
:10893000C3F19D030AD0D90501EB1220530638BFBD
:10894000704700F1010008BF20F0010070470000EF
:1089500050EA010C00F113801CF5000F58BFBCF564
:10896000000F01D48842704707D710F5000F58BF99
:1089700011F5000F15D488427047894270471CF5E5
:10898000000F04D5BCF5000FF7D5814270474FF0BA
:10899000807C1CEB400F38BF1CEB410F01D28142A1
:1089A000704710B500F089F8922449004FF000504C
:1089B0004FF08051FFF796BE4FF47F0C1CEAD012A7
:1089C0001EBF1CEAD11392EA0C0F93EA0C0F00F0C1
:1089D000478090EA010F48BF42F480724FF0004C8C
:1089E0004CEA00204CEA012102EB0302A0FB011338
:1089F000A2F50002002918BF43F001035B0028BF65
:108A00004FEA330342EB22425FEA132C4CEBC25095
:108A10002EBFBCEB436FB2F57C0F70474FEA036C7F
:108A2000BCF1004F08BF20F00100B2F57C0F38BF49
:108A300070470BD582F0FF0212F5803FC8BF704728
:108A400000F1C040D8BF00F00040704700F5000CB6
:108A50005FEA4C0C48BF7047B0F1C04000F073B8FB
:108A600090EA010F0CEAD11348BF42F480726245CC
:108A700038BF634504D280EA010000F0004070472F
:108A800010B500F01AF800BF8900013E00F007B8E9
:108A900000F009B85FEA410C5FEA1C6C08D080EA7C
:108AA000010000F050B85FEA400C5FEA1C6CF6D1A0
:108AB0004FF00040A0F5800070470EF1020E2EF03E
:108AC000030E5EF8044B244204D44FEA4102B2F193
:108AD0007F4F11D84FEA4003B3F17F4F0CD80ED12E
:108AE0004FEAD07CB2F17F4F0CEB4C0C0CF1020C36
:108AF00008BF4CEBD17C04E04FF0080C01E04FEADA
:108B0000D17C0CEB4C0324FA03F404F00704B4F119
:108B1000040C06D20EEB840CBDE810404CF0010CA6
:108B20006047DFE80CF0070802024FF00040A0F5B4
:108B3000800010BD0846420018BFD2F1807288BF85
:108B400000F0004010BDFF2141EAD050C005704741
:108B500051EA000C00F113801CF5000F58BFBCF562
:108B6000000F01D48142704707D711F5000F58BF9D
:108B700010F5000F15D481427047894270471CF5EB
:108B8000000F04D5BCF5000FF7D5884270474FF0B1
:108B9000807C1CEB410F38BF1CEB400F01D2884298
:108BA000704780EA010081EA000180EA0100FFF7D6
:108BB000F8BE80F0004090EA010F7FF538AD81F0FB
:108BC000004100F008B8000090EA010F48BF81F0B2
:108BD00000413FF52CAD421A04D882F00042A0EBD0
:108BE000020011444FEAD0524FF07F4C1CEA410F73
:108BF000A2EBD15318BF9CEA026F4AD04FF0004C51
:108C00004CEA00204CEA012121FA03FCB0EB0C0CE9
:108C10000FD412F0FE0F36D05FEA4C001DD50012C3
:108C200040EBC25038BF70471CF03F0F18BF704771
:108C30000BE0A2F101025FEA1C2040EBC25038BFFA
:108C400070471CF07F0F18BF7047C3F12003994095
:108C500014BF401E20F00100704780084FEA122325
:108C600008BF7047B0FA80FCA2EB0C02CCF1280CD4
:108C700060FA0CF093EA122F04BF00EBC250704769
:108C80004FEAC3707047130A5FEADC1008BF7047F1
:108C9000F6E79CEA026F04D010EA5C0F08BF0020E0
:108CA000704710B5FFF709FF40DFF63E81F0004046
:108CB0007047FDF756BC0CF00F03092B08BF0820C6
:108CC00000F059800A2B0BD0082B18BF704708BF43
:108CD0001CF0400F0AD04FF000004FF00001704729
:108CE0001CF0400F18BF4FF0004070471CF0100FF1
:108CF00008D020F0704300F07F4242EAD3014FEAEF
:108D00004370704700F0604021F07F4242EA000269
:108D100001F07F4040EA727070474FF0FF0C4CF456
:108D2000E06C1CEA11531CBF9CEA030C9445C2BFC3
:108D3000DA4201EB02517047002B0DD0BCF1000F5D
:108D40000FD0002A01F00041A4BF41F0E04141F002
:108D50007F614FF00000704701F000414FF00000CC
:108D6000704750EA01334FF09B0C18BF4CF0806CF9
:108D70007EF42CAF70471CF4801F11D01CF4E02F40
:108D800003D06FEACC31490070474FF04050EFF309
:108D9000008222F0704242EA000282F300887047AB
:108DA0004FF0000070470000202A2A2A2A2A2A2A87
:108DB0002A2A2A2A2A2A2A2A2A2A2A2A2A2A2A2A13
:108DC0002A2A2A2A2A2A2A2A2A2A2A2A2A2A2A2A03
:108DD0002A2A2A2A2A2A2A2A2A2A2A2A2A2A2A2AF3
:108DE0002A2A2A2A2A2A2A2A2A2A2A0D0A0000009E
:108DF000202A202020202020205F5F5F5F2020206D
:108E00002020202020202020202020202020202062
:108E10002020205F5F5F5F5F202020202020202017
:108E2000202020202020202020202B2D2D2D2B2005
:108E300020202A0D0A000000202A202020202020A7
:108E40002F205F5F5F5C202020202020202020201A
:108E500020202020202020202020202F205F5F2085
:108E60005C202020202020202020202020202020C6
:108E700020207C2052207C2020202A0D0A00000087
:108E8000202A20202020202F202F202020202020BA
:108E900020202020202020202020202020202020D2
:108EA00020202F202F5F2F202F2020202020202047
:108EB000202020202020202020202B2D2D2D2B2075
:108EC00020202A0D0A000000202A202020202F2008
:108ED0002F2020205F5F5F5F5F5F5F5F20205F5F0D
:108EE0005F5F20205F5F5F20202F205F5F5F5F2F2D
:108EF0005F5F5F20205F5F5F5F20205F5F2020203B
:108F00005F5F20202020202020202A0D0A00000062
:108F1000202A2020202F202F20202F205F5F5F2F4E
:108F2000205F5F20602F5F20202F202F205F205C9C
:108F30002F202F2020202F205F5F205C2F205F20FC
:108F4000205C2F202F20202F202F202020202020A9
:108F500020202A0D0A000000202A20202F202F5F29
:108F60005F2F202F20202F202F5F2F202F202F201A
:108F70002F5F2F20205F5F2F202F2020202F202FDA
:108F80005F2F202F202F202F202F202F5F5F2F20BB
:108F90002F2020202020202020202A0D0A00000041
:108FA000202A20205C5F5F5F2F5F2F2020205C5FE6
:108FB0005F2C5F2F202F5F5F5F2F5C5F5F5F2F5FF6
:108FC0002F202020205C5F5F5F202F5F2F202F5FEE
:108FD0002F5F5F5F5F20202F202020202020202077
:108FE00020202A0D0A000000202A202020202020F6
:108FF0002020202020202020202020202020202071
:109000002020202020202020202020202020202060
:109010002020202020202020202020202F202F2032
:10902000202020202020202020202A0D0A000000BF
:10903000202A202020202020202020202020202026
:109040002020202020202020202020202020202020
:109050002020202020202020202020202020205FD1
:109060005F5F5F2F202F2020202020202020202025
:1090700020202A0D0A000000202A20202020202065
:1090800020202020202020202020202020202020E0
:1090900020202020202020202020202020202020D0
:1090A0002020202020202F5F5F5F5F5F2F20202067
:1090B000202020202020202020202A0D0A0000002F
:1090C000FB00003E000B0036000100020003000020
:1090D00000650054FFEF0000FA80000B12820001CF
:1090E000000200000000000000000000000000007E
:1090F00000280000FFFF4581FFFFFA72000000001A
:10910000000003E80000000100017FFFFFFE800176
:10911000001B000000000000000000000000000034
:10912000003E03304000000002CAE3093E80000018
:10913000200000000000000040000000600000006F
:1091400041FF000000000B2A00001655000021829C
:10915000FD872650FD800000001F000000058000F4
:1091600000000000000100000002000000030000F9
:10917000400000000000046F0002653200005EC085
:10918000400000000000000000000000000000009F
:10919000FB8C6F5DFD5D08D9007C733B006C12CCCD
:1091A0003200139D3200D0D632000800400001F496
:1091B000FFE68079020000000000D0D600002710F2
:1091C000FB00000040000000000000000000000064
:1091D000000000010000000000000100010000008C
:1091E0000000FA36FFBC308E0005FBF0FFD95BC8EB
:1091F000FFD09ABE000010A9FFF41EB200CEBBF74C
:109200000000000100000004000200020200000C47
:10921000FFC280000001800000CF800040000000FD
:109220000000000100000000000006000000001423
:10923000000000000000000000000000000000002E
:10924000000000000000000000000000000000001E
:10925000000000000000000000000000000000000E
:1092600000000000033F68B6793528BCC67ED16C8B
:1092700080000000400000000000B26A0000000012
:10928000000000000000000000003FF0000000307F
:1092900000000000000000000000000000000000CE
:1092A00000000000000000000000000000000000BE
:1092B0000000254D002F706D000005AE000C02D09F
:1092C0000000000000650054FFEF000000000000F7
:1092D000000001000044000000000C00000001003C
:1092E000000000000065000000540000FFEF0000D7
:1092F000000000000000000000000000000000006E
:10930000400000000000000000000000000000001D
:10931000400000000000000000000000000000000D
:10932000000000010000000200000000000000003A
:10933000000000000000000000000000000000002D
:10934000000000000000000000000000000000001D
:10935000001B0000000000000000000000000000F2
:1093600000000000000000000000000000000000FD
:1093700000000000000000000000000040000000AD
:10938000001B0000000000000000000000000000C2
:1093900000000000000000000000000000000000CD
:1093A00000000000000000000000000000000000BD
:1093B00000000000000000000000000000000000AD
:1093C000D8DCBAA2F1DEB2B8B4A88191F74A907F96
:1093D000916AF3F9DBA8F9B0BAA080F2CE81F3C2AA
:1093E000F1C1F2C3F3CCA2B280F1C6D880BAA7DF34
:1093F000DFDFF2A7C3CBC5B6F087A2942448703C48
:1094000095406834589B78A2F183922D557DD8B150
:10941000B4B8A1D09180F270F370F27C80A8F10111
:10942000B09887D943D886C988BAA1F20EB8978078
:10943000F1A9DFDFDFAADFDFDFF2AAC5CDC7A90C04
:10944000C92C97979797F1A989264666B0B4BA8038
:10945000ACDEF2CAF1B28C02A9B69800890E161ED3
:10946000B8A9B4992C547CB08AA896365676F1B92E
:10947000AFB4B083C0B8A89711B18F98B9AFF0243A
:109480000844106418F1A329557DAF83B593AFF05C
:10949000002850F1A3869F61A6DADEDFD9FAA38601
:1094A00096DB31A6D9F8DFBAA68FC2C5C7B28CC188
:1094B000B8A2DFDFDFA3DFDFDFD8D8F1B8A8B2863C
:1094C000B4980D355DB8AA98B0872D353DB2B6BABF
:1094D000AF8C96198F9FA70E161EB49AB8AA872C28
:1094E000547CB9A3DEDFDFA3B180F2C4CDC9F1B8EB
:1094F000A9B499830D355D89B9A32D557DB593A385
:109500000E161EA92C547CB8B4B0F19783A8118410
:10951000A50998A383F0DA240844106418D8F1A5AB
:1095200029557DA58595021A2E3A565A4048F9F3D9
:10953000A3D9F8F098832408441064189782A8F1FE
:1095400011F098A2240844106418DAF3DED883A539
:109550009401D9A302F1A2C3C5C7D8F18492A24D48
:10956000DA2AD84869D92AD86855DA32D85071D958
:1095700032D8705DDA3AD85879D93AD87893A34D71
:10958000DA2AD84869D92AD86855DA32D85071D938
:1095900032D8705DDA3AD85879D93AD878A88A9A08
:1095A000F02850789EF38818F19F1D98A8D908D804
:1095B000C89F129EF315A8DA1210D8F1AFC897878A
:1095C00034B5B994A421F3D922D8F22DF3D92AD8ED
:1095D000F235F3D932D881A4606061D961D86C6862
:1095E00069D969D8747071D971D8B1A384193D5DF6
:1095F000A3831A3E5E931030811011B8B0AF8F94E0
:10960000F2DA3ED8B49AA88729DAF8D8879A35DAF8
:10961000F8D8879A3DDAF8D8B1B9A49885022E56C1
:10962000A581000C14A397B08AF12DD928D84DD963
:1096300048D86DD968D8B1840DDA0ED8A32983DA59
:109640002C0ED8A3844983DA2C4C0ED8B8B0A88A43
:109650009AF520AADADFD8A840AAD0DADED8A86026
:10966000AADAD0DFD8F19786A8319B069907AB9785
:1096700028889BF00C201440B8B0B4A88C9CF0044F
:109680002851791D301438B282ABD0982C505078C4
:10969000789BF11AB0F08A9CA82951798B295179CD
:1096A0008A2470598B2058718A4469388B394068F4
:1096B0008A6448318B304960A58820097158446814
:1096C000113964493019F1AC002C547CF08CA80499
:1096D000285078F1889726A85998AC8C02264666BF
:1096E000F0899CA82951792470594469386448311B
:1096F000A98809205970AB11384069A81931486010
:109700008CA83C415C207C00F187981986A86E7675
:109710007EA999882D557D9EB9A38A228A6E8A5684
:109720008A5E9FB183062646660E2E4E6E9DB8ADAC
:10973000002C547CF2B18CB499B9A32D557D819144
:10974000AC38AD3AB58391AC2DD928D84DD948D88D
:109750006DD968D88C9DAE29D904AED851D904AE44
:10976000D879D904D881F39DAD008DAE1981ADD9DA
:1097700001D8F2AEDA26D88E912983A7D9ADADAD46
:10978000ADF32AD8D8F1B0AC89913E5E76F3AC2E19
:109790002EF1B18C5A9CAC2C2828289CAC3018A8EF
:1097A000988128343C9724A728343C9C24F2B08923
:1097B000AC912C4C6C8A9B2DD9D8D851D9D8D8795A
:1097C000D9D8D8F19E88A331DAD8D8912DD928D804
:1097D0004DD948D86DD968D8B18393353D8025DA05
:1097E000D8D88569DAD8D8B49381A328343CF3ABB0
:1097F0008BF8A391B609B4D9ABDEFAB0879CB9A3B4
:10980000DDF1A3A3A3A395F1A3A3A39DF1A3A3A318
:10981000A3F2A3B49080F2A3A3A3A3A3A3A3A3A39F
:10982000A3B2A3A3A3A3A3A3B087B599F1A3A3A3B2
:1098300098F1A3A3A3A397A3A3A3A3F39BA3A3DC40
:10984000B9A7F1262626D8D8FF037B034CCD6C039D
:10985000AB0336567600680402CB47A20218040018
:10986000058BC1010C0400000000037F060CC92C0D
:10987000979797038903264666006C0220000240F2
:10988000040000000002440400000000024804003C
:10989000000000024C040000000002500400000020
:1098A00000025404000000000258040000000002FE
:1098B0005C040000000002BC040000000001EC0495
:1098C00000004000037F060CC92C97979704020301
:1098D0000D355D040904872D353D00A3010000000E
:1098E0000001078601FE074105F120283038077E78
:1098F00001300746019A074704F1283038076C0405
:10990000F1283038021602000101B202FFFF019077
:10991000040923A135016A02060001600800000065
:10992000000000000000600440000000016202002E
:1099300000006004004000004154004F4B004154BF
:109940002B4E414D453F004F4B2B4E414D453A4329
:1099500072617A65706F6E790041542B4E414D45AE
:109960004372617A65706F6E790041542B50494E95
:109970003F004F4B2B50494E3A3132333400415463
:109980002B50494E313233340041542B424155441F
:109990003F004F4B2B424155443A31313532303044
:1099A0000041542B424155443800000000000000A3
:1099B000555555555555C53F7D6FEB0312D6D4BF50
:1099C0005544880E55C1C93F3B8F68B52882A4BF56
:1099D00088B20175E0EF493F09F7FD0DE13D023F17
:1099E0004B2D8A1C273A03C0C88A599CE52A00409F
:1099F00059018D1B6C06E6BF82922EB1C5B8B33FEC
:109A00004FBB610567ACDD3F182D4454FB21E93F96
:109A10009BF681D20B73EF3F182D4454FB21F93F85
:109A2000E2652F227F2B7A3C075C143326A6813C0B
:109A3000BDCBF07A8807703C075C143326A6913CB6
:109A4000C4EB98999999C9BF711623FEC671BCBF22
:109A50006D9A74AFF2B0B3BF9AFDDE522DDEADBF8A
:109A60002F6C6A2C44B4A2BF0D5555555555D53FA2
:109A7000FF8300922449C23F6E204CC5CD45B73FBD
:109A8000513DD0A0660DB13FEB0D76244B7BA93F35
:109A900011DA22E33AAD903F000000000000000020
:109AA00002400000000000A000000000054000008F
:109AB000000000C8000000000C4000000000409CB6
:109AC00000000000194000000020BCBE00000000A3
:109AD00034400000BFC91B8E00000004B5400000E8
:109AE000504BCFD06607E2CF010000006C41000070
:109AF0003E8251AADFEEA73401000000D9420000E7
:109B0000DCB5A0E23A301F97FFFFFFFFB44500002D
:109B1000FD25A0C8E9A3C14FFFFFFFFFFF3F0000E5
:109B20000000008000000000FF3F000000000080F7
:109B300000000000709B000800000020880000006A
:109B400028010008F89B000888000020800E000013
:109B5000440100081C00000043000000F8FFFFFF64
:109B60000C0000000E0000000F0000002E0000009E
:109B700000A24A04000000000000000001020304EB
:109B800006070809000000000000000000000000B7
:109B900034C310101134C310101100000000000075
:109BA00000000000000000000000000000000000B5
:109BB000000000000000000102030401020304068B
:109BC0000708090204060800000000000000000069
:109BD00000000000000000000A000000000000007B
:109BE0000000000000000000000000000000000075
:089BF00000000000000000006D
:04000005080003717B
:00000001FF
