:020000040800F2
:10000000B0150020CD030008F9310008FB310008CD
:10001000FF3100080332000807320008000000002A
:100020000000000000000000000000000B3200088B
:100030000D320008000000000F3200082B320008CB
:10004000E7030008E7030008E7030008E7030008E8
:10005000E7030008E7030008E7030008E7030008D8
:10006000E7030008E7030008E7030008E7030008C8
:10007000E7030008E7030008E7030008E7030008B8
:10008000E7030008E7030008E7030008E7030008A8
:10009000E7030008E7030008E7030008E703000898
:1000A000E7030008E7030008E7030008E703000888
:1000B000E703000879130008CD120008E7030008E1
:1000C000E7030008E7030008E7030008E703000868
:1000D000E703000877210008E7030008E7030008AA
:1000E000E7030008E7030008E703000800F002F850
:1000F00000F06DF80AA090E8000C82448344AAF155
:100100000107DA4501D100F062F8AFF2090EBAE852
:100110000F0013F0010F18BFFB1A43F0010318473B
:10012000D4E40000F4E400000A444FF0000C10F89E
:10013000013B13F0070408BF10F8014B1D1108BF65
:1001400010F8015B641E05D010F8016B641E01F805
:10015000016BF9D113F0080F1EBF10F8014BAD1C55
:100160000C1B09D16D1E58BF01F801CBFAD505E073
:1001700014F8016B01F8016B6D1EF9D59142D6D3CD
:10018000704700000023002400250026103A28BFF5
:1001900078C1FBD8520728BF30C148BF0B607047F9
:1001A00066290DF0A486642909F02A86782909F0C9
:1001B0006386002070471FB50AF060FA0400002033
:1001C00000210CF0FBFBE0601FBD10B510BD0AF074
:1001D00071FB1146FFF7EFFF02F0E2FE0AF08FFB22
:1001E00003B4FFF7F2FF03BC01F0DAFE0CB5002008
:1001F000019000906C48006840F480306A490860C3
:1002000000BF6948006800F4003000900198401C6D
:100210000190009818B90198B0F5A06FF1D162482B
:10022000006800F4003010B10120009001E00020CF
:1002300000900098012843D15C48006840F010000D
:100240005A4908600846006820F003000860084624
:10025000006840F002000860534840685249486016
:100260000846406848600846406840F4806048603E
:100270000846406820F47C1048600846406840F416
:10028000E81048600846006840F08070086000BFD1
:100290004548006800F000700028F9D042484068E6
:1002A00020F00300404948600846406840F00200E2
:1002B000486000BF3C48406800F00C000828F9D1B5
:1002C0000CBD10B5FFF792FF10BD10B536480068A1
:1002D00040F001003449086008464068344908404D
:1002E0003149486008460068324908402E49086094
:1002F0000846006820F4802008600846406820F422
:10030000FE0048604FF41F008860FFF7DAFF4FF0EF
:1003100000602949086010BD10B5002100200022AE
:10032000214B5B6803F00C0121B1042906D0082998
:1003300028D107E0214B224C236027E01F4B204CA3
:10034000236023E0184B5B6803F47010164B5B6866
:1003500003F48032022303EB904022B9194B43434C
:10036000174C23600DE0104B5B6803F4003323B19E
:10037000144B4343124C236003E0104B4343104C97
:10038000236003E00D4B0E4C236000BF00BF064B03
:100390005B68C3F303130C4CE15C094B1B68CB4057
:1003A000074C236010BD00000010024000200240F6
:1003B0000000FFF8FFFFF6FE08ED00E000127A00F3
:1003C0000000002000093D0004000020094880478B
:1003D00009480047FEE7FEE7FEE7FEE7FEE7FEE727
:1003E000FEE7FEE7FEE7FEE704480549054A064B3F
:1003F00070470000CB020008ED000008B00F00209D
:10040000B0150020B0110020B011002010B5044636
:100410004FF0E020006920F004004FF0E021086177
:10042000E11704EB5171C1F3C7011A4A117010466C
:10043000007800EB4001C1EBC0104FF6FF7101EAFC
:10044000C0001549088015A009F0A6FC10BD70B5C4
:10045000044602F0F0FE054600BF02F0ECFE401B31
:1004600004EB4401C1EBC411B0EBC10FF5D370BD77
:1004700070B5044602F0DFFE054600BF02F0DBFE69
:10048000401BA042FAD370BD002100E0491C81420C
:10049000FCD37047140000201600002044656C61F6
:1004A000792066756E6374696F6E20696E69742059
:1004B000737563636573732E2E2E0D0A00000000A2
:1004C00010B59948806940F0040097498861084652
:1004D000806940F0080088610846806940F00100AA
:1004E0008861924800684FF2F00188438F490860A4
:1004F0000846006843F2300108438C4908608B4885
:100500000C30006840F00A0088490C3108608848C7
:1005100000684FF20F01884385490860084600686B
:1005200043F20301084382490860814808300068AB
:1005300040F009007E49083108607E48406840F07C
:1005400000707C494860C9147948001F06F0C9FF53
:100550004FF480717648001F06F0C3FF02217348F4
:1005600006F0BFFF0821714806F0BBFF10BD10B5B3
:100570007148007800F0010030B14FF400616C4820
:10058000001F06F0ACFF05E04FF400616848001F53
:1005900006F0A7FF68480078C0F3400030B14FF480
:1005A00080716348001F06F09AFF05E04FF48071E8
:1005B0005F48001F06F095FF5F480078C0F3800099
:1005C00020B10221594806F08AFF03E00221574872
:1005D00006F087FF58480078C0F3C00020B108211A
:1005E000524806F07CFF03E00821504806F079FFEE
:1005F00010BD10B50020514908705148407808B925
:10060000012008704F480068012802D104204B499E
:1006100008704B48007810B90320484908704A48D0
:10062000007E10B10220454908704848007810B19A
:100630000120424908704448407E10B106203F49DD
:10064000087043480078022802D105203B49087011
:100650003A480078072862D2DFE800F004191D321A
:1006600048595D0035484088401C80B23349488075
:10067000032801DB002048803048408818B9032057
:100680002D49087002E000202B49087047E0032044
:100690002949087043E029484088401C80B2274916
:1006A0004880032801DB002048802448408818B98E
:1006B0000F202149087002E000201F4908702EE039
:1006C0001E484088401C80B21C494880042801DB39
:1006D0000020488019484088022803DA0C20164977
:1006E000087002E003201449087018E0134840889D
:1006F000401C80B211494880042801DB002048805A
:100700000E488178012088400B49087007E00F20CF
:100710000949087003E000200749087000BF00BFC6
:10072000FFF725FF10BD000000100240000C014043
:1007300004080140000001401C00002018000020B7
:10074000C00B002010030020C4090020C6010020B7
:100750006C03002010B52021F84806F0A6FE012801
:1007600000D110BD0020FCE738B504460323022267
:100770006B21D020009400F03FFD38BD10B501235F
:1007800007226B21D02000F06CFD10BD38B5044667
:10079000022304221B21D020009400F02DFD38BD3F
:1007A00038B50446022304221C21D020009400F016
:1007B00023FD38BD10B50446234606226B21D02008
:1007C00000F04FFD10BD10B5DD4B01227521D0208A
:1007D00000F0A6FCDA48007810BD10B5FFF7F3FF73
:1007E000682801D1012010BD0020FCE710B50446A7
:1007F000234605226A21D02000F033FD10BD10B53C
:100800000446234601223721D02000F02AFD10BDE6
:1008100010B5FFF7E2FF10B1012808D103E0C9A02D
:1008200009F0BAFA03E0CDA009F0B6FA00BF00BFA4
:1008300010BD10B580226B21D02000F0D3FC3220F7
:10084000FFF705FE00221921D02000F0CBFC032287
:100850006B21D02000F0C6FC02223721D02000F00E
:10086000C1FC03221A21D02000F0BCFC0320FFF7BA
:100870008DFF10221C21D02000F0B4FC10BD1CB54F
:1008800004466B4606223B21D02000F049FC9DF82F
:1008900001009DF8001040EA012000B220809DF880
:1008A00003009DF8021040EA012000B260809DF82C
:1008B00005009DF8041040EA012000B2A0801CBD94
:1008C0001CB504466B4606224321D02000F028FCCC
:1008D0009DF801009DF8001040EA012000B2208040
:1008E0009DF803009DF8021040EA012000B26080EC
:1008F0009DF805009DF8041040EA012000B2A08098
:100900001CBD38B50546002400BF13E035F81400BF
:10091000000A8DF8000015F814008DF8010006207B
:1009200000EB4400C1B26B460222D02000F02CFC48
:10093000601CC4B2032CE9DB38BD38B50546002481
:1009400000BF13E035F81400000A8DF8000015F818
:1009500014008DF80100132000EB4400C1B26B4677
:100960000222D02000F010FC601CC4B2032CE9DB92
:1009700038BD70B504460D46164604F01F040EB18E
:1009800044F020040DB144F0400422466D21D020F3
:1009900000F028FC70BD10B5044622466E21D02020
:1009A00000F020FC10BD10B5654B01226F21D02056
:1009B00000F0B6FB6248007810BD10B5604B022213
:1009C0001321D02000F0ACFB5D4840785C490978E9
:1009D00040EA012000B210BD10B5594B022215218A
:1009E000D02000F09DFB564840785549097840EAF0
:1009F000012000B210BD10B5514B02221721D020AA
:100A000000F08EFB4E4840784D49097840EA0120BD
:100A100000B210BD2DE9F05F83460F4691461C469B
:100A2000002211464846FFF7A4FF2046FFF7B3FF18
:100A3000002649E010257019B84201DDB81BC5B287
:100A4000C4F58070A84201DA6042C5B20BEB060A19
:100A500053462A466F21D02000F096FB0A9800B337
:100A6000002211464846FFF784FF2046FFF793FF18
:100A7000414B2A466F21D02000F052FB4FF0000876
:100A80000DE01AF808003C4911F80810884202D01D
:100A90000020BDE8F09F08F1010000F0FF08A84524
:100AA000EFDB701986B26019C4B2BE420CDA1CB911
:100AB00009F1010000F0FF09002211464846FFF746
:100AC00058FF2046FFF767FFBE42B3DB0120E0E797
:100AD0002DE9FE4F05460F46002456E02046611CD6
:100AE0008CB215F800A02046611C8CB215F800B03D
:100AF0002046611C8CB22E5C002E0FDD05EB040835
:100B0000002001215B465246CDE9001031464046A7
:100B1000FFF780FF0290A01984B231E02046611CEB
:100B20008CB215F80090B9F1010F27D1322238218B
:100B3000D02000F057FB0120029021E0000C014082
:100B4000B80300204D505536303530206E6F74207C
:100B5000666F756E642E2E2E0D0A00004D505536B0
:100B600030353020636865636B207375636365732C
:100B7000732E2E2E0D0A00004A0400200020029041
:100B8000029810B90020BDE8FE8FBC42A6DB012010
:100B9000F9E72DE9FC4104460D4616461F46DDF8EF
:100BA000208000203B4632462946CDE90080204681
:100BB000FFF730FFBDE8FC8170B504460D4600220A
:100BC00029462046FFF784FF70BD10B50446224633
:100BD0003821D02000F006FB10BD10B50446224697
:100BE0001921D02000F0FEFA10BD38B504460323C9
:100BF00002221A21D020009400F0FEFA38BD38B548
:100C00000446032305221A21D020009400F0F4FAB0
:100C100038BD10B5044622467021D02000F0E2FA1B
:100C200010BD10B5044622467121D02000F0DAFA3A
:100C300010BD10B50446234600221146D02000F016
:100C400010FB10BD10B50446200A8F4908704C7087
:100C50000B4602221321D02000F096FA10BD10B5E9
:100C60000446200A884908704C700B460222152160
:100C7000D02000F089FA10BD10B50446200A824940
:100C800008704C700B4602221721D02000F07CFA2D
:100C900010BD10B5012302226A21D02000F0E1FA34
:100CA00010BD10B5784B02227221D02000F038FA26
:100CB000754840787449097840EA012010BD10B5A4
:100CC000044622461F21D02000F08CFA10BD10B53A
:100CD000044622462121D02000F084FA10BD10B530
:100CE000044622462021D02000F07CFA10BD10B529
:100CF000044622462221D02000F074FA10BD2DE9CE
:100D0000F04781460E4690461C460022114640465A
:100D1000FFF72FFE2046FFF73EFE002525E01027B7
:100D2000E819B04201DD701BC7B2C4F58070B8424B
:100D300001DA6042C7B209EB05033A466F21D020C1
:100D400000F022FAE81985B2E019C4B2B5420CDA13
:100D50001CB908F1010000F0FF08002211464046CE
:100D6000FFF707FE2046FFF716FEB542D7DBBDE8CA
:100D7000F08770B504460D4623462A467421D020DC
:100D800000F0CEF970BD10B53A21D02000F0A5F9E1
:100D900010BD10B50446234607226A21D02000F07A
:100DA00060FA10BD10B50021D02000F096F904467D
:100DB00004F0010010BD10B50021D02000F08DF925
:100DC000044604F03F04204610BD38B50446E0B2A6
:100DD00006231A4600210090D02000F00DFA38BDFD
:100DE00010B50121D02000F078F9044604F03F044A
:100DF000204610BD38B50446E0B206231A4601214C
:100E00000090D02000F0F8F938BD10B50221D020B4
:100E100000F063F9044604F03F04204610BD38B5E5
:100E20000446E0B206231A4602210090D02000F0CA
:100E3000E3F938BD70B504460D46032C00DD70BDE6
:100E400004EB44002530C1B22A46D02000F0CAF994
:100E500000BFF4E710B501231A466A21D02000F044
:100E600000FA10BD10B50446234606226A21D020A0
:100E700000F0F7F910BD10B5012303226A21D0203C
:100E800000F0EFF910BD0000B803002008B5012103
:100E9000082006F033FDC020ADF8000010208DF8CA
:100EA000030003208DF802006946FE4806F06AFA46
:100EB000FDA008F071FF08BD10B5FA48006820F0E9
:100EC0007040F84908600846006840F040500860EB
:100ED0000120FC490860FC49C1F898010420FFF793
:100EE000C7FA0020F74908600420FFF7C1FA002084
:100EF000F549C1F8980110BD10B5EA48006820F026
:100F00007040E84908600846006840F040500860BA
:100F10000020EC49091F0860EB49C1F89C0104203E
:100F2000FFF7A6FA0120E749091F0860E649C1F862
:100F30009C010420FFF79CFA10BD10B50024D9488D
:100F4000006820F07040D74908600846006840F00B
:100F5000004008600120DB490860FFF789FA0120A2
:100F6000D949C1F89801FFF783FA0AE0601CC4B2BE
:100F7000322C03DDFFF7C0FF012010BD0120FFF779
:100F800077FAD048803800680028EFD1CD49091F92
:100F9000086000BFF1E710B50020CA49091F0860CA
:100FA000C048006820F07040BE49086008460068EC
:100FB00040F0405008600020C349C1F89C01012066
:100FC000FFF756FA0120BF49091F0860FFF750FAE2
:100FD0000020BD49C1F8980110BD10B50020B949E5
:100FE000091F0860AF48006820F07040AD490860F4
:100FF0000846006840F0405008600120B249C1F83E
:101000009C01FFF735FA0120AE49091F0860FFF780
:101010002FFA0020AC49C1F8980110BD70B5044604
:10102000A048006820F070409E49086008460068AB
:1010300040F0405008600020A249091F08600025C8
:1010400016E0E0099F4908606006040E0120FFF7E2
:101050000FFA01209C49C1F89801FFF709FA002016
:101060009849091F08600120FFF702FA681CC5B201
:10107000082DE6DB70BD70B5054600248948006880
:1010800020F07040874908600846006840F0004042
:101090000860002617E000208A49091F0860012027
:1010A000FFF7E6F901208849C1F898016006040EAF
:1010B00084488038006808B1601CC4B20120FFF782
:1010C000D7F9701CC6B2082EE5DB15B1FFF763FF38
:1010D00001E0FFF782FF204670BD70B505460E4661
:1010E0000024FFF7E9FE2846FFF798FF641CFFF78E
:1010F00024FF3046FFF792FF641CFFF71EFFFFF747
:10110000DBFE691CC8B2FFF789FF641CFFF715FFFF
:101110000020FFF7B0FF0446FFF7EEFE204670BD4B
:101120002DE9F04706460F46154698460024FFF77E
:10113000C3FE3046FFF772FFFFF7FFFE3846FFF7AA
:101140006DFFFFF7FAFEFFF7B7FE711CC8B2FFF79D
:1011500065FFFFF7F2FE00BF0FE0681EA04204D05B
:101160000120FFF788FF814603E00020FFF783FF9F
:10117000814608F80490601CC4B2AC42EDDBFFF776
:10118000BBFE2046BDE8F0872DE9F04180460D46C4
:1011900016461F460024FFF78FFE4046FFF73EFF2E
:1011A000FFF7CBFE2846FFF739FFFFF7C6FE00BF6B
:1011B00006E0385DFFF732FFFFF7BFFE601CC4B2E8
:1011C000B442F6DBFFF798FE0120BDE8F08170B570
:1011D00005460E46144631462846FFF77EFF20702E
:1011E000012070BD37B504460D4602AB01222946E9
:1011F0002046FFF7C9FF3EBD2DE9F8430746884664
:1012000014461D46089E6A4641463846FFF7DFFFF2
:1012100028B3601CFF2101FA00F0C4F10801294441
:10122000491EFF220A41104300F0FF09C5F10800E2
:1012300006FA00F0C6B2C4F1070006419DF80000AE
:1012400000EA090000909DF80000304300909DF8EE
:10125000002041463846FFF7C5FFBDE8F88300206F
:10126000FBE7F8B506460F4614461D466A46394662
:101270003046FFF7ACFF2DB10120A0409DF80010D3
:10128000084305E00120A0409DF8001021EA00007D
:10129000C0B200909DF8002039463046FFF7A2FF0B
:1012A000F8BD0000000C01404949432062757320DD
:1012B000696E697420737563636573732E2E2E0DCA
:1012C0000A0000009C8121420080214210B50121CA
:1012D000DD4807F070FA00284DD0DC480088401C3B
:1012E000DA490880DA480088401CD9490880D94882
:1012F0000088401CD7490880D7480088401C80B22D
:10130000D549088000EBC00101EB00104FF47A7161
:10131000B1EB400F05DC0020CF4908800120CF4908
:101320000870CF480088401C80B2CD49088000EB8F
:1013300080004FF47A71B1EB800F05DC0020C849C2
:1013400008800120C7490870C7480088401C80B247
:10135000C549088000EB80004FF47A71B1EB400F73
:1013600005DC0020C04908800120C0490870012127
:10137000B54807F031FA10BD2DE9F04F85B00121D5
:10138000BB4807F018FA00287CD001F086F8B9496C
:101390000860C8680CF014F9CDE90201B549086885
:1013A0000BF097FD80460022B34B0BF00BFC06467A
:1013B0000F46B04948690CF003F932463B46CDE987
:1013C00000010BF0EDFD0446DDE902230BF0E8FD22
:1013D00082460BF009FBA7494860A8480068401CFA
:1013E000A649086008460068B0F5FA7F73D100206E
:1013F0000860A34808F0D0FCA24808F0CDFCA24841
:1014000008F0CAFCA14808F0C7FCA14808F0C4FCD9
:10141000A04808F0C1FCA04808F0BEFC9F4808F0B6
:10142000BBFC9F4808F0B8FC9E4808F0B5FC9E48FD
:1014300008F0B2FC924808F0AFFC9CA008F0ACFCAD
:101440009AA008F0A9FC9A49D1F8B0000CF0B8F8BD
:10145000044622460B4697A008F09EFC9449D1F81A
:10146000AC000CF0ADF8044622460B4698A008F0FC
:1014700093FC8F49D1F8A8000CF0A2F8044622464C
:101480000B4600E064E099A008F086FC9EA008F0FE
:1014900083FC4FF08040818EA5A008F07DFC4FF0CA
:1014A0008040018FA8A008F077FC4FF08040818F2A
:1014B000ABA008F071FCB0480188B0A008F06CFC4B
:1014C00091A008F069FCB34800680CF079F8044674
:1014D00022460B4600E037E0AFA008F05DFCB548BF
:1014E00000680CF06DF8044622460B46B2A008F0E6
:1014F00053FCB84800680CF063F8044622460B46DB
:10150000B5A008F049FC80A008F046FC594948689D
:101510000CF056F8044622460B46B6A008F03CFCF8
:1015200007F0BCFE049004980CF04AF804462246EA
:101530000B46B8A008F030FCBC480179BCA008F00C
:101540002BFC71A008F028FC0121494807F044F960
:1015500005B0BDE8F08F3EB505460C4601210420DC
:1015600006F0D9F9384806F02DFAA0B2ADF804001B
:10157000681E80B2ADF800000020ADF80600ADF89E
:1015800002006946304806F0F1FA01212E4807F0C2
:101590000FF9012211462C4806F05FFE01212A486E
:1015A00006F040FEA8A008F0F7FB3EBD3EB505469C
:1015B0000C460121022006F0AEF92D4806F002FA91
:1015C000A0B2ADF80400681E80B2ADF800000020A3
:1015D000ADF80600ADF802006946254806F0C6FAE7
:1015E0000121234807F0E4F801221146204806F0C3
:1015F00034FE01211E4806F015FE9AA008F0CCFB2F
:101600003EBD08B54FF4A06005F0EEFD1D208DF83D
:10161000000002208DF8010000208DF8020001205A
:101620008DF80300684605F0E4FD1E208DF80000EB
:1016300001208DF801008DF802008DF80300684646
:1016400005F0D7FD08BD0000000800402A0000207A
:10165000380000203E0000203A000020300000202A
:101660004000002033000020420000203400002011
:1016700000040040C40900200000B04044000020E5
:10168000ACE50008D4E4000864E500081CE50008A7
:101690008CE4000844E40008FCE30008B4E300081C
:1016A0006CE3000824E30008DCE200080D0A0000F7
:1016B000C00B002020596177202D2D2D3E2025358F
:1016C0002E3266206465677265650D0A00000000B1
:1016D0002050697463682D2D2D3E2025352E3266ED
:1016E000206465677265650D0A00000020526F6C0A
:1016F0006C202D2D2D3E2025352E32662064656709
:101700007265650D0A0000003D3D3D3D3D3D3D3D9E
:101710003D3D3D3D3D3D3D3D3D3D3D3D3D3D3D3DF9
:101720003D3D3D3D3D3D3D3D3D3D3D3D0D0A0000C6
:10173000204D6F746F72204D312050574D2D2D2D3F
:101740003E2025640D0A0000204D6F746F72204DFD
:10175000322050574D2D2D2D3E2025640D0A0000BE
:10176000204D6F746F72204D332050574D2D2D2D0D
:101770003E2025640D0A000040000040204D6F749B
:101780006F72204D342050574D2D2D2D3E20256455
:101790000D0A0000D000002020507265737375722E
:1017A00065202D2D2D3E2025352E32662050610DD1
:1017B0000A000000D400002020416C746974756434
:1017C00065202D2D2D3E2025352E3266204D0D0A0B
:1017D00000000000CC0000202054656D706572612F
:1017E000747572652D2D2D3E2025352E32662043D1
:1017F0000D0A0000204261747465727920566F6C86
:10180000746167652D2D2D3E2025332E3266760DB1
:101810000A00000020486F76657220546872752DAA
:101820002D2D3E2025332E32660D0A004800002063
:101830002052582041646472202D2D2D3E20307896
:1018400025780D0A0000000054696D65722034206F
:10185000696E697420737563636573732E2E2E0D24
:101860000A00000054696D6572203320696E697446
:1018700020737563636573732E2E2E0D0A000000AE
:1018800030B540F2E734A04200DB204640F2E734B6
:10189000A14200DB214640F2E734A24200DB2246AF
:1018A00040F2E734A34200DB2346002800DC00209E
:1018B000002900DC0021002A00DC0022002B00DCD3
:1018C00000234FF08045A8862987AA87384D2B80B2
:1018D00030BD10B588B000240121042006F00EF8B8
:1018E0000121084606F017F80F20ADF81C0018205B
:1018F0008DF81F0002208DF81E0007A92D4805F065
:1019000041FD4FF0804006F05DF82B4800682B4900
:10191000B0FBF1F0401E84B240F2E730ADF81400A5
:10192000ADF810400020ADF81600ADF8120004A983
:101930004FF0804006F01AF9684606F04CFC602033
:10194000ADF800000120ADF802000020ADF806005F
:10195000ADF8080069464FF0804006F044F969464A
:101960004FF0804006F081F969464FF0804006F064
:10197000C9F969464FF0804006F00FFA0821C80601
:1019800006F080FD0821C80606F085FD0821C8067E
:1019900006F08EFD0821C80606F093FD0121880798
:1019A00006F040FC06A008F0F7F908B010BD0000F2
:1019B00040000040000801400000002000366E0199
:1019C0004D6F746F7220696E6974207375636365FF
:1019D00073732E2E2E0D0A0070B505460C4610218D
:1019E0007E4805F07EFD284600F07CF9064620463C
:1019F00000F078F91021794805F071FD304670BD8E
:101A000070B504461021754805F06BFD204600F0C6
:101A100069F9002000F066F9054610216F4805F0CD
:101A20005EFD284670BD2DE9F04107460D4616467D
:101A300010216A4805F055FD384600F053F98046FC
:101A4000002404E0285D00F04DF9601CC4B2B442EB
:101A5000F8DB1021614805F042FD4046BDE8F08109
:101A60002DE9F04107460D46164610215B4805F06A
:101A700038FD384600F036F98046002405E00020A5
:101A800000F030F92855601CC4B2B442F7DB1021D5
:101A9000524805F024FD4046BDE8F08170B504468B
:101AA0000D464FF480514D4805F01BFD2A46214656
:101AB000A020FFF7B8FF4FF48051484805F00FFD14
:101AC00070BD1FB546A103C9CDE90201002405225E
:101AD00002A93020FFF7A7FF052269461020FFF773
:101AE000BFFF00BF06E01DF80400C22800D003E0DD
:101AF000601CC4B2052CF6DB00BF052C05D13AA052
:101B000008F04AF9012004B010BD3CA008F044F9E7
:101B10000020F8E710B500F083F8FFF7D2FF08F0D7
:101B20009AF810BD10B54FF480512C4805F0D9FC3F
:101B3000FF21E220FFF750FF052237492A20FFF757
:101B400072FF01212120FFF747FF01212220FFF72B
:101B500043FF28212520FFF73FFF20213120FFF7F9
:101B60003BFF0F212620FFF737FF0F212020FFF733
:101B700033FF4FF48051194805F0B1FC10BD10B58A
:101B80000720FFF73DFF044604F0400058B1202233
:101B900022496120FFF764FF08F012F82146272050
:101BA000FFF71AFF002410BD70B504460720FFF7A9
:101BB00027FF054629462720FFF70EFF05F04000C6
:101BC00050B1202221466120FFF74AFFFF21E22089
:101BD000FFF702FF002070BD0120FCE70008014074
:101BE000C2C2C2C2C20000004E524632344C303132
:101BF00020666F756E642E2E2E0D0A004E524632F0
:101C0000344C303120636865636B206661696C65B4
:101C1000642E2E2E0D0A0000480000206A040020C9
:101C200000B587B00121042005F068FE01210820DD
:101C300005F064FE0121080305F060FEE020ADF828
:101C4000040001208DF8060018208DF8070001A976
:101C5000314805F097FB4FF48050ADF804000120A7
:101C60008DF8060010208DF8070001A92A4805F01C
:101C700089FB1020ADF8040001208DF8060010202B
:101C80008DF8070001A9244805F07CFB10212248AB
:101C900005F025FC0020ADF808004FF48270ADF887
:101CA0000A000020ADF80C00ADF80E00ADF81000F1
:101CB0004FF40070ADF812001020ADF814000020B1
:101CC000ADF816000720ADF8180002A9134806F079
:101CD000B1FF0121114807F052F811A008F05CF89B
:101CE00007B000BD10B5044600BF02210B4807F045
:101CF000CAF80028F9D02146084807F071F800BF5B
:101D00000121064807F0BFF80028F9D0034807F082
:101D100069F8C0B210BD0000000801400030014069
:101D20005350492062757320696E6974207375631E
:101D3000636573732E2E2E0D0A00000010B58B48BC
:101D40008B4948608B4848608BA008F025F810BD8F
:101D50008748006940F080008549086170478448E1
:101D6000C16801F0010008B10120704701F00400D2
:101D700008B10220F9E701F0100008B10320F4E7F0
:101D80000020F2E770B5044600BFFFF7E8FF054604
:101D9000012D00D006E00120FEF76AFB601E84B230
:101DA000002CF2D100BF04B9FF25284670BD70B5E4
:101DB0000546002445F6FF70FFF7E4FF0446C4B96A
:101DC0006B48006940F002006949086108464561B6
:101DD000006940F04000086145F6FF70FFF7D2FF50
:101DE0000446012C05D06248006920F002006049D9
:101DF0000861204670BD70B505460E46FF20FFF70E
:101E0000C1FF044694B95A48006940F0010058499E
:101E100008612E80FF20FFF7B5FF0446012C05D096
:101E20005348006920F0010051490861204670BD07
:101E30000146088870472DE9F04105460E461746D1
:101E4000002407E036F814102846FFF7D4FFAD1C35
:101E5000601C84B2BC42F5DBBDE8F08130B50346BE
:101E60000C461546002207E01846FFF7E1FF24F86C
:101E700012009B1C501C82B2AA42F5DB30BD2DE93A
:101E8000F05F80468A461746B8F1006F02D3424899
:101E9000804501D3BDE8F09FFFF750FFA8F1006B2C
:101EA0004FEA9B25CBF34809C9F50074A74200DC33
:101EB0003C464DE04FF0006101EB85208A14374924
:101EC000FFF7CCFF00260BE009EB0600334931F8A1
:101ED00010004FF6FF71884200D003E0701C86B2FC
:101EE000A642F1DB00BFA6421BDA4FF0006101EB16
:101EF0008520FFF75CFF002608E03AF8160006EBA5
:101F00000901264A22F81100701C86B2A642F4DBB1
:101F10004FF0006101EB85208A142049FFF78BFF09
:101F200004E0224651464046FFF785FFA74200D114
:101F30000FE06D1C4FF000090AEB440AA044381B67
:101F400087B2B7F5007F02DD4FF4007400E03C4635
:101F5000B0E700BFFFF7FCFE00BF9BE713B50446E8
:101F6000012201A92046FFF78AFF1CBD2301674516
:101F700000200240AB89EFCD496E6E657220464C61
:101F800041534820756E6C6F636B20737563636596
:101F900073732E2E2E0D0A0000000108AA040020E3
:101FA000014600BF704700BF8F4A128802F040020E
:101FB000002AF9D0C2B28C4B1B1D1A80704708B59D
:101FC00025208DF8000000208DF801008DF802001A
:101FD00001208DF80300684605F00BF908BD2DE9D6
:101FE000F05F05460E4630010BF004FD81467F4947
:101FF00005FB01F00BF0FEFC824649460BF080FB2E
:10200000074638460BF08EFC84B220460BF0F2FCFB
:10201000834639460BF064FE82464FF083410BF055
:1020200031FD81460BF07EFC80464FF6FF7000EAE2
:10203000041404EB080084B26D48806940F0040089
:102040006B4988610846806940F48040886169482E
:10205000006820F47F60674908600846006840F423
:102060000B6008606248C06840F480406049C86006
:102070000846C06820F48040C8605B48083004808F
:10208000001D008842F20C01084357490C310880BA
:102090000846008840F4807008800846008840F0B8
:1020A00020000880FFF78BFF0020534908804880FC
:1020B0007F208880514888600020514908804880EE
:1020C0007F2088804F48886029464FA007F064FE33
:1020D000314655A007F060FEBDE8F09F0288838876
:1020E0001A40836899540288521C0280704710B5C8
:1020F000044621464048FFF7F1FF012240F22771D4
:10210000394806F048FC10BD10B5044621463A484F
:10211000FFF7E4FF012240F22771334806F03BFC51
:10212000204610BD01464A888B881A408B68985C0F
:102130004A88521C4A807047014608884A88801A9B
:102140008A881040704701884180704770B5044606
:102150000D46002606E021782748FFF7BFFF641CE4
:10216000701CC6B2AE42F6DB012240F227711E4857
:1021700006F011FC70BD10B540F227711A4806F048
:10218000EFFC90B11C48FFF7CDFF044621461648EE
:1021900006F062FC1848FFF7CFFF18BB002240F2A0
:1021A0002771114806F0F7FB1CE040F225510E485C
:1021B00006F0D6FCB0B140F225510B4806F0FAFC0F
:1021C000094806F04DFC1F490870084601780C4884
:1021D000FFF784FF1B48007801F0EBFA19480078FC
:1021E00001F080FC10BD00000038014040420F00AB
:1021F0000010024004080140AC08002044090020FF
:10220000B8080020C40800204D435520636C6F635C
:102210006B206672657175656E63793A25644D4809
:102220007A200D0A000000005541525420312062EE
:102230006175642066726571756E63793A256420F4
:102240000D0A00005400002010B5E348806940F0FA
:102250000800E1498861E148006820F00F00DF498B
:102260000860DD48806940F40070DB4988610846F9
:10227000C06840F40070C8600846C06820F4007070
:10228000C8600846406820F44040486008464068FE
:1022900040F400404860D2480068D2490840D04924
:1022A00008600846006808600846006820F48070EE
:1022B0000860081D006820F00200091D086008463B
:1022C000006820F4602008600846006840F4602040
:1022D00008600846006840F48010086008460068FE
:1022E00020F4006008600846006840F400000860C0
:1022F000BB482830006820F47000B94928310860D4
:102300000846006800200860B5480C30006820F0DE
:102310003800B3490C3108600846006840F03800C6
:102320000860081F006820F4E010091F08600846D4
:10233000006840F4E0100860081F006840F00100E9
:10234000091F08600846006840F00800086000BFE8
:10235000A348001D006800F008000028F8D1A0483C
:10236000001D006840F004009D49091D086000BF81
:102370009B48001D006800F004000028F8D19A482E
:102380009A4988609A4808619A48C8600A46116963
:1023900090680BF0B5F9954948610020C86196A096
:1023A00007F0FAFC10BD01468D483030006820F07F
:1023B0001F008B4A303210601046006808431060DE
:1023C0008748001D006840F48000854A121D106097
:1023D00000BF8348001F006800F002000028F8D00A
:1023E0007F484830006880B2704770B506460B469B
:1023F0000024002505E03046FFF7D5FF0444681CA3
:10240000C5B29D42F7DBB4FBF3F080B270BD2DE99D
:10241000FE4F0024A14608E01020FFF7C4FF20442F
:1024200084B209F1010000F0FF09B9F1140FF3DBE8
:10243000142094FBF0F084B220460BF0DBFA8246C5
:102440000BF0BEF807464FF06632734B0AF0A8FD5A
:1024500005460AF0C9FA029002980BF0B1F8054659
:102460006E4A6F4B0AF0D0FE07466E4A6E4B0AF07A
:10247000A9FB00226D4BCDE900010AF0E7FA824684
:102480000AF0B2FA02906A4902980BF0FBFA029045
:1024900002980BF02BFABDE8FE8F00B5052108204D
:1024A000FFF7A3FF00BD2DE9FF5FFFF7F6FF4F49E0
:1024B0000860C8680BF084F882468B464B49086870
:1024C0000AF007FD804600225A4B0AF07BFB0446C7
:1024D0000D46464948690BF073F8064622462B46DE
:1024E0000AF05EFD52465B46CDE900010AF058FD58
:1024F000CDE902010AF078FA3C4948604E4800787C
:10250000002832D048680BF05BF804464B4A4C4B2D
:102510000AF00AFD03D801203449087602E00020C1
:1025200032490876314948680BF04AF804464FF0C2
:102530003332444B0AF0F8FC13D82C48C069401CD5
:102540002A49C8610846C06908282ADD02203E4998
:10255000087040F2DC503D49088048808880C8807F
:102560001FE000202149C8611BE0204948680BF0AA
:1025700027F804464FF03332354B0AF0D5FC0DD224
:102580001A4948680BF01CF804460022314B0AF047
:1025900005FE03D201201549087602E00020134908
:1025A0000876124948680BF00BF804460022294BC4
:1025B0000AF0BAFC0AD201200C49487604210748E7
:1025C00004F08FFF24A007F0E7FB02E0002007499A
:1025D0004876BDE8FF9F000000100240000C01405B
:1025E00004240140FFFFF000CDCC7C40C409002052
:1025F000A470FD3FD7A35040426174746572207689
:102600006F6C7461676520414420696E6974202E87
:102610002E2E0D0A0000000066664A3FE17A14AED5
:1026200047E1F63F22FDF675E09C713F000039401E
:10263000000020410000B040A8030020703D0AD7F0
:10264000A3700940333309406C03002026010020A9
:1026500033330D400000F03F425420706F776572B5
:1026600020636C6F736520737563636573732E2EBF
:102670002E0D0A0010B57A48806940F008007849AC
:1026800088617848006820F47060764908600846E0
:10269000006840F44070086072480C30006840F0F8
:1026A000040070490C31086004216E4804F017FFE3
:1026B0006DA007F071FB10BD70B50546002404E065
:1026C000002070490855601CC4B2142CF8DB4FF48C
:1026D00000616D4804F003FF6420FDF7B8FE4FF47D
:1026E0000061694804F0FDFE002404E0285DFFF766
:1026F000FEFC601CC4B2284607F071FCA042F5D86D
:102700006420FDF7A4FE002407E06048FFF70AFDFF
:102710002146621CD4B25B4A50545C48FFF70CFD62
:102720000028F2D170BD70B50546002407E0554879
:10273000005D295D884200D006E0601CC4B22846D6
:1027400007F04DFCA042F2D800BF284607F047FC36
:10275000A04201D0002070BD0120FCE710B500248C
:1027600014E04B4850F824104A480078FFF737FC33
:102770004948FFF7A1FF4948FFF7D5FF012803D1DA
:10278000434850F8240010BD601CC4B2092CE8DB9B
:102790004FF4E130F7E710B53F48FFF78DFF3F48B2
:1027A000FFF7C1FF012800D110BD3DA007F0F4FAEA
:1027B000FFF7D4FF4849086008460068B0F5E13FDC
:1027C00040D04648FFF778FF4548FFF775FF0024E3
:1027D00035E04FF400612C4804F081FE4FF4807125
:1027E000294804F07CFE02211E4804F078FE0821EE
:1027F0001C4804F074FE4FF47A70FDF728FE4FF485
:102800000061214804F06DFE4FF480711E4804F011
:1028100068FE0221134804F064FE0821114804F008
:1028200060FE4FF47A70FDF712FE2E4850F8240037
:1028300029490968884200D103E0601CC4B2092C10
:10284000C7DB02E028A007F0A7FA4FF4E1311148F6
:102850000078FFF7C4FB2CA007F09EFA00BFA3E7A7
:1028600000100240000C0140425420706F776572E6
:1028700020696E697420737563636573732E2E2EE1
:102880000D0A0000AC0A002000080140B808002032
:102890005C000020140100202EE0000831E0000858
:1028A0004254206261756E6420636865636B2061C9
:1028B0006E6420696E697420626567696E2E70723D
:1028C000696E7466206973207573656C6573732E09
:1028D0000D0A0D0A00000000800000204FE00008F3
:1028E000A9E00008840000204254206D6F64756CDC
:1028F0006520626175642069732031313532303072
:10290000206F6B61790D0A000D0A425420626175D7
:102910006E6420636865636B20616E6420696E6914
:102920007420656E642E0D0A00000000FD49FE4A09
:10293000127841F82200FC490978491C0A2291FBCF
:10294000F2F302FB1311F84A11707047F749F84A85
:10295000127841F82200F6490978491C0A2291FBB5
:10296000F2F302FB1311F24A1170704710B50146E1
:10297000012008E0EF4A52F82030421EED4C44F8A6
:102980002230421C10B20A28F4DBEA4A516210BD20
:102990002DE9F04106460C460027002506E056F8D2
:1029A000251038460AF038FE07466D1CA542F6DBB6
:1029B00020460AF0D7FF8046414638460AF0A0FE7E
:1029C000BDE8F08170B5002430E0FEF775FAEE2026
:1029D000FEF724FBFEF7B1FAA22101EB4401C8B2D5
:1029E000FEF71CFBFEF7A9FAFEF786FA0520FDF7B5
:1029F0003FFDFEF761FAEF20FEF710FB0120FDF727
:102A000037FDFEF79AFA0120FEF735FB0546012057
:102A1000FDF72EFD0020FEF72EFB0646FEF76CFAB2
:102A200046EA0520C44921F81400641C062CCCDBBE
:102A300070BD10B5FEF740FAEE20FEF7EFFAFEF794
:102A40007CFA1E20FEF7EAFAFEF777FAFEF754FA50
:102A500010BD10B50446FEF72FFAEE20FEF7DEFAA1
:102A6000FEF76BFA2046FEF7D9FAFEF766FAFEF794
:102A700043FA10BD38B50024FEF71EFAEE20FEF72B
:102A8000CDFAFEF75AFA0020FEF7C8FAFEF755FA1B
:102A9000FEF732FAFEF710FAEF20FEF7BFFAFEF764
:102AA0004CFA0120FEF7E7FA8DF800000120FEF74E
:102AB000E2FA8DF801000020FEF7DDFA8DF8020041
:102AC000FEF71AFA9DF8000001049DF8010001EBE1
:102AD00000209DF802104418204638BD10B5FFF7BD
:102AE000A8FF6420FDF7B3FCFFF76CFF10BD10B525
:102AF000FFF7C0FF9149086010BD2DE9FF5F00217D
:102B00008F4800680AF0BEFE30D18E480088322817
:102B100013DD8C4800880AF0F3F9064632460B466E
:102B2000894903C90AF04EF8044609F05DFF84495B
:102B300008600120854908700BE0854800680AF0AC
:102B40003FFD044680480CC8204609F07FFF7E4ABE
:102B500003C27C480088401C7A49088000207D49D7
:102B600008600846006804B0BDE8F09F744801683A
:102B7000774800680AF0C4FD01900AF021FD764A0A
:102B8000764BCDE9020109F083F880460022744BB0
:102B90000AF03AFB06460022724B0AF001FA04469C
:102BA0004FF08042704B0AF0FBF9824609F01CFF9F
:102BB000684908606D480168664800680AF02CFDA5
:102BC0006449086008460068CDE72DE9F04F8FB0F2
:102BD000FFF750FF82465848008958490968A1EB21
:102BE0000020C5170446544840890021A0FB04B3C7
:102BF00001FB043100FB05114FF40002002358468D
:102C000007F0A5F84FF4FA6C024612EB0C0641F1FE
:102C10000007494841880020000440EA11400A04A6
:102C20004549C9880023A1FB04CB03FB04B301FB86
:102C300005334FEADC1141EA4361511840EBE310E0
:102C4000CDE90C103C4801884FF000004FEAC0303D
:102C500040EA51404FEAC132374989884FF00003BA
:102C6000A1FB04CB03FB04B301FB05334FEA1C219A
:102C700041EA0361511840EB2320CDE90A104FF4DB
:102C8000FA61711A77F1000076DAA4FB040105FB02
:102C9000041104FB0511C00F40EA4100C917CDE93A
:102CA00008014FF4FA62B11A67F10000A1FB01823A
:102CB00000FB012201FB002905210020A8FB0123C4
:102CC00009FB013108FB001040104FEA3201CDE949
:102CD00006104FF005014FF00002A8FB010309FBAD
:102CE000013108FB02114FEA900040EA81704FEA7F
:102CF000A101CDE90401DDE90801361A67EB0107FE
:102D0000DDE90CC2DDE90610BCEB010162EB00025B
:102D1000CDE90C12DDE90AC2DDE90401BCEB0000DB
:102D200026E029E0CC0A002000010020F40A00205F
:102D3000010100201C0B0020C00A0020B40000206C
:102D4000BC000020C8000020C0000020CA000020F5
:102D5000D000002004010020EBE2361AC05BC83F1F
:102D60000000F03F1AE95041E17A843FB8000020AA
:102D700062EB0102CDE90A024FEAEA72DDE90A01DB
:102D8000AAFB003C02FB00C00AFB0100590D41EA0E
:102D9000C0234115DDE90C209A1A61EB0001CDE951
:102DA00000214FF400420023009806F0D0FFCDE947
:102DB00002010AF0F2FD6F490860304639460AF018
:102DC000ECFD6D4903900AF05DFE8346FFF7AEFD12
:102DD0000A216A48FFF7DCFD69490860FFF78DFEAC
:102DE000684908600FB0BDE8F08F10B566480078FC
:102DF000012806D0022813D0032820D004283FD170
:102E00002CE05820FFF725FE6048006A6049086002
:102E100000F011FA5F49086002205B49087033E056
:102E200000F009FA5B490968401A59490968884263
:102E300004D9FFF75CFE03205349087024E04820C2
:102E4000FFF707FE5148006A5149086000F0F3F9A6
:102E50005049086004204C49087015E000F0EBF977
:102E60004C490968401A4A490968884207D9FFF75E
:102E7000ACFEFF204849087001204349087003E078
:102E800001204149087000BF00BF10BD10B53E4889
:102E90000078012804D0022811D0042846D128E067
:102EA0005820FFF7D6FD3948006A3949086000F01C
:102EB000C2F9384908600220334908703AE000F04E
:102EC000BAF934490968401A3149096888420FD96A
:102ED000FFF70DFE4820FFF7BCFD2C48006A2C4987
:102EE000086000F0A8F92B49086004202649087002
:102EF00020E000F0A0F927490968401A2449096830
:102F0000884212D9FFF761FEFF202349087058203C
:102F1000FFF79FFD1D48006A1D49086000F08BF90E
:102F20001C49086002201849087003E00220164975
:102F3000087000BF00BF10BD70B50024002500F070
:102F40007AF904460FE0FFF7A1FF00F074F9054697
:102F5000281B4FF47A71B0FBF1F040F6C41188429F
:102F600001D3002070BD0D4800780028EBD001206F
:102F7000F8E70000D00000200AD7233CCC0A00204C
:102F8000CC000020D4000020A8000020DC0000209D
:102F9000AC000020B0000020CB000020CA000020C0
:102FA000092000F0E5F900F033F9814800684FF49A
:102FB0007A72B0FBF2F1B1F1807F00D31DE021F015
:102FC0007F40401E4FF0E022506150170F22002832
:102FD00007DA13071D0E774B00F00F04241F1D5551
:102FE00003E013071C0E744B1C5400BF00204FF06D
:102FF000E02290610720106100BF4FF4E1316F487B
:103000000078FEF7ECFF00F04DF9FEF797FE02F0B6
:10301000B6FFFDF755FAFFF72DFBFEF75AFCFFF759
:1030200013F9FDF733FFFDF704FCFEF773FD00F025
:10303000E9F9FFF7B0FBFFF736FAFFF74FFD01F0B4
:10304000EBFB4FF47A715D480078FEF784FA0A23AF
:103050001A4619461846FEF713FC01205849087015
:10306000FFF76AFFA3E0574800880A282DDB0020FD
:103070005449088000F0DFF853494968401A534921
:10308000486000F0D8F85049486003F0A4FD0120E2
:103090004F490870FFF7FAFE4E48007850B101F032
:1030A0004BFD38B100204B49087001204A49087097
:1030B0004A49087006F03EF806F0A5FC00F0BBF89F
:1030C00041494968401A46494860FEF758FD45485D
:1030D000007820B300204349087000F0ACF83A496A
:1030E000C968401A3949C86000F0A5F83649C86077
:1030F00000F032FA04F02DF831480078022801D1AE
:1031000004F001F801F004FF06F0B9F905F07FFFC3
:1031100000F091F82C49C968401A3149C86032481A
:103120000078E0B300203049087000F084F82649A8
:103130008968401A2549886000F07DF82249886036
:103140002A480088401C80B22849088000EBC00152
:1031500001EB001041F28831B1EB800F04DC00205C
:1031600022490880FFF79FF92148007820B100F03C
:1031700037FC00201E4908701748007820B1002055
:103180001549087002F012FF03F06CFFFDF731FAE9
:1031900000F051F80C498968401A114988601548B7
:1031A000007820B100201349087000F0D3FE5AE7E0
:1031B0000000002018ED00E000E400E01401002011
:1031C0006C0300203E000020440B00206C0B00200C
:1031D00028000020C6010020B0020020C00B002003
:1031E000580B00203000002034000020080100208F
:1031F0001901002034010020704700BFFEE700BF26
:10320000FEE700BFFEE700BFFEE77047704770476C
:1032100000B585B0684604F004FB1F490098B0FB78
:10322000F1F01E49086005B000BD1D480068401C53
:103230001B490860704700BF194801684FF0E02043
:103240008269174800688142F6D11448006800EB93
:103250004003C3EBC010C2EBC000104B1B68B0FBB7
:10326000F3F001EB4103C3EBC11300EBC300704764
:1032700030B50446FFF7DFFF054600BFFFF7DBFF71
:10328000401B04EB4401C1EBC411B0EBC10FF5D3FB
:1032900030BD03480068704740420F000C01002019
:1032A0001001002010B5FEF7ACF9FEF788FE10BD46
:1032B00000209C490861C860142048610020886192
:1032C000C8610846006840F0010008600846406890
:1032D000954908409349486008460068934908406A
:1032E000904908600846006820F48020086008467D
:1032F000406820F4FE004860002088607047014666
:103300008848006840F00100864A10601046006856
:1033100010601046006840F48020106000BF8148B3
:10332000006800F002000028F9D07E484268881E3C
:1033300042EA80407B4A5060104640685060104628
:10334000006840F08070106000BF7648006800F0B0
:1033500000700028F9D07348406840F00200714ABC
:1033600050608806000E724A107010460078704750
:1033700000B502460023FFF79BFF6A48006840F44F
:1033800080306849086000BF66480068400C00282B
:10339000FAD04FF4806063494860901EC2B208467C
:1033A000406840EA824048600846406840F4803007
:1033B00048606048006840F032005E490860594843
:1033C000006840F080705749086000BF55480068A9
:1033D000400E0028FAD05348406840F0020051499E
:1033E000486005E04F484068C0F3870303F00303DB
:1033F000022BF7D1901CC006000E4D4908700846FC
:10340000007800BD10B5002455E04FF400614A4833
:1034100004F065F84FF48071474804F062F8022127
:10342000464804F05EF80821444804F05AF844483D
:10343000FDF72AF84FF400613F4804F052F84FF4CA
:1034400080713D4804F04BF802213C4804F049F8F3
:1034500008213A4804F045F83948FDF715F84FF4CB
:103460000061354804F03DF84FF48071324804F0B3
:1034700038F80221314804F032F808212F4804F0CE
:1034800030F82F48FDF700F84FF400612A4804F0A7
:1034900028F84FF48071284804F023F802212748C7
:1034A00004F01FF80821254804F019F82448FCF717
:1034B000EBFF601CC4B2042CA7DB00242BE04FF40C
:1034C00000611D4804F00BF84FF480711A4804F0B5
:1034D00006F80221194804F002F80821174803F001
:1034E000FEFF1748FCF7D0FF4FF40061124803F0CD
:1034F000F8FF4FF48071104803F0F3FF02210F48EA
:1035000003F0EFFF08210D4803F0EBFF0C48FCF738
:10351000BBFF601CC4B2032CD1DB0AA006F03CFC4C
:1035200010BD0000001002400000FFF8FFFFF6FE93
:10353000140100200020024000080140000C01405E
:10354000A0BB0D0041726D65642073756363657384
:10355000732E2E2E0D0A00002DE9F047F648007854
:10356000022806D140F2DC50F449C88088804880A7
:103570000880F248C088B0F57A7F03DA4FF47A7099
:10358000EE49C880ED48C088B0F5FA6F03DD4FF40E
:10359000FA60EA49C880E9488088B0F57A7F03DAA2
:1035A0004FF47A70E5498880E4488088B0F5FA6F76
:1035B00003DD4FF4FA60E1498880E0484088B0F5C7
:1035C0007A7F03DA4FF47A70DC494880DB48408820
:1035D000B0F5FA6F03DD4FF4FA60D8494880D74858
:1035E0000088B0F57A7F03DA4FF47A70D349088007
:1035F000D2480088B0F5FA6F03DD4FF4FA60CF4986
:103600000880CE49C988A1F57A700AF0ABF9CC4997
:103610008860CA498988A1F2DC500AF0A3F9814682
:10362000C84AC94905F00AFE044609F0C9FF074621
:10363000C64AC74B09F0B4FC054609F0D5F9C049A4
:10364000C860BE494988A1F2DC500AF08BF9814676
:10365000C04ABD4905F0F2FD044609F0B1FF074636
:103660000022BD4B09F09CFC054609F0BDF9B449A8
:103670004860B2490988A1F2DC500AF073F981462A
:10368000B44AB14905F0DAFD044609F099FF07464E
:103690000022B14B09F084FC054609F0A5F9A849C0
:1036A0000860AE480078012802D0032828D112E033
:1036B00001F053FB48B1AA48007E30B90220A74967
:1036C0000870A520A749087004E00020A5490870EB
:1036D000A249087015E00020A2490870012096490F
:1036E0000870A14908700020A049086005F0D6FDC7
:1036F0009F49086000209F4908709849087000E0C1
:1037000000BF00BFBDE8F08710B59B4800790C28CA
:1037100041D008DC05282ED0062830D0072809D053
:10372000092844D13FE00D2839D010282BD0CD28CE
:103730003DD12CE0904840798F49897940EA0120B9
:103740007E49C8808C48C0798B49097A40EA0120BB
:103750007A4988808848407A8749897A40EA0120F6
:10376000764948808448C07A8349097B40EA012031
:10377000724908801BE001207849087017E0032097
:103780007649087013E001207C4908700FE00120A1
:103790007B4908700BE0012005F02AFC07E00020BF
:1037A00005F026FC03E002206349087000BF00BF5B
:1037B00010BD10B5044670487249097844547148E8
:1037C0000078032834DA6F48007820B101280ED041
:1037D00002282CD11BE068486A490978405C2428FB
:1037E00004D168480078401C664908701FE06248B0
:1037F00064490978405C4D2805D162480078401C36
:103800006049087002E000205E4908700FE05A48E5
:103810005C490978405C3C2805D15A480078401C36
:103820005849087002E000205649087000BF38E08F
:1038300054480078032808D10020534908704E48A6
:1038400050490978405C514908704E480078401C46
:103850004C490870084601784C480078801D814228
:1038600015DB48480078401E4349085C4649097802
:10387000884208D1FFF748FF012045490870FFF74B
:1038800008FD4449086000203E49087009E03D48B1
:103890000078401E3849085C3B49097848403A495D
:1038A000087010BD10B5044621463B48FEF716FCD3
:1038B0003548007860403449087010BD10B50446A2
:1038C00036490C70084601783348FEF707FC2E484D
:1038D00000783249097848402B490870200A2F495E
:1038E0000870084601782C48FEF7F8FB2648007857
:1038F0002A490978484024490870200C2749087053
:10390000084601782448FEF7E9FB1F480078234960
:10391000097848401C490870200E20490870084664
:1039200001781D48FEF7DAFB174800781B49097833
:1039300048401549087010BD6C0300202601002086
:10394000400F002000008C420000FA43AA9F9622FC
:10395000DCA54C400000484200004440210100200A
:10396000C4090020A8030020740300207C03002069
:10397000780300202C030020800B00201901002078
:10398000C6010020230100202E0100202401002078
:10399000220100201C010020AC0800202F01002083
:1039A00010B5044645490C70084601784448FEF7B6
:1039B00095FB4448007841490978484041490870DE
:1039C000200A3E490870084601783D48FEF786FB0C
:1039D0003C4800783949097848403A49087010BD98
:1039E00070B52420FFF75EFF4D20FFF75BFF3E2000
:1039F000FFF758FF0020334908700E20FFF752FFF1
:103A00001020FFF74FFF3049D1F8A8002F490AF0E6
:103A100039F8054609F06AFF04B22046FFF7C0FFF7
:103A20002949D1F8AC0029490AF02CF8054609F0DB
:103A30005DFF04B22046FFF7B3FF2349D1F8B00081
:103A400022490AF01FF8054609F050FF04B220464B
:103A5000FFF7A6FF1E48806880F000461D493046EB
:103A60000AF010F8054609F041FF0446FFF726FF6B
:103A70001949486817490AF005F8054609F036FF64
:103A800004B22046FFF78CFF1148406980F00046E1
:103A90001249304609F0F6FF054609F027FF04B247
:103AA0002046FFF77DFF07480078FFF7FBFE012265
:103AB00040F227710A4804F06EFF70BD300100200B
:103AC000AC0800202E010020C00B00200000204187
:103AD000980C00200000C842C409002000007A446D
:103AE00000380140F749097807295AD2DFE801F088
:103AF000040D171D592C49000021F34A1170AA2802
:103B000002D10121EF4A11704BE0AF2803D102210D
:103B1000EC4A117002E00021EA4A117041E0EB49E1
:103B200008700321E74A11703BE0E949087005215C
:103B3000E44A1170E649097801F25911E34A127812
:103B40001144E14A11702CE0E2490978E04A127808
:103B500091420CDADF490A780978491CDD4B19706B
:103B6000DD498854D84909780144D74A1170D949A8
:103B70000978D74A1278914202D10621D14A1170B0
:103B80000FE0D1490978814207D10121D34A117050
:103B90000021D04A1170D24A11700021C94A117017
:103BA00000BF00BF704710B5002400BF05E0CD493D
:103BB000085DFFF797FF601CC4B2062CF7DB10BD51
:103BC000C9490A780978491CC74B1970C7498854F4
:103BD000C74909780144C64A1170704710B50446B8
:103BE000C4F30720FFF7ECFFE0B2FFF7E9FF10BDD9
:103BF00070B505460E46002404E0285DFFF7E0FF9F
:103C0000601CC4B2B442F8DB70BD10B5B648017890
:103C1000B648FEF79BFA0020B3490870B449087013
:103C200010BD70B504460020B1490870AA20FFF706
:103C3000C7FFAA20FFF7C4FF2046FFF7C1FF102CE3
:103C400006D0112C50D0122C7ED0142C4BD1E5E094
:103C50000C20FFF7B5FFA7490868A74909F012FF34
:103C6000064609F043FE05B22846FFF7B7FFA14913
:103C70004868A14909F006FF064609F037FE05B27B
:103C80002846FFF7ABFF9B4988689B4909F0FAFE7D
:103C9000064609F02BFE05B22846FFF79FFF97491D
:103CA0000868954909F0EEFE064609F01FFE05B2C8
:103CB0002846FFF793FF914948688F4909F0E2FED3
:103CC000064609F013FE05B22846FFF787FF8B4929
:103CD0008868894909F0D6FE064609F007FE05B254
:103CE0002846FFF77BFFE5E00C20FFF769FF8449DA
:103CF0000868814909F0C6FE064609F0F7FD05B2DD
:103D00002846FFF76BFF7E4948687B4909F0BAFEF9
:103D1000064609F0EBFD05B22846FFF75FFF78493C
:103D20008868754909F0AEFE064609F0DFFD05B268
:103D30002846FFF753FF734908686F4909F0A2FE50
:103D4000064609F0D3FD00E01CE005B22846FFF767
:103D500045FF6C494868684909F094FE064609F039
:103D6000C5FD05B22846FFF739FF664988686249F4
:103D700009F088FE064609F0B9FD05B22846FFF7AE
:103D80002DFF97E00C20FFF71BFF5F4908685A4999
:103D900009F078FE064609F0A9FD05B22846FFF7AE
:103DA0001DFF59494868544909F06CFE064609F060
:103DB0009DFD05B22846FFF711FF534988684E491B
:103DC00009F060FE064609F091FD05B22846FFF7AE
:103DD00005FF4E490868484909F054FE064609F0B7
:103DE00085FD05B22846FFF7F9FE48494868424973
:103DF00009F048FE064609F079FD05B22846FFF7AE
:103E0000EDFE424988683C4909F03CFE064609F04F
:103E10006DFD05B22846FFF7E1FE4BE00C20FFF7F1
:103E2000CFFE3B490868344909F02CFE064609F0EC
:103E30005DFD05B22846FFF7D1FE354948682E4999
:103E400009F020FE064609F051FD05B22846FFF7AD
:103E5000C5FE2F498868284909F014FE064609F076
:103E600045FD05B22846FFF7B9FE2A4908682249F0
:103E700009F008FE064609F039FD05B22846FFF7AD
:103E8000ADFE244948681C4909F0FCFD064609F0CE
:103E90002DFD05B22846FFF7A1FE1E498868164988
:103EA00009F0F0FD064609F021FD05B22846FFF7AE
:103EB00095FE00BF00BF0E480078FFF781FEFFF7B8
:103EC000A4FE70BDC3010020C1010020BF0100207D
:103ED000C0010020C2010020A00B002034010020FE
:103EE00022010020B7010020BD0100207701002041
:103EF000BE010020CC0D00200000C8429C0D002017
:103F00002C0E0020FC0D00208C0E00205C0E0020EA
:103F1000EC0E0020BC0E002010B504460020FE4927
:103F20000870FE490870AA20FFF74AFEAA20FFF792
:103F300047FE2046FFF744FE0C20FFF741FE0C2110
:103F4000F748FFF755FEF4480078FFF739FEFFF712
:103F50005CFE10BD10B5F348007812287ED006DC58
:103F6000022809D0102818D0112815D178E013287C
:103F700075D01428F9D136E1E948007801280BD131
:103F80001020FFF74EFE1120FFF74BFE1220FFF727
:103F900048FE1420FFF745FE86E1E1494978E04AF2
:103FA000127841EA022108B209F0DCFC0446DE493D
:103FB00009F068FDDD490860D949C978D84A927886
:103FC00041EA022108B209F0CDFC0446D64909F0C5
:103FD00059FDD6494860D2494979D14A127941EA16
:103FE000022108B209F0BEFC0446CF4909F04AFD9F
:103FF000CE498860CA49C979C94A927941EA022101
:1040000008B209F0AFFC0446C74909F03BFDC849B6
:104010000860C349497AC24A127A41EA022108B2C9
:1040200009F0A0FC0446C04909F02CFDC0494860D5
:10403000BB49C97ABA4A927A41EA022108B209F028
:1040400091FC0446B84909F01DFDB949886010206B
:10405000FFF762FF0120B749087025E161E0C1E088
:10406000AF494978AE4A127841EA022108B209F014
:1040700079FC0446AC4909F005FDAF490860A84940
:10408000C978A74A927841EA022108B209F06AFC8D
:104090000446A54909F0F6FCA7494860A0494979BA
:1040A0009F4A127941EA022108B209F05BFC0446FA
:1040B0009D4909F0E7FCA04988609949C979984A67
:1040C000927941EA022108B209F04CFC0446964973
:1040D00009F0D8FC994908609149497A904A127AC6
:1040E00041EA022108B209F03DFC04468E4909F07C
:1040F000C9FC924948608A49C97A894A927A41EA58
:10410000022108B209F02EFC0446874909F0BAFCE6
:104110008A4988601120FFF7FFFE01208549087059
:10412000C2E07F4949787E4A127841EA022108B20A
:1041300009F018FC04467C4909F0A4FC8049086099
:104140007749C978764A927841EA022108B209F0A3
:1041500009FC0446744909F095FC794948607049A6
:1041600049796F4A127941EA022108B209F0FAFB53
:1041700004466D4909F086FC714988606849C9792F
:10418000674A927941EA022108B209F0EBFB044642
:10419000654909F077FC6B4908606149497A604AD2
:1041A000127A41EA022108B209F0DCFB04465E49BA
:1041B00009F068FC634948605949C97A584A927ABB
:1041C00041EA022108B209F0CDFB0446564909F044
:1041D00059FC5C4988601220FFF79EFE012055497A
:1041E000087061E060E04E4949784D4A127841EA32
:1041F000022108B209F0B6FB04464B4909F042FC23
:10420000514908604649C978454A927841EA0221F5
:1042100008B209F0A7FB0446434909F033FC4A49B8
:1042200048603F4949793E4A127941EA022108B281
:1042300009F098FB04463C4909F024FC4249886097
:104240003749C979364A927941EA022108B209F020
:1042500089FB0446344909F015FC3C4908603049A3
:10426000497A2F4A127A41EA022108B209F07AFB10
:1042700004462D4909F006FC344948602849C97AAA
:10428000274A927A41EA022108B209F06BFB044600
:10429000254909F0F7FB2D4988601420FFF73CFE03
:1042A00001202449087000BF00BF10BD1CB50246A4
:1042B000002004E0135C0DF80030431CD8B28842A3
:1042C000F8DB002006E01DF800404B1E1B1AD454FA
:1042D000431CD8B28842F6DB1CBD10B51C49D1F88E
:1042E000A8001C4909F0CEFB044609F0FFFA00B211
:1042F000194988801649D1F8AC00164909F0C2FB6B
:10430000044609F0F3FA00B21349C8801049D1F805
:10431000B000104922E00000BE010020BD010020D5
:10432000A00B0020BF0100200AD7233CCC0D0020A9
:104330009C0D0020B00200202C0E0020FC0D00205F
:104340008C0E00205C0E0020EC0E0020BC0E002025
:10435000C00B00200000C8423801002009F092FB89
:10436000044609F0C3FA00B2F7490881F7498868A2
:10437000F74909F087FB044609F0B8FAF249C8602A
:10438000F349F448006809F07DFB044609F0AEFAF1
:1043900000B2ED490882F048006809F0A7FAEA493E
:1043A0004861EA494869EA4909F06CFB044609F0AA
:1043B0009DFA00B2E44908830221E348001DFFF79B
:1043C00075FF0221E048801DFFF770FF0221DE48E3
:1043D0000830FFF76BFF0421DB480C30FFF766FF66
:1043E0000221D9481030FFF761FF0421D64814306C
:1043F000FFF75CFF0221D4481830FFF757FF10BDCC
:104400002DE9F05F0020D5490870AA20FFF7D8FBFE
:10441000AA20FFF7D5FB0220FFF7D2FB1E20FFF7F3
:10442000CFFBCF49086DCF4909F02CFB054609F0B9
:104430005DFA04B22046FFF7D1FBC949486DC9496E
:1044400009F020FB054609F051FA04B22046FFF7B7
:10445000C5FBC349886DC34909F014FB054609F043
:1044600045FA04B22046FFF7B9FBBD49886EBE4944
:1044700009F008FB834609F0A3F80646BB4ABC4B8B
:1044800008F0A0FB80460022BA4B08F089FD0446E4
:1044900008F0F0FC0FFA80FA5046FFF79FFBB04996
:1044A000C86EB14909F0EEFA834609F089F88046F2
:1044B000AE4AAF4B08F086FB06460022AD4B08F033
:1044C0006FFD044608F0D6FC0FFA80FA5046FFF75D
:1044D00085FBA349086FA44909F0D4FA834609F083
:1044E0006FF88046A14AA24B08F06CFB06460022FA
:1044F000A04B08F055FD044608F0BCFC0FFA80FA0A
:104500005046FFF76BFB0020FFF768FB0020FFF72A
:1045100065FB0020FFF762FB91494869914909F06A
:10452000B1FA054609F0E2F904B22046FFF756FB5E
:104530008B4988698B4909F0A5FA054609F0D6F937
:1045400004B22046FFF74AFB8549C869854909F04E
:1045500099FA054609F0CAF904B22046FFF73EFB76
:104560007F49086A804909F08DFA834609F028F8E6
:1045700006467E4A7E4B08F025FB804600227D4B96
:1045800008F00EFD044608F075FC0FFA80FA50465C
:10459000FFF724FB7249486A734909F073FA8346AE
:1045A00009F00EF88046714A714B08F00BFB064685
:1045B0000022704B08F0F4FC044608F05BFC0FFA94
:1045C00080FA5046FFF70AFB6549886A664909F098
:1045D00059FA834608F0F4FF8046644A644B08F0B9
:1045E000F1FA06460022634B08F0DAFC044608F0B4
:1045F00041FC0FFA80FA5046FFF7F0FA574800786E
:10460000FFF7DEFAFFF701FBBDE8F09F70B5082069
:10461000594988700C20C870002008710021564844
:1046200041718171C1715548406880F00046484928
:10463000304609F027FA054609F058F9010A4E48B4
:1046400001724E48406880F000464149304609F00A
:1046500019FA054609F04AF9C1B247484172414981
:104660004748006809F00EFA054609F03FF9010ACB
:10467000414881723B494248006809F003FA054607
:1046800009F034F9C1B23C48C1723549486E354928
:1046900009F0F8F9054609F029F9010A36480173CD
:1046A0002F49486E2F4909F0EDF9054609F01EF92A
:1046B000C1B23148417300218173C17300202E497A
:1046C00081F8220000240AE02B4890F822002A49B1
:1046D000095D0844284981F82200601CC4B2042CFA
:1046E000F2DB00240AE0244890F82210001D005D4F
:1046F0000844214981F82200601CC4B21E48C078D9
:10470000A042F0DC1C48C078001DC1B21A48FDF779
:104710001DFD012118482230FDF718FD70BD10B5B0
:10472000002418480078401C164908700846007894
:10473000022801DD0020087012480078002856D1B8
:10474000FFF7CBFD002425E038010020980C002065
:104750000000C842CC000020D0000020BE01002094
:10476000C00B002000007A44000034434AD8124DA8
:10477000FB2109400000594054010020400F002057
:10478000D4000020C40100202048005D20490855C5
:10479000601CC4B20A2CF7DB0A2406E01B48801C0C
:1047A000005D1B490855601CC4B2102CF6DB1024B8
:1047B00006E01648001D005D15490855601CC4B28E
:1047C000172CF6DB002012498875002408E01048F9
:1047D000807D0F49095D08440D498875601CC4B28D
:1047E000162CF4DB17210A48FDF7B0FC0CE0094851
:1047F0000078012802D1FFF703FE05E005480078A4
:10480000022801D1FFF702FF10BD0000380100208F
:1048100077010020C401002010B50020FE49487037
:1048200001200870FD49FE4800F094FCFB49FC485B
:1048300000F06DFDF949FA4800F046FEF749F848E6
:1048400000F04EFFF549F64801F027F8F349F44827
:1048500001F038F910BD2DE9F04F8FB004460D4638
:1048600016461F46284608F0ABFEEE4AEE4BCDE951
:10487000000108F095FB0022EC4BCDE9020108F0A5
:10488000A1F9CDE9040108F0AFF8069007F042F96C
:104890000D90284608F094FEE24AE34BCDE9000172
:1048A00008F07EFB0022E14BCDE9020108F08AF915
:1048B000CDE9040108F098F8069007F0C5FE0C90C9
:1048C000304608F07DFED74AD74BCDE9000108F00D
:1048D00067FB0022D54BCDE9020108F073F9CDE961
:1048E000040108F081F8069007F014F9804630467C
:1048F00008F066FECB4ACC4BCDE9000108F050FB36
:104900000022CA4BCDE9020108F05CF9CDE90401AF
:1049100008F06AF8069007F097FE8146384608F0DE
:104920004FFEC04AC04BCDE9000108F039FB002220
:10493000BE4BCDE9020108F045F9CDE9040108F0CC
:1049400053F8069007F0E6F88246384608F038FE3D
:10495000B44AB54BCDE9000108F022FB0022B34B6D
:10496000CDE9020108F02EF9CDE9040108F03CF888
:10497000069007F069FE834650460D9909F082F8CB
:104980000B904146504609F07DF80A9058460D9923
:1049900009F078F8099051460C9809F073F80890DE
:1049A00059460C9809F06EF807900A98206059460D
:1049B000404609F067F8606089F00040A060494611
:1049C000089809F05FF80690099880F0004005907B
:1049D000069908F021FEE0604946079809F052F870
:1049E00006900B9908F018FE206141460C9809F0DA
:1049F00049F8606149460B9809F044F80690079918
:104A000008F00AFEA0614946099809F03BF80690B3
:104A1000089880F000400590069908F0FDFDE061DF
:104A200040460D9909F02EF820620FB0BDE8F08FD6
:104A300010B57F48808B784948807D48018C764846
:104A400081807B48818C7448C1807948008A724992
:104A500008817748818A704841817548018B6E488A
:104A600081817348406C6C4948617148816C6A4827
:104A700081616F48C16C6848C1616D48806B66494F
:104A800008626B48C16B644841626948016C6248C6
:104A900081620246916B506909F0B4F9044600F056
:104AA000E5FB5D4908650A46D16B906909F0AAF9F2
:104AB000044600F0B8FC584948650A46116CD069B4
:104AC00009F0A0F9044600F0BAFD534988650A468A
:104AD000516C106A09F096F9044600F08DFE4E49BB
:104AE00088660A46916C506A09F08CF9044600F019
:104AF00060FF4949C8660A46D16C906A09F082F99C
:104B0000044601F06BF8444908674A484068C1F818
:104B1000AC0048480068C1F8A80046488068C1F861
:104B2000B0000846D0F8B030D0F8AC20D0F8A810CB
:104B30007430FFF790FE10BD2DE9F04100260024EF
:104B400000270025FEF7A5FB85B23B480088281A00
:104B500087B23A48007898B901203849087000BFF8
:104B60000CE00020364941F82400364941F8240081
:104B70003549088028494870601CC4B2032CF0DB1A
:104B80000A2F74DB30480088B0F5967F25DA0024C0
:104B900019E0214A143252F82410294A52F824000C
:104BA00008F03AFD264941F824001B4A203252F809
:104BB0002410244A52F8240008F02EFD214941F81F
:104BC0002400601CC4B2032CE3DB1F480088401C97
:104BD0001D4908801848058049E000243AE01A4839
:104BE000008808F007FF8046154951F82400414627
:104BF00008F086FD0849383141F824001248008841
:104C000008F0F8FE80460F4951F82400414608F0AC
:104C100077FD0149443119E0C00B00200000F0414C
:104C20000000C8424AD8124DFB210940008066406E
:104C3000000A0020E4090020CA010020CC01002065
:104C4000800C00208C0C0020C801002041F82400BA
:104C5000601CC4B2032CC2DB6349086C634909F0D1
:104C6000D1F8614908640020614908700126304686
:104C7000BDE8F0812DE9F84F5B48801CFBF7FFFD94
:104C800059480830FBF71CFE4FF0000A33E0564944
:104C9000891C31F91A0008F065FE05464FF066518F
:104CA00008F0F0FE0446514908F0ECFE4E4914317C
:104CB00041F82A000C3931F91A0008F053FE4D4929
:104CC000009008F0DFFE834608F07AFC06464A4A68
:104CD0004A4B08F065F904460022494B07F072FF81
:104CE000804607F081FE4049203141F82A000AF150
:104CF000010000F0FF0ABAF1030FC8DB3A4A916BDA
:104D0000506909F07FF8044600F0B0FA36490865AA
:104D10000A46D16B906909F075F8044600F083FBF0
:104D2000314948650A46116CD06909F06BF80446B0
:104D300000F085FC2C498865086A00F05DFD2A4971
:104D40008866486A00F035FE2749C866886A00F020
:104D500045FF25490867BDE8F88F2DE9F047002495
:104D6000A046002509E02048801CFBF788FD1E486E
:104D7000B0F906000444681CC5B2052DF3DB2046DB
:104D800008F038FE81461F4908F0BAFC07464FF08C
:104D9000665108F077FE0646144908F073FE124982
:104DA000C8610A46116CD06909F02CF8804640466B
:104DB00008F006FC0646144A144B08F0EFF90CD232
:104DC000404608F0FDFB0646114A124B08F0ACF8CD
:104DD00003D201200449087002E000200249087053
:104DE00001480078BDE8F087C00B00200AE81C41AC
:104DF000CC01002000007A3D4AD8124DFB21094029
:104E0000008066400000A040666666A66783234077
:104E10009A9999D99AB623402DE9F04705460C4650
:104E20002846A16808F02EFE8246294608F02AFE90
:104E300080464FF0804108F063FC074628466168D1
:104E400008F020FE8146394608F0E6FB0646216858
:104E500008F0E2FB20602846A16808F013FE064631
:104E6000616808F0D9FB6060BDE8F0872DE9FF4F6D
:104E700087B014469946DDF850A05146079808F0CF
:104E800001FE0546089908F0FDFD069054F829003A
:104E9000069908F0C1FB44F82900B9F1000F28D1A8
:104EA0005046069908F0EEFD0546616808F0B4FB2F
:104EB00060605146504608F0E5FD0190069908F003
:104EC000E1FD834608F07CFB074600228F4B07F08C
:104ED00079FECDE90401A06808F072FBCDE902017A
:104EE000DDE9042307F0B2FD054607F07DFDA06073
:104EF0000BE0B9F1010F08D15046069908F0C2FD48
:104F00000546A16808F088FBA0600BB0BDE8F08FF3
:104F10002DE9FF470020019002900390FEF78BF9E6
:104F200006467B48006848B179490968701A08F05C
:104F300061FD8046774908F0E3FB00E0002007466A
:104F4000734806607448007808B9BDE8FF87734865
:104F5000407800B9F9E77248007878B17148016883
:104F6000002008F04FFF80466F480168404608F077
:104F700049FF6E4908600020694908706C48007854
:104F8000002854D06B4A1168644A106D08F03AFF4B
:104F900062490865674A5168604A506D08F032FFFF
:104FA0005E494865634A91685C4A906D08F02AFF43
:104FB0005A498865002423E000205F4941F8240015
:104FC000002519E005EB4503544A743202EB8302D5
:104FD00052F82400514A503252F8251008F052FD80
:104FE0008046554850F82410404608F015FB5249B9
:104FF00041F82400681CC5B2032DE3DB601CC4B279
:10500000032CD9DB4C48806880F000404A49886016
:1050100088684A4908F000FB80464348816840465A
:1050200008F0F0FE46498860002041490870454874
:1050300001683E48006808F025FD81464148016846
:10504000484608F01FFD8046039908F049FE03908A
:1050500000242EE04FF00008002513E004EB440389
:105060002E4A743202EB830252F8250001AA52F84C
:10507000251008F007FD8146414608F0CDFA80462C
:10508000681CC5B2032DE9DB2F480168404608F0D3
:10509000F9FC8246394608F0F5FC8146254850F86F
:1050A0002410484608F0B8FA224941F82400601C50
:1050B000C4B2032CCEDB1F48806880F000401D493D
:1050C000886019493846FFF7A7FE1E48006800238C
:1050D000154A3946009015480068FFF7C7FE1B487F
:1050E00000681749009002230F4A88683946FFF785
:1050F000BDFE0D480068164988600B48406848614D
:1051000009488068086200BF1FE7000000000840EF
:10511000EC01002000247449CA000020C00B0020CC
:10512000CB000020D4000020BC0C0020E8010020AF
:1051300028000020D40C0020DC0100200AE81C41DB
:10514000C80C0020D0010020D8010020D40100208C
:10515000980C00202DE9FE4F82460C46002002905C
:10516000814601902146504608F0CAFA0290029802
:1051700008F026FA07463A460B46FE48FE4907F075
:1051800021FD054607F030FC834607F05DFB8146B4
:105190004946484608F076FC8046F84806F0BAFCD6
:1051A00083464FF0804108F06DFC0746494608F001
:1051B00069FC06464FF07E5108F02EFA054641463E
:1051C00008F02AFA0190EE4804600021006808F017
:1051D00025FD49D24946484608F054FC0546019948
:1051E00008F08EFAE7490860084601684FF08040F1
:1051F00008F048FCE4490860E2480068E3490860B8
:105200004946484608F03EFC07464FF07E5108F0FC
:10521000F9FD06464FF0804108F034FC054601993F
:1052200008F06EFADA4908604946484608F02AFC58
:105230000090D24806F06EFC83464FF0804108F0A3
:1052400021FC8046494608F01DFC07464FF07E5180
:1052500008F046FD0646009908F0DEF9054601997A
:1052600008F04EFACB490860BDE8FE8F2DE9F04703
:105270000446002500260021C148006808F0CEFB46
:1052800002D82046BDE8F087C2480168C2480068DD
:1052900008F0F8FB8046BE480168C048006808F086
:1052A000F1FB8146214608F01BFD0746414608F008
:1052B000A9FD0546284605F055FF18B9284605F012
:1052C00047FF00B12546B1480168B348006808F0BF
:1052D000D9FB8046AC480168B048006808F0D2FBB2
:1052E0008146A8480168284608F0CCFB824649461A
:1052F00008F092F90746414608F08EF90646A7489D
:105300000068A5490860A54805603046BAE72DE960
:10531000FE4F82460C4600200290814601902146B5
:10532000504608F0EDF90290029808F049F9074656
:105330003A460B468F48904907F044FC054607F073
:1053400053FB834607F080FA81464946484608F0F9
:1053500099FB8046894806F0DDFB83464FF080418B
:1053600008F090FB0746494608F08CFB06464FF0D4
:105370007E5108F051F90546414608F04DF901907B
:10538000874804600021006808F048FC49D249467B
:10539000484608F077FB0546019908F0B1F98149C4
:1053A0000860084601684FF0804008F06BFB7E49BA
:1053B00008607C4800687D4908604946484608F016
:1053C00061FB07464FF07E5108F01CFD06464FF08A
:1053D000804108F057FB0546019908F091F974499E
:1053E00008604946484608F04DFB0090634806F0C7
:1053F00091FB83464FF0804108F044FB80464946CC
:1054000008F040FB07464FF07E5108F069FC064665
:10541000009908F001F90546019908F071F965490C
:105420000860BDE8FE8F2DE9F04704460025002600
:1054300000215B48006808F0F1FA02D82046BDE878
:10544000F0875C4801685C48006808F01BFB8046F8
:10545000574801685948006808F014FB8146214606
:1054600008F03EFC0746414608F0CCFC05462846BD
:1054700005F078FE18B9284605F06AFE00B1254609
:105480004A4801684C48006808F0FCFA80464648E3
:1054900001684A48006808F0F5FA81464148016809
:1054A000284608F0EFFA8246494608F0B5F8074664
:1054B000414608F0B1F80646404800683E49086099
:1054C0003E4805603046BAE72DE9FE4F82460C465D
:1054D00000200290814601902146504608F010F9C4
:1054E0000290029808F06CF807463A460B462148AD
:1054F000214907F067FB054607F076FA834607F077
:10550000A3F981464946484608F0BCFA80461B4844
:1055100006F000FB83464FF0804108F0B3FA0746DF
:10552000494608F0AFFA06464FF07E5108F074F88D
:105530000546414608F070F80190214804600021BA
:10554000006808F06BFB78D24946484608F09AFAA2
:105550000546019908F0D4F81A4908600846016820
:105560004FF0804008F08EFA17490860154800682F
:1055700016492DE04AD8124DFB210940DA0F493F68
:10558000F0010020FC0100200002002004020020A5
:10559000F4010020F80100200C0200200802002085
:1055A000100200201C020020200200202402002003
:1055B00014020020180200202C02002028020020E3
:1055C000300200203C020020400200204402002063
:1055D00008604946484608F055FA07464FF07E51A4
:1055E00008F010FC06464FF0804108F04BFA0546E3
:1055F000019908F085F8FE4908604946484608F0D8
:1056000041FA0090FB4806F085FA83464FF080414E
:1056100008F038FA8046494608F034FA07464FF059
:105620007E5108F05DFB0646009907F0F5FF054640
:10563000019908F065F8F0490860BDE8FE8F2DE992
:10564000F0470446002500260021EC48006808F0D9
:10565000E5F902D82046BDE8F087E7480168E84848
:10566000006808F00FFA8046E1480168E5480068E4
:1056700008F008FA8146214608F032FB0746414609
:1056800008F0C0FB0546284605F06CFD18B9284611
:1056900005F05EFD00B12546DB480168D84800688A
:1056A00008F0F0F98046D9480168D648006808F04B
:1056B000E9F98146D6480168284608F0E3F98246B0
:1056C000494607F0A9FF0746414607F0A5FF0646F1
:1056D000CC480068CA490860CA4805603046BAE745
:1056E0002DE9FE4F82460C46002002908146019033
:1056F0002146504608F004F80290029807F060FF37
:1057000007463A460B46C348C34907F05BFA0546CD
:1057100007F06AF9834607F097F8814649464846FC
:1057200008F0B0F98046B34806F0F4F983464FF02C
:10573000804108F0A7F90746494608F0A3F9064654
:105740004FF07E5107F068FF0546414607F064FFC1
:105750000190B24804600021006808F05FFA49D265
:105760004946484608F08EF90546019907F0C8FFFA
:10577000AB490860084601684FF0804008F082F9A4
:10578000A8490860A6480068A749086049464846F5
:1057900008F078F907464FF07E5108F033FB0646D3
:1057A0004FF0804108F06EF90546019907F0A8FF17
:1057B0009E4908604946484608F064F900908D48C3
:1057C00006F0A8F983464FF0804108F05BF9804667
:1057D000494608F057F907464FF07E5108F080FA25
:1057E0000646009907F018FF0546019907F088FF63
:1057F0008F490860BDE8FE8F2DE9F047044600257B
:10580000002600218548006808F008F902D82046E3
:10581000BDE8F087864801688648006808F032F9DC
:105820008046824801688448006808F02BF9814668
:10583000214608F055FA0746414608F0E3FA0546C6
:10584000284605F08FFC18B9284605F081FC00B108
:105850002546754801687748006808F013F98046C6
:10586000704801687448006808F00CF981466C487B
:105870000168284608F006F98246494607F0CCFE42
:105880000746414607F0C8FE06466B48006869496E
:105890000860694805603046BAE72DE9FE4F824648
:1058A0000C4600200290814601902146504607F0A8
:1058B00027FF0290029807F083FE07463A460B4600
:1058C0005448554907F07EF9054607F08DF88346A0
:1058D00006F0BAFF81464946484608F0D3F88046AC
:1058E000444806F017F983464FF0804108F0CAF8A3
:1058F0000746494608F0C6F806464FF07E5107F0C5
:105900008BFE0546414607F087FE01904B48046038
:105910000021006808F082F949D24946484608F05B
:10592000B1F80546019907F0EBFE454908600846C5
:1059300001684FF0804008F0A5F8424908604048EF
:105940000068414908604946484608F09BF8074608
:105950004FF07E5108F056FA06464FF0804108F0AD
:1059600091F80546019907F0CBFE38490860494691
:10597000484608F087F800901E4806F0CBF88346AA
:105980004FF0804108F07EF88046494608F07AF8EA
:1059900007464FF07E5108F0A3F90646009907F03C
:1059A0003BFE0546019907F0ABFE29490860BDE8BA
:1059B000FE8F2DE9F04704460025002600211F48F0
:1059C000006808F02BF802D82046BDE8F087204890
:1059D00001682048006808F055F880461B480168B7
:1059E0001D48006808F04EF88146214636E0000068
:1059F00034020020DA0F493F380200203002002034
:105A00004C020020480200204402002040020020F6
:105A10003C0200204AD8124DFB21094050020020D0
:105A20005C0200206002002064020020540200207A
:105A3000580200206C020020680200207002002042
:105A40007C020020800200208402002074020020DA
:105A5000780200208C0200208802002008F040F923
:105A60000746414608F0CEF90546284605F07AFB80
:105A700018B9284605F06CFB00B12546804801683E
:105A80008048006807F0FEFF80467F4801687F4835
:105A9000006807F0F7FF81467D480168284607F057
:105AA000F1FF8246494607F0B7FD0746414607F039
:105AB000B3FD064675480068724908607348056082
:105AC000304682E72DE9FE4F82460C4600200290C8
:105AD000814601902146504607F012FE029002983E
:105AE00007F06EFD07463A460B466A486A4907F0DA
:105AF00069F8054606F078FF834606F0A5FE814664
:105B00004946484607F0BEFF8046644806F002F862
:105B100083464FF0804107F0B5FF0746494607F03E
:105B2000B1FF06464FF07E5107F076FD054641462F
:105B300007F072FD01905A4804600021006808F0E7
:105B40006DF849D24946484607F09CFF0546019941
:105B500007F0D6FD53490860084601684FF08040C1
:105B600007F090FF504908604E4800684F490860B0
:105B70004946484607F086FF07464FF07E5108F039
:105B800041F906464FF0804107F07CFF0546019938
:105B900007F0B6FD464908604946484607F072FFDF
:105BA00000903E4805F0B6FF83464FF0804107F075
:105BB00069FF8046494607F065FF07464FF07E5172
:105BC00008F08EF80646009907F026FD0546019973
:105BD00007F096FD37490860BDE8FE8F2DE9F047D4
:105BE00004460025002600212D48006807F016FF16
:105BF00002D82046BDE8F0872E4801682E4800688C
:105C000007F040FF80462A4801682C48006807F0EA
:105C100039FF8146214608F063F80746414608F0FF
:105C2000F1F80546284605F09DFA18B9284605F012
:105C30008FFA00B125461D4801681F48006807F02B
:105C400021FF8046184801681C48006807F01AFFC9
:105C5000814614480168284607F014FF82464946E9
:105C600007F0DAFC0746414607F0D6FC0646134823
:105C7000006811490860114805603046BAE7000025
:105C8000840200208C020020800200208802002074
:105C90007C0200204AD8124DFB210940DA0F493F0F
:105CA000900200209C020020A0020020A4020020FC
:105CB0009402002098020020AC020020A8020020DC
:105CC00010B50222BC49BD48FCF7C8F8BA490868BB
:105CD00007F00CFE00B2012800D110BD0020FCE747
:105CE00010B50222B449B548FCF7C9F810BD10B58B
:105CF00029246200B049B148FCF7B0F810BD10B5D6
:105D000029246200AC49AD48FCF7B9F810BD10B5C4
:105D1000002400BF48E0A848001D50F82400A8490E
:105D200041F82400A4481C3050F82400A54941F84B
:105D30002400A148343050F82400A34941F824003D
:105D40009D48103050F82400A04941F824009A489A
:105D5000283050F824009E4941F8240096484030ED
:105D600050F824009B4941F8240093484C3050F8E7
:105D70002400994941F824008F48583050F82400F5
:105D8000964941F824008C48643050F82410944817
:105D900040F824108848703050F8241090480C3097
:105DA00040F82410601CC4B2032CB4DB00240FE0C4
:105DB0008149883151F8240007F0B4FD894908551C
:105DC0000846025D214688A003F0E6FF601CC4B2CD
:105DD000052CEDDB7848D0F89C00894908607649AD
:105DE000D1F8A00007F09EFD8649087010BD70B57F
:105DF000002400BF51E0724850F824106E48001D86
:105E000040F824106F4850F8245050F824106A4885
:105E10001C3040F824106B4850F8241066481C30A1
:105E200040F82410684850F824106348343040F893
:105E30002410664850F824105F48103040F82410B1
:105E4000634850F824105C48283040F8241061481A
:105E500050F824105848403040F824105E4850F85C
:105E6000241055484C3040F824105C4850F8241059
:105E70005148583040F82410594850F824104E48E2
:105E8000643040F8241056480C3050F824104A482A
:105E9000703040F82410601CC4B2032CABDB00242B
:105EA00009E05049085D07F0A5FD4349883141F8F4
:105EB0002400601CC4B2052CF3DB514800683E4945
:105EC000C1F89C004F48007807F094FD3A49C1F8AA
:105ED000A00070BD4C483A490860002048608860C6
:105EE0004A4848624A48394908604FF07C50486047
:105EF0004848886045484862434832490860002065
:105F000048608860414848624148314908604FF024
:105F10007C5048603F4888603C4848624FF07E5063
:105F2000294908603C484860002088603B4829496E
:105F300008600020486088604FF07E502649086065
:105F40000020486088603648244908603548486029
:105F50000020886034482249383988633349204812
:105F60003838C1633249016432481D4938394864C0
:105F700031491B48383881640021C164704710B52D
:105F8000FFF79EFE20B1FFF7B2FEFFF7C0FE0CE068
:105F90002AA003F001FFFFF79DFFFFF728FF4FF056
:105FA0007E5005490860FFF7AAFE10BD10B5FFF747
:105FB0001EFFFFF7A4FE10BDE00C002000FC00084F
:105FC0009C0D0020FC0D00205C0E0020CC0D00205C
:105FD0002C0E00208C0E0020BC0E0020EC0E0020A9
:105FE000F80B00204800002052585F4144445245BD
:105FF00053535B25645D3A307825780D0A00000024
:1060000058000020AA0300200000604000009643D2
:106010003333333F8FC2F53CCDCC4C3E0000A04122
:10602000CDCCCC3D0AD7A33CD4F025BECB00983DC7
:106030000139463F82C179BD42D91ABD6C6F616496
:1060400020706172616D732066726F6D206565707E
:10605000726F6D206661696C65642C736574206471
:10606000656661756C742076616C75650D0A00005B
:106070002DE9FF4104464FF07F5000904FF07C51D6
:10608000204607F0FFFC0290019401980390FE491E
:106090000398A1EB6000039003980190DDE90110E3
:1060A00007F0F0FC0746019907F0ECFC0646009962
:1060B00007F016FE0546019907F0E4FC01900198EF
:1060C00004B0BDE8F0812DE9FF4F8DB00D461446B8
:1060D0001E4684F0004B584607F072FA85F0004BDC
:1060E000CDE90001584607F06BFA0746DDE90023C9
:1060F00005F022FBCDE9020106F076FC0C9084F05D
:10610000004B584607F05CFACDE902010D9807F004
:1061100057FACDE90001DDE9022305F00DFB074642
:1061200006F062FC0B900C9805F0F4FC81460C988C
:1061300006F08AFA82460B9805F0ECFC0A900B9860
:1061400006F082FA099049461B9807F09BFC8346AB
:10615000099907F097FC074651461A9807F092FCF8
:106160000290099907F08EFC834630460A9907F0A1
:1061700089FC5946039007F04FFA8046394607F0EC
:106180004BFA089051461B9807F07CFC074649469D
:106190001A9807F077FC8046394607F033FE0790DF
:1061A000079880F000473846089905F085FB06906F
:1061B0004FF07C510C9807F065FC074605F0AAFCEF
:1061C00081464FF07C510C9807F05CFC074606F0C6
:1061D0003BFA82464FF07C510B9807F053FC074680
:1061E00005F098FC0A904FF07C510B9807F04AFCA0
:1061F000074606F029FA09904FF07C51069807F0FF
:1062000041FC074605F086FC05904FF07C5106984E
:1062100007F038FC074606F017FA04905046099933
:1062200007F030FC8346049907F02CFC07464846EB
:106230000A9907F027FC8346059907F023FC80465E
:10624000394607F0E9F9914908604846099907F08D
:1062500019FC8346049907F015FC074650460A9935
:1062600007F010FC8346059907F00CFC8046394680
:1062700007F0C8FD8649086050460A9907F002FCFD
:106280008346049907F0FEFB07464846099907F044
:10629000F9FB8346059907F0F5FB8046394607F080
:1062A000BBF97C4908605046099907F0EBFB83462F
:1062B000059907F0E7FB074648460A9907F0E2FB15
:1062C0008346049907F0DEFB8046394607F09AFDC5
:1062D000714908606D480168006807F0D3FB6F4999
:1062E00008606B4801686948006807F0CBFB6C499F
:1062F0000860684801686548006807F0C3FB6949A1
:106300000860654801686148006807F0BBFB6649A2
:1063100008605F480168006807F0B4FB63490860E3
:106320005C4801685A48006807F0ACFB60490860A7
:10633000594801685648006807F0A4FB5D490860A9
:1063400054480168006807F09DFB5B4908605248AB
:1063500001685048006807F095FB584908604E48AE
:106360000168006807F08EFB5549086011B0BDE870
:10637000F08F0FB595B000201290119010905148F9
:10638000007858B9DDE91D01CDE900011AA90EC94F
:106390001898FFF798FE01204A49087000211C98C0
:1063A00007F070FA09D100211D9807F06BFA04D1AB
:1063B00000211E9807F066FA64D01E99084607F07F
:1063C00061FB06901D99084607F05CFB04901C9940
:1063D000084607F057FB0390049907F01DF9059054
:1063E000069907F019F90790FFF742FE13901399E9
:1063F0001C9807F047FB1C9013991D9807F042FB6F
:106400001D9013991E9807F03DFB1E9025480168CA
:106410002848006807F000F904901E9907F032FB45
:106420000690214801682248006807F0EBFC0290C2
:106430001D9907F027FB04901F4801684FF07C501E
:1064400007F0E0FC01901E480168019807F0DAFCB3
:1064500002901C9907F016FB0390049907F0DCF8F2
:106460000590069907F0D8F84FF08041079007F0A3
:1064700009FB0F900A4801681048006807F0C2FC49
:10648000049021E03AE10000865A375FB402002010
:10649000B8020020BC020020C0020020D40200206C
:1064A000D8020020DC020020E0020020E4020020EC
:1064B000E8020020EC020020F0020020F40200209C
:1064C000F8020020FC0200201E9907F0DBFA06907B
:1064D000FE4801684FF07C5007F094FC0190FC48A6
:1064E0000168019807F08EFC02901D9907F0CAFA26
:1064F0000490F8480168F848006807F08DF80290A9
:106500001C9907F0BFFA0390049907F085F80590ED
:10651000069907F081F84FF08041079007F0B2FA32
:106520000E90EA4801684FF07C5007F06BFC039036
:10653000EA480168039807F065FC05904FF0804039
:106540001E9907F09FFA0490059907F09BFA0790AF
:10655000E3480168E348006807F05EF803904FF0F5
:1065600080401D9907F08EFA0290039907F08AFA8D
:106570000590DD480168DD48006807F043FC0390A2
:106580004FF080401C9907F07DFA0290039907F0C4
:1065900079FA0490059907F03FF80690079907F0FB
:1065A0003BF80D900E99084607F06CFA02900F998F
:1065B000084607F067FA0190029907F02DF803905A
:1065C00006F0FEFFCDE9040106F002F9CDE906016F
:1065D00006F00AFA0C900D980B90C3480168C34866
:1065E000006807F00FFC05900B9907F04BFA079035
:1065F000BA4801684FF07C5007F004FC0490B4489E
:106600000168049807F0FEFB05900C9907F03AFA30
:106610000690079907F000F80A90B2480168B04860
:10662000006806F0F9FF05900B9907F02BFA079028
:10663000A8480168A848006807F0E4FB05900C9999
:1066400007F020FA0690079906F0E6FF09909F48A8
:1066500001684FF07C5007F0D5FB04909F4801681B
:10666000049807F0CFFB05900B9907F00BFA079001
:106670009E4801689C48006806F0CEFF05900C9982
:1066800007F000FA0690079906F0C6FF08900999EE
:106690001E9807F0F7F9069008991D9807F0F2F98F
:1066A0000590069907F0AEFB0790129906F0B4FF2B
:1066B000129008991C9807F0E5F906900A991E981F
:1066C00007F0E0F90590069907F09CFB07901199F7
:1066D00006F0A2FF11900A991D9807F0D3F90690D1
:1066E00009991C9807F0CEF90590069907F08AFBE6
:1066F0000790109906F090FF109000BF00211898A5
:1067000007F0C0F809D100211A9807F0BBF804D1AE
:1067100000211B9807F0B6F87AD01B99084607F0BD
:10672000B1F90B901A99084607F0ACF9099018993D
:10673000084607F0A7F90890099906F06DFF0A903E
:106740000B9906F069FF0C90FFF792FC13901399D8
:10675000189807F097F9189013991A9807F092F97A
:106760001A9013991B9807F08DF91B905E480168E9
:106770005E48006807F046FB0F905A480168584889
:10678000006806F049FF0E904FF07C5158480068B1
:1067900007F038FB0C904E4801680C9806F03CFF5F
:1067A0000D900E991B9807F06DF90B900D991A98A2
:1067B00007F068F90A900B9907F024FB0C901299E6
:1067C00006F02AFF12900D99189807F05BF90B90CC
:1067D0000F991B9807F056F90A900B9907F012FBD6
:1067E0000C90119906F018FF11900F991A9807F064
:1067F00049F90B900E99189807F044F90A900B99F3
:1068000007F000FB0C90109906F006FF109000BFF7
:106810000021129807F036F86ED00021119807F089
:1068200031F8F9D00021109807F02CF8F4D00021AD
:10683000209807F0F3F966D21299209807F022F910
:106840000E90219907F01EF90F902A480068014622
:106850000E900F9806F0E0FE2649086011992098E6
:1068600007F010F90E90219907F00CF90F902148CC
:10687000406801460E900F9806F0CEFE1D49486014
:106880001099209807F0FEF80E90219907F0FAF879
:106890000F901848806801460E900F9806F0BCFED5
:1068A000144988600846006801460F90159806F064
:1068B000B3FE15900F48406801460F90169806F0F9
:1068C000ABFE16900B488068014616E0E4020020FB
:1068D000F8020020E0020020E8020020F002002080
:1068E000D8020020F4020020DC020020EC0200208C
:1068F000D4020020840D002025E00F90179806F0A8
:106900008BFE179004E00020FC4908604860886016
:1069100012991F9807F0B6F80F90159906F07CFEB3
:10692000159011991F9807F0ADF80F90169906F081
:1069300073FE169010991F9807F0A4F80F901799FE
:1069400006F06AFE1790EE481799006807F09AF86B
:106950000E90EC481699006807F094F80C90EA48FD
:10696000006880F000400A90159907F08BF80B90B2
:106970000C9907F047FA0D900E9907F043FA4FF083
:106980007C510F9007F07EF8E0490860DC481699CA
:10699000006807F077F80E90DA481799006807F05A
:1069A00071F80C90DA480168159807F06BF80B90B5
:1069B0000C9906F031FE0D900E9907F023FA4FF076
:1069C0007C510F9007F05EF8D2490860CC4801680E
:1069D000159807F057F80E90CB481799006807F004
:1069E00051F80C90CA481699006807F04BF80B90C4
:1069F0000C9907F007FA0D900E9906F00DFE4FF076
:106A00007C510F9007F03EF8C3490860BD4801680B
:106A1000159807F037F80E90BB481699006807F0F4
:106A200031F80C90BA481799006807F02BF80B90D2
:106A30000C9906F0F1FD0D900E9907F0E3F94FF077
:106A40007C510F9007F01EF8B4490860AF48016808
:106A5000219807F017F80F90AD4801680F9806F0DD
:106A6000DBFDAB490860AB480168219807F00AF8E4
:106A70000F90A54801680F9806F0CEFDA249086066
:106A8000A5480168219806F0FDFF0F909D48016818
:106A90000F9806F0C1FD9B490860A0480168219845
:106AA00006F0F0FF0F90964801680F9806F0B4FDCD
:106AB0009349086008460168006806F0E3FF0E90FD
:106AC00090480168006806F0DDFF0C908E48016870
:106AD000006806F0D7FF0A908D480168006806F04C
:106AE000D1FF09900A9906F097FD0B900C9906F0DA
:106AF00093FD0D900E9906F08FFD0F90FFF7B8FAF9
:106B0000139083481399006806F0BCFF8049086021
:106B10007D481399006806F0B5FF7B490860794805
:106B20001399006806F0AEFF76490860744813991F
:106B3000006806F0A7FF72490860754801680068A0
:106B400006F0A0FF764908606F4801687048006849
:106B500006F098FF734908606A4801686C4800684D
:106B600006F090FF70490860654801686848006851
:106B700006F088FF6D49086063480168006806F008
:106B800081FF6B4908605F4801685F48006806F054
:106B900079FF684908605A4801685B48006806F058
:106BA00071FF6549086057480168006806F06AFF90
:106BB00062490860524801685248006806F062FF66
:106BC0005F4908604E480168006806F05BFF5D4958
:106BD000086019B000BD2DE9F04F9DB0DFF868A145
:106BE00000201A901B901C902422584911A803F0F1
:106BF00015FA00200E900F9010900B900C900D90B5
:106C0000089009900A90FCF716FB814650480068EE
:106C100050B14F490968A9EB010006F0EBFE0546AB
:106C20004C4906F06DFD00E0002082464848C0F85F
:106C30000090FEF71FF84848407800285CD147488C
:106C4000006810B94548C0F80090434A116A444AA8
:106C5000106806F0E1FC424908603F4A516A404A28
:106C6000506806F0D9FC3E4948603B4A916A3C4A6C
:106C7000906806F0D1FC3A4988603A480088401C88
:106C8000384908803548006837490844814530D97B
:106C90003448008806F0AEFE0546314908682946AA
:106CA00006F02EFD2C4948642E48008806F0A2FE0E
:106CB00005462B494868294606F022FD2649886486
:106CC0002848008806F096FE05462549886829462A
:106CD00006F016FD2049C86400202249088020499A
:106CE00008604860886001201B49487000201B49EB
:106CF00008601DB0BDE8F08F38E00000840D002072
:106D0000C0020020BC020020B8020020C402002003
:106D1000B4020020C8020020CC020020D0020020D3
:106D2000D4020020D8020020DC020020E002002073
:106D3000E4020020E8020020EC020020F002002023
:106D4000F4020020F80200200AD7233CB4E0000837
:106D50000003002000247449C00B0020040300201D
:106D6000900D002008030020C0C62D00B04A516CD1
:106D7000906E07F047F80B90AD4A916CD06E07F01B
:106D800041F80C90AA4AD16C106F07F03BF80D90B7
:106D9000A748006D80F000400E90A548406D80F03F
:106DA00000400F90A248806D80F000401090109835
:106DB00080F000450F9880F000460E9880F0004764
:106DC0009C494FF07E520A98CDE9061ACDE904029B
:106DD000DDE90810CDE90065CDE902103B460BA8BE
:106DE00007C8FFF7C6FA944801689448006806F09F
:106DF00013FC064692480168304607F003F8054642
:106E000090480168284606F0FDFF11908E48016801
:106E10008E48006806F036FE06468D4801688D48AB
:106E2000006806F02FFE0746314606F0F5FB0546E2
:106E30004FF0804106F026FE129085480168834895
:106E4000006806F01FFE06467F480168814800681A
:106E500006F018FE0746314606F0D4FF05464FF00F
:106E6000804106F00FFE139077480168774800686C
:106E700006F008FE0646764801687648006806F087
:106E800001FE0746314606F0BDFF05464FF0804142
:106E900006F0F8FD1490684801686848006806F03C
:106EA000B1FF064666480168304606F0B5FB054668
:106EB00064480168284606F0A5FF159065480168FA
:106EC0006248006806F0DEFD06465F4801686048DB
:106ED000006806F0D7FD0746314606F09DFB0546E3
:106EE0004FF0804106F0CEFD169059480168574892
:106EF000006806F0C7FD064653480168554800681B
:106F000006F0C0FD0746314606F086FB05464FF009
:106F1000804106F0B7FD17904E4801684B48006865
:106F200006F0B0FD0646484801684948006806F08A
:106F3000A9FD0746314606F065FF05464FF0804142
:106F400006F0A0FD18903C4801683C48006806F037
:106F500059FF06463A480168304606F053FF054699
:106F600038480168284606F057FB19901999169879
:106F700004F0A2FC1A90139804F03CFA80F0004050
:106F80001B90DDE9111004F097FC1C90002408E030
:106F900011A850F824102648743040F82410601CC2
:106FA000C4B2092CF4DB22491A98C1F8B4001B982A
:106FB000C1F8B8001C98C1F8BC0027491A9806F01F
:106FC00061FD834606F0FCFA0746244A244B05F08F
:106FD000F9FD054605F008FD1549C1F8A8001E4950
:106FE0001B9806F04FFD834606F0EAFA07461B4A57
:106FF0001B4B05F0E7FD054605F0F6FC0C49C1F812
:10700000AC0015491C9806F03DFD834606F0D8FA01
:107010000746124A124B05F0D5FD054605F0E4FC83
:107020000349C1F8B00000BF1DB0BDE8F08F0000FB
:10703000C00B0020CDCC4C3DE4020020D402002047
:10704000F0020020F8020020C0020020B40200205C
:10705000BC020020B8020020000034434AD8124D80
:10706000FB21094070B500244F49D1F8AC0006F06F
:10707000A7FA21F00041054600224C4B06F08EF89D
:107080000CD34949D1F8A80006F09AFA21F0004142
:1070900005460022454B06F081F808D200231A4627
:1070A00019461846FAF7ECFB002041490870FCF736
:1070B000F0F840490860084600683F49096888427E
:1070C00005D93C4800683C490968401A06E03A483E
:1070D0000068C0F5803037490968084484B2B4F5C7
:1070E0007A7F0CDD3548007810B93148007810B14E
:1070F00002203349087001203249086002E0002074
:107100003049086070BD10B500242C480078C8B123
:107110002D48006818B9FCF7BCF82B490860FCF74B
:10712000B8F829490968441AB4F57A6F10D90120D2
:107130002349087000201E49087020490870224920
:10714000086005E001201E490870002018490870F9
:1071500010BD10B51648007820B31C4988681C493A
:1071600006F05CFD17D816480078D8B101201949FF
:1071700008700020184908601149087001200F4963
:1071800008701648806880F00040154908600120AA
:1071900001F02EFF06E00A480078012802D11148CC
:1071A0000A49886010BD0000C00B00200000544058
:1071B000A80300200C0300201C0100202C03002049
:1071C0006C0300201003002014030020400F002057
:1071D00000001644740300207C030020980C00205B
:1071E000940300200000484331490143314A1160B3
:1071F000704770B5002100230F22C47804B32D4CD2
:10720000246804F4E064C4F5E064210AC1F10403D5
:10721000CA40447804FA03F18478144021430901F8
:10722000254C0678A155047804F01F050124AC40D4
:1072300005786D11AD0005F1E025C5F8004109E0C4
:10724000047804F01F050124AC401C4D067876112B
:1072500045F8264070BD1A4A0A400243154B1B1FD1
:107260001A60704739B1134A121D12680243114B5C
:107270001B1D1A6006E00F4A121D126882430D4B57
:107280001B1D1A607047042808D14FF0E0210969DE
:1072900041F004014FF0E022116107E04FF0E021DE
:1072A000096921F004014FF0E022116170470000EC
:1072B0000000FA050CED00E000E400E080E100E0F1
:1072C00080FFFF1F10B50446CC48844208D101213D
:1072D000042000F02DFB0021042000F029FB46E0F3
:1072E000C748844208D10121082000F021FB002179
:1072F000082000F01DFB3AE0C248844208D1012179
:10730000102000F015FB0021102000F011FB2EE0F2
:10731000BD48844208D10121202000F009FB002152
:10732000202000F005FB22E0B848844208D101216A
:10733000402000F0FDFA0021402000F0F9FA16E0AC
:10734000B348844208D10121802000F0F1FA0021E5
:10735000802000F0EDFA0AE0AE48844207D1012116
:10736000801500F0E5FA0021A01500F0E1FA10BD4B
:1073700010B50121084600F0DBFA0021012000F0E1
:10738000D7FA10BD2DE9F041024600250026002065
:1073900000230024002791F803C00CF00F0591F89A
:1073A00003C00CF0100CBCF1000F03D091F802C028
:1073B0004CEA050591F800C0BCF1000F31D014680B
:1073C00000202BE04FF0010C0CFA00F3B1F800C0E4
:1073D0000CEA03069E4220D183004FF00F0C0CFAFA
:1073E00003F7BC4305FA03FC4CEA040491F803C01C
:1073F000BCF1280F06D14FF0010C0CFA00FCC2F8CA
:1074000014C00AE091F803C0BCF1480F05D14FF059
:10741000010C0CFA00FCC2F810C0401C0828D1D3A3
:107420001460B1F800C0BCF1FF0F34DD54680020D7
:107430002EE000F1080C4FF0010808FA0CF3B1F847
:1074400000C00CEA03069E4221D183004FF00F0CCE
:107450000CFA03F7BC4305FA03FC4CEA040491F868
:1074600003C0BCF1280F05D100F1080C08FA0CF894
:10747000C2F8148091F803C0BCF1480F07D100F1A5
:10748000080C4FF0010808FA0CF8C2F81080401CF4
:107490000828CED35460BDE8F0814FF6FF7101801B
:1074A000022181700421C170704702460020936858
:1074B0000B400BB1012000E00020704701468868B6
:1074C00080B2704702460020D3680B400BB1012008
:1074D00000E0002070470146C86880B27047016133
:1074E0007047416170470AB1016100E04161704736
:1074F000C16070474FF480320A43826181618261CA
:1075000082698269704702460020434B18684FF633
:107510008073184040EA021008433F4B18607047E0
:107520003E49C8617047F0B50A4600230024002197
:10753000002500F00046B6F1004F02D1364EF16949
:1075400001E0354E7168C0F3034583B200F4401684
:10755000B6F5401F08D121F070612F4E766826F0F5
:1075600070662D4F7E6012E000F48016B6F5801F25
:1075700006D1032606FA05F4A14341F0706106E046
:10758000460D360103FA06F6B14341F0706122B1AF
:10759000460D360103FA06F6314300F00046B6F117
:1075A000004F02D11C4EF16101E01B4E7160F0BD35
:1075B00030B500228B071C0F0F2303FA04F2164B81
:1075C00008338C1053F824309343134C08348D1037
:1075D00044F8253023468C1053F824308C07240FB0
:1075E00000FA04F423430C4C08348D1044F8253081
:1075F00030BD0A49DC3108607047000000080140D6
:10760000000C01400010014000140140001801402E
:10761000001C014000200140000001400000204209
:10762000DF48006840F00100DD4908600846406816
:10763000DC490840DA49486008460068DA490840F1
:10764000D74908600846006820F480200860084692
:10765000406820F4FE0048604FF41F0088607047C7
:10766000CF49096821F48031CD4A1160114609687B
:1076700021F480211160B0F5803F03D0B0F5802F58
:107680000ED106E0C649096841F48031C44A116050
:1076900007E0C349096841F4A021C14A116000E034
:1076A00000BF00BF704710B5014600220023002034
:1076B0004A11012A02D1BA4C236806E0022A02D1FB
:1076C000B74C236A01E0B64C636A01F01F02012443
:1076D00094401C400CB1012000E0002010BD38B5E2
:1076E000002000900024002500BF3120FFF7DBFFC1
:1076F00005460098401C00900098B0F5A06F01D09E
:10770000002DF2D03120FFF7CEFF08B1012400E0B8
:107710000024204638BD01460020A14A106820F010
:10772000F80040EAC10010607047A0490860704747
:10773000024600209A4B586820F47C1042EA01036C
:107740001843974B58607047984908667047014640
:107750000020934A506820F00300084350607047AF
:107760008F48406800F00C007047014600208C4AAA
:10777000506820F0F0000843506070470146002038
:10778000874A506820F4E060084350607047014623
:107790000020834A506820F4605040EAC1005060E5
:1077A000704729B17E4A527A02437D4B5A7204E0F7
:1077B0007B4A527A82437A4B5A7270477B49D8315E
:1077C0000860704701460020754A506820F4404028
:1077D0000843506070470021714A20321170704A8E
:1077E00082F82010012802D004280AD104E00121E7
:1077F0006B4A2032117005E00521694A2032117070
:1078000000E000BF00BF70476949086070476449E5
:10781000096A0143624A1162704765494439086048
:10782000704730B500210022002400235C4D6D68B4
:1078300005F00C0121B1042905D0082923D105E068
:107840005C4D056022E05B4D05601FE0544D6D68A6
:1078500005F47012524D6D6805F48034022505EB75
:1078600092421CB9544D554305600BE04C4D6D6878
:1078700005F400351DB1504D5543056002E04D4DF6
:107880005543056002E04B4D056000BF00BF444D0D
:107890006D6805F0F0010909484D6B5C0568DD4035
:1078A00045603F4D6D6805F4E061090A434D6B5C2E
:1078B0004568DD4085603A4D6D6805F46051C90A40
:1078C0003E4D6B5C4568DD40C560354D6D6805F427
:1078D0004041890B3A4D6B5CC568B5FBF3F505611A
:1078E00030BD29B12E4A526902432D4B5A6104E042
:1078F0002B4A526982432A4B5A61704729B1284A60
:1079000092690243264B9A6104E0254A92698243B8
:10791000234B9A61704729B1214AD2690243204B17
:10792000DA6104E01E4AD26982431D4BDA61704776
:1079300029B11B4AD2680243194BDA6004E0184AA5
:10794000D2688243164BDA60704729B1144A126933
:107950000243134B1A6104E0114A12698243104B2F
:107960001A61704712494039086070470F49C8646E
:1079700070470B49C87170470948406A40F08070F1
:1079800007494862704701460020054A92680A404C
:107990000AB1012000E00020704701498872704759
:1079A000001002400000FFF8FFFFF6FE0000424218
:1079B0008004424200127A0000093D0018030020B2
:1079C0002803002010B50446FE48844208D1012156
:1079D000C014FFF7ADFF0021E014FFF7A9FFC4E0DA
:1079E000B4F1804F08D101210846FFF7AEFF002116
:1079F0000120FFF7AAFFB8E0F348844208D1012133
:107A00000220FFF7A2FF00210220FFF79EFFACE05B
:107A1000EE48844208D101210420FFF796FF00219F
:107A20000420FFF792FFA0E0E948844208D1012139
:107A30000820FFF78AFF00210820FFF786FF94E067
:107A4000E448844208D101211020FFF77EFF002185
:107A50001020FFF77AFF88E0DF48844208D1012137
:107A60002020FFF772FF00212020FFF76EFF7CE04F
:107A7000DA48844208D101214014FFF759FF002160
:107A80006014FFF755FF70E0D548844209D1012109
:107A9000C804FFF74DFF00214FF40020FFF748FF17
:107AA00063E0D048844209D101210805FFF740FF77
:107AB00000214FF48010FFF73BFF56E0CA48844294
:107AC00009D101214805FFF733FF00214FF40010D1
:107AD000FFF72EFF49E0C548844208D1012140202C
:107AE000FFF733FF00214020FFF72FFF3DE0C048A4
:107AF000844208D101218020FFF727FF0021802048
:107B0000FFF723FF31E0BB48844208D101218015F3
:107B1000FFF71BFF0021A015FFF717FF25E0B64870
:107B2000844209D101210804FFF702FF00214FF42C
:107B30008030FFF7FDFE18E0B048844209D10121F2
:107B40004804FFF7F5FE00214FF40030FFF7F0FE88
:107B50000BE0AB48844208D101218804FFF7E8FE1E
:107B600000214FF48020FFF7E3FE10BD00220288C1
:107B7000944B98420ED0994B98420BD0B0F1804F65
:107B800008D0914B984205D0904B984202D0904B30
:107B9000984204D14FF68F731A404B881A438D4B8D
:107BA000984207D08C4B984204D04FF6FF431A40BE
:107BB000CB881A4302808B8883850B880385814B91
:107BC00098420BD0854B984208D08B4B984205D0F9
:107BD0008A4B984202D08A4B984201D10B7A038695
:107BE00001238382704770B5002400220023058C96
:107BF0004FF6FE7635400584028C8388048B4FF661
:107C00008F752C40B51E2C400D882C43751E2A40C4
:107C10000D892A434D882A436A4DA8420BD06F4DE7
:107C2000A84208D0744DA84205D0744DA84202D095
:107C3000734DA84213D14FF6F7752A404D892A4358
:107C40004FF6FB752A408D882A434FF6FF652B407F
:107C50004FF6FF552B408D892B43CD892B438380D5
:107C60000483CD888586028470BD70B5002400220F
:107C70000023058C4FF6EF7635400584028C83880F
:107C8000048B48F6FF752C404FF6FF452C400D88BD
:107C90004FF6FF7606EA05252C434FF6DF752A409E
:107CA0000D8906EA05152A434D8806EA05152A437B
:107CB000444DA84202D0494DA8421DD14FF67F75D0
:107CC0002A404D894FF6FF7606EA05152A434FF6FE
:107CD000BF752A408D8806EA05152A434FF6FF3501
:107CE0002B404FF2FF752B408D8906EA85052B430B
:107CF000CD8906EA85052B4383800483CD880587DB
:107D0000028470BD70B5002400220023058C4FF65C
:107D1000FF6635400584028C8388848B4FF68F750F
:107D20002C404FF6FC752C400D882C434FF6FF5528
:107D30002A400D894FF6FF7606EA05252A434D882D
:107D400006EA05252A431F4DA84202D0234DA8422A
:107D50001DD14FF2FF752A404D894FF6FF7606EA96
:107D600005252A434FF6FF352A408D8806EA05256A
:107D70002A434EF6FF752B404DF6FF752B408D893B
:107D800006EA05152B43CD8906EA05152B438380AA
:107D90008483CD888587028470BD70B5002200235E
:107DA0000024058C4EF6FF7635400584038C8488CC
:107DB000828B48F6FF752A404FF6FF452A400D8812
:107DC00020E00000002C01400004004000080040BA
:107DD000000C00400010004000140040003401403E
:107DE000004C014000500140005401400018004088
:107DF000001C0040002000400040014000440140C1
:107E0000004801404FF6FF7606EA05252A434DF665
:107E1000FF752B400D8906EA05352B434D8806EA90
:107E200005352B43FA4DA84202D0FA4DA84208D19D
:107E30004BF6FF752C408D894FF6FF7606EA8515C7
:107E40002C4384808283CD88A0F84050038470BD89
:107E5000828B4FF2FF331A408283828B4FF6FF737F
:107E600003EA01231A4382837047F0B50C46154696
:107E7000002200210026078C4EF6FF7C07EA0C0743
:107E80000784828B018C4FF6FF7707EA043640F6B1
:107E9000FF473A404FF6FF7707EA05273A434FF688
:107EA000FF7707EA03373A43D94FB8420ED0D94F8C
:107EB000B8420BD0B0F1804F08D0D74FB84205D0B0
:107EC000D64FB84202D0D64FB84206D14DF6FF7712
:107ED000394046F48057394305E047F6FF573940AB
:107EE00044F48057394382830184F0BD828B4FF67E
:107EF000F3731A408283828B0A4382837047F0B502
:107F00000C461546002200210026078C4FF6FF6C18
:107F100007EA0C070784828B018C4FF6FF7707EA8C
:107F200004264FF60C773A404FF6FF7707EA03171F
:107F30002F433A43B64FB8420ED0B64FB8420BD09B
:107F4000B0F1804F08D0B44FB84205D0B34FB8421B
:107F500002D0B34FB84206D14FF6FF57394046F42E
:107F60008077394305E04FF2FF57394044F480777A
:107F7000394382830184F0BD028B4FF2FF331A40F4
:107F80000283028B4FF6FF7303EA01231A43028335
:107F90007047F0B50C461546002200210026078CDC
:107FA0004FF6EF7C07EA0C070784028B018C4FF633
:107FB000FF7707EA041640F6FF473A404FF6FF778F
:107FC00007EA03373A434FF6FF7707EA05273A43B4
:107FD0008F4FB8420ED08F4FB8420BD0B0F1804FC8
:107FE00008D08D4FB84205D08C4FB84202D08C4F8C
:107FF000B84206D14FF6DF77394046F010073943D3
:1080000005E04FF65F77394044F0100739430283AB
:108010000184F0BD028B4FF6F3731A400283028B8A
:108020000A4302837047F0B50C4615460022002132
:10803000068C4FF6FE773E400684028B018C4FF68D
:108040000C7632407E1C06EA03162E433243704EF5
:10805000B0420ED06F4EB0420BD0B0F1804F08D07E
:108060006D4EB04205D06D4EB04202D06C4EB04263
:1080700006D14FF6FD76314044F00106314305E06C
:108080004FF6F576314044F0010631430283018416
:10809000F0BD70B505460C465D4885420ED05D4882
:1080A00085420BD0B5F1804F08D05B48854205D0A2
:1080B0005A48854202D05A48854200D100E000BFAC
:1080C000208850B92389A28861882846FFF7ABFF32
:1080D000E1882846FFF79EFF25E0208804280AD182
:1080E0002389A28861882846FFF753FFE188284644
:1080F000FFF742FF17E0208808280AD12389A288C9
:1081000061882846FFF7FBFEE1882846FFF7EEFE70
:1081100009E02389A28861882846FFF7A6FEE18846
:108120002846FFF795FE70BD2DE9F04105460C4647
:1081300000260127608808B9022600E00026A088F2
:10814000012801D1022700E001272088A0B9238956
:10815000A28861882846FFF766FFE1882846FFF776
:1081600059FF23893A4631462846FFF712FFE18836
:108170002846FFF701FF13E02389A288618828467B
:10818000FFF707FFE1882846FFF7F6FE23893A4606
:1081900031462846FFF747FFE1882846FFF73AFFB8
:1081A000BDE8F0810A884B881A438B881A43CB8834
:1081B0001A430B891A434B891A438B891A43A0F837
:1081C000442070474FF6FF71818000210180C180FB
:1081D0004180017270470021018041808180C1800F
:1081E000018141818181C1817047002101804180ED
:1081F000012181800021C18001817047002101801F
:1082000041808180C180018141818181704700006E
:10821000002C0140003401400004004000080040F0
:10822000000C004021B1028842F00102028004E00B
:1082300002884FF6FE731A400280704731B1B0F8E1
:10824000442042F40042A0F8442005E0B0F8442065
:10825000C2F30E02A0F8442070471AB183890B4381
:10826000838102E083898B438381704781827047D9
:1082700041EA0203A0F8483070471AB183890B43E2
:10828000838102E083898B438381704701894FF6A4
:10829000F8721140018170470A46002101894FF6AA
:1082A0008F73194011430181704730B504460D4664
:1082B00029462046FFF7F0FF208940F00700208183
:1082C00030BD2DE9F04104460D4616461F46602D8F
:1082D00006D13B46012231462046FFF75AFE05E013
:1082E0003B46012231462046FFF79DFE29462046A7
:1082F000FFF7D2FF208940F007002081BDE8F08120
:1083000030B50C4600210189C9B24FF6FF7505EA68
:108310000325154325432943018130BD2DE9F04153
:1083200005460E4617469846002443463A463146CF
:108330002846FFF7E5FF2C894FF6F870044044F01B
:1083400007044FF68F70044044F070042C81BDE8A0
:10835000F081F0B504460D4616461F463B463246B0
:1083600029462046FFF7CCFF208940F48040208139
:10837000F0BD0185828270470A46002101884FF6D0
:108380008F731940114301807047F0B50C461546B4
:108390001E460021002200230189028B038C4FF628
:1083A000F877394021434FF6FC473A4040F2011735
:1083B0003A434FF6DD773B404FF6FF7707EA061763
:1083C0002F433B43018102830384F0BD0A46002111
:1083D000018B4FF68F7319401143018370470A4692
:1083E0000021018B48F6FF7319404FF6FF7303EA33
:1083F00002231943018370470A460021818B4FF6FF
:108400008F7319401143818370470A460021818B85
:1084100048F6FF7319404FF6FF7303EA022319432E
:108420008183704721B1028842F08002028004E01B
:1084300002884FF67F731A400280704721B182880C
:1084400042F00402828004E082884FF6FB731A40F7
:108450008280704721B1828842F00802828004E065
:1084600082884FF6F7731A408280704721B1828864
:1084700042F00102828004E082884FF6FE731A40C7
:10848000828070470A460021018B4FF6F77319402E
:108490001143018370470A460021018B4FF2FF739D
:1084A00019404FF6FF7303EA022319430183704713
:1084B0000A460021818B4FF6F773194011438183DF
:1084C00070470A460021818B4FF2FF7319404FF627
:1084D000FF7303EA02231943818370470A46002190
:1084E000018B4FF6FB7319401143018370470A4615
:1084F0000021018B4FF6FF3319404FF6FF7303EA5B
:1085000002231943018370470A460021818B4FF6ED
:10851000FB7319401143818370470A460021818B08
:108520004FF6FF3319404FF6FF7303EA0223194356
:10853000818370470A460021018B4FF67F731940F3
:108540001143018370470A460021018BC1F30E01DC
:108550004FF6FF7303EA02231943018370470A466B
:108560000021818B4FF67F7319401143818370473F
:108570000A460021818BC1F30E014FF6FF7303EA17
:1085800002231943818370470A460021018C4FF66C
:10859000FD7319401143018470470A460021018C84
:1085A0004FF6F77319401143018470470A460021C2
:1085B000018C4FF6DF7319404FF6FF7303EA021385
:1085C0001943018470470A460021018C4FF67F73DE
:1085D00019404FF6FF7303EA0213194301847047F1
:1085E0000A460021018C4FF6FF5319404FF6FF73E6
:1085F00003EA02231943018470470A460021018CD3
:108600004FF2FF7319404FF6FF7303EA0223194339
:10861000018470470A460021018C4DF6FF73194012
:108620004FF6FF7303EA023319430184704730B5F4
:10863000002301248C40A3B2048C9C430484048C4A
:1086400002FA01F5ADB22C43048430BD30B50023ED
:1086500004248C40A3B2048C9C430484048C02FA4E
:1086600001F5ADB22C43048430BD70B50346002043
:1086700000241846183001258D40ACB21D8CA5434E
:108680001D8409B1082909D100EB6100056825F0B6
:10869000700505600568154305600EE00D1FC5F304
:1086A0004E052844056825F4E045056005684FF649
:1086B000FF7606EA02263543056070BD21B10288C7
:1086C00042F00202028004E002884FF6FD731A4075
:1086D0000280704721B1028842F00402028004E067
:1086E00002884FF6FB731A400280704721B18288DE
:1086F00042F08002828004E082884FF67F731A4045
:108700008280704702884FF6F7731A400280028811
:108710000A430280704782884FF68F731A40828026
:1087200082880A438280704702894FF6F8731A40A4
:10873000028102890A430281704702894FF67F73E2
:108740001A40028102890A4302817047818470477E
:1087500081857047818670470187704781877047A0
:10876000A0F84010704702884FF6FF431A4002807D
:1087700002880A43028070470146888E704701468E
:10878000088F70470146888F70470146B1F8400056
:1087900070470146888C70470146088D7047024635
:1087A0000020138A0B400BB1012000E0002070472D
:1087B000CA430282704730B50246002000230024DD
:1087C000158A05EA0103958905EA010413B10CB184
:1087D000012000E0002030BDCA4302827047000043
:1087E00010B50446FB48844209D101218803FFF7F4
:1087F0009FF800214FF48040FFF79AF832E0F648E6
:10880000844209D101214804FFF79FF800214FF469
:108810000030FFF79AF825E0F048844209D10121A1
:108820008804FFF792F800214FF48020FFF78DF8BD
:1088300018E0EB48844209D10121C804FFF785F80C
:1088400000214FF40020FFF780F80BE0E548844258
:1088500008D101210805FFF778F800214FF48010B6
:10886000FFF773F810BD2DE9F04786B005460E46B8
:108870000024A24600BFA1460027B08900B100BF76
:108880002F462C8A4CF6FF700440F08804432C825B
:10889000AC894EF6F3100440B088318908437189E1
:1088A00008430443AC81AC8A4FF6FF400440B089D2
:1088B0000443AC8201A8FEF7B4FFC648874202D148
:1088C000DDF810A001E0DDF80CA0A88900F400405C
:1088D00040B10AEBCA0000EB0A1031684900B0FB56
:1088E000F1F807E00AEBCA0000EB0A1031688900D2
:1088F000B0FBF1F86420B8FBF0F00401200964211A
:1089000001FB1089A88900F4004040B1322000EB3F
:10891000C900B0FBF1F000F00700044308E032208A
:1089200000EB09106421B0FBF1F000F00F000443EC
:108930002C8106B0BDE8F0874FF41651016000218C
:108940008180C18001810C2141810021818170479A
:1089500010B502460020108A4FF2FF0318400B8822
:108960004C8823438C882343CC88234318431082AC
:1089700010BD0021018041808180C180704721B1FC
:10898000828942F40052828104E082894DF6FF73AD
:108990001A4082817047F0B5034600240026002566
:1089A000002040F66A17B94200D100BF1846C1F353
:1089B000421401F01F06012707FA06F5012C01D128
:1089C0000C3004E0022C01D1103000E014301AB158
:1089D00007682F43076002E00768AF430760F0BDF8
:1089E0001AB1838A0B43838202E0838A8B4383829A
:1089F0007047028A4FF6F0731A400282028A0A43D5
:108A00000282704782894FF2FF731A408281828905
:108A10000A438281704721B1828942F00202828139
:108A200004E082894FF6FD731A4082817047028A02
:108A30004FF6DF731A400282028A0A4302827047AD
:108A400021B1028A42F48042028204E0028A4BF69B
:108A5000FF731A4002827047C1F308028280704798
:108A600001468888C0F308007047818941F0010100
:108A700081817047028BD2B20283028B42EA0122CB
:108A800002837047028B02F47F420283028B0A4307
:108A90000283704721B1828A42F02002828204E080
:108AA000828A4FF6DF731A408282704721B1828A30
:108AB00042F01002828204E0828A4FF6EF731A407D
:108AC0008282704721B1828A42F00802828204E0E9
:108AD000828A4FF6F7731A408282704721B18289E9
:108AE00042F40042828103E08289C2F30E02828155
:108AF000704721B1828A42F40062828204E0828A55
:108B00004FF2FF731A4082827047828A4FF6FB73DE
:108B10001A408282828A0A438282704721B1828A05
:108B200042F00202828204E0828A4FF6FD731A400C
:108B30008282704702460020B1F5007F00D100BF5D
:108B400013880B400BB1012000E00020704701F4B6
:108B50000072B2F5007F00D100BFCA4302807047A7
:108B600070B50246002400230025002040F66A1656
:108B7000B14200D100BFC1F3421501F01F0301262D
:108B800006FA03F3012D02D19689334006E0022D47
:108B900002D1168A334001E0968A33400C12012636
:108BA00006FA04F41688344013B10CB1012000E039
:108BB000002070BD10B50022002340F66A14A142C7
:108BC00000D100BF0A1201249440A3B2DC43048008
:108BD00010BD000000380140004400400048004043
:108BE000004C00400050004010B50446BE4884428E
:108BF00008D101218014FEF79BFE0021A014FEF78E
:108C000097FE16E0B948844208D101210014FEF70E
:108C10009CFE00212014FEF798FE0AE0B44884422E
:108C200007D10121C013FEF790FE0021E013FEF7EB
:108C30008CFE10BD10B50022028802F441520B8850
:108C40004C8823438C882343CC8823430C892343BB
:108C50004C8923438C892343CC8923431A430280C4
:108C6000838B4FF2FF74234083830B8A038210BDF2
:108C70002DE9F04F85B005460C464FF0000902275C
:108C80004FF000084FF0010B0026B246A88B4FF2C0
:108C900040010840A88302202884B5F81C90A068F1
:108CA000022801D100BF38E0A08810B94FF0010BB5
:108CB00001E04FF0020B8D48854200D100E000BF7B
:108CC0006846FEF7AEFDDDF800A0E088B0F5007F55
:108CD0000AD14FEA1A2000EB80004000A168B0FBE7
:108CE000F1F0401D86B20BE04FEA4B10BAFBF0F0FA
:108CF00000EB80004000A168B0FBF1F0401D86B29F
:108D00000A20B6FBF0F606F00108A6EB0800C0F357
:108D10004F074FF6FF7000EA0828022F01DBFF2FF4
:108D200002DD02274FF00008E08840EA08003843DF
:108D30002884A088A18908436188084321880843C2
:108D400040F4006040EA0909A5F81C9005B0BDE8B0
:108D5000F08F0021018041808180C18001814181AB
:108D60008181C181072101827047002101804180FA
:108D70008180C1800221816000218181704721B101
:108D8000028842F04002028004E002884FF6BF737E
:108D90001A400280704721B1828B42F48062828344
:108DA00004E0828B4FF6FF331A408283704730B560
:108DB000002400230C110125A540ABB21AB185880F
:108DC0001D43858002E085889D43858030BD1AB1B2
:108DD00083880B43838002E083888B4383807047C2
:108DE000818170470146888970474FF6FF62914242
:108DF00004D0028842F48072028004E002884FF6B8
:108E0000FF631A400280704721B1828842F0040259
:108E1000828004E082884FF6FB731A40828070479C
:108E200002884FF2FF731A40028002880A430280D0
:108E30007047018841F480510180704721B1028858
:108E400042F40052028004E002884DF6FF731A409B
:108E50000280704702460020012901D0108B00E0FB
:108E6000908A70470146088A7047B1F5804F04D157
:108E7000028842F48042028004E002884BF6FF73CD
:108E80001A40028070470246002013890B400BB144
:108E9000012000E000207047CA4302817047F0B50E
:108EA0000246002000240023002501F00F070126C0
:108EB000BE40B4B20B1101269E40B3B2968806EABA
:108EC00003051689264016B10DB1012000E00020EF
:108ED000F0BD10B5002201F00F040123A3409AB2A7
:108EE000D343038110BD0000003001400038004032
:108EF000003C00402DE9FC5F04460E4691469A4630
:108F00000025504603F0E5FF0022FE4BCDE90001AD
:108F100003F058FE074603F067FD83464946304696
:108F200004F070FF2061D4E9040104F06BFF0746F0
:108F3000594604F0E5FBA062A16AA06804F0A2FD16
:108F40000190216A606804F09DFD804621692068D7
:108F500004F098FD4146009004F05EFB074601993D
:108F600004F05AFBE06220696061E748007800285D
:108F70003AD0E6480078B0B3E548006804F020FB3A
:108F800007468846E06A04F01BFB21F000413A46A0
:108F90004346CDE9000103F0C7FF27D259462069B7
:108FA00004F070FD0746216A04F036FB0546606A4E
:108FB00080F000472946384604F030FD16D2284696
:108FC000616A04F02BFD11D2606A80F000473846D8
:108FD000E16A04F023FD09D2616AE06A04F01EFD33
:108FE00004D2256202E0FFE700202062BDE8FC9F7A
:108FF000012808D1C749D1F8B010C74A1160012132
:10900000C64A117002E00021C44A117070472DE970
:10901000F04F89B000200690079008900590824696
:10902000FAF709F9044604F0E5FC8246BC480068FA
:1090300040B1BB48006804F0DDFC0446514604F032
:109040004FFE00E000200590504604F06BFCB44950
:109050000860B4480078012806D1B348006806903B
:10906000B1484068079005E0B04800680690B048F5
:1090700000680790A9480078002840D0A549D1F899
:10908000B000A549096804F0BDFE80F0004B5846C9
:1090900004F096FA0646A74AA74B03F081FF044660
:1090A0000022A64B03F08EFD804603F09DFC049049
:1090B000049802F02FFD0390049803F0C5FA029083
:1090C0000299069804F0DEFC04460399079804F020
:1090D000D9FC0546214604F09FFA019002990798B1
:1090E00004F0D0FC04460399069804F0CBFC054636
:1090F000214604F087FE06900198079000BF05986E
:1091000004F0F4FB04468348D0F8AC2023468C4896
:109110000799FFF7EFFE059804F0E8FB04467D4849
:10912000D0F8A820234687480699FFF7E3FE09B048
:10913000BDE8F08F2DE9FC5F4FF00009CA4600241E
:10914000FAF779F8054604F055FC04467E480068B5
:1091500040B17D48006804F04DFC0546214604F00E
:10916000BFFD00E000208246204604F0DBFB76498C
:1091700008606D48C06880F00049504604F0B6FBB6
:1091800064490190C86E714904F07CFC009004F0C1
:1091900017FA0746674A684B03F014FD054603F0CB
:1091A00023FC83466648C16A5A466948019BFFF71B
:1091B000A1FE504604F09AFB56490190886E63491F
:1091C00004F060FC009004F0FBF90746594A5A4B42
:1091D00003F0F8FC054603F007FC83465948C16AD2
:1091E0005A465C48019BFFF785FE504604F07EFB23
:1091F00048490190086F554904F044FC009004F080
:10920000DFF907464B4A4C4B03F0DCFC054603F004
:10921000EBFB83465A4649464F48019BFFF76AFEDF
:109220004B48C06A4D4908604A48C06A4C490860CA
:109230004948C06A4B490860BDE8FC9F2DE9F041F0
:1092400005460E4614462146284604F0E7FC0ED299
:109250002146304604F0D6FD07462146284604F054
:10926000D1FD8046394604F04BFABDE8F08184F028
:1092700000472946384604F0D1FC0DD2214630463D
:1092800004F0C0FD07462146284604F0C5F9804693
:10929000394604F035FAE8E70020E6E72DE9F04F1B
:1092A00085B031480490F9F7F8F830490860C8688B
:1092B00004F086F9CDE902012C49086803F009FEA3
:1092C000804600222A4B03F07DFC06460F462749C4
:1092D000486904F075F932463B46CDE9000103F0D8
:1092E0005FFE0446DDE9022303F05AFE824603F0E6
:1092F0007BFB1E494860486804F062F904464FF061
:10930000333237E080842E41A80300202C03002054
:1093100040030020C00B0020600300205C030020FD
:10932000980300206C030020400F00203803002029
:109330003C0300204AD8124DFB21094000806640C2
:109340009C0D0020FC0D00209C03002000003443F5
:10935000CC0D00202C0E00208C0E00204803002095
:10936000440300204C030020CDCC0CBFC4090020D6
:109370000000B040FE4B03F011FF02D2FD48049004
:109380002BE0FD49486804F01BF904464FF03332E6
:10939000FA4B03F003FF02D2F94804901DE0F649AE
:1093A000486804F00DF904464FF06632F54B03F0BF
:1093B000F5FE02D2F44804900FE0EF49486804F04B
:1093C000FFF80446F14AF24B03F0E8FE03D24FF0F7
:1093D0003F40049001E0EF480490049805B0BDE8D8
:1093E000F08F2DE9F04F85B0EA480490F9F755F871
:1093F000E1490860C86804F0E3F8CDE90201DE49FC
:10940000086803F066FD80460022E34B03F0DAFBB8
:1094100006460F46D849486904F0D2F832463B4622
:10942000CDE9000103F0BCFD0446DDE9022303F0B1
:10943000B7FD824603F0D8FACF494860486804F087
:10944000BFF804464FF03332C94B03F0A7FE02D2F7
:10945000D24804900FE0C849486804F0B1F80446C7
:109460004FF03332C54B03F099FE02D2C44804904A
:1094700001E0C8480490049805B0BDE8F08F2DE9DC
:10948000F04F8FB000200E900026002500270D9091
:1094900080460B9081460A90099008908246834648
:1094A00007900021BE48006804F0ECF909D1F9F7F3
:1094B000C2FE069004F09EFAB94908600FB0BDE8FC
:1094C000F08FF9F7B8FE069004F094FA8146B4489C
:1094D0000168484604F096FCB249069004F010F981
:1094E0000B90AF48C0F80090AF480078012802D038
:1094F000AE48007800B9E1E7AD48806880F00046EA
:10950000AC498868AC4904F0FBF80E904FF07C51F0
:109510000E9804F077FCA94A4FF07C510690FFF7B3
:109520008DFE80F00040A64908604FF08141A448BC
:10953000006804F0A7FAA24908609D48806880F09E
:1095400000479F480B99006804F09CFA3946069042
:1095500004F0C6FB07469B4801684FF0814004F0C9
:10956000CFF84FF08041069004F08CFA80463146E7
:10957000384604F047FC0C9041460C9804F04EFB32
:1095800005D24146304604F047F807460BE088F024
:10959000004006900C9904F041FB04D2414630464D
:1095A00004F030FC074688480078A0B1874801687D
:1095B000384604F027FC4FF08041069004F02EFB63
:1095C00009D24FF080418148006804F025F8074631
:1095D00000207B4908603146384604F013FC80F0D7
:1095E00000400A904FF07C517548006804F04AFA38
:1095F0000690744801680A9804F044FA05900699A8
:1096000004F00AF80D9068480078022801D17048EB
:109610000D907048007830B1FFF740FE6E49086049
:1096200000206C4908706248456929460D9804F08D
:10963000E9FB099069480168284604F0E3FB0490BF
:109640000B9904F05DF8294606905D48006804F027
:10965000D9FB04905B480168049804F013FA059064
:10966000069904F0CFFB08905C4805605C4881686F
:10967000089804F007FA059059480168099804F021
:1096800001FA0490059903F0C7FF0690524801685B
:10969000069803F0C1FF53490860FFF7A2FE044695
:1096A0004148007802280CD04E48006880F0004005
:1096B0002146069004F0B2F903D284F000404949F3
:1096C000086000204849087048490870394908680E
:1096D00003F076FF464A474BCDE9000103F060FCFA
:1096E0000022454BCDE9020103F06CFACDE90401FB
:1096F00003F07AF9069002F0A7FF404908602D496F
:10970000486803F05DFF3A4A3A4BCDE9000103F0A7
:1097100047FC0022384BCDE9020103F053FACDE9B2
:10972000040103F061F9069002F08EFF33494860AE
:109730000A465168506804F0A5F9304A059011684E
:10974000106804F09FF90490059903F065FF0690F6
:1097500003F064F882462A49504604F05FFA7DD24D
:10976000284803F071F806901E4800684CE000009D
:1097700033331040000080BEC409002033330F4053
:10978000CDCCCCBE66660E406666E6BE9A999999C7
:1097900099990D40CDCC0CBF0000B0409A9999BE6C
:1097A000A0030020002474496C030020A8030020BB
:1097B000980C0020400F002000007A44CDCCCC3D16
:1097C00068030020BC0E00209203002094030020B8
:1097D0009A99993F7403002078030020A403002085
:1097E000EC0E00207C030020910300209003002059
:1097F0004AD8124DFB2109400080664080030020BA
:109800000AD7233CC2B8323F80F000400590069949
:1098100004F038F907905046079904F0FFF92AD26E
:109820005146079803F06CFF0690CD4948680699A9
:1098300004F028F9CA4948600868069904F022F93A
:10984000C74908600120C7490870C54A5168506877
:1098500004F018F9C24A0490116800E00BE01068A7
:1098600004F010F90390049903F0D6FE059002F07D
:10987000D5FF824600BFBC480168006804F002F9C9
:1098800051460590504604F0FDF80490059903F008
:10989000C3FE069002F0C2FF83464FF07E51584649
:1098A00004F0BCF962D20021AF48006804F0B6F8B9
:1098B0003CD2AD48006880F000404FF07E510690E9
:1098C00004F0ACF90CD20020A54908604860A74814
:1098D000A54908600120A3490870A549087045E022
:1098E00000200690A0480168006804F0CBF84FF013
:1098F0007E51049004F0F4F9059002F08FFF079078
:109900005146079803F0FCFE069095494868069971
:1099100004F0B8F8924948600868069904F0B2F873
:109920008F49086001208F4908701FE059464FF0A9
:109930007E5003F0E5FE06908B480699006804F01F
:10994000A1F88949086086494868069904F09AF8A0
:10995000834948600868069904F094F880490860D3
:109960000120804908708249087000BF7C4908685E
:1099700001F040FD7F49009004F084F8019003F06D
:109980001FFE7D4A7D4BCDE9020103F01BF9CDE9B5
:10999000040103F029F87A4908607149486801F028
:1099A00029FD7449009004F06DF8019003F008FE61
:1099B000714A724BCDE9020103F004F9CDE90401CB
:1099C00003F012F86F49086069480078C8B96E481A
:1099D0004168099804F056F805900B9904F052F884
:1099E00006906A480168069803F016FE6749086009
:1099F00000216648006804F011F902D20020634992
:109A0000086000BF5AE52DE9F0416149886D614960
:109A100003F076FE044660480078012815D15C49C1
:109A2000886D5C4904F0EEF95C4988605C488068A8
:109A30005C4908605648D0F894402146594800686F
:109A400003F05EFE5749086012E04748006880F066
:109A500000455549284604F015F852490860524916
:109A60005048006804F0DAF802D24F484D490860C7
:109A70004E4801684B48006804F0C4F907464C485A
:109A80000168384604F0BEF906464A480168304687
:109A900004F0B8F9054603F029FF00B24649888072
:109AA000424801683F48006803F0B6FD0746404859
:109AB0000168384603F0B0FD06463E48016830466E
:109AC00004F0A0F9054603F011FF00B23A490880FE
:109AD000364801683348006804F094F90746344872
:109AE0000168384603F098FD064632480168304662
:109AF00003F092FD054603F0F9FE00B22E49C8803E
:109B00002A4801682748006803F086FD0746284870
:109B10000168384604F076F9064626480168304662
:109B200003F07AFD054603F0E1FE00B222494880C9
:109B30002248007858B10D46B5F90630B5F9042031
:109B4000B5F90210B5F90000F7F79AFE05E0002319
:109B50001A4619461846F7F793FEBDE8F081000053
:109B600080030020910300207C030020000080BFC0
:109B700090030020000034434AD8124DFB210940D5
:109B8000380300203C030020EC0E00207803002066
:109B9000C00B00200AE81C416C0300201C0F0020B1
:109BA000400F00204003002000007A4448030020BA
:109BB000440300204C0300202E030020A8030020B3
:109BC00010B555480078242840D1534840784D2896
:109BD0003CD1514880783C2838D14F48007905283D
:109BE00027D0062829D0072802D0CD282DD128E05B
:109BF000494840794849897900EB01204749C880A4
:109C00004548C0794449097A00EB012043498880DE
:109C10004148407A4049897A00EB01203F49488019
:109C20003D48C07A3C49097B00EB01203B49088054
:109C30000BE001203A49087007E00320384908701A
:109C400003E001203749087000BF00BFF9F721FB8E
:109C50003549086010BD10B502213448FDF73FFCBE
:109C6000F9F7E9FA3249086000BF0020314908706D
:109C7000F9F7E1FA2E490968401A2F4908600846A9
:109C800000682E490968884207D32D49D1F8980009
:109C900003F048FE2B49087123E0F7F743FF042047
:109CA000F6F7D5FB0720F7F7ABFE27490870084603
:109CB000007800F00E0018B901201E4908700AE073
:109CC00020480079401C1F49087108460079FF2888
:109CD00001D1002008711C48007800F00E000E2809
:109CE000C3D000BFF7F71EFF1248007801280DD13E
:109CF0001449087903F07EFE04461148D0F8981004
:109D0000204603F0BFFD01D0FCF750F902210748BF
:109D1000FDF7E7FB10BD00006A04002026010020CB
:109D200021010020C60100201C010020000C014080
:109D3000AC030020AA030020B0030020B4030020DD
:109D4000E00C002048000020A9030020704710B557
:109D50004C1084EA530404D54042C1F1000138BFDD
:109D6000491E1B4204D55242C3F1000338BF5B1E9B
:109D700000F08AF914F0804F04D04042C1F1000194
:109D800038BF491E14F0004F04D05242C3F1000303
:109D900038BF5B1E10BD00000FB4044910B503AA04
:109DA000029800F059FC10BC5DF814FB5000002034
:109DB00070B5044685690068C10601D5302600E00B
:109DC0002026C00707D070BDD4E901213046904756
:109DD000206A401C20626D1EF6D570BD70B5044629
:109DE00085690078C00707D170BDD4E90121202022
:109DF0009047206A401C20626D1EF6D570BD0000A1
:109E00002DE9F0410646002410687529314616A553
:109E100010D0AFF30080002802DA404213A507E01B
:109E200031688A0701D512A502E0490704D511A5BA
:109E3000012401E0AFF3008000210A2206F124078B
:109E400009E0B0FBF2FCB0FBF2F302FB1C00303087
:109E500078541846491C0028F3D123462A46304638
:109E6000BDE8F04100F092B9000000002D000000B4
:109E70002B0000002000000070B504460D4621466E
:109E80001068AFF300802188090502D50F4A7A4493
:109E900002E00E4A7A440E32002104F1240305E068
:109EA00000F00F060009965D5E54491C0028F7D1AA
:109EB00020780023000704D5702D02D009B10223B9
:109EC00011322046BDE8704000F060B94642000003
:109ED0002DE9F0474FF0000A89460446C0F820A05B
:109EE0002046E1688847002876D0252806D0D4E9A6
:109EF00001219047206A401C2062F1E7E16820467A
:109F000000258847C4F81CA006460027C4F818A0FE
:109F10002A2E09D0304601F065FA38B304EB8708E1
:109F2000303EC8F8186019E059F8041B204604EBCD
:109F300087029161E1688847012F064618D1E069E0
:109F4000002820DA25F020051DE0D8F8180000EBE5
:109F5000800006EB40003038C8F818002046E16861
:109F60008847064601F03EFA0028EED1012F0AD0BC
:109F70002E2E08D12046E16888477F1C0646022F16
:109F800045F02005C4DBA069002803DA404245F013
:109F90000105A061E80701D025F01005B6B1A6F1D2
:109FA0004100192802D8203645F400654A4631465A
:109FB000204625604D46F6F7F3F858B1012806D043
:109FC000ED1D25F0070000F1080989E704E005F11F
:109FD000040985E730468AE7206ABDE8F08710B5B6
:109FE000431C02E010F8011B71B18107FAD14FF058
:109FF000013202C88C1A8C4314EAC211F9D0C01A7B
:10A000000A0603D0C01E10BDC01A10BD0A0401D03C
:10A01000801E10BD0902FCD0401E10BD10B5203AB4
:10A02000C0F00B80B1E81850203AA0E81850B1E811
:10A030001850A0E81850BFF4F5AF5FEA027C24BFC7
:10A04000B1E81850A0E8185044BF18C918C0BDE8BE
:10A0500010405FEA827C24BF51F8043B40F8043B87
:10A0600008BF7047D20728BF31F8023B48BF11F83C
:10A07000012B28BF20F8023B48BF00F8012B704796
:10A08000704770477047704753EA020C00F06980D0
:10A090002DE9F04B4FF00006002B1FBFB3FA83F5FC
:10A0A00003FA05F424FA05F65E4012BF1643B2FA2D
:10A0B00082F502FA05F4C5F120051EBF22FA05FC5F
:10A0C00044EA0C04203556EA044C4FEA144418BF05
:10A0D000641C4FF000084FF00009904271EB030C34
:10A0E00039D3002919BFB1FA81F701FA07F6B0FA9E
:10A0F00080F700FA07F6C7F120071EBF20FA07FC19
:10A1000046EA0C062037B6FBF4FCA7EB0507103F28
:10A1100007F01F0BCBF120060CFA0BFB2CFA06F60E
:10A1200044BFB3460026202FA4BF5E464FF0000B6D
:10A130005BEA060C08BF4FF0010B19EB0B09ABFBF8
:10A14000027C48EB0608C01B06FB02CC0BFB03CCD1
:10A1500071EB0C01C1E70B46024641464846BDE89B
:10A16000F08B13B54FF000004FF00001AFF300800B
:10A17000BDE81C40704710B500F084FA006810BDBF
:10A1800010B5044600F07EFA046010BD2DE9F047DA
:10A190000D4699469246044600F124080168880657
:10A1A00004D5E06921F01001216000E00120A842FF
:10A1B00001DD471B00E00027A1697A1902EB0900C5
:10A1C000081AA0612078C00602D42046FFF7F0FDEF
:10A1D000002608E0D4E901211AF806009047206A19
:10A1E000401C761C20624E45F4DB2078C0060AD560
:10A1F0002046FFF7DDFD06E0D4E90121302090473D
:10A20000206A401C2062381EA7F10107F4DC07E039
:10A21000D4E9012118F805009047206A401C20620B
:10A22000281EA5F10105F3DC2046FFF7D7FD2078B5
:10A23000000602D50220BDE8F0870120FBE7704749
:10A240002DE9FF4F0C461E464FF0FF378BB0D2E989
:10A250000001DDF860800A908A46C1F30A5505B90D
:10A260003D46002108464FF00000BAF1000F00F40F
:10A27000400005DA00EB80004FF4400101EA500095
:10A280004FEA9059B9F1010F00DDB9460A9850EA3A
:10A290004A000ED044F61050A5F2FF3545432F1466
:10A2A000B8F1000F1ED07542291E1EDDC9F1000253
:10A2B0001CE0B8F1010F4FF0000001D0302103E0A5
:10A2C000F24305E02154401CB042FBDB3046002243
:10A2D000002121540B99C1F80880C1E900200FB07A
:10A2E000BDE8F08FBD1B6D1CDEE74A4600DA69420F
:10A2F00006A800F069FA06AB93E8070003AB83E811
:10A30000070050460A9900F041FB8DE80700A0F5D0
:10A3100000501F3800900398002D09DD42F21F0104
:10A320004A46084403A90390684600F0A0FD08E0EF
:10A33000A0F500504A461F3803A90390684600F074
:10A34000AAFD8DE807000004000C03D04FF0FF3099
:10A35000410800E01046B8F1000F03D0002200923F
:10A3600015461EE0751E05D400F090F93032625596
:10A370006D1EF9D5B3460122084302D000227F1C8E
:10A3800004E02078302801D100227F1E002A09979E
:10A3900086D01DE0112D07DA00F078F930326255D1
:10A3A0006D1C50EA0102F5D1084302D00098C8B1F3
:10A3B0000EE00021681E05E0235C625C63542254B9
:10A3C000401E491C8142F7DBAB46A81B401E09908A
:10A3D000002004F80B000B98099AC0F80880C0E927
:10A3E000002B7CE711264FF0000859E72DE9F04FCC
:10A3F00088460446D21D22F0070191B0D1E9000140
:10A40000CDE90A0100F07DFE02460B98C00F01D095
:10A410002D2007E02068810701D52B2002E02021B4
:10A4200001EAC000032A099001D0072A05DB034690
:10A430004146204600F088F90BE12078800601D5DE
:10A44000E06900E00620B8F1650F814606D0B8F15A
:10A45000660F18D0B8F1670F70D131E00020B9F164
:10A46000110F009001DB112301E009F101030AAA99
:10A4700001A90CA8FFF7E4FEDDE90C70002609F144
:10A480000105834647E001204B4600904FF000470E
:10A490000AAA01A90CA8FFF7D3FEDDE90DB00C99BB
:10A4A0005D46002610B909F101000D18B9EB050051
:10A4B00003D4C0F1FF3609F10105A5EB09002BE03B
:10A4C000B9F1010F01DA4FF001090020B9F1110FC4
:10A4D0000090484601DD112300E003460AAA01A9C5
:10A4E0000CA8FFF7ADFEDDE90C704D460026834653
:10A4F000207800070AD4AB4500DA5D4601A8012D9B
:10A5000004DD411911F8011C302907D04F4502DA4A
:10A5100017F1040F04DA012082460FE06D1EEEE70A
:10A52000002F02DCED1B3E4403E0781CA84200DD56
:10A530007D1CB81B00F1010A4FF00047207800078E
:10A5400003D4AA4501DB4FF0FF3A0021B7F1004FD9
:10A550000DF143088DF8431024D002202B23002F47
:10A5600001DA7F422D230A21021EA0F1010000DC46
:10A570005FB197FBF1FC97FBF1F201FB1C7C1746E6
:10A580000CF1300C08F801CDEEE7A8F101000370E2
:10A590002188090501D5452100E06521A0F10108C8
:10A5A00000F8011C09980FA9A1EB0807FF1D00B1D5
:10A5B0000120411901EBEA70A1693844081A401ED4
:10A5C000A0612078C00602D42046FFF7F1FB09986D
:10A5D00028B1D4E901219047206A401C20622078EC
:10A5E000C00622D52046FFF7E3FB1EE0002E04DB69
:10A5F000B34502DD01A8805D00E03020D4E90121EF
:10A600009047206A401C2062761CAAF101005FEA94
:10A61000000A0AD100F032F8C0680168405CD4E951
:10A6200001219047206A401C2062281EA5F10105E7
:10A63000DCDC07E0D4E9012118F8010B9047206A1F
:10A64000401C2062381EA7F10107F3DC2046FFF70B
:10A65000C5FB032011B043E6074B70B50D467B44A4
:10A6600000F05FF80446284600F01CF910B14FF0E6
:10A67000FF3070BD204670BD4579FFFF0048704730
:10A68000700F002000487047500F002030B5B0F127
:10A690000A024FEA900E71F100034EEA817EB0EBA0
:10A6A0000E0061EB91014FEA101E4EEA017E10EBA5
:10A6B0000E0041EB11114FEA102E4EEA016E10EB25
:10A6C0000E0041EB11214FEA104E4EEA014E10EB05
:10A6D0000E0041EB1141401841F100014FEAD0005A
:10A6E00040EA41704FEAD10110EB80054FEA810446
:10A6F00044EA907444EB01046D1944EB0404521BCA
:10A70000A3414FF0000348BF0A3200D530BD401CC2
:10A7100041F1000130BD000001694A1C0261087866
:10A72000704700B58FB0CDE9013100210591054991
:10A730007944CDE9031011466846FFF7C9FB0FB015
:10A7400000BD0000E5FFFFFF2DE9F0411F46044674
:10A7500003260168072A01F4006004DB08B116A58E
:10A7600005E016A503E008B115A500E015A521F048
:10A7700010002060A069C01EA0610FB1401EA06142
:10A780002046FFF715FB4FB1D4E901213846904729
:10A79000206A401C2062C01C206206E0206AFAE7A2
:10A7A000D4E9012115F8010B9047761EF8D2204616
:10A7B000FFF714FBBDE8F0814E414E006E616E0064
:10A7C000494E4600696E66002DE9F04781461646FF
:10A7D0008AB0334878440DC88DE80D00304878447D
:10A7E000801C03AC0DC884E80D0041F69B30084482
:10A7F000372190FBF1F290FBF1F5A5F1800501FB0B
:10A8000012041B3C02D56442012000E00020DFF866
:10A8100090A080460027FA44AAF1BE0A0DE0E007A6
:10A8200009D03246684607EB47010AEB810100F088
:10A8300032FB8DE8070064107F1C002CEFD1184F0D
:10A840007F44AC3F18E0E80714D007EB04100DF18B
:10A85000180A90E80E008AE80E00C068F04201D1A4
:10A8600098190890324606A903A800F014FB03AB20
:10A8700083E807006D10641C002DE4D13246694660
:10A88000B8F1000F03A802D000F0F1FA01E000F0E7
:10A8900002FBC9E90001C9F808200AB0BDE8F08749
:10A8A000EC3A0000007B00F08000704700487047E1
:10A8B000500F00207546FFF7F9FFAE4605006946C8
:10A8C000534620F00700854618B020B5F5F78CFDFB
:10A8D000BDE820404FF000064FF000074FF00008A1
:10A8E0004FF0000B21F00701AC46ACE8C009ACE822
:10A8F000C009ACE8C009ACE8C0098D467047044601
:10A90000AFF300802046F5F76BFC00004FF0013CF0
:10A9100050F8042B51F8043B9A4221D1A2EB0C03CE
:10A92000934313EACC1317D150F8042B51F8043B8E
:10A930009A4215D1A2EB0C03934313EACC130BD12B
:10A9400050F8042B51F8043B9A4209D1A2EB0C03B6
:10A95000934313EACC13DBD04FF00000704700BFE5
:10A96000D01A01BAB1FA81F101F0180122FA01F00E
:10A97000CB40C1F12001DBB2C0B2C01A2CFA01F306
:10A98000D11A914311EAC311E6D170475FEA400C36
:10A9900008BF91F0000F4FEA8C234FEAC12243EA2F
:10A9A00051514FEA1C5018BF00F5F0404FEA3000FB
:10A9B00018BF41F000415FEA6C5C00F02980BCF1F7
:10A9C000FF3F08BF40F080407047130C06BF1204E1
:10A9D0004FF0100C4FF0000C130E04BF12020CF1DC
:10A9E000080C130F04BF12010CF1040C930F04BFE9
:10A9F00092000CF1020CD30F04BF52000CF1010CB9
:10AA000011464FF00002A0F11F00A0EB0C007047B0
:10AA100011F0004F08BF704731F000413FF4D5AF4F
:10AA20000B0C06BF09044FF0100C4FF0000C0B0E7E
:10AA300004BF09020CF1080C0B0F04BF09010CF153
:10AA4000040C8B0F04BF89000CF1020CCB0F04BF68
:10AA500049000CF1010CCCF12003A0EB0C0022FA10
:10AA600003F302FA0CF241EA030100F1010070471E
:10AA700020F07F4C80EA030023F07F47ACEB070314
:10AA800003F57C5300F0004003F1FF032DE98049FA
:10AA90004FEA154B09B44FEA144325EA0B4E24EA5A
:10AAA00003480FF2042606EB132749083E785FEAB5
:10AAB000320203FB0667C7F5000707FB06F64FEAFD
:10AAC00054374FEAD64606F1020607FB066CCCF176
:10AAD000005C4FEA1C472CEA074C07FB06F40CFB12
:10AAE00006F504EB15464FEA961634BF00204FF0EA
:10AAF00000404FEAD13706FB07FC4FEA1C4C0CFB29
:10AB00000BF7D21B03FB0CF761EB07010CFB0EF7F5
:10AB1000B0EB074072EB17420CFB08F734BFA2EB17
:10AB20000742B2EB074261EB17414FEA0C444FEA90
:10AB3000910706FB07FC4FEA1C4C0CFB0BF7B0EB34
:10AB4000C74072EB573203FB0CF734BFA2EBC7428E
:10AB5000B2EBC74261EB57310CFB0EF7B0EBC7000D
:10AB600072EB57720CFB08F734BFA2EBC702B2EBD3
:10AB7000C70261EB5771039F4FEA816141EA92116D
:10AB800004EBCC044FEAD1374FEA826206FB07FCA4
:10AB900042EA90124FEA80604FEA1C4C0CFB0BF724
:10ABA000D21B03FB0CF761EB07010CFB0EF7B0EBBC
:10ABB000074072EB17420CFB08F734BFA2EB0742C9
:10ABC000B2EB074261EB17414FEA8C554FEA910710
:10ABD00004EB9C2406FB07FC4FEA1C4C0CFB0BF718
:10ABE000B0EBC74072EB573203FB0CF734BFA2EB5C
:10ABF000C742B2EBC74261EB57310CFB0EF7B0EB2B
:10AC0000C70072EB57720CFB08F734BFA2EBC70208
:10AC1000B2EBC70261EB577115EB4C254FEA81612E
:10AC200041EA92114FEA82624FEAD13742EA90122A
:10AC300006FB07FC44F100044FEA80604FEA1C4C1D
:10AC40000CFB0BF7D21B03FB0CF761EB07010CFBB2
:10AC50000EF7B0EB074072EB17420CFB08F734BF5E
:10AC6000A2EB0742B2EB074261EB174115EB1C1553
:10AC70004FEA813141EA92414FEA823242EA904200
:10AC80004FEA80304FEA0C7644F1000448EA03436F
:10AC90004EEA0B484FF0000EB2EB080C71EB0307C5
:10ACA00024BF624639464EEB0E0E4FF0000B0018E3
:10ACB000524149414BEB0B0BB2EB080C71EB030714
:10ACC0007BF1000B24BF624639464EEB0E0E4FF06F
:10ACD000000B0018524149414BEB0B0BB2EB080C37
:10ACE00071EB03077BF1000B24BF624639464EEB44
:10ACF0000E0E51EA020718BF46F0010616EB0E765B
:10AD000055F1000254F1000103D5BDE88901BDE809
:10AD10000088BDE88901BDE80048B619524141EB01
:10AD20000101A3F10103704780807F7E7D7C7B7AE7
:10AD30007978777676757473727171706F6E6E6DE7
:10AD40006C6C6B6A6A69686867666665646463638D
:10AD500062616160605F5F5E5E5D5D5C5C5B5B5A13
:10AD60005A59595858575756565555555454535380
:10AD700052525251515050504F4F4F4E4E4D4D4DDB
:10AD80004C4C4C4B4B4B4A4A4A4949494848484726
:10AD90004747474646464545454444444443434364
:10ADA0004342424242414141002B26D4770021D008
:10ADB0001CB54FEA370703B44FF010004FF01001F5
:10ADC0004FF000000FBCBDE810400BF1010BBBF1D0
:10ADD000010F08BF5FEA170722BF12F1010211F14C
:10ADE00001014FF0004143F1000300F0004043EA4D
:10ADF00000007047F9D35708DAE746EA064613F130
:10AE0000400F4FEA16461FDD13F1200FDFBF164338
:10AE10000A46002120335B42C8D0C3F1200746EA2E
:10AE2000064602FA07F74FEA164646EA0706C3F156
:10AE3000200722FA03F201FA07F721FA03F14FF093
:10AE4000000342EA0702B1E746EA020646EA06467E
:10AE50004FEA164646EA0106BCBF46EA0646360CED
:10AE60004FF000034FF000024FF000019EE72DE984
:10AE7000C048934630B491E8380007C831EA400C26
:10AE800048BF34EA430C03D5FFF7F2FDFFF78CFF10
:10AE9000F0BCBDE800882DE9C048934630B491E885
:10AEA000380007C810F0804F08BF13F0804F03D15F
:10AEB00000F005F8FFF778FFF0BCBDE8008820F04F
:10AEC0007F4780EA030023F07F4C07EB0C03A3F5D8
:10AED0007C5300F00040A3F1FE0392F0000F00F05D
:10AEE000B38095F0000F00F077802DE901494FEA1B
:10AEF00011404FEA144621EA004800FB06FC24EA10
:10AF0000064708FB06F607FB08F800FB07F718EBF7
:10AF100006484CEB164C4FEA124B18EB07484FEA29
:10AF200015464CEB174022EA0B4E0BFB06FC25EABC
:10AF300006470EFB06F607FB0EFE0BFB07F71EEBA4
:10AF4000064E4CEB164C4FF000061EEB074E4CEB3A
:10AF5000174B18EB0B0840F1000018EB0E0B58EBE9
:10AF6000000840F100008F1A4FF000013CBFC943B8
:10AF7000661B14BFB5EB040C00213CBFC943F61B94
:10AF80004FEA17444EEA8E0E27EA04454FEA1C4763
:10AF900004FB07622CEA074C05FB07F70CFB05F6E0
:10AFA00004FB0CFC16EB074642EB174216EB0C4673
:10AFB00042EB1C421BEB060658EB0202414146EAFB
:10AFC0009E0601D5BDE80189B619524141EB010148
:10AFD000A3F10103BDE801894FEA14454FEA114787
:10AFE00024EA054621EA074C05FB07F406FB07F7B0
:10AFF0000CFB06F105FB0CFC11EB074144EB17447D
:10B000004FEA124711EB0C4144EB1C4422EA074C77
:10B0100005FB07F206FB07F70CFB06F605FB0CFC2D
:10B0200016EB074642EB174216EB0C4642EB1C456B
:10B030006A1854F1000148BF7047B619524141EBFC
:10B040000101A3F10103704795F0000F37D04FEADB
:10B0500011424FEA144721EA024624EA074C02FB58
:10B0600007F106FB07F70CFB06F402FB0CFC14EBE4
:10B07000074441EB17414FEA154714EB0C4441EBF1
:10B080001C4125EA074C02FB07F506FB07F70CFB02
:10B0900006F602FB0CFC16EB074645EB174516EBD4
:10B0A0000C4645EB1C42121951F1000148BF704794
:10B0B000B619524141EB0101A3F1010370474FEA78
:10B0C00014454FEA114724EA054621EA074C05FBDF
:10B0D00007F106FB07F70CFB06F24FF0000605FB35
:10B0E0000CFC12EB074241EB174112EB0C4251EB07
:10B0F0001C4148BF7047921841EB0101A3F10103C5
:10B100007047490050EAC12018BF04204A0D18BFFB
:10B1100040F0010040F2FF72B2EB515F08BF40F017
:10B120000200012808BF052070474100080218BF2F
:10B1300004200A0E18BF40F001004FF07F4232EAAF
:10B14000010108BF40F00200012808BF0520704738
:10B1500001464FF07F40B0EB410F01D10120704715
:10B160000020FCE7014621F00040C0F1FF40C00F85
:10B1700070472DE9F0414F1E00EBC7010446D1E9AD
:10B18000000115461E4637F006020DD02A4633460A
:10B1900001F006FF7F1E04EBC703D3E9002301F093
:10B1A00055FC37F00602F1D1022F25D0042F13D021
:10B1B000062F18BFBDE8F0812A46334601F0F0FEA5
:10B1C000D4E90A2301F042FC2A46334601F0E8FEA6
:10B1D000D4E9082301F03AFC2A46334601F0E0FEA8
:10B1E000D4E9062301F032FC2A46334601F0D8FEAA
:10B1F000D4E9042301F02AFC2A46334601F0D0FEAC
:10B20000D4E9022301F022FC2A46334601F0C8FEAD
:10B21000D4E90023BDE8F04101F018BC0022134638
:10B220001046014901F0CEBC0000F03F012202F0BF
:10B2300092BE01F00BBC002213461046114601F0ED
:10B24000C1BC40F2013200204FF0E04102F083BE69
:10B25000024A0020110702F07EBE000001FDFFFF40
:10B26000012102F0A6BE02F0D7B90021084602F083
:10B2700047BA6FF05E01080702F09BBE2DE9F04D62
:10B280000D4614464FF07F41B1EB440F9EBF4FF087
:10B29000FF312960BDE8F08D4FF0004040EA042105
:10B2A000C4F3C750783810F01F024A4B4FEA601CB5
:10B2B000C2F120067B44C4F3C750A0F178004FEAE6
:10B2C000601003EB800053F82C3008BFD0E901C6B2
:10B2D00012D0D0F804C093402CFA06F73B4387689D
:10B2E0000CFA02FC27FA06F8C06807FA02F2F040EE
:10B2F0004CEA080C42EA0006A3FB0132ACFB01C099
:10B30000A6FB016101EB0C068E4234BF4FF0010C2D
:10B310004FF0000CC1186144BCF1000F02D0814213
:10B3200002D903E0814201D2012000E00020104454
:10B3300000F120024FEA92188006CA0C40EA42301F
:10B340004F03C5F8008002F00DFB8246384602F03C
:10B3500051FB6FF0120102F02CFE0746304602F05E
:10B3600049FB6FF0250102F024FE83463946504622
:10B3700002F052F9594602F04FF900F500666FF3FA
:10B380000B065146304602F03DFD394602F03AFDCB
:10B39000594602F0A5FC104902F074FB07460F491C
:10B3A000304602F06FFB394602F036F907460C4989
:10B3B000304602F067FB394602F02EF914F0004FD8
:10B3C00008BFBDE8F08DC8F1805180F000402960D1
:10B3D000BDE8F08D702F0000DB0FC92F22AAFD29D8
:10B3E0000000C92F30380A2801D201207047002000
:10B3F000704700002DE9F04104464FF00E4000EB8D
:10B400004400B0F1506F204655D84FF0FC41B1EBED
:10B41000440F1CD224F000404FF07E5102F060FC3B
:10B420004FF0FF3102F0C5FD054601F0F7F914F0C9
:10B43000004F1DBF2F4F304E80F000402F4F08BFF0
:10B440002F4E4FF0404102F01DFB044605E000275F
:10B450003E46014602F016FB05462A49284602F000
:10B4600011FB294902F0D8F8294602F00BFB2749C5
:10B4700002F0D2F8294602F005FB254902F0CCF88B
:10B48000294602F0FFFA234902F0C6F88046294611
:10B49000204602F0F7FA414602F0F4FA054631463A
:10B4A000204602F0B9F8294602F0B6F83946BDE860
:10B4B000F04102F0B1B84FF0E441B1EB440F08D9CC
:10B4C000FFF733FE042808BFFFF7D3FE2046BDE890
:10B4D000F0814FF07F41B1EB440F03D2BDE8F04162
:10B4E000FFF7BEBE0120FEF74BFEBDE8F041FFF7BF
:10B4F000BCBE00000000C9BF22AAFDB90000C93FC0
:10B5000022AAFD3924FE1C3DC78AD83C1E67383D5F
:10B510001B93993DAFAA2A3E2DE9F84F04460D46EC
:10B5200021F0004000917349814211DC7249884248
:10B5300001DC06D12CB120462946BDE8F84FFFF7C3
:10B5400075BE6E48002DCCBF6D496E49BDE8F88FC1
:10B550006D49814211DD6D498142D8BF4FF0FF3600
:10B560006DDD20462946FFF7CCFD042808BFFFF714
:10B570006FFE20462946BDE8F88F6549654F25F0E6
:10B580000045814233DD6449814219DD002632469F
:10B590004FF080432046294601F058FA80468A46FB
:10B5A00001222046294602F0D6FC00223B4601F04B
:10B5B0001DFF4246534601F005FB04460D463EE0A2
:10B5C00001260022BA463B462046294601F03EFAB3
:10B5D00080460F46002253462046294601F006FFCA
:10B5E00042463B4601F0EEFA04460D4627E04B4941
:10B5F00081421BDDDFF828A10226002253462046A7
:10B60000294601F0CDFC00223B4601F01FFA80469E
:10B610000F46002253462046294601F0E7FE4246E7
:10B620003B4601F0CFFA04460D4608E003262246C9
:10B630002B4600203B4901F0C5FA04460D46224640
:10B640002B461046194601F0ABFC8B46824602465B
:10B650000B4601F0A5FC07460246334888460B46D8
:10B6600006217844FFF785FD52465B4601F098FCC1
:10B6700082462E488B463A46434605217844FFF7DA
:10B6800078FD3A46434601F08BFC02460B46002EFD
:10B69000504659460CDA01F0D9F922462B4601F002
:10B6A0007FFC01B022462B46BDE8F04F01F0ACBD57
:10B6B00001F0CCF922462B4601F072FC1C4A7A4478
:10B6C00002EBC603D3E9002301F090FE22462B468D
:10B6D00001F08CFE174A7A4402EBC603D3E900233B
:10B6E00001F092FD009A002AB8BF81F00041BDE848
:10B6F000F88F0000000010440000F07F182D445423
:10B70000FB21F93FFB21F9BF0000DC3F0000203E98
:10B710000000F33F0000F03F0000E63F00800340E0
:10B720000000F83F0000F0BF8A2B0000482B00000B
:10B73000E62A0000AE2A00002DE9F04D9446CCF137
:10B74000000423F000464CEA0404524F46EAD47445
:10B750009A46884621F00042BC4206D8454240EA5B
:10B76000050442EAD474BC4204D9BDE8F04D6246F7
:10B77000FFF75FBDAAF14055A5F17F6555EA0C04BE
:10B780000BD0022404EAAA74434DDFF810E144EA26
:10B79000D87452EA000B04D00CE0BDE8F04DFFF77E
:10B7A000BBBE002C14BF012CBDE8F08D022C30D0A4
:10B7B000032C32D056EA0C0B0AD0BE4220D1BA423A
:10B7C00009D126F0804622F080423346114617E028
:10B7D00000291ADB25E0DFF8C8B0FB44002C04BFC9
:10B7E000DBE90001BDE8F08D012C02BFDBE90001BF
:10B7F00081F00041BDE8F08D022C0AD0032C0CD062
:10B80000BA4212D1B8F1000F0BDA23482549BDE83E
:10B81000F08D28462449BDE8F08D28467146BDE8E4
:10B82000F08D1D482149BDE8F08D921B12153C2A70
:10B83000C4BF19481D490EDCBAF1000FBEBF12F19A
:10B840003C0F0020014606DB624601F0BBF921F007
:10B850000041FFF761FE002C08BFBDE8F08D012C10
:10B8600004BF81F00041BDE8F08D114A114B022C5C
:10B8700007D001F0BBFD2A46BDE8F04D0A4B01F0B0
:10B88000B5BD01F0B3FD2A46BDE8F04D064B01F011
:10B89000BBBC00000000F07F182D4454FB2109C000
:10B8A000422A0000FB21F9BFFB210940FB21F93F9F
:10B8B000075C143326A6A13C2DE9F0474FF06842FF
:10B8C00002EB40030C460546B3F1654F3CBF02EB6B
:10B8D0004102B2F1654F7CD2C0F3C753C1F3C752E6
:10B8E0009A1A1B2A06DD10F0004F14BF76487748DD
:10B8F000BDE8F08712F11A0F17DA11F0004F06D0E9
:10B9000010F0004F0CBF72487248BDE8F087214626
:10B91000284601F0F5FE0446FFF707FC042808BF9F
:10B92000FFF7A7FC2046BDE8F0874200B2EB410FCD
:10B9300025D910F0004F19BF674F684E684F694E08
:10B94000224685F0004415460A4680F00041104624
:10B950000A1A5200B2F1807F40D248406249DFF8B3
:10B960008CA110F0004F18D04FF03F48384602F03D
:10B9700049FA07465146304602F044FA17E011F002
:10B98000004F04BF00263746E2D010F0004F19BF29
:10B99000574F584E584F594EDAE74FF07C583846BB
:10B9A00001F03AFE07465146304601F035FE0646A4
:10B9B0004146284602F066F8214601F02DFE8246F7
:10B9C0002146404602F05EF8294602F089F95146C8
:10B9D00000E037E001F094FE044604E021462846EA
:10B9E00001F08EFE0446014602F04CF880464449C0
:10B9F00002F048F8434901F00FFE414602F042F8D8
:10BA0000414901F009FE414602F03CF83F4901F08E
:10BA100003FE414602F036F83D4901F0FDFD0546C2
:10BA20004146204602F02EF8294602F02BF8314616
:10BA300001F0F2FD214601F0EFFD3946BDE8F04787
:10BA400001F0EABD4FF07F42B2EB400F28BFB2EBEE
:10BA5000410F03D2BDE8F047FFF705BC40EA010300
:10BA60005B0008BF44F0FF410AD0B2EB400F08BFB3
:10BA7000B2EB410F06D125F0804024F0804105460D
:10BA80000C4629E7B2EB400F12BF5FEA410245F0D6
:10BA9000FF4004F000413FF41FAF4A0092EA400328
:10BAA0003FF51AAF002AACBF4FF09F464FF03E560D
:10BAB000314601F0E7FF05463146204601F0E2FF3E
:10BAC00004462846214607E7DB0FC9BFDB0FC93F05
:10BAD000DB0F4940DB0F49C00000C9BF22AAFDB9F6
:10BAE0000000C93F22AAFD390060ED3EC30ACE37EF
:10BAF000000049C022AA7DBA0000494022AA7D3A2E
:10BB00002DAD65BD8FB8D53D0FB511BE61C84C3E9A
:10BB1000A8AAAABE2DE9F843044602464F48694642
:10BB2000B0EB420F09D94FF0E640B0EB420F94BFA3
:10BB300000204FF0FF30009030E0494B22F00040F1
:10BB4000834271D94749204601F09CFF02F098F8E2
:10BB5000804601F0CBFE00F00300009042494046D1
:10BB600001F090FF05464149404601F08BFF064633
:10BB70003F49404601F086FF07463E49404601F0F6
:10BB800081FF214602F0ACF8394602F03BF931461C
:10BB900002F038F9294602F035F904462546009CA2
:10BBA000002C45DB294614F0010F08461CD001F09B
:10BBB00069FF0646304901F065FF304902F090F810
:10BBC000314601F05FFF2E4901F026FD314601F0BC
:10BBD00059FF294601F056FF294601F01DFD14F0DA
:10BBE000020F1CD0BDE8F88301F04CFF0546254943
:10BBF00001F048FF244901F00FFD294601F042FF02
:10BC0000224901F009FD294601F03CFF4FF07E5129
:10BC100001F002FD14F0020F08BFBDE8F88380F0C8
:10BC20000040BDE8F883FFE71046FFF727FBB4E7C5
:10BC30006800B0F17F4F3CBF4FF07E50BDE8F88305
:10BC400007D14FF00100FEF79BFABDE8F843FFF77C
:10BC50000CBB2846BDE8F843FFF702BBB61F927E37
:10BC6000490E494683F9223F1A61342C0020A23341
:10BC700000A0FD390000C93F336D4C39DA82083C21
:10BC8000A0AA2ABEB93AB2BACA9F2A3DDDFFFFBEBA
:10BC90002DE9F04D16460F4694B01C4621F00041A8
:10BCA00023F00042002814BF4FF0010C4FF0000CAD
:10BCB0000CEB470CFE4B0CEB03054FEA630C6545A0
:10BCC0002BD3350018BF012505EB44051D44F94B66
:10BCD0009D4222D3F84B52EA060C02D09F4205D176
:10BCE00048B914B000201946BDE8F08D002808BFFF
:10BCF0004FF0000C01D04FF0010C0CEB470313F593
:10BD0000001F0AD8002E14BF4FF0010C4FF0000C9A
:10BD10000CEB440313F5001F07D914B03246234639
:10BD20003946BDE8F04DFFF784BADFF890834FF055
:10BD3000000A002FB8BF424523DAE14B9A42A8BF60
:10BD40004FF0020A1DDADC4B93421ADCDD4B03EBA9
:10BD50002253142B08DDC3F1340C26FA0CF303FA3A
:10BD60000CFCB4450DD108E05EB9C3F1140C22FA05
:10BD70000CF303FA0CFC944503D103F00103C3F167
:10BD8000020A51EA00031BD1002C19DA002F18BF58
:10BD9000BAF1020F02D0BAF1010F07D00220FEF76C
:10BDA000EFF914B0BDE8F04DFFF738BA0220FEF706
:10BDB000E7F9FFF733FA14B081F00041BDE8F08DE8
:10BDC000330070D1424525D107F1804212F580122F
:10BDD00001BF00280020B84914B008BFBDE8F08DAD
:10BDE000B548884207DC002CA1BF1846214614B094
:10BDF000BDE8F08D07E0002CBFBF184684F000417D
:10BE000014B0BDE8F08DB0497944D1E9000114B017
:10BE1000BDE8F08DDFF8A0C262452AD1002C24DAFB
:10BE200039B1414517D1002804BF002002461CD17A
:10BE300006E040B10220FEF7A3F9FFF702FA0A4636
:10BE4000394600F0D7BA9D4A394614B0002062F353
:10BE50001E01BDE8F08D08DA14B03B46BDE8F04D98
:10BE600002460020614600F0ADBE14B03946BDE880
:10BE7000F08D414517DAB4F1804F0CD0A4F1005396
:10BE8000B3F1FF530FD13B1E0DDB14B01946BDE8D3
:10BE9000F04D00F09DBC3B4614B00246BDE8F04DAD
:10BEA000194601F07DB8050027F000433AD1E1B111
:10BEB000414537D1002F06DD002CA1BF00204146AF
:10BEC00014B0BDE8F08D002F01DD002C1FDB002F2A
:10BED00016DA002C14DBBAF1010F4FF0000014BF8A
:10BEE00076497A4914B0BDE8F08DBAF1020F18BF57
:10BEF000002F0CD0BAF1010F09D1002F07DA0BE0A7
:10BF0000002FB8BF002C0DDABAF1010F04D00020C9
:10BF100014B00146BDE8F08D14B000204FF0004190
:10BF2000BDE8F08D4FF0010808EBE77CCDF814C0B8
:10BF30005CEA0A0C0DD0DFF898C162457EDDDFF8BF
:10BF400094C1654B624512DD8B420ADB002C18DB85
:10BF500023E00120FEF714F914B0BDE8F04DFFF71F
:10BF60006AB9554A8A4202DC002C0ADC15E0994283
:10BF700002DA002C11DA04E04F4B994219DD002C53
:10BF80000BDD0220FEF7FCF8FFF75BF94B4A14B01B
:10BF900061F31E021146BDE8F08D0220FEF7F0F8B5
:10BFA000FFF756F9444A14B061F31E021146BDE88A
:10BFB000F08D0022394601F019FA07460D466FF060
:10BFC000010201F0C8FF4FF05532444B01F01CF95B
:10BFD0003A462B4600F0E4FF0022414B01F014F9F1
:10BFE00080468B463A462B461046194600F0D8FF4D
:10BFF00042465B4600F0D4FF88460E904FF0C042A8
:10C00000384B3846294600F0CBFF83460091364A2C
:10C01000344B41460E9800F0C3FF80460191334AED
:10C02000334B3846294600F0BBFF4246019B01F0E6
:10C03000DDF90D4602460B460C9000E011E0584633
:10C04000009900F003FD002788465A463846009BB9
:10C0500001F0CCF92B460C9A01F0D6F8024600F01C
:10C0600079B90020B1F5801F07DA35222846194634
:10C0700001F071FF05466FF0340000EB2150A0F293
:10C08000FF300190C1F3130040F07F6141F0405157
:10C09000029118498842D8BF4FF0000B35DD164990
:10C0A0008142C8BF4FF0010B2FDC4FF0000B25E0A1
:10C0B000FFFF1F00FFFF0F000000F03F0000F07FB8
:10C0C0000000404301FCFFFF142400000000F0FFCB
:10C0D0000000E0410000F043FFFFEF3F5555D53F22
:10C0E0000000E03F4715F73FFE822B6544DF5DF817
:10C0F0000BAE543E8E9803007AB60B000198401C9C
:10C1000001900298A0F580100290FF4802997844AF
:10C1100000EBCB000991D0E9002328460B93129243
:10C1200001F064F900910A9028460B9B129A099934
:10C1300000F08CFC02460B460020F44900F042FD62
:10C14000CDE90C010B46024600990A9800F028FF41
:10C150000690EF48884600277844029900681090BE
:10C160004FF0005040EA610000EB8B4000F50021E9
:10C1700002910B9B129A109801F038F92A46099BFC
:10C1800001F042F83A46434600F00AFF0891129047
:10C1900038464146029B109A00F002FF009B0A9A23
:10C1A00001F032F8089B129A01F020F9DDE90C2326
:10C1B00000F0F6FE0B91069A12904346104619467F
:10C1C00000F0EEFE05460246D2480B460A910621D3
:10C1D0007844FEF7CEFF0A9B2A460891029010464B
:10C1E000194600F0DDFE089B029A00F0D9FE0546D4
:10C1F0000991434638461946069A00F027FC0B9BE6
:10C20000129A00F0CDFE2A46099B00F01FFCCDE9F2
:10C2100008013A4643461046194600F0C1FE0A910D
:10C220000022BD4B009000F011FCDDE9082300F076
:10C230000DFC0D463A46B84B384601F0D7F80A9B3C
:10C24000009A01F0D3F8DDE9082300F0DDFFCDE925
:10C2500008013A462B461046414600F0A1FE0091E7
:10C260000A90DDE908014346069A00F099FE06901F
:10C2700088462B463A460B99129800F091FE4346A9
:10C28000069A00F0E3FB80460B4602460D910099AA
:10C290000A9800F0DBFB00200F460546009B0A9A37
:10C2A00001F0A4F842460D9B00F0AEFF88460E90C8
:10C2B0004FF06042994B2846394600F071FE0291DA
:10C2C0000090974A954B41460E9800F069FE8046D3
:10C2D0000391944A944B2846394600F061FE424649
:10C2E000039B00F0B3FB914A7A4402EBCB03D3E902
:10C2F000002300F0ABFB05460791019800F0E9FD33
:10C300000C9003912A46079B0299009800F09EFB2F
:10C31000874A7A4402EBCB03D3E900239346019387
:10C3200000F094FB039B0C9A00F090FB00278846DA
:10C330003846039B0C9A01F059F85A46019B01F0CC
:10C3400055F8029B009A01F051F82A46079B00F02D
:10C350005BFF02460020069005986C4DAAF1010390
:10C36000184301D1734D069000200B4604903046CF
:10C37000214600F015FE82468B462346304619467C
:10C38000049A01F033F83A46434600F009FE52465B
:10C390005B4600F05BFB06468A463A46434621462A
:10C3A000049800F0FDFD04460F463246534600F067
:10C3B0004DFB614A8B46914221DBABEB020353EA12
:10C3C000000210D122463B4601F010F8804603914E
:10C3D0005A4A5B4B3046514600F038FB4246039BBD
:10C3E00000F0DCFE27D20220FDF7CAFEFEF729FF8F
:10C3F0000A46294614B062F31E01BDE8F08D514B88
:10C400002BF000429A4216D34F4A0BEB020353EA39
:10C41000000208D122463B4600F0E8FF3246534670
:10C4200000F0BCFE07D80220FDF7AAFEFEF710FFC1
:10C430000A462946DEE72BF000404449444A01EB16
:10C4400020514FF00008824223DA481C4FF480113B
:10C4500021FA00F058443F4AC0F30A517A443E4B57
:10C46000A1F2FF31CB4020EA0303C0F3130040F4F4
:10C47000801CC1F1140012682CFA00F8BBF1000F07
:10C48000B8BFC8F100082046394600F0AFFF0446A7
:10C490000F4622463B463046514600F0D7FA4FF051
:10C4A000000B5A462D4B5846039100F079FD009140
:10C4B0000A902B4A2B4B5846039900F071FD0491CA
:10C4C000029022463B465846039900F08FFF3246C1
:10C4D000534600F099FE244A244B00F061FD049B72
:10C4E000029A00F0B3FA07468A46009B0A9A00F0C7
:10C4F000ADFA04460E46009B0A9A00F077FF3A46D2
:10C50000534600F081FE33E0EE1F00000000F03FD4
:10C51000C42000005C1F00000000084009C7EE3F77
:10C52000FD033ADCF5015B14E02F3EBE341E000033
:10C53000FA1D00000000F0BF00009040FE822B6555
:10C540004715973C00CC904000346F3F01FCFFFF43
:10C550000000E03FC01D0000FFFF0F00432EE63F3C
:10C56000396CA80C615C20BEEF39FAFE422EE63F22
:10C570000746224633460F911046194600F010FD3B
:10C58000834602462E488A460B4605217844FEF72C
:10C59000F0FD5A46534600F003FD2246334600F0B4
:10C5A00033FE82468B463A46204631460F9B00F0CA
:10C5B000F7FC3A460F9B00F049FA0F460A9000221A
:10C5C0004FF080435046594600F010FF0391009011
:10C5D00052465B462046314600F0E2FC039B009A3F
:10C5E00000F0F0FA3B460A9A00F000FF224633467C
:10C5F00000F0FCFE0022134B00F006FE0E4604463F
:10C6000001EB08510815002810DC4246204631464F
:10C6100001F0A1FCFEF775FD042808BFFEF718FE27
:10C6200042462046314601F096FC044606980B46E9
:10C6300014B022462946BDE8F04D00F0B1BC000020
:10C64000D01B00000000F03F2DE9F84304460246ED
:10C6500052486946B0EB420F09D94FF0E640B0EBC3
:10C66000420F94BF00204FF0FF30009030E04C4B61
:10C6700022F00040834271D94A49204601F002FA73
:10C6800001F0FEFA804601F031F900F0030000905D
:10C690004549404601F0F6F905464449404601F057
:10C6A000F1F906464249404601F0ECF90746414996
:10C6B000404601F0E7F9214601F012FB394601F04E
:10C6C000A1FB314601F09EFB294601F09BFB04468D
:10C6D0002546009C002C45DB294614F0010F084636
:10C6E0001ED001F0CFF90546334901F0CBF93349AB
:10C6F00000F092FF294601F0C5F9314900F08CFFA6
:10C70000294601F0BFF94FF07E5100F085FF14F08B
:10C71000020F08BFBDE8F88380F00040BDE8F88351
:10C7200001F0B0F90646274901F0ACF9264901F0BD
:10C73000D7FA314601F0A6F9244900F06DFF3146E1
:10C7400001F0A0F9294601F09DF9294600F064FFA7
:10C7500014F0020FE0D1BDE8F883FFE71046FEF7C2
:10C760008DFDB4E76800B0F17F4F09D22846FEF78F
:10C77000DCFC042808BFFEF77CFD2846BDE8F883F2
:10C7800006D10120FDF7FCFCBDE8F843FEF76DBDC6
:10C790002846BDE8F843FEF763BD0000B61F927E51
:10C7A000490E494683F9223F1A61342C0020A233F6
:10C7B00000A0FD390000C93FB93AB2BACA9F2A3D6C
:10C7C000DDFFFFBE336D4C39DA82083CA0AA2ABED9
:10C7D0002DE9F04106460F4600F022FD04000D460B
:10C7E00018BF0120284320F00040C0F17F6000F115
:10C7F000E040C00F0ED0301C18BF0120384320F09D
:10C800000040C0F17F6000F1E040C00F04BF012094
:10C81000FDF7B6FC20462946BDE8F08170B5054617
:10C8200001F068FA044620F00040C0F1FF40C00F5C
:10C8300008D025F00040C0F1FF40C00F04BF012028
:10C84000FDF79EFC204670BD2DE9F84304460246E4
:10C850004C486946B0EB420F09D94FF0E640B0EBC7
:10C86000420F94BF00204FF0FF30009030E0464B65
:10C8700022F00040834265D94449204601F002F984
:10C8800001F0FEF9804601F031F800F0030000905D
:10C890003F49404601F0F6F805463E49404601F062
:10C8A000F1F806463C49404601F0ECF807463B49A2
:10C8B000404601F0E7F8214601F012FA394601F04E
:10C8C000A1FA314601F09EFA294601F09BFA04468E
:10C8D000009D002D3ADB2146084601F0D3F80646BC
:10C8E0002F4901F0CFF82F4900F096FE314601F0B4
:10C8F000C9F82D4900F090FE314601F0C3F82B49EC
:10C9000000F08AFE314601F0BDF8294900F084FEAE
:10C91000314601F0B7F8274900F07EFE314601F0BC
:10C92000B1F8214601F0AEF8214600F075FE15F091
:10C93000010F08BFBDE8F8830146BDE8F8431E4873
:10C9400000F0DEBE1046FEF799FCC0E76000B0F1D3
:10C950007F4F09D22046FEF7E8FB042808BFFEF708
:10C9600088FC2046BDE8F88306D10120FDF708FCCD
:10C97000BDE8F843FEF779BC2046BDE8F843FEF772
:10C980006FBC0000B61F927E490E494683F9223FD4
:10C990001A61342C0020A23300A0FD390000C93FE9
:10C9A000BBE9223C0C6D063B8A76CE3CACB5593DCA
:10C9B00035A1083E29AAAA3E000080BF10B5002973
:10C9C0000AD00878002807D005487844FDF79EFF74
:10C9D000002801D0002010BD0248784410BD00009E
:10C9E0004A1C0000421C000021F00042A2F16052EB
:10C9F000B2F5801F01F0004328BFD2F17F6C0BD944
:10CA00005FEA001C43EAC20242EB507018BF704755
:10CA100028BF20F001007047B2F5801FBCBF184648
:10CA200070474FEA410C1CF5001F02D2084601F086
:10CA3000F0B870B500F05EFB00000089FFF7F6BFAC
:10CA40004FF00040A0F580007047000010B591EA5B
:10CA5000030F48BF83F0004300F1D084841A71EBC8
:10CA6000030C05D2121943EB0C03001B61EB0C0104
:10CA7000DFF824E14FEA1154A4EB135C1EEA430FE4
:10CA800018BF9EEA445F73D023EA0E03DCF1200E48
:10CA900021EA045143F4801332D322FA0CFE10EB46
:10CAA0000E0023FA0CFE41EB0E01CCF1200E03FA2E
:10CAB0000EFE10EB0E0051F10001B1F5801FCCF11C
:10CAC000200E32D201EB045112FA0EF2BDE81040F2
:10CAD00058BF7047401C38BF5FEA420218BF70471A
:10CAE000002814BF20F0010041F100014FEA41038A
:10CAF00013F5001F38BF7047A1F1C04100F048BBDB
:10CB0000012A43EB0302ACF1200CDCF11F0E32BF13
:10CB10004FF0000E23FA0CF310EB030041EB04512D
:10CB2000B4EB115FD0D0A1EB045101F5801149089D
:10CB30005FEA300001EB04510ED350F1000038BF22
:10CB400012FA0EFE08D1BDE81040C9E7401C38BFFC
:10CB50005FEA4202CAD1C3E7BDE810404FEA410391
:10CB600013F5001F38BF7047A1F1C04100F010BBA2
:10CB70009EEA445F08D011EA5E0FBDE8104004BF92
:10CB800001F0004100207047BDE8104070B500F092
:10CB9000B1FA00BF64FBBE3E0000E0FF02494FF067
:10CBA000000001F0A6B900BF0000F87F491058BF8F
:10CBB000C1F140415B1058BFC3F140438B42EFF3DA
:10CBC000008070472DE9C04130B4DFF8A0C23CEAD4
:10CBD000111418BF3CEA131400F0EC8081EA03053D
:10CBE0001CEA111444EAD57418BF1CEA131500F0AE
:10CBF000C780A4EB05044FF0004545EAC12145EA92
:10CC0000C32341EA505143EA525304F17F749942DD
:10CC100004F500344FEAC0204FEAC22208BF904218
:10CC200000F09C804FEA13650FF24016765D4FEAE4
:10CC3000134506FB05F7C7F1807706FB07F74FEAB8
:10CC4000D737A7FB03687642C8F58038A7FB06CE26
:10CC500038BFA8F1010807FB08E64FF0000EA6FB5D
:10CC6000028CE6FB03CEDCF1000CCEF1004E38BFA7
:10CC7000AEF1010EA6FB0C584FF000074FF0000577
:10CC8000E6FB0E87A1FB08C6A0FB07CE16EB0E063F
:10CC900045F10005E1FB076515F1E04E7EBFA4F507
:10CCA00080345FEA46066D4116F1800745F10005C4
:10CCB0004FEA17274FEA066647EA0567A6F1DE4600
:10CCC000B6F1805F4FEA15251FD9384624F0010CD4
:10CCD00005EBC471BCF1FE6F01EB0C1102D8F0BC86
:10CCE000BDE8008124425CBF01F5801E9EEAC47F3E
:10CCF00002D4F0BCBDE80081244238D4F0BCA1F1DC
:10CD0000C041BDE8004100F043BA4FEAD22242EAF6
:10CD100043524FEAD323A7FB02864FEAD02040EAD2
:10CD2000415007FB03661EEA0E0F4FEAD12105FBB7
:10CD3000026658BFA6EB0056B6EB00564FEA520EFD
:10CD40004EEAC37E18EB0E0E56EB530EBDD518EB14
:10CD500002085E417F1C55F10005B6E74FF48015CF
:10CD60004FF000074FF000064FF00008ADE7F0BCB1
:10CD70004FF0000001F1C04101F00041BDE8008129
:10CD800011EA0C1F0CEA131500D00CE013EA0C1F7B
:10CD900000F025804FF00000F0BC81EA030101F0B3
:10CDA0000041BDE80081F0BCBDE8004181EA03011B
:10CDB00000F0EEB9F0BCBDE8004170B500F09AF9A2
:10CDC000097EFC3E00F007B881EA03014FF0000045
:10CDD00001F00041704781EA030100F0D9B9F0BCCD
:10CDE000BDE800414FF0000021497047FFFDFBF90D
:10CDF000F7F5F4F2F0EEEDEBE9E8E6E4E3E1E0DE8E
:10CE0000DDDBDAD8D7D5D4D3D1D0CFCDCCCBCAC8FF
:10CE1000C7C6C5C4C2C1C0BFBEBDBCBBBAB9B8B726
:10CE2000B6B5B4B3B2B1B0AFAEADACABAAA9A8A819
:10CE3000A7A6A5A4A3A3A2A1A09F9F9E9D9C9C9BE7
:10CE40009A99999897979695959493939291919092
:10CE50008F8F8E8E8D8C8C8B8B8A89898888878723
:10CE60008685858484838382828181800000FF0798
:10CE70000000F87F4FEA41034FEA5353A3F5806364
:10CE8000D3F11E03C8BFD3F1210C0CDD4FF00042DB
:10CE900042EAC12242EA505232FA03FC8CEAE17CB7
:10CEA000ACEBE1707047102BC4BF0020704703F556
:10CEB000787CBCF1FF3F04D06FF0004282EA210091
:10CEC000704770B500F016F9499224800020704731
:10CED000F2E710F0004248BF4042B0FA80F310FA87
:10CEE00003F10AD0C3F11D0303F580634FEA4150FB
:10CEF00002EB035202EBD12170474FF00000704764
:10CF0000B0FA80F310FA03F10AD0C3F11D0303F560
:10CF100080634FEA41504FEA035202EBD121704740
:10CF20004FF000007047000051EA030C17D41CF5C5
:10CF3000801F58BFBCF5801F00F10680994218BFC2
:10CF4000704708BF9042704707D711F5801F58BF40
:10CF500013F5801F19D499427047894270471CF518
:10CF6000801F08D5BCF5801FF7D58B4218BF7047CE
:10CF700008BF824270474FF4001C1CEB410F38BFC2
:10CF80001CEB430F01D28B42704770B500F0B2F832
:10CF9000922449004FF000514FF08053FFF706BE36
:10CFA000DFF848C170B51CEA111E1EBF1CEA13153C
:10CFB0009EEA0C0F95EA0C0F00F06F8081EA0304E3
:10CFC00023EA4C134EEAD47E21EA4C1141F480113D
:10CFD00043F48013AE44A1FB024CA0FB0365AEF109
:10CFE0007F7E361955EB0C05A1FB034C4CF1000379
:10CFF000A0FB021C16EB0C06654153F1000309422D
:10D0000018BF46F0010613F4007F0BD14FEA03313D
:10D010004FEA0530340341EA155140EA16506FF0EB
:10D0200003020AE04FEAC3214FEAC520F40241EAB5
:10D03000555140EA56506FF0020202EB2E4201EBCE
:10D04000025585EACE710AD05FEA440C18BF24F07D
:10D05000004450F1000041F1000120EAD47040F298
:10D06000FE7C624500D270BDA84214BF4FF08044E0
:10D070004FF04044002E08BF0024BEF1806FA8BFCF
:10D08000A1F1C041BDE8704080F282804FF0000005
:10D0900001F1C04101F0004170479EEA0C0F0CEA1B
:10D0A000131518BF95EA0C0F06D04FF0000081EA67
:10D0B000030E0EF0004170BD00F01CF88900013E27
:10D0C00000F007B800F009B84FEA430C5FEA5C5C77
:10D0D00008D081EA030100F05BB84FEA410C5FEA37
:10D0E0005C5CF6D14FF00000014970470000FF077B
:10D0F0000000F87F0EF1020E2EF0030E5EF8046BB6
:10D10000364205D4012A43EB030515F5001F12D85A
:10D11000012841EB010C1CF5001F0CD80ED14FEA81
:10D12000D17C15F5001F0CEB4C0C0CF1020C08BF68
:10D130004CEBD37C04E04FF0080C01E04FEAD37CC9
:10D140000CEB4C0526FA05F606F00706B6F1040CC2
:10D1500006D20EEB860CBDE870404CF0010C604727
:10D16000DFE80CF0090B02024FF000414FF0000025
:10D17000A1F5002170BD19461046012851EB0104AC
:10D1800018BFD4F5001484BF002001F0004170BD29
:10D190000808A0F500114FEA3101704753EA010C6D
:10D1A00017D41CF5801F58BFBCF5801F00F1068006
:10D1B0008B4218BF704708BF8242704707D713F5EC
:10D1C000801F58BF11F5801F19D48B4270479B42B6
:10D1D00070471CF5801F08D5BCF5801FF7D5994214
:10D1E00018BF704708BF904270474FF4001C1CEBFB
:10D1F000430F38BF1CEB410F01D2994270470FB467
:10D200000CBC03BCFFF7C1BE91EA030F10B581F05F
:10D2100000413FF523AC83F0004300F0EFB800007D
:10D220002DE9F04101F5801CBCF5001FC0F2C38060
:10D230004FEA115C21EA0C510CF1FD0C41F4801114
:10D240005FEA5C0C0CF5C07C01D3400049413DA471
:10D25000890241EA905187028E0E0A0CA45D04FBFC
:10D2600004F602FB06F6C6F14046A4FB0662F60D84
:10D2700046EA422606FB06F4A4FB01235242C3F110
:10D28000404338BF5B1EA6FB02420024E6FB03249A
:10D29000D20B42EA4446A6FB0623A1FB02E2A3FB13
:10D2A00007E4A4184FF0000252F10002E3FB014230
:10D2B0006442C2F1404E38BFAEF1010EA6FB04231A
:10D2C0004FF00002E6FB0E32A2FB03464FF00004D3
:10D2D000B61954F10004E2FB0264A1FB06E6A4FBCC
:10D2E00007E816EB08064FF0000858F10008E4FBC9
:10D2F00001687642C8F1405838BFA8F10108A2FB86
:10D3000006E4A3FB08E52D194FF0000454F10004D6
:10D31000E2FB0854A1FB05E6A7FB04E818EB0608AE
:10D320004FF0000656F10006E1FB048618F12005D7
:10D3300056F10006A809A8F11B08B10908F03F083A
:10D34000B8F10A0F40EA86601CD901EB0C51BDE828
:10D35000F08100BFFCF5EEE8E2DDD8D3CFCBC7C348
:10D36000C0BDB9B6B4B1AEACA9A7A5A3A19F9D9B02
:10D370009A9896959392908F8D8C8B8988878685C5
:10D3800084838281A0FB006800FB01F208EB420865
:10D39000B8EB872807D5341858EB0104D5D5401CC5
:10D3A00051F10001D1E7341A78EB0104CDD4401ECD
:10D3B00071F10001C9E75FEA4C0C5FEA9C5C0DD19A
:10D3C00005D34FF0000001F00041BDE8F081BDE859
:10D3D000F04170B5FFF78EFE6DDBFFBEBDE8F0419A
:10D3E0004FF00000004970470000F87F10B591EA47
:10D3F000030F48BF83F000433FF530AB841A71EB55
:10D40000030C07D212198CF0004C43EB0C03001BE9
:10D4100061EB0C01DFF8A4E14FEA1154A4EB135CBB
:10D420001EEA430F18BF9EEA445F00F0B08023EA73
:10D430006E03524221EA0451C3EB6E0338BF5B1EF8
:10D44000DCF1200E25D322FA0CFE10EB0E0043FA7D
:10D450000CFE41EB0E01CCF1200E03FA0EFE10EB98
:10D460000E0051F10001CCF1200E29D412FA0EF277
:10D4700001EB0451BDE8104058BF7047401C1CBF71
:10D48000B2F1004F704700280CBF491C20F001008A
:10D49000704712EB020E43EB030218BF4FF0010E70
:10D4A0004EEA4202ACF1200CDCF11E0E54D943FAD4
:10D4B0000CFE10EB0E0051F1FF31CCF11E0ED5D554
:10D4C0000EF1010E12FA0EFE404141EB010101EB9B
:10D4D000445C5FEA5C5C10D910EBDE7001EB045138
:10D4E00038BFBEF1004FBDE8104018BF704700289C
:10D4F0000CBF491C20F00100704730D24FEAD42CF9
:10D5000011F5001124F400641BD0B1FA81F20B3A3A
:10D51000A41AA41ED2F12003914030FA03F3194358
:10D52000904001EBCC71002C01EB0451BDE81040A0
:10D53000A8BF704701F1C0414FF0000001F0004169
:10D540007047B0FA80F310FA03F100D110BDE41A6D
:10D55000173C4805C90AE4E701EB045110BD491026
:10D5600001EB0451BDE810404FEA300002E04FF0FB
:10D57000000170474A0008BF0042F8D0B2F5001F12
:10D5800028BF704701F000414FF0000070479EEA4D
:10D59000445F07D011EA5E0FBDE8104004BF0021D0
:10D5A00000207047BDE8104070B5FFF7A3FD00BF35
:10D5B00040DFF63E83F00041104670470000E0FF78
:10D5C00043004FEAD30C4FEA3C0C43401FBF4007D7
:10D5D0000CF1605113F0FE4F70471CF0006F03D147
:10D5E00000200CF0004170470CF0004343EA5070FB
:10D5F00010B540EACC0000F0C6FA00BF000000926F
:10D600004FEA0001FFF7C4BD4FF000414FF00000AA
:10D61000A1F500217047000090EA010F48BF81F09A
:10D62000004100F1F683421A3CBF801A89184FEA84
:10D63000D0524FF07F4C1CEA410FA2EBD15318BFE0
:10D640009CEA026F00F03B804FF0004C4CEA002057
:10D650004CEA012121FA03FC10EB0C0C1ED202F162
:10D66000FF325FEA1C2040EBC25038BF70471CF00D
:10D670007F0F4FEA400C18BFBCF17F4F38BF704797
:10D68000C3F12003994008BF20F00100BCF17F4F97
:10D6900038BF7047A0F1C04000F0BBBA4FEA3C0071
:10D6A000000A40EBC25028BF1CF0FF0F4FEA400CAD
:10D6B000E6D018BFBCF17F4F38BF7047EAE79CEA5D
:10D6C000026F05D010EA5C0F08BF00F00040704701
:10D6D00010B500F058FA00BF64FBBE3E014800F0F0
:10D6E00008BC00BF0000C07F401058BFC0F14040E0
:10D6F000491058BFC1F140418142EFF300807047AB
:10D700004FF47F0C1CEAD0121EBF1CEAD11392EA20
:10D710000C0F93EA0C0F00F0858090EA010F48BFD0
:10D7200042F4807240F4000C41F400002CF07F4180
:10D7300020F07F4000B58142A2EB03020FF2081CEB
:10D74000ACEB504EC0F100009EF800E04FEA4E0EE8
:10D7500000FB0EFC38BF49004FEA2C1C02F5FA0210
:10D760000CFB0EF34FEACE1E4FEA112C4FEAC121FB
:10D770000EEB635E42EB22420EFB0CFC4FEA1C53A5
:10D7800000FB03114FEA112C4FEA01310EFB0CFC98
:10D790004FEADC4C00FB0C11C14228BF09184CEBCE
:10D7A00003335DF804EB10EB410143EBC250B2F5DB
:10D7B0007C0F38BF704729D512F0F00F1CBF00F165
:10D7C000C04000F0004070470081828384858687D6
:10D7D00088898B8C8D8E8F919293959697999A9C30
:10D7E0009D9FA0A2A3A5A7A8AAACAEB0B2B3B5B79F
:10D7F000B9BCBEC0C2C5C7C9CCCED1D4D7D9DCDF75
:10D80000E2E6E9ECF0F3F7FAFE0000004FEA400C24
:10D810000CF1807CBCF17E4F28BF7047B0F1C04056
:10D8200000F0F7B990EA010F0CEAD11348BF42F4B7
:10D830008072624538BF634507D213F47F0F16D05C
:10D8400080EA010000F00040704710B500F09BF93D
:10D85000097EFC3E00F005B880EA010000F00040BF
:10D86000704780EA010000F0004000F0D2B912F4E5
:10D870007F0F04BF0248704780EA010000F0C9B979
:10D880000000C07F50EA010C00F113801CF5000F6E
:10D8900058BFBCF5000F01D48842704707D710F578
:10D8A000000F58BF11F5000F15D488427047894208
:10D8B00070471CF5000F04D5BCF5000FF7D5814269
:10D8C00070474FF0807C1CEB400F38BF1CEB410FC2
:10D8D00001D28142704710B500F055F992244900F9
:10D8E0004FF000504FF08051FFF7FEBE41000B0E8D
:10D8F000D3F19E0208D950F400034FEA032323FA20
:10D9000002F048BF4042704710B500F03CF900BF3C
:10D9100049922480002070476FF0004282EA200084
:10D9200070470000C10DD1F19E0206DB4FEA0023D3
:10D9300043F0004323FA02F07047004207D54FEA54
:10D940004001B1F1FE4F02D24FF00000704710B518
:10D9500000F019F949922480002070476FEA2000F6
:10D960007047000010F0004148BF4042B0FA80F319
:10D9700010FA03F2C3F19D030BD051EAC35101EB3E
:10D980001220530638BF704700F1010008BF20F095
:10D99000010070474FF07E5209E011F0004204D5BB
:10D9A0004042C1F1000138BF491E42F07E520B00D7
:10D9B00002F1706212BF20235FEA00017047B1FAE2
:10D9C00081FCA3EB0C0301FA0CF120FA03FC02EB3F
:10D9D000C352C3F1200341EA0C0110FA03FC5CEAD4
:10D9E000416C42EB112018BF5FF0806C28BF20F023
:10D9F00001007047B0FA80F310FA03F2C3F19D03FF
:10DA00000AD0D90501EB1220530638BF704700F148
:10DA1000010008BF20F001007047000050EA010C2F
:10DA200000F113801CF5000F58BFBCF5000F01D4A6
:10DA30008842704707D710F5000F58BF11F5000F47
:10DA400015D488427047894270471CF5000F04D5F1
:10DA5000BCF5000FF7D5814270474FF0807C1CEB7E
:10DA6000400F38BF1CEB410F01D28142704710B507
:10DA700000F089F8922449004FF000504FF0805197
:10DA8000FFF732BE4FF47F0C1CEAD0121EBF1CEA17
:10DA9000D11392EA0C0F93EA0C0F00F0478090EA42
:10DAA000010F48BF42F480724FF0004C4CEA002056
:10DAB0004CEA012102EB0302A0FB0113A2F50002D4
:10DAC000002918BF43F001035B0028BF4FEA33036E
:10DAD00042EB22425FEA132C4CEBC2502EBFBCEB50
:10DAE000436FB2F57C0F70474FEA036CBCF1004FF7
:10DAF00008BF20F00100B2F57C0F38BF70470BD58E
:10DB000082F0FF0212F5803FC8BF704700F1C040AD
:10DB1000D8BF00F00040704700F5000C5FEA4C0CE5
:10DB200048BF7047B0F1C04000F073B890EA010FF1
:10DB30000CEAD11348BF42F48072624538BF634596
:10DB400004D280EA010000F00040704710B500F0F8
:10DB50001AF800BF8900013E00F007B800F009B8CC
:10DB60005FEA410C5FEA1C6C08D080EA010000F01B
:10DB700050B85FEA400C5FEA1C6CF6D14FF00040F1
:10DB8000A0F5800070470EF1020E2EF0030E5EF835
:10DB9000044B244204D44FEA4102B2F17F4F11D822
:10DBA0004FEA4003B3F17F4F0CD80ED14FEAD07C3F
:10DBB000B2F17F4F0CEB4C0C0CF1020C08BF4CEB9C
:10DBC000D17C04E04FF0080C01E04FEAD17C0CEB73
:10DBD0004C0324FA03F404F00704B4F1040C06D255
:10DBE0000EEB840CBDE810404CF0010C6047DFE800
:10DBF0000CF0070802024FF00040A0F5800010BDB5
:10DC00000846420018BFD2F1807288BF00F0004081
:10DC100010BDFF2141EAD050C005704751EA000C09
:10DC200000F113801CF5000F58BFBCF5000F01D4A4
:10DC30008142704707D711F5000F58BF10F5000F4C
:10DC400015D481427047894270471CF5000F04D5F6
:10DC5000BCF5000FF7D5884270474FF0807C1CEB75
:10DC6000410F38BF1CEB400F01D28842704780EA59
:10DC7000010081EA000180EA0100FFF7F8BE000020
:10DC80005FEA400C5FEA1C6CBCF17F0314D4D3F153
:10DC9000170240F31C804FF0010C0CFA02FCACF1AF
:10DCA00001030340B3EB5C0220EA030008BF10EA63
:10DCB0000C0F88BF60447047B3F1FF3F28BF5FEA95
:10DCC000002C00F0004088BF40F07E507047BCF14F
:10DCD000FF0FB8BF704710B5FFF755FF40DBB6BE6A
:10DCE00080F0004090EA010F7FF59DAC81F000418B
:10DCF00000F08FB84FEAD051002988BFD1F1FF0260
:10DD000040F2758001F17D014FEA002070B54908AD
:10DD100040F0004038BF40080EA2430E040CD25C15
:10DD200002FB02F304FB03F3C3F14043A3FB0254E1
:10DD3000ED0D45EA442202FB02F3A0FB03546D42C1
:10DD4000C4F1404438BF641EA2FB05350023E2FB4A
:10DD50000453EA0B42EA4342A0FB023212F14004B0
:10DD6000A2F12103E40903F07F031F2B32D904EB56
:10DD7000C15070BDFEFAF7F3F0ECE9E6E4E1DEDC59
:10DD8000D9D7D4D2D0CECCCAC8C6C4C2C1BFBDBCFC
:10DD9000BAB9B7B6B4B3B2B0AFAEACABAAA9A8A784
:10DDA000A6A4A3A2A1A09F9E9E9D9C9B9A99989792
:10DDB000979695949393929190908F8E8E8D8C8C54
:10DDC0008B8A8A89898887878686858484838382EB
:10DDD0008281818004FB04F6B6EB004603D5E6425F
:10DDE00048BF641CC3E7A64258BF641CBFE711F0DC
:10DDF000FF0F02D100F00040704710B5FFF7C3FEDF
:10DE00007FDBFFBE90EA010F48BF81F000413FF584
:10DE10000AAC421A04D882F00042A0EB020011447E
:10DE20004FEAD0524FF07F4C1CEA410FA2EBD15386
:10DE300018BF9CEA026F4AD04FF0004C4CEA002019
:10DE40004CEA012121FA03FCB0EB0C0C0FD412F0C8
:10DE5000FE0F36D05FEA4C001DD5001240EBC250D9
:10DE600038BF70471CF03F0F18BF70470BE0A2F19E
:10DE700001025FEA1C2040EBC25038BF70471CF023
:10DE80007F0F18BF7047C3F12003994014BF401E95
:10DE900020F00100704780084FEA122308BF704746
:10DEA000B0FA80FCA2EB0C02CCF1280C60FA0CF06A
:10DEB00093EA122F04BF00EBC25070474FEAC370C1
:10DEC0007047130A5FEADC1008BF7047F6E79CEA68
:10DED000026F04D010EA5C0F08BF0020704710B535
:10DEE000FFF751FE40DFF63E81F000407047FCF73F
:10DEF0007DBA0CF00F03092B08BF082000F07F80CB
:10DF00000A2B0BD0082B18BF704708BF1CF0400F1E
:10DF10000AD04FF000004FF0000170471CF0400F96
:10DF200018BF4FF0004070471CF0100F08D020F0D1
:10DF3000704300F07F4242EAD3014FEA43707047DA
:10DF400000F0604021F07F4242EA000201F07F4091
:10DF500040EA727070474FF0FF0C4CF4E06C1CEA22
:10DF600011531CBF9CEA030C9445C2BFDA4201EB7B
:10DF700002517047002B0DD0BCF1000F0FD0002ACA
:10DF800001F00041A4BF41F0E04141F07F614FF05A
:10DF90000000704701F000414FF00000704750EA68
:10DFA00001334FF09B0C18BF4CF0806C7EF4F6AD43
:10DFB00070474FF0FF0212EAD0521CBF92F0FF03ED
:10DFC0008B42C2BFD14200EBC1507047002A0AD039
:10DFD000002B0BD0002900F00040A4BF40F0FE4011
:10DFE00040F40000704700F00040704743024FF0DB
:10DFF0000B0C18BF4CF0806C7FF470AB70471CF4B6
:10E00000801F11D01CF4E02F03D06FEACC314900FF
:10E0100070474FF04050EFF3008222F0704242EA26
:10E02000000282F3008870474FF0000070474154AF
:10E03000004F4B0041542B4E414D453F004F4B2B61
:10E040004E414D453A4372617A65706F6E79004179
:10E05000542B4E414D454372617A65706F6E790065
:10E0600041542B50494E3F004F4B2B50494E3A31B3
:10E070003233340041542B50494E31323334004155
:10E08000542B52454E4557004F4B2B52454E45574A
:10E090000041542B424155443F004F4B2B424155C8
:10E0A000443A3131353230300041542B42415544ED
:10E0B000340000000000803F00000000000000006D
:10E0C000000000000000803F000000000000000091
:10E0D000000000000000803F3031323334353637E5
:10E0E000383941424344454640305800303132339C
:10E0F000343536373839616263646566403078009C
:10E10000000000000000F03F000000000000F83FA9
:10E1100000000000000000000000004003B8E23FE3
:10E12000000000000000000006D0CF43EBFD4C3E95
:10E13000033333333333E33FFFAB6FDBB66DDB3F8A
:10E140004D268F515555D53F01411DA96074D13FD2
:10E1500065DBC9934A86CD3FEF4E454A287ECA3FCC
:10E160003E5555555555C53F93BDBE166CC166BF4E
:10E170002CDE25AF6A56113FF16BD2C541BDBBBE47
:10E18000D0A4BE726937663E4FBB610567ACDD3F08
:10E19000182D4454FB21E93F9BF681D20B73EF3FCE
:10E1A000182D4454FB21F93FE2652F227F2B7A3C46
:10E1B000075C143326A6813CBDCBF07A8807703CFF
:10E1C000075C143326A6913CC4EB98999999C9BF72
:10E1D000711623FEC671BCBF6D9A74AFF2B0B3BFA7
:10E1E0009AFDDE522DDEADBF2F6C6A2C44B4A2BF67
:10E1F0000D5555555555D53FFF8300922449C23FD3
:10E200006E204CC5CD45B73F513DD0A0660DB13F06
:10E21000EB0D76244B7BA93F11DA22E33AAD903F18
:10E220000000000000000000000000006E83F9A262
:10E230002915444ED15727FCC0DD34F5999562DB92
:10E240004190433CAB6351FE02400000000000A03F
:10E250000000000005400000000000C800000000B1
:10E260000C4000000000409C00000000194000002D
:10E270000020BCBE0000000034400000BFC91B8E5F
:10E2800000000004B5400000504BCFD06607E2CF3D
:10E29000010000006C4100003E8251AADFEEA7346D
:10E2A00001000000D9420000DCB5A0E23A301F971F
:10E2B000FFFFFFFFB4450000FD25A0C8E9A3C14F43
:10E2C000FFFFFFFFFF3F0000000000800000000094
:10E2D000FF3F00000000008000000000202A2020F6
:10E2E000202020202020202020202020202020202E
:10E2F000202020202020202020202020202020201E
:10E30000202020202020202020202F5F5F5F5F5FC3
:10E310002F202020202020202020202020202A0DF7
:10E320000A000000202A2020202020202020202059
:10E3300020202020202020202020202020202020DD
:10E3400020202020202020202020202020202020CD
:10E350002020205F5F5F5F2F202F202020202020A3
:10E360002020202020202A0D0A000000202A202022
:10E37000202020202020202020202020202020209D
:10E38000202020202020202020202020202020208D
:10E39000202020202020202020202020202020207D
:10E3A0002F202F20202020202020202020202A0D58
:10E3B0000A000000202A20205C5F5F5F2F5F2F2073
:10E3C00020205C5F5F2C5F2F202F5F5F5F2F5C5FE3
:10E3D0005F5F2F5F2F202020205C5F5F5F202F5F1B
:10E3E0002F202F5F2F5F5F5F5F20202F20202020B6
:10E3F0002020202020202A0D0A000000202A202092
:10E400002F202F5F5F2F202F20202F202F5F2F20E6
:10E410002F202F202F5F2F20205F5F2F202F2020E5
:10E42000202F202F5F2F202F202F202F202F202F35
:10E430005F5F2F202F2020202020202020202A0D49
:10E440000A000000202A2020202F202F20202F200B
:10E450005F5F5F2F205F5F20602F5F20202F202FC6
:10E46000205F205C2F202F2020202F205F5F205C4A
:10E470002F205F20205C2F202F20202F202F2020D6
:10E480002020202020202A0D0A000000202A202001
:10E4900020202F202F2020205F5F5F5F5F5F5F5F66
:10E4A00020205F5F5F5F20205F5F5F20202F205F65
:10E4B0005F5F5F2F5F5F5F20205F5F5F5F20205F98
:10E4C0005F2020205F5F20202020202020202A0D98
:10E4D0000A000000202A202020202020205F5F5FEB
:10E4E0005F202020202020202020202020202020ED
:10E4F000202020202020205F5F5F5F5F20202020E1
:10E5000020202020202020202020202020202B2DF3
:10E510002D2D2B2020202A0D0A000000202A20204B
:10E520002020202F202F20202020202020202020CD
:10E5300020202020202020202020202020202F20CC
:10E540002F5F2F202F20202020202020202020205F
:10E550002020202020202B2D2D2D2B2020202A0D87
:10E560000A000000202A2020202020202F205F5F8A
:10E570005F5C202020202020202020202020202020
:10E58000202020202020202F205F5F205C202020C2
:10E5900020202020202020202020202020207C201F
:10E5A00052207C2020202A0D0A000000202A2A2A3E
:10E5B0002A2A2A2A2A2A2A2A2A2A2A2A2A2A2A2ABB
:10E5C0002A2A2A2A2A2A2A2A2A2A2A2A2A2A2A2AAB
:10E5D0002A2A2A2A2A2A2A2A2A2A2A2A2A2A2A2A9B
:10E5E0002A2A2A2A2A2A2A2A2A2A2A2A2A2A2A0DA8
:10E5F0000A00000030E6000800000020B803000018
:10E6000028010008D4E60008B8030020F811000033
:10E61000840100081C00000043000000F8FFFFFF19
:10E620000C0000000E0000000F0000002E00000093
:10E630001184A24A040009340102030406070809F0
:10E64000051134C310101384032380251AB0621AF5
:10E65000605633C012324B329632E10B27C201288A
:10E66000592A012D4BDC05044BD007044BB80B0491
:10E670004B8813040B28F82A4A4902A12CAAAA01A4
:10E68000A60115051FAAAA021E193F121412641230
:10E69000C83282326432C8121E03270A6B0716AAD8
:10E6A000AF0201015D223F87A041CDCC4C3D05CE9C
:10E6B0000AE81CC11A80E401622D0102030404105F
:10E6C0000906070809020406080A450158093EFE22
:04E6D00013841E0091
:04000005080003CD1F
:00000001FF
